:100000000C94D1000C94F0000C94F0000C94F000CF
:100010000C94F0000C94F0000C94F0000C94F000A0
:100020000C94F0000C94F0000C94F0000C94F00090
:100030000C94F0000C94F0000C94F0000C94F00080
:100040000C94F0000C94F0000C94F0000C94F00070
:100050000C94F0000C94F0000C94F0000C94F00060
:100060000C94F0000C94F0000C94F0000C94F00050
:100070000C94F0000C94F0000C94F0000C94F00040
:100080000C94F0000C94F0000C94F0000C94F00030
:100090000C94F0000C94F0000C94F0000C94F00020
:1000A0000C94F0000C94F0000C94F0000C94F00010
:1000B0000C94F0000C94F0000C94F0000C94F00000
:1000C0000C94F0000C94F0000C94F0000C94F000F0
:1000D0000C94F0000C94F0000C94F0000C94F000E0
:1000E0000C94F0000C945B060C9465060C9451067D
:1000F0000C94FB050C9426060C946F060C94D0050A
:100100000C9483060C94650B0C948E0B0C94F000ED
:100110000C94F0000C94F0000C948D060C9479066D
:1001200003020201010000FFFEFDFCFBF9F7F4EF02
:10013000521C6A17E4162B255323ED21882AE72742
:1001400055286727292EB23000002332ED2A0000FF
:10015000081B181BF81ACE1AE71A0E1A271AB01A1B
:1001600000000000E6199719601A6C19FC1987192C
:10017000C819B9197819D71901040101010201013F
:100180000101010101010101040108020101010154
:100190000201010201020101020102020101010149
:1001A000080011241FBECFEFD1E4DEBFCDBF12E0A7
:1001B000A0E0B2E0EEE3F8E700E00BBF02C007907A
:1001C0000D92A03FB107D9F718E0A0EFB2E001C04F
:1001D0001D92AE38B107E1F70E94AD030C941D3CAF
:1001E0000C940000CF92DF92EF92FF920F931F9337
:1001F000DF93CF93CDB7DEB7CF5FD0400FB6F89483
:10020000DEBF0FBECDBFF22EE32ED82EC92EE09159
:10021000F002F091F102309701F18091F202821721
:10022000E1F48091F3028317C1F48091F402841702
:10023000A1F48091F502851781F48091F60286176A
:1002400061F48091F702871741F48091F8028D15CF
:1002500021F48091F902891741F12091FA0230913D
:10026000FB022115310531F18091FC028F1511F54A
:100270008091FD028E15F1F48091FE028417D1F475
:100280008091FF028517B1F480910003861791F4E5
:1002900080910103871771F4809102038D1551F449
:1002A000809103038C1531F4F901D801ED93FC938F
:1002B00081E05CC0EF2B19F4A0E0B0E006C0232B76
:1002C00011F080E053C0A1E0B0E09D012F5F3F4FEF
:1002D000F80120833183FD01EE0FFF1FCD0113E0F4
:1002E000880F991F1A95E1F7E80FF91FE051FD4FAC
:1002F00020833183FD01EE0FFF1FEE0FFF1FEA0F7A
:10030000FB1FEE0FFF1FEE50FD4FF082E182428394
:10031000538364837583D682C782809104038F5F81
:100320008093040300D000D000D0EDB7FEB7319623
:100330008E010F5F1F4FADB7BEB712961C930E9381
:10034000119780E092E093838283358324830E9417
:10035000AC370F900F900F900F90EDB7FEB7128350
:1003600001830E94653781E00F900F90C150DF4FED
:100370000FB6F894DEBF0FBECDBFCF91DF911F91B6
:100380000F91FF90EF90DF90CF900895EF92FF9242
:100390000F93DF93CF93CDB7DEB7CF5FD0400FB6CB
:1003A000F894DEBF0FBECDBF062F00D000D000D026
:1003B000EDB7FEB731967E010894E11CF11CADB794
:1003C000BEB71296FC92EE92119726E132E033838B
:1003D0002283848315820E94AC370F900F900F9078
:1003E0000F90EDB7FEB7F282E1820E9465370F9061
:1003F0000F90002319F484E392E009C0013F19F43F
:100400008CE392E004C0003F21F481E592E00E9479
:100410007737C150DF4F0FB6F894DEBF0FBECDBFA8
:10042000CF91DF910F91FF90EF900895EF92FF929F
:100430000F931F93442369F484E040E45BE46CE48D
:1004400070E020E030E00EE212E0EE24FF240E9493
:10045000E4091F910F91FF90EF9008952F923F9222
:100460004F925F926F927F928F929F92AF92BF92C4
:10047000CF92DF92EF92FF920F931F93DF93CF9370
:10048000CDB7DEB7CB50D1400FB6F894DEBF0FBE6C
:10049000CDBFFF24EDE0CE2ED12CCC0EDD1E75E6B7
:1004A000272E72E0372E6EEB462E6AEB562E5FE754
:1004B000652E52E0752E42E0842E912C8C0E9D1EEE
:1004C0005E010894A11CB11C69C00F2D10E000D082
:1004D00000D000D0EDB7FEB73196ADB7BEB71296DB
:1004E000DC92CE921197338222820F5F1F4F1583C9
:1004F0000483015010400E94AC370F900F900F9072
:100500000F90EDB7FEB7D282C1820E946537F2E04C
:10051000FA835C824B82F80133E0EE0FFF1F3A95BD
:10052000E1F7000F111FE00FF11FE051FD4F808137
:1005300091819E838D830F900F900E940037898355
:10054000809105038F5F8093050300D000D000D019
:10055000EDB7FEB73196ADB7BEB71296DC92CE922C
:10056000119773826282848315820E94AC370F9048
:100570000F900F900F90EDB7FEB7D282C1820E940C
:1005800065370F900F9082E0B40141E09501009132
:10059000050395E0E92E0E94D835F3948091040379
:1005A000F81608F492CF84E040E45BE46CE470E079
:1005B00020E030E00EE212E0EE24FF240E94E40985
:1005C000C55FDE4F0FB6F894DEBF0FBECDBFCF9133
:1005D000DF911F910F91FF90EF90DF90CF90BF9030
:1005E000AF909F908F907F906F905F904F903F90D3
:1005F0002F9008958F929F92AF92BF92CF92DF92E9
:10060000EF92FF920F931F93DF93CF9300D0CDB75C
:10061000DEB77901D42EC52EB62EA72E982E892EA0
:100620008FEF9FEF9A838983892D982D8E010F5F1D
:100630001F4F0E94F20009811A81882349F0970117
:100640004D2D5C2D6B2D7A2D892D982DEE2409C012
:1006500097014D2D5C2D6B2D7A2D892D982DEE2433
:10066000E3940E944C350F900F90CF91DF911F9132
:100670000F91FF90EF90DF90CF90BF90AF909F9041
:100680008F900895882359F483E992E00E94773788
:1006900081E090E060E070E00E94AC0B089581E0A2
:1006A0000E94C4340895AF92CF92EF920F938EEBD5
:1006B0009AEB64E140E02FE00FE0EE24E394CC24D9
:1006C000AA240E9414340F91EF90CF90AF90089518
:1006D000DF93CF9300D0CDB7DEB7882349F41982DA
:1006E0001A8283E5BE016F5F7F4F0E943D3603C0D3
:1006F00081E00E94C4340F900F90CF91DF91089554
:100700000F93DF93CF930F92CDB7DEB78823E9F431
:10071000633521F481E0898381E405C0613449F4C3
:1007200081E0898382E5BE016F5F7F4F0E943D3685
:100730000FC0623551F481E040E058EF6FEF77E091
:1007400021E000E00E94473403C081E00E94C434ED
:100750000F90CF91DF910F9108950E947F368823EB
:1007600011F00E9497060E94A50B80E090E060E0E7
:1007700070E00E94AC0B81E090E061E070E00E94CC
:10078000AC0B82E090E061E070E00E94AC0B7894EA
:1007900082E00E94B905882311F00E9497068AE141
:1007A00094E06EEF73E00E94193785EB92E00E94AF
:1007B000773787ED92E00E94773781E00E94C4345A
:1007C0000E946936FDCFDF93CF930F92CDB7DEB78E
:1007D0000E94150782E0BE016F5F7F4F41E00E94DB
:1007E000A705813019F02FEF3FEF03C08981282F33
:1007F00030E0C9010F90CF91DF9108950F931F93BF
:10080000DF93CF930F92CDB7DEB78E010F5F1F4FEF
:1008100002C00E94150782E0B80141E00E94A705CE
:100820008823B9F3898190E00F90CF91DF911F91D8
:100830000F9108950F931F93DF93CF930F92CDB72E
:10084000DEB789838E010F5F1F4F02C00E9415071C
:1008500082E0B80141E00E94B0058823B9F380E04E
:1008600090E00F90CF91DF911F910F9108955C9AC6
:10087000549AA19A999A6A9825982098829855989E
:100880009A986E9824986F98269802C05C985C9A03
:10089000629BFCCF0895DC0180910603882339F523
:1008A0009091920380919103981710F0815801C0A4
:1008B0008150891B282F681708F4262F80919503F3
:1008C000820F80939503322F0DC0E92FF0E0E95F8E
:1008D000FC4F8C9180839F3711F490E001C09F5FA3
:1008E00031501196332389F790939203622F862F0C
:1008F0000895DC0190919603992311F480E0089506
:100900009A3058F080919403809393038AE0809307
:1009100096036A3020F09AE003C0961708F0962FED
:100920004091960320919303392F0CC0E22FF0E001
:10093000E957FC4F80818C932F5F2A3009F420E027
:1009400011963150332391F7491B4093960320931E
:100950009303892F0895DF93CF9300D000D0CDB7B4
:10096000DEB7629930C0809196038F5F80939603C3
:100970002098829855989A986E9824986F982698FF
:100980005C98000000009091940383B181707A9983
:1009900082604D99846092998860669980611C9903
:1009A0008062679980641E998068E92FF0E0E957BA
:1009B000FC4F80835C9A993019F41092940303C021
:1009C0009F5F9093940350919503552309F089C03C
:1009D000B7C01D994FC0442329F080E090E0A0E00B
:1009E000B0E040E0209A829A559A9A9A6E9A249A98
:1009F0006F9A269AE32FF0E0E95FFC4FE0812E2FFB
:100A0000E0FF02C0289A01C0289821FF02C08A9AFC
:100A100001C08A9822FF02C05D9A01C05D9823FF41
:100A200002C0A29A01C0A29824FF02C0769A01C017
:100A3000769825FF02C02C9A01C02C9826FF02C090
:100A4000779A01C07798E7FF02C02E9A01C02E98CE
:100A5000A198A19A2098829855989A986E9824986F
:100A60006F9826983F3711F430E001C03F5F615026
:100A7000515044C08093970390939803A093990397
:100A8000B0939A03409306033093910350939503D8
:100A9000442309F055C00097A105B10529F487E961
:100AA00093E00E9470074CC0CE0101960E9470072F
:100AB00089819A81AB81BC81209197033091980301
:100AC0004091990350919A03821B930BA40BB50B91
:100AD00089589341A040B04098F181E0809306038B
:100AE0002FC08091970390919803A0919903B091A2
:100AF0009A0340910603309191036FEF552379F4E7
:100B00008093970390939803A0939903B0939A03CB
:100B100040930603309391031092950311C066230E
:100B200009F057CF8093970390939803A09399036C
:100B3000B0939A0340930603309391035093950327
:100B40000F900F900F900F90CF91DF91089582300A
:100B500011F080E00895CB01642F0E94790408957C
:100B6000823011F080E00895CB01642F0E944B0485
:100B70000895823011F085E808950E94370480E0DE
:100B8000089590939C0380939B03089590939E03F4
:100B900080939D0308959093A00380939F030895ED
:100BA0001F920F920FB60F920BB60F9211242F9334
:100BB0003F934F935F936F937F938F939F93AF93E5
:100BC000BF93EF93FF93E0919B03F0919C030995F2
:100BD000FF91EF91BF91AF919F918F917F916F9115
:100BE0005F914F913F912F910F900BBE0F900FBED1
:100BF0000F901F9018951F920F920FB60F920BB681
:100C00000F9211242F933F934F935F936F937F9392
:100C10008F939F93AF93BF93EF93FF93E0919D03C7
:100C2000F0919E030995FF91EF91BF91AF919F9134
:100C30008F917F916F915F914F913F912F910F9085
:100C40000BBE0F900FBE0F901F9018951F920F9222
:100C50000FB60F920BB60F9211242F933F934F9321
:100C60005F936F937F938F939F93AF93BF93EF9314
:100C7000FF93E0919F03F091A0030995FF91EF91FD
:100C8000BF91AF919F918F917F916F915F914F91A4
:100C90003F912F910F900BBE0F900FBE0F901F90A2
:100CA00018951F920F920FB60F9211240F900FBE3E
:100CB0000F901F9018951F920F920FB60F9211244C
:100CC0000F900FBE0F901F9018951F920F920FB6A6
:100CD0000F9211240F900FBE0F901F9018951F9226
:100CE0000F920FB60F9211240F900FBE0F901F900E
:100CF00018951F920F920FB60F9211240F900FBEEE
:100D00000F901F9018951F920F920FB60F921124FB
:100D10000F900FBE0F901F9018951F920F920FB655
:100D20000F9211240F900FBE0F901F901895FF92F5
:100D30000F931F939D9A6B9A6C9AA59A739A749AC3
:100D400080E2F82E08E010E18FEF9FEF0E94A607E7
:100D500084B38F2584BB8EB180278EB98EB1812755
:100D60008EB9F2CFCF92DF92EF92FF920F931F9343
:100D7000CF93DF937B018A016901892B11F088EE03
:100D800019C0CA01860F971F8150904110F085E865
:100D900011C0C0E0D0E00AC0CE018E0D9F1D0E94A0
:100DA000E339F601EC0FFD1F80832196C017D107B0
:100DB00098F380E0DF91CF911F910F91FF90EF901A
:100DC000DF90CF900895CF92DF92EF92FF920F9332
:100DD0001F93CF93DF938C017B016A01CB01800FBE
:100DE000911F8150904110F085E816C0C0E0D0E01E
:100DF0000FC0C8010E94E339F601EC0FFD1F6081AE
:100E0000861719F0C8010E94EB390F5F1F4F21961A
:100E1000CE15DF0570F380E0DF91CF911F910F9128
:100E2000FF90EF90DF90CF9008950E94AE090E944E
:100E3000AB0408950E9420070E94410780E00895B6
:100E40009FB7F894E0E0F0E089E080935700849148
:100E50009FBF8F70823011F090E001C09FE080E86A
:100E60000FB6F89480936100909361000FBE80E10B
:100E70008093350180933401809333018093320154
:100E800008951092A1031092A2038FEF8093A30301
:100E90008093A4038093A503E0E9F7E09FEF948398
:100EA00011821082399687E0ED3BF807C1F780E2A6
:100EB0008093B60088EA8093DC008FE08093F40092
:100EC0009093F3009093F2009093F10082E080936E
:100ED000E0008091DF0082608093DF000895089534
:100EE000FC018091DE0080FDFCCF2091E100822F8B
:100EF0002091E200922F2091E300A22F2091E400A4
:100F0000B22F24E0880F991FAA1FBB1F2A95D1F783
:100F100080839183A283B3830895FC012091E9002B
:100F2000822F2091EA00922F2091EB00A22F209196
:100F3000EC00B22F34E0880F991FAA1FBB1F3A950F
:100F4000D1F780839183A283B3830895AC01843663
:100F5000910518F060E070E01EC07FB7F89461E082
:100F60001AC057FD02C09A0102C02FEF3FE7C90126
:100F7000880F991F909581959F4F9093250180939D
:100F80002401FABBE0932101D09BFECF421B530BFF
:100F90001092210102C0F1E0E2E04115510509F78C
:100FA00061117FBF089520E090E0FC01B3E0EE0FF7
:100FB000FF1FBA95E1F7E80FF91FE457F84F848156
:100FC0009581892B09F021E0822F0895AF92BF927D
:100FD000CF92DF92EF92FF920F931F938091A30322
:100FE00090E0FC0113E0EE0FFF1F1A95E1F7E80F08
:100FF000F91FE457F84FA080B180C280D380809160
:10100000A103882309F46BC0D092F800C092F700C6
:10101000B092F600A092F5008091DF0080FD08C03C
:1010200081E08093E0008091DF0081608093DF00A9
:101030002091E100822F2091E200922F2091E30085
:10104000A22F2091E400B22F9C01AD012F5F3F4FF2
:101050004F4F5F4FDA01C9018A259B25AC25BD257D
:1010600080709070A070B87F0097A105B10531F431
:10107000A216B306C406D506C0F109C0D601C50143
:10108000B7705770281739074A075B0770F18091CE
:101090005D01883068F5E090A603F090A703009109
:1010A000A8031091A9030894E11CF11C011D111D56
:1010B000EA14FB040C051D05D9F48091E100282FEA
:1010C0008091E200382F8091E300482F8091E40066
:1010D000582F2E153F054007510779F706C080911C
:1010E000DF008E7F8093DF0003C081E08093A20346
:1010F0001F910F91FF90EF90DF90CF90BF90AF9036
:1011000008951F931FB7F8948091A203882309F4D0
:101110004CC01092A2033091A103332309F445C0BF
:101120008091A4038F3F59F48091A5038F3F39F438
:101130008091A3038093A5038093A40312C0209100
:10114000A3038091A50390E0FC0153E0EE0FFF1F85
:101150005A95E1F7E80FF91FE457F84F20872093DD
:10116000A5038091A30390E0FC0143E0EE0FFF1F75
:101170004A95E1F7E80FF91FE457F84F808580930F
:10118000A3038091A50390E0FC0123E0EE0FFF1F75
:101190002A95E1F7E80FF91FE457F84F8FEF8087A2
:1011A00031503093A1030E94E6071FBF1F9108959D
:1011B000FF920F931F93182F853010F08AE8C5C057
:1011C000FFB6F8940E9481080091A103002309F45E
:1011D000C0C04091A303242F842F302F1217F1F5A4
:1011E000212F30E0141781F4F901A3E0EE0FFF1F67
:1011F000AA95E1F7E20FF31FE457F84F808580933B
:10120000A3030E94E60718C090E0DC01E3E0AA0F08
:10121000BB1FEA95E1F7A80FB91FA457B84FF90112
:1012200073E0EE0FFF1F7A95E1F7E20FF31FE4572B
:10123000F84F808518968C93812F90E0FC0163E035
:10124000EE0FFF1F6A95E1F7E80FF91FE457F84F1B
:101250008FEF808701500093A10362C0822F90E03E
:10126000FC0153E0EE0FFF1F5A95E1F7E80FF91F5D
:10127000E457F84F50853150822F09F46AC0252F6A
:10128000ADCF1217D1F52091A5031317B1F41217A2
:1012900021F48FEF8093A5030DC0812F90E0FC0116
:1012A00043E0EE0FFF1F4A95E1F7E80FF91FE457FF
:1012B000F84F80858093A40333C0842F90E0DC0135
:1012C00033E0AA0FBB1F3A95E1F7A80FB91FA45747
:1012D000B84F812F90E0FC0103E0EE0FFF1F0A954D
:1012E000E1F7E80FF91FE457F84F808518968C93C3
:1012F0001217B1F44093A50313C0822F90E0FC01B4
:1013000073E0EE0FFF1F7A95E1F7E80FF91FE4573E
:10131000F84F422F20852F3F09F0B3CF80E00FC058
:10132000812F90E0FC0163E0EE0FFF1F6A95E1F76B
:10133000E80FF91FE457F84F1582148281E0FFBED1
:10134000882311F489E801C080E01F910F91FF907C
:1013500008953091A403232F432FDDCF1F930E94C4
:1013600081081FEF25C06FB7F894822F90E0FC0131
:10137000B3E0EE0FFF1FBA95E1F7E80FF91FE4574E
:10138000F84F208544815581868197811087158289
:101390001482178216822F3F09F43FEF6FBF411569
:1013A000510551F03093A5032093A403FA01099548
:1013B0003091A5032091A4032F3FA9F63093A503F4
:1013C0002093A4031F9108952F923F924F925F9212
:1013D0006F927F928F929F92AF92BF92CF92DF9245
:1013E000EF92FF920F931F93DF93CF9300D000D023
:1013F0000F92CDB7DEB7582E1801FB82EA8204E0C7
:10140000081710F48AE820C12114310409F419C125
:1014100090E09D838C83FC01A3E0EE0FFF1FAA9553
:10142000E1F7E80FF91FE457F84F84819581892B84
:1014300011F088E809C1E4E07695679557954795DE
:10144000EA95D1F72115310529F02130310509F050
:10145000F8C026C0DB01CA010897A109B109885F5D
:101460009F4FAF4FB74008F0EEC02091E100822FB0
:101470002091E200922F2091E300A22F2091E4001E
:10148000B22F7A018B01E80EF91E0A1F1B1F8FEF86
:101490009FEFAFEFBFE0E822F9220A231B2320C011
:1014A0002091E100822F2091E200922F2091E30011
:1014B000A22F2091E400B22F8A019B01081B190B77
:1014C0002A0B3B0BD901C801BF700897A109B109CC
:1014D000885F9F4FAF4FB74008F0B5C07A018B01CE
:1014E0002FB72983F8946FEF862E6FEF962E6FEF4C
:1014F000A62E6FE0B62E8E209F20A022B1220E9441
:1015000081086090A3033FEF631671F04090A10340
:10151000C62CD62C77248FEF9FEFAFEFB7E0E822F1
:10152000F9220A231B2367C05092A303EC81FD819B
:1015300053E0EE0FFF1F5A95E1F7AC81BD81EA0F32
:10154000FB1FE457F84F60865AC0BFEFDB1609F463
:101550004DC06D2D70E0FB0143E0EE0FFF1F4A957B
:10156000E1F7E60FF71FE457F84F20813181428100
:101570005381D501C40182279327A427B527807002
:101580009070A070B87F0097A105B10539F42815B7
:1015900039054A055B0508F46FC007C05770E216AD
:1015A000F3060407150708F467C0EC81FD8133E0FA
:1015B000EE0FFF1F3A95E1F70C811D81E00FF11F3F
:1015C000E457F84FD0866D1419F45092A30317C056
:1015D0008C2D90E0FC0123E0EE0FFF1F2A95E1F730
:1015E000E80FF91FE457F84F508609C08FEFDC2C45
:1015F0007394CD2CD82E741408F4A7CF49C0EC8175
:10160000FD8193E0EE0FFF1F9A95E1F72C813D815C
:10161000E20FF31FE457F84F80829182A282B382D7
:10162000358224828A819B81978386838091A1035E
:101630008F5F8093A1030E94E60799819FBF80E09E
:1016400003C088EE01C08BE80F900F900F900F90B1
:101650000F90CF91DF911F910F91FF90EF90DF904E
:10166000CF90BF90AF909F908F907F906F905F9042
:101670004F903F902F900895FB0183E0EE0FFF1FE6
:101680008A95E1F7E60FF71FE457F84F8085B0CF52
:101690008C2D90E0FC0103E0EE0FFF1F0A95E1F7AF
:1016A000E80FF91FE457F84F5086EC81FD8113E0F5
:1016B000EE0FFF1F1A95E1F7AC81BD81EA0FFB1F0A
:1016C000E457F84F8FEF80879ACF1F920F920FB693
:1016D0000F9211242F933F938F939F938091E1005A
:1016E0009091E2002091E3003091E4008093A60302
:1016F0009093A7032093A8033093A9038091A1039B
:10170000882319F081E08093A2039F918F913F91EC
:101710002F910F900FBE0F901F9018951F920F9250
:101720000FB60F9211248F938FEF8093E400809374
:10173000E3008093E2008093E1008F910F900FBE51
:101740000F901F90189581E008959D9A6B9A6C9A5E
:10175000A59A739A749A089581309105C9F08130E1
:10176000910518F00297C9F526C06130710549F05E
:101770006130710520F06230710579F504C0A598DB
:101780000895A59A089584B390E2892784BB0895AB
:101790006130710549F06130710520F062307105EA
:1017A000E1F404C073980895739A08958EB198E097
:1017B00089278EB908956130710549F0613071054E
:1017C00020F06230710549F404C074980895749A49
:1017D00008958EB190E189278EB90895279856987B
:1017E0002F9A5E9A0895009729F0019769F021E0F9
:1017F00030E014C083B1282F332727FD30952227EE
:10180000330F221F33270AC089B1282F30E086E02A
:10181000369527958A95E1F721703070C9010895B2
:10182000BC01009721F08EE597E00E94450C0895D9
:101830008EE597E060E070E00E94DA0C08950F9367
:101840001F93CF93DF938EE597E00E943E0CC6E492
:10185000D7E00AEA13E0198308838EE597E0BE011A
:101860000E94450C249606561F4F87E0CE35D807B8
:1018700091F7DF91CF911F910F910895FC01118293
:1018800010821382128214820895CF93DF93DC01B9
:10189000EB019FB7F89414968C911497882321F448
:1018A00011967C936E9306C01296ED91FC9113975E
:1018B000738362831396DC93CE9312971B821A82F2
:1018C00014968C9114978F5F14968C939FBFDF9121
:1018D000CF9108959F92AF92BF92CF92DF92EF92F5
:1018E000FF920F931F93CF93DF938C015B016A01EB
:1018F0009FB6F894DC0114968C91882319F4C0E00B
:10190000D0E04AC0F801C081D18141155105B1F044
:101910007E0111C0D60112966D917C911397ED91C5
:10192000FC91888199810995882359F47E018A81E7
:101930009B819C01E901209769F72EC0209761F1F6
:101940007E01AB2849F5F801808191812A813B8194
:10195000C817D90719F43183208305C0D70113961E
:101960003C932E931297F80182819381C817D9076F
:1019700011F4F382E282D80114968C91149781506D
:1019800014968C9314978D919C911197892B21F427
:1019900013961C921E9212979FBECE01DF91CF919B
:1019A0001F910F91FF90EF90DF90CF90BF90AF907D
:1019B0009F900895AB0160E070E00E946A0C08956A
:1019C000AB0161E070E00E946A0C0895CF93DF9351
:1019D000EC010BC0CE0160E070E00E94DA0C0097D1
:1019E00011F41C8205C00E94100C8C81882391F791
:1019F000DF91CF9108950F931F93DF93CF93CDB7CE
:101A0000DEB728970FB6F894DEBF0FBECDBF80912A
:101A100041018F71883029F581E080934F0189E081
:101A200080934201CE0101960E9470078E010B5FE8
:101A30001F4F80914F0180FD14C0C8010E947007A4
:101A40008D819E81AF81B88529813A814B815C81EE
:101A5000821B930BA40BB50B8D3D9105A105B10520
:101A600040F328960FB6F894DEBF0FBECDBFCF91DE
:101A7000DF911F910F910895CF93DF93EC01809137
:101A8000D9079091DA070F9709F033C08091390197
:101A90008D7F8093390194E6809141018F71883068
:101AA000C9F0915031F480913901826080933901FD
:101AB000EDCF00000000000000000000000000006A
:101AC0000000000000000000000000000000000016
:101AD0000000E2CFC830D10519F0C330D10549F478
:101AE00088E090E09093DA078093D90728E030E00F
:101AF000E1C18091410190E08F7190709093DA077D
:101B00008093D907C830D10509F44FC0C930D10539
:101B100060F4C430D10509F49AC0C630D10509F487
:101B2000A3C0239709F0B9C157C0CF30D10579F0D0
:101B3000C031D10520F4299709F0AFC164C0C63186
:101B4000D10509F4CBC0699709F0A7C136C183E07C
:101B5000809342010E94003780936D0180916E0155
:101B60009770887F982B90936E0100000000000012
:101B70000000000000000000000000000000000065
:101B80000000000000000000000080913901826028
:101B90008093390183E290E00E94A607D093DA0790
:101BA000C093D9072FE030E085C1089709F475C1CB
:101BB00088E0809342010000000000000000000067
:101BC0000000000000000000000000000000000015
:101BD00000000000000061C1089709F45EC183E0C5
:101BE000809342010000000000000000000000009F
:101BF00000000000000000000000000000000000E5
:101C0000000000004AC18830910539F18930910502
:101C100020F4069709F041C106C08631910519F0FC
:101C2000499709F03AC189E0809342010000000021
:101C300000000000000000000000000000000000A4
:101C400000000000000000000000000026C18830F5
:101C5000910519F0099721F420C10E94FB0C1DC1C8
:101C600084E08093420119C18930910569F08A307E
:101C7000910520F4089709F010C11AC0863191052A
:101C800019F0499709F009C186E0809342010000EC
:101C90000000000000000000000000000000000044
:101CA0000000000000000000000000000000F5C07F
:101CB0000E94FB0C86E080934201000000000000BF
:101CC0000000000000000000000000000000000014
:101CD00000000000000000000000DFC08830910517
:101CE00009F18930910520F4069709F0D6C030C07B
:101CF0008930910519F0499709F0CFC086E18093AA
:101D00004201000000000000000000000000000090
:101D100000000000000000000000000000000000C3
:101D20000000BBC00E94FB0C86E1809342010000D2
:101D300000000000000000000000000000000000A3
:101D40000000000000000000000000000000A5C02E
:101D500089E08093420100000000000000000000C4
:101D60000000000000000000000000000000000073
:101D700000000000000080914101282F30E02F7109
:101D800030703093DA072093D9072930310509F0F4
:101D900091C086E180934201000000000000000035
:101DA0000000000000000000000000000000000033
:101DB000000000000000000070C08830910509F4A8
:101DC00057C08930910520F4069709F066C01BC002
:101DD0008930910521F0469709F05FC014C089E170
:101DE000809342010000000000000000000000009D
:101DF00000000000000000000000000000000000E3
:101E0000000000004AC089E0809342010000000009
:101E100000000000000000000000000000000000C2
:101E2000000000000000000000000000809141015F
:101E3000282F30E02F7130703093DA072093D907C4
:101E40002930310509F036C089E180934201000054
:101E50000000000000000000000000000000000082
:101E6000000000000000000000000000000015C09D
:101E70000E94FB0C89E180934201000000000000F9
:101E80000000000000000000000000000000000052
:101E90000000000000000000000080914101282F98
:101EA00030E02F7130702F313105B9F32093D9070D
:101EB0003093DA07C901DF91CF9108958091CA0765
:101EC0008823E9F08091E3078823C9F480916307B0
:101ED00090916407892B39F48AE90E94180C909339
:101EE0006407809363078091630790916407892B4F
:101EF00031F01092CA0786E190E00E943C0D80917B
:101F0000CF07882351F08BEC97E060E070E00E94EF
:101F1000DA0C009711F00E949A0F8091E30782304B
:101F200019F0853031F403C00E94F81008950E9422
:101F300053110895EF92FF920F931F93CF93DF9366
:101F40007C01DC010D911C91D8011796ED91FC915B
:101F5000189780818093DC07C82FD0E02196CE0FA0
:101F6000DF1F988129812D3310F02CE303C0222339
:101F700009F421E092959695969593708FEF989F2E
:101F8000C001112430E0FC01E29FC001E39F900DED
:101F9000F29F900D112464EB70E00E9491366F3F28
:101FA000710511F008F06FEF6883D8011296FC926A
:101FB000EE921197C8010E94701BDF91CF911F9183
:101FC0000F91FF90EF900895CF92DF92EF92FF92E2
:101FD0000F931F93CF93DF93E0916307F091640712
:101FE000309709F44AC0C081D181C0904701D09098
:101FF0007B01D7FC42C082E0D80E0AE910E00D193F
:102000001109EEEFDE0E0C0F1D1FED2CFF249701C2
:102010002F5F3F4FC80160E871E0A9010E941037AF
:10202000F801D292F887EF83EE0EFF1EF701C2820D
:1020300080914C018F7780934C0180914C01806896
:1020400080934C0160916307709164078BEC97E07B
:102050000E94450C8AE90E94180C909364078093B3
:102060006307892B39F489E090E00E943C0D81E000
:102070008093CA0780E480934F01DF91CF911F9135
:102080000F91FF90EF90DF90CF9008951F931091E4
:10209000E3071130E9F480914201829586958770BB
:1020A000809365071092660782E08093E307809132
:1020B000630790916407892B39F489E090E00E94CE
:1020C0003C0D1093CA0704C086E190E00E943C0DCD
:1020D0001F9108950F931F93CF93DF93EC018B0112
:1020E000442349F090916C018091D8078295807FBC
:1020F0009F70892B03C080916C018F7080936C015D
:102100000230110598F4442369F090916C0180919C
:10211000D007880F8E70917F892B80936C0110926D
:102120006F0117C080916C018E6011C08091D4073F
:102130008295807F9091D707892B80936F01909132
:102140006C018091D007880F8E70917F892B8093CE
:102150006C0189E190E00E943C0D4997D1F7013074
:10216000110551F48091DC07833118F080E492E08E
:1021700005C080E890E002C089E090E00E94A607D8
:102180001FB7F89480913901826080933901809162
:1021900039018D7F80933901288130E02150304012
:1021A00080E891E0BE01A9010E94103781E0809390
:1021B000E3071FBFDF91CF911F910F910895FC019D
:1021C0008091E307882311F086E80895F093D607FD
:1021D000E093D507878190859093DE078093DD0794
:1021E000009711F488EE08950E946A1080E0089527
:1021F0001092E307809165079091660783309105FF
:10220000B9F08430910528F4009731F00197E1F49A
:1022100009C00597C9F412C06091D5077091D6071F
:1022200080E017C06091D5077091D60787E811C08C
:102230006091D5077091D60781EE0BC06091D507EC
:102240007091D60789EE05C06091D5077091D607C9
:1022500085E80E94A92C0895909147018091670715
:10226000891710F490936707809168079091690728
:10227000A0916A07B0916B070197A109B1098093FA
:10228000680790936907A0936A07B0936B0700975C
:10229000A105B10521F08FEF80934701089585E0F6
:1022A0008093E3070895809155018F7780935501BE
:1022B0008CE480934E011092E30786E190E00E9447
:1022C0003C0D90916707983320F08FEF809367075C
:1022D0000AC08FEF989FC001112467E370E00E944D
:1022E000913660936707809167070E947C3008955C
:1022F0000F931F93082F8091E307882351F080915B
:10230000D9079091DA070F9711F086E847C081E866
:1023100045C08091550180688093550110E110936C
:102320004F018CE291E10E94CB0510934E0186E0B3
:1023300090E00E943C0D069751F0809155018F77F7
:10234000809355018CE480934E0185E827C084E09A
:102350008093E3071092670780EC93E0A0E0B0E081
:1023600004C0880F991FAA1FBB1F0A95D2F780547B
:102370009C4FAF4FBF4F23E0B695A7959795879594
:102380002A95D1F78093680790936907A0936A070D
:10239000B0936B078FEF8093470180E01F910F91FF
:1023A0000895282F85FD03C0982F9F7304C0982F90
:1023B00091959F719195E0E2F1E08491891734F055
:1023C0003F968491981714F0822F0CC0803E3CF009
:1023D00080323CF487FF06C08F71806203C080E2C8
:1023E00001C08FE18068089584E08093D00723E0E6
:1023F0002093D7078FEF9FEF9093C6078093C50771
:102400009093C9078093C8078BE08093D2071092FE
:10241000C40780E098EFAFEFB7E08093DF079093B9
:10242000E007A093E107B093E2078AE091E0909380
:10243000C3078093C2078AE08093DB0782E0809322
:10244000D10785E08093D4072093D80783E80E94C2
:10245000D1118093B90781E08093C7071092D30709
:10246000089585FD03C0982F9F7304C0982F919500
:102470009F719195E0E2F1E080E02491921724F0C1
:1024800029173CF4815008958F5F31968031A9F768
:1024900080E008958091C5079091C60780936201FE
:1024A00090936301EAEBF7E0A4E6B1E081918D93AC
:1024B00087E0E23CF807D1F78091C8079091C907FF
:1024C0008093600190936101909148018091C707CA
:1024D0008295880F80769F79892B8093480190910F
:1024E0006F018091D7078F70907F892B80936F0148
:1024F00090916E018091D307880F880F880F8870A4
:10250000977F892B80936E0190916F018091D40702
:102510008295807F9F70892B80936F0190914801F5
:102520008091D2078F71907E892B80934801809192
:10253000B9070E943112909145018F70907F892BCD
:10254000809345010895CF93DF93EB019091E307CA
:10255000943009F4EFC08E3431F0893541F488812C
:102560008093D807EBC088818093D007E7C0209183
:10257000D9073091DA072F30310511F481E8DFC037
:102580008B3009F4C9C08C3070F4823009F483C0F8
:10259000833018F48823B1F115C0833009F48CC05E
:1025A000843081F464C0833511F1843528F48F348C
:1025B00059F0803539F410C0873509F460C0803F88
:1025C00009F487C084EFBBC098819093D7078091AE
:1025D0006F019F70807F5BC0888199818093C50760
:1025E0009093C6078093620190936301A7C088818E
:1025F00099818093C8079093C90780936001909355
:1026000061019CC0992309F095C080E098EFAFEF7D
:10261000B7E0088004C0B695A795979587950A946A
:10262000D2F781709070892B09F486C0283031056B
:1026300019F428E030E008C088E090E00E943C0DEA
:102640000897D1F726E130E098819093D2078091E6
:1026500048019F71807E982B909348012830310566
:1026600009F46CC086E190E00E943C0D67C099239C
:1026700009F060C08881882309F460C05DC098813A
:102680009093D40780916F019295907F8F70982BD3
:1026900090936F0153C088818093B9070E94D11134
:1026A0008093B9070E943112909145018F70907FFD
:1026B000892B8093450142C088818093C707909100
:1026C00048018295880F80769F79892B80934801F5
:1026D00035C088818093BA0789818093BB078A813E
:1026E0008093BC078B818093BD078C818093BE074C
:1026F0008D818093BF078E818093C0078F818093E7
:10270000C107EAEBF7E0A4E6B1E081918D9387E0A1
:10271000E23CF807D1F712C088818093D3079091EB
:102720006E01880F880F880F8870977F892B8093A0
:102730006E0104C086E803C088EE01C080E0DF912E
:10274000CF9108950F931F93CF93DF93082F80911C
:1027500039018D7F8093390180EF90E00E94A607B8
:10276000809139018E7F8093390181E090E00E9451
:10277000A6078091390181608093390120E030E023
:10278000809141012F5F3F4F93E0293E390711F4BB
:1027900085E85FC090E08F7190708830910581F777
:1027A0009093DA078093D90780916E0180628093BD
:1027B0006E0180914C01806880934C018CE4809381
:1027C0004E0186E090E00E943C0D10924E01C0E068
:1027D000D0E010E080914601CC0FDD1FCC0FDD1F53
:1027E00090E08076907025E0969587952A95E1F7A0
:1027F000C82BD92B1F5F183069F783E090E00E9447
:102800003C0D80914F0110934F0180E480934F0164
:102810008CE480934E01CE010E9405370E94003760
:1028200080936D0180916E019770887F982B9093B3
:102830006E0180E00E9459150E944715002311F097
:102840000E94F4110E944A121092E3071092CA07E4
:1028500080E0DF91CF911F910F9108950E94A21304
:10286000882361F085E808958BEC97E060E070E0E4
:102870000E94DA0C009711F00E94100C8091CF0793
:10288000882391F788E080934F0180E480934F0183
:1028900084E080934F0180E008950F931F93CF93BE
:1028A000DF930E941A07882309F0D0C08091390174
:1028B000816080933901809139018D7F8093390146
:1028C0008CE791E00E94A607809139018E7F80936A
:1028D000390181E090E00E94A60780913901816072
:1028E0008093390188E08093420120E0809141018A
:1028F000215009F4ABC090E08F7190708830910541
:10290000A9F79093DA078093D90780915C01833807
:1029100009F09CC0A1C0CAEBD7E00E9400378993A0
:1029200087E0C23CD807C9F78091BA073091BB074E
:102930004091BC076091BD077091BE07F091BF0741
:10294000B091C0075091C107082F015091E00817BE
:1029500008F090E0832F815021E0831708F020E0F9
:10296000192F180F91E0181708F090E0292B842FE9
:10297000815031E0841708F030E0A22FA80F91E0D9
:10298000A81708F090E0392B862F815021E0861798
:1029900008F020E0E32FE80F91E0E81708F090E05E
:1029A000292B872F815031E0871708F030E0622F04
:1029B000680F91E0681708F090E0392B8F2F815055
:1029C00021E08F1708F020E0432F480F91E04817CF
:1029D00008F090E0292B8B2F815091E08B1708F0A5
:1029E00090E0322F380F21E0381708F020E0922BCA
:1029F0005195591779F43F3F69F44F3F59F46F3FB0
:102A000049F4EF3F39F4AF3F29F41F3F19F40E3F6B
:102A100008F081CF81E00E94A2138823B9F48FE3EC
:102A200095E10E94C60587E395E10E94C1050E94D9
:102A30001F0C8AE90E94180C909364078093630727
:102A40008BEC97E00E943E0C80E001C085E8DF91AE
:102A5000CF911F910F91089580E090E060E070E0C9
:102A600048E050E02AEB37E00E94B2065DCF1F93AA
:102A70001FB7F8940E9446101FBF1F9108951F931F
:102A80001FB7F8940E94E40F1FBF1F910895809113
:102A9000D9079091DA070F9711F082E8089588E03E
:102AA00090E00E943C0D089711F085E8089580E0C1
:102AB0000895882311F088EE08958091D9079091A8
:102AC000DA070F9711F481E808958091E3078823CE
:102AD00081F41092CA0788E090E00E943C0D0897AC
:102AE000D1F78FE090E00E943C0D0F9711F480E049
:102AF000089586E80895982F8091E307882311F0C0
:102B000086E80895983041F488E090E00E943C0DFA
:102B10001092CA0788E00895809163079091640736
:102B2000892B31F086E190E00E943C0D86E008950B
:102B300081E08093CA0786E00895CF93DF93DC019C
:102B40009C9111962C9111978091E407882321F490
:102B5000CD010E94100C1AC0E92FF22F9F012F5FA8
:102B60003F4F47E658E088E0EA010990AE01E901ED
:102B700009929E018150C1F780917208818783E19B
:102B800080838FE798E0BD010E94450CDF91CF91D3
:102B90000895DC01ED91FC91119784E180836383BA
:102BA000528341838FE798E0BD010E94450C089550
:102BB0000F931F93DF93CF9300D0CDB7DEB7A091D3
:102BC0000808B0910908ED91FC91119784E1808388
:102BD0008BEE83830FEF1FEF128301838FE798E063
:102BE000BD010E94450C1092F7071A83098380E506
:102BF000BE016F5F7F4F0E94392810933F080093FA
:102C00003E0810924C0810924D0810924E081092F7
:102C10004F081092500810925108109252081092CA
:102C200053080E9481260F900F90CF91DF911F9142
:102C30000F910895EF92FF920F931F93E090480831
:102C4000F090490880E061E040E020E030E000E002
:102C500010E00E94B31F8823A9F4A0910808B09146
:102C60000908ED91FC91119784E1808381EE8383C3
:102C70008FEF9FEF928381838FE798E0BD010E94E1
:102C8000450C19C0A70160E070E084E0440F551FB7
:102C9000661F771F8A95D1F780E020E030E008EDCD
:102CA00015E1EE24FF240E94E409882321F080E04E
:102CB00090E00E94D8151F910F91FF90EF9008951A
:102CC000FF920F931F93DF93CF9300D0CDB7DEB762
:102CD000F09074080E94100CFF20B1F583E562E7C4
:102CE00078E00E9439282091720830917308809111
:102CF000670880934C088091680880934D08809104
:102D0000690880934E0880916A0880934F088091EB
:102D10006B088093500880916C08809351088091D3
:102D20006D088093520880916E088093530881E06B
:102D300080937B081092F70780910208833031F569
:102D400082E08093020822C01092F7070FEF1FEF76
:102D50001A83098380E5BE016F5F7F4F0E94392887
:102D600010933F0800933E0810924C0810924D08B3
:102D700010924E0810924F0810925008109251086D
:102D800010925208109253082FEF3FEFE09108087D
:102D9000F0910908A081B18184E18C931396FC9293
:102DA000139712963C932E9311978FE798E0BF01EB
:102DB0000E94450C0E9481260F900F90CF91DF91C9
:102DC0001F910F91FF9008950F931F93DF93CF935F
:102DD000CDB7DEB72C970FB6F894DEBF0FBECDBFD0
:102DE000AC01DE011196FC01808191819C01F90109
:102DF0008CE001900D928150E1F7DA010D911C9168
:102E000080917B088250823020F0CA010E94100C11
:102E100056C082E0F8018083D801AC56BF4FFD0157
:102E200081938A859B8512969C938E9311978C85AE
:102E300082839D0128503040D901EAEBF7E088E019
:102E400001900D928150E1F7F90138979F01BE0181
:102E50006E5F7F4F88E0DB010D90BD01D9010D92BF
:102E60009D018150C1F78091C5079091C60792934B
:102E700082938091030882938F5F8093030883E697
:102E80009CEC929382938BE18293D8011896FC93E9
:102E9000EE93179716961C9286EE97E0BA010E9461
:102EA000450C8091050890910608F801958384836C
:102EB00081E00E94D307882311F40E94EA232C9614
:102EC0000FB6F894DEBF0FBECDBFCF91DF911F913B
:102ED0000F910895CF92DF92EF92FF921F93DF93AD
:102EE000CF93CDB7DEB72F970FB6F894DEBF0FBEE6
:102EF000CDBFAC017C01DE011196FC018081918186
:102F00009C01F9018FE001900D928150E1F740930F
:102F10000808509309088C81823019F48F819885B4
:102F20001AC08F8180934C08888580934D088985CD
:102F300080934E088A8580934F088B858093500834
:102F40008C85809351088D85809352088E8580935F
:102F500053088EEF9FEF90933F0880933E0880E5E3
:102F6000BE016B5F7F4F0E9439280E945C26D7010B
:102F7000CD90DC9081E0F6018083F282E182EA5616
:102F8000FF4F80838F8581839F0128503040D90176
:102F9000EAEBF7E088E001900D928150E1F7F9014A
:102FA0008FEF9FEF929382938C81823051F48091C6
:102FB0003E0890913F089293829345E123E238ECDA
:102FC00011C0F9013A979F014CE458E088E0DA011A
:102FD0000D90AD01D9010D929D018150C1F74BE1DA
:102FE00023E23CEC8091C5079091C60792938293AF
:102FF0008091030882938F5F80930308329322931A
:103000004293D6011896FC93EE93179784E0BE0185
:103010006D5F7F4F0E943928182F80E0BE016E5FE0
:103020007F4F0E943928112371F4882361F4C6016F
:1030300062E070E041E00E94DF10882321F481E02B
:1030400080937C0812C0D701ED91FC9184E18083CC
:1030500081EE83838FEF9FEF928381838FE798E0E8
:10306000B7010E94450C0E9481262F960FB6F89456
:10307000DEBF0FBECDBFCF91DF911F91FF90EF90CC
:10308000DF90CF900895FC0180916E078730F0F4B7
:10309000A781B08512968C9112978695869583703C
:1030A0008230A1F4E0916C07F0916D073297F093B4
:1030B0006D07E0936C0716968D919C9117979183FD
:1030C000808380916E078F5F80936E0780E0089504
:1030D000FC0180916E078730F0F40780F085E02DC9
:1030E00082818695869583708330A9F480916C07E0
:1030F00090916D07089790936D0780936C07DC01A2
:10310000369688E001900D928150E1F780916E072C
:103110008F5F80936E0780E008959F92AF92BF9279
:10312000CF92DF92EF92FF920F931F93DF93CF9393
:1031300000D000D0CDB7DEB7FB01A080B180D501B3
:1031400012967C936E9311978AE08C9378E9C72E40
:10315000D12CCA0CDB1C80910408882319F46DE083
:10316000962E0EC0482F50E0C41AD50A5DE0952E69
:10317000980E2AE038E0C601B90150E00E941037ED
:103180008091EA07882309F442C0D0926D07C0926B
:103190006C0710926E0788E698E19A83898386EE21
:1031A00097E07E010894E11CF11CB7010E94E00C3D
:1031B00000916E0710926E0783E498E19A838983E9
:1031C00086EE97E0B7010E94E00C20916E07E09137
:1031D0006C07F0916D07319710E0C80134E0880F5B
:1031E000991F3A95E1F7822B8083000F111F000F82
:1031F000111F020F111D000F111F00936E07900E7B
:10320000E02FF0E0E095F095EC0DFD1D02C0F60119
:103210001292DF011E9280917B08833019F42FEF08
:103220003FE402C02FEF3FE08091E4078111306856
:10323000FD01329322938091C8079091C9072FEF27
:103240008E3F920799F4FD013A9786E0980E9F0110
:103250004AEB57E088E0DA010D90AD01D9010D92FB
:103260009D018150C1F720E030EC04C0929382931D
:1032700020E030E88091C5079091C6079293829331
:103280008091010882938F5F80930108329322938B
:103290009292D5011896FC93EE931797C50162E0C0
:1032A00070E040E00E94DF1081E080937C080F9086
:1032B0000F900F900F90CF91DF911F910F91FF9082
:1032C000EF90DF90CF90BF90AF909F900895BC019A
:1032D00080E00E948D180895FC010190F081E02D9E
:1032E000628173818181448125810E949036089595
:1032F0000F931F938C01DC01ED91FC9181810E9461
:103300004203C8010E94100C1F910F9108950F9362
:103310001F938C01DC01ED91FC91818162810E94FF
:103320008003C8010E94100C1F910F910895AF9265
:10333000BF92CF92DF92EF920F931F935C01DC015B
:10334000ED91FC9104811581268137818181628113
:103350004381E08439966F010E945303C5010E94A6
:10336000100C1F910F91EF90DF90CF90BF90AF9016
:1033700008950F931F938C01DC01ED91FC918181E5
:103380000E948F36C8010E94100C1F910F91089562
:103390000F931F938C01DC01ED91FC9181810E94C0
:1033A0006803C8010E94100C1F910F9108950F939C
:1033B0001F938C01DC01ED91FC9181810E948E367E
:1033C000C8010E94100C1F910F9108950F931F9335
:1033D0008C01DC01ED91FC9121813281438154818A
:1033E00065817681878190850E948D36C8010E9413
:1033F000100C1F910F9108950F931F938C01DC0106
:10340000ED91FC91818162813396AF010E948C36EF
:10341000C8010E94100C1F910F910895EF92FF9226
:103420000F937C01DC01ED91FC912181328143817C
:103430005481658176818781908501850E948B36D4
:10344000C7010E94100C0F91FF90EF9008950F9309
:103450001F93DF93CF93CDB7DEB72B970FB6F894BA
:10346000DEBF0FBECDBF8C01DC01ED91FC918281EE
:103470008983838194819B838A839E012C5F3F4F44
:10348000AF014B5F5F4F88E0DA010D90AD01D901CC
:103490000D929D018150C1F78181BE016F5F7F4F09
:1034A0000E948A36C8010E94100C2B960FB6F89421
:1034B000DEBF0FBECDBFCF91DF911F910F91089559
:1034C0000F931F93DF93CF93CDB7DEB766970FB6F9
:1034D000F894DEBF0FBECDBF8C01DC01ED91FC91F5
:1034E000818192819B838A83838189839E012C5F62
:1034F0003F4FAF014C5F5F4F88E0DA010D90AD01A7
:10350000D9010D929D018150C1F7818192819E87E1
:103510008D8784858C879E01215F3F4FAF01435F7C
:103520005F4F88E0DA010D90AD01D9010D929D0148
:103530008150C1F7CE010196BE01645F7F4F45897E
:103540000E941602C8010E94100C66960FB6F894ED
:10355000DEBF0FBECDBFCF91DF911F910F910895B8
:10356000CF92DF92EF92FF920F936C01DC01ED910D
:10357000FC91BF016E5F7F4F24893589E788F08C0D
:103580008181438906890E948936C6010E94100CF8
:103590000F91FF90EF90DF90CF900895EF92FF9200
:1035A0000F937C01DC01ED91FC91218132814381FB
:1035B0005481658176818781908501850E94FA0218
:1035C000C7010E94100C0F91FF90EF9008950F9388
:1035D0001F938C01DC01ED91FC91818192816381CB
:1035E0000E948836C8010E94100C1F910F91089507
:1035F0000F931F938C01DC01ED91FC91818162811D
:103600000E948636C8010E94100C1F910F910895E8
:103610000F931F938C01DC01ED91FC9181816281FC
:103620000E94C601C8010E94100C1F910F910895BD
:10363000CF92DF92EF920F93DF93CF93CDB7DEB7A8
:1036400066970FB6F894DEBF0FBECDBF6C01DC01EC
:10365000ED91FC9181818983828193819B838A830F
:103660009E012C5F3F4FAF014C5F5F4F88E0DA0156
:103670000D90AD01D9010D929D018150C1F7848556
:103680008C87858596859E878D879E01215F3F4F1C
:10369000AF01415F5F4F88E0DA010D90AD01D901C4
:1036A0000D929D018150C1F7228D338DCE0101967F
:1036B000BE01645F7F4F418D0789E08C0E94873691
:1036C000C6010E94100C66960FB6F894DEBF0FBEBE
:1036D000CDBFCF91DF910F91EF90DF90CF90089504
:1036E000FC011082618172816115710521F083E412
:1036F00098E00E94450C0895282F809172089091BF
:10370000730896FF1BC0222359F42091650830915D
:1037100066088091C5079091C6072817390759F0A8
:103720002091650830916608809141089091420887
:103730002817390719F48EEE0E94BE3208950F93B0
:103740001F93CF93DF93282F809172089091730875
:1037500096FFA3C0222359F4209165083091660892
:103760008091C5079091C6072817390761F020910D
:1037700065083091660880914108909142082817A9
:10378000390709F08AC02091670830916808809154
:103790003E0890913F082817390709F47EC09091A0
:1037A000670880914C08981759F5909168088091A6
:1037B0004D08981729F59091690880914E0898173F
:1037C000F9F490916A0880914F089817C9F4909184
:1037D0006B0880915008981799F490916C0880912B
:1037E0005108981769F490916D08809152089817C4
:1037F00039F490916E0880915308981709F44DC0E0
:103800008AE90E94180C8C01009709F446C0DC017B
:103810002D913C9185E0F901808312830183E95663
:10382000FF4F8083AF0148505040FA01AAEBB7E048
:1038300088E00D9001928150E1F7FA013897EF018D
:10384000ACE4B8E088E00D9009928150E1F78091F6
:10385000C5079091C6079293829380910308829343
:103860008F5F8093030883E69CEC9293829388E1B8
:103870008293D9011896FC93EE931797C90162E0E1
:1038800070E041E00E94DF10882321F481E0809302
:103890007C0803C0C8010E94100CDF91CF911F91DA
:1038A0000F9108950F931F93CF93DF93EC01E8815D
:1038B000F981A781B0857C9170935708FD01E70FCE
:1038C000F11D81818093700811964D915C91129742
:1038D000509355084093540813968C9113978093F6
:1038E00058088D010C5F1F4F652F62956695669590
:1038F0006370352F36953695337019F4F80120E052
:1039000049C014968D919C91159790935B08809374
:103910005A08FD0136963230E1F410925C0810929C
:103920005D0810925E0810925F0810926008109275
:103930006108109262081092630816968D919C910E
:10394000179790935D0880935C08FD01389624E0FA
:1039500021C0333011F022E01DC016968C911697CD
:1039600080935C08818180935D08828180935E08EA
:10397000838180935F088481809360088581809330
:103980006108868180936208878180936308FD01C6
:103990003E962AE0662309F447C046FD08C081919F
:1039A000919190936608809365082E5F08C080917E
:1039B0005A0890915B08909366088093650862307E
:1039C000C1F410926708109268081092690810926A
:1039D0006A0810926B0810926C0810926D08109291
:1039E0006E088081918190936808809367082E5FAC
:1039F0001BC06330C9F48081809367088181809304
:103A00006808828180936908838180936A08848131
:103A100080936B08858180936C08868180936D0804
:103A2000878180936E08285F972F9550921B909303
:103A30007108609364083093590843FDCEC1D801E2
:103A4000A20FB11D842F877080935608833021F414
:103A50008C9180936F0863C0813009F451C081302C
:103A600020F0833009F0B9C15AC08D919C91119713
:103A7000909373088093720812968C91129780939A
:103A80007408877011F493E002C0982F9C5FFD01C9
:103A9000E90FF11D808180937508292F2F5F382F42
:103AA000377090E08077907044E0959587954A95BF
:103AB000E1F7482F332311F4882389F0CD01820FD9
:103AC000911D9093770880937608332311F0330F7C
:103AD000230F442321F0440F440F440F240F8091FF
:103AE0007108281750F4821B80937808A20FB11D2B
:103AF000B0937A08A093790874C11092780871C1C4
:103B0000992351F0963718F086E780937108B093A7
:103B10007308A093720865C11092710862C1809108
:103B20006F088330E1F0843030F48130C1F08230AE
:103B300009F053C107C0883008F453C1883009F038
:103B40004CC112C011968D919C911297909373085D
:103B50008093720813968C918093740842C11196D9
:103B60008C91809372083DC111968D919C91129712
:103B7000909373088093720813968D919C9114977B
:103B8000909375088093740815968C91159780937F
:103B9000760816968D919C9117979093780880934C
:103BA000770854FF1EC118968C918093790819C12B
:103BB00080915608833061F480916F08843011F051
:103BC000873031F483E498E0BE010E94450C0FC1B8
:103BD0008091F707813009F4EBC0813020F0843008
:103BE00008F0FBC0A3C080910008882309F06AC0D8
:103BF00090917B08933080F1933009F0EEC0809172
:103C00005608813009F4E5C0813010F1833009F0A5
:103C1000E4C080916F08843009F4AFC0853038F477
:103C2000813009F4A0C0833009F0D7C009C08630C4
:103C300009F4AEC0863040F0873009F0CEC0B0C085
:103C4000CE010E94BC21D3C08EEE0E94BE32C5C000
:103C500080E00E947C1BC1C080915608813009F42D
:103C6000B8C0813020F0833009F0B7C00CC080911B
:103C70007E08882309F4B1C0992309F4AEC080E01E
:103C80000E949F1BAAC080916F08843009F475C000
:103C9000853038F4813009F466C0833009F09DC066
:103CA00004C0873009F05AC009C0CE010E94BC216F
:103CB00080917B08813009F09AC05CC0923009F095
:103CC0008CC06EC0833009F1843019F0823009F065
:103CD00084C080915608882309F07FC080917B08BA
:103CE000833019F481E00E947C1B80917E08882338
:103CF00041F080917B088150823018F481E00E946D
:103D00009F1BCE010E94512B72C0809156088330B8
:103D100009F063C080916F08883009F05EC082E0CE
:103D20000E94D808CE010E943B2F61C00E94BC2A8D
:103D300080915608813009F44CC0833009F04DC0A1
:103D400080916F088430C9F0853030F4813059F0AB
:103D5000833009F042C00BC08730F1F0883021F188
:103D60008630D9F515C0CE010E949D1540C0CE0108
:103D70000E94BC210E94A4273AC08091EA078823B0
:103D800021F0CE010E94762032C00E94581F25C02B
:103D9000CE010E9404282BC080917B088230E9F478
:103DA000CE010E94671923C0CE010E9403331FC0B9
:103DB00080915608833059F480916F08823069F4FD
:103DC00080E00E94D808CE010E94601610C08130A9
:103DD00021F4CE010E9406240AC0CE010E94100CDC
:103DE00006C080917C08882309F0E2CEF1CEDF91F5
:103DF000CF911F910F910895DB01FC0186818823EB
:103E000099F40780F085E02D8281869586958370F0
:103E1000823051F440E02D913C91868197812817A2
:103E2000390719F441E001C040E0842F0895DB0117
:103E3000FC0186818823C9F50780F085E02D828109
:103E4000869586958370833081F520E09C918681EC
:103E5000981761F511969C9111978781981731F504
:103E600012969C9112978085981701F513969C9154
:103E7000139781859817D1F414969C911497828595
:103E80009817A1F415969C9115978385981771F44E
:103E900016969C9116978485981741F417969C91D5
:103EA0008585981719F421E001C020E0822F08953C
:103EB0000F931F93CF93DF938AE90E94180C8C0114
:103EC000009709F44BC0DC01CD91DC918CE0888334
:103ED0001A8309831E82FE01E856FF4F8091640811
:103EE000833089F438979F0147E658E088E0DA018B
:103EF0000D90AD01D9010D929D018150C1F721E0D6
:103F00003CE04FE009C08091670890916808929367
:103F1000829321E038E049E080916508909166083D
:103F2000929382938091030882938F5F809303081A
:103F3000329322934293F887EF83F8018081918135
:103F400061E070E040E00E94DF10882321F481E00E
:103F500080937C0803C0C8010E94100CDF91CF91B0
:103F60001F910F9108956F927F929F92AF92BF928F
:103F7000CF92DF92EF92FF920F931F93CF93DF9335
:103F8000D82E962EC42E590138018AE90E94180CA9
:103F90007C01009709F49BC0DC010D911C91DD2090
:103FA00021F084E0F801808303C08BE0D8018C937A
:103FB000F801F282E182E956FF4F84E0808320918C
:103FC000C8073091C907C9010296029710F09920DD
:103FD00069F03897EF01AAEBB7E088E00D900992FD
:103FE0008150E1F762E183E290EC05C032932293C5
:103FF0006CE083E290E8CC2061F02091C50730911D
:10400000C6076216730629F06E5F3293229370E042
:1040100002C0806471E022E0C21641F4AC01586035
:10402000D5018D919C919293829328C0B3E0CB16D9
:1040300061F4AC015C6038976A5FEF01D50188E0FC
:104040000D9009928150E1F719C020913E083091FE
:104050003F084FEF2E3F340729F0AC0158603293F0
:1040600022930CC0AC015C6038976A5FEF01ACE44E
:10407000B8E088E00D9009928150E1F732977723FC
:1040800039F08091C5079091C6079183808302C063
:10409000718260828091030882938F5F809303080E
:1040A000529342936293D8011896FC93EE9317971C
:1040B000C80162E070E041E00E94DF10882321F433
:1040C00081E080937C0804C0C7010E94100C80E04E
:1040D000DF91CF911F910F91FF90EF90DF90CF90E4
:1040E000BF90AF909F907F906F900895EF92FF9256
:1040F0000F931F93DF93CF9300D000D0CDB7DEB7DF
:104100000E94100C80917B08823008F453C080918B
:104110006408823019F48CEF9EE105C0833009F009
:1041200049C087E19FE19A83898387E698E09C8371
:104130008B8386EE97E07E010894E11CF11CB701A9
:104140000E94E00CDC01009781F00D911C91119709
:10415000F801878190852091650830916608FC01FF
:10416000848195812817390719F00E94581F22C0B1
:1041700081E0F8018683B283A18386EE97E0B701E0
:104180000E94E00C892B41F0D8011796ED91FC912B
:104190001897818180618183C80161E070E040E00F
:1041A0000E94DF10882321F481E080937C0802C004
:1041B000F80116820F900F900F900F90CF91DF9122
:1041C0001F910F91FF90EF900895EF92FF920F9340
:1041D0001F93CF93DF937C01E801DC01ED91FC910B
:1041E00086E180836183428334832383CF010596F4
:1041F000423069F415821682178210861186128663
:1042000013861486888199819683858307C0DC0193
:10421000F80188E001900D928150E1F78FE798E076
:10422000B7010E94450CDF91CF911F910F91FF9034
:10423000EF9008950F931F93DF93CF93CDB7DEB721
:1042400028970FB6F894DEBF0FBECDBFDC01062F56
:10425000ED91FC91119719821A821B821C821D829A
:104260001E821F8218860780F085E02D1281169528
:1042700016951370123029F42681378129833A83E9
:1042800010C08681898387818A8380858B8381851D
:104290008C8382858D8383858E8384858F838585BA
:1042A000888780917B088330C9F1823009F041C052
:1042B000123051F42681378180913E0890913F0859
:1042C0002817390759F535C0133041F5968180918B
:1042D0004C08981719F5978180914D089817F1F4BB
:1042E000908580914E089817C9F4918580914F0868
:1042F0009817A1F4928580915008981779F49385C6
:1043000080915108981751F494858091520898171C
:1043100029F4958580915308981759F02091C50785
:104320003091C607CD01602F412F8E010F5F1F4FC7
:1043300016C08091C8079091C90702962091C507C1
:104340003091C607029730F4CD01602F43E00AEBAD
:1043500017E005C0CD01602F42E008EC17E00E9495
:10436000E52028960FB6F894DEBF0FBECDBFCF91E3
:10437000DF911F910F910895CF93DF939C01FC0172
:10438000C081D181FE0185E18193A7E6B8E088E094
:104390000D9001928150E1F78091720889878FE733
:1043A00098E0B9010E94450C10924C0810924D08FB
:1043B00010924E0810924F08109250081092510817
:1043C00010925208109253088FEF9FEF90933F087E
:1043D00080933E08DF91CF910895EF92FF920F9363
:1043E0001F93DF93CF93CDB7DEB72E970FB6F89418
:1043F000DEBF0FBECDBF8C01DC01ED90FC90DE0175
:104400001196F7018EE001900D928150E1F7F701CE
:104410001283018383E08083EA56FF4F80838D857A
:10442000818338979F014AEB57E088E0DA010D90CD
:10443000AD01D9010D929D018150C1F78A81823071
:1044400031F48D819E819293829333E10FC038972E
:104450009F01AE014B5F5F4F88E0DA010D90AD0127
:10446000D9010D929D018150C1F739E18091C507B5
:104470009091C607929382938091030882938F5FF5
:10448000809303082A81922F990F990F80E0836609
:10449000906C929382933293D7011896FC93EE938B
:1044A000179716961C9280917B088250823008F0F4
:1044B00060C08E85882309F45CC08A818230D1F483
:1044C0008D818B3409F041C08E818823F1F58F8175
:1044D0008823D9F588858823C1F589858823A9F59E
:1044E0008A85882391F58B85882379F58C858823A7
:1044F00061F55BC0833009F058C09D8180914C0804
:10450000981719F59E8180914D089817F1F49F81B5
:1045100080914E089817C9F4988580914F08981794
:10452000A1F4998580915008981779F49A85809123
:104530005108981751F49B8580915208981729F4D7
:104540009C8580915308981781F186EE97E0B80119
:104550000E94450C8091050890910608F70195830B
:10456000848381E00E94D3078823F9F40E94EA2320
:104570001CC00E945C26D8018D919C9162E070E085
:1045800041E00E94DF10882321F481E080937C08C1
:104590000CC02B813C81C80161EE4A818E010B5F0A
:1045A0001F4F0E94E5200E9481262E960FB6F89498
:1045B000DEBF0FBECDBFCF91DF911F910F91FF9056
:1045C000EF900895DC01ED91FC911197E081E432C8
:1045D00078F4F0E0EE0FFF1FE05DFE4F259134917F
:1045E0002115310519F0F901099508950E94100C63
:1045F00008951F9380917C08882381F48091FF07A0
:10460000882361F08BEF97E060E070E00E94DA0CA5
:10461000009721F00E94E22211E001C010E0809199
:104620004708882359F083E498E060E070E00E9436
:10463000DA0C009719F00E94E22211E0812F1F91FD
:104640000895FC018681882329F48481958101974E
:104650009583848380E00895FC018681882311F08E
:1046600020E006C020E084819581892B09F421E0B7
:10467000822F0895FB0120E0DC0113969C9180813C
:10468000981709F421E0822F0895DC01ED91FC9147
:10469000119780E18083418362838FE798E0BD01B9
:1046A0000E94450C0895EF92FF920F931F93DF93A2
:1046B000CF9300D000D00F92CDB7DEB77C01FC01C4
:1046C00000811181F801918182E1808399838AE3DD
:1046D00093E29B838A83CE0101969D838C8386EE31
:1046E00097E0BE016E5F7F4F0E94DA0C009729F0C1
:1046F0000E94100CF801128203C087EEF801828339
:104700008FE798E0B7010E94450C0F900F900F9033
:104710000F900F90CF91DF911F910F91FF90EF902D
:104720000895FF920F931F93DF93CF9300D000D093
:10473000CDB7DEB781E293E29A83898386EE97E074
:104740008E010F5F1F4FB8010E94E00C8CE293E2D4
:104750009A838983F02E012F10E186EE97E06F2D6A
:10476000702F0E94DA0CDC01009721F19C911196C8
:104770002C911197E92FF22F8081833049F08D30F1
:1047800061F0823051F780EFBD010E948C26E5CFA9
:10479000CD0160EF0E941A21E0CF8381E92FF22F33
:1047A0001083818380EF82838FE798E0BD010E94B0
:1047B000450CD3CF8091EA07882311F00E94EA23A9
:1047C0000F900F900F900F90CF91DF911F910F914D
:1047D000FF900895EF92FF920F931F9381E040E0C6
:1047E00050EE61E070E020E030E001E913E2EE24F9
:1047F000FF240E94E409882321F080E090E00E94D9
:1048000091231F910F91FF90EF9008950F931F93A5
:10481000DF93CF93CDB7DEB728970FB6F894DEBFFE
:104820000FBECDBFAC01DC019C9111962C91809103
:104830007108882321F4CA010E94100CFFC0E92FDF
:10484000F22F80915808808F809164088183825074
:104850008230A8F4809165089091660893838283E2
:104860009F012C5F3F4F67E678E088E0DB010D9009
:10487000BD01D9010D929D018150C1F70AC013827B
:104880001282148215821682178210861186128671
:104890001386208D8091E507281761F5948180911A
:1048A000ED07981739F595818091EE07981711F566
:1048B00096818091EF079817E9F497818091F0072E
:1048C0009817C1F490858091F107981799F4918514
:1048D0008091F207981771F492858091F3079817E9
:1048E00049F493858091F407981721F4CA010E9436
:1048F000100C5AC02093E50784818093ED078581D1
:104900008093EE0786818093EF0787818093F0077D
:1049100080858093F10781858093F207828580935B
:10492000F30783858093F40720915908248717861D
:10493000108A118A128A138A148A158A168A80911B
:104940005A0890915B0896878587233079F49F01F8
:10495000215F3F4F6CE578E088E0DB010D90BD0101
:10496000D9010D929D018150C1F70BC0223039F45D
:1049700080915C0890915D08908B878702C01686B5
:10498000158680917008878B80917108818F809146
:10499000720890917308938F828F81E180838FE7F3
:1049A00098E0BA010E94450C8091540884FF46C0EB
:1049B00080917B08833009F443C080916408823081
:1049C00071F480916708909168089A8389830091B7
:1049D00065081091660880E060E042E021C0833005
:1049E00019F5809167088983809168088A8380918E
:1049F00069088B8380916A088C8380916B088D8312
:104A000080916C088E8380916D088F8380916E08F1
:104A10008887009165081091660880E060E043E0B7
:104A20009E012F5F3F4F07C080E060E040E020E044
:104A300030E000E010E00E94B31F02C00E94812617
:104A400028960FB6F894DEBF0FBECDBFCF91DF9191
:104A50001F910F910895CF92DF92EF92FF920F93E3
:104A60001F93DF93CF93CDB7DEB762970FB6F8945D
:104A7000DEBF0FBECDBF8C01DE011196FC0180812F
:104A800091819C01F90182E101900D928150E1F741
:104A90008F8582FD11C08091F707882321F48091D2
:104AA0000008882349F09E85D801ED91FC9180E1B2
:104AB0008083918381EEAEC0F801E080F1808DE0CB
:104AC000D7018C938E8513968C93139716961C9210
:104AD000888945E0D42ED80EE8E9F0E0E81BF1091A
:104AE000EE0DFF1D9A81923051F437E0D32ED80E8F
:104AF0008091C8079091C9079293829312C0933016
:104B000081F438972DE0D22ED80E9F014AEB57E062
:104B100088E0DA010D90AD01D9010D929D0181501F
:104B2000C1F72091C5073091C6078C819D81281758
:104B3000390749F48A81882331F08B81882319F061
:104B400040E450E009C08A81882321F0B2E0DB0E06
:104B50003293229340E050E08B81882311F1823020
:104B600039F46D2D6E5F8E819F819293829312C076
:104B700038976D2D685F9F0196E0C92ED12CCC0E21
:104B8000DD1E88E0D6010D906D01D9010D929D01C9
:104B90008150C1F782E0D82ED60E8C819D819293F0
:104BA00082938091030882938F5F80930308BA01F8
:104BB00061608F8580FF02C0BA0161628889873693
:104BC00008F070618B81382F330F330F20E04A815A
:104BD000942F9295990F990F907C80E0282B392B78
:104BE000262B372B329322933296D7FC0BC0339768
:104BF000D082D7011896FC93EE9317978F8582FD8C
:104C000010C028C09E85D801ED91FC9180E1808381
:104C1000918385EE82838FE798E0B8010E94450C6E
:104C20003CC080917B0882508230A0F486EE97E0F1
:104C3000B8010E94450C8091050890910608F70183
:104C40009583848381E00E94D307882331F50E94F5
:104C5000EA2323C00E945C26D70112961C930E9370
:104C60001197C70162E070E041E00E94DF108823E5
:104C700021F481E080937C0810C09E85D801ED91DD
:104C8000FC9180E18083918381EE82838FE798E0BD
:104C9000B8010E94450C0E94812662960FB6F894D6
:104CA000DEBF0FBECDBFCF91DF911F910F91FF905F
:104CB000EF90DF90CF90089580917D08813051F47E
:104CC0000E944715853831F081E090E00E946F071F
:104CD00010927D08089580917D08882389F480E0F2
:104CE00090E00E946F0780E00E945915882321F40C
:104CF00081E080937D08089581E090E00E946F0735
:104D000008958091EB07882331F48091400888232F
:104D100011F40E946B260895DF93CF93CDB7DEB7D1
:104D200028970FB6F894DEBF0FBECDBF482F9B016A
:104D3000DB01ED91FC910780F085E02DDE011196FD
:104D4000369688E001900D928150E1F7D901ED91FE
:104D5000FC918CE180838091C5079091C607928376
:104D6000818393E093838091BA0784838091BB070A
:104D700085838091BC0786838091BD07878380915E
:104D8000BE0780878091BF0781878091C007828797
:104D90008091C10783879487898185878A818687E7
:104DA0008B8187878C81808B8D81818B8E81828B9B
:104DB0008F81838B8885848B458B8FE798E0B90141
:104DC0000E94450C28960FB6F894DEBF0FBECDBFEB
:104DD000CF91DF9108950F931F93182F10927C08A5
:104DE00010927B0810927D08109200081092020821
:104DF0001092F7071092E5078FEF8093ED078093ED
:104E0000EE078093EF078093F0078093F10780937C
:104E1000F2078093F3078093F4071092400888E02C
:104E20000E947B150FB7F89480E00E94D80881E0BB
:104E30000E94D80882E00E94D80883E00E94D80827
:104E40000FBF112309F440C010927E0882EC97E056
:104E50009093FA078093F90780E098E790934908C8
:104E6000809348081092F6071092E4071092040805
:104E70000E9400378093010884EF91E09093060828
:104E80008093050881E08093F80786E08093EC0723
:104E900010924C0810924D0810924E0810924F0834
:104EA0001092500810925108109252081092530814
:104EB0008FEF9FEF90933F0880933E080E9400374A
:104EC000809303081092EB071F910F9108950F93A1
:104ED0001F93CF93DF93EC01088119810E945C2618
:104EE000F801018180E090E00E946F0780E00111ED
:104EF00081E00E942E14182F81E090E00E946F073D
:104F0000802F0E94EB260E9481268BEF97E00E9463
:104F1000E60C83E498E00E94E60C8FE798E00E949C
:104F2000E60C86EE97E00E94E60CE881F981118399
:104F300080E280838FE798E0BE010E94450CDF91FC
:104F4000CF911F910F910895DF93CF9300D000D0A0
:104F5000CDB7DEB70E945C268FEF9FEF9A838983DF
:104F60009C838B8383E5BE016F5F7F4F0E9439284E
:104F700080E5BE016D5F7F4F0E94392881E00E946D
:104F8000EB260E9481260F900F900F900F90CF91EB
:104F9000DF9108950E944D148823B9F40E94A30B59
:104FA000882399F081E00E94EB260E9481268BEFF6
:104FB00097E00E943E0C83E498E00E943E0C86EE4F
:104FC00097E00E943E0C80E0089585E80895FF92E6
:104FD0000F931F93182FF92E4091C5075091C607C4
:104FE00089E0612F792F2091D2070091C4070E9498
:104FF0003833882329F481EE612F7F2D0E948C267F
:105000001F910F91FF900895CF93DF93EC01E881FA
:10501000F9818AE18193A7E6B8E088E00D900192DA
:105020008150E1F78FE798E0BE010E94450CDF91C7
:10503000CF910895E82F853419F4809104080895DC
:10504000883030F4E82FF0E0E858FE4F849108955E
:105050008054803228F4F0E0E05CFE4F84910895A3
:10506000E03F10F480E00895F0E0E055FF4F8491B8
:1050700008951F93CF93DF93182FEB0180917D0844
:10508000813051F40E945C26812FBE010E94A31240
:10509000182F0E94812604C0812F0E94A312182F6E
:1050A000812FDF91CF911F9108950F931F93CF937D
:1050B000DF938C01FC01C081D181BE016D5F7F4F08
:1050C00089818B3409F4A4C08C3478F5863009F4D6
:1050D00075C0873098F4823009F4D0C0833038F43A
:1050E000882309F4BBC0813009F048C0BAC08430BD
:1050F00009F45CC0853008F05CC0C3C0853409F495
:1051000069C0863448F4813409F461C0823409F4FA
:105110005BC0873099F555C0893409F468C08A347A
:1051200008F06DC0863451F55FC0853509F462C062
:105130008635A0F48F3409F476C0803530F48C3491
:1051400009F46BC08E34D1F46BC0823509F473C09E
:10515000833509F473C0803589F468C08935D9F086
:105160008A3528F4873579F0883580F409C08D3583
:10517000D1F0803F09F469C08A3581F094EF85C091
:1051800080917E0880C08091D4077DC08091F9070E
:105190009091FA0757C08091D80775C08091480850
:1051A000909149084FC08091F6076DC08091C40767
:1051B0006AC08091C2079091C30744C08091DB0709
:1051C00062C08091D1075FC08091F8075CC0809178
:1051D000E40759C0409104082AE038E0CB01B90146
:1051E00050E00E94103750C0809104084CC080915C
:1051F000010849C0809105089091060823C0DB0191
:10520000ECE4F8E088E001900D928150E1F73CC0B9
:1052100080913E0890913F0815C08091030833C0EB
:105220008091D00730C08091D7072DC08091C507ED
:105230009091C60707C08091EB0725C08091C807F1
:105240009091C9079C838B831FC0DB01EAEBF7E0D9
:1052500088E001900D928150E1F716C08091D2074D
:1052600012C08091DF079091E007A091E107B09113
:10527000E2078B839C83AD83BE8306C08091B90710
:1052800002C08091C7078B8390E089818A838EE179
:10529000888399838FE798E0B8010E94450CDF91DD
:1052A000CF911F910F910895FF920F931F93CF936A
:1052B000DF93182FEB01F42E8B3409F49BC08C3450
:1052C00040F5833409F4B1C0843478F4853038F47F
:1052D000823008F0AAC0882309F4A7C03EC08134F8
:1052E00009F453C08234C9F548C0863409F45AC061
:1052F000873430F4843409F444C0853471F549C0EE
:10530000893409F453C08A3408F05BC0873429F526
:105310008CC0853509F44EC0863570F4813530F483
:105320008E3408F082C08C34C1F46BC0823509F42D
:105330006CC0823590F079C08835A9F0893528F4A1
:10534000863569F0873549F470C08A3579F08A3539
:1053500008F46BC0803F09F468C004EFC7C08881BF
:1053600080937E08C2C088819981BBC08881998161
:105370009093490880934808B8C088818093F807C3
:10538000B4C088818093EC07B0C088818093E40723
:10539000ACC02AE038E040910408C90150E00E9406
:1053A0001037A3C08881809304089FC088818093B0
:1053B00001089BC088819981909306088093050815
:1053C00094C0888180934C08898180934D088A819C
:1053D00080934E088B8180934F088C818093500876
:1053E0008D81809351088E81809352088F818093A4
:1053F00053087BC08881998190933F0880933E0831
:1054000074C088818093030870C06881611161E075
:105410006093EB07662331F00E945C2686E00E94D1
:105420007B1563C00E94812660C0812FBE010E944F
:10543000A312082F813871F40E944715812FBE01F5
:105440000E94A312082F882309F050C081E08093A6
:105450006F0703C0882309F049C08091D007282F27
:1054600030E08091D407482F50E06091D707CA01FF
:10547000861B9109281739070CF4C901A82F281B8E
:10548000310981E090E002C0880F991F4A95E2F748
:105490000197289FA001299F500D389F500D11247E
:1054A00020E030E070E0E1E0F0E00DC0C901860FDF
:1054B000971FEF0102C0CC0FDD1F8A95E2F74C0F5A
:1054C0005D1F2F5F3F4F2A1788F384E190E09C0116
:1054D000429FC001439F900D529F900D1124865F03
:1054E0009E4F9093FA078093F90700E0FF2049F060
:1054F00080916F07882329F080E00E94591510924F
:105500006F07802FDF91CF911F910F91FF9008952A
:10551000EF92FF920F931F937C01FC010081118198
:10552000B8016E5F7F4FF801818141E00E945429EC
:10553000F801918192839FE1908381838FE798E0C6
:10554000B7010E94450C1F910F91FF90EF900895B5
:10555000CF93DF93EC01E881F98183E2808361835B
:10556000662311F00E9481268FE798E0BE010E9419
:10557000450CDF91CF910895809156088823E1F082
:1055800080E00E94D80880915608813031F48091E3
:105590007108882311F060E001C06BEE8091F7077D
:1055A000823031F480910808909109080E94A82A5D
:1055B00010927C081092F70708958091F7078230C7
:1055C00039F480910808909109086BEE0E94A82A8E
:1055D0001092F70710927C080895CF92DF92EF9215
:1055E000FF920F931F93DF93CF93CDB7DEB728972A
:1055F0000FB6F894DEBF0FBECDBFD82EC92E809156
:10560000F7078823D1F580917B088330B1F1809131
:105610000008882391F50E945C26ED2CFC2CD70114
:10562000ED91FC9181819F012C5F3F4F823031F4DD
:10563000848195819A83898342E00DC0AE014F5FDA
:105640005F4F88E0D9010D909D01DA010D92AD0107
:105650008150C1F743E00281138181E060E09E0147
:105660002F5F3F4F0E94B31F882311F4C70107C06B
:10567000D0920808C092090805C08D2D9C2D61EEBE
:105680000E94A82A28960FB6F894DEBF0FBECDBFA1
:10569000CF91DF911F910F91FF90EF90DF90CF900E
:1056A00008955F926F927F928F929F92AF92BF9276
:1056B000CF92DF92EF92FF920F931F93DF93CF93DE
:1056C000CDB7DEB761970FB6F894DEBF0FBECDBF82
:1056D000BC0140910008423011F0443069F48091DF
:1056E000F807882349F0E0910808F0910908208123
:1056F0003181D901199604C0A0E0B0E020E030E08B
:1057000050916408598300916508109166081B83C5
:105710000A83523069F41E821F82188619861A86FF
:105720001B8680916708909168089D838C8318C0C0
:10573000809167088C83809168088D8380916908C7
:105740008E8380916A088F8380916B08888780910F
:105750006C08898780916D088A8780916E088B8795
:105760009090D2079C86B090C407BD868091720845
:10577000909173089F878E87188A8091740887FF9D
:1057800002C081E0888B80917008898B423019F0CB
:10579000443009F06FC08091F807882309F46AC08B
:1057A000F901F084EC81FD815C806D807E808F80CA
:1057B000A884C984DA84EB8440E049C011968D91B5
:1057C0009C9112970817190709F03FC08C91581740
:1057D000E1F51B968C911B979816B9F51C968C9148
:1057E0001C97B81691F5523041F413968D919C9107
:1057F0001497E817F90749F53DC013968C91139754
:10580000851519F514968C9114978615F1F4159653
:105810008C9115978715C9F416968C911697881553
:10582000A1F417968C9117978A1579F418968C9194
:1058300018978C1551F419968C9119978D1529F498
:105840001A968C911A978E15A9F04F5F51964F15A5
:1058500008F4B4CF59C0FD01DE01119681E10D902D
:1058600001928150E1F7D90118968C9118978F5FBA
:1058700018968C939091750880917808882321F46C
:105880008091F8078823E1F5DB01ED91FC9187E138
:1058900080838091580881839F012E5F3F4FAE0126
:1058A0004F5F5F4F81E1DA010D90AD01D9010D929B
:1058B0009D018150C1F780917508838B892F877076
:1058C00059F4892F90E08077907024E09595879522
:1058D0002A95E1F7882331F0809176089091770836
:1058E000958B848B80917808868B80917908909134
:1058F0007A08908F878B8FE798E00E94450C09C04B
:10590000CB010E94100C05C0E4E0EF1508F4B2CF03
:10591000A2CF61960FB6F894DEBF0FBECDBFCF9178
:10592000DF911F910F91FF90EF90DF90CF90BF908C
:10593000AF909F908F907F906F905F900895FB0144
:1059400040E0208131812817390709F441E0842F94
:105950000895EF92FF920F931F93DF93CF9300D0A0
:1059600000D0CDB7DEB7F82E8B0110927C08809165
:105970000008823029F4FB018081873059F406C089
:10598000833041F4FB018081863021F48F2D0E9409
:105990009B312CC1F8018081883009F419C189300C
:1059A00098F4833009F445C0843038F4813009F428
:1059B00068C0823009F018C1E4C0843009F490C096
:1059C000853009F011C1FBC08B3009F489C08C30DF
:1059D00038F4893009F4ECC08A3009F005C1FFC001
:1059E0008C3009F4FCC08D3009F0FEC0F8018681CE
:1059F0008823B9F01682FF2021F0F7E8FF1609F09E
:105A0000F3C08FE99CE29A838983F80181819281B6
:105A10009C838B8386EE97E0BE016F5F7F4F0E9471
:105A2000DA0CF801818192816F2D43810E94452318
:105A3000DBC0F80186818823B1F01682FF2019F0BF
:105A4000F7E8FF16B1F48FE99CE29A838983F801A5
:105A5000818192819C838B8386EE97E0BE016F5F8C
:105A60007F4F0E94DA0CF801818192816F2D0E9494
:105A70001A2180917B08813009F0B6C00E94A427CA
:105A8000B3C0F9EEFF1619F091EEF91649F4F801DA
:105A9000818192816F2D4FEF5FEF0E94C915A4C0E5
:105AA0008093F707409148085091490860E070E002
:105AB00094E0440F551F661F771F9A95D1F780E039
:105AC00020E030E00AE116E1EE24FF240E94E40920
:105AD000882309F48BC080E090E00E941A1686C0EB
