:100000000C9454010C947A010C94B0040C94E60402
:100010000C947A010C947A010C947A010C947A0174
:100020000C947A010C947A010C947A010C947A0164
:100030000C947A010C947A010C943B090C947A018B
:100040000C9477090C947A010C947A010C947A013F
:100050000C947A010C947A010C947A010C947A0134
:100060000C947A010C947A010C947A010C947A0124
:100070000C947A010C947A010C947A010C947A0114
:100080000C947A010C947A010C947A010C947A0104
:100090000C947A010C947A010C947A010C947A01F4
:1000A0000C947A010C947A010C947A010C947A01E4
:1000B0000C947A010C947A010C947A010C947A01D4
:1000C0000C947A010C947A010C947A010C947A01C4
:1000D0000C947A010C947A010C947A010C947A01B4
:1000E0000C947A010C947A010C947A010C947A01A4
:1000F0000C947A010C947A010C947A010C947A0194
:100100000C947A010C947A010C947A010C947A0183
:100110000C947A010C947A010C947A010C947A0173
:100120000C947A010C947A010C947A010C947A0163
:100130000C947A010C947A010C947A010C947A0153
:100140000C947A010C947A010C947A010C947A0143
:100150000C947A010C947A010C947A010C947A0133
:100160000C947A010C947A010C947A010C94210479
:100170000C947A010C9453040C947A010C947A0137
:100180000C947A010C947A010C947A010C947A0103
:100190000C947A010C947A010C947A010C947A01F3
:1001A0000C947A010C947A010C947A010C947A01E3
:1001B0000C947A010C947A010C947A010C947A01D3
:1001C0000C947A010C947A010C947A010C947A01C3
:1001D0000C947A010C947A010C947A010C947A01B3
:1001E0000C947A010C947A010C947A010C947A01A3
:1001F0000C947A01E7E7E7E7E7E7E8E9EACAAAABA0
:100200004525030405060708090AE7E7E7E7E7E7E6
:10021000E8E9EACBABACAD4827060708090A0B0CA6
:10022000C0A181828360614142222302030405064A
:100230000708090A0B0C5F1A73170000C61F00009D
:10024000DC1D3223000052236A2149272E2A000098
:1002500000006E2400003E194E19000000002D1908
:10026000C318DC180F19000000000000621800001D
:100270004618B1185218931884180000A2180104E7
:10028000010101020101010101010101010104015A
:100290000802010101010201010201020101020142
:1002A000020201010101080011241FBECFEFDFE3AC
:1002B000DEBFCDBF00E00CBF18BE19BE1ABE1BBE0C
:1002C00010E2A0E0B0E2E6EAF6E600E00BBF02C012
:1002D00007900D92A43AB107D9F71BBE14E2A4EA25
:1002E000B0E201C01D92A532B107E1F70E94DE0223
:1002F0000C9451330C940000EF92FF920F931F93D4
:1003000083E040E45BE46CE470E020E030E002E98C
:1003100011E0EE24FF240E9411081F910F91FF901D
:10032000EF900895DF93CF93CDB7DEB72B97CDBF76
:10033000DEBF82E089838EEB9AEB8A839B83809178
:10034000A4209091A5208C839D8380E090E20E9460
:100350000E2FCE0101960E940B2C2B96CDBFDEBF37
:10036000CF91DF910895EF92FF920F931F93DF9348
:10037000CF93CDB7DEB7CF5FD040CDBFDEBF80918A
:10038000A6209091A720A091A820B091A920019625
:10039000A11DB11D8093A6209093A720A093A82013
:1003A000B093A9202DB73EB7285030402DBF3EBF97
:1003B0004DB75EB74F5F5F4F8E010F5F1F4FEDB7B9
:1003C000FEB70183128321E130E2FA0122833383F5
:1003D00084839583A683B7830E94432F2DB73EB7AE
:1003E0002A5F3F4F2DBF3EBFEDB7FEB7018312839B
:1003F0000E94FC2E0F900F9082E090E060E070E091
:100400000E94D80A84E040E251EA67E070E020E010
:1004100030E00AE112E0EE24FF240E941108C150EE
:10042000DF4FCDBFDEBFCF91DF911F910F91FF90C6
:10043000EF90089582E090E061E070E00E94D80AB9
:100440000895EF92FF920F931F9381E090E062E096
:1004500070E00E94D80A84E040E251EA67E070E070
:1004600020E030E001E212E0EE24FF240E941108B7
:100470001F910F91FF90EF900895EF92FF920F93CD
:100480001F936623D9F486E290E20E940E2F84E047
:100490000E94020781E090E060E070E00E94D80ACC
:1004A00083E040E45BE46CE470E020E030E002E9EB
:1004B00011E0EE24FF240E94110803C081E00E9495
:1004C000AE2C1F910F91FF90EF900895CF92DF9285
:1004D000EF920F93CF93DF93882389F5E60120E015
:1004E00025C08B85813001F58C858823E9F48981CD
:1004F0009A818E5B9A4BC1F48D859E8597FF14C0BF
:100500008881823041F58B819C818093A4209093D7
:10051000A5208EE490E20E940E2F8B856C85AE01A3
:1005200020E80E94F92C1AC061962F5F2E15C8F2A0
:1005300081E04EEF57E060E070E025E008C08A3EC1
:1005400051F481E04EEF57E060E070E026E000E01B
:100550000E94312C03C081E00E94AE2CDF91CF912C
:100560000F91EF90DF90CF900895EF92FF920F934D
:100570001F938823D9F48CE590E20E940E2F81E02E
:100580004EEF57E060E070E025E000E00E94312C83
:1005900084E040E251EA67E070E020E030E001E210
:1005A00012E0EE24FF240E94110803C081E00E94A3
:1005B000AE2C1F910F91FF90EF9008950E94D72DC0
:1005C000882311F00E946E050E94D20A80E090E01C
:1005D00060E070E00E94D80A81E090E061E070E0A5
:1005E0000E94D80A82E090E061E070E00E94D80AA0
:1005F000789481E00E949804882311F00E946E058F
:1006000086E493E06DE273E00E94B02E8EE690E205
:100610000E940E2F80E990E20E940E2F81E00E943E
:10062000AE2C0E94C12DFDCFDF93CF930F92CDB79B
:10063000DEB781E0BE016F5F7F4F41E00E9486041C
:10064000813019F02FEF3FEF03C08981282F30E070
:10065000C9010F90CF91DF9108950F931F93DF93FE
:10066000CF930F92CDB7DEB78E010F5F1F4F81E0A2
:10067000B80141E00E9486048823C9F3898190E093
:100680000F90CF91DF911F910F9108950F931F93BA
:10069000DF93CF930F92CDB7DEB789838A3071F4A1
:1006A0008DE089838E010F5F1F4F81E0B80141E02B
:1006B0000E948F048823C9F38AE089838E010F5F2B
:1006C0001F4F81E0B80141E00E948F048823C9F3E5
:1006D00080E090E00F90CF91DF911F910F910895EE
:1006E0009B01AC016050774F824C9F4FF2E0660F48
:1006F000771F881F991FFA95D1F7E3E0220F331F68
:10070000441F551FEA95D1F70E941A2E2150304000
:10071000E0E6F6E080E8818380E48283E0EBF9E0C4
:10072000378326838CE1848383E085838CE3838312
:100730000895DC018091B309837FE0EBF9E08383C6
:100740002091582380915923821730F0275F922FF0
:10075000981B892F295005C02150922F981B892F53
:100760002F5F482F681708F4462F342F12C090913E
:100770005923E92FF0E0EC5BFC4D8C91808399309C
:1007800019F41092592303C09F5F9093592331505D
:100790001196332361F780915C23882351F4E22F73
:1007A000F0E0EC5BFC4D80818093B00981E08093A8
:1007B0005C238091B3098C60E0EBF9E08383842FA4
:1007C0000895DC0120915D23222311F480E0089537
:1007D0008091B3098F7CE0EBF9E083832A3058F0F5
:1007E00080915B2380935A238AE080935D236A3053
:1007F00020F02AE003C0261708F0262F322F17C05A
:10080000E0915A23F0E0EC5BFC4D82858C93909153
:100810005A239F5F90935A2380915D238150809348
:100820005D239A3011F410925A23119631503323DC
:1008300039F78091B3098063E0EBF9E08383822F7D
:1008400008951F920F920FB60F9208B60F920BB633
:100850000F92112418BE1BBE8F939F93EF93FF93AB
:1008600090915B2380915D238F5F80935D238091C6
:10087000B009E92FF0E0EC5BFC4D8287993019F468
:1008800010925B2303C09F5F90935B23FF91EF91D6
:100890009F918F910F900BBE0F9008BE0F900FBECF
:1008A0000F901F9018951F920F920FB60F9208B6D7
:1008B0000F920BB60F92112418BE1BBE8F93EF93AD
:1008C000FF9380915823893019F41092582303C064
:1008D0008F5F80935823E091582380915923E81724
:1008E00039F0F0E0EC5BFC4D80818093B00902C0F0
:1008F00010925C23FF91EF918F910F900BBE0F90A0
:1009000008BE0F900FBE0F901F901895813011F008
:1009100080E00895CB01642F0E94E10308958130A7
:1009200011F080E00895CB01642F0E94990308958F
:10093000813011F085E8089560E875E280E090E08C
:100940000E94700380E008958093AA209093AB20CA
:10095000E0E4F6E091E0928B84E08287948708954A
:100960001F920F920FB60F9208B60F9209B60F9210
:100970000BB60F92112418BE19BE1BBE2F933F93C6
:100980004F935F936F937F938F939F93AF93BF9397
:10099000EF93FF93E091AA20F091AB201995FF917E
:1009A000EF91BF91AF919F918F917F916F915F91E7
:1009B0004F913F912F910F900BBE0F9009BE0F905A
:1009C00008BE0F900FBE0F901F9018951F920F92A8
:1009D0000FB60F9208B60F92112418BE0F9008BEE2
:1009E0000F900FBE0F901F9018954F925F926F92CD
:1009F0007F928F929F92AF92BF92CF92DF92EF92AF
:100A0000FF920F931F93CF93DF939C016B015A01C9
:100A1000CB01820F931F8150984010F085E84DC0A4
:100A2000A0E0B0E0C0ECD1E040EC51E016E0612E77
:100A3000F8EDEF2EF12C01E010E06BEC71E0E3E358
:100A40007E2E95E3892E86E3982E33C08091CF01C8
:100A500087FDFCCFFA0112823183522E2093C00110
:100A60006286C701FB0184BF00838091C401F50148
:100A7000EA0FFB1F40808415C9F08091CF0187FDEC
:100A8000FCCF8091CF0181FF06C0FA019286C70199
:100A9000FB0184BF00837A865092C00119821A82BA
:100AA0004C828A86C701FB0184BF00832F5F3F4FC2
:100AB0001196AC15BD0550F280E0DF91CF911F91EA
:100AC0000F91FF90EF90DF90CF90BF90AF909F90ED
:100AD0008F907F906F905F904F9008951F93CF936A
:100AE000DF93E0E8F6E014828FEF8183C0E8D6E080
:100AF0001FEF8FEF9FEF0E940A061F83FACFBF926E
:100B0000CF92DF92EF92FF920F931F93CF93DF93D9
:100B10008130910531F4862F642FA9010E941A0AB1
:100B200035C0892B11F088EE31C0CA01860F971F9E
:100B30008150984010F085E829C0A0E0B0E0C0ECFA
:100B4000D1E096E0B92E88EDC82ED12C01E0E02E40
:100B5000F12C0BEC11E016C08091CF0187FDFCCF8A
:100B60001A8279836093C001BA86C601F80184BFF6
:100B7000E0828091C401F901EA0FFB1F8083119686
:100B80006F5F7F4FA417B50738F380E0DF91CF91F7
:100B90001F910F91FF90EF90DF90CF90BF9008953D
:100BA0000E94D80708950E94D3090E94EE090E946E
:100BB0005B0B0E948F090E94C6090E94CD0980E04C
:100BC0000895892B29F488E08093000880934008D9
:100BD0000895FC0120915E2330915F23C901A0E0BC
:100BE000B0E0BC015527442780912008909121084E
:100BF000A0E0B0E0482B592B6A2B7B2B80915E2321
:100C000090915F232817390729F740835183628326
:100C1000738308954FB7F8948630910518F12091A9
:100C2000200830912108280F391F809120089091C9
:100C300021088217930740F48091200890912108A1
:100C400082179307C8F30EC0809120089091210865
:100C500028173907C8F3809120089091210882173E
:100C60009307C8F34FBF089520E090E0FC0153E0E4
:100C7000EE0FFF1F5A95E1F7E80FF91FE05AFC4D00
:100C800084819581892B09F021E0822F0895DF92DC
:100C9000EF92FF920F931F93DFB6F8948091AE20EE
:100CA0008F3F09F456C090E0FC01A3E0EE0FFF1F58
:100CB000AA95E1F7E80FF91FE05AFC4DE080F180BA
:100CC0000281138120915E2330915F23C801AA27FE
:100CD000BB272817390769F4E0922808F092290801
:100CE00080910C08806180930C08809107088360D4
:100CF00003C0809107088C7F8093070860915E2372
:100D000070915F239B0140E050E08091200890911A
:100D10002108A90133272227A0E0B0E0282B392B96
:100D20004A2B5B2B80915E2390915F236817790794
:100D300029F72E193F09400B510B2F5F3F4F4F4FA3
:100D40005F4F2F5F3F4F4F4F5F4718F481E0809315
:100D5000AD20DFBE1F910F91FF90EF90DF900895BF
:100D60008091AD20882309F44CC01092AD203091C1
:100D7000AC20332309F445C08091AF208F3F59F454
:100D80008091B0208F3F39F48091AE208093B020C5
:100D90008093AF2012C02091AE208091B02090E0CF
:100DA000FC0143E0EE0FFF1F4A95E1F7E80FF91F42
:100DB000E05AFC4D20872093B0208091AE2090E037
:100DC000FC0123E0EE0FFF1F2A95E1F7E80FF91F62
:100DD000E05AFC4D80858093AE208091B02090E059
:100DE000FC01B3E0EE0FFF1FBA95E1F7E80FF91F22
:100DF000E05AFC4D8FEF808731503093AC200E9439
:100E000047060895FF920F931F93182F853010F017
:100E10008AE8C5C0FFB6F8940E94B0060091AC20E5
:100E2000002309F4C0C04091AE20242F302F842F1E
:100E30001217F1F5212F30E0141781F4F90163E066
:100E4000EE0FFF1F6A95E1F7E20FF31FE05AFC4D2A
:100E500080858093AE200E94470618C090E0DC0198
:100E600053E0AA0FBB1F5A95E1F7A80FB91FA05A6C
:100E7000BC4DF90143E0EE0FFF1F4A95E1F7E20F89
:100E8000F31FE05AFC4D808518968C93812F90E0DB
:100E9000FC0123E0EE0FFF1F2A95E1F7E80FF91F91
:100EA000E05AFC4D8FEF808701500093AC2062C068
:100EB000822F90E0FC01B3E0EE0FFF1FBA95E1F73F
:100EC000E80FF91FE05AFC4D50853150822F09F48C
:100ED0006AC0252FADCF1217D1F52091B02013177E
:100EE000B1F4121721F48FEF8093B0200DC0812F41
:100EF00090E0FC01A3E0EE0FFF1FAA95E1F7E80FD9
:100F0000F91FE05AFC4D80858093AF2033C0842FB9
:100F100090E0DC01E3E0AA0FBB1FEA95E1F7A80F20
:100F2000B91FA05ABC4D812F90E0FC0173E0EE0F79
:100F3000FF1F7A95E1F7E80FF91FE05AFC4D808515
:100F400018968C931217B1F44093B02013C0822FDF
:100F500090E0FC0163E0EE0FFF1F6A95E1F7E80FF8
:100F6000F91FE05AFC4D422F20852F3F09F0B3CFE7
:100F700080E00FC0812F90E0FC0153E0EE0FFF1FD7
:100F80005A95E1F7E80FF91FE05AFC4D14821582DB
:100F900081E0FFBE882311F489E801C080E01F9141
:100FA0000F91FF9008953091AF20232F432FDDCF75
:100FB0001F931FB7F8940E94B0061FBF1FEF25C0F4
:100FC0006FB7F894822F90E0FC0173E0EE0FFF1FE3
:100FD0007A95E1F7E80FF91FE05AFC4D208544812E
:100FE0005581868197811087148215821682178217
:100FF0002F3F09F43FEF6FBF4115510551F030937A
:10100000B0202093AF20FA0119953091B0202091A3
:10101000AF202F3FA9F63093B0202093AF201F912F
:1010200008952F923F924F925F927F928F929F925C
:10103000AF92BF92CF92DF92EF92FF920F931F93E6
:10104000CF93DF93782E5A016B01490194E0292E4A
:10105000281610F48AE8E2C00115110509F4DBC076
:10106000C82FD0E0FE0183E0EE0FFF1F8A95E1F765
:10107000EC0FFD1FE05AFC4D84819581892B11F006
:1010800088E8CCC060915E2370915F239B0140E0B3
:1010900050E08091200890912108A9013327222750
:1010A000A0E0B0E0282B392B4A2B5B2B80915E23EC
:1010B00090915F236817790729F78114910431F023
:1010C00061E08616910409F0A6C011C0D601C501E1
:1010D00080589040A040B04080589F4FAF4FBF47CE
:1010E00008F09BC0A20EB31EC41ED51E10C0D601B0
:1010F000C50180589040A040B040821B930BA40BC8
:10110000B50B80589F4FAF4FBF4708F086C09FB6C2
:10111000F8940E94B0065091AE205F3F31F060918C
:10112000AC20452F252F30E054C07092AE20FE0138
:10113000A3E0EE0FFF1FAA95E1F7EC0FFD1FE05AA9
:10114000FC4D508731C02F3F09F43EC0822F90E004
:10115000FC0173E0EE0FFF1F7A95E1F7E80FF91F2E
:10116000E05AFC4D80819181A281B3811501260155
:10117000281A390A4A0A5B0AD201C1018F5F9F4FC0
:10118000AF4FBF4710F4808521C0FE0133E0EE0F62
:10119000FF1F3A95E1F7EC0FFD1FE05AFC4D208749
:1011A000521721F47092AE2091E017C0842F90E086
:1011B000FC0123E0EE0FFF1F2A95E1F7E80FF91F6E
:1011C000E05AFC4D708655C08FEF242F3F5F422FB1
:1011D000282F361708F4B7CF33C0FE0183E0EE0F97
:1011E000FF1F8A95E1F7EC0FFD1FE05AFC4DA0822E
:1011F000B182C282D38204831583E682F782809112
:10120000AC208F5F8093AC20992311F00E94470699
:101210009FBE80E003C088EE01C08BE8DF91CF91D4
:101220001F910F91FF90EF90DF90CF90BF90AF9004
:101230009F908F907F905F904F903F902F90089558
:10124000842F90E0FC01B3E0EE0FFF1FBA95E1F7A9
:10125000E80FF91FE05AFC4D7086FE01A3E0EE0F87
:10126000FF1FAA95E1F7EC0FFD1FE05AFC4D8FEF31
:10127000808790E0B2CF1F920F920FB60F9208B600
:101280000F9209B60F920BB60F92112418BE19BE19
:101290001BBE2F933F934F935F936F937F938F93D7
:1012A0009F93AF93BF93EF93FF9380915E239091B1
:1012B0005F23019680935E2390935F230E944706ED
:1012C000FF91EF91BF91AF919F918F917F916F911E
:1012D0005F914F913F912F910F900BBE0F9009BEE0
:1012E0000F9008BE0F900FBE0F901F9018951F9281
:1012F0000F920FB60F9208B60F92112418BE8F935B
:101300008091AC20882319F081E08093AD208F91EB
:101310000F9008BE0F900FBE0F901F90189510925F
:10132000AC201092AD2010925E2310925F238FEFBD
:101330008093AE208093AF208093B020E4E6F3E268
:10134000848310821182399693E2E139F907C1F75B
:101350000E94030A0895FC0180915E2390915F230F
:101360002091680830916908A0E0B0E0DC0199277D
:10137000882740E050E0822B932BA42BB52B808351
:101380009183A283B383089581E0089584E88093D4
:10139000800181E6809381010895E0EAF0E0828196
:1013A00084608283089582E0809350008091510090
:1013B00081FFFCCF98ED94BF84E0E0E4F0E081830E
:1013C00094BF81E08093400082E0E0E5F0E0868316
:1013D000809160008160809360000895E0E4F6E011
:1013E000808180618083808180688083808181604A
:1013F0008083808180628083808188608083808117
:101400008F7B8083089588E0809300088093400854
:1014100080EF80930C0880E380934C0883E08093F6
:101420000608E1E4F8E080818061808389E28093AE
:10143000430808956F927F929F92AF92BF92CF928E
:10144000DF92EF92FF920F931F93DF93CF93CDB76D
:10145000DEB7C054D040CDBFDEBFD82EA62EC42EDE
:10146000B52E3E010894611C711C662DA0E4B6E007
:10147000EE24E39470E1F72E00EC18E053E0952E93
:1014800020EC38E0AE01405C5F4F962D961B7091CA
:101490004906809149068C7F19968C931997169668
:1014A000EC9216971696FC9216970000000000002A
:1014B000000000000000000000000000000000002C
:1014C00000000000000000000000F80193828091FD
:1014D000C20887FFFCCF9F77F90193838091C208F0
:1014E00087FFFCCFF90113828091C20887FFFCCFF0
:1014F0008091C3081596FC9215971596EC92159756
:1015000019967C931997F30180836416750621F070
:101510000894611C711CB9CFFE01319620E030E0C7
:10152000DE01AF5BBF4F81912827022E2295207FDD
:101530002025032E322F22952F7002262695322742
:101540002327220F220F220F2025EA17FB0759F726
:10155000232B11F085E814C0DE011196AD0DB11DED
:101560008C2D9B2D9C01AD0106C0FA018191AF012C
:10157000F90181939F01842F8A1B8A15B0F380E0C3
:10158000C05CDF4FCDBFDEBFCF91DF911F910F91C8
:10159000FF90EF90DF90CF90BF90AF909F907F90A3
:1015A0006F900895E0E8F6E08FEF848380830895DC
:1015B00084309105E9F08530910548F48230910539
:1015C00099F08330910590F4019761F409C0863059
:1015D000910591F08630910568F0079719F40EC0D7
:1015E00021E00DC020E00BC022E009C023E007C0CD
:1015F00024E005C025E003C026E001C027E0611516
:10160000710521F061307105A9F40BC081E090E013
:1016100002C0880F991F2A95E2F7E0E8F6E086837A
:10162000089502C0660F771F2A95E2F7E0E8F6E01A
:101630006583089581E090E002C0880F991F2A9584
:10164000E2F7E0E8F6E0878308951092A006089597
:1016500084309105E9F08530910548F48230910598
:1016600099F08330910590F4019761F409C08630B8
:10167000910591F08630910568F0079719F40EC036
:1016800081E00DC080E00BC082E009C083E007C0AC
:1016900084E005C085E003C086E001C087E02091BA
:1016A000A80630E002C0359527958A95E2F72170AB
:1016B0003070C901089580E58093C00880E1E0E4BE
:1016C000F6E085830895E0E4F6E0209149069091E4
:1016D00049069C7F9187806C90E19683E0ECF8E06E
:1016E00083838091C20887FFFCCFE0ECF8E063833E
:1016F0008091C20887FFFCCFE0E4F6E080E18583BB
:1017000021870895E0E4F6E020914906909149068A
:101710009C7F9187806890E19683E0ECF8E083837A
:101720008091C20887FFFCCFE0ECF8E01382809143
:10173000C20887FFFCCF8091C308E0E4F6E090E1A7
:10174000958321870895CF93DF93DC0180E1E0E466
:10175000F6E0868380E2E0ECF8E083838091C208C3
:1017600087FFFCCFE0ECF8E013826130A9F0FD01C7
:10177000262FC0ECD8E08091C20887FFFCCF809173
:10178000C3081B82819321502230A8F76250862F14
:1017900090E00196A80FB91F8091C20887FFFCCF87
:1017A0008091C3088C9380E1E0E4F6E08583DF91CB
:1017B000CF910895DC0180E1E0E4F6E0868380E6E5
:1017C000E0ECF8E083838091C20887FFFCCFE0EC77
:1017D000F8E09D9161508091C20887FFFCCF938310
:1017E0006623B9F78091C20887FFFCCF80E1E0E46F
:1017F000F6E085830895FF920F931F93062FF42E32
:101800000E94820B082310E002C015950795FA94F8
:10181000E2F7802F1F910F91FF900895DF92EF92D2
:10182000FF920F931F93D82EF62EE42E022F0E94C4
:10183000820B10E002C0000F111FEA94E2F76F2D37
:101840006023F094F8226F298D2D0E94630B1F9165
:101850000F91FF90EF90DF900895BC01009721F069
:1018600089E293E20E94620C089589E293E260E0CB
:1018700070E00E94F70C08950F931F93CF93DF93AE
:1018800089E293E20E945B0CC9E1D3E201EB10E232
:101890000883198389E293E2BE010E94620C2496B8
:1018A00006561F4F83E2C932D80791F7DF91CF91D7
:1018B0001F910F910895FC011082118212821382F0
:1018C00014820895CF93DF93DC01EB019FB7F89466
:1018D00014968C911497882321F46D937C9311971F
:1018E00006C01296ED91FC91139762837383129652
:1018F000CD93DC9313971A821B8214968C911497C4
:101900008F5F14968C939FBFDF91CF9108959F9224
:10191000AF92BF92CF92DF92EF92FF920F931F93FD
:10192000CF93DF938C015B016A019FB6F894DC01D1
:1019300014968C91882319F4C0E0D0E04AC0F801D5
:10194000C081D18141155105B1F07E0111C0D60190
:1019500012966D917C911397ED91FC9188819981FC
:101960001995882359F47E018A819B819C01E901A4
:10197000209769F72EC0209761F17E01AB2849F5C9
:10198000F801808191812A813B81C817D90719F418
:101990002083318305C0D70112962D933C93139772
:1019A000F80182819381C817D90711F4E282F3828A
:1019B000D80114968C911497815014968C93149797
:1019C0008D919C911197892B21F412961D921C9256
:1019D00013979FBECE01DF91CF911F910F91FF9082
:1019E000EF90DF90CF90BF90AF909F900895AB01A4
:1019F00060E070E00E94870C0895AB0161E070E048
:101A00000E94870C0895CF93DF93EC010BC0CE01A9
:101A100060E070E00E94F70C009711F41C8205C092
:101A20000E942D0C8C81882391F7DF91CF9108952E
:101A30000F931F93DF93CF93CDB7DEB72897CDBF1A
:101A4000DEBF81E06FE140E00E94FB0B883039F59A
:101A50008FE00E94820B82E069E00E94630BCE015E
:101A600001960E94E9058E010B5F1F4F8FE00E94D7
:101A7000820B80FD14C0C8010E94E9058D819E8102
:101A8000AF81B88529813A814B815C81821B930BA0
:101A9000A40BB50B8D3D9105A105B10538F3289632
:101AA000CDBFDEBFCF91DF911F910F9108950F93AE
:101AB0001F93082F8091AD238F3099F488E0E0E4E4
:101AC000F6E0868381E06FE140E00E94FB0B883006
:101AD000C9F7083011F0033021F488E08093AD237A
:101AE000CCC181E06FE140E00E94FB0B8093AD230D
:101AF000083009F448C0093050F4043009F495C0A6
:101B0000063009F49FC0033009F0AEC154C00F3055
:101B100069F0003120F4093009F0A6C164C0063133
:101B200009F4C9C0093109F09FC131C182E063E005
:101B30000E94630B0E94972E682F192F8DE20E943E
:101B4000630B8EE267E040E0212F0E940E0C000044
:101B50000000000000000000000000000000000085
:101B6000000000000000000000000000000088E00D
:101B7000E0E4F6E0858383E290E00E940A060093A9
:101B8000AD238FE07AC1883009F46EC182E068E04D
:101B90000E94630B00000000000000000000000035
:101BA0000000000000000000000000000000000035
:101BB0000000000059C1883009F456C182E063E09A
:101BC0000E94630B00000000000000000000000005
:101BD0000000000000000000000000000000000005
:101BE0000000000041C1883029F1893020F486309E
:101BF00009F03AC105C0863119F0893109F034C1C4
:101C000082E069E00E94630B000000000000000019
:101C100000000000000000000000000000000000C4
:101C200000000000000000001FC1883019F089305A
:101C300021F41AC10E94180D17C182E064E00E94CD
:101C4000630B12C1893059F08A3020F4883009F0D2
:101C50000BC11AC0863119F0893109F005C182E043
:101C600066E00E94630B000000000000000000001E
:101C70000000000000000000000000000000000064
:101C8000000000000000F0C00E94180D82E066E035
:101C90000E94630B00000000000000000000000034
:101CA0000000000000000000000000000000000034
:101CB00000000000D9C0883001F1893020F486305E
:101CC00009F0D2C031C0893019F0893109F0CCC097
:101CD00082E066E10E94630B00000000000000004B
:101CE00000000000000000000000000000000000F4
:101CF0000000000000000000B7C00E94180D82E044
:101D000066E10E94630B000000000000000000007C
:101D100000000000000000000000000000000000C3
:101D2000000000000000A0C082E069E00E94630B98
:101D300000000000000000000000000000000000A3
:101D40000000000000000000000000000000000093
:101D500081E06FE140E00E94FB0B8093AD2389306E
:101D600009F08BC082E066E10E94630B0000000076
:101D70000000000000000000000000000000000063
:101D80000000000000000000000000006DC088306E
:101D900009F454C0893020F4863009F065C01BC0B6
:101DA000893021F0863109F05FC015C082E069E119
:101DB0000E94630B00000000000000000000000013
:101DC0000000000000000000000000000000000013
:101DD0000000000049C082E069E00E94630B00003F
:101DE00000000000000000000000000000000000F3
:101DF000000000000000000000000000000081E082
:101E00006FE140E00E94FB0B8093AD23893009F025
:101E100034C082E069E10E94630B00000000000012
:101E200000000000000000000000000000000000B2
:101E30000000000000000000000016C00E94180D05
:101E400082E069E10E94630B0000000000000000D6
:101E50000000000000000000000000000000000082
:101E6000000000000000000081E06FE140E00E94FF
:101E7000FB0B8093AD238F31B9F31F910F91089520
:101E800080919E238823E1F08091B6238823C1F4BA
:101E900080912E2390912F23892B39F48AE90E9477
:101EA000350C80932E2390932F2380912E23909195
:101EB0002F23892B29F010929E2386E10E94570D33
:101EC0008091A323882351F08FE993E260E070E0D2
:101ED0000E94F70C009711F00E94750F8091B623B5
:101EE000823011F40E94DC100895EF92FF920F935C
:101EF0001F93CF93DF937C01DC010D911C91D801DE
:101F00001696ED91FC91179780818093AF23C82F8F
:101F1000D0E02196CE0FDF1F98812981263210F064
:101F200025E203C0222309F421E092959695969527
:101F300093708FEF989FC001112430E0FC01E29F65
:101F4000C001E39F900DF29F900D11246FE670E0A9
:101F50000E94062E6F3F710511F008F06FEF688345
:101F6000D8011196ED92FC921297C8010E94A01917
:101F7000DF91CF911F910F91FF90EF900895DF9225
:101F8000EF92FF920F931F93DF93CF930F92CDB7F2
:101F9000DEB7E0912E23F0912F233097C1F1E0803E
:101FA000F18087E00E94820BD82ECE01019661E07D
:101FB0000E94A30B698167FD2AC06D5F0AE910E0EA
:101FC000061B11090E0D1F1D6150C8010E94A30BB5
:101FD000F701068317838981080F111DF801D2824A
:101FE00060912E2370912F238FE993E20E94620C5F
:101FF0008AE90E94350C80932E2390932F23892BFE
:1020000031F489E00E94570D81E080939E230F9068
:10201000CF91DF911F910F91FF90EF90DF90089586
:10202000882311F087E005C082E060EE45E00E9461
:10203000FB0B8093302382E08093B62380912E2384
:1020400090912F23892B39F489E00E94570D81E06C
:1020500080939E23089586E10E94570D0895EF9284
:10206000FF920F931F93CF93DF937C01EB01042F1B
:10207000442331F08CE260EF44E02091AC2304C0B3
:102080008CE260EF44E020E00E940E0CC230D105EB
:1020900098F4002361F08CE26EE041E02091A423EB
:1020A0000E940E0C8FE260E00E94630B16C08CE26F
:1020B0006EE041E027E00FC06091A8236295607F49
:1020C0008091AB23682B8FE20E94630B8CE26EE061
:1020D00041E02091A4230E940E0C89E10E94570D3B
:1020E0008931D9F7809149068C7FE0E4F6E0818759
:1020F000219779F58091AF23909198238331A0F0B7
:102100008091A623992341F4882319F088EA93E06B
:102110001EC080E997E01BC0882319F080E492E09C
:1021200016C080E096E013C08091A623992341F465
:10213000882319F08CEE90E00AC088E192E007C095
:10214000882319F080E890E002C080EA91E00E94C4
:102150000A0600E416E088E0F80185838683C7015B
:10216000F70160810E94DA0B81E08093B6238091B1
:1021700049068360F8018187DF91CF911F910F910C
:10218000FF90EF900895FC018091B623882311F011
:1021900086E80895E093A923F093AA238681978186
:1021A0008093B0239093B123009711F488EE0895A3
:1021B0000E942F1080E008951092B6238091302362
:1021C0008330B1F0843028F4882331F08130E1F499
:1021D00009C08530C9F412C06091A9237091AA2367
:1021E00080E017C06091A9237091AA2387E811C0ED
:1021F0006091A9237091AA2381EE0BC06091A9235D
:102200007091AA2389EE05C06091A9237091AA2339
:1022100085E80E941026089580918D2385FD03C0D6
:10222000982F9F7308C0982F91959F719195963F15
:1022300014F495EF22C080919823823059F08530B4
:10224000A1F08823A1F48091A623882359F4963025
:10225000FCF411C08091A623882321F494303CF033
:1022600093E00FC09B3094F402C096308CF490320F
:1022700014F08FE908C097FF04C0892F8F71806A1E
:1022800002C0892F806880938D2308959AE0F9CF4A
:1022900095E0F7CF1F9384E08093A42323E020935D
:1022A000AB238FEF9FEF8093992390939A23809392
:1022B0009C2390939D2311E01093A62310929823C2
:1022C00088E294E0809396239093972388E280930A
:1022D000AE2388E08093A52385E08093A8232093F4
:1022E000AC238AE880938D230E940C1110939B23CA
:1022F0001092A7231F91089585FD03C0982F9F7307
:1023000004C0982F91959F71919580919823853065
:1023100051F4892F992787FD9095EEEFF1E0E81BA6
:10232000F90B849108958091A623292F332727FD47
:102330003095882331F4E4E1F2E0E21BF30B849161
:102340000895EAE2F2E0E21BF30B84910895E09134
:102350009823EE2309F0C1C060E074E048E050E04B
:1023600020E230E0240F351F260F371F20939623DD
:1023700030939723EE2319F428E090E202C022E084
:1023800098E0920F9093AE23EE2311F092E001C0FB
:1023900098E09093A523823091F0853009F456C0DF
:1023A000882311F080E008958CE068E043E020E0AD
:1023B0000E940E0C86E163E040E023E010C08CE058
:1023C00068E043E021E00E940E0C86E163E040E01B
:1023D00022E00E940E0C8CE063E040E020E00E94CE
:1023E0000E0C8091A623882321F48CE064E042E067
:1023F00009C08CE064E042E021E00E940E0C8CE019
:1024000060E144E020E00E940E0C87E164E042E0DD
:1024100020E00E940E0C8FEF97E0A0E0B0E08093E8
:10242000B2239093B323A093B423B093B52384E154
:1024300067E040E020E00E940E0C88E06FE140E0A1
:102440002091A6230E940E0C81E008958CE068E0A4
:1024500043E021E00E940E0C86E163E040E022E0D0
:102460000E940E0C8CE063E040E020E00E940E0C25
:102470008CE060E144E021E00E940E0C8CE064E01E
:1024800042E021E00E940E0C87E164E042E020E09F
:102490000E940E0C8FE090E0A0E0B0E08093B223A9
:1024A0009093B323A093B423B093B5238091A62334
:1024B000843010F01092A62384E167E040E024E02D
:1024C0000E940E0C2091A623220F255F83E16FEF5F
:1024D00040E00E940E0C81E0089560E071E042E06F
:1024E00050E028E030E03ECF1F93CF93DF9382E2AD
:1024F000609199230E94630B60919A2383E20E946A
:10250000630BCEE8D3E214E2812F69910E94630B42
:102510001F5F1C32C9F780E260919C230E94630B0D
:1025200060919D2381E20E94630B88E060E645E0B4
:1025300020919B230E940E0C8FE26FE040E02091DF
:10254000AB230E940E0C8EE268E043E02091A723AB
:102550000E940E0C8FE260EF44E02091A8230E94BD
:102560000E0C809198230E94A71180918D230E94C8
:102570007C11682F85E00E94630BDF91CF911F9142
:102580000895FF920F931F93CF93DF93EB018E3447
:1025900031F0893541F488818093AC2315C188815D
:1025A0008093A42311C19091AD239F3011F481E851
:1025B0000CC18B3009F4FDC08C3070F4823009F40A
:1025C000C0C0833018F48823D9F115C0833009F4D2
:1025D000C4C0843081F489C0833519F1843528F46E
:1025E0008F3459F0803539F40FC0873509F4A2C013
:1025F000803F09F4BBC084EFE8C028812093AB235F
:102600008FE26FE040E0AFC06881898160939923D9
:1026100080939A2382E20E94630B60919A2383E263
:102620000CC06881898160939C2380939D2380E204
:102630000E94630B60919D2381E20E94630BC4C0E2
:102640008091B623882309F0BBC08091982328810C
:10265000853029F48FE090E0A0E0B0E004C08FEF77
:1026600097E0A0E0B0E004C0B695A7959795879550
:102670002A95D2F780FFA6C01091A6238881809367
:10268000A6238091AD23883011F408E006C088E0CD
:102690000E94570D8830D9F706E180919823209148
:1026A000A623853029F4220F255F83E16FEF06C052
:1026B000222341F0112331F088E06FE140E00E94D5
:1026C0000E0C0CC00E94A7110E940C1180918D234A
:1026D0000E947C11682F85E00E94630B083009F48A
:1026E00073C086E10E94570D6FC08091B623882386
:1026F00009F066C0983011F418E006C088E00E9426
:10270000570D8830D9F716E1F8808F2D0E94A71158
:10271000082F183019F086E10E94570D002309F4A4
:1027200051C0F09298230E940C1180918D230E9439
:102730007C1110C028812093A8238FE260EF44E031
:1027400012C0888180938D230E940C1180918D236B
:102750000E947C11682F85E070CF288120939B23F5
:1027600088E060E645E00E940E0C2EC088818093D0
:102770008E23898180938F238A81809390238B81FC
:10278000809391238C81809392238D8180939323D6
:102790008E81809394238F8180939523CEE8D3E21A
:1027A00014E2812F69910E94630B1F5F1C32C9F7ED
:1027B0000BC028812093A7238EE268E043E0D3CFAB
:1027C00086E803C088EE01C080E0DF91CF911F91C1
:1027D0000F91FF900895DF92EF92FF920F931F9356
:1027E000DF93CF930F92CDB7DEB7D82E81E090E084
:1027F00065E170E041E050E09E012F5F3F4F0E9495
:102800007F0500E416E088E0F80186838CE791E01C
:102810000E940A06FF24F394F801F68281E090E01A
:102820000E940A06F801F58210E081E06FE140E0C5
:102830000E94FB0B1F5F1B3F11F485E84BC08830E3
:10284000A1F78093AD232981222309F44CC082E1B2
:102850006FE040E00E940E0C46C086E060E645E076
:102860000E94FB0B9801220F331F220F331F082FEA
:1028700010E0022B132BF394F8E0FF1671F783E0BE
:102880000E94570D8FE00E94820BE0E4F6E081E0A9
:102890008487E186C8010E949C2E0E94972E682F93
:1028A000192F8DE20E94630B8EE267E040E0212F3A
:1028B0000E940E0C80E00E94E4150E94D115DD20DC
:1028C00011F00E944A110E9474121092B6231092C5
:1028D0009E2380E00F90CF91DF911F910F91FF9089
:1028E000EF90DF90089583E060E344E020E00E94F1
:1028F0000E0C83E068E043E020E00E940E0C83E0D1
:1029000067E040E021E00E940E0C8EE260E245E0CC
:1029100021E00E940E0C8CE060E847E021E00E947C
:102920000E0C84E062E041E021E00E940E0C8EE09B
:1029300068E00E94630B86E00E94570DE090490614
:10294000809149068C7FE0E4F6E0818700E010E0AA
:10295000FF2483CF0E94EB13882361F085E808955C
:102960008FE993E260E070E00E94F70C009711F0AD
:102970000E942D0C8091A323882391F78FEB95E182
:102980000E94A404E0E4F6E081E084878091490697
:102990008360818780E00895FF920F931F93CF9308
:1029A000DF930E94D305882309F0E2C0E0E4F6E05B
:1029B00081E0858388E086838AE491E00E940A06AC
:1029C00010E0C0E4D6E0FF24F39401E00E8381E040
:1029D00090E00E940A06FD82115009F4C9C08DE101
:1029E0000E94820B813091F78CE10E94820B87302C
:1029F00069F783E067E040E021E00E940E0C82E08E
:102A000063E00E94630B10E081E06FE140E00E9410
:102A1000FB0B115009F4ACC08830B1F78093AD23A3
:102A200081E090E060E070E048E050E02EE833E2C2
:102A30000E947F0509C0CEE8D3E20E94972E8993B9
:102A400083E2C639D807C9F780918E2330918F234E
:102A5000409190236091912370919223F091932360
:102A6000B091942350919523082F015091E00817BD
:102A700008F090E0832F815021E0831708F020E0D8
:102A8000192F180F91E0181708F090E0292B842FC8
:102A9000815031E0841708F030E0A22FA80F91E0B8
:102AA000A81708F090E0392B862F815021E0861777
:102AB00008F020E0E32FE80F91E0E81708F090E03D
:102AC000292B872F815031E0871708F030E0622FE3
:102AD000680F91E0681708F090E0392B8F2F815034
:102AE00021E08F1708F020E0432F480F91E04817AE
:102AF00008F090E0292B8B2F815091E08B1708F084
:102B000090E0322F380F21E0381708F020E0922BA8
:102B10005195591779F43F3F69F44F3F59F46F3F8E
:102B200049F4EF3F39F4AF3F29F41F3F19F40E3F4A
:102B300008F081CF81E00E94EB138823C9F48FEB6A
:102B400095E10E94A404809149068360E0E4F6E0E8
:102B500081870E943C0C8AE90E94350C80932E23C9
:102B600090932F238FE993E20E945B0C80E001C0D9
:102B700085E8DF91CF911F910F91FF9008958FE02D
:102B80000E94820B282F83FF0BC08091B6238130D7
:102B900029F426FF80E00E94101008950E94BF0FC4
:102BA00008958091AD238F3011F082E8089588E078
:102BB0000E94570D883011F085E8089581E090E07B
:102BC0000E94E10580E00895882311F088EE0895C1
:102BD0008091AD238F3011F481E808958091B62360
:102BE000882391F410929E2388E00E94570D88302C
:102BF000D9F780E090E00E94E1058FE00E94570D38
:102C00008F3011F480E0089586E80895982F809120
:102C1000B623882311F086E80895983039F488E0C7
:102C20000E94570D10929E2388E0089580912E23D4
:102C300090912F23892B29F086E10E94570D86E081
:102C4000089581E080939E2386E00895DC01ED9154
:102C5000FC91119784E1808363834183528386E1F1
:102C600094E2BD010E94620C08950F931F93DF93BD
:102C7000CF930F920F92CDB7DEB7A091D323B0912F
:102C8000D423ED91FC91119784E180838BEE8383B3
:102C90000FEF1FEF0183128386E194E2BD010E94D2
:102CA000620C1092C42309831A8380E5BE016F5F12
:102CB0007F4F0E94FB210093D5231093D6231092BF
:102CC000E3231092E4231092E5231092E62310925E
:102CD000E7231092E8231092E9231092EA230E943E
:102CE000F5200F900F90CF91DF911F910F910895D4
:102CF000CF92DF92EF92FF920F931F9380919823D0
:102D00009091A6238823D1F44091DF235091E023B2
:102D1000992341F4BA0180E090E022E330E040E002
:102D200050E007C0BA0180E090E029E130E040E0E7
:102D300050E00E94E72D6B017C0118C04091DF2319
:102D40005091E023992341F4BA0180E090E028E219
:102D500030E040E050E0EDCF6A01EE24FF2484E053
:102D6000CC0CDD1CEE1CFF1C8A95D1F780E061E0E5
:102D700040E020E030E000E010E00E94971C882353
:102D8000A9F4A091D323B091D423ED91FC91119794
:102D900084E1808381EE83838FEF9FEF8183928331
:102DA00086E194E2BD010E94620C11C080E0B7018F
:102DB000A60120E030E005E316E1EE24FF240E94A6
:102DC0001108882321F080E090E00E9435161F91C1
:102DD0000F91FF90EF90DF90CF900895FF920F93A7
:102DE0001F93DF93CF930F920F92CDB7DEB7F09082
:102DF0000B240E942D0CFF20B1F583E569E074E2FD
:102E00000E94FB212091092430910A248091FE2305
:102E10008093E3238091FF238093E4238091002417
:102E20008093E523809101248093E62380910224FE
:102E30008093E723809103248093E82380910424E6
:102E40008093E923809105248093EA2381E0809395
:102E500012241092C4238091CE23833031F582E076
:102E60008093CE2322C01092C4230FEF1FEF09835B
:102E70001A8380E5BE016F5F7F4F0E94FB210093A4
:102E8000D5231093D6231092E3231092E4231092BB
:102E9000E5231092E6231092E7231092E823109284
:102EA000E9231092EA232FEF3FEFE091D323F09133
:102EB000D423A081B18184E18C931396FC92139763
:102EC00011962D933C93129786E194E2BF010E94E4
:102ED000620C0E94F5200F900F90CF91DF911F910F
:102EE0000F91FF900895CF92DF92EF92FF921F9380
:102EF000DF93CF93CDB7DEB72F97CDBFDEBFAC0149
:102F00007C01DE011196FC01808191819C01F90117
:102F10008FE001900D928150E1F74093D3235093BD
:102F2000D4238C81823019F48F8198851AC08F81C7
:102F30008093E32388858093E42389858093E52328
:102F40008A858093E6238B858093E7238C85809305
:102F5000E8238D858093E9238E858093EA238EEF85
:102F60009FEF8093D5239093D62380E5BE016B5FBE
:102F70007F4F0E94FB210E94D020D701CD90DC9092
:102F800081E0F6018083E182F282EA56FF4F80837E
:102F90008F8581839F0128503040D901EEE8F3E20C
:102FA00088E001900D928150E1F7F9018FEF9FEFDA
:102FB000929382938C81823051F48091D5239091A9
:102FC000D6239293829345E123E238EC11C0F901B4
:102FD0003A979F0143EE53E288E0DA010D90AD018C
:102FE000D9010D929D018150C1F74BE123E23CECE8
:102FF0008091992390919A23929382938091CF23E9
:1030000082938F5F8093CF23329322934293D60192
:103010001696ED93FC93179784E0BE016D5F7F4F8A
:103020000E94FB21182F80E0BE016E5F7F4F0E943F
:10303000FB21112371F4882361F4C60162E070E082
:1030400041E00E94C310882321F481E0809313247F
:1030500012C0D701ED91FC9184E1808381EE8383DE
:103060008FEF9FEF8183928386E194E2B7010E9404
:10307000620C0E94F5202F96CDBFDEBFCF91DF916D
:103080001F91FF90EF90DF90CF900895FC01019089
:10309000F081E02D628173818181448125810E94CC
:1030A000E62D08950F931F938C01DC01ED91FC91A7
:1030B000818162810E94E32DC8010E942D0C1F9125
:1030C0000F910895AF92BF92CF92DF92EF920F933C
:1030D0001F935C01DC01ED91FC9104811581268137
:1030E0003781818162814381E08439966F010E943A
:1030F0006602C5010E942D0C1F910F91EF90DF9089
:10310000CF90BF90AF9008950F931F938C01DC0177
:10311000ED91FC9181810E94E52DC8010E942D0C4A
:103120001F910F9108950F931F938C01DC01ED9176
:10313000FC9181810E94B502C8010E942D0C1F9153
:103140000F9108950F931F938C01DC01ED91FC9179
:1031500081810E947C01C8010E942D0C1F910F915A
:1031600008950F931F938C01DC01ED91FC918181F7
:1031700062813396AF010E94E22DC8010E942D0C9E
:103180001F910F910895EF92FF920F937C01DC0144
:10319000ED91FC9121813281438154816581768159
:1031A0008781908501850E94E12DC7010E942D0C29
:1031B0000F91FF90EF9008950F931F93DF93CF939C
:1031C000CDB7DEB72B97CDBFDEBF8C01DC01ED9113
:1031D000FC9182818983838194818A839B839E0170
:1031E0002C5F3F4FAF014B5F5F4F88E0DA010D90DE
:1031F000AD01D9010D929D018150C1F78181BE01C0
:103200006F5F7F4F0E94E02DC8010E942D0C2B960E
:10321000CDBFDEBFCF91DF911F910F910895CF9267
:10322000DF92EF92FF920F936C01DC01ED91FC9124
:10323000BF016E5F7F4F24893589E788F08C8181DB
:10324000438906890E94DF2DC6010E942D0C0F9133
:10325000FF90EF90DF90CF9008950F931F938C0114
:10326000DC01ED91FC918181928163810E943D029C
:10327000C8010E942D0C1F910F9108950F931F9369
:103280008C01DC01ED91FC91818162810E94DE2D37
:10329000C8010E942D0C1F910F910895CF92DF92CB
:1032A000EF920F93DF93CF93CDB7DEB76697CDBF85
:1032B000DEBF6C01DC01ED91FC918181898382810B
:1032C00093818A839B839E012C5F3F4FAF014C5FAC
:1032D0005F4F88E0DA010D90AD01D9010D929D019B
:1032E0008150C1F784858C87858596858D879E87DB
:1032F0009E01215F3F4FAF01415F5F4F88E0DA01E0
:103300000D90AD01D9010D929D018150C1F7228D23
:10331000338DCE010196BE01645F7F4F418D0789D9
:10332000E08C0E94B301C6010E942D0C6696CDBFB1
:10333000DEBFCF91DF910F91EF90DF90CF90089596
:10334000FC011082618172816115710521F08AEDA5
:1033500093E20E94620C08950F931F93CF93DF9323
:10336000282F8091092490910A2496FFA3C022233C
:1033700059F42091FC233091FD2380919923909161
:103380009A232817390761F02091FC233091FD23FF
:103390008091D8239091D9232817390709F08AC042
:1033A0002091FE233091FF238091D5239091D62345
:1033B0002817390709F47EC09091FE238091E323FA
:1033C000981759F59091FF238091E423981729F5D8
:1033D000909100248091E5239817F9F490910124AD
:1033E0008091E6239817C9F4909102248091E723F5
:1033F000981799F4909103248091E823981769F421
:10340000909104248091E923981739F49091052430
:103410008091EA23981709F44DC08AE90E94350C7F
:103420008C01009709F446C0DC012D913C9185E0A8
:10343000F901808301831283E956FF4F8083AF0136
:1034400048505040FA01AEE8B3E288E00D90019296
:103450008150E1F7FA013897EF01A3EEB3E288E07B
:103460000D9009928150E1F78091992390919A23D0
:10347000929382938091CF2382938F5F8093CF2307
:1034800083E69CEC9293829388E18293D90116960D
:10349000ED93FC931797C90162E070E041E00E9450
:1034A000C310882321F481E08093132403C0C80152
:1034B0000E942D0CDF91CF911F910F9108950F93D2
:1034C0001F93CF93DF93EC01E881F981A681B78147
:1034D0007C917093EE23FD01E70FF11D81818093B4
:1034E000072411964D915C9112974093EB235093D2
:1034F000EC2313968C9113978093EF238D010C5F2F
:103500001F4F652F6295669566956370352F3695CA
:103510003695337019F4F80120E049C014968D9166
:103520009C9115978093F1239093F223FD01369699
:103530003230E1F41092F3231092F4231092F52329
:103540001092F6231092F7231092F8231092F92389
:103550001092FA2316968D919C9117978093F323DE
:103560009093F423FD01389624E021C0333011F00C
:1035700022E01DC016968C9116978093F3238181CB
:103580008093F42382818093F52383818093F623B3
:1035900084818093F72385818093F82386818093AB
:1035A000F92387818093FA23FD013E962AE0662362
:1035B00009F447C046FD08C0819191918093FC2396
:1035C0009093FD232E5F08C08091F1239091F22308
:1035D0008093FC239093FD236230C1F41092FE236C
:1035E0001092FF23109200241092012410920224C2
:1035F000109203241092042410920524808191815A
:103600008093FE239093FF232E5F1BC06330C9F489
:1036100080818093FE2381818093FF238281809328
:1036200000248381809301248481809302248581F6
:1036300080930324868180930424878180930524CA
:10364000285F972F9550921B909308246093FB233B
:103650003093F02343FD5CC1D801A20FB11D842F2C
:1036600087708093ED23833021F48C91809306241E
:1036700063C0813009F451C0813020F0833009F0FB
:1036800047C15AC08D919C911197809309249093C2
:103690000A2412968C91129780930B24877011F450
:1036A00093E002C0982F9C5FFD01E90FF11D80811E
:1036B00080930C24292F2F5F382F377090E080776C
:1036C000907044E0959587954A95E1F7482F33230C
:1036D00011F4882389F0CD01820F911D80930D2470
:1036E00090930E24332311F0330F230F442321F042
:1036F000440F440F440F240F80910824281750F4DE
:10370000821B80930F24A20FB11DA0931024B093AD
:10371000112402C110920F24FFC0992351F0963753
:1037200018F086E780930824A0930924B0930A2414
:10373000F3C010920824F0C080910624843009F46C
:10374000EBC0853030F4823059F0833009F0E0C0AE
:1037500014C0873009F4E0C0883009F0D9C012C025
:1037600011968D919C9112978093092490930A242D
:1037700013968C9180930B24CFC011968C918093DB
:103780000924CAC011968D919C91129780930924A7
:1037900090930A2413968D919C91149780930B24F7
:1037A00090930C2415968C91159780930D24169662
:1037B0008D919C91179780930E2490930F2454FF22
:1037C000ABC018968C9180931024A6C08091ED23F5
:1037D000833061F480910624843011F0873031F415
:1037E0008AED93E2BE010E94620C9CC08091C423CA
:1037F000813009F478C0813020F0843008F088C02E
:1038000059C08091CD23882351F590911224923094
:1038100008F07EC08091ED23813009F475C08130BD
:1038200020F0833009F074C00CC0809115248823E7
:1038300009F46EC0992309F46BC080E00E94AC19B2
:1038400067C080910624833009F040C0CE010E94F9
:10385000AB1D80911224813009F064C03DC08330DB
:10386000D1F0843019F0823009F052C08091ED23FC
:10387000882309F04DC080911524882341F0809160
:1038800012248150823018F481E00E94AC19CE01DC
:103890000E94C82447C08091ED238330C9F58091F0
:1038A00006248830A9F581E00E940207CE010E941B
:1038B000D82838C00E943D248091ED23813021F129
:1038C000833031F580910624833019F0883001F57A
:1038D00006C0CE010E94AB1D0E94A32123C0CE01D1
:1038E0000E94D62B1FC08091ED23833059F4809124
:1038F0000624823069F480E00E940207CE010E9413
:10390000EE1610C0813021F4CE010E94AC1E0AC018
:10391000CE010E942D0C06C080911324882309F04B
:1039200055CF64CFDF91CF911F910F9108956F9282
:103930007F929F92AF92BF92CF92DF92EF92FF92CF
:103940000F931F93CF93DF93D82E962EC42E590139
:1039500038018AE90E94350C7C01009709F49BC06C
:10396000DC010D911C91DD2021F084E0F8018083C1
:1039700003C08BE0D8018C93F801E182F282E95612
:10398000FF4F84E0808320919C2330919D23C901C7
:103990000296029710F0992069F03897EF01AEE88F
:1039A000B3E288E00D9009928150E1F762E183E291
:1039B00090EC05C0329322936CE083E290E8CC2037
:1039C00061F02091992330919A236216730629F0B1
:1039D0006E5F3293229370E002C0806471E022E057
:1039E000C21641F4AC015860D5018D919C9192931F
:1039F000829328C0B3E0CB1661F4AC015C603897C9
:103A00006A5FEF01D50188E00D9009928150E1F7DE
:103A100019C02091D5233091D6234FEF2E3F340784
:103A200029F0AC015860329322930CC0AC015C6069
:103A300038976A5FEF01A3EEB3E288E00D90099238
:103A40008150E1F73297772339F080919923909153
:103A50009A238083918302C0608271828091CF23F8
:103A600082938F5F8093CF23529342936293D801C6
:103A70001696ED93FC931797C80162E070E041E061
:103A80000E94C310882321F481E08093132404C092
:103A9000C7010E942D0C80E0DF91CF911F910F9103
:103AA000FF90EF90DF90CF90BF90AF909F907F906E
:103AB0006F900895EF92FF920F931F93CF93DF9330
:103AC0007C01E801DC01ED91FC9186E1808361835A
:103AD000428323833483CF010596423069F41582F3
:103AE00016821782108611861286138614868881A4
:103AF00099818583968307C0DC01F80188E00190F5
:103B00000D928150E1F786E194E2B7010E94620CC8
:103B1000DF91CF911F910F91FF90EF9008950F9338
:103B20001F93AC0180919C2390919D23029620913C
:103B3000992330919A23029728F4CA0143E00EE8B2
:103B400013E204C0CA0142E00CE913E20E945A1DCC
:103B50001F910F910895CF93DF939C01FC01C081C9
:103B6000D181FE0185E18193AEEFB3E288E00D9053
:103B700001928150E1F780910924898786E194E2DE
:103B8000B9010E94620C1092E3231092E423109278
:103B9000E5231092E6231092E7231092E823109277
:103BA000E9231092EA238FEF9FEF8093D523909320
:103BB000D623DF91CF9108950F931F93DF93CF9377
:103BC000CDB7DEB72E97CDBFDEBF8C01DC014D91A6
:103BD0005C91DE011196FA018EE001900D92815008
:103BE000E1F7FA010183128383E08083EA56FF4FF5
:103BF00080838D85818338979F016EE873E288E02A
:103C0000DB010D90BD01D9010D929D018150C1F7DD
:103C10008A81823031F48D819E819293829333E147
:103C20000FC038979F01BE016B5F7F4F88E0DB01BB
:103C30000D90BD01D9010D929D018150C1F739E16F
:103C40008091992390919A23929382938091CF238C
:103C500082938F5F8093CF232A81922F990F990FA0
:103C600080E08366906C929382933293DA01169689
:103C7000ED93FC9317970E94D020F80180819181E9
:103C800062E070E041E00E94C310882321F481E0EB
:103C9000809313240CC02B813C81C80161EE4A81C2
:103CA0008E010B5F1F4F0E945A1D0E94F5202E9619
:103CB000CDBFDEBFCF91DF911F910F910895DC0141
:103CC000ED91FC911197E081E43278F4F0E0EE0F91
:103CD000FF1FEA5CFD4F259134912115310519F044
:103CE000F901199508950E942D0C08951F93809154
:103CF0001324882381F48091CC23882361F088ECFD
:103D000093E260E070E00E94F70C009721F00E94BF
:103D10005F1E11E001C010E08091DE23882359F07E
:103D20008AED93E260E070E00E94F70C009719F0D2
:103D30000E945F1E11E0812F1F910895DC01ED911B
:103D4000FC91119780E180834183628386E194E254
:103D5000BD010E94620C08950F931F93DF93CF93D0
:103D6000CDB7DEB72897CDBFDEBFAC01DC019C919B
:103D700011962C9180910824882321F4CA010E9475
:103D80002D0CFAC0E92FF22F8091EF23808F8091C4
:103D9000FB23818382508230A8F48091FC23909190
:103DA000FD23828393839F012C5F3F4F6EEF73E26D
:103DB00088E0DB010D90BD01D9010D929D0181507C
:103DC000C1F70AC0128213821482158216821782EA
:103DD0001086118612861386208D8091B7232817AE
:103DE00061F594818091BA23981739F59581809176
:103DF000BB23981711F596818091BC239817E9F49D
:103E000097818091BD239817C1F490858091BE233E
:103E1000981799F491858091BF23981771F4928532
:103E20008091C023981749F493858091C1239817F6
:103E300021F4CA010E942D0C5AC02093B72384811B
:103E40008093BA2385818093BB2386818093BC2392
:103E500087818093BD2380858093BE238185809355
:103E6000BF2382858093C02383858093C1232091C3
:103E7000F02324871786108A118A128A138A148ADB
:103E8000158A168A8091F1239091F223858796876F
:103E9000233079F49F01215F3F4F63EF73E288E0A5
:103EA000DB010D90BD01D9010D929D018150C1F73B
:103EB0000BC0223039F48091F3239091F42387874B
:103EC000908B02C01586168680910724878B80917F
:103ED0000824818F8091092490910A24828F938FE6
:103EE00081E1808386E194E2BA010E94620C8091B4
:103EF000EB2384FF41C08091FB23823071F48091D9
:103F0000FE239091FF2389839A830091FC231091D3
:103F1000FD2380E060E042E021C0833019F580910C
:103F2000FE2389838091FF238A83809100248B83E1
:103F3000809101248C83809102248D8380910324BD
:103F40008E83809104248F8380910524888700913B
:103F5000FC231091FD2380E060E043E09E012F5F91
:103F60003F4F07C080E060E040E020E030E000E04C
:103F700010E00E94971C02C00E94F5202896CDBF39
:103F8000DEBFCF91DF911F910F910895CF92DF9205
:103F9000EF92FF920F931F93DF93CF93CDB7DEB7CE
:103FA0006297CDBFDEBF8C01DE011196FC018081DE
:103FB00091819C01F90182E101900D928150E1F71C
:103FC0008F8582FD11C08091C423882321F48091C4
:103FD000CD23882349F09E85D801ED91FC9180E1A5
:103FE0008083918381EEB5C0F801C080D1808DE0DF
:103FF000D6018C938E8513968C93888945E0F42E98
:10400000F80EE8E9F0E0E81BF109EC0DFD1D9A81DE
:10401000923051F437E0F32EF80E80919C2390916A
:104020009D239293829312C0933081F438972DE0B0
:10403000F22EF80E9F014EE853E288E0DA010D906F
:10404000AD01D9010D929D018150C1F720919923B5
:1040500030919A238C819D812817390749F48A81F0
:10406000882331F08B81882319F040E450E009C0A7
:104070008A81882321F0B2E0FB0E3293229340E044
:1040800050E08B81882311F1823039F46F2D6E5FFF
:104090008E819F819293829312C038976F2D685FB3
:1040A0009F0196E0E92EF12CEC0EFD1E88E0D70171
:1040B0000D907D01D9010D929D018150C1F782E0E3
:1040C000F82EF60E8C819D81929382938091CF235E
:1040D00082938F5F8093CF23BA0161608F8580FFC9
:1040E00002C0BA0161628889873608F070618B81ED
:1040F000382F330F330F20E04A81942F9295990F78
:10410000990F907C80E0282B392B262B372B32936C
:1041100022933296F7FC15C03397F082D60116969B
:10412000ED93FC9317970E94D020F6010183128330
:10413000C60162E070E041E00E94C310882381F074
:1041400013C09E85D801ED91FC9180E1808391831D
:1041500085EE828386E194E2B8010E94620C14C06D
:1041600081E08093132410C09E85D801ED91FC91CD
:1041700080E18083918381EE828386E194E2B801BD
:104180000E94620C0E94F5206296CDBFDEBFCF91E7
:10419000DF911F910F91FF90EF90DF90CF900895E6
:1041A00080911424813051F40E94D115853831F06A
:1041B00081E090E00E94E10510921424089580911E
:1041C0001424882389F480E090E00E94E10580E0D7
:1041D0000E94E415882321F481E08093142408953B
:1041E00081E090E00E94E10508958091B823882342
:1041F00031F48091D723882311F40E94DF200895A1
:104200000F931F93182F10921324109212241092C0
:1042100014241092CD231092CE231092C423109216
:10422000B7238FEF8093BA238093BB238093BC2363
:104230008093BD238093BE238093BF238093C023AC
:104240008093C1231092D72388E00E9406160FB7EF
:10425000F89480E00E94020781E00E94020782E059
:104260000E9402070FBF112391F11092152480EED6
:104270009AE08093C6239093C72380E098E78093C9
:10428000DF239093E0231092C32381E08093C52322
:1042900086E08093B9231092E3231092E4231092D6
:1042A000E5231092E6231092E7231092E823109260
:1042B000E9231092EA238FEF9FEF8093D523909309
:1042C000D6230E94972E8093CF231092B8231F915C
:1042D0000F9108950F931F93CF93DF93EC01088103
:1042E00019810E94D020F801018180E090E00E94B5
:1042F000E10580E0011181E00E94AA14182F81E0FD
:1043000090E00E94E105802F0E9400210E94F5208C
:1043100088EC93E20E94030D8AED93E20E94030D64
:1043200086E194E20E94030DE881F981118380E225
:10433000808386E194E2BE010E94620CDF91CF91FE
:104340001F910F910895DF93CF9300D00F92CDB7B7
:10435000DEB70E94D0208FEF9FEF89839A838B83F3
:104360009C8383E5BE016F5F7F4F0E94FB2180E548
:10437000BE016D5F7F4F0E94FB2181E00E94002102
:104380000E94F5202496CDBFDEBFCF91DF91089526
:104390000E94CC14882399F40E94C409882379F0E0
:1043A00081E00E9400210E94F52088EC93E20E94A7
:1043B0005B0C8AED93E20E945B0C80E0089585E837
:1043C0000895E82F883030F4E82FF0E0E258FD4FF0
:1043D000849108958054803228F4F0E0EA5BFD4F28
:1043E00084910895E03F10F480E00895F0E0EA54ED
:1043F000FE4F849108951F93CF93DF93182FEB0105
:1044000080911424813051F40E94D020812FBE016C
:104410000E94C112182F0E94F52004C0812F0E9413
:10442000C112182F812FDF91CF911F910895FF9214
:104430000F931F93CF93DF93182FEB01F42E813549
:1044400020F58E3408F087C0833409F484C08434A6
:1044500060F4853038F4823008F07DC0882309F498
:104460007AC02DC0823459F53AC08A3409F43FC06D
:104470008B3428F48434B9F1873409F56CC08B345B
:1044800009F44EC08C34D9F452C0873509F463C0A6
:10449000883558F4853530F4833508F05CC08235B2
:1044A00071F449C0863559F40CC0893509F453C0FC
:1044B000893558F08A3561F0803F09F44CC004EF2B
:1044C000B8C0888180931524B3C088819981ACC01D
:1044D000888199818093DF239093E023A9C088810C
:1044E0008093C523A5C088818093B923A1C088810A
:1044F0008093E32389818093E4238A818093E52359
:104500008B818093E6238C818093E7238D81809338
:10451000E8238E818093E9238F818093EA2388C0EA
:10452000888199818093D5239093D62381C08881F7
:104530008093CF237DC06881611161E06093B823CF
:10454000662331F00E94D02086E00E94061670C0DB
:104550000E94F5206DC0812FBE010E94C112082F5C
:10456000813871F40E94D115812FBE010E94C112C1
:10457000082F882309F05DC081E08093312303C0B8
:10458000882309F056C08091A423282F30E0809121
:10459000A823482F50E06091AB23CA01861B9109E4
:1045A000281739070CF4C901A82F281B310981E00D
:1045B00090E002C0880F991F4A95E2F70197289F63
:1045C000A001299F500D389F500D112420E030E0AC
:1045D00070E0E1E0F0E00DC0C901860F971FEF0128
:1045E00002C0CC0FDD1F8A95E2F74C0F5D1F2F5FD5
:1045F0003F4F2A1788F384E190E0489FB001499F1C
:10460000700D589F700D112480919823882319F5FF
:1046100040E054E028E030E080E290E0820F931F19
:10462000840F951F860F971F8093C6239093C723EF
:1046300000E0FF2049F080913123882329F080E0B9
:104640000E94E41510923123802FDF91CF911F91AA
:104650000F91FF90089540E051E022E030E088E0C3
:1046600090E0DCCFEF92FF920F931F937C01FC014F
:1046700000811181B8016E5F7F4FF801818141E0B7
:104680000E941722F801918192839FE19083818398
:1046900086E194E2B7010E94620C1F910F91FF9096
:1046A000EF900895CF93DF93AC01DC01ED91FC9185
:1046B0009F012D5F3F4F81818C3409F485C08D347B
:1046C00038F5853009F464C0863088F4823009F406
:1046D000ACC0833030F4882309F497C08130E9F509
:1046E00097C0833009F4A4C08430B9F54EC0823439
:1046F00009F459C0833430F4863009F44EC0873051
:1047000061F54EC08A3409F451C08B3431F557C07D
:10471000863529F1873588F4803509F45EC0813506
:1047200030F48E3409F453C08F34B9F453C0823559
:1047300009F458C0833589F458C08935D9F08A35D1
:1047400028F4873579F0883541F40FC08D35D1F0E4
:10475000803F09F451C08A3581F094EF6DC080919B
:10476000152468C08091A82365C08091C6239091CC
:10477000C7233FC08091AC235DC08091DF2390911F
:10478000E02337C08091C32355C08091982352C045
:1047900080919623909197232CC08091AE234AC09C
:1047A0008091A52347C08091C52344C0E901A3EEB1
:1047B000B3E288E00D9009928150E1F73CC080910E
:1047C000D5239091D62315C08091CF2333C08091FB
:1047D000A42330C08091AB232DC080919923909168
:1047E0009A2307C08091B82325C080919C23909183
:1047F0009D23838394831FC0E901AEE8B3E288E080
:104800000D9009928150E1F716C08091A62312C045
:104810008091B2239091B323A091B423B091B5239A
:1048200083839483A583B68306C080918D2302C0C1
:1048300080919B23838390E0818182838EE18083BA
:10484000918386E194E2BA010E94620CDF91CF91DC
:104850000895CF93DF93EC01E881F98183E28083AF
:104860006183662311F00E94F52086E194E2BE0187
:104870000E94620CDF91CF9108958091ED238823EF
:10488000E1F080E00E9402078091ED23813031F455
:1048900080910824882311F060E001C06BEE8091C4
:1048A000C423823031F48091D3239091D4230E9489
:1048B0002924109213241092C42308958091C423B4
:1048C000823039F48091D3239091D4236BEE0E94EF
:1048D00029241092C423109213240895CF92DF92BA
:1048E000EF92FF920F931F93DF93CF93CDB7DEB775
:1048F0002897CDBFDEBFD82EC92E8091C423882330
:10490000B1F58091CD23882391F50E94D020ED2C24
:10491000FC2CD701ED91FC9181819F012C5F3F4FD1
:10492000823031F48481958189839A8342E00DC07D
:10493000AE014F5F5F4F88E0D9010D909D01DA0114
:104940000D92AD018150C1F743E00281138181E0F6
:1049500060E09E012F5F3F4F0E94971C882311F457
:10496000C70107C0D092D323C092D42305C08D2D98
:104970009C2D61EE0E9429242896CDBFDEBFCF91E9
:10498000DF911F910F91FF90EF90DF90CF900895EE
:104990005F926F927F928F929F92AF92BF92CF92CF
:1049A000DF92EF92FF920F931F93DF93CF93CDB7D8
:1049B000DEB76197CDBFDEBFBC014091CD23423051
:1049C00011F0443069F48091C523882349F0E091C7
:1049D000D323F091D42320813181D901199604C0C9
:1049E000A0E0B0E020E030E05091FB23598300913B
:1049F000FC231091FD230A831B83523069F41E822D
:104A00001F82188619861A861B868091FE23909134
:104A1000FF238C839D8318C08091FE238C8380911B
:104A2000FF238D83809100248E83809101248F83C6
:104A300080910224888780910324898780910424AF
:104A40008A87809105248B879090A6239C86B090BE
:104A50009823BD868091092490910A248E879F8790
:104A6000188A80910B2487FF02C081E0888B809197
:104A70000724898B423019F0443009F06FC08091CF
:104A8000C523882309F46AC0F901F084EC81FD8113
:104A90005C806D807E808F80A884C984DA84EB84FA
:104AA00040E049C011968D919C9112970817190703
:104AB00009F03FC08C915817E1F51B968C911B971C
:104AC0009816B9F51C968C911C97B81691F5523032
:104AD00041F413968D919C911497E817F90749F5C5
:104AE0003DC013968C911397851519F514968C91EA
:104AF00014978615F1F415968C9115978715C9F4BE
:104B000016968C9116978815A1F417968C91179785
:104B10008A1579F418968C9118978C1551F419967A
:104B20008C9119978D1529F41A968C911A978E15D8
:104B3000A9F04F5F51964F1508F4B4CF59C0FD014D
:104B4000DE01119681E10D9001928150E1F7D901CA
:104B500018968C9118978F5F18968C9390910C24CF
:104B600080910F24882321F48091C5238823E1F5C7
:104B7000DB01ED91FC9187E180838091EF238183BC
:104B80009F012E5F3F4FAE014F5F5F4F81E1DA0122
:104B90000D90AD01D9010D929D018150C1F7809119
:104BA0000C24838B892F877059F4892F90E08077AC
:104BB000907024E0959587952A95E1F7882331F048
:104BC00080910D2490910E24848B958B80910F24DD
:104BD000868B8091102490911124878B908F86E191
:104BE00094E20E94620C09C0CB010E942D0C05C00A
:104BF000E4E0EF1508F4B2CFA2CF6196CDBFDEBFDF
:104C0000CF91DF911F910F91FF90EF90DF90CF90A8
:104C1000BF90AF909F908F907F906F905F9008951E
:104C2000EF92FF920F931F93CF93DF93182FEB0117
:104C3000109213248091CD23823021F48881873013
:104C400051F405C0833039F48881863021F4812FF6
:104C50000E94122BEFC08881843009F475C0853022
:104C600030F4813009F1833009F0E2C010C08B309C
:104C700009F46AC08D3021F0853009F0D9C0D1C067
:104C800089819A81612F4B810E949E1ED1C08981AA
:104C90009A81612F0E948F1D80911224813009F02A
:104CA000C7C00E94A321C4C0193E11F0113E41F4B7
:104CB00089819A81612F4FEF5FEF0E942616B8C05D
:104CC0008093C4238091DF239091E023AC0160E0C6
:104CD00070E0809198239091A6238823A1F49923D2
:104CE00039F4CB01BA0122E330E040E050E006C0E5
:104CF000CB01BA0129E130E040E050E00E94E72D0D
:104D0000AB01BC0110C0992339F4CB01BA0128E2F0
:104D100030E040E050E0F2CF94E0440F551F661FB2
:104D2000771F9A95D1F780E020E030E008E716E1A0
:104D3000EE24FF240E941108882309F47BC080E040
:104D400090E00E94781676C089819A810E942D0C8D
:104D50008091C423813009F46DC088818430A1F42E
:104D6000173881F0E091D323F091D423A081B18151
:104D700083E28C9311961C9386E194E2BF010E941A
:104D8000620C56C082E007C0193E09F451C0113EC2
:104D900009F44EC083E08093C4238091C623909190
:104DA000C723AC0160E070E0809198239091A62326
:104DB0008823A1F4992339F4CB01BA0122E330E02E
:104DC00040E050E006C0CB01BA0129E130E040E00C
:104DD00050E00E94E72DAB01BC0110C0992339F4CB
:104DE000CB01BA0128E230E040E050E0F2CF84E0AD
:104DF000440F551F661F771F8A95D1F780E020E08A
:104E000030E00EE514E2EE24FF240E94110891E048
:104E100090931324882371F080E090E00E945E2438
:104E200009C089819A810E942D0C8EEE0E94912BDF
:104E30000E94F520DF91CF911F910F91FF90EF908D
:104E40000895EF92FF920F931F931092D7238091B2
:104E5000B8238823C9F4809114248823A9F488E016
:104E60000E940616883071F082E040E850E060E071
:104E700070E020E030E001E217E2EE24FF240E941F
:104E8000110802C00E94F5201F910F91FF90EF9032
:104E90000895DF92EF92FF920F931F93CF93DF93CA
:104EA000EC01E881F981E680F78000851185E11445
:104EB000F1040105110539F480E090E00E942127FA
:104EC000E881F9816CC08091C423882309F062C015
:104ED0008091CD23882309F05DC00E94D02086E018
:104EE0000E940616D82E81E08093D72382E00E948C
:104EF0003406882319F082E00E94020780919823EB
:104F00009091A6238823A1F4992339F4C801B7010D
:104F100022E330E040E050E006C0C801B70129E1DB
:104F200030E040E050E00E94E72DAB01BC0112C030
:104F3000992339F4C801B70128E230E040E050E09D
:104F4000F2CFB801A70184E0440F551F661F771FF9
:104F50008A95D1F782E020E030E001E217E2EE240A
:104F6000FF240E941108882381F0E881F98181E201
:104F7000808388EE818386E194E2BE010E94620C08
:104F800080E090E00E94212712C0E881F98186E04C
:104F9000D81629F081E2808382EF818303C081E209
:104FA0008083118286E194E2BE010E94620CDF914F
:104FB000CF911F910F91FF90EF90DF900895BC016A
:104FC00086E194E20E94620C8091C2238093382390
:104FD00084E068E373E20E94FB218091D2238093F6
:104FE000372380E067E373E20E94FB211092CD2318
:104FF0000E94F5200895CF93DF93E091E123F09193
:10500000E223C081D181DE01A956BF4FE983FA8333
:10501000882339F087E088838C934AE023E038E0E6
:1050200013C086E088838C9318979D014EE853E265
:1050300088E0FA010190AF01F90101929F018150CE
:10504000C1F742E123E438ECFD018FEF9FEF92932B
:10505000829332978083918315978091CF238C938D
:105060008F5F8093CF233E932E93FD014293EE8377
:10507000FF83CE0162E070E040E00E94C31088230D
:1050800011F080E003C081E080931324DF91CF9181
:105090000895EF92FF920F931F93DF93CF930F9298
:1050A000CDB7DEB79091CD23933009F467C094302B
:1050B00041F0923009F074C0882309F06CC081E09F
:1050C0005FC0882309F067C086E00E94061686301C
:1050D00009F047C040EC53E060E070E000903923F5
:1050E00004C0440F551F661F771F0A94D2F740541F
:1050F0005C4F6F4F7F4F809198239091A623882318
:10510000A1F4992339F4CB01BA0122E330E040E065
:1051100050E006C0CB01BA0129E130E040E050E0A8
:105120000E94E72DAB01BC0110C0992339F4CB01DB
:10513000BA0128E230E040E050E0F2CF84E0440FD2
:10514000551F661F771F8A95D1F781E020E030E078
:105150000AEF19E2EE24FF240E941108882301F1CE
:1051600013C0809137238F5F809337236091D323BF
:105170007091D42382E00E94302912C0882359F410
:105180000E94FB27882361F481E08983CE01019688
:105190000E94FA2905C0809137238F5F80933723BF
:1051A0000F90CF91DF911F910F91FF90EF90089595
:1051B0000F931F938C018091E1239091E2230E9431
:1051C0002D0C1092E1231092E223A091D323B091F1
:1051D000D423ED91FC9111978BE18083118283E0C0
:1051E00082831482158216821782108686E194E2E9
:1051F000BD010E94620C1092CD230E94F520C801CF
:105200000E942D0C80E569E074E20E94FB218091F0
:105210000E2490910F248F5F9F4F29F083E56EE05D
:1052200074E20E94FB2180910B2490910C248093C6
:10523000D5239093D6238091EB239091EC2394FF78
:1052400005C084E060E174E20E94FB2180E06DE033
:1052500074E20E94FB210E9449281F910F9108953A
:10526000EF92FF921F93CF93DF93182F7B01FB01E7
:10527000C081D18184E068E373E20E94FB21409108
:10528000CD235091C5232091372355C0423011F0D2
:10529000443031F4552321F08885853008F04EC024
:1052A000133021F48885882309F087C0322F3F5FAF
:1052B0008C819D81AE81BF81022E04C0B695A795D9
:1052C000979587950A94D2F781709070892B91F108
:1052D00020933723113011F482E003C0123021F4FF
:1052E00084E08093CD2304C0133011F41093CD23B8
:1052F00080E067E373E20E94FB21182F8823B1F05E
:105300008091E1239091E2230E942D0C1092E123E1
:105310001092E2230E94F5208AEE8983188686E1A6
:1053200094E2B7010E94620C1092CD23812F0E945B
:1053300049285AC0232F2B3008F4A8CF20933723B5
:10534000123041F11330D9F1113009F04DC0809184
:10535000E1239091E2230E942D0C1092E123109200
:10536000E2238091C523882339F08885853010F0A9
:105370008AEF05C0882311F0198202C08AEE898362
:1053800080E568ED73E20E94FB218091D323909128
:10539000D42328C0552339F08885853010F08AEF52
:1053A00005C0882311F0198202C08AEE898380E546
:1053B00068ED73E20E94FB2114C020933723809193
:1053C000E1239091E2230E942D0C1092E123109290
:1053D000E2238885882311F0198202C08AEE89832E
:1053E0001886C7010E94DF27DF91CF911F91FF90A0
:1053F000EF900895CF93DF93C091D323D091D4231E
:10540000988129818091CD238250833020F5E92F26
:10541000F22F21E030E040E050E00090372304C05C
:10542000220F331F441F551F0A94D2F72095309541
:105430004095509584819581A681B78182239323DD
:10544000A423B52384839583A683B78380913223D5
:10545000BE010E943029DF91CF910895CF92DF9253
:10546000EF92FF920F931F93DF93CF930F920F92C0
:10547000CDB7DEB7D82EC92E082F192FD801ED9140
:10548000FC918091A6238093D223809198238093CE
:10549000C223868180933923818180933223828144
:1054A0009381A481B5818093332390933423A09377
:1054B0003523B0933623278120933823D092D323EA
:1054C000C092D4238BE180838091322382838091A8
:1054D000332390913423A0913523B09136238483D4
:1054E0009583A683B7832383108611868091C42376
:1054F000882341F48091CD23882321F480913223A5
:10550000882341F488EE818386E194E2B8010E9409
:10551000620C7DC00E94D020F801E080F1801092E2
:10552000372380913223813008F466C0833020F025
:10553000833009F061C04BC08FEF9FEF89839A835E
:105540008091992390919A238093D8239093D92383
:1055500080E5BE016F5F7F4F0E94FB218091322367
:10556000813021F4D092E123C092E2238AE90E94A3
:10557000350C8093D3239093D4230097E9F1809145
:105580003223823019F4C8010E942D0C2091D323BC
:105590003091D423D901ED91FC918BE180838091EE
:1055A00032238283809138238383809133239091A7
:1055B0003423A0913523B091362384839583A68329
:1055C000B7831086118680913223B90112C08AE90F
:1055D0000E94350C8093E1239093E223009721F4FD
:1055E00088EEF70181830CC06091D3237091D4239E
:1055F00083E00E9430290BC088EED70111968C936E
:1056000086E194E2B8010E94620C0E94F5200F909E
:105610000F90CF91DF911F910F91FF90EF90DF904E
:10562000CF900895EF92FF920F931F93DF93CF9344
:105630000F92CDB7DEB79091CF239F5F9093CF238A
:10564000882309F059C08091CD23823091F440EC39
:1056500053E060E070E00090392304C0440F551F10
:10566000661F771F0A94D2F740545C4F6F4F7F4FED
:1056700007C08091DF239091E023AC0160E070E0EF
:10568000809198239091A6238823A1F4992339F43B
:10569000CB01BA0122E330E040E050E006C0CB018C
:1056A000BA0129E130E040E050E00E94E72DAB0173
:1056B000BC0110C0992339F4CB01BA0128E230E0D3
:1056C00040E050E0F2CF94E0440F551F661F771F73
:1056D0009A95D1F781E020E030E00AEF19E2EE245C
:1056E000FF240E9411088823A1F081E08983CE0164
:1056F00001960E94FA290DC0809137238F5F809315
:1057000037236091D3237091D423809132230E9458
:1057100030290F90CF91DF911F910F91FF90EF9063
:1057200008952EE333E220933A2330933B239DE107
:1057300090933E2380933F238091CD23882379F05B
:105740008091D8239091D923809340239093412333
:105750008091D223809342238091C2230EC08091F6
:10576000992390919A238093402390934123809191
:10577000A62380934223809198238093432386E13C
:1057800094E26AE373E20E94620C809112248230F8
:1057900050F48091CD23882331F48091C423882351
:1057A00011F40E94F5201092CE2308950F931F93B9
:1057B0008C018FEE0E94912BC8010E942D0C80E578
:1057C00069E074E20E94FB2180910E2490910F24E5
:1057D0008F5F9F4F29F083E56EE074E20E94FB210A
:1057E00080910B2490910C248093D5239093D62301
:1057F0008091EB239091EC2394FF05C084E060E15D
:1058000074E20E94FB2180E06DE074E20E94FB21C3
:105810001F910F910895CF93DF93EC018AE90E94C5
:10582000350CDC01009711F480E018C0ED91FC917B
:1058300011978EE080838881818389819A81828318
:1058400093833496239688E0099001928150E1F782
:1058500088EC93E2BD010E94620C81E0DF91CF9160
:105860000895BF92CF92DF92EF92FF920F931F9312
:10587000182F6A017B01B22E8AE90E94350CDC01E7
:10588000009711F480E012C0ED91FC9111978BE02C
:1058900080831183C282D382E482F582B682078339
:1058A00088EC93E2BD010E94620C81E01F910F9190
:1058B000FF90EF90DF90CF90BF9008957F928F92EE
:1058C0009F92AF92BF92CF92DF92EF92FF920F938F
:1058D0001F93782E6A017B01480159018AE90E94D1
:1058E000350CDC01009711F480E014C0ED91FC91BF
:1058F00011978AE080837182C282D382E482F5822A
:1059000086829782A086B18688EC93E2BD010E94D0
:10591000620C81E01F910F91FF90EF90DF90CF908C
:10592000BF90AF909F908F907F9008951F93182FF6
:105930008AE90E94350CDC01009711F480E00CC06C
:10594000ED91FC91119788E08083118388EC93E2BC
:10595000BD010E94620C81E01F9108951F93182FD2
:105960008AE90E94350CDC01009711F480E00CC03C
:10597000ED91FC91119789E08083118388EC93E28B
:10598000BD010E94620C81E01F9108950F931F9347
:10599000CF93DF93EC01162F042F8AE90E94350C78
:1059A0009C01009711F480E01FC0DC01ED91FC9197
:1059B00085E0808314878881818389819A818283AD
:1059C0009383AF014C5F5F4FDE01139688E00D902B
:1059D000EA010992AE018150D1F7058788EC93E284
:1059E000B9010E94620C81E0DF91CF911F910F916C
:1059F0000895FF920F931F93CF93DF93182FF62EE6
:105A0000EA01022F8AE90E94350C9C01009711F4EB
:105A100080E020C0DC01ED91FC9181E08083118366
:105A20008881838389819A8184839583AF014A5FCA
:105A30005F4FDE01139688E00D90EA010992AE01F6
:105A40008150D1F70687F28288EC93E2B9010E9477
:105A5000620C81E0DF91CF911F910F91FF9008952B
:105A6000AF92BF92CF92DF92EF92FF920F931F936C
:105A7000CF93DF93D82EEB01F42EB22EA32EC02E9F
:105A800086E7841708F445C08AE90E94350C8C012A
:105A9000009709F43EC0DC01ED91FC9183E0808326
:105AA000D1822881228389819A8183839483CF0143
:105AB0000596AE014D5F5F4F223069F41582168264
:105AC0001782108611861286138614868B819C811C
:105AD0008583968307C0EC01DA0188E00D90099276
