:100000000C94D1000C94F0000C94F0000C94F000CF
:100010000C94F0000C94F0000C94F0000C94F000A0
:100020000C94F0000C94F0000C94F0000C94F00090
:100030000C94F0000C94F0000C94F0000C94F00080
:100040000C94F0000C94F0000C94F0000C94F00070
:100050000C94F0000C94F0000C94F0000C94F00060
:100060000C94F0000C94F0000C94F0000C94F00050
:100070000C94F0000C94F0000C94F0000C94F00040
:100080000C94F0000C94F0000C94F0000C94F00030
:100090000C94F0000C94F0000C94F0000C94F00020
:1000A0000C94F0000C94F0000C94F0000C94F00010
:1000B0000C94F0000C94F0000C94F0000C94F00000
:1000C0000C94F0000C94F0000C94F0000C94F000F0
:1000D0000C94F0000C94F0000C94F0000C94F000E0
:1000E0000C94F0000C9480060C948A060C9476060E
:1000F0000C9420060C944B060C9494060C94F50575
:100100000C94A8060C94830B0C94AC0B0C94F0008C
:100110000C94F0000C94F0000C94B2060C949E0623
:1001200003020201010000FFFEFDFCFBF9F7F4EF02
:100130003B1800000000E11A00000000D11D000083
:10014000F11D751CF21E0000000000000000000000
:10015000C717D717000000000000000000000000D3
:10016000000000000000000000000000B517871725
:10017000A617971700000000010401010102010108
:100180000101010101010101040108020101010154
:100190000201010201020101020102020101010149
:1001A000080011241FBECFEFD1E4DEBFCDBF13E0A6
:1001B000A0E0B2E0ECEAF5E500E00BBF02C007907A
:1001C0000D92A033B107D9F716E0A0E3B3E001C068
:1001D0001D92A639B107E1F70E9499030C94D42A25
:1001E0000C9400000895EF92FF920F931F9380915B
:1001F0003A0390913B03029759F481E090E0909389
:100200003B0380933A0380E593EC0E94C40719C036
:100210008091300390913103892B99F481E040E87B
:1002200056E968E970E020E030E006E211E0EE24F3
:10023000FF240E94020A80E090E061E070E00E94EA
:10024000CF0B1F910F91FF90EF900895CF92DF9207
:10025000EF920F931F93DF93CF93CDB7DEB76797DE
:100260000FB6F894DEBF0FBECDBF80E090E060E037
:1002700070E00E94CF0B9091320340913303509174
:100280003403609135037091360300913703E09099
:1002900038031091390320E030E08CE0C82ED12CD7
:1002A000CC0EDD1EF601E20FF31FD901A45CBC4F9A
:1002B0008C9180832F5F3F4F2830310599F79C83C5
:1002C0004D835E836F8378870987EA861B878FEE6D
:1002D0009EEB9B838A8383E089830E948B168C8BA1
:1002E0009D8B1E8A1F8A83E0BE016F5F7F4F4CE0AB
:1002F000960100E0EE24E3940E94F71F67960FB684
:10030000F894DEBF0FBECDBFCF91DF911F910F914B
:10031000EF90DF90CF9008958F929F92AF92BF920F
:10032000CF92DF92EF920F931F93DF93CF93CDB7CE
:10033000DEB761970FB6F894DEBF0FBECDBF8C015C
:10034000FB01E42E690180913A0390913B03892BD4
:1003500009F044C0D8018C91833009F0DAC01196BD
:100360008D919C9112978F5E9E4B09F0D2C0808137
:10037000823009F0CEC0818192818F5E9E4B09F060
:10038000C8C081E00E94F608A2E3B3E0F80133960A
:1003900088E001900D928150E1F781E090E0909328
:1003A0003B0380933A038091300390913103892B72
:1003B00071F4198280E090E060E070E00E94CF0B61
:1003C00082E5BE016F5F7F4F0E94CB1FA2C082E01B
:1003D00090E090933103809330039BC08091300371
:1003E00090913103892B09F494C081E090E062E0A0
:1003F00070E00E94CF0B80913003909131030297FF
:1004000051F583E08F838FEE9EEB998788878091EB
:1004100032038A87809133038B87809134038C87E2
:10042000809135038D87809136038E8780913703C5
:100430008F8780913803888B80913903898B83E083
:10044000BE01695F7F4F4E2D960100E0EE24E394DC
:100450000E94F71F5EC0F9E0FE1508F05AC000D0F8
:1004600080E092E0ADB7BEB712969C938E93119741
:100470000E9451268601EE240F900F9022E0A22EBA
:10048000B12CAC0EBD1E98E0892E92E0992E00D0C2
:1004900000D000D0EDB7FEB73196ADB7BEB712961B
:1004A000BC92AE92119793828282D80117968C915A
:1004B000848315820E9463260F900F900F900F90F7
:1004C000EDB7FEB7B282A1820E945126E39401509B
:1004D00010400F900F90F8E0EF16C9F600D000D052
:1004E0008EE092E0ADB7BEB712969C938E931197B3
:1004F000F601918580E0208530E0822B932B1496C5
:100500009C938E9313970E9451260F900F900F90FB
:100510000F9061960FB6F894DEBF0FBECDBFCF919E
:10052000DF911F910F91EF90DF90CF90BF90AF9030
:100530009F908F900895DF93CF930F92CDB7DEB742
:10054000882399F4603FA1F4ACE3B3E0FA0188E0BA
:1005500001900D928150E1F784E1898380E0BE0132
:100560006F5F7F4F0E94CB1F03C081E00E94B31FCB
:100570000F90CF91DF910895EF92FF920F931F9309
:10058000DF93CF9300D0CDB7DEB7882321F081E091
:100590000E94B31F5FC080913A0390913B03019783
:1005A000C9F1662359F48FEE9EEB9A83898380E527
:1005B000BE016F5F7F4F0E94CB1F4CC0603509F0BA
:1005C00049C08091300390913103892B11F4198235
:1005D00002C081E0898310923B0310923A0382E5C6
:1005E000BE016F5F7F4F0E94CB1F80E040E050E074
:1005F00060E070E00FEF1FEF2FEF30E00E94631F0D
:1006000081E040E856E968E970E020E030E003E38B
:1006100013E01CC08091300390913103892BD1F4F9
:100620006235C1F480E040E050E060E070E000E05E
:1006300010E020E030E00E94631F81E040E856E9CE
:1006400068E970E020E030E006E211E0EE24FF24EB
:100650000E94020A0F900F90CF91DF911F910F918E
:10066000FF90EF90089520913003309131032130B5
:100670003105E9F483E090E09093310380933003F7
:1006800030933B0320933A0380E090E060E070E019
:100690000E94CF0B80E090E060E070E00E94CF0B02
:1006A00081E090E061E070E00E94CF0B089580E06F
:1006B00090E060E070E00E94CF0B80E593EC0E9438
:1006C000C40780E593EC0E94C40780E090E061E0FD
:1006D00070E00E94CF0B80E593EC0E94C40780E598
:1006E00093EC0E94C40780E090E00E94270C892BC5
:1006F000F1F680E090E061E070E00E94CF0B80E0D6
:1007000090E061E070E00E94CF0B81E090E061E05A
:1007100070E00E94CF0B81E00E94B31F08958823F0
:1007200021F480EF0E949B1F089581E00E94B31F77
:1007300008954F925F926F927F928F929F92AF92A5
:10074000BF92CF92DF92EF920F931F93DF93CF93DD
:10075000CDB7DEB72C970FB6F894DEBF0FBECDBF76
:100760000E947220882311F00E94BC060E941D0C7A
:1007700080E090E061E070E00E94CF0B80E090E0CC
:1007800061E070E00E94CF0B81E090E061E070E0FA
:100790000E94CF0B789482E00E94DE05882311F03E
:1007A0000E94BC0684E794E068E574E00E94052698
:1007B00080E090E060E070E00E94CF0B00E080E01D
:1007C00090ED0E94C4070F5F0A30C9F70E94260C03
:1007D00080E090E00E94270C892B09F043C081E063
:1007E00090E0909331038093300381E00E94B31F27
:1007F00052E0452E512C12E04FEE642E4EEB742E3B
:1008000088248A94982C32E0A32EB12CAC0EBD1E05
:100810006E010894C11CD11C0E945C2080913A0397
:1008200090913B030197C1F7809130039091310380
:10083000892B91F380E090E00E94270C892B61F7CF
:1008400050923B0340923A031A837C826B829E82D1
:100850008D8283E0B50141E0960100E0EE240E9424
:10086000F71FDACF109231031092300380E090E04E
:1008700061E070E00E94CF0BB8CFDF93CF930F926F
:10088000CDB7DEB70E94320782E0BE016F5F7F4FB7
:1008900041E00E94CC05813019F02FEF3FEF03C0FB
:1008A0008981282F30E0C9010F90CF91DF91089501
:1008B0000F931F93DF93CF930F92CDB7DEB78E01C7
:1008C0000F5F1F4F02C00E94320782E0B80141E073
:1008D0000E94CC058823B9F3898190E00F90CF91D5
:1008E000DF911F910F9108950F931F93DF93CF9383
:1008F0000F92CDB7DEB789838E010F5F1F4F02C005
:100900000E94320782E0B80141E00E94D5058823A9
:10091000B9F380E090E00F90CF91DF911F910F919C
:100920000895759A6D9A749A6C9A6F986E989A9ABF
:10093000A29A8FEF84B982E285B900000000A298E4
:1009400014B815B802C07598759A679BFCCF5E986D
:10095000569A5F98579A0895DC0180914403882342
:1009600011F080E008959091460380914503981717
:1009700010F0875F01C08150891B282F681708F489
:10098000262F80914903820F80934903322F0DC097
:10099000E92FF0E0EE51FA4F8C918083993011F4F9
:1009A00090E001C09F5F31501196332389F79093F7
:1009B0004603822F0895DC0190914A03992311F494
:1009C00080E008959A3058F080914803809347035F
:1009D0008AE080934A036A3020F09AE003C09617B9
:1009E00008F0962F2091470340914A03392F0CC0FD
:1009F000E22FF0E0E451FA4F80818C932F5F2A3090
:100A000009F420E011963150332391F720934703E6
:100A1000491B40934A03892F08950F931F93DF9337
:100A2000CF9300D000D0CDB7DEB76CB167FD1DC04D
:100A300080914A038A30C8F48F5F80934A0314B8C8
:100A400015B87598000000009091480383B1E92F14
:100A5000F0E0E451FA4F8083759A993019F41092BE
:100A6000480303C09F5F90934803B0914903BB23A1
:100A700009F056C088C061157105D1F4AA2329F088
:100A800020E030E040E050E0A0E004B9E92FF0E0E1
:100A9000EE51FA4F808185B97498749A14B815B8DC
:100AA000993011F490E001C09F5F1150B15049C0DE
:100AB00020934B0330934C0340934D0350934E03CC
:100AC000A093440390934503B0934903AA2309F0EC
:100AD0005AC0211531054105510529F48BE493E0F5
:100AE0000E948E0750C0CE0101960E948E07898118
:100AF0009A81AB81BC8120914B0330914C03409192
:100B00004D0350914E03821B930BA40BB50B8958D8
:100B10009341A040B040B8F181E08093440333C0DA
:100B200020914B0330914C0340914D0350914E0363
:100B3000A0914403909145031FEF70E060747070C2
:100B40000FEFBB2379F420934B0330934C03409376
:100B50004D0350934E03A09344039093450310928A
:100B6000490311C0112309F086CF20934B03309322
:100B70004C0340934D0350934E03A0934403909332
:100B80004503B09349030F900F900F900F90CF91B2
:100B9000DF911F910F910895823011F080E0089548
:100BA000CB01642F0E94DB040895823011F080E0B5
:100BB0000895CB01642F0E94AC040895823011F097
:100BC00085E808950E94910480E008959093500371
:100BD00080934F0308959093520380935103089597
:100BE000909354038093530308951F920F920FB66E
:100BF0000F920BB60F9211242F933F934F935F9355
:100C00006F937F938F939F93AF93BF93EF93FF93D4
:100C1000E0914F03F09150030995FF91EF91BF913F
:100C2000AF919F918F917F916F915F914F913F9184
:100C30002F910F900BBE0F900FBE0F901F90189525
:100C40001F920F920FB60F920BB60F9211242F9393
:100C50003F934F935F936F937F938F939F93AF9344
:100C6000BF93EF93FF93E0915103F09152030995E5
:100C7000FF91EF91BF91AF919F918F917F916F9174
:100C80005F914F913F912F910F900BBE0F900FBE30
:100C90000F901F9018951F920F920FB60F920BB6E0
:100CA0000F9211242F933F934F935F936F937F93F2
:100CB0008F939F93AF93BF93EF93FF93E091530371
:100CC000F09154030995FF91EF91BF91AF919F91DE
:100CD0008F917F916F915F914F913F912F910F90E5
:100CE0000BBE0F900FBE0F901F9018951F920F9282
:100CF0000FB60F9211240F900FBE0F901F901895F2
:100D00001F920F920FB60F9211240F900FBE0F90EB
:100D10001F9018951F920F920FB60F9211240F90EB
:100D20000FBE0F901F9018951F920F920FB60F9243
:100D300011240F900FBE0F901F9018951F920F92C5
:100D40000FB60F9211240F900FBE0F901F901895A1
:100D50001F920F920FB60F9211240F900FBE0F909B
:100D60001F9018951F920F920FB60F9211240F909B
:100D70000FBE0F901F9018950E941D0C8FEF9FEFD4
:100D80000E94C40780E090E062E070E00E94CF0B18
:100D900081E090E062E070E00E94CF0BEFCFCF9255
:100DA000DF92EF92FF920F931F93CF93DF937B011C
:100DB0008A016901892B11F088EE19C0CA01860FDA
:100DC000971F8150904110F085E811C0C0E0D0E03D
:100DD0000AC0CE018E0D9F1D0E949A28F601EC0FCD
:100DE000FD1F80832196C017D10798F380E0DF9123
:100DF000CF911F910F91FF90EF90DF90CF900895CA
:100E0000CF92DF92EF92FF920F931F93CF93DF93D6
:100E10008C017B016A01CB01800F911F81509041B1
:100E200010F085E816C0C0E0D0E00FC0C8010E94F5
:100E30009A28F601EC0FFD1F6081861719F0C80192
:100E40000E94A2280F5F1F4F2196CE15DF0570F379
:100E500080E0DF91CF911F910F91FF90EF90DF9095
:100E6000CF9008950E94CC090E940D0508950E941C
:100E70003D070E945E0780E008959FB7F894E0E088
:100E8000F0E089E08093570084919FBF8F7082309B
:100E900011F090E001C09FE080E80FB6F8948093D5
:100EA0006100909361000FBE80E1809335018093D3
:100EB00034018093330180933201089510925503D9
:100EC000109256039FEF909357039093580390937B
:100ED00059039093FE051092FB051092FA0590932A
:100EE0000706109204061092030680E28093B60073
:100EF00088EA8093DC008FE08093F4009093F30005
:100F00009093F2009093F10082E08093E000EFED87
:100F1000F0E080818260808308950895FC018091D3
:100F2000DE0080FDFCCF2091E100822F2091E200C5
:100F3000922F2091E300A22F2091E400B22F24E011
:100F4000880F991FAA1FBB1F2A95D1F78083918311
:100F5000A283B3830895FC012091E900822F2091A0
:100F6000EA00922F2091EB00A22F2091EC00B22FEB
:100F700034E0880F991FAA1FBB1F3A95D1F78083D1
:100F80009183A283B3830895AC018436910518F050
:100F900060E070E01EC07FB7F89461E01AC057FDB2
:100FA00002C09A0102C02FEF3FE7C901880F991FC5
:100FB000909581959F4F9093250180932401FABBD2
:100FC000E0932101D09BFECF421B530B10922101D5
:100FD00002C0F1E0E2E04115510509F761117FBF60
:100FE000089520E090E0FC01B3E0EE0FFF1FBA95FA
:100FF000E1F7E80FF91FEA50FA4F84819581892BB8
:1010000009F021E0822F0895AF92BF92CF92DF9234
:10101000EF92FF920F931F938091570390E0FC0192
:1010200013E0EE0FFF1F1A95E1F7E80FF91FEA50E2
:10103000FA4FA080B180C280D3808091550388236D
:1010400009F46BC0D092F800C092F700B092F6009D
:10105000A092F5008091DF0080FD08C081E08093C0
:10106000E0008091DF0081608093DF002091E1004B
:10107000822F2091E200922F2091E300A22F209155
:10108000E400B22F9C01AD012F5F3F4F4F4F5F4FE8
:10109000DA01C9018A259B25AC25BD258070907099
:1010A000A070B87F0097A105B10531F4A216B30670
:1010B000C406D506C0F109C0D601C501B770577086
:1010C000281739074A075B0770F180915D01883066
:1010D00068F5E0905A03F0905B0300915C03109177
:1010E0005D030894E11CF11C011D111DEA14FB04B1
:1010F0000C051D05D9F48091E100282F8091E200B4
:10110000382F8091E300482F8091E400582F2E154E
:101110003F054007510779F706C08091DF008E7FB9
:101120008093DF0003C081E0809356031F910F91ED
:10113000FF90EF90DF90CF90BF90AF9008951F93F6
:101140001FB7F89480915603882309F44CC010927D
:10115000560330915503332309F445C08091580359
:101160008F3F59F4809159038F3F39F48091570391
:10117000809359038093580312C0209157038091A4
:10118000590390E0FC0153E0EE0FFF1F5A95E1F781
:10119000E80FF91FEA50FA4F2087209359038091F6
:1011A000570390E0FC0143E0EE0FFF1F4A95E1F783
:1011B000E80FF91FEA50FA4F80858093570380911A
:1011C000590390E0FC0123E0EE0FFF1F2A95E1F7A1
:1011D000E80FF91FEA50FA4F8FEF808731503093B4
:1011E00055030E9404081FBF1F910895FF920F939B
:1011F0001F93182F823010F08AE8C5C0FFB6F8940C
:101200000E949F0800915503002309F4C0C040913B
:101210005703302F242F842F1217F1F5212F30E0A0
:10122000141781F4F901A3E0EE0FFF1FAA95E1F76F
:10123000E20FF31FEA50FA4F8085809357030E9414
:10124000040818C090E0DC01E3E0AA0FBB1FEA9598
:10125000E1F7A80FB91FAA50BA4FF90173E0EE0FDA
:10126000FF1F7A95E1F7E20FF31FEA50FA4F8085EE
:1012700018968C93812F90E0FC0163E0EE0FFF1F26
:101280006A95E1F7E80FF91FEA50FA4F8FEF808770
:1012900001500093550362C0822F90E0FC0153E09F
:1012A000EE0FFF1F5A95E1F7E80FF91FEA50FA4FCA
:1012B00050853150822F09F46AC0252FADCF121707
:1012C000D1F5209159031317B1F4121721F48FEFC0
:1012D000809359030DC0812F90E0FC0143E0EE0F95
:1012E000FF1F4A95E1F7E80FF91FEA50FA4F808592
:1012F0008093580333C0842F90E0DC0133E0AA0FC1
:10130000BB1F3A95E1F7A80FB91FAA50BA4F812F1A
:1013100090E0FC0103E0EE0FFF1F0A95E1F7E80FF4
:10132000F91FEA50FA4F808518968C931217B1F482
:101330004093590313C0822F90E0FC0173E0EE0F3D
:10134000FF1F7A95E1F7E80FF91FEA50FA4F422F95
:1013500020852F3F09F0B3CF80E00FC0812F90E0B0
:10136000FC0163E0EE0FFF1F6A95E1F7E80FF91F3C
:10137000EA50FA4F1582148281E0FFBE882311F4EF
:1013800089E801C080E01F910F91FF90089530918E
:101390005803232F432FDDCF1F930E949F081FEF79
:1013A00025C06FB7F894822F90E0FC01B3E0EE0FF8
:1013B000FF1FBA95E1F7E80FF91FEA50FA4F2085B1
:1013C0004481558186819781108715821482178206
:1013D00016822F3F09F43FEF6FBF4115510551F0C1
:1013E0003093590320935803FA010995309159031A
:1013F000209158032F3FA9F63093590320935803A7
:101400001F9108952F923F924F925F926F927F9219
:101410008F929F92AF92BF92CF92DF92EF92FF9204
:101420000F931F93DF93CF9300D000D00F92CDB7CF
:10143000DEB7582E1801FB82EA8201E0081710F48B
:101440008AE820C12114310409F419C190E09D8378
:101450008C83FC01A3E0EE0FFF1FAA95E1F7E80FD4
:10146000F91FEA50FA4F84819581892B11F088E8A1
:1014700009C1E4E07695679557954795EA95D1F7C8
:101480002115310529F02130310509F0F8C026C0B9
:10149000DB01CA010897A109B109885F9F4FAF4FCF
:1014A000B74008F0EEC02091E100822F2091E200C9
:1014B000922F2091E300A22F2091E400B22F7A0115
:1014C0008B01E80EF91E0A1F1B1F8FEF9FEFAFEF76
:1014D000BFE0E822F9220A231B2320C02091E1006B
:1014E000822F2091E200922F2091E300A22F2091E1
:1014F000E400B22F8A019B01081B190B2A0B3B0B3E
:10150000D901C801BF700897A109B109885F9F4F31
:10151000AF4FB74008F0B5C07A018B012FB72983D0
:10152000F8946FEF862E6FEF962E6FEFA62E6FE07A
:10153000B62E8E209F20A022B1220E949F0860908C
:1015400057033FEF631671F040905503C62CD62C1D
:1015500077248FEF9FEFAFEFB7E0E822F9220A235D
:101560001B2367C050925703EC81FD8153E0EE0FBF
:10157000FF1F5A95E1F7AC81BD81EA0FFB1FEA50CE
:10158000FA4F60865AC0BFEFDB1609F44DC06D2DCF
:1015900070E0FB0143E0EE0FFF1F4A95E1F7E60F15
:1015A000F71FEA50FA4F2081318142815381D501E2
:1015B000C40182279327A427B52780709070A0705C
:1015C000B87F0097A105B10539F4281539054A05FA
:1015D0005B0508F46FC007C05770E216F3060407F6
:1015E000150708F467C0EC81FD8133E0EE0FFF1FA3
:1015F0003A95E1F70C811D81E00FF11FEA50FA4F97
:10160000D0866D1419F45092570317C08C2D90E0BA
:10161000FC0123E0EE0FFF1F2A95E1F7E80FF91F09
:10162000EA50FA4F508609C08FEFDC2C7394CD2C12
:10163000D82E741408F4A7CF49C0EC81FD8193E043
:10164000EE0FFF1F9A95E1F72C813D81E20FF31F0A
:10165000EA50FA4F80829182A282B382358224823C
:101660008A819B8197838683809155038F5F8093C6
:1016700055030E94040899819FBF80E003C088EE53
:1016800001C08BE80F900F900F900F900F90CF91AB
:10169000DF911F910F91FF90EF90DF90CF90BF905F
:1016A000AF909F908F907F906F905F904F903F9002
:1016B0002F900895FB0183E0EE0FFF1F8A95E1F75D
:1016C000E60FF71FEA50FA4F8085B0CF8C2D90E0DF
:1016D000FC0103E0EE0FFF1F0A95E1F7E80FF91F89
:1016E000EA50FA4F5086EC81FD8113E0EE0FFF1FA8
:1016F0001A95E1F7AC81BD81EA0FFB1FEA50FA4F62
:101700008FEF80879ACF1F920F920FB60F921124FE
:101710002F933F938F939F938091E1009091E200EC
:101720002091E3003091E40080935A0390935B038F
:1017300020935C0330935D0380915503882319F057
:1017400081E0809356039F918F913F912F910F904D
:101750000FBE0F901F9018951F920F920FB60F9209
:1017600011248F938FEF8093E4008093E3008093A4
:10177000E2008093E1008F910F900FBE0F901F90B9
:10178000189581E008955E9A569A5F98579A6C9AD8
:101790007498749A5E98569A5F98579A089545B1CE
:1017A000209A219A019711F431E001C030E06115CF
:1017B000710531F020915E0361307105A1F40AC01A
:1017C00081E090E002C0880F991F3A95E2F72091DE
:1017D0005E0326C002C0660F771F3A95E2F7862F98
:1017E000809528231EC0822F90E0032E02C095957D
:1017F00087950A94E2F780FF0CC081E090E002C078
:10180000880F991F3A95E2F78095822380935E03B3
:101810000AC081E090E002C0880F991F3A95E2F774
:10182000282B20935E0380915E03809583704C7F0C
:10183000842B85B90E94C30B089510925E03209AF1
:10184000219A289A299A0E94C30B089508955E9AB6
:10185000569A5F98579A75986D9A289A209823B14E
:10186000759A209A5E98569A5F98579A30E020951C
:10187000309521703070C9010895BC01009721F0A6
:1018800087ED95E00E94720C089587ED95E060E089
:1018900070E00E94070D08950F931F93CF93DF937D
:1018A00087ED95E00E946B0CC7ECD5E00FE513E0E7
:1018B0001983088387ED95E0BE010E94720C24967F
:1018C00006561F4F85E0C73DD80791F7DF91CF91AE
:1018D0001F910F910895FC011182108213821282D0
:1018E00014820895CF93DF93DC01EB019FB7F89446
:1018F00014968C911497882321F411967C936E93FF
:1019000006C01296ED91FC91139773836283139630
:10191000DC93CE9312971B821A8214968C911497A3
:101920008F5F14968C939FBFDF91CF9108959F9204
:10193000AF92BF92CF92DF92EF92FF920F931F93DD
:10194000CF93DF938C015B016A019FB6F894DC01B1
:1019500014968C91882319F4C0E0D0E04AC0F801B5
:10196000C081D18141155105B1F07E0111C0D60170
:1019700012966D917C911397ED91FC9188819981DC
:101980000995882359F47E018A819B819C01E90194
:10199000209769F72EC0209761F17E01AB2849F5A9
:1019A000F801808191812A813B81C817D90719F4F8
:1019B0003183208305C0D70113963C932E93129751
:1019C000F80182819381C817D90711F4F382E2826A
:1019D000D80114968C911497815014968C93149777
:1019E0008D919C911197892B21F413961C921E9234
:1019F00012979FBECE01DF91CF911F910F91FF9063
:101A0000EF90DF90CF90BF90AF909F900895AB0183
:101A100060E070E00E94970C0895AB0161E070E017
:101A20000E94970C0895CF93DF93EC010BC0CE0179
:101A300060E070E00E94070D009711F41C8205C061
:101A40000E943D0C8C81882391F7DF91CF910895FE
:101A50000F931F93DF93CF93CDB7DEB728970FB6C1
:101A6000F894DEBF0FBECDBF809141018F718830E9
:101A700029F581E080934F0189E080934201CE01F6
:101A800001960E948E078E010B5F1F4F80914F01C0
:101A900080FD14C0C8010E948E078D819E81AF8198
:101AA000B88529813A814B815C81821B930BA40B01
:101AB000B50B8D3D9105A105B10540F328960FB6F4
:101AC000F894DEBF0FBECDBFCF91DF911F910F9174
:101AD0000895CF93DF93EC01809128069091290619
:101AE0000F9709F033C0809139018D7F80933901C0
:101AF00094E6809141018F718830C9F0915031F4A2
:101B000080913901826080933901EDCF000000009F
:101B100000000000000000000000000000000000C5
:101B2000000000000000000000000000E2CFC8300C
:101B3000D10519F0C330D10549F488E090E09093C5
:101B400029068093280628E030E0E1C18091410118
:101B500090E08F7190709093290680932806C8308A
:101B6000D10509F44FC0C930D10560F4C430D105A6
:101B700009F49AC0C630D10509F4A3C0239709F02F
:101B8000B9C157C0CF30D10579F0C031D10520F4AB
:101B9000299709F0AFC164C0C631D10509F4CBC0A3
:101BA000699709F0A7C136C183E0809342010E9482
:101BB000EC2580936D0180916E019770887F982B42
:101BC00090936E0100000000000000000000000083
:101BD0000000000000000000000000000000000005
:101BE000000000008091390182608093390183E216
:101BF00090E00E94C407D0932906C09328062FE0E6
:101C000030E085C1089709F475C188E080934201EE
:101C100000000000000000000000000000000000C4
:101C200000000000000000000000000000000000B4
:101C300061C1089709F45EC183E08093420100000E
:101C40000000000000000000000000000000000094
:101C500000000000000000000000000000004AC179
:101C60008830910539F18930910520F4069709F003
:101C700041C106C08631910519F0499709F03AC172
:101C800089E0809342010000000000000000000095
:101C90000000000000000000000000000000000044
:101CA00000000000000026C18830910519F0099756
:101CB00021F420C10E94280D1DC184E080934201BF
:101CC00019C18930910569F08A30910520F408978F
:101CD00009F010C11AC08631910519F0499709F031
:101CE00009C186E08093420100000000000000006E
:101CF00000000000000000000000000000000000E4
:101D00000000000000000000F5C00E94280D86E0E1
:101D1000809342010000000000000000000000006D
:101D200000000000000000000000000000000000B3
:101D300000000000DFC08830910509F1893091056D
:101D400020F4069709F0D6C030C08930910519F00B
:101D5000499709F0CFC086E180934201000000005E
:101D60000000000000000000000000000000000073
:101D7000000000000000000000000000BBC00E9446
:101D8000280D86E180934201000000000000000061
:101D90000000000000000000000000000000000043
:101DA0000000000000000000A5C089E0809342010F
:101DB0000000000000000000000000000000000023
:101DC0000000000000000000000000000000000013
:101DD00080914101282F30E02F7130703093290617
:101DE000209328062930310509F091C086E18093BF
:101DF00042010000000000000000000000000000A0
:101E000000000000000000000000000000000000D2
:101E1000000070C08830910509F457C089309105E1
:101E200020F4069709F066C01BC08930910521F0A7
:101E3000469709F05FC014C089E180934201000019
:101E40000000000000000000000000000000000092
:101E500000000000000000000000000000004AC078
:101E600089E08093420100000000000000000000B3
:101E70000000000000000000000000000000000062
:101E800000000000000080914101282F30E02F71F8
:101E9000307030932906209328062930310509F047
:101EA00036C089E18093420100000000000000007C
:101EB0000000000000000000000000000000000022
:101EC000000000000000000015C00E94280D89E1FC
:101ED00080934201000000000000000000000000AC
:101EE00000000000000000000000000000000000F2
:101EF0000000000080914101282F30E02F713070E8
:101F00002F313105B9F32093280630932906C901F2
:101F1000DF91CF910895809119068823E9F080918F
:101F200032068823C9F48091DC059091DD05892B68
:101F300039F48AE90E94450C9093DD058093DC0515
:101F40008091DC059091DD05892B31F01092190606
:101F500086E190E00E94690D80911E06882351F071
:101F60008AE196E060E070E00E94070D009711F0B2
:101F70000E94C10F80913206823011F40E941F111D
:101F80000895EF92FF920F931F93CF93DF937C01FD
:101F9000DC010D911C91D8011696ED91FC911797DB
:101FA000808180932B06C82FD0E02196CE0FDF1FB3
:101FB000988129812D3310F02CE303C0222309F4EA
:101FC00021E092959695969593708FEF989FC0011A
:101FD000112430E0FC01E29FC001E39F900DF29FCD
:101FE000900D112464EB70E00E9433256F3F710562
:101FF00011F008F06FEF6883D8011296FC92EE9210
:102000001197C8010E942F18DF91CF911F910F9156
:10201000FF90EF900895CF92DF92EF92FF920F938F
:102020001F93CF93DF93E091DC05F091DD053097AE
:1020300009F44AC0C081D181C0904701D0907B0192
:10204000D7FC42C082E0D80E0AE910E00D19110950
:10205000EEEFDE0E0C0F1D1FED2CFF2497012F5FFE
:102060003F4FC80160E871E0A9010E94FC25F8011A
:10207000D292FF83EE83EE0EFF1EF701C2828091A3
:102080004C018F7780934C0180914C018068809344
:102090004C016091DC057091DD058AE196E00E94BB
:1020A000720C8AE90E94450C9093DD058093DC0553
:1020B000892B39F489E090E00E94690D81E08093DA
:1020C000190680E480934F01DF91CF911F910F910A
:1020D000FF90EF90DF90CF9008951F9310913206FC
:1020E0001130E9F480914201829586958770809342
:1020F000DE051092DF0582E0809332068091DC05D8
:102100009091DD05892B39F489E090E00E94690DFA
:102110001093190604C086E190E00E94690D1F919A
:1021200008950F931F93CF93DF93EC018B0144230A
:1021300049F090916C01809127068295807F9F7075
:10214000892B03C080916C018F7080936C010230E9
:10215000110598F4442369F090916C0180911F0659
:10216000880F8E70917F892B80936C0110926F0184
:1021700017C080916C018E6011C0809123068295FA
:10218000807F90912606892B80936F0190916C013E
:1021900080911F06880F8E70917F892B80936C0130
:1021A00089E190E00E94690D4997D1F7013011054E
:1021B00051F480912B06833118F080E492E005C041
:1021C00080E890E002C089E090E00E94C4071FB759
:1021D000F8948091390182608093390180913901AE
:1021E0008D7F80933901288130E02150304080E894
:1021F00091E0BE01A9010E94FC2581E08093320696
:102200001FBFDF91CF911F910F910895FC01809125
:102210003206882311F086E80895F0932506E093AE
:1022200024068681978190932D0680932C06009733
:1022300011F488EE08950E94911080E008951092A4
:1022400032068091DE059091DF0583309105B9F06B
:102250008430910528F4009731F00197E1F409C02A
:102260000597C9F412C0609124067091250680E09C
:1022700017C0609124067091250687E811C060910F
:1022800024067091250681EE0BC0609124067091A2
:10229000250689EE05C0609124067091250685E823
:1022A0000E94BA1E0895282F85FD03C0982F9F73A2
:1022B00004C0982F91959F719195E0E2F1E084918F
:1022C000891734F03F968491981714F0822F0CC030
:1022D000803E3CF080323CF487FF06C08F71806204
:1022E00003C080E201C08FE18068089584E080939C
:1022F0001F0623E0209326068FEF9FEF909315068D
:102300008093140690931806809317068BE08093B1
:1023100021061092130680E098EFAFEFB7E08093AC
:102320002E0690932F06A0933006B09331068AE0D4
:1023300091E090931206809311068AE080932A061A
:1023400082E08093200685E0809323062093270671
:1023500083E80E9453118093080681E0809316065B
:1023600010922206089585FD03C0982F9F7304C024
:10237000982F91959F719195E0E2F1E080E0249192
:10238000921724F029173CF4815008958F5F3196FD
:102390008031A9F780E00895809114069091150688
:1023A0008093620190936301E9E0F6E0A4E6B1E076
:1023B00081918D9386E0E131F807D1F7809117067E
:1023C000909118068093600190936101909148016B
:1023D000809116068295880F80769F79892B80934D
:1023E000480190916F01809126068F70907F892B14
:1023F00080936F0190916E0180912206880F880F63
:10240000880F8870977F892B80936E0190916F0160
:10241000809123068295807F9F70892B80936F0126
:1024200090914801809121068F71907E892B809335
:102430004801809108060E94B311909145018F7068
:10244000907F892B809345010895CF93DF93EB0113
:102450008E3431F0893541F4888180932706EFC0AE
:10246000888180931F06EBC02091280630912906B1
:102470002F30310511F481E8E3C08B3009F4CDC071
:102480008C3070F4823009F487C0833018F48823CC
:10249000B1F115C0833009F490C0843081F466C076
:1024A000833511F1843528F48F3459F0803539F4AF
:1024B00010C0873509F464C0803F09F48BC084EFF5
:1024C000BFC098819093260680916F019F70807F96
:1024D0005FC088819981809314069093150680933C
:1024E000620190936301ABC0888199818093170644
:1024F000909318068093600190936101A0C0809131
:102500003206882309F097C080E098EFAFEFB7E07C
:10251000088004C0B695A795979587950A94D2F739
:1025200081709070892B09F488C02830310519F426
:1025300028E030E008C088E090E00E94690D08972C
:10254000D1F726E130E098819093210680914801EF
:102550009F71807E982B909348012830310509F4B3
:102560006EC086E190E00E94690D69C080913206DC
:10257000882309F060C08881882309F460C05DC0A9
:1025800098819093230680916F019295907F8F7030
:10259000982B90936F0153C08881809308060E9406
:1025A0005311809308060E94B311909145018F70DA
:1025B000907F892B8093450142C0888180931606C5
:1025C000909148018295880F80769F79892B80931E
:1025D000480135C0888180930906898180930A0665
:1025E0008A8180930B068B8180930C068C8180936B
:1025F0000D068D8180930E068E8180930F068F814C
:1026000080931006E9E0F6E0A4E6B1E081918D93B5
:1026100086E0E131F807D1F712C088818093220665
:1026200090916E01880F880F880F8870977F892B93
:1026300080936E0104C086E803C088EE01C080E08C
:10264000DF91CF9108950F931F93CF93DF93082FBE
:10265000809139018D7F8093390180EF90E00E9455
:10266000C407809139018E7F8093390181E090E029
:102670000E94C4078091390181608093390120E074
:1026800030E0809141012F5F3F4F93E0293E3907B1
:1026900011F485E85FC090E08F71907088309105EB
:1026A00081F7909329068093280680916E018062BD
:1026B00080936E0180914C01806880934C018CE482
:1026C00080934E0186E090E00E94690D10924E01C9
:1026D000C0E0D0E010E080914601CC0FDD1FCC0FB0
:1026E000DD1F90E08076907025E0969587952A957D
:1026F000E1F7C82BD92B1F5F183069F783E090E012
:102700000E94690D80914F0110934F0180E48093E6
:102710004F018CE480934E01CE010E94F1250E946E
:10272000EC2580936D0180916E019770887F982BC6
:1027300090936E0180E00E94E2140E94D014002366
:1027400011F00E9476110E94CC1110923206109264
:10275000190680E0DF91CF911F910F9108951F938B
:10276000182F0E942313882361F085E81BC08AE19B
:1027700096E060E070E00E94070D009711F00E9463
:102780003D0C80911E06882391F7812F0E945415DD
:1027900088E080934F0180E480934F0184E0809330
:1027A0004F0180E01F9108950F931F93CF93DF9304
:1027B0000E943707882309F0D2C0809139018160D7
:1027C00080933901809139018D7F809339018CE7A5
:1027D00091E00E94C407809139018E7F8093390176
:1027E00081E090E00E94C40780913901816080936C
:1027F000390188E08093420120E08091410121501D
:1028000009F4ADC090E08F71907088309105A9F700
:10281000909329068093280680915C01833809F003
:102820009EC0A3C0C9E0D6E00E94EC25899386E053
:10283000C131D807C9F78091090630910A06409145
:102840000B0660910C0670910D06F0910E06B0918A
:102850000F0650911006082F015091E0081708F05C
:1028600090E0832F815021E0831708F020E0192F9A
:10287000180F91E0181708F090E0292B842F815051
:1028800031E0841708F030E0A22FA80F91E0A817DC
:1028900008F090E0392B862F815021E0861708F050
:1028A00020E0E32FE80F91E0E81708F090E0292BF3
:1028B000872F815031E0871708F030E0622F680FD2
:1028C00091E0681708F090E0392B8F2F815021E0BC
:1028D0008F1708F020E0432F480F91E0481708F0C9
:1028E00090E0292B8B2F815091E08B1708F090E01E
:1028F000322F380F21E0381708F020E0922B519545
:10290000591779F43F3F69F44F3F59F46F3F49F449
:10291000EF3F39F4AF3F29F41F3F19F40E3F08F0A1
:1029200081CF81E00E9423138823C9F488EC94E1CD
:102930000E94EB0580EC94E10E94E6050E944C0C9D
:102940008AE90E94450C9093DD058093DC058AE1BD
:1029500096E00E946B0C0E944B1580E001C085E858
:10296000DF91CF911F910F91089580E090E060E09A
:1029700070E048E050E029E036E00E94CF065BCFEF
:102980001F931FB7F8940E946D101FBF1F910895E9
:102990001F931FB7F8940E940B101FBF1F9108953B
:1029A00080912806909129060F9711F082E80895EA
:1029B00088E090E00E94690D089711F085E808957D
:1029C00080E00895882311F088EE0895809128060C
:1029D000909129060F9711F481E8089580913206AD
:1029E000882381F41092190688E090E00E94690D16
:1029F0000897D1F78FE090E00E94690D0F9711F4CE
:102A000080E0089586E80895982F80913206882303
:102A100011F086E80895983041F488E090E00E9433
:102A2000690D1092190688E008958091DC05909157
:102A3000DD05892B31F086E190E00E94690D86E08A
:102A4000089581E08093190686E00895FB018823AC
:102A500011F084EF08958091E005808380E008956F
:102A6000FB01882311F084EF089580818093E005B5
:102A700020915501992787FD9095865A9F4F63E0D5
:102A800070E00E9447256F5F6F70207F262B209398
:102A9000550180E008951092E005E5E5F1E08081C0
:102AA000807F808380E00895882311F01092E005F4
:102AB00090915501907F8091E0058F70982B9093B5
:102AC000550108958F929F92AF92BF92CF92DF925D
:102AD000EF92FF920F931F93CF93DF9380E8809341
:102AE0007A0088E080937B0089EC80937C0085ED00
:102AF00080937A0080917A0084FFFCCF0F2EF0E063
:102B0000EF2EF0E0FF2EF0E00F2FF0E01F2FF02D62
:102B1000DD2495EDC92EC0927A0080917A0084FF61
:102B2000FCCF609178007091790080E090E00E9485
:102B30001E239B01AC01C801B7010E94F7217B0154
:102B40008C01D39480E1D81631F780917A008F7789
:102B500080937A0010927B0088EC80937C000F2E8B
:102B6000F0E0AF2EF0E0BF2EF0E0CF2EF0E0DF2E51
:102B7000F02D992485ED882EC0E0D4E080927A0073
:102B800080917A0084FFFCCF609178007091790089
:102B900092E06030790778F0CE01861B970BBC017C
:102BA00080E090E00E941E239B01AC01C601B501AC
:102BB0000E94C6210AC080E090E00E941E239B0173
:102BC000AC01C601B5010E94F7215B016C01939431
:102BD00090E1991699F680917A008F7780937A0028
:102BE000C801B70120E030E040E85DE30E94242204
:102BF0007B018C01C601B50120E030E040E85DE3D7
:102C00000E9424229B01AC01C801B7010E94C62189
:102C100027ED33EA40E95FE30E94242226E636E608
:102C200048E853E40E94C621DF91CF911F910F9194
:102C3000FF90EF90DF90CF90BF90AF909F908F90DC
:102C4000089580E00E94AF130895EF92FF921F93C2
:102C5000DF93CF93CDB7DEB7CF57D0400FB6F89400
:102C6000DEBF0FBECDBF909144019F7D9093440184
:102C700098E0909342019FE09093760190914C01EF
:102C8000936090934C0197EA90934A01882351F402
:102C900081E089831A8289819A819093810180934E
:102CA000800118C08FE7898311E07E010894E11C40
:102CB000F11C0E94EC25F701E10FF11D80831F5FDD
:102CC0001038B9F7A0E8B1E0F70180E801900D9263
:102CD0008150E1F784E580935C0186E480935C0198
:102CE00089E090E00E94690D8091390182608093B3
:102CF0003901809139018D7F80933901C158DF4FAF
:102D00000FB6F894DEBF0FBECDBFCF91DF911F91FC
:102D1000FF90EF900895EF92FF920F931F93CF9340
:102D2000DF9310924E01E0902806F09029068FE084
:102D3000E816F10421F488E090E00E94690D80918A
:102D400051018F7E80935101809151018F6080935A
:102D5000510185E090E00E94C4078091510185FDFA
:102D600010C080915101807F8093510182E090E0FA
:102D70000E94C4078091510185FD62C0C0E0D0E08F
:102D800041C0809151018061809351018091510136
:102D90008F608093510185E090E00E94C40780918C
:102DA000510185FD02C001E04CC0CFEFDFEF2AC02A
:102DB00080915101912F9F70807F982B90935101AA
:102DC00082E090E00E94C4078091510185FD07C018
:102DD000112311F490E007C0912F915004C01F5FA0
:102DE000103131F79FE0002339F08BE4989FE00128
:102DF0001124CA50D64F06C082E3989FE0011124E7
:102E0000CC55D94F80914F018FE0E816F10421F4A1
:102E10008FE090E00E94690D88E080934F0180E48C
:102E200080934F0184E080934F018CE480934E01A6
:102E3000CE01DF91CF911F910F91FF90EF900895F8
:102E400000E010E0B5CF1F9386E090E00E94690D8E
:102E50000697D1F7809155018068809355018FEFD7
:102E60008093470180E890E00E94C40780914F0161
:102E700084FFFCCF90914701983310F01FEF09C0F9
:102E80008FEF989FC001112467E370E00E94332503
:102E9000162F80914F01809155018F7780935501B6
:102EA00088E090E00E94690D812F1F91089588E0CD
:102EB00090E00E94690D0897D1F7809155018068D4
:102EC0008093550186E090E00E94690D0697D1F746
:102ED0008091480180688093480180E990E00E94D9
:102EE000C4078091410187FFFCCF88E090E00E94F9
:102EF000690D8091410186FD02C090E001C094E01F
:102F0000809155018F7780935501892F08950F93F4
:102F10001F938C01DC01ED91FC91818162810E9403
:102F2000BC02C8010E943D0C1F910F9108950F93A0
:102F30001F938C01DC01ED91FC9181810E94F200D4
:102F4000C8010E943D0C1F910F9108950F931F938C
:102F50008C01DC01ED91FC9181810E948F03C801FD
:102F60000E943D0C1F910F9108950F931F938C01A8
:102F7000DC01ED91FC91818162813396AF010E9469
:102F80009B02C8010E943D0C1F910F9108950F9361
:102F90001F938C01DC01ED91FC91818162810E9483
:102FA000F300C8010E943D0C1F910F910895CF922C
:102FB000DF92EF920F93DF93CF93CDB7DEB7669793
:102FC0000FB6F894DEBF0FBECDBF6C01DC01ED91F2
:102FD000FC9181818983828193819B838A839E0175
:102FE0002C5F3F4FAF014C5F5F4F88E0DA010D90DF
:102FF000AD01D9010D929D018150C1F784858C8767
:10300000858596859E878D879E01215F3F4FAF0105
:10301000415F5F4F88E0DA010D90AD01D9010D925B
:103020009D018150C1F7228D338DCE010196BE01E5
:10303000645F7F4F418D0789E08C0E948C01C6013F
:103040000E943D0C66960FB6F894DEBF0FBECDBF52
:10305000CF91DF910F91EF90DF90CF900895FC0119
:103060001082618172816115710521F08EE496E014
:103070000E94720C08950F931F93CF93DF93EC017E
:10308000E881F981A681B7817C9170936006FD018A
:10309000E70FF11D81818093790611964D915C9126
:1030A000129750935E0640935D0613968C9113978A
:1030B000809361068D010C5F1F4F652F62956695A9
:1030C00066956370352F36953695337019F4F8018F
:1030D00020E049C014968D919C91159790936406B9
:1030E00080936306FD0136963230E1F41092650656
:1030F0001092660610926706109268061092690692
:1031000010926A0610926B0610926C0616968D91BC
:103110009C9117979093660680936506FD013896FB
:1031200024E021C0333011F022E01DC016968C91AE
:1031300016978093650681818093660682818093CD
:103140006706838180936806848180936906858100
:1031500080936A06868180936B06878180936C06D4
:10316000FD013E962AE0662309F447C046FD08C0EB
:103170008191919190936F0680936E062E5F08C0A7
:10318000809163069091640690936F0680936E061B
:103190006230C1F41092700610927106109272069D
:1031A00010927306109274061092750610927606AD
:1031B00010927706808191819093710680937006BA
:1031C0002E5F1BC06330C9F48081809370068181BB
:1031D0008093710682818093720683818093730647
:1031E000848180937406858180937506868180939F
:1031F0007606878180937706285F972F9550921BDC
:1032000090937A0660936D063093620643FDC3C0C7
:10321000D801A20FB11D842F877080935F06833081
:1032200021F48C918093780663C0813009F451C0F9
:10323000813020F0833009F0AEC05AC08D919C914E
:10324000119790937C0680937B0612968C9112972F
:1032500080937D06877011F493E002C0982F9C5FE5
:10326000FD01E90FF11D808180937E06292F2F5FDC
:10327000382F377090E08077907044E0959587956F
:103280004A95E1F7482F332311F4882389F0CD01C3
:10329000820F911D9093800680937F06332311F057
:1032A000330F230F442321F0440F440F440F240F06
:1032B00080917A06281750F4821B80938106A20F12
:1032C000B11DB0938306A093820669C01092810657
:1032D00066C0992351F0963718F086E780937A06F6
:1032E000B0937C06A0937B065AC010927A0657C012
:1032F00080917806873009F452C0883021F08430FC
:1033000009F049C04CC011968D919C9112979093F1
:103310007C0680937B0613968D919C9114979093D5
:103320007E0680937D0615968C91159780937F0677
:1033300016968D919C9117979093810680938006A5
:1033400054FF2DC018968C918093820628C08091DE
:103350005F06833061F480917806843011F0873005
:1033600031F48EE496E0BE010E94720C1DC0809183
:103370003F06882381F480914606882361F480917A
:103380008406882341F480915F06813021F4CE01C8
:103390000E94181A09C0CE010E943D0C05C0809100
:1033A00085068823A1F6E3CFDF91CF911F910F917E
:1033B0000895DC01ED91FC911197E081E43278F4FD
:1033C000F0E0EE0FFF1FE05DFE4F259134912115D7
:1033D000310519F0F901099508950E943D0C0895F1
:1033E0001F9380918506882381F480914506882368
:1033F00061F081E496E060E070E00E94070D0097C4
:1034000021F00E94D91911E001C010E0809152060C
:10341000882359F08EE496E060E070E00E94070D8A
:10342000009719F00E94D91911E0812F1F9108957A
:10343000CF93DF93AC01FC019081218180917A06CA
:10344000882309F452C0E92FF22F80916106808F02
:1034500080916D0681838250823080F480916E0667
:1034600090916F0693838283EF012496A0E7B6E0E4
:1034700088E00D9009928150E1F70AC01382128210
:103480001482158216821782108611861286138680
:10349000208D80913306281761F59481809136063E
:1034A000981739F5958180913706981711F596810F
:1034B000809138069817E9F497818091390698171A
:1034C000C1F4908580913A06981799F4918580917E
:1034D0003B06981771F4928580913C06981749F441
:1034E000938580913D06981721F4CA010E943D0CF6
:1034F00055C020933306848180933606858180935E
:1035000037068681809338068781809339068085C7
:1035100080933A06818580933B06828580933C06A2
:10352000838580933D062091620624871786108A42
:10353000118A128A138A148A158A168A8091630660
:103540009091640696878587233051F4EF012F967A
:10355000A5E6B6E088E00D9009928150E1F70BC036
:10356000223039F48091650690916606908B8787AA
:1035700002C01686158680917906878B80917A061F
:10358000818F80917B0690917C06938F828F81E161
:10359000808387E896E0BA010E94720C0E94161C94
:1035A000DF91CF910895DC01ED91FC91119780E1BD
:1035B00080834183628387E896E0BD010E94720C9C
:1035C0000895CF92DF92EF92FF920F931F93DF93B4
:1035D000CF93CDB7DEB762970FB6F894DEBF0FBEBC
:1035E000CDBF8C01DE011196FC01808191819C018F
:1035F000F90182E101900D928150E1F78F8582FD02
:1036000011C080913F06882321F4809146068823CB
:1036100049F09E85D801ED91FC9180E180839183F2
:1036200081EEB5C0F801C080D1808DE0D6018C93C9
:103630008E8513968C93888945E0F42EF80EE8E980
:10364000F0E0E81BF109EC0DFD1D9A81923051F478
:1036500037E0F32EF80E809117069091180692939A
:10366000829312C0933081F438972DE0F22EF80E39
:103670009F0149E056E088E0DA010D90AD01D901E3
:103680000D929D018150C1F72091140630911506CD
:103690008C819D812817390749F48A81882331F06C
:1036A0008B81882319F040E450E009C08A81882387
:1036B00021F0B2E0FB0E3293229340E050E08B8188
:1036C000882311F1823039F46F2D6E5F8E819F81D6
:1036D0009293829312C038976F2D685F9F0196E096
:1036E000E92EF12CEC0EFD1E88E0D7010D907D0136
:1036F000D9010D929D018150C1F782E0F82EF60E9E
:103700008C819D81929382938091480682938F5FF2
:1037100080934806BA0161608F8580FF02C0BA01BC
:1037200061628889873608F070618B81382F330F8A
:10373000330F20E04A81942F9295990F990F907C36
:1037400080E0282B392B262B372B3293229332966D
:10375000F7FC15C03397F082D6011796FC93EE93D1
:1037600016970E94F11BF60112830183C60162E0E5
:1037700070E041E00E940611882381F013C09E850D
:10378000D801ED91FC9180E18083918385EE828365
:1037900087E896E0B8010E94720C14C081E0809323
:1037A000850610C09E85D801ED91FC9180E1808353
:1037B000918381EE828387E896E0B8010E94720CC3
:1037C0000E94161C62960FB6F894DEBF0FBECDBFE6
:1037D000CF91DF911F910F91FF90EF90DF90CF90ED
:1037E000089580918606813051F40E94D014853866
:1037F00031F081E090E00E948D07109286060895D6
:1038000080918606882389F480E090E00E948D07ED
:1038100080E00E94E214882321F481E080938606F0
:10382000089581E090E00E948D070895809134060C
:10383000882331F480914D06882311F40E94001CE6
:1038400008951F93182F10928506109284061092E7
:103850008606109246061092470610923F06109276
:1038600033068FEF809336068093370680933806B1
:103870008093390680933A0680933B0680933C06FA
:1038800080933D0610924D0688E00E940415112396
:1038900051F180E098E7909354068093530610927C
:1038A0003E0681E08093400686E0809335061092C4
:1038B000550610925606109257061092580610920E
:1038C000590610925A0610925B0610925C068FEF12
:1038D0009FEF90934C0680934B060E94EC258093BB
:1038E0004806109234061F9108950F931F93CF93AB
:1038F000DF93EC01088119810E94F11BF80101811D
:1039000080E090E00E948D0780E0011181E00E943C
:10391000AF13182F81E090E00E948D07802F0E9446
:10392000211C0E94161C81E496E00E94130D8EE477
:1039300096E00E94130D87E896E00E94130DE8813F
:10394000F981118380E2808387E896E0BE010E94BE
:10395000720CDF91CF911F910F910895DF93CF9358
:1039600000D000D0CDB7DEB70E94F11B8FEF9FEFE4
:103970009A8389839C838B8383E5BE016F5F7F4F2E
:103980000E94071D80E5BE016D5F7F4F0E94071DED
:1039900081E00E94211C0E94161C0F900F900F9036
:1039A0000F90CF91DF9108950E94D413882399F44A
:1039B0000E94C10B882379F081E00E94211C0E94A3
:1039C000161C81E496E00E946B0C8EE496E00E9447
:1039D0006B0C80E0089585E80895E82F883030F476
:1039E000E82FF0E0E858FE4F84910895805480322B
:1039F00028F4F0E0E05CFE4F84910895E03F10F47D
:103A000080E00895F0E0E055FF4F849108951F9302
:103A1000CF93DF93182FEB0180918606813051F40C
:103A20000E94F11B812FBE010E942512182F0E94B7
:103A3000161C04C0812F0E942512182F812FDF91A0
:103A4000CF911F910895FF920F931F93CF93DF9310
:103A5000182FEB01F42E8C3409F46AC08D34F0F485
:103A6000833409F479C0843460F4853038F48230CA
:103A700008F072C0882309F46FC02AC0823441F56F
:103A800029C0873409F468C0883418F4843401F5F7
:103A90002AC08A3469F18B34D9F443C0853558F48F
:103AA000833508F059C08E3498F0813508F454C03D
:103AB000823571F441C0893509F44EC08A3518F455
:103AC000873531F449C08A3539F0803F09F444C064
:103AD00004EF55C008EE53C0888199819093540635
:103AE0008093530603C088818093350600E047C069
:103AF0008881809355068981809356068A818093B8
:103B000057068B81809358068C81809359068D814E
:103B100080935A068E8180935B068F8180935C062A
:103B2000E5CF8881998190934C0680934B06DECF38
:103B3000888180934806DACF6881611161E06093E3
:103B40003406662331F00E94F11B86E00E940415C2
:103B5000CDCF0E94161CCACF812FBE010E94251214
:103B6000082F813861F40E94D014812FBE010E9479
:103B70002512082F882319F481E08093E105FF20A6
:103B800049F08091E105882329F080E00E94E21449
:103B90001092E105802FDF91CF911F910F91FF903F
:103BA0000895EF92FF920F931F937C01FC01008117
:103BB0001181B8016E5F7F4FF801818141E00E9461
:103BC000231DF801918192839FE19083818387E88F
:103BD00096E0B7010E94720C1F910F91FF90EF9039
:103BE0000895CF93DF93AC01DC01ED91FC919F012F
:103BF0002D5F3F4F81818B3409F472C08C3410F5F6
:103C0000843009F453C0853060F4813009F491C0E8
:103C1000813008F48BC0823009F498C08330B1F54C
:103C200098C0873009F44DC0883030F4853009F4ED
:103C300040C0863059F542C0823409F445C08A3408
:103C400029F545C0833509F461C0843588F48F3483
:103C500009F451C0803530F48C3409F446C08E34F8
:103C6000A9F446C0803509F449C0823579F44BC0C7
:103C70008A35A1F08B3528F4873551F0893531F438
:103C80000AC08D3581F0803F09F447C094EF65C0CC
:103C90008091230660C0809127065DC08091530605
:103CA0009091540637C080913E0655C0809113060E
:103CB00052C080911106909112062CC080912A0664
:103CC0004AC08091200647C08091400644C0E90167
:103CD000A5E5B6E088E00D9009928150E1F73CC07F
:103CE00080914B0690914C0615C08091480633C0D8
:103CF00080911F0630C0809126062DC08091140649
:103D00009091150607C08091340625C08091170652
:103D100090911806948383831FC0E901A9E0B6E05F
:103D200088E00D9009928150E1F716C0809121063C
:103D300012C080912E0690912F06A0913006B0916E
:103D4000310683839483A583B68306C080910806D9
:103D500002C080911606838390E0818182838EE188
:103D60008083918387E896E0BA010E94720CDF910C
:103D7000CF910895282FFB011092850680818D3008
:103D800031F481819281622F43810E94D31A0E9473
:103D9000161C0895EF92FF920F931F9310924D06F9
:103DA000809134068823C9F4809186068823A9F47B
:103DB00088E00E940415883071F080E040E850E00F
:103DC00060E070E020E030E00AEC1EE1EE24FF2429
:103DD0000E94020A02C00E94161C1F910F91FF90C0
:103DE000EF900895DF92EF92FF920F931F93CF937E
:103DF000DF93EC01E881F981E680F7800085118589
:103E0000E114F1040105110539F480E090E00E940D
:103E1000CA1EE881F98147C080913F068823F1F5E9
:103E2000809146068823D1F50E94F11B86E00E940E
:103E30000415D82E81E080934D0680E00E94F107A2
:103E4000882319F080E00E94F60884E0EE0CFF1C45
:103E5000001F111F8A95D1F780E0B801A70120E06B
:103E600030E00AEC1EE1EE24FF240E94020A8823BF
:103E700081F0E881F98181E2808388EE818387E89F
:103E800096E0BE010E94720C80E090E00E94CA1E83
:103E900012C0E881F98186E0D81629F081E280839A
:103EA00082EF818303C081E28083118287E896E0FC
:103EB000BE010E94720CDF91CF911F910F91FF9074
:103EC000EF90DF9008957F928F929F92AF92BF9272
:103ED000CF92DF92EF92FF920F931F93782E6A0199
:103EE0007B01480159018AE90E94450CDC010097D9
:103EF00011F480E014C0ED91FC9111978AE0808369
:103F00007182C282D382E482F58286829782A08601
:103F1000B18681E496E0BD010E94720C81E01F91A0
:103F20000F91FF90EF90DF90CF90BF90AF909F9058
:103F30008F907F9008951F93182F8AE90E94450C57
:103F4000DC01009711F480E00CC0ED91FC91119719
:103F500088E08083118381E496E0BD010E94720CA9
:103F600081E01F9108951F93182F8AE90E94450C44
:103F7000DC01009711F480E00CC0ED91FC911197E9
:103F800089E08083118381E496E0BD010E94720C78
:103F900081E01F910895FF920F931F93CF93DF93BA
:103FA000182F062FF72E8AE90E94450CEC01009786
:103FB00011F480E016C0812F0E94ED1C482FE8818B
:103FC000F98186E0808311833296CF01602F7F2DA7
:103FD00050E00E94FC2581E496E0BE010E94720C34
:103FE00081E0DF91CF911F910F91FF900895AF92E3
:103FF000BF92CF92DF92EF92FF920F931F93CF93D6
:10400000DF93D82EEB01F42EB22EA32EC02E86E71E
:10401000841708F445C08AE90E94450C8C0100977A
:1040200009F43EC0DC01ED91FC9183E08083D182F4
:104030002881228389819A8194838383CF01059685
:10404000AE014D5F5F4F223069F4158216821782F0
:10405000108611861286138614868B819C81968326
:10406000858307C0EC01DA0188E00D900992815048
:10407000E1F7C586E686F78628E930E02F19310991
:104080002E0F3F1FC9016B2D7A2D4F2D50E00E943E
:10409000FC2581E496E0B8010E94720C81E001C029
:1040A00080E0DF91CF911F910F91FF90EF90DF9013
:1040B000CF90BF90AF9008951F930E94F019182FD2
:1040C00087E896E060E070E00E94070D009719F025
:1040D0000E94D91911E00E948B0F0E943207812F94
:1040E0001F91089587E896E00E946B0C0E94D41CF3
:1040F00008950895A0E0B0E0E0E8F0E20C945A25BD
:10410000DC012B01FA019C91923008F439C1EB01DA
:104110008881823008F433C1943069F4843009F026
:104120002FC111969C9111978981981709F428C184
:10413000AEE1B2E025C1843009F421C18230A9F496
:10414000923009F01DC19A01AD0188E0EA010990A1
:10415000AE01E90109929E018150C1F7E201898116
:1041600011969C918923818308C1923009F407C17B
:1041700012962D903C901397EB018A819B811496A7
:10418000AD90BD90CD90DC901797EC80FD800E81B6
:104190001F819101281B390BB90137FF04C0662725
:1041A0007727621B730B603271050CF061C0121629
:1041B00013066CF537014801062E04C096948794C7
:1041C000779467940A94D2F721E030E040E050E021
:1041D00004C0220F331F441F551F6A95D2F7215088
:1041E0003040404050402E213F2140235123211593
:1041F00031054105510521F021E030E040E050E07B
:1042000079018A01E628F728082919293CC0232BBF
:10421000D1F1260E371E35014601062E04C09694B4
:104220008794779467940A94D2F721E030E040E0D5
:1042300050E004C0220F331F441F551F6A95D2F768
:1042400021503040404050402A213B214C215D21EB
:10425000211531054105510521F021E030E040E014
:1042600050E059016A01A628B728C828D9280BC0F0
:10427000821593052CF01C01AA24BB24650103C000
:10428000EE24FF24870111969C91D20111968C9106
:10429000981709F445C0992339F0A80197012A1904
:1042A0003B094C095D0906C0A60195012E193F097D
:1042B000400B510B57FD08C01182338222822483A8
:1042C0003583468357831DC081E0818333822282F8
:1042D00088279927DC01821B930BA40BB50B8483E1
:1042E0009583A683B7830DC0220F331F441F551F2C
:1042F00024833583468357838281938101979383F7
:1043000082832481358146815781DA01C901019771
:10431000A109B1098F5F9F4FAF4FBF4328F30BC077
:10432000918333822282EA0CFB1C0C1D1D1DE4824A
:10433000F5820683178383E080832481358146815B
:10434000578157FF1AC0C901AA2797FDA095BA2F18
:1043500081709070A070B0705695479537952795ED
:10436000822B932BA42BB52B84839583A683B783B1
:1043700082819381019693838283DF0101C0D20100
:10438000CD01CDB7DEB7E2E10C947625A0E2B0E036
:10439000ECECF1E20C94662569837A838B839C8331
:1043A0002D833E834F835887E9E0EE2EF12CEC0EEF
:1043B000FD1ECE010196B7010E94BB248E010F5E47
:1043C0001F4FCE010596B8010E94BB248A8991E057
:1043D00089278A8BC701B801AE01475E5F4F0E94F3
:1043E0007A200E94E623A096E6E00C948225A0E2C3
:1043F000B0E0EDEFF1E20C94662569837A838B835C
:104400009C832D833E834F835887F9E0EF2EF12C58
:10441000EC0EFD1ECE010196B7010E94BB248E0159
:104420000F5E1F4FCE010596B8010E94BB24C70145
:10443000B801AE01475E5F4F0E947A200E94E623DA
:10444000A096E6E00C948225A0E2B0E0EAE2F2E277
:104450000C945A2569837A838B839C832D833E83B6
:104460004F835887CE010196BE01675F7F4F0E9440
:10447000BB24CE010596BE016F5E7F4F0E94BB2418
:104480009985923088F089898230C8F0943019F487
:10449000823051F404C0843029F4923081F48EE1EA
:1044A00092E0C6C0923049F420E09A858A89981338
:1044B00021E02A87CE010996BBC0823049F420E072
:1044C0009A858A89981321E02A8BCE014196B0C043
:1044D0002D843E844F8458886D887E888F88988C80
:1044E000EE24FF248701AA24BB24650140E050E0AC
:1044F00060E070E0E0E0F0E0C10181709070892B35
:10450000E9F0E60CF71C081D191D9A01AB012A0DF4
:104510003B1D4C1D5D1D80E090E0A0E0B0E0E61486
:10452000F7040805190520F481E090E0A0E0B0E070
:10453000BA01A901480F591F6A1F7B1FAA0CBB1C97
:10454000CC1CDD1C97FE08C081E090E0A0E0B0E04C
:10455000A82AB92ACA2ADB2A3196E032F10549F0A5
:10456000660C771C881C991C5694479437942794A2
:10457000C3CFFA85EA892B893C898B859C85280FD6
:10458000391F2E5F3F4F17C0CA0181709070892B71
:1045900061F016950795F794E79480E090E0A0E02D
:1045A000B0E8E82AF92A0A2B1B2B769567955795D0
:1045B00047952F5F3F4F77FDE7CF0CC0440F551F46
:1045C000661F771F17FD4160EE0CFF1C001F111FB7
:1045D00021503040403090E0590790E0690790E466
:1045E000790760F32B8F3C8FDB01CA018F779070C6
:1045F000A070B07080349105A105B10561F447FD4C
:104600000AC0E114F1040105110529F0405C5F4F77
:104610006F4F7F4F40781A8EFE1711F081E08A8F1E
:104620004D8F5E8F6F8F78A383E0898FCE0149967F
:104630000E94E623A096E2E10C947625A8E0B0E083
:10464000E4E2F3E20C9462257B018C0161157105B3
:104650008105910519F482E0898360C083E0898334
:104660008EE1C82ED12CDC82CB82ED82FE820F83BC
:104670001887C801B7010E949723FC013197F7FF03
:104680003BC0222733272E1B3F0B57016801022E08
:1046900004C0D694C794B794A7940A94D2F740E084
:1046A00050E060E070E081E090E0A0E0B0E004C0A5
:1046B000880F991FAA1FBB1F2A95D2F70197A1093E
:1046C000B1098E219F21A023B1230097A105B10537
:1046D00021F041E050E060E070E04A295B296C295C
:1046E0007D294D835E836F8378878EE190E08E1BFA
:1046F0009F0B9C838B8312C0309781F00E2E04C0D9
:10470000EE0CFF1C001F111F0A94D2F7ED82FE82EF
:104710000F831887CE1ADF0ADC82CB821A82CE0181
:1047200001960E94E6232896EAE00C947E25EF92FB
:10473000FF920F931F937B018C0180E0E81680E0CD
:10474000F80681E0080780E0180788F48FEFE81684
:10475000F1040105110531F028F088E090E0A0E0B7
:10476000B0E017C080E090E0A0E0B0E012C080E0D0
:10477000E81680E0F80680E0080781E0180728F0D6
:1047800088E190E0A0E0B0E004C080E190E0A0E02B
:10479000B0E020E230E040E050E0281B390B4A0B4B
:1047A0005B0B04C016950795F794E7948A95D2F7AA
:1047B000F701EA5DFD4F8081281B3109410951094C
:1047C000C9011F910F91FF90EF900895DF92EF9232
:1047D000FF920F931F93FC01E480F58006811781FF
:1047E000D1808081823048F480E090E0A0E1B0E0A8
:1047F000E82AF92A0A2B1B2BA5C0843009F49FC094
:10480000823021F4EE24FF24870105C0E114F10475
:104810000105110519F4E0E0F0E096C062817381B2
:104820009FEF623879070CF05BC022E83FEF261B50
:10483000370B2A3131052CF020E030E040E050E029
:104840002AC0B801A701022E04C076956795579536
:1048500047950A94D2F781E090E0A0E0B0E004C070
:10486000880F991FAA1FBB1F2A95D2F70197A1098C
:10487000B1098E219F21A023B1230097A105B10585
:1048800021F081E090E0A0E0B0E09A01AB01282B9C
:10489000392B4A2B5B2BDA01C9018F779070A070FE
:1048A000B07080349105A105B10539F427FF09C026
:1048B000205C3F4F4F4F5F4F04C0215C3F4F4F4F35
:1048C0005F4FE0E0F0E02030A0E03A07A0E04A07C8
:1048D000A0E45A0710F0E1E0F0E079018A0127C076
:1048E0006038710564F5FB01E158FF4FD801C7013D
:1048F0008F779070A070B07080349105A105B105DC
:1049000039F4E7FE0DC080E490E0A0E0B0E004C020
:104910008FE390E0A0E0B0E0E80EF91E0A1F1B1F35
:1049200017FF05C016950795F794E794319687E031
:1049300016950795F794E7948A95D1F705C0EE246C
:10494000FF248701EFEFF0E06E2F679566276795EC
:10495000902F9F77D794DD24D7948E2F8695492F5B
:10496000462B582F5D29B701CA011F910F91FF9067
:10497000EF90DF900895FC01DB014081518122819D
:10498000622F6F7770E0221F2227221F9381892FC9
:10499000880F822B282F30E0991F9927991F119695
:1049A0009C93119721153105A9F541155105610514
:1049B000710511F482E037C082E89FEF13969C9353
:1049C0008E9312979A01AB0167E0220F331F441FA9
:1049D000551F6A95D1F783E08C930DC0220F331FCA
:1049E000441F551F12968D919C9113970197139612
:1049F0009C938E931297203080E0380780E0480720
:104A000080E4580758F314962D933D934D935C938F
:104A1000179708952F3F310579F441155105610528
:104A2000710519F484E08C93089564FF03C081E05C
:104A30008C9312C01C9210C02F57304013963C9399
:104A40002E93129783E08C9387E0440F551F661FC7
:104A5000771F8A95D1F7706414964D935D936D938B
:104A60007C9317970895AA1BBB1B51E107C0AA1F8F
:104A7000BB1FA617B70710F0A61BB70B881F991FFF
:104A80005A95A9F780959095BC01CD01089597FBA3
:104A9000092E07260AD077FD04D0E5DF06D00020D6
:104AA0001AF4709561957F4F0895F6F7909581956A
:104AB0009F4F08952F923F924F925F926F927F92F5
:104AC0008F929F92AF92BF92CF92DF92EF92FF921E
:104AD0000F931F93CF93DF93CDB7DEB7CA1BDB0BCA
:104AE0000FB6F894DEBF0FBECDBF09942A8839886F
:104AF00048885F846E847D848C849B84AA84B98476
:104B0000C884DF80EE80FD800C811B81AA81B98181
:104B1000CE0FD11D0FB6F894DEBF0FBECDBFED0195
:104B20000895AF92BF92CF92DF92EF92FF920F93D0
:104B30001F93CF93DF93EC01A880B980CA80DB80FC
:104B4000A114B104C104D10441F484E2A82E89ED7A
:104B5000B82E8BE5C82E87E0D82EC601B5012DE111
:104B600033EF41E050E00E94972A27EA31E440E029
:104B700050E00E94782A7B018C01C601B5012DE12D
:104B800033EF41E050E00E94972ACA01B9012CEEB0
:104B900034EF4FEF5FEF0E94782A6E0D7F1D801F6C
:104BA000911F97FF04C06150704080409048688317
:104BB00079838A839B839B013F77C901DF91CF91E2
:104BC0001F910F91FF90EF90DF90CF90BF90AF902B
:104BD00008950E949125089586E293E00E94912510
:104BE0000895A0E0B0E08093260390932703A0935C
:104BF0002803B09329030895FB01DC0102C0019052
:104C00000D9241505040D8F708950F931F93CF93C2
:104C1000DF938C01EB01009731F46115710519F4F4
:104C200020E030E038C081E090E06EE070E00E946B
:104C3000B028FC019C01009771F180E883832097E4
:104C400071F0D387C28781E8838380918C0690912D
:104C50008D06892B21F4F0938D06E0938C060115C7
:104C60001105C9F011870087838182608383809159
:104C70008E0690918F06892B71F4F0938F06E09346
:104C80008E068091900690919106892B21F4F093E5
:104C90009106E0939006C901DF91CF911F910F918A
:104CA0000895DF93CF93CDB7DEB7FE0135966191BE
:104CB000719180918E0690918F06AF010E9494268B
:104CC000CF91DF9108950F931F93DF93CF93CDB7CB
:104CD000DEB72E970FB6F894DEBF0FBECDBF0D899D
:104CE0001E8986E08C831A8309838FEF9FE79E835A
:104CF0008D839E01275E3F4FCE0101966F89788D8F
:104D0000A9010E9494262F813885020F131FF801F4
:104D100010822E960FB6F894DEBF0FBECDBFCF9196
:104D2000DF911F910F9108952F923F924F925F92C2
:104D30006F927F928F929F92AF92BF92CF92DF92AB
:104D4000EF92FF920F931F93DF93CF93CDB7DEB710
:104D50002B970FB6F894DEBF0FBECDBF3C012B01E1
:104D60005A01FC0117821682838181FD03C06FEF17
:104D70007FEFC6C19AE0892E1E010894211C311CC8
:104D8000F3012381F20123FD859123FF81912F01FE
:104D9000882309F4B2C1853239F423FD859123FFBC
:104DA00081912F01853229F490E0B3010E94EE2910
:104DB000E7CF982FFF24EE249924FFE1FF15D0F0D0
:104DC0009B3269F09C3228F4903259F0933291F47E
:104DD0000EC09D3249F0903369F441E024C052E0A6
:104DE000F52A84E0F82A28C098E0F92A25C0E0E1F5
:104DF000FE2A22C0F7FC29C0892F80538A3070F424
:104E0000F6FE05C0989C902C1124980E15C0E89CC5
:104E1000E02C1124E80EF0E2FF2A0EC09E3229F4A5
:104E2000F6FC6BC140E4F42A07C09C3619F450E844
:104E3000F52A02C0983649F4F20123FD959123FF2B
:104E400091912F01992309F0B8CF892F8554833090
:104E500018F08052833038F444E050E0A40EB51EC0
:104E60005FE359830FC0933631F0933779F0933570
:104E700009F056C020C0F5018081898342E050E0EE
:104E8000A40EB51E610101E010E012C0F501C08062
:104E9000D180F6FC03C06FEF7FEF02C0692D70E098
:104EA00042E050E0A40EB51EC6010E94E3298C0129
:104EB0005FE7F52214C0F501C080D180F6FC03C085
:104EC0006FEF7FEF02C0692D70E042E050E0A40E6A
:104ED000B51EC6010E94D1298C0150E8F52AF3FEC7
:104EE00007C01AC080E290E0B3010E94EE29EA9464
:104EF0008E2D90E008171907A8F30EC0F601F7FCF5
:104F00008591F7FE81916F0190E0B3010E94EE2937
:104F1000E110EA94015010400115110579F7EAC03B
:104F2000943611F0993669F5F7FE08C0F501208135
:104F300031814281538184E090E00AC0F501808193
:104F400091819C01442737FD4095542F82E090E0E9
:104F5000A80EB91E9FE6F92257FF09C0509540954B
:104F6000309521953F4F4F4F5F4FE0E8FE2ACA0131
:104F7000B901A1012AE030E00E941A2AD82ED218E5
:104F800040C0953729F41F2D1F7E2AE030E01DC058
:104F90001F2D197F9F3661F0903720F4983509F066
:104FA000ACC00FC0903739F0983709F0A6C004C0E4
:104FB00028E030E00AC0106114FD146020E130E008
:104FC00004C014FD166020E132E017FF08C0F501AF
:104FD000608171818281938144E050E008C0F501D5
:104FE00080819181BC0180E090E042E050E0A40E1D
:104FF000B51EA1010E941A2AD82ED2188FE7F82ECA
:10500000F122F6FE0BC05EEFF522D91438F4F4FE5F
:1050100007C0F2FC05C08FEEF82202C01D2D01C0B2
:10502000192DF4FE0DC0FE01ED0DF11D80818033C0
:1050300019F499EEF92208C01F5FF2FE05C003C003
:105040008F2D867809F01F5F0F2DF3FC14C0F0FE42
:105050000FC01E1510F09D2C0BC09D2C9E0C911A9C
:105060001E2D06C080E290E0B3010E94EE291F5F72
:105070001E15C0F304C01E1510F4E11A01C0EE2481
:1050800004FF0FC080E390E0B3010E94EE2902FF0D
:105090001DC001FD03C088E790E00EC088E590E0E8
:1050A0000BC0802F867891F001FF02C08BE201C017
:1050B00080E2F7FC8DE290E0B3010E94EE2906C089
:1050C00080E390E0B3010E94EE299A94D914C0F3D2
:1050D000DA94F101ED0DF11D808190E0B3010E94A1
:1050E000EE29DD20A9F706C080E290E0B3010E941E
:1050F000EE29EA94EE20C1F743CEF3016681778171
:10510000CB012B960FB6F894DEBF0FBECDBFCF916B
:10511000DF911F910F91FF90EF90DF90CF90BF90A4
:10512000AF909F908F907F906F905F904F903F9047
:105130002F900895F999FECF92BD81BDF89A9927D5
:1051400080B50895262FF999FECF1FBA92BD81BD73
:1051500020BD0FB6F894FA9AF99A0FBE01960895F9
:105160000F931F93CF93DF93689F8001699F100D6A
:10517000789F100D1124C8010E94CC28EC010097E3
:1051800029F060E070E0A8010E94DC29CE01DF91E7
:10519000CF911F910F910895CF93DF93BC0182307F
:1051A000910510F462E070E0A0919406B09195062C
:1051B000ED01E0E0F0E040E050E021C0888199811D
:1051C0008617970769F48A819B81309719F093833A
:1051D000828304C09093950680939406FE0134C0A8
:1051E0006817790738F44115510519F084179507A8
:1051F00008F4AC01FE018A819B819C01E9012097A2
:10520000E9F641155105A9F1CA01861B970B0497D0
:1052100008F4BA01E0E0F0E02AC08D919C9111976A
:1052200084179507F9F46417750781F412968D9128
:105230009C911397309719F09383828304C09093C5
:10524000950680939406FD0132964FC0CA01861BD5
:10525000970BFD01E80FF91F6193719302978D93EE
:105260009C9343C0FD01828193819C01D9011097D9
:10527000A1F68091920690919306892B41F480913A
:105280002C0390912D039093930680939206409166
:105290002E0350912F034115510541F44DB75EB7D0
:1052A00080912A0390912B03481B590B2091920661
:1052B0003091930624173507B0F4CA01821B930B73
:1052C0008617970780F0AB014E5F5F4F84179507F5
:1052D00050F0420F531F5093930640939206F901EA
:1052E0006193719302C0E0E0F0E0CF01DF91CF91D4
:1052F0000895CF93DF93009709F450C0EC012297F3
:105300001B821A82A0919406B0919506109709F11C
:1053100040E050E0AC17BD0708F1BB83AA83FE0153
:1053200021913191E20FF31FAE17BF0779F48D91F0
:105330009C911197280F391F2E5F3F4F3983288387
:1053400012968D919C9113979B838A8341155105E9
:1053500071F4D0939506C093940620C012968D9157
:105360009C911397AD01009711F0DC01D3CFFA01A6
:10537000D383C28321913191E20FF31FCE17DF0750
:1053800069F488819981280F391F2E5F3F4FFA01F8
:10539000318320838A819B8193838283DF91CF91A4
:1053A0000895FC010590615070400110D8F7809578
:1053B00090958E0F9F1F0895DC0101C06D934150A1
:1053C0005040E0F70895FC016150704001900110D9
:1053D000D8F7809590958E0F9F1F08950F931F9378
:1053E000CF93DF938C01EB018B8181FF1BC082FF88
:1053F0000DC02E813F818C819D812817390764F46F
:10540000E881F9810193F983E88306C0E885F9858D
:10541000802F0995892B31F48E819F8101969F837E
:105420008E8302C00FEF1FEFC801DF91CF911F9154
:105430000F910895FA01AA27283051F1203181F106
:10544000E8946F936E7F6E5F7F4F8F4F9F4FAF4F8C
:10545000B1E03ED0B4E03CD0670F781F891F9A1F9F
:10546000A11D680F791F8A1F911DA11D6A0F711D53
:10547000811D911DA11D20D009F468943F912AE05F
:10548000269F11243019305D3193DEF6CF01089547
:10549000462F4770405D4193B3E00FD0C9F7F6CF78
:1054A000462F4F70405D4A3318F0495D31FD405240
:1054B000419302D0A9F7EACFB4E0A69597958795D6
:1054C00077956795BA95C9F70097610571050895B5
:1054D0009B01AC010A2E0694579547953795279561
:1054E000BA95C9F7620F731F841F951FA01D0895F9
:1054F000629FD001739FF001829FE00DF11D649FB8
:10550000E00DF11D929FF00D839FF00D749FF00D43
:10551000659FF00D9927729FB00DE11DF91F639FE4
:10552000B00DE11DF91FBD01CF011124089597FBB6
:10553000092E05260ED057FD04D014D00AD0001C29
:1055400038F450954095309521953F4F4F4F5F4F20
:105550000895F6F790958095709561957F4F8F4FE0
:105560009F4F0895A1E21A2EAA1BBB1BFD010DC07F
:10557000AA1FBB1FEE1FFF1FA217B307E407F50703
:1055800020F0A21BB30BE40BF50B661F771F881FDF
:10559000991F1A9469F760957095809590959B0175
:0C55A000AC01BD01CF010895F894FFCFCD
:1055AC0066726F6D20307800252E325820003A201C
:1055BC00566363203D202575206D560D0A000000B2
:1055CC0000000000000000010202030303030404B6
:1055DC000404040404040505050505050505050575
:1055EC000505050505050606060606060606060655
:1055FC00060606060606060606060606060606063F
:10560C000606060606060707070707070707070724
:10561C00070707070707070707070707070707070E
:10562C0007070707070707070707070707070707FE
:10563C0007070707070707070707070707070707EE
:10564C0007070707070708080808080808080808D4
:10565C0008080808080808080808080808080808BE
:10566C0008080808080808080808080808080808AE
:10567C00080808080808080808080808080808089E
:10568C00080808080808080808080808080808088E
:10569C00080808080808080808080808080808087E
:1056AC00080808080808080808080808080808086E
:1056BC00080808080808080808080808080808085E
:1056CC0008080808080801000000200096060000E1
:00000001FF
