:100000000C946E000C9473050C948D000C948D0070
:100010000C948D000C948D000C948D000C948D002C
:100020000C948D000C948D000C948D000C948D001C
:100030000C948D000C948D000C948D000C948D000C
:100040000C949E050C944B090C948D000C948D001F
:100050000C941A090C948D000C948D000C948D0056
:100060000C948D000C948D000C948D000C948D00DC
:100070000C948D000C948D000C948D000C948D00CC
:100080000C948D000C948D000C948D000C948D00BC
:100090000C948D000C948D000C948D000C948D00AC
:1000A0000C948D000C948D000C948D000C948D009C
:1000B0000C948D000C948D000C948D000C948D008C
:1000C0000C948D000C948D000C948D0003020201A1
:1000D000010000FFFEFDFCFBF9F7F4EF11241FBE49
:1000E000CFEFD1E2DEBFCDBF13E0A0E0B2E0E6EC9F
:1000F000FCE300E00BBF02C007900D92AE33B107E6
:10010000D9F716E0AEE3B3E001C01D92AA3AB107F9
:10011000E1F70E9417020C94611E0C9400001092EB
:100120003F030895CF93DF93CAE0D0E00AC08FEF7A
:100130009FEF0E94670680E090E062E070E00E941E
:10014000810A21978FEFCF3FD80789F7809110035D
:10015000882329F080E090E060E070E004C080E057
:1001600090E061E070E00E94810ADF91CF910895F4
:10017000882391F480911003882319F080E092E0A5
:1001800002C08BE192E00E94C21981E090E062E03F
:1001900070E00E94810A02C00E94920010923E0309
:1001A00008954F925F926F927F928F929F92AF923B
:1001B000BF92CF92EF920F931F93DF93CF93CDB760
:1001C000DEB7CF5FD0400FB6F894DEBF0FBECDBF15
:1001D0002C01DC0116966D907C901797F301C0807E
:1001E000F5EFCF0E8301065F1F4F80911003882328
:1001F00009F4C3C000D089E392E0ADB7BEB7129650
:100200009C938E9311970E94A9190F900F90B3E2BF
:10021000CB1621F4F30182858E3229F00E949200E0
:1002200087E492E0BFC0ACE0B4E0F3013F9688E021
:1002300001900D928150E1F78EE28093180488249A
:100240009924540144E064E070E04150242F30E0F0
:10025000FB01E21BF30BE00FF11F808190E0F3E064
:10026000220F331FFA95E1F702C0880F991F2A95D4
:10027000E2F7AA2797FDA095BA2F882A992AAA2AD9
:10028000BB2A442311F7F80181819281A381B481B3
:100290008093140490931504A0931604B09317044C
:1002A0004091110350911203C8016BE074E02EE0FD
:1002B0000DE0E6E0EE2E38E0C32E0E94EE0D88231E
:1002C00049F500D089E692E0ADB7BEB712969C938F
:1002D0008E9311970E94A91983010F900F908DE0C2
:1002E000A82EB12CA60CB71CF801808D60E070E040
:1002F0000E94FC030F5F1F4F0A151B05A9F78AE038
:1003000090E00E94BB1981E090E062E070E00E9402
:10031000810A2EC00E9492008DB79EB708970FB633
:10032000F8949EBF0FBE8DBFEDB7FEB731968E011C
:100330000F5F1F4FADB7BEB712961C930E93119768
:1003400082E892E09383828384829582A682B78238
:100350000E94F719EDB7FEB736960FB6F894FEBFB8
:100360000FBEEDBF128301830E94A9190F900F9059
:1003700010921203109211033DC000D088E992E060
:10038000ADB7BEB712969C938E9311970E94A91990
:100390000F900F90F30182858E3239F40E94920003
:1003A00087EA92E00E94C21925C000D086EC92E054
:1003B000ADB7BEB712969C938E9311970E94A91960
:1003C0008301EE240F900F9007C0F801818560E053
:1003D00070E00E94FC03E3940F5F1F4FEC14A8F33E
:1003E0008AE090E00E94BB1981E090E062E070E05A
:1003F0000E94810AD20111968D919C9112970E94C0
:10040000EC0BC150DF4F0FB6F894DEBF0FBECDBF6F
:10041000CF91DF911F910F91EF90CF90BF90AF9050
:100420009F908F907F906F905F904F9008952F9244
:100430003F924F925F926F927F928F929F92AF9274
:10044000BF92CF92DF92EF92FF920F931F93DF93B1
:10045000CF9300D00F92CDB7DEB70E94E21688236B
:1004600011F00E94A8050E94730A80E090E060E00D
:1004700070E00E94810A80E090E061E070E00E94FC
:10048000810A81E090E061E070E00E94810A789446
:1004900082E00E945F05882311F00E94A8058CEF7E
:1004A00093E060EE73E00E945D190E94CC0A80E048
:1004B00090E00E94D50A892B11F4109210038091CC
:1004C0001003882349F080E090E060E070E00E9433
:1004D000810A85ED92E002C082EF92E00E94C2198B
:1004E0000E94FF0E8AEB9BEA9B838A838E010E5F3C
:1004F0001F4F80E5B8010E94091581E090E09B83C1
:100500008A8383E5B8010E94091584E1898380E02C
:10051000BE016F5F7F4F0E9409150E9430198093C2
:100520001B0484E493E09093DF038093DE0386E072
:100530000E94211810EE812E13E0912EB1E0AB2E17
:10054000B12CA8E02A2E312CFCE04F2E512CE4E0F7
:100550006E2E712C0E9427060E94161280913E0377
:100560008823C1F780913F038823A1F7809113036B
:1005700090911403019709F0FBC080E090E00E9485
:10058000D50A892B39F780911003882309F492C08A
:10059000AEEEB3E0E5E1F3E08DE001900D92815025
:1005A000E1F7EBE0F4E070E1C72E1192CA94E9F7AD
:1005B00068E0C62ECA940C2D10E07101E01AF10A11
:1005C0008BE094E0E80EF91E53E0000F111F5A95DE
:1005D000E1F72091770630917806409179065091A5
:1005E0007A0660917B0670917C0680917D069091E1
:1005F0007E060E944218F7012083CC20D9F6FEE245
:10060000F0931804F093E003A5EEB3E0ECE0F4E01F
:1006100088E001900D928150E1F71092ED0314E013
:100620001150212F30E0C90143E0880F991F4A95EE
:10063000E1F7F201E21BF30BE55FFB4F4091400352
:100640005091410360914203709143036A017B0121
:1006500004C0F694E794D794C7948A95D2F7C082E1
:10066000F301E21BF30BE052FC4FC0821123C1F6F1
:100670004F5F5F4F6F4F7F4F409340035093410355
:10068000609342037093430340911103509112030E
:1006900080EE93E06BE074E02EE00DE036E0E32EB8
:1006A000CC240E94EE0D109212031092110303E26B
:1006B000F02E0BC0A0EEB3E0E5E1F3E08DE0019099
:1006C0000D928150E1F71DE0F12E4F2D50E088E9A9
:1006D00090E0841B950B0091DE031091DF03080F5F
:1006E000191FC801B40150E00E944D19F801B292DF
:1006F000A292B292A29232978AEB9BEA9183808374
:100700000750104080911B04F80180838F5F809315
:100710001B04B1E6CB2EB8E8DB2ED292C292ABE03E
:10072000DA2EFD0CF2928F01E091DE03F091DF03EF
:1007300017830683CC24C394C0923E03CF0162E0AA
:1007400070E041E00E946713C0923F0380E040E404
:100750005DE063E070E020E030E00FE810E0EE24C0
:10076000FF240E9426081092140310921303F2CE65
:1007700080E090E00E94D50A8130910509F0EACE30
:100780009093140380931303E5CEDF93CF930F92DE
:10079000CDB7DEB70E94270682E0BE016F5F7F4FB4
:1007A00041E00E944D05813019F02FEF3FEF03C06B
:1007B0008981282F30E0C9010F90CF91DF910895F2
:1007C0000F931F93DF93CF930F92CDB7DEB78E01B8
:1007D0000F5F1F4F02C00E94270682E0B80141E070
:1007E0000E944D058823B9F3898190E00F90CF9145
:1007F000DF911F910F9108950F931F93DF93CF9374
:100800000F92CDB7DEB789838A30A9F48DE0898352
:100810008E010F5F1F4F02C00E94270682E0B801C1
:1008200041E00E9456058823B9F38AE0898303C01A
:100830000E94270603C08E010F5F1F4F82E0B801A0
:1008400041E00E945605882399F380E090E00F90E4
:10085000CF91DF911F910F910895E4E7F0E080813F
:100860008068808380E8809375008DB18F738DB927
:100870000895DC0180911C04882311F080E0089524
:1008800090911E0480911D04981710F0875F01C09D
:100890008150891B282F681708F4262F8091210486
:1008A000820F80932104322F0DC0E92FF0E0E95A26
:1008B000F94F8C918083993011F490E001C09F5FD3
:1008C00031501196332389F790931E04822F089597
:1008D000DC0190912204992311F480E008959A306C
:1008E00058F08091200480931F048AE080932204B2
:1008F0006A3020F09AE003C0961708F0962F2091F6
:100900001F0440912204392F0CC0E22FF0E0EF5970
:10091000F94F80818C932F5F2A3009F420E01196E3
:100920003150332391F720931F04491B4093220435
:10093000892F08951F93DF93CF9300D000D0CDB7B8
:10094000DEB76CB167FD18C0809122048A30A0F434
:100950008F5F809322049091200480910022E92FE0
:10096000F0E0EF59F94F8083993019F41092200488
:1009700003C09F5F90932004B0912104BB2309F032
:1009800052C083C061157105B1F4AA2329F020E09B
:1009900030E040E050E0A0E0E92FF0E0E95AF94F04
:1009A000808180930022993011F490E001C09F5F14
:1009B0001150B15048C02093230430932404409335
:1009C000250450932604A0931C0490931D04B09317
:1009D0002104AA2309F059C021153105410551050B
:1009E00029F483E294E00E9446064FC0CE010196AE
:1009F0000E94460689819A81AB81BC8120912304A3
:100A0000309124044091250450912604821B930BBD
:100A1000A40BB50B89589341A040B040B0F181E0E0
:100A200080931C0432C0209123043091240440910F
:100A3000250450912604A0911C0490911D041FEFE1
:100A400070E060747070BB2379F4209323043093BA
:100A500024044093250450932604A0931C049093EF
:100A60001D041092210411C0112309F08BCF209393
:100A70002304309324044093250450932604A09328
:100A80001C0490931D04B09321040F900F900F90BD
:100A90000F90CF91DF911F910895823011F080E087
:100AA0000895CB01642F0E9468040895823011F0EC
:100AB00080E00895CB01642F0E94390408958230AC
:100AC00011F085E808950E942D0480E00895909328
:100AD000280480932704E9E6F0E080818360808326
:100AE00081E08CBB08951F920F920FB60F920BB648
:100AF0000F9211242F933F934F935F936F937F93A4
:100B00008F939F93AF93BF93EF93FF93E09127044D
:100B1000F09128040995FF91EF91BF91AF919F91BA
:100B20008F917F916F915F914F913F912F910F9096
:100B30000BBE0F900FBE0F901F9018951F920F9233
:100B40000FB60F9211240F900FBE0F901F901895A3
:100B50000E94730A8FEF9FEF0E94670680E090E08B
:100B600062E070E00E94810A81E090E062E070E063
:100B70000E94810AEFCFCF92DF92EF92FF920F9304
:100B80001F93CF93DF938C017B016A01CB01800F10
:100B9000911F8150904110F085E816C0C0E0D0E070
:100BA0000FC0C8010E942E1CF601EC0FFD1F6081D2
:100BB000861719F0C8010E94361C0F5F1F4F21963F
:100BC000CE15DF0570F380E0DF91CF911F910F917B
:100BD000FF90EF90DF90CF900895CF92DF92EF9249
:100BE000FF920F931F93CF93DF938B017A016901DB
:100BF0008130910531F4862F642FA9010E94FD09EF
:100C00001DC0892B11F088EE19C0CA01860F971FED
:100C10008150904110F085E811C0C0E0D0E00AC0DA
:100C2000CE01800F911F0E942E1CF601EC0FFD1FBC
:100C300080832196CE15DF0598F380E0DF91CF9178
:100C40001F910F91FF90EF90DF90CF9008950E9439
:100C5000ED070E949A04089580E090E020E80FB626
:100C6000F89420936100809361000FBE0E94E70911
:100C70000E94DE0A0E945E0980E00895892B11F42B
:100C800082E401C087E4809381000895FC012091F3
:100C90006B0630916C06C901A0E0B0E0BC0155279D
:100CA00044278091840090918500A0E0B0E0482B1B
:100CB000592B6A2B7B2B80916B0690916C06281721
:100CC000390729F7408351836283738308954FB7AF
:100CD000F8948630910518F12091840030918500B8
:100CE000280F391F80918400909185008217930707
:100CF00040F4809184009091850082179307C8F397
:100D00000EC0809184009091850028173907C8F3A0
:100D1000809184009091850082179307C8F34FBF9C
:100D2000089520E090E0FC0153E0EE0FFF1F5A957C
:100D3000E1F7E80FF91FE359F94F84819581892B79
:100D400009F021E0822F0895DF92EF92FF920F9336
:100D50001F93DFB6F89480912B048F3F09F453C0A2
:100D600090E0FC01A3E0EE0FFF1FAA95E1F7E80F6A
:100D7000F91FE359F94FE080F1800281138120913E
:100D80006B0630916C06C801AA27BB2728173907C4
:100D900051F4F0928900E092880082E086BB809155
:100DA0006F00826003C080916F008D7F80936F0021
:100DB00060916B0670916C069B0140E050E0809161
:100DC000840090918500A90133272227A0E0B0E09C
:100DD000282B392B4A2B5B2B80916B0690916C064C
:100DE0006817790729F72E193F09400B510B2F5F20
:100DF0003F4F4F4F5F4F2F5F3F4F4F4F5F4718F4AD
:100E000081E080932A04DFBE1F910F91FF90EF9045
:100E1000DF90089580912A04882309F44CC0109231
:100E20002A0430912904332309F445C080912C040D
:100E30008F3F59F480912D048F3F39F480912B041A
:100E400080932D0480932C0412C020912B04809158
:100E50002D0490E0FC0143E0EE0FFF1F4A95E1F7FF
:100E6000E80FF91FE359F94F208720932D04809153
:100E70002B0490E0FC0123E0EE0FFF1F2A95E1F721
:100E8000E80FF91FE359F94F808580932B04809177
:100E90002D0490E0FC01B3E0EE0FFF1FBA95E1F7DF
:100EA000E80FF91FE359F94F8FEF808731503093E6
:100EB00029040E94A40608950F931F93882311F01C
:100EC0008AE883C00FB7F8940E940A07109129049A
:100ED000112309F47DC040912B04242F312F842F3E
:100EE0002223F1F4442339F48091750680932B0476
:100EF0000E94A4060EC090E0FC01A3E0EE0FFF1FCD
:100F0000AA95E1F7E80FF91FE359F94F80917506AB
:100F100080878FEF809375061150109329044AC083
:100F2000822F90E0FC0173E0EE0FFF1F7A95E1F74E
:100F3000E80FF91FE359F94F50853150822F09F41A
:100F400047C0252FCDCF222319F520912D0433231F
:100F500059F4222321F48FEF80932D0402C0809155
:100F6000750680932C0426C0842F90E0FC0163E07A
:100F7000EE0FFF1F6A95E1F7E80FF91FE359F94FEC
:100F80008091750680872223A9F440932D0412C016
:100F9000822F90E0FC0153E0EE0FFF1F5A95E1F71E
:100FA000E80FF91FE359F94F422F20852F3F59F6DB
:100FB00080E005C0109272061092710681E00FBFAA
:100FC000882311F489E801C080E01F910F910895F2
:100FD00030912C04232F432FE9CF1F931FB7F89490
:100FE0000E940A071FBF1FEF25C06FB7F894822F1A
:100FF00090E0FC01B3E0EE0FFF1FBA95E1F7E80FB8
:10100000F91FE359F94F20854481558186819781E5
:10101000108715821482178216822F3F09F43FEF42
:101020006FBF4115510551F030932D0420932C04CE
:10103000FA01099530912D0420912C042F3FA9F637
:1010400030932D0420932C041F9108954F925F92AA
:101050006F927F929F92AF92BF92CF92DF92EF9268
:10106000FF920F931F935A016B01F901882311F02E
:101070008AE8C0C00115110509F4B9C08091710654
:1010800090917206892B11F088E8B4C060916B06CC
:1010900070916C069B0140E050E08091840090913B
:1010A0008500A90133272227A0E0B0E0282B392BA7
:1010B0004A2B5B2B80916B0690916C066817790721
:1010C00029F7309721F0319709F091C011C0D6016E
:1010D000C50180589040A040B04080589F4FAF4F0E
:1010E000BF4708F086C0A20EB31EC41ED51E10C096
:1010F000D601C50180589040A040B040821B930BA0
:10110000A40BB50B80589F4FAF4FBF4708F071C07D
:101110009FB6F8940E940A0730912B043F3F31F0AC
:1011200060912904432F232F50E041C010922B04DB
:101130003093750627C02F3FA9F1822F90E0FC0164
:1011400073E0EE0FFF1F7A95E1F7E80FF91FE359FF
:10115000F94F80819181A281B38125013601481A1E
:10116000590A6A0A7B0AD301C2018F5F9F4FAF4FB2
:10117000BF4710F4808518C020937506321721F4FC
:1011800010922B0491E017C0842F90E0FC0133E013
:10119000EE0FFF1F3A95E1F7E80FF91FE359F94FFA
:1011A000108646C08FEF242F5F5F422F282F5617DF
:1011B00008F4C1CF2DC0A0926D06B0926E06C09209
:1011C0006F06D09270061093720600937106F0922B
:1011D0007406E0927306809129048F5F809329043E
:1011E000992311F00E94A4069FBE80E003C088EE00
:1011F00001C08BE81F910F91FF90EF90DF90CF908F
:10120000BF90AF909F907F906F905F904F900895A8
:10121000842F90E0FC0123E0EE0FFF1F2A95E1F7F9
:10122000E80FF91FE359F94F10868FEF8093750689
:1012300090E0C1CF1F920F920FB60F920BB60F9294
:1012400011242F933F934F935F936F937F938F93CB
:101250009F93AF93BF93EF93FF9380916B06909111
:101260006C06019690936C0680936B060E94A40610
:10127000FF91EF91BF91AF919F918F917F916F916E
:101280005F914F913F912F910F900BBE0F900FBE2A
:101290000F901F9018951F920F920FB60F92112466
:1012A0008F9380912904882319F081E080932A0488
:1012B0008F910F900FBE0F901F90189510922904D8
:1012C00010922A0410926C0610926B068FEF809396
:1012D0002B0480932C0480932D0480937506109228
:1012E0007206109271060E94EE0908950895CF9239
:1012F000DF92EF92FF920F931F93DFB6F894E09086
:10130000B100F0908100009180001092B100109225
:10131000810010928000E0E06FEF7FEF40E050E04E
:101320001FEFF1E080E2C82EA4E2B4EF16BB17BBBA
:101330001092B2001092850010928400F093810008
:10134000F093B100C092B600B89BFECF109281001E
:101350001092B10020918400309185002115310553
:1013600011F480E024C084EF2532380720F4CD0149
:10137000821B930B03C0C9018452944F86179707B1
:1013800018F4E0916600BC012552344F20F480919E
:1013900066008F5F03C08091660081508093660075
:1013A0004F5F5F4F4436510509F0C0CF81E0E092B6
:1013B000B100F092810000938000DFBEE0936600F0
:1013C0001F910F91FF90EF90DF90CF900895209A9A
:1013D000219A259A229A249A2398089582E4809348
:1013E000810082E086BB84E086BB88E086BBEFE6B6
:1013F000F0E080818160808308951F93DF93CF9315
:10140000CDB7DEB7C054D0400FB6F894DEBF0FBEE4
:10141000CDBF182FFE0131967E2FA3E09E01205CE8
:101420003F4F8E2F871B9DB3E8982D98289800007A
:101430000000000000000000000000000000AEBD41
:101440000DB407FEFDCF8F778EBD0DB407FEFDCF27
:101450001EBC0DB407FEFDCF8EB5289A2D9A9DBBFC
:101460008083E217F30711F03196DBCFFE0131964E
:1014700020E030E0DE01AF5BBF4F81912827022ED4
:101480002295207F2025032E322F22952F700226B1
:10149000269532272327220F220F220F2025EA1715
:1014A000FB0759F7232B11F085E812C0DE011196D6
:1014B000A10FB11D9A01AD0106C0FA018191AF01E2
:1014C000F90181939F01842F8A1B8617B0F380E076
:1014D000C05CDF4F0FB6F894DEBF0FBECDBFCF911B
:1014E000DF911F910895E4E7F0E0808180688083B8
:1014F00080E88093750010922E048FEF8093004057
:101500000895019711F441E001C040E061157105B3
:1015100031F020912E0461307105B9F40BC021E047
:1015200030E002C0220F331F4A95E2F780912E046B
:10153000822B08C002C0660F771F4A95E2F7862FFC
:101540008095822380932E0422C0822F90E0042E67
:1015500002C0959587950A94E2F780FF0CC081E060
:1015600090E002C0880F991F4A95E2F78095822388
:1015700080932E040AC081E090E002C0880F991F7A
:101580004A95E2F7282B20932E0480912E04809513
:101590008C6F809300400895E4E7F0E080818068DC
:1015A000808380E88093750008952091004030E0AA
:1015B0002095309521703070C901089580E58CBD6B
:1015C00081E08DBD8CB58C7F8CBD289A08959DB32C
:1015D000E898806C28988EBD0DB407FEFDCF6EBDD7
:1015E0000DB407FEFDCF289A9DBB08959DB3E898E2
:1015F000806828988EBD0DB407FEFDCF1EBC0DB4CB
:1016000007FEFDCF8EB5289A9DBB0895FC01289852
:1016100080E28EBD0DB407FEFDCF1EBC613089F0A7
:10162000DF01262F0DB407FEFDCF8EB51EBC8D93B6
:1016300021502230B8F76250862F90E00196E80FD3
:10164000F91F0DB407FEFDCF8EB58083289A08954B
:10165000FC01289880E68EBD0DB407FEFDCF819178
:1016600061500DB407FEFDCF8EBD6623C1F70DB4EA
:1016700007FEFDCF289A0895FF920F931F93062F20
:10168000F42E0E94F60A082310E002C01595079573
:10169000FA94E2F7802F1F910F91FF900895DF9247
:1016A000EF92FF920F931F93D82EF62EE42E022F67
:1016B0000E94F60A10E002C0000F111FEA94E2F740
:1016C0006F2D6023F094F8226F298D2D0E94E70A78
:1016D0001F910F91FF90EF90DF900895982FFB01DD
:1016E0002DB3E898289880E48EBD0DB407FEFDCF99
:1016F0009EBD0DB407FEFDCF819141500DB407FE94
:10170000FDCF8EBD4423C1F70DB407FEFDCF289A4F
:101710002DBB089500000000000000002DB3E898E4
:1017200028981EBC0DB407FEFDCF8EBD0DB407FE7C
:10173000FDCF1EBC4150942FFB0107C00DB407FE26
:10174000FDCF8EB51EBC819391509923B9F7FB0153
:10175000E40FF11D0DB407FEFDCF8EB58083289AEE
:101760002DBB0895982FDB01000000000000000051
:101770003DB3E898289880E48EBD0DB407FEFDCFF8
:101780009EBD0DB407FEFDCFFD0181918EBD0DB450
:1017900007FEFDCF11968C9111978EBD415021818E
:1017A000942FFD0108C00DB407FEFDCF8EB58193C7
:1017B0002EBD915022819923B1F7FD01E40FF11D57
:1017C0000DB407FEFDCF1EBC0DB407FEFDCF8EB5D8
:1017D0008083289A3DBB0895BC01009721F089E0E1
:1017E00096E00E94210C089589E096E060E070E0A8
:1017F0000E94B60C08950F931F93CF93DF9389E057
:1018000096E00E941A0CCDEFD5E00FE214E01983A8
:10181000088389E096E0BE010E94210C24960656BA
:101820001F4F86E0C930D80791F7DF91CF911F9104
:101830000F910895FC01118210821382128214828A
:101840000895CF93DF93DC01EB019FB7F8941496D2
:101850008C911497882321F411967C936E9306C083
:101860001296ED91FC911397738362831396DC9328
:10187000CE9312971B821A8214968C9114978F5FC5
:1018800014968C939FBFDF91CF9108959F92AF9252
:10189000BF92CF92DF92EF92FF920F931F93CF935D
:1018A000DF938C015B016A019FB6F894DC0114960A
:1018B0008C91882319F4C0E0D0E04AC0F801C081BF
:1018C000D18141155105B1F07E0111C0D6011296AA
:1018D0006D917C911397ED91FC9188819981099587
:1018E000882359F47E018A819B819C01E90120971C
:1018F00069F72EC0209761F17E01AB2849F5F80108
:10190000808191812A813B81C817D90719F43183DD
:10191000208305C0D70113963C932E931297F801AC
:1019200082819381C817D90711F4F382E282D8012A
:1019300014968C911497815014968C9314978D91D2
:101940009C911197892B21F413961C921E92129749
:101950009FBECE01DF91CF911F910F91FF90EF902D
:10196000DF90CF90BF90AF909F900895AB0160E063
:1019700070E00E94460C0895AB0161E070E00E94A7
:10198000460C0895CF93DF93EC010BC0CE0160E0CD
:1019900070E00E94B60C009711F41C8205C00E94F2
:1019A000EC0B8C81882391F7DF91CF9108950895F6
:1019B000BC0184E840E10E948A0B08951F93CF93F5
:1019C000DF93EB01A1E1B6E0FC0180E101900D9213
:1019D0008150E1F71091210680910F06882349F08C
:1019E00083E860E176E042E10E94B20B10920F06BC
:1019F00006C084E861E176E041E10E94B20B2097E5
:101A000041F0DE01E1E1F6E080E101900D928150CC
:101A1000E1F71093210688E190E00E946706DF91CC
:101A2000CF911F910895809142068F3019F480E084
:101A30000E94FD1708951F93809196068093420699
:101A40008F3011F40E94EA1780913203882319F035
:101A500022E336E002C022E236E01091100680E177
:101A600080931006A1E1B6E0F90101900D9281503A
:101A7000E1F783E860E176E041E10E946E0B1093AC
:101A8000100681E080930F061F910895FF920F9337
:101A90001F93DF93CF93CDB7DEB760970FB6F8945F
:101AA000DEBF0FBECDBF9C01F62E042F0097E9F0DC
:101AB00010920E0689E080933203A2E2B6E0F901AB
:101AC00080E101900D928150E1F780E18093100652
:101AD000A1E1B6E0F90101900D928150E1F783E8B0
:101AE00060E176E041E10E946E0B002321F00830B6
:101AF00009F063C017C080913203883009F04BC0F1
:101B000080E180931006A1E1B6E0E2E2F6E0019008
:101B10000D928150E1F783E860E176E041E10E94B7
:101B20006E0B39C0809132038830A9F110E1109317
:101B3000100680910E068823E1F41092100680E8CA
:101B40008093210681E080930F06CE01019660E02C
:101B500070E00E94DE0C1093100683E860E176E0EE
:101B600041E00E946E0B84E862E376E040E10E946F
:101B70008A0BA1E1B6E0E2E3F6E080E101900D928C
:101B80008150E1F783E860E176E041E10E946E0B6D
:101B900081E080930E0600933203FF2019F080E26B
:101BA000F81659F4802F8F2980931006806880934F
:101BB000210681E080930F0601C080E060960FB699
:101BC000F894DEBF0FBECDBFCF91DF911F910F9173
:101BD000FF90089581E08093430608953F924F92CD
:101BE0005F926F927F928F929F92AF92BF92CF92AD
:101BF000DF92EF92FF920F931F93DF93CF93CDB7B6
:101C0000DEB762970FB6F894DEBF0FBECDBF4C01B2
:101C10005B013A01322ED02EFE2C809143068823A0
:101C200021F00E941B0D109243064F2D50E09A01A7
:101C3000237030702115310511F4EE240AC02F5F96
:101C40003F4F81E090E002C0880F991F2A95E2F78C
:101C5000E82E487F452BA1F48114910489F0A1144A
:101C6000B10471F0432C552482010D0D111D8E2DF0
:101C700090E09A8B898B800F911F8038910520F01E
:101C80000E94130D81E0A3C080913303882339F0B3
:101C90006114710409F50E94130D82E098C061146B
:101CA0007104D1F040E130E04150E42FF0E0D30185
:101CB000AE0FBF1FEC5BF94F8C912081822790E023
:101CC000232F30E0822B932B30E0892B09F031E079
:101CD000442351F73093330380913303882379F001
:101CE000C30160E040E00E94460DA4E4B6E0F301C9
:101CF00080E101900D928150E1F71092330381E071
:101D0000F5018083EE2061F08E2D90E0029795958D
:101D1000879523E0880F991F2A95E1F781608083DA
:101D2000332021F0F50180818064808384E0782E67
:101D30007F20F50160801686CC20D1F4EE2051F092
:101D4000D786080D191DC401B801A501232D0D2D3D
:101D50000E94EB0F7720C1F181E0F5018083C4017F
:101D6000840D951DB5014E2D2D2D0E94020F2CC006
:101D7000772059F081E0F5018083C401840D951D21
:101D8000B5014E2D2D2D0E94020FEE20E9F0F50138
:101D90006082D786C4017E010894E11CF11CB70162
:101DA000A501232D0D2D0E94EB0F832D90E08D0DAD
:101DB000911D880D991DB70149895A890E944019C2
:101DC000009711F083E003C00E94130D80E062963B
:101DD0000FB6F894DEBF0FBECDBFCF91DF911F913C
:101DE0000F91FF90EF90DF90CF90BF90AF909F90BA
:101DF0008F907F906F905F904F903F9008950E94DA
:101E0000D70C08957F928F929F92AF92BF92CF92FC
:101E1000DF92EF92FF920F931F93DF93CF93CDB793
:101E2000DEB760970FB6F894DEBF0FBECDBF6C0172
:101E30007B01742E022F80E090E060E040E00E9481
:101E4000460D8FE0882E912C8E0C9F1C81E0D701CF
:101E50001F968C93002329F0C70160E070E00E9478
:101E6000DE0C11E05E010894A11CB11C013148F4A4
:101E7000772019F0F401108207C0C5010E94D80C28
:101E800007C01F5FD4011C93C701B5010E94DE0C7F
:101E9000402F013108F040E1D60120E030E009C0D8
:101EA000F501E20FF31F8C91908189278D932F5FAD
:101EB0003F4F4217A9F7C40ED11C013110F0005159
:101EC000D5CF7720B9F08E010F5F1F4FC8010E9458
:101ED000D80C20E030E00CC0F801E20FF31FD6016F
:101EE0008C9190818927F60181936F012F5F3F4F7D
:101EF000721691F760960FB6F894DEBF0FBECDBF95
:101F0000CF91DF911F910F91FF90EF90DF90CF90D5
:101F1000BF90AF909F908F907F900895CF92DF9267
:101F2000EF92FF920F931F93DF93CF93CDB7DEB75E
:101F300060970FB6F894DEBF0FBECDBF6C01F62ED2
:101F40008C01E62E09C0C80160E070E00E94DE0C42
:101F5000005F1F4F80EFE80E8FE08E15A0F30F2D6E
:101F60000F70F2942FE0F2222F2D30E094E0220F38
:101F7000331F9A95E1F72C0D3D1D0023E9F010E089
:101F80007E010894E11CF11CC701B901402F50E00B
:101F90000E944D19E0E1F0E0E01BF10B9701200FEA
:101FA000311FC90160E070E0AF010E945619C701FE
:101FB00060E070E00E94DE0C60960FB6F894DEBF21
:101FC0000FBECDBFCF91DF911F910F91FF90EF908A
:101FD000DF90CF9008959F92AF92BF92CF92DF9201
:101FE000EF92FF920F931F93DF93CF93CDB7DEB79E
:101FF00060970FB6F894DEBF0FBECDBF6C015B01DA
:102000007A01122F902EFA01078780E090E060E0BD
:1020100040E00E94460DC70160E070E00E94DE0CC7
:1020200080E090E060E240E00E94460D112301F163
:10203000012F1F3008F00EE019821A83E02EFF24D2
:102040009E012D5F3F4FC901B601402F50E00E9415
:102050004D19602F6E5FCE0101960E948E0F011701
:1020600038F4612F601BC6018E0D9F1D0E948E0FDC
:10207000C601810F911D692D0E948E0FC5010E941E
:10208000D80C60960FB6F894DEBF0FBECDBFCF91CF
:10209000DF911F910F91FF90EF90DF90CF90BF9055
:1020A000AF909F9008950F931F93DF93CF93CDB779
:1020B000DEB728970FB6F894DEBF0FBECDBF81E024
:1020C0006FE140E00E943C0B883039F58FE00E94C0
:1020D000F60A82E069E00E94E70ACE0101960E94BA
:1020E00046068E010B5F1F4F8FE00E94F60A80FDAF
:1020F00014C0C8010E9446068D819E81AF81B885BB
:1021000029813A814B815C81821B930BA40BB50B17
:102110008D3D9105A105B10538F328960FB6F894C9
:10212000DEBF0FBECDBFCF91DF911F910F910895FC
:102130000F931F93082F809196068F30B1F42C983F
:1021400081E06FE140E00E943C0B8830C9F78DE0F0
:1021500064E042E021E00E944F0B083011F00330B0
:1021600021F488E0809396065EC181E06FE140E053
:102170000E943C0B80939606083009F443C0093056
:1021800050F4043009F478C0063009F482C00330FA
:1021900009F040C147C00F3069F0003120F4093028
:1021A00009F038C14FC0063109F49CC0093109F06B
:1021B00031C1E4C082E063E00E94E70A8DE064E0A0
:1021C00042E020E00E944F0B0E943019682F192F27
:1021D0008DE20E94E70A8EE267E040E0212F0E9434
:1021E0004F0B000000000000000000000000000095
:1021F00000002C9A83E290E00E9467060093960606
:102200008FE011C1883009F405C182E068E00E94C6
:10221000E70A0000000000000000000000000000CD
:102220000000F8C0883009F4F5C082E063E00E9445
:10223000E70A0000000000000000000000000000AD
:102240000000E8C08830E9F0893020F4863009F0D9
:10225000E1C005C0863119F0893109F0DBC082E0A8
:1022600069E00E94E70A0000000000000000000092
:10227000000000000000CEC0883019F0893021F441
:10228000C9C00E945310C6C082E064E00E94E70A01
:10229000C1C0893059F08A3020F4883009F0BAC0C2
:1022A00012C0863119F0893109F0B4C082E066E0CD
:1022B0000E94E70A0000000000000000000000008B
:1022C00000000000A7C00E94531082E066E00E9458
:1022D000E70A00000000000000000000000000000D
:1022E000000098C08830C1F0893020F4863009F0B1
:1022F00091C021C0893019F0893109F08BC082E08A
:1023000066E10E94E70A00000000000000000000F3
:102310000000000000007EC00E94531082E066E1D1
:102320000E94E70A0000000000000000000000001A
:10233000000000006FC082E069E00E94E70A000030
:10234000000000000000000000000000000081E02C
:102350006FE140E00E943C0B80939606893009F0C3
:1023600062C082E066E10E94E70A0000000000000F
:10237000000000000000000000004CC0883009F49C
:102380003BC0893020F4863009F044C013C0893046
:1023900021F0863109F03EC00DC082E069E10E9463
:1023A000E70A00000000000000000000000000003C
:1023B000000030C082E069E00E94E70A00000000EF
:1023C00000000000000000000000000081E06FE15C
:1023D00040E00E943C0B80939606893021F582E014
:1023E00069E10E94E70A0000000000000000000010
:1023F0000000000000000EC00E94531082E069E15E
:102400000E94E70A00000000000000000000000039
:102410000000000081E06FE140E00E943C0B8093EF
:1024200096068F31B9F31F910F9108958091870619
:102430008823E1F080919F068823C1F4809154069F
:1024400090915506892B39F48AE90E94F40B9093F8
:102450005506809354068091540690915506892B19
:1024600029F01092870686E10E94981080918C06D0
:10247000882351F088E896E060E070E00E94B60C96
:10248000009711F00E944B1280919F06823011F448
:102490000E9480130895EF92FF920F931F93CF93A2
:1024A000DF937C01DC010D911C91D8011696ED9112
:1024B000FC911797808180939806C82FD0E02196D1
:1024C000CE0FDF1F988129812F3110F02EE103C03C
:1024D000222309F421E092959695969593708FEFBB
:1024E000989FC001112430E0FC01E29FC001E39FEE
:1024F000900DF29F900D11246AE570E00E94C118C2
:102500006F3F710511F008F06FEF6883D8011296E4
:10251000FC92EE921197C8010E94D100DF91CF91F9
:102520001F910F91FF90EF900895DF92EF92FF922D
:102530000F931F93DF93CF930F92CDB7DEB7E09148
:102540005406F09155063097C1F1E080F18087E0A4
:102550000E94F60AD82ECE01019661E00E94060B79
:10256000698167FD2AC06D5F0AE910E0061B110949
:102570000E0D1F1D6150C8010E94060BF701178345
:1025800006838981080F111DF801D28260915406DB
:102590007091550688E896E00E94210C8AE90E9415
:1025A000F40B9093550680935406892B31F489E0FF
:1025B0000E94981081E0809387060F90CF91DF9161
:1025C0001F910F91FF90EF90DF900895882311F0F5
:1025D00087E005C082E060EE45E00E943C0B8093FE
:1025E000560682E080939F0680915406909155068E
:1025F000892B39F489E00E94981081E08093870646
:10260000089586E10E9498100895EF92FF921F931B
:10261000CF93DF937C01EB01142F442331F08CE244
:1026200060EF44E02091950604C08CE260EF44E046
:1026300020E00E944F0BC230D10598F4112361F0C5
:102640008CE26EE041E020918D060E944F0B8FE2FC
:1026500060E00E94E70A16C08CE26EE041E027E0ED
:102660000FC0609191066295607F80919406682BFF
:102670008FE20E94E70A8CE26EE041E020918D0635
:102680000E944F0B89E10E9498108931D9F7E89890
:10269000219759F480919806833118F080E492E0F4
:1026A00002C080E890E00E9467062C9A2C98F701FF
:1026B00060816150C7010E94280B81E080939F06D2
:1026C000E89ADF91CF911F91FF90EF900895FC0160
:1026D00080919F06882311F086E80895F093930671
:1026E000E09392068681978190939A06809399064B
:1026F000009711F488EE08950E94051380E0089574
:1027000010929F06809156068330B1F0843028F4F1
:10271000882331F08130E1F409C08530C9F412C05A
:10272000609192067091930680E017C060919206C6
:102730007091930687E811C060919206709193069C
:1027400081EE0BC0609192067091930689EE05C0F0
:10275000609192067091930685E80E94B8000895F2
:10276000FB01873009F45EC0883090F4833009F4AF
:102770004CC0843030F48130C1F1823008F042C066
:1027800031C0853009F447C0863008F04EC040C0E3
:102790008035F1F0813538F48E34A1F08F34A8F40F
:1027A0008B3071F466C0873509F442C0883518F45F
:1027B000833531F412C08935F1F1803F09F43FC00F
:1027C00084EF089580918D0638C08091940635C0BD
:1027D000809182069091830622C080918506909117
:1027E00086061DC080918F0628C080919B0690911F
:1027F0009C06A0919D06B0919E0680839183A28342
:10280000B38335C08091760618C08091840615C0C8
:102810008091810612C080917F06909180069183FD
:10282000808325C080918E0608C08091970605C0E0
:102830008091910602C080919506808318C0809196
:1028400077068083809178068183809179068283E0
:1028500080917A06838380917B06848380917C06B5
:10286000858380917D06868380917E06878380E0C4
:10287000089580919006808380E00895282F85FD3B
:1028800003C0982F9F7304C0982F91959F719195C5
:10289000ECECF0E08491891734F03F96849198171E
:1028A00014F0822F0CC0803E3CF080323CF487FF55
:1028B00006C08F71806203C080E201C08FE1806832
:1028C000089584E080938D0623E0209394068FEF93
:1028D0009FEF909383068093820690938606809361
:1028E00085068BE080938F0680E098EFAFEFB7E02E
:1028F00080939B0690939C06A0939D06B0939E06A2
:10290000109281068AE091E09093800680937F0682
:102910008AE08093970682E080938E0685E080931C
:1029200091062093950683E80E943E1480937606D4
:1029300081E08093840610929006089585FD03C07F
:10294000982F9F7304C0982F91959F719195ECECEF
:10295000F0E080E02491921724F029173CF4815094
:1029600008958F5F31968031A9F780E008951F9315
:10297000CF93DF9382E2609182060E94E70A609122
:10298000830683E20E94E70AC7E7D6E014E2812FBC
:1029900069910E94E70A1F5F1C32C9F780E26091CB
:1029A00085060E94E70A6091860681E20E94E70A96
:1029B00088E060E645E0209184060E944F0B8FE29C
:1029C0006FE040E0209194060E944F0B8EE268E099
:1029D00043E0209190060E944F0B8FE260EF44E0AD
:1029E000209191060E944F0B88E06FE140E020911A
:1029F0008F060E944F0B809176060E949E14282F0E
:102A000085E06FE040E00E944F0BDF91CF911F9176
:102A100008951F93CF93DF93EB018E3431F0893506
:102A200041F4888180939506E5C0888180938D0666
:102A3000E1C0209196062F3011F481E8DCC08B3084
:102A400009F4CBC08C3078F4823009F48EC0833026
:102A500020F4882309F443C015C0833009F493C0DF
:102A6000843081F46BC0833559F1843528F48F3478
:102A700059F0803539F417C0873509F469C0803FB3
:102A800009F488C084EFB7C0888180939406909140
:102A90009106981710F4909394068FE26FE040E04F
:102AA00020919406A0C068818981609382068093FA
:102AB000830682E20E94E70A6091830683E20CC0EB
:102AC00068818981609385068093860680E20E94F2
:102AD000E70A6091860681E20E94E70A8BC0809136
:102AE0009F06882309F082C080E098EFAFEFB7E03F
:102AF000088004C0B695A795979587950A94D2F754
:102B000081709070892B09F473C0283011F418E09B
:102B100006C088E00E9498108830D9F716E1288115
:102B200020938F0688E06FE140E00E944F0B183041
:102B300009F460C086E10E9498105CC080919F06F5
:102B4000882309F053C08881882309F453C050C0FA
:102B500028812093910680919406281710F42093E1
:102B600094068FE260EF44E03EC088818093760651
:102B70000E943E14809376060E949E14282F85E0C2
:102B80006FE040E030C028812093840688E060E652
:102B900045E029C0888180937706898180937806F3
:102BA0008A81809379068B8180937A068C818093C9
:102BB0007B068D8180937C068E8180937D068F813C
:102BC00080937E06C7E7D6E014E2812F69910E94C8
:102BD000E70A1F5F1C32C9F70DC0288120939006B9
:102BE0008EE268E043E00E944F0B04C086E803C019
:102BF00088EE01C080E0DF91CF911F910895DF92B0
:102C0000EF92FF920F931F93DF93CF930F92CDB765
:102C1000DEB7D82E81E090E065E170E041E050E061
:102C20009E012F5F3F4F0E94ED052C988CE791E0AD
:102C30000E9467062D9881E090E00E9467062D9A19
:102C400010E081E06FE140E00E943C0B1F5F1B3F02
:102C500011F485E891C08830A1F780939606298108
:102C6000222329F082E16FE040E00E944F0B0E9496
:102C7000EA0D83E060E344E020E00E944F0B83E034
:102C800068E043E020E00E944F0B83E067E040E013
:102C900021E00E944F0B8EE260E245E021E00E94BD
:102CA0004F0B8CE060E847E021E00E944F0B84E08E
:102CB00062E041E021E00E944F0B8EE06CE00E9458
:102CC000E70A8DE063E040E021E00E944F0B8AE0DC
:102CD0006FE040E023E00E944F0B8DE068E043E0AE
:102CE00021E00E944F0B8DE064E042E021E00E9471
:102CF0004F0B86E00E949810EDB2E89800E010E0DB
:102D0000FF2486E060E645E00E943C0B9801220F1C
:102D1000331F220F331F082F10E0022B132BF394C5
:102D200088E0F81671F783E00E9498108FE00E9407
:102D3000F60A81E08CBBEDBAC8010E9435190E94E9
:102D40003019682F192F8DE20E94E70A8EE267E0A2
:102D500040E0212F0E944F0B80E00E94FD170E944F
:102D6000EA17DD2011F00E9461140E94B71410923E
:102D70009F061092870680E00F90CF91DF911F9100
:102D80000F91FF90EF90DF9008950E94FF15882328
:102D900061F085E8089588E896E060E070E00E94C0
:102DA000B60C009711F00E94EC0B80918C068823E2
:102DB00091F781EC97E10E94670581E08CBBE89A6E
:102DC00080E008950F931F93CF93DF930E942C060A
:102DD000882309F0D0C02D9A2C988AE491E00E94B3
:102DE00067062D9881E090E00E9467062D9A10E01A
:102DF00004C01F5F1F3F09F4BEC08DE10E94F60AA8
:102E00008230B9F78CE10E94F60A833091F782E0B4
:102E100068E00E94E70A10E081E06FE140E00E9474
:102E20003C0B115009F4A7C08830B1F78093960687
:102E300081E090E060E070E048E050E027E736E0B5
:102E40000E94ED0509C0C7E7D6E00E9430198993BA
:102E500086E0CF37D807C9F780917706309178069A
:102E60004091790660917A0670917B06F0917C061C
:102E7000B0917D0650917E06082F015091E0081711
:102E800008F090E0832F815021E0831708F020E0C4
:102E9000192F180F91E0181708F090E0292B842FB4
:102EA000815031E0841708F030E0A22FA80F91E0A4
:102EB000A81708F090E0392B862F815021E0861763
:102EC00008F020E0E32FE80F91E0E81708F090E029
:102ED000292B872F815031E0871708F030E0622FCF
:102EE000680F91E0681708F090E0392B8F2F815020
:102EF00021E08F1708F020E0432F480F91E048179A
:102F000008F090E0292B8B2F815091E08B1708F06F
:102F100090E0322F380F21E0381708F020E0922B94
:102F20005195591779F43F3F69F44F3F59F46F3F7A
:102F300049F4EF3F39F4AF3F29F41F3F19F40E3F36
:102F400008F081CF81E00E94FF158823A1F481EC75
:102F500097E10E946705E89A0E94FB0B8AE90E94AC
:102F6000F40B909355068093540688E896E00E94EF
:102F70001A0C80E001C085E8DF91CF911F910F917D
:102F800008958FE00E94F60A282F83FF0CC08091DD
:102F90009F06813029F426FF80E00E94E612089502
:102FA0000E949512089582FF14C08DE060E847E00A
:102FB0000E943C0B882339F48DE063E040E021E07F
:102FC0000E944F0B08958DE063E040E022E00E94F4
:102FD0004F0B0895809196068F3011F082E8089586
:102FE00088E00E949810883011F085E8089581E00B
:102FF00090E00E943E0680E00895882311F088EE5C
:103000000895809196068F3011F481E8089580919B
:103010009F068823A1F41092870688E00E949810EA
:103020008830D9F780E090E00E943E068FE00E9451
:1030300098108F3021F40E94EA0D80E0089586E810
:103040000895982F80919F06882311F086E80895AF
:10305000983039F488E00E9498101092870688E032
:1030600008958091540690915506892B29F086E1A8
:103070000E94981086E0089581E08093870686E09C
:1030800008950895EF92FF920F93DF93CF93CDB7FA
:10309000DEB760970FB6F894DEBF0FBECDBFA82F86
:1030A000002309F461C07E010894E11CF11C88E052
:1030B000F70111928A95E9F729833A834B835C8360
:1030C0006D837E83AF83988780E2801BE82FFF2784
:1030D000E7FDF0954D815E816F817885181684F04B
:1030E0001D861E861F86188A882799278E1B9F0B90
:1030F00004C076956795579547958A95D2F728C06D
:10310000202F332727FD3095DB01CA01022E04C092
:10311000B695A795979587950A94D2F78D879E8740
:10312000AF87B88B04C0440F551F661F771FEA9501
:10313000D2F789819A81AB81BC8104C0B695A795ED
:10314000979587952A95D2F7482B592B6A2B7B2B7D
:1031500049875A876B877C8729853A854B855C85AB
:103160006D857E85AF8598898A2F60960FB6F89415
:10317000DEBF0FBECDBFCF91DF910F91FF90EF90DB
:103180000895AA1BBB1B51E107C0AA1FBB1FA617AE
:10319000B70710F0A61BB70B881F991F5A95A9F700
:1031A00080959095BC01CD010895AF92BF92CF92CA
:1031B000DF92EF92FF920F931F93CF93DF93EC0177
:1031C000A880B980CA80DB80A114B104C104D104F5
:1031D00041F484E2A82E89EDB82E8BE5C82E87E055
:1031E000D82EC601B5012DE133EF41E050E00E9439
:1031F000241E27EA31E440E050E00E94051E7B01D6
:103200008C01C601B5012DE133EF41E050E00E9491
:10321000241ECA01B9012CEE34EF4FEF5FEF0E947C
:10322000051E6E0D7F1D801F911F97FF04C061500A
:10323000704080409048688379838A839B839B0198
:103240003F77C901DF91CF911F910F91FF90EF90D0
:10325000DF90CF90BF90AF9008950E94D518089549
:1032600084E393E00E94D5180895A0E0B0E0809335
:10327000340390933503A0933603B0933703089536
:10328000FB01DC0104C08D910190801921F44150B3
:103290005040C8F7881B990B0895FB01DC0102C060
:1032A00001900D9241505040D8F70895DC0101C0C3
:1032B0006D9341505040E0F708950F931F93CF93C3
:1032C000DF938C01EB01009731F46115710519F45E
:1032D00020E030E038C081E090E06EE070E00E94D5
:1032E000441CFC019C01009771F180E883832097C6
:1032F00071F0D387C28781E883838091A006909183
:10330000A106892B21F4F093A106E093A0060115F4
:103310001105C9F0118700878381826083838091C2
:10332000A2069091A306892B71F4F093A306E09373
:10333000A2068091A4069091A506892B21F4F09312
:10334000A506E093A406C901DF91CF911F910F91CB
:103350000895DF93CF93CDB7DEB7FE013596619127
:1033600071918091A2069091A306AF010E94281A44
:10337000CF91DF9108956091A2067091A3060E94FB
:103380007B1D08950F931F93CF93DF938C01E091E2
:10339000A206F091A306838181FF21C0C0E0D0E0A6
:1033A0000DC0E091A206F091A30620853185BF01F2
:1033B000F9010995892B11F0CFEFDFEFF801819129
:1033C0008F01882371F7E091A206F091A306208572
:1033D00031858AE0BF01F9010995892B11F0CFEF02
:1033E000DFEFCE01DF91CF911F910F9108950F93E1
:1033F0001F93DF93CF93CDB7DEB72E970FB6F89418
:10340000DEBF0FBECDBF0D891E8986E08C831A8377
:1034100009838FEF9FE79E838D839E01275E3F4F39
:10342000CE0101966F89788DA9010E94281A2F81FB
:103430003885020F131FF80110822E960FB6F894EC
:10344000DEBF0FBECDBFCF91DF911F910F910895C9
:103450002F923F924F925F926F927F928F929F92A4
:10346000AF92BF92CF92DF92EF92FF920F931F9392
:10347000DF93CF93CDB7DEB72B970FB6F894DEBFAF
:103480000FBECDBF3C012B015A01FC0117821682F1
:10349000838181FD03C06FEF7FEFC6C19AE0892E63
:1034A0001E010894211C311CF3012381F20123FD2C
:1034B000859123FF81912F01882309F4B2C18532C0
:1034C00039F423FD859123FF81912F01853229F461
:1034D00090E0B3010E947B1DE7CF982FFF24EE24DC
:1034E0009924FFE1FF15D0F09B3269F09C3228F45B
:1034F000903259F0933291F40EC09D3249F09033DE
:1035000069F441E024C052E0F52A84E0F82A28C09A
:1035100098E0F92A25C0E0E1FE2A22C0F7FC29C084
:10352000892F80538A3070F4F6FE05C0989C902C49
:103530001124980E15C0E89CE02C1124E80EF0E24E
:10354000FF2A0EC09E3229F4F6FC6BC140E4F42A37
:1035500007C09C3619F450E8F52A02C0983649F4A1
:10356000F20123FD959123FF91912F01992309F0F9
:10357000B8CF892F8554833018F08052833038F4C7
:1035800044E050E0A40EB51E5FE359830FC09336AC
:1035900031F0933779F0933509F056C020C0F5012A
:1035A0008081898342E050E0A40EB51E610101E0F4
:1035B00010E012C0F501C080D180F6FC03C06FEFAF
:1035C0007FEF02C0692D70E042E050E0A40EB51E0E
:1035D000C6010E94701D8C015FE7F52214C0F50141
:1035E000C080D180F6FC03C06FEF7FEF02C0692D71
:1035F00070E042E050E0A40EB51EC6010E94651DB9
:103600008C0150E8F52AF3FE07C01AC080E290E072
:10361000B3010E947B1DEA948E2D90E008171907D4
:10362000A8F30EC0F601F7FC8591F7FE81916F01BA
:1036300090E0B3010E947B1DE110EA94015010401C
:103640000115110579F7EAC0943611F0993669F53C
:10365000F7FE08C0F501208131814281538184E069
:1036600090E00AC0F501808191819C01442737FDDB
:103670004095542F82E090E0A80EB91E9FE6F922F3
:1036800057FF09C050954095309521953F4F4F4FBA
:103690005F4FE0E8FE2ACA01B901A1012AE030E04B
:1036A0000E94A71DD82ED21840C0953729F41F2D8F
:1036B0001F7E2AE030E01DC01F2D197F9F3661F06C
:1036C000903720F4983509F0ACC00FC0903739F02E
:1036D000983709F0A6C004C028E030E00AC01061A5
:1036E00014FD146020E130E004C014FD166020E1F8
:1036F00032E017FF08C0F5016081718182819381FA
:1037000044E050E008C0F50180819181BC0180E077
:1037100090E042E050E0A40EB51EA1010E94A71D5A
:10372000D82ED2188FE7F82EF122F6FE0BC05EEFEE
:10373000F522D91438F4F4FE07C0F2FC05C08FEE70
:10374000F82202C01D2D01C0192DF4FE0DC0FE018E
:10375000ED0DF11D8081803319F499EEF92208C036
:103760001F5FF2FE05C003C08F2D867809F01F5F32
:103770000F2DF3FC14C0F0FE0FC01E1510F09D2C91
:103780000BC09D2C9E0C911A1E2D06C080E290E06D
:10379000B3010E947B1D1F5F1E15C0F304C01E15E0
:1037A00010F4E11A01C0EE2404FF0FC080E390E0A2
:1037B000B3010E947B1D02FF1DC001FD03C088E70D
:1037C00090E00EC088E590E00BC0802F867891F0E5
:1037D00001FF02C08BE201C080E2F7FC8DE290E0C5
:1037E000B3010E947B1D06C080E390E0B3010E94FC
:1037F0007B1D9A94D914C0F3DA94F101ED0DF11DFB
:10380000808190E0B3010E947B1DDD20A9F706C0F6
:1038100080E290E0B3010E947B1DEA94EE20C1F7A4
:1038200043CEF30166817781CB012B960FB6F894D6
:10383000DEBF0FBECDBFCF91DF911F910F91FF90E3
:10384000EF90DF90CF90BF90AF909F908F907F9040
:103850006F905F904F903F902F900895F999FECF11
:1038600092BD81BDF89A992780B50895262FF999C0
:10387000FECF1FBA92BD81BD20BD0FB6F894FA9A53
:10388000F99A0FBE019608950F931F93CF93DF937C
:10389000689F8001699F100D789F100D1124C80149
:1038A0000E94601CEC01009729F060E070E0A80124
:1038B0000E945619CE01DF91CF911F910F9108956B
:1038C000CF93DF93BC018230910510F462E070E089
:1038D000A091A806B091A906ED01E0E0F0E040E07B
:1038E00050E021C0888199818617970769F48A8101
:1038F0009B81309719F09383828304C09093A9062B
:103900008093A806FE0134C06817790738F4411582
:10391000510519F08417950708F4AC01FE018A815E
:103920009B819C01E9012097E9F641155105A9F118
:10393000CA01861B970B049708F4BA01E0E0F0E097
:103940002AC08D919C91119784179507F9F46417FB
:10395000750781F412968D919C911397309719F009
:103960009383828304C09093A9068093A806FD01E7
:1039700032964FC0CA01861B970BFD01E80FF91F55
:103980006193719302978D939C9343C0FD01828153
:1039900093819C01D9011097A1F68091A606909180
:1039A000A706892B41F480913A0390913B039093B1
:1039B000A7068093A60640913C0350913D03411514
:1039C000510541F44DB75EB78091380390913903AA
:1039D000481B590B2091A6063091A70624173507DE
:1039E000B0F4CA01821B930B8617970780F0AB01D6
:1039F0004E5F5F4F8417950750F0420F531F50934F
:103A0000A7064093A606F9016193719302C0E0E016
:103A1000F0E0CF01DF91CF910895CF93DF9300972E
:103A200009F450C0EC0122971B821A82A091A806CB
:103A3000B091A906109709F140E050E0AC17BD071E
:103A400008F1BB83AA83FE0121913191E20FF31F9C
:103A5000AE17BF0779F48D919C911197280F391FEC
:103A60002E5F3F4F3983288312968D919C91139737
:103A70009B838A834115510571F4D093A906C093A5
:103A8000A80620C012968D919C911397AD010097C6
:103A900011F0DC01D3CFFA01D383C283219131919C
:103AA000E20FF31FCE17DF0769F488819981280F91
:103AB000391F2E5F3F4FFA01318320838A819B811A
:103AC00093838283DF91CF910895FC01059061502B
:103AD00070400110D8F7809590958E0F9F1F089524
:103AE000FC016150704001900110D8F780959095CD
:103AF0008E0F9F1F08950F931F93CF93DF938C0119
:103B0000EB018B8181FF1BC082FF0DC02E813F81A5
:103B10008C819D812817390764F4E881F98101932C
:103B2000F983E88306C0E885F985802F0995892BFC
:103B300031F48E819F8101969F838E8302C00FEFA7
:103B40001FEFC801DF91CF911F910F910895FA01E6
:103B5000AA27283051F1203181F1E8946F936E7FCC
:103B60006E5F7F4F8F4F9F4FAF4FB1E03ED0B4E0BD
:103B70003CD0670F781F891F9A1FA11D680F791FFE
:103B80008A1F911DA11D6A0F711D811D911DA11D0F
:103B900020D009F468943F912AE0269F112430191F
:103BA000305D3193DEF6CF010895462F4770405DBA
:103BB0004193B3E00FD0C9F7F6CF462F4F70405D69
:103BC0004A3318F0495D31FD4052419302D0A9F7C4
:103BD000EACFB4E0A6959795879577956795BA95BE
:103BE000C9F700976105710508959B01AC010A2E84
:103BF00006945795479537952795BA95C9F7620F5B
:103C0000731F841F951FA01D0895629FD001739F8D
:103C1000F001829FE00DF11D649FE00DF11D929F68
:103C2000F00D839FF00D749FF00D659FF00D9927A7
:103C3000729FB00DE11DF91F639FB00DE11DF91FCB
:103C4000BD01CF011124089597FB092E05260ED042
:103C500057FD04D014D00AD0001C38F4509540957C
:103C6000309521953F4F4F4F5F4F0895F6F7909550
:103C70008095709561957F4F8F4F9F4F0895A1E27A
:103C80001A2EAA1BBB1BFD010DC0AA1FBB1FEE1FD6
:103C9000FF1FA217B307E407F50720F0A21BB30B21
:103CA000E40BF50B661F771F881F991F1A9469F79D
:103CB00060957095809590959B01AC01BD01CF01F9
:063CC0000895F894FFCF07
:103CC6005365637572697479206F6E3A2054782053
:103CD60073656375726564206F6B005365637572F7
:103CE600697479206F66663A20547820706C616931
:103CF6006E74657874206F6B0053656375726974B2
:103D060079206F6E3A2000527820756E6B6E6F7751
:103D16006E206672616D6520776974686F757420B0
:103D2600736563757269747900527820736563757B
:103D36007265642C20646563727970797465643A7F
:103D460020004672616D6520256C753A204D494309
:103D56002077726F6E670A005365637572697479AE
:103D6600206F66663A2000527820756E6B6E6F770C
:103D76006E206672616D652077697468207365636D
:103D8600757269747900527820706C61696E746519
:103D960078743A200041707020737461727465649F
:103DA6002077697468207365637572697479206F0A
:103DB6006E00417070207374617274656420776957
:103DC6007468207365637572697479206F6666001E
:103DD6000122030100546F67676C65206C69676890
:103DE6007421A1A3A5A73C5E70B2015293C4844876
:0E3DF60020100901010000002000AA060000B4
:00000001FF
