:100000000C94D1000C94F0000C94F0000C94F000CF
:100010000C94F0000C94F0000C94F0000C94F000A0
:100020000C94F0000C94F0000C94F0000C94F00090
:100030000C94F0000C94F0000C94F0000C94F00080
:100040000C94F0000C94F0000C94F0000C94F00070
:100050000C94F0000C94F0000C94F0000C94F00060
:100060000C94F0000C9435050C94F0000C94610590
:100070000C94F0000C94F0000C94F0000C94F00040
:100080000C94F0000C94F0000C94F0000C94F00030
:100090000C94F0000C94F0000C94F0000C94F00020
:1000A0000C94F0000C94F0000C94F0000C94F00010
:1000B0000C94F0000C94F0000C94F0000C94F00000
:1000C0000C94F0000C94F0000C94F0000C94F000F0
:1000D0000C94F0000C94F0000C94F0000C94F000E0
:1000E0000C94F0000C9446060C9450060C943C06BC
:1000F0000C94E6050C9411060C945A060C94BB055E
:100100000C946E060C943F0B0C94680B0C94F0004E
:100110000C94F0000C94F0000C9478060C94640697
:1001200003020201010000FFFEFDFCFBF9F7F4EF02
:10013000D817000000007E1A000000006E1D0000AD
:100140008E1D121C8F1E0000000000000000000029
:100150006417741700000000000000000000000099
:1001600000000000000000000000000052172417EB
:1001700043173417000000000104010101020101CE
:100180000101010101010101040108020101010154
:100190000201010201020101020102020101010149
:1001A000080011241FBECFEFD1E4DEBFCDBF13E0A6
:1001B000A0E0B2E0E6EEF4E500E00BBF02C007907D
:1001C0000D92A033B107D9F716E0A0E3B3E001C068
:1001D0001D92A039B107E1F70E9499030C94712A8E
:1001E0000C9400000895EF92FF920F931F9380915B
:1001F0003A0390913B03029759F481E090E0909389
:100200003B0380933A0380E593EC0E94800719C07A
:100210008091300390913103892B99F481E040E87B
:1002200056E968E970E020E030E006E211E0EE24F3
:10023000FF240E94BE0981E090E061E070E00E942E
:10024000860B1F910F91FF90EF900895CF92DF9250
:10025000EF920F931F93DF93CF93CDB7DEB76797DE
:100260000FB6F894DEBF0FBECDBF81E090E060E036
:1002700070E00E94860B90913203409133035091BD
:100280003403609135037091360300913703E09099
:1002900038031091390320E030E08CE0C82ED12CD7
:1002A000CC0EDD1EF601E20FF31FD901A45CBC4F9A
:1002B0008C9180832F5F3F4F2830310599F79C83C5
:1002C0004D835E836F8378870987EA861B878FEE6D
:1002D0009EEB9B838A8383E089830E9428168C8B04
:1002E0009D8B1E8A1F8A83E0BE016F5F7F4F4CE0AB
:1002F000960100E0EE24E3940E94941F67960FB6E7
:10030000F894DEBF0FBECDBFCF91DF911F910F914B
:10031000EF90DF90CF9008958F929F92AF92BF920F
:10032000CF92DF92EF920F931F93DF93CF93CDB7CE
:10033000DEB761970FB6F894DEBF0FBECDBF8C015C
:10034000FB01E42E690180913A0390913B03892BD4
:1003500009F044C0D8018C91833009F0DAC01196BD
:100360008D919C9112978F5E9E4B09F0D2C0808137
:10037000823009F0CEC0818192818F5E9E4B09F060
:10038000C8C081E00E94B208A2E3B3E0F80133964E
:1003900088E001900D928150E1F781E090E0909328
:1003A0003B0380933A038091300390913103892B72
:1003B00071F4198281E090E060E070E00E94860BA9
:1003C00082E5BE016F5F7F4F0E94681FA2C082E07E
:1003D00090E090933103809330039BC08091300371
:1003E00090913103892B09F494C082E090E062E09F
:1003F00070E00E94860B8091300390913103029748
:1004000051F583E08F838FEE9EEB998788878091EB
:1004100032038A87809133038B87809134038C87E2
:10042000809135038D87809136038E8780913703C5
:100430008F8780913803888B80913903898B83E083
:10044000BE01695F7F4F4E2D960100E0EE24E394DC
:100450000E94941F5EC0F9E0FE1508F05AC000D05B
:1004600080E092E0ADB7BEB712969C938E93119741
:100470000E9410268601EE240F900F9022E0A22EFB
:10048000B12CAC0EBD1E98E0892E92E0992E00D0C2
:1004900000D000D0EDB7FEB73196ADB7BEB712961B
:1004A000BC92AE92119793828282D80117968C915A
:1004B000848315820E9422260F900F900F900F9038
:1004C000EDB7FEB7B282A1820E941026E3940150DC
:1004D00010400F900F90F8E0EF16C9F600D000D052
:1004E0008EE092E0ADB7BEB712969C938E931197B3
:1004F000F601918580E0208530E0822B932B1496C5
:100500009C938E9313970E9410260F900F900F903C
:100510000F9061960FB6F894DEBF0FBECDBFCF919E
:10052000DF911F910F91EF90DF90CF90BF90AF9030
:100530009F908F900895DF93CF930F92CDB7DEB742
:10054000882399F4603FA1F4ACE3B3E0FA0188E0BA
:1005500001900D928150E1F784E1898380E0BE0132
:100560006F5F7F4F0E94681F03C081E00E94501F91
:100570000F90CF91DF910895EF92FF920F931F9309
:10058000DF93CF9300D0CDB7DEB7882321F081E091
:100590000E94501F5FC080913A0390913B030197E6
:1005A000C9F1662359F48FEE9EEB9A83898380E527
:1005B000BE016F5F7F4F0E94681F4CC0603509F01D
:1005C00049C08091300390913103892B11F4198235
:1005D00002C081E0898310923B0310923A0382E5C6
:1005E000BE016F5F7F4F0E94681F80E040E050E0D7
:1005F00060E070E00FEF1FEF2FEF30E00E94001F70
:1006000081E040E856E968E970E020E030E003E38B
:1006100013E01CC08091300390913103892BD1F4F9
:100620006235C1F480E040E050E060E070E000E05E
:1006300010E020E030E00E94001F81E040E856E931
:1006400068E970E020E030E006E211E0EE24FF24EB
:100650000E94BE090F900F90CF91DF911F910F91D3
:10066000FF90EF90089520913003309131032130B5
:100670003105E9F483E090E09093310380933003F7
:1006800030933B0320933A0380E090E060E070E019
:100690000E94860B81E090E060E070E00E94860B93
:1006A00082E090E061E070E00E94860B089580E0B7
:1006B00090E060E070E00E94860B80E593EC0E9481
:1006C000800780E593EC0E94800780E090E061E085
:1006D00070E00E94860B80E593EC0E94800780E525
:1006E00093EC0E94800780E090E00E94C90B892B68
:1006F000F1F680E090E061E070E00E94860B81E01E
:1007000090E061E070E00E94860B82E090E061E0A2
:1007100070E00E94860B81E00E94501F089588239C
:1007200021F480EF0E94381F089581E00E94501F3D
:1007300008954F925F926F927F928F929F92AF92A5
:10074000BF92CF92DF92EF920F931F93DF93CF93DD
:10075000CDB7DEB72C970FB6F894DEBF0FBECDBF76
:100760000E940F20882311F00E9482060E947F0BB6
:1007700080E090E061E070E00E94860B81E090E014
:1007800061E070E00E94860B82E090E061E070E042
:100790000E94860B789480E00E94A005882311F0C7
:1007A0000E9482068FE694E066E574E00E94C4250C
:1007B00080E090E060E070E00E94860B00E080E066
:1007C00090ED0E9480070F5F0A30C9F70E94C60BA8
:1007D00080E090E00E94C90B892B09F043C081E0C2
:1007E00090E0909331038093300381E00E94501F8A
:1007F00052E0452E512C12E04FEE642E4EEB742E3B
:1008000088248A94982C32E0A32EB12CAC0EBD1E05
:100810006E010894C11CD11C0E94F91F80913A03FB
:1008200090913B030197C1F7809130039091310380
:10083000892B91F380E090E00E94C90B892B61F72E
:1008400050923B0340923A031A837C826B829E82D1
:100850008D8283E0B50141E0960100E0EE240E9424
:10086000941FDACF109231031092300380E090E0B1
:1008700061E070E00E94860BB8CFDF93CF930F92B8
:10088000CDB7DEB780E0BE016F5F7F4F41E00E94D1
:100890008E05813019F02FEF3FEF03C08981282F9B
:1008A00030E0C9010F90CF91DF9108950F931F930E
:1008B000DF93CF930F92CDB7DEB78E010F5F1F4F3F
:1008C00080E0B80141E00E948E058823C9F3898148
:1008D00090E00F90CF91DF911F910F9108950F93AA
:1008E0001F93DF93CF930F92CDB7DEB789838E012D
:1008F0000F5F1F4F80E0B80141E00E9497058823F9
:10090000C9F380E090E00F90CF91DF911F910F919C
:1009100008959B01AC016050774F824C9F4FF2E0ED
:10092000660F771F881F991FFA95D1F7E3E0220F12
:10093000331F441F551FEA95D1F70E94F724215019
:1009400030403093C5002093C40082E08093C00003
:10095000E2ECF0E096E0908388ED8093C100908314
:100960000895DC018091C1008F7B8093C1002091AC
:10097000EA058091EB05821730F0275F922F981BD4
:10098000892F295005C02150922F981B892F2F5F46
:10099000482F681708F4462F342F12C09091EB05AA
:1009A000E92FF0E0EA52FA4F8C918083993019F4E4
:1009B0001092EB0503C09F5F9093EB0531501196A9
:1009C000332361F78091EE05882351F4E22FF0E0A4
:1009D000EA52FA4F80818093C60081E08093EE0551
:1009E0008091C10080648093C100842F0895DC0150
:1009F0002091EF05222311F480E008958091C10039
:100A00008F778093C1002A3058F08091ED05809354
:100A1000EC058AE08093EF056A3020F02AE003C0FD
:100A2000261708F0262F322F17C0E091EC05F0E0D2
:100A3000EA52FA4F82858C939091EC059F5F9093D8
:100A4000EC058091EF0581508093EF059A3011F409
:100A50001092EC0511963150332339F78091C10083
:100A600080688093C100822F08951F920F920FB665
:100A70000F920BB60F9211248F939F93EF93FF93D6
:100A80009091ED058091EF058F5F8093EF05809148
:100A9000C600E92FF0E0EA52FA4F8287993019F444
:100AA0001092ED0503C09F5F9093ED05FF91EF91CC
:100AB0009F918F910F900BBE0F900FBE0F901F90C4
:100AC00018951F920F920FB60F920BB60F9211242A
:100AD0008F93EF93FF938091EA05893019F4109278
:100AE000EA0503C08F5F8093EA05E091EA058091F3
:100AF000EB05E81739F0F0E0EA52FA4F8081809375
:100B0000C60002C01092EE05FF91EF918F910F90F9
:100B10000BBE0F900FBE0F901F901895882311F0F9
:100B200080E00895CB01642F0E94F7040895882384
:100B300011F080E00895CB01642F0E94B104089564
:100B4000882311F085E8089560E875E280E090E080
:100B50000E94890480E008959093450380934403A4
:100B60000895909347038093460308959093490313
:100B70008093480308951F920F920FB60F920BB601
:100B80000F9211242F933F934F935F936F937F9313
:100B90008F939F93AF93BF93EF93FF93E0914403A1
:100BA000F09145030995FF91EF91BF91AF919F910E
:100BB0008F917F916F915F914F913F912F910F9006
:100BC0000BBE0F900FBE0F901F9018951F920F92A3
:100BD0000FB60F920BB60F9211242F933F934F93A2
:100BE0005F936F937F938F939F93AF93BF93EF9395
:100BF000FF93E0914603F09147030995FF91EF9130
:100C0000BF91AF919F918F917F916F915F914F9124
:100C10003F912F910F900BBE0F900FBE0F901F9022
:100C200018951F920F920FB60F920BB60F921124C8
:100C30002F933F934F935F936F937F938F939F93E4
:100C4000AF93BF93EF93FF93E0914803F091490373
:100C50000995FF91EF91BF91AF919F918F917F91F6
:100C60006F915F914F913F912F910F900BBE0F901D
:100C70000FBE0F901F9018951F920F920FB60F92F4
:100C800011240F900FBE0F901F9018951F920F9276
:100C90000FB60F9211240F900FBE0F901F90189552
:100CA0001F920F920FB60F9211240F900FBE0F904C
:100CB0001F9018951F920F920FB60F9211240F904C
:100CC0000FBE0F901F9018951F920F920FB60F92A4
:100CD00011240F900FBE0F901F9018951F920F9226
:100CE0000FB60F9211240F900FBE0F901F90189502
:100CF0001F920F920FB60F9211240F900FBE0F90FC
:100D00001F9018951EB88FEF8DB98FEF9FEF0E943F
:100D100080078EB180958EB9F8CFCF92DF92EF9297
:100D2000FF920F931F93CF93DF937B018A01690199
:100D3000892B11F088EE19C0CA01860F971F8150C8
:100D4000904110F085E811C0C0E0D0E00AC0CE01AB
:100D50008E0D9F1D0E945928F601EC0FFD1F808308
:100D60002196C017D10798F380E0DF91CF911F91B2
:100D70000F91FF90EF90DF90CF900895CF92DF9288
:100D8000EF92FF920F931F93CF93DF938C017B0120
:100D90006A01CB01800F911F8150904110F085E8CE
:100DA00016C0C0E0D0E00FC0C8010E945928F6016B
:100DB000EC0FFD1F6081861719F0C8010E946128A1
:100DC0000F5F1F4F2196CE15DF0570F380E0DF9196
:100DD000CF911F910F91FF90EF90DF90CF900895EA
:100DE0000E94880908950E94F9060E941A0780E06F
:100DF00008959FB7F894E0E0F0E089E08093570011
:100E000084919FBF8F70823011F090E001C09FE00D
:100E100080E80FB6F89480936100909361000FBE54
:100E200080E1809335018093340180933301809376
:100E30003201089510924A0310924B039FEF909352
:100E40004C0390934D0390934E039093F8051092AA
:100E5000F5051092F405909301061092FE0510928C
:100E6000FD0580E28093B60088EA8093DC008FE085
:100E70008093F4009093F3009093F2009093F1002C
:100E800082E08093E000EFEDF0E08081826080837B
:100E900008950895FC018091DE0080FDFCCF209133
:100EA000E100822F2091E200922F2091E300A22FF7
:100EB0002091E400B22F24E0880F991FAA1FBB1FC6
:100EC0002A95D1F780839183A283B3830895FC018F
:100ED0002091E900822F2091EA00922F2091EB00CF
:100EE000A22F2091EC00B22F34E0880F991FAA1F87
:100EF000BB1F3A95D1F780839183A283B383089572
:100F0000AC018436910518F070E060E01EC07FB738
:100F1000F89461E01AC057FD02C09A0102C02FEF99
:100F20003FE7C901880F991F909581959F4F909336
:100F3000250180932401FABBE0932101D09BFECFD1
:100F4000421B530B1092210102C0F1E0E2E0411577
:100F5000510509F761117FBF089520E090E0FC0181
:100F6000B3E0EE0FFF1FBA95E1F7E80FF91FE0516C
:100F7000FA4F84819581892B09F021E0822F089511
:100F8000AF92BF92CF92DF92EF92FF920F931F9397
:100F900080914C0390E0FC0113E0EE0FFF1F1A95C7
:100FA000E1F7E80FF91FE051FA4FA080B180C2804D
:100FB000D38080914A03882309F46BC0D092F80053
:100FC000C092F700B092F600A092F5008091DF0089
:100FD00080FD08C081E08093E0008091DF008160A7
:100FE0008093DF002091E100822F2091E200922F78
:100FF0002091E300A22F2091E400B22F9C01AD01CB
:101000002F5F3F4F4F4F5F4FDA01C9018A259B2564
:10101000AC25BD2580709070A070B87F0097A105A9
:10102000B10531F4A216B306C406D506C0F109C055
:10103000D601C501B7705770281739074A075B07F3
:1010400070F180915D01883068F5E0904F03F09079
:10105000500300915103109152030894E11CF11CBC
:10106000011D111DEA14FB040C051D05D9F4809126
:10107000E100282F8091E200382F8091E300482F73
:101080008091E400582F2E153F054007510779F74E
:1010900006C08091DF008E7F8093DF0003C081E077
:1010A00080934B031F910F91FF90EF90DF90CF90B3
:1010B000BF90AF9008951F931FB7F89480914B0392
:1010C000882309F44CC010924B0330914A03332318
:1010D00009F445C080914D038F3F59F480914E0330
:1010E0008F3F39F480914C0380934E0380934D03DE
:1010F00012C020914C0380914E0390E0FC0153E01C
:10110000EE0FFF1F5A95E1F7E80FF91FE051FA4F74
:10111000208720934E0380914C0390E0FC0143E034
:10112000EE0FFF1F4A95E1F7E80FF91FE051FA4F64
:10113000808580934C0380914E0390E0FC0123E076
:10114000EE0FFF1F2A95E1F7E80FF91FE051FA4F64
:101150008FEF8087315030934A030E94C0071FBF32
:101160001F910895FF920F931F93182F823010F054
:101170008AE8C5C0FFB6F8940E945B0800914A0354
:10118000002309F4C0C040914C03302F242F842F3A
:101190001217F1F5212F30E0141781F4F901A3E0C3
:1011A000EE0FFF1FAA95E1F7E20FF31FE051FA4F90
:1011B000808580934C030E94C00718C090E0DC013A
:1011C000E3E0AA0FBB1FEA95E1F7A80FB91FA051F2
:1011D000BA4FF90173E0EE0FFF1F7A95E1F7E20FC6
:1011E000F31FE051FA4F808518968C93812F90E081
:1011F000FC0163E0EE0FFF1F6A95E1F7E80FF91FAE
:10120000E051FA4F8FEF8087015000934A0362C08C
:10121000822F90E0FC0153E0EE0FFF1F5A95E1F79B
:10122000E80FF91FE051FA4F50853150822F09F431
:101230006AC0252FADCF1217D1F520914E03131799
:10124000B1F4121721F48FEF80934E030DC0812F5C
:1012500090E0FC0143E0EE0FFF1F4A95E1F7E80F35
:10126000F91FE051FA4F808580934D0333C0842FDE
:1012700090E0DC0133E0AA0FBB1F3A95E1F7A80F1D
:10128000B91FA051BA4F812F90E0FC0103E0EE0F8F
:10129000FF1F0A95E1F7E80FF91FE051FA4F80852B
:1012A00018968C931217B1F440934E0313C0822FFB
:1012B00090E0FC0173E0EE0FFF1F7A95E1F7E80F75
:1012C000F91FE051FA4F422F20852F3F09F0B3CF8D
:1012D00080E00FC0812F90E0FC0163E0EE0FFF1F64
:1012E0006A95E1F7E80FF91FE051FA4F1582148271
:1012F00081E0FFBE882311F489E801C080E01F91DE
:101300000F91FF90089530914D03232F432FDDCF90
:101310001F930E945B081FEF25C06FB7F894822FC0
:1013200090E0FC01B3E0EE0FFF1FBA95E1F7E80F84
:10133000F91FE051FA4F20854481558186819781BC
:10134000108715821482178216822F3F09F43FEF0F
:101350006FBF4115510551F030934E0320934D035B
:10136000FA01099530914E0320914D032F3FA9F6C4
:1013700030934E0320934D031F9108952F923F9277
:101380004F925F926F927F928F929F92AF92BF9295
:10139000CF92DF92EF92FF920F931F93DF93CF9341
:1013A00000D000D00F92CDB7DEB7582E1801FB82C7
:1013B000EA8201E0081710F48AE820C12114310400
:1013C00009F419C190E09D838C83FC01A3E0EE0F2A
:1013D000FF1FAA95E1F7E80FF91FE051FA4F84814A
:1013E0009581892B11F088E809C1E4E0769567952D
:1013F00057954795EA95D1F72115310529F0213008
:10140000310509F0F8C026C0DB01CA010897A1091F
:10141000B109885F9F4FAF4FB74008F0EEC02091F1
:10142000E100822F2091E200922F2091E300A22F71
:101430002091E400B22F7A018B01E80EF91E0A1FF9
:101440001B1F8FEF9FEFAFEFBFE0E822F9220A23C7
:101450001B2320C02091E100822F2091E200922FD7
:101460002091E300A22F2091E400B22F8A019B017A
:10147000081B190B2A0B3B0BD901C801BF70089739
:10148000A109B109885F9F4FAF4FB74008F0B5C0C1
:101490007A018B012FB72983F8946FEF862E6FEFB7
:1014A000962E6FEFA62E6FE0B62E8E209F20A022E4
:1014B000B1220E945B0860904C033FEF631671F00D
:1014C00040904A03C62CD62C77248FEF9FEFAFEFC6
:1014D000B7E0E822F9220A231B2367C050924C038D
:1014E000EC81FD8153E0EE0FFF1F5A95E1F7AC81CF
:1014F000BD81EA0FFB1FE051FA4F60865AC0BFEF73
:10150000DB1609F44DC06D2D70E0FB0143E0EE0FDA
:10151000FF1F4A95E1F7E60FF71FE051FA4F2081D0
:10152000318142815381D501C40182279327A427A9
:10153000B52780709070A070B87F0097A105B105A5
:1015400039F4281539054A055B0508F46FC007C052
:101550005770E216F3060407150708F467C0EC811C
:10156000FD8133E0EE0FFF1F3A95E1F70C811D81FD
:10157000E00FF11FE051FA4FD0866D1419F450922C
:101580004C0317C08C2D90E0FC0123E0EE0FFF1FF1
:101590002A95E1F7E80FF91FE051FA4F508609C08C
:1015A0008FEFDC2C7394CD2CD82E741408F4A7CFB5
:1015B00049C0EC81FD8193E0EE0FFF1F9A95E1F7A2
:1015C0002C813D81E20FF31FE051FA4F808291821E
:1015D000A282B382358224828A819B81978386830B
:1015E00080914A038F5F80934A030E94C0079981CC
:1015F0009FBF80E003C088EE01C08BE80F900F9082
:101600000F900F900F90CF91DF911F910F91FF904E
:10161000EF90DF90CF90BF90AF909F908F907F9092
:101620006F905F904F903F902F900895FB0183E063
:10163000EE0FFF1F8A95E1F7E60FF71FE051FA4F13
:101640008085B0CF8C2D90E0FC0103E0EE0FFF1FF2
:101650000A95E1F7E80FF91FE051FA4F5086EC8147
:10166000FD8113E0EE0FFF1F1A95E1F7AC81BD81FC
:10167000EA0FFB1FE051FA4F8FEF80879ACF1F923E
:101680000F920FB60F9211242F933F938F939F9336
:101690008091E1009091E2002091E3003091E4001C
:1016A00080934F0390935003209351033093520340
:1016B00080914A03882319F081E080934B039F9126
:1016C0008F913F912F910F900FBE0F901F90189503
:1016D0001F920F920FB60F9211248F938FEF80936A
:1016E000E4008093E3008093E2008093E1008F9117
:1016F0000F900FBE0F901F90189581E008958DB147
:101700008C618DB98EB18C618EB90895813091054F
:10171000B9F08130910518F00297B9F524C0613015
:10172000710549F06130710520F06230710569F58D
:1017300004C072980895729A08958EB194E010C012
:101740006130710549F06130710520F0623071053A
:10175000E1F404C073980895739A08958EB198E0E7
:1017600089278EB908956130710549F0613071059E
:1017700020F06230710549F404C074980895749A99
:1017800008958EB190E189278EB908956D98759866
:101790000895892B19F021E030E00AC08CB1282F80
:1017A00030E085E0369527958A95E1F72170307015
:1017B000C9010895BC01009721F08BEC95E00E94CF
:1017C0000F0C08958BEC95E060E070E00E94A40C93
:1017D00008950F931F93CF93DF938BEC95E00E94B6
:1017E000080CCBEBD5E003E513E0198308838BEC01
:1017F00095E0BE010E940F0C249606561F4F85E00F
:10180000CB3CD80791F7DF91CF911F910F910895AD
:10181000FC01118210821382128214820895CF93E8
:10182000DF93DC01EB019FB7F89414968C91149729
:10183000882321F411967C936E9306C01296ED9145
:10184000FC911397738362831396DC93CE93129764
:101850001B821A8214968C9114978F5F14968C9326
:101860009FBFDF91CF9108959F92AF92BF92CF9289
:10187000DF92EF92FF920F931F93CF93DF938C0130
:101880005B016A019FB6F894DC0114968C91882361
:1018900019F4C0E0D0E04AC0F801C081D1814115FF
:1018A0005105B1F07E0111C0D60112966D917C9167
:1018B0001397ED91FC91888199810995882359F4BA
:1018C0007E018A819B819C01E901209769F72EC0E6
:1018D000209761F17E01AB2849F5F8018081918163
:1018E0002A813B81C817D90719F43183208305C0A9
:1018F000D70113963C932E931297F801828193811E
:10190000C817D90711F4F382E282D80114968C919A
:101910001497815014968C9314978D919C911197E4
:10192000892B21F413961C921E9212979FBECE0112
:10193000DF91CF911F910F91FF90EF90DF90CF90AB
:10194000BF90AF909F900895AB0160E070E00E945F
:10195000340C0895AB0161E070E00E94340C0895EE
:10196000CF93DF93EC010BC0CE0160E070E00E94EA
:10197000A40C009711F41C8205C00E94DA0B8C8124
:10198000882391F7DF91CF9108950F931F93DF93F1
:10199000CF93CDB7DEB728970FB6F894DEBF0FBE52
:1019A000CDBF809141018F71883029F581E080930E
:1019B0004F0189E080934201CE0101960E944A07BF
:1019C0008E010B5F1F4F80914F0180FD14C0C80135
:1019D0000E944A078D819E81AF81B88529813A8115
:1019E0004B815C81821B930BA40BB50B8D3D910544
:1019F000A105B10540F328960FB6F894DEBF0FBEDF
:101A0000CDBFCF91DF911F910F910895CF93DF93B9
:101A1000EC0180912206909123060F9709F033C0C4
:101A2000809139018D7F8093390194E68091410145
:101A30008F718830C9F0915031F480913901826002
:101A400080933901EDCF000000000000000000008D
:101A50000000000000000000000000000000000086
:101A6000000000000000E2CFC830D10519F0C330FB
:101A7000D10549F488E090E09093230680932206F4
:101A800028E030E0E1C18091410190E08F719070D9
:101A90009093230680932206C830D10509F44FC0E5
:101AA000C930D10560F4C430D10509F49AC0C630FC
:101AB000D10509F4A3C0239709F0B9C157C0CF30AD
:101AC000D10579F0C031D10520F4299709F0AFC1D3
:101AD00064C0C631D10509F4CBC0699709F0A7C12C
:101AE00036C183E0809342010E94AB2580936D0153
:101AF00080916E019770887F982B90936E01000003
:101B000000000000000000000000000000000000D5
:101B100000000000000000000000000000008091B4
:101B2000390182608093390183E290E00E9480074E
:101B3000D0932306C09322062FE030E085C108979A
:101B400009F475C188E080934201000000000000A4
:101B50000000000000000000000000000000000085
:101B60000000000000000000000061C1089709F4B7
:101B70005EC183E08093420100000000000000008D
:101B80000000000000000000000000000000000055
:101B900000000000000000004AC18830910539F1C2
:101BA0008930910520F4069709F041C106C08631BD
:101BB000910519F0499709F03AC189E080934201F3
:101BC0000000000000000000000000000000000015
:101BD0000000000000000000000000000000000005
:101BE00026C18830910519F0099721F420C10E947F
:101BF000C50C1DC184E08093420119C18930910553
:101C000069F08A30910520F4089709F010C11AC0D4
:101C10008631910519F0499709F009C186E0809352
:101C20004201000000000000000000000000000071
:101C300000000000000000000000000000000000A4
:101C40000000F5C00E94C50C86E0809342010000B0
:101C50000000000000000000000000000000000084
:101C60000000000000000000000000000000DFC0D5
:101C70008830910509F18930910520F4069709F023
:101C8000D6C030C08930910519F0499709F0CFC00E
:101C900086E1809342010000000000000000000087
:101CA0000000000000000000000000000000000034
:101CB000000000000000BBC00E94C50C86E18093BC
:101CC00042010000000000000000000000000000D1
:101CD0000000000000000000000000000000000004
:101CE0000000A5C089E080934201000000000000D0
:101CF00000000000000000000000000000000000E4
:101D00000000000000000000000080914101282F29
:101D100030E02F7130703093230620932206293053
:101D2000310509F091C086E1809342010000000076
:101D300000000000000000000000000000000000A3
:101D400000000000000000000000000070C08830AB
:101D5000910509F457C08930910520F4069709F0E0
:101D600066C01BC08930910521F0469709F05FC01D
:101D700014C089E1809342010000000000000000CF
:101D80000000000000000000000000000000000053
:101D900000000000000000004AC089E0809342017A
:101DA0000000000000000000000000000000000033
:101DB0000000000000000000000000000000000023
:101DC00080914101282F30E02F713070309323062D
:101DD000209322062930310509F036C089E180932D
:101DE00042010000000000000000000000000000B0
:101DF00000000000000000000000000000000000E3
:101E0000000015C00E94C50C89E1809342010000CA
:101E100000000000000000000000000000000000C2
:101E200000000000000000000000000000008091A1
:101E30004101282F30E02F7130702F313105B9F377
:101E40002093220630932306C901DF91CF91089594
:101E5000809113068823E9F080912C068823C9F429
:101E60008091D0059091D105892B39F48AE90E949F
:101E7000E20B9093D1058093D0058091D00590918D
:101E8000D105892B31F01092130686E190E00E9473
:101E9000060D80911806882351F084E196E060E0F9
:101EA00070E00E94A40C009711F00E945E0F8091D8
:101EB0002C06823011F40E94BC100895EF92FF921C
:101EC0000F931F93CF93DF937C01DC010D911C9145
:101ED000D8011696ED91FC91179780818093250685
:101EE000C82FD0E02196CE0FDF1F988129812D3396
:101EF00010F02CE303C0222309F421E0929596957B
:101F0000969593708FEF989FC001112430E0FC01EB
:101F1000E29FC001E39F900DF29F900D112464EBAE
:101F200070E00E94D0246F3F710511F008F06FEF50
:101F30006883D8011296FC92EE921197C8010E9414
:101F4000CC17DF91CF911F910F91FF90EF900895E3
:101F5000CF92DF92EF92FF920F931F93CF93DF9375
:101F6000E091D005F091D105309709F44AC0C081C5
:101F7000D181C0904701D0907B01D7FC42C082E064
:101F8000D80E0AE910E00D191109EEEFDE0E0C0F64
:101F90001D1FED2CFF2497012F5F3F4FC80160E804
:101FA00071E0A9010E94BB25F801D292FF83EE8364
:101FB000EE0EFF1EF701C28280914C018F77809355
:101FC0004C0180914C01806880934C016091D00558
:101FD0007091D10584E196E00E940F0C8AE90E947D
:101FE000E20B9093D1058093D005892B39F489E0D9
:101FF00090E00E94060D81E08093130680E48093B8
:102000004F01DF91CF911F910F91FF90EF90DF90E3
:10201000CF9008951F9310912C061130E9F4809110
:1020200042018295869587708093D2051092D305E0
:1020300082E080932C068091D0059091D105892B68
:1020400039F489E090E00E94060D1093130604C055
:1020500086E190E00E94060D1F9108950F931F9353
:10206000CF93DF93EC018B01442349F090916C01F5
:10207000809121068295807F9F70892B03C080917B
:102080006C018F7080936C010230110598F4442329
:1020900069F090916C0180911906880F8E70917F84
:1020A000892B80936C0110926F0117C080916C0195
:1020B0008E6011C080911D068295807F90912006D0
:1020C000892B80936F0190916C0180911906880F84
:1020D0008E70917F892B80936C0189E190E00E9442
:1020E000060D4997D1F70130110551F4809125066D
:1020F000833118F080E492E005C080E890E002C0EF
:1021000089E090E00E9480071FB7F8948091390120
:10211000826080933901809139018D7F80933901EC
:10212000288130E02150304080E891E0BE01A901D3
:102130000E94BB2581E080932C061FBFDF91CF91C9
:102140001F910F910895FC0180912C06882311F0B6
:1021500086E80895F0931F06E0931E068681978116
:102160009093270680932606009711F488EE089531
:102170000E942E1080E0089510922C068091D205C6
:102180009091D30583309105B9F08430910528F4FE
:10219000009731F00197E1F409C00597C9F412C026
:1021A00060911E0670911F0680E017C060911E06A8
:1021B00070911F0687E811C060911E0670911F067E
:1021C00081EE0BC060911E0670911F0689EE05C05E
:1021D00060911E0670911F0685E80E94571E0895A3
:1021E000282F85FD03C0982F9F7304C0982F9195C9
:1021F0009F719195E0E2F1E08491891734F03F9668
:102200008491981714F0822F0CC0803E3CF08032ED
:102210003CF487FF06C08F71806203C080E201C07A
:102220008FE18068089584E08093190623E020936D
:1022300020068FEF9FEF90930F0680930E069093EA
:102240001206809311068BE080931B0610920D06F8
:1022500080E098EFAFEFB7E08093280690932906CF
:10226000A0932A06B0932B068AE091E090930C0687
:1022700080930B068AE08093240682E080931A06FE
:1022800085E080931D062093210683E80E94F010CC
:102290008093020681E08093100610921C06089538
:1022A00085FD03C0982F9F7304C0982F91959F714F
:1022B0009195E0E2F1E080E02491921724F0291753
:1022C0003CF4815008958F5F31968031A9F780E00A
:1022D000089580910E0690910F068093620190936D
:1022E0006301E3E0F6E0A4E6B1E081918D9386E03E
:1022F000EB30F807D1F78091110690911206809388
:10230000600190936101909148018091100682953F
:10231000880F80769F79892B8093480190916F0177
:10232000809120068F70907F892B80936F01909110
:102330006E0180911C06880F880F880F8870977F28
:10234000892B80936E0190916F0180911D0682957B
:10235000807F9F70892B80936F01909148018091BD
:102360001B068F71907E892B809348018091020615
:102370000E945011909145018F70907F892B80931E
:1023800045010895CF93DF93EB018E3431F0893509
:1023900041F4888180932106EFC0888180931906DB
:1023A000EBC020912206309123062F30310511F425
:1023B00081E8E3C08B3009F4CDC08C3070F48230FA
:1023C00009F487C0833018F48823B1F115C0833035
:1023D00009F490C0843081F466C0833511F18435EE
:1023E00028F48F3459F0803539F410C0873509F45A
:1023F00064C0803F09F48BC084EFBFC09881909384
:10240000200680916F019F70807F5FC088819981D5
:1024100080930E0690930F06809362019093630160
:10242000ABC08881998180931106909312068093A6
:10243000600190936101A0C080912C06882309F06F
:1024400097C080E098EFAFEFB7E0088004C0B69582
:10245000A795979587950A94D2F781709070892BEC
:1024600009F488C02830310519F428E030E008C0AC
:1024700088E090E00E94060D0897D1F726E130E051
:10248000988190931B06809148019F71807E982BC4
:10249000909348012830310509F46EC086E190E040
:1024A0000E94060D69C080912C06882309F060C047
:1024B0008881882309F460C05DC0988190931D06CF
:1024C00080916F019295907F8F70982B90936F0100
:1024D00053C08881809302060E94F0108093020608
:1024E0000E945011909145018F70907F892B8093AD
:1024F000450142C0888180931006909148018295E1
:10250000880F80769F79892B8093480135C0888118
:10251000809303068981809304068A81809305064F
:102520008B81809306068C81809307068D81809332
:1025300008068E81809309068F8180930A06E3E066
:10254000F6E0A4E6B1E081918D9386E0EB30F807E8
:10255000D1F712C0888180931C0690916E01880F7C
:10256000880F880F8870977F892B80936E0104C035
:1025700086E803C088EE01C080E0DF91CF91089526
:102580000F931F93CF93DF93082F809139018D7F95
:102590008093390180EF90E00E948007809139019B
:1025A0008E7F8093390181E090E00E9480078091C6
:1025B000390181608093390120E030E08091410150
:1025C0002F5F3F4F93E0293E390711F485E85FC044
:1025D00090E08F7190708830910581F79093230679
:1025E0008093220680916E01806280936E018091BB
:1025F0004C01806880934C018CE480934E0186E00E
:1026000090E00E94060D10924E01C0E0D0E010E074
:1026100080914601CC0FDD1FCC0FDD1F90E080764E
:10262000907025E0969587952A95E1F7C82BD92BD0
:102630001F5F183069F783E090E00E94060D8091DB
:102640004F0110934F0180E480934F018CE48093FD
:102650004E01CE010E94B0250E94AB2580936D01F2
:1026600080916E019770887F982B90936E0180E027
:102670000E947F140E946D14002311F00E94131118
:102680000E94691110922C061092130680E0DF91CF
:10269000CF911F910F9108951F93182F0E94C01280
:1026A000882361F085E81BC084E196E060E070E07B
:1026B0000E94A40C009711F00E94DA0B809118067A
:1026C000882391F7812F0E94F11488E080934F01B5
:1026D00080E480934F0184E080934F0180E01F915C
:1026E00008950F931F93CF93DF930E94F3068823DF
:1026F00009F0D2C0809139018160809339018091C5
:1027000039018D7F809339018CE791E00E94800729
:10271000809139018E7F8093390181E090E00E94A1
:1027200080078091390181608093390188E080932E
:10273000420120E080914101215009F4ADC090E0B8
:102740008F71907088309105A9F79093230680933C
:10275000220680915C01833809F09EC0A3C0C3E0CB
:10276000D6E00E94AB25899386E0CB30D807C9F725
:10277000809103063091040640910506609106069B
:1027800070910706F0910806B091090650910A066B
:10279000082F015091E0081708F090E0832F815036
:1027A00021E0831708F020E0192F180F91E0181787
:1027B00008F090E0292B842F815031E0841708F035
:1027C00030E0A22FA80F91E0A81708F090E0392B75
:1027D000862F815021E0861708F020E0E32FE80FD4
:1027E00091E0E81708F090E0292B872F815031E025
:1027F000871708F030E0622F680F91E0681708F043
:1028000090E0392B8F2F815021E08F1708F020E0C6
:10281000432F480F91E0481708F090E0292B8B2FA9
:10282000815091E08B1708F090E0322F380F21E0B3
:10283000381708F020E0922B5195591779F43F3F53
:1028400069F44F3F59F46F3F49F4EF3F39F4AF3F1C
:1028500029F41F3F19F40E3F08F081CF81E00E9458
:10286000C0128823C9F485E694E10E94B1058DE584
:1028700094E10E94AC050E94E90B8AE90E94E20BF8
:102880009093D1058093D00584E196E00E94080CD6
:102890000E94E81480E001C085E8DF91CF911F918C
:1028A0000F91089580E090E060E070E048E050E033
:1028B00023E036E00E948D065BCF1F931FB7F8948C
:1028C0000E940A101FBF1F9108951F931FB7F8940D
:1028D0000E94A80F1FBF1F9108958091220690911A
:1028E00023060F9711F082E8089588E090E00E9497
:1028F000060D089711F085E8089580E00895882373
:1029000011F088EE089580912206909123060F978A
:1029100011F481E8089580912C06882381F41092A7
:10292000130688E090E00E94060D0897D1F78FE02B
:1029300090E00E94060D0F9711F480E0089586E85C
:102940000895982F80912C06882311F086E8089529
:10295000983041F488E090E00E94060D1092130632
:1029600088E008958091D0059091D105892B31F0B0
:1029700086E190E00E94060D86E0089581E0809354
:10298000130686E00895FB01882311F084EF089573
:102990008091D405808380E00895FB01882311F0A5
:1029A00084EF089580818093D40520915501992763
:1029B00087FD9095865A9F4F63E070E00E94E42463
:1029C0006F5F6F70207F262B2093550180E0089564
:1029D0001092D405E5E5F1E08081807F808380E07E
:1029E0000895882311F01092D40590915501907F9D
:1029F0008091D4058F70982B9093550108958F92F4
:102A00009F92AF92BF92CF92DF92EF92FF920F937D
:102A10001F93CF93DF9380E880937A0088E08093C0
:102A20007B0089EC80937C0085ED80937A00809117
:102A30007A0084FFFCCF0F2EF0E0EF2EF0E0FF2EA7
:102A4000F0E00F2FF0E01F2FF02DDD2495EDC92EC3
:102A5000C0927A0080917A0084FFFCCF6091780068
:102A60007091790080E090E00E94BB229B01AC0154
:102A7000C801B7010E9494217B018C01D39480E1AD
:102A8000D81631F780917A008F7780937A00109270
:102A90007B0088EC80937C000F2EF0E0AF2EF0E0FE
:102AA000BF2EF0E0CF2EF0E0DF2EF02D992485ED43
:102AB000882EC0E0D4E080927A0080917A0084FF72
:102AC000FCCF609178007091790092E060307907D6
:102AD00078F0CE01861B970BBC0180E090E00E944D
:102AE000BB229B01AC01C601B5010E9463210AC053
:102AF00080E090E00E94BB229B01AC01C601B501C1
:102B00000E9494215B016C01939490E1991699F6CF
:102B100080917A008F7780937A00C801B70120E016
:102B200030E040E85DE30E94C1217B018C01C601D9
:102B3000B50120E030E040E85DE30E94C1219B0147
:102B4000AC01C801B7010E94632127ED33EA40E9D7
:102B50005FE30E94C12126E636E648E853E40E947E
:102B60006321DF91CF911F910F91FF90EF90DF9044
:102B7000CF90BF90AF909F908F90089580E00E947B
:102B80004C130895EF92FF921F93DF93CF93CDB72D
:102B9000DEB7CF57D0400FB6F894DEBF0FBECDBF23
:102BA000909144019F7D9093440198E0909342015D
:102BB0009FE09093760190914C01936090934C012B
:102BC00097EA90934A01882351F481E089831A821D
:102BD00089819A81909381018093800118C08FE749
:102BE000898311E07E010894E11CF11C0E94AB2551
:102BF000F701E10FF11D80831F5F1038B9F7A0E8DE
:102C0000B1E0F70180E801900D928150E1F784E591
:102C100080935C0186E480935C0189E090E00E94EF
:102C2000060D8091390182608093390180913901CC
:102C30008D7F80933901C158DF4F0FB6F894DEBF06
:102C40000FBECDBFCF91DF911F91FF90EF90089500
:102C5000EF92FF920F931F93CF93DF9310924E0149
:102C6000E0902206F09023068FE0E816F10421F4AC
:102C700088E090E00E94060D809151018F7E809344
:102C80005101809151018F608093510185E090E066
:102C90000E9480078091510185FD10C080915101F3
:102CA000807F8093510182E090E00E9480078091B4
:102CB000510185FD62C0C0E0D0E041C0809151016A
:102CC000806180935101809151018F608093510107
:102CD00085E090E00E9480078091510185FD02C04F
:102CE00001E04CC0CFEFDFEF2AC080915101912F5E
:102CF0009F70807F982B9093510182E090E00E941A
:102D000080078091510185FD07C0112311F490E0E7
:102D100007C0912F915004C01F5F103131F79FE021
:102D2000002339F08BE4989FE0011124CA50D64F5C
:102D300006C082E3989FE0011124CC55D94F8091C1
:102D40004F018FE0E816F10421F48FE090E00E943B
:102D5000060D88E080934F0180E480934F0184E06A
:102D600080934F018CE480934E01CE01DF91CF918F
:102D70001F910F91FF90EF90089500E010E0B5CF04
:102D80001F9386E090E00E94060D0697D1F7809190
:102D900055018068809355018FEF8093470180E84B
:102DA00090E00E94800780914F0184FFFCCF9091BA
:102DB0004701983310F01FEF09C08FEF989FC001B3
:102DC000112467E370E00E94D024162F80914F01F8
:102DD000809155018F778093550188E090E00E94A3
:102DE000060D812F1F91089588E090E00E94060D46
:102DF0000897D1F78091550180688093550186E04E
:102E000090E00E94060D0697D1F7809148018068F6
:102E10008093480180E990E00E9480078091410101
:102E200087FFFCCF88E090E00E94060D8091410171
:102E300086FD02C090E001C094E0809155018F773B
:102E400080935501892F08950F931F938C01DC0106
:102E5000ED91FC91818162810E94BC02C8010E94B7
:102E6000DA0B1F910F9108950F931F938C01DC01D2
:102E7000ED91FC9181810E94F200C8010E94DA0B61
:102E80001F910F9108950F931F938C01DC01ED9119
:102E9000FC9181810E948F03C8010E94DA0B1F916F
:102EA0000F9108950F931F938C01DC01ED91FC911C
:102EB000818162813396AF010E949B02C8010E940A
:102EC000DA0B1F910F9108950F931F938C01DC0172
:102ED000ED91FC91818162810E94F300C8010E9402
:102EE000DA0B1F910F910895CF92DF92EF920F931B
:102EF000DF93CF93CDB7DEB766970FB6F894DEBFFA
:102F00000FBECDBF6C01DC01ED91FC918181898305
:102F1000828193819B838A839E012C5F3F4FAF0107
:102F20004C5F5F4F88E0DA010D90AD01D9010D9241
:102F30009D018150C1F784858C87858596859E8704
:102F40008D879E01215F3F4FAF01415F5F4F88E05A
:102F5000DA010D90AD01D9010D929D018150C1F7AB
:102F6000228D338DCE010196BE01645F7F4F418D6E
:102F70000789E08C0E948C01C6010E94DA0B6696DC
:102F80000FB6F894DEBF0FBECDBFCF91DF910F918A
:102F9000EF90DF90CF900895FC01108261817281E3
:102FA0006115710521F088E496E00E940F0C0895E8
:102FB0000F931F93CF93DF93EC01E881F981A681F2
:102FC000B7817C9170935A06FD01E70FF11D818155
:102FD0008093730611964D915C9112975093580609
:102FE0004093570613968C91139780935B068D013F
:102FF0000C5F1F4F652F6295669566956370352F40
:1030000036953695337019F4F80120E049C01496CE
:103010008D919C91159790935E0680935D06FD01BE
:1030200036963230E1F410925F06109260061092EC
:103030006106109262061092630610926406109266
:1030400065061092660616968D919C91179790933F
:10305000600680935F06FD01389624E021C033307E
:1030600011F022E01DC016968C91169780935F0692
:103070008181809360068281809361068381809341
:1030800062068481809363068581809364068681CD
:1030900080936506878180936606FD013E962AE04F
:1030A000662309F447C046FD08C081919191909331
:1030B0006906809368062E5F08C080915D06909136
:1030C0005E0690936906809368066230C1F41092A0
:1030D0006A0610926B0610926C0610926D061092A2
:1030E0006E0610926F061092700610927106808123
:1030F000918190936B0680936A062E5F1BC06330AC
:10310000C9F4808180936A06818180936B068281F5
:1031100080936C06838180936D06848180936E0614
:10312000858180936F068681809370068781809366
:103130007106285F972F9550921B909374066093A9
:10314000670630935C0643FDC3C0D801A20FB11DD2
:10315000842F877080935906833021F48C9180935B
:10316000720663C0813009F451C0813020F0833091
:1031700009F0AEC05AC08D919C911197909376063C
:103180008093750612968C911297809377068770BC
:1031900011F493E002C0982F9C5FFD01E90FF11D2F
:1031A000808180937806292F2F5F382F377090E029
:1031B0008077907044E0959587954A95E1F7482F80
:1031C000332311F4882389F0CD01820F911D909350
:1031D0007A0680937906332311F0330F230F4423AB
:1031E00021F0440F440F440F240F809174062817D8
:1031F00050F4821B80937B06A20FB11DB0937D0615
:10320000A0937C0669C010927B0666C0992351F09A
:10321000963718F086E780937406B0937606A093ED
:1032200075065AC01092740657C080917206873096
:1032300009F452C0883021F0843009F049C04CC0F4
:1032400011968D919C9112979093760680937506B6
:1032500013968D919C91149790937806809377069E
:1032600015968C9115978093790616968D919C9161
:10327000179790937B0680937A0654FF2DC018967B
:103280008C9180937C0628C080915906833061F42C
:1032900080917206843011F0873031F488E496E032
:1032A000BE010E940F0C1DC080913906882381F455
:1032B00080914006882361F480917E06882341F442
:1032C00080915906813021F4CE010E94B51909C0C0
:1032D000CE010E94DA0B05C080917F068823A1F6FB
:1032E000E3CFDF91CF911F910F910895DC01ED9114
:1032F000FC911197E081E43278F4F0E0EE0FFF1FCB
:10330000E05DFE4F259134912115310519F0F90149
:10331000099508950E94DA0B08951F9380917F0606
:10332000882381F480913F06882361F08BE396E047
:1033300060E070E00E94A40C009721F00E947619D2
:1033400011E001C010E080914C06882359F088E418
:1033500096E060E070E00E94A40C009719F00E94D3
:10336000761911E0812F1F910895CF93DF93AC015F
:10337000FC019081218180917406882309F452C058
:10338000E92FF22F80915B06808F80916706818301
:103390008250823080F48091680690916906938310
:1033A0008283EF012496AAE6B6E088E00D900992A8
:1033B0008150E1F70AC013821282148215821682AC
:1033C00017821086118612861386208D80912D0615
:1033D000281761F5948180913006981739F5958109
:1033E00080913106981711F59681809132069817D1
:1033F000E9F49781809133069817C1F49085809104
:103400003406981799F4918580913506981771F4D0
:10341000928580913606981749F4938580913706F6
:10342000981721F4CA010E94DA0B55C020932D068B
:1034300084818093300685818093310686818093D4
:103440003206878180933306808580933406818598
:103450008093350682858093360683858093370670
:1034600020915C0624871786108A118A128A138A93
:10347000148A158A168A80915D0690915E06968759
:103480008587233051F4EF012F96AFE5B6E088E051
:103490000D9009928150E1F70BC0223039F48091F0
:1034A0005F0690916006908B878702C0168615860E
:1034B00080917306878B80917406818F8091750649
:1034C00090917606938F828F81E1808381E896E0E8
:1034D000BA010E940F0C0E94B31BDF91CF91089597
:1034E000DC01ED91FC91119780E18083418362833F
:1034F00081E896E0BD010E940F0C0895CF92DF9203
:10350000EF92FF920F931F93DF93CF93CDB7DEB768
:1035100062970FB6F894DEBF0FBECDBF8C01DE01FF
:103520001196FC01808191819C01F90182E1019059
:103530000D928150E1F78F8582FD11C0809139068F
:10354000882321F480914006882349F09E85D80184
:10355000ED91FC9180E18083918381EEB5C0F8010B
:10356000C080D1808DE0D6018C938E8513968C938C
:10357000888945E0F42EF80EE8E9F0E0E81BF1094F
:10358000EC0DFD1D9A81923051F437E0F32EF80EC8
:1035900080911106909112069293829312C09330FB
:1035A00081F438972DE0F22EF80E9F0143E056E0AB
:1035B00088E0DA010D90AD01D9010D929D01815095
:1035C000C1F720910E0630910F068C819D8128173E
:1035D000390749F48A81882331F08B81882319F0D7
:1035E00040E450E009C08A81882321F0B2E0FB0E5C
:1035F0003293229340E050E08B81882311F1823096
:1036000039F46F2D6E5F8E819F819293829312C0E9
:1036100038976F2D685F9F0196E0E92EF12CEC0E34
:10362000FD1E88E0D7010D907D01D9010D929D010D
:103630008150C1F782E0F82EF60E8C819D81929325
:1036400082938091420682938F5F80934206BA01F3
:1036500061608F8580FF02C0BA0161628889873608
:1036600008F070618B81382F330F330F20E04A81CF
:10367000942F9295990F990F907C80E0282B392BED
:10368000262B372B329322933296F7FC15C03397B3
:10369000F082D6011796FC93EE9316970E948E1B2C
:1036A000F60112830183C60162E070E041E00E94EE
:1036B000A310882381F013C09E85D801ED91FC9161
:1036C00080E18083918385EE828381E896E0B80172
:1036D0000E940F0C14C081E080937F0610C09E856D
:1036E000D801ED91FC9180E18083918381EE82830A
:1036F00081E896E0B8010E940F0C0E94B31B62960D
:103700000FB6F894DEBF0FBECDBFCF91DF911F91F2
:103710000F91FF90EF90DF90CF90089580918006F9
:10372000813051F40E946D14853831F081E090E0D1
:103730000E94490710928006089580918006882390
:1037400089F480E090E00E94490780E00E947F14A5
:10375000882321F481E080938006089581E090E041
:103760000E944907089580912E06882331F48091A4
:103770004706882311F40E949D1B08951F93182F5C
:1037800010927F0610927E061092800610924006DC
:10379000109241061092390610922D068FEF8093F9
:1037A00030068093310680933206809333068093EF
:1037B0003406809335068093360680933706109240
:1037C000470688E00E94A114112351F180E098E798
:1037D00090934E0680934D061092380681E08093B8
:1037E0003A0686E080932F0610924F0610925006FC
:1037F00010925106109252061092530610925406DF
:1038000010925506109256068FEF9FEF9093460642
:10381000809345060E94AB258093420610922E06A7
:103820001F9108950F931F93CF93DF93EC010881AD
:1038300019810E948E1BF801018180E090E00E94B6
:10384000490780E0011181E00E944C13182F81E0AC
:1038500090E00E944907802F0E94BE1B0E94B31B6C
:103860008BE396E00E94B00C88E496E00E94B00CD6
:1038700081E896E00E94B00CE881F981118380E232
:10388000808381E896E0BE010E940F0CDF91CF910A
:103890001F910F910895DF93CF9300D000D0CDB743
:1038A000DEB70E948E1B8FEF9FEF9A8389839C83E4
:1038B0008B8383E5BE016F5F7F4F0E94A41C80E570
:1038C000BE016D5F7F4F0E94A41C81E00E94BE1B61
:1038D0000E94B31B0F900F900F900F90CF91DF912C
:1038E00008950E947113882399F40E947D0B882308
:1038F00079F081E00E94BE1B0E94B31B8BE396E02F
:103900000E94080C88E496E00E94080C80E008956C
:1039100085E80895E82F883030F4E82FF0E0E85883
:10392000FE4F849108958054803228F4F0E0E05CEA
:10393000FE4F84910895E03F10F480E00895F0E098
:10394000E055FF4F849108951F93CF93DF93182F75
:10395000EB0180918006813051F40E948E1B812FF3
:10396000BE010E94C211182F0E94B31B04C0812FF8
:103970000E94C211182F812FDF91CF911F910895BE
:10398000FF920F931F93CF93DF93182FEB01F42E29
:103990008C3409F46AC08D34F0F4833409F479C0AE
:1039A000843460F4853038F4823008F072C08823A3
:1039B00009F46FC02AC0823441F529C0873409F464
:1039C00068C0883418F4843401F52AC08A3469F157
:1039D0008B34D9F443C0853558F4833508F059C089
:1039E0008E3498F0813508F454C0823571F441C0AA
:1039F000893509F44EC08A3518F4873531F449C049
:103A00008A3539F0803F09F444C004EF55C008EE10
:103A100053C08881998190934E0680934D0603C0D0
:103A2000888180932F0600E047C0888180934F06ED
:103A30008981809350068A81809351068B8180937F
:103A400052068C81809353068D81809354068E811B
:103A5000809355068F8180935606E5CF88819981A2
:103A60009093460680934506DECF88818093420678
:103A7000DACF6881611161E060932E06662331F030
:103A80000E948E1B86E00E94A114CDCF0E94B31B22
:103A9000CACF812FBE010E94C211082F813861F464
:103AA0000E946D14812FBE010E94C211082F88232D
:103AB00019F481E08093D505FF2049F08091D50568
:103AC000882329F080E00E947F141092D505802F72
:103AD000DF91CF911F910F91FF900895EF92FF9288
:103AE0000F931F937C01FC0100811181B8016E5F6F
:103AF0007F4FF801818141E00E94C01CF801918153
:103B000092839FE19083818381E896E0B7010E94D0
:103B10000F0C1F910F91FF90EF900895CF93DF93BB
:103B2000AC01DC01ED91FC919F012D5F3F4F818144
:103B30008B3409F472C08C3410F5843009F453C00E
:103B4000853060F4813009F491C0813008F48BC075
:103B5000823009F498C08330B1F598C0873009F4F9
:103B60004DC0883030F4853009F440C0863059F5B6
:103B700042C0823409F445C08A3429F545C08335F2
:103B800009F461C0843588F48F3409F451C080355C
:103B900030F48C3409F446C08E34A9F446C0803524
:103BA00009F449C0823579F44BC08A35A1F08B35D0
:103BB00028F4873551F0893531F40AC08D3581F00C
:103BC000803F09F447C094EF65C080911D0660C036
:103BD000809121065DC080914D0690914E0637C0C0
:103BE0008091380655C080910D0652C080910B0619
:103BF00090910C062CC0809124064AC080911A0630
:103C000047C080913A0644C0E901AFE4B6E088E0DD
:103C10000D9009928150E1F73CC08091450690914A
:103C2000460615C08091420633C08091190630C007
:103C3000809120062DC080910E0690910F0607C03E
:103C400080912E0625C080911106909112069483D2
:103C500083831FC0E901A3E0B6E088E00D900992DC
:103C60008150E1F716C080911B0612C08091280692
:103C700090912906A0912A06B0912B068383948304
:103C8000A583B68306C08091020602C0809110060B
:103C9000838390E0818182838EE18083918381E8B8
:103CA00096E0BA010E940F0CDF91CF910895282F62
:103CB000FB0110927F0680818D3031F481819281E9
:103CC000622F43810E94701A0E94B31B0895EF92E5
:103CD000FF920F931F931092470680912E06882320
:103CE000C9F4809180068823A9F488E00E94A11479
:103CF000883071F080E040E850E060E070E020E063
:103D000030E007E61EE1EE24FF240E94BE0902C057
:103D10000E94B31B1F910F91FF90EF900895DF92C7
:103D2000EF92FF920F931F93CF93DF93EC01E88103
:103D3000F981E680F78000851185E114F104010521
:103D4000110539F480E090E00E94671EE881F98156
:103D500047C0809139068823F1F580914006882379
:103D6000D1F50E948E1B86E00E94A114D82E81E01E
:103D70008093470680E00E94AD07882319F080E019
:103D80000E94B20884E0EE0CFF1C001F111F8A95F0
:103D9000D1F780E0B801A70120E030E007E61EE19E
:103DA000EE24FF240E94BE09882381F0E881F98176
:103DB00081E2808388EE818381E896E0BE010E94E3
:103DC0000F0C80E090E00E94671E12C0E881F9812C
:103DD00086E0D81629F081E2808382EF818303C0D8
:103DE00081E28083118281E896E0BE010E940F0C7F
:103DF000DF91CF911F910F91FF90EF90DF90089589
:103E00007F928F929F92AF92BF92CF92DF92EF926A
:103E1000FF920F931F93782E6A017B01480159018D
:103E20008AE90E94E20BDC01009711F480E014C0E3
:103E3000ED91FC9111978AE080837182C282D382D6
:103E4000E482F58286829782A086B1868BE396E033
:103E5000BD010E940F0C81E01F910F91FF90EF9028
:103E6000DF90CF90BF90AF909F908F907F900895FC
:103E70001F93182F8AE90E94E20BDC01009711F4CE
:103E800080E00CC0ED91FC91119788E08083118354
:103E90008BE396E0BD010E940F0C81E01F91089515
:103EA0001F93182F8AE90E94E20BDC01009711F49E
:103EB00080E00CC0ED91FC91119789E08083118323
:103EC0008BE396E0BD010E940F0C81E01F910895E5
:103ED000FF920F931F93CF93DF93182F062FF72E88
:103EE0008AE90E94E20BEC01009711F480E016C011
:103EF000812F0E948A1C482FE881F98186E0808307
:103F000011833296CF01602F7F2D50E00E94BB2598
:103F10008BE396E0BE010E940F0C81E0DF91CF9110
:103F20001F910F91FF900895AF92BF92CF92DF92B1
:103F3000EF92FF920F931F93CF93DF93D82EEB0155
:103F4000F42EB22EA32EC02E86E7841708F445C0A7
:103F50008AE90E94E20B8C01009709F43EC0DC0163
:103F6000ED91FC9183E08083D18228812283898135
:103F70009A8194838383CF010596AE014D5F5F4F95
:103F8000223069F4158216821782108611861286F5
:103F9000138614868B819C819683858307C0EC01F0
:103FA000DA0188E00D9009928150E1F7C586E68636
:103FB000F78628E930E02F1931092E0F3F1FC9017C
:103FC0006B2D7A2D4F2D50E00E94BB258BE396E0A0
:103FD000B8010E940F0C81E001C080E0DF91CF9119
:103FE0001F910F91FF90EF90DF90CF90BF90AF9017
:103FF00008951F930E948D19182F81E896E060E0C4
:1040000070E00E94A40C009719F00E94761911E04C
:104010000E94280F0E94F006812F1F91089581E8C9
:1040200096E00E94080C0E94711C08950895A0E07B
:10403000B0E0EDE1F0E20C941925DC012B01FA016E
:104040009C91923008F439C1EB018881823008F4E8
:1040500033C1943069F4843009F02FC111969C91DA
:1040600011978981981709F428C1AEE1B2E025C102
:10407000843009F421C18230A9F4923009F01DC1C5
:104080009A01AD0188E0EA010990AE01E9010992C7
:104090009E018150C1F7E201898111969C9189238B
:1040A000818308C1923009F407C112962D903C908B
:1040B0001397EB018A819B811496AD90BD90CD90B2
:1040C000DC901797EC80FD800E811F819101281BE9
:1040D000390BB90137FF04C066277727621B730BC2
:1040E000603271050CF061C0121613066CF53701D1
:1040F0004801062E04C096948794779467940A9496
:10410000D2F721E030E040E050E004C0220F331F3E
:10411000441F551F6A95D2F721503040404050400F
:104120002E213F2140235123211531054105510501
:1041300021F021E030E040E050E079018A01E628FA
:10414000F728082919293CC0232BD1F1260E371E48
:1041500035014601062E04C096948794779467949F
:104160000A94D2F721E030E040E050E004C0220F92
:10417000331F441F551F6A95D2F7215030404040ED
:1041800050402A213B214C215D212115310541055B
:10419000510521F021E030E040E050E059016A0192
:1041A000A628B728C828D9280BC0821593052CF05B
:1041B0001C01AA24BB24650103C0EE24FF2487014F
:1041C00011969C91D20111968C91981709F445C0D3
:1041D000992339F0A80197012A193B094C095D0977
:1041E00006C0A60195012E193F09400B510B57FD42
:1041F00008C0118233822282248335834683578309
:104200001DC081E081833382228288279927DC01C7
:10421000821B930BA40BB50B84839583A683B78372
:104220000DC0220F331F441F551F2483358346833F
:10423000578382819381019793838283248135817F
:1042400046815781DA01C9010197A109B1098F5F40
:104250009F4FAF4FBF4328F30BC09183338222821D
:10426000EA0CFB1C0C1D1D1DE482F58206831783DE
:1042700083E08083248135814681578157FF1AC0AE
:10428000C901AA2797FDA095BA2F81709070A070E0
:10429000B0705695479537952795822B932BA42B75
:1042A000B52B84839583A683B783828193810196FE
:1042B00093838283DF0101C0D201CD01CDB7DEB788
:1042C000E2E10C943525A0E2B0E0E9E6F1E20C94DD
:1042D000252569837A838B839C832D833E834F833B
:1042E0005887E9E0EE2EF12CEC0EFD1ECE01019672
:1042F000B7010E9458248E010F5E1F4FCE01059614
:10430000B8010E9458248A8991E089278A8BC701C5
:10431000B801AE01475E5F4F0E9417200E948323C1
:10432000A096E6E00C944125A0E2B0E0EAE9F1E2D3
:104330000C94252569837A838B839C832D833E830C
:104340004F835887F9E0EF2EF12CEC0EFD1ECE01C5
:104350000196B7010E9458248E010F5E1F4FCE01B7
:104360000596B8010E945824C701B801AE01475E06
:104370005F4F0E9417200E948323A096E6E00C94D2
:104380004125A0E2B0E0E7ECF1E20C941925698345
:104390007A838B839C832D833E834F835887CE0102
:1043A0000196BE01675F7F4F0E945824CE0105969B
:1043B000BE016F5E7F4F0E9458249985923088F02D
:1043C00089898230C8F0943019F4823051F404C0E5
:1043D000843029F4923081F48EE192E0C6C09230AC
:1043E00049F420E09A858A89981321E02A87CE0132
:1043F0000996BBC0823049F420E09A858A899813D7
:1044000021E02A8BCE014196B0C02D843E844F849A
:1044100058886D887E888F88988CEE24FF248701C9
:10442000AA24BB24650140E050E060E070E0E0E0D9
:10443000F0E0C10181709070892BE9F0E60CF71C67
:10444000081D191D9A01AB012A0D3B1D4C1D5D1D58
:1044500080E090E0A0E0B0E0E614F704080519055C
:1044600020F481E090E0A0E0B0E0BA01A901480F9B
:10447000591F6A1F7B1FAA0CBB1CCC1CDD1C97FE9E
:1044800008C081E090E0A0E0B0E0A82AB92ACA2ADA
:10449000DB2A3196E032F10549F0660C771C881C66
:1044A000991C5694479437942794C3CFFA85EA8988
:1044B0002B893C898B859C85280F391F2E5F3F4FA8
:1044C00017C0CA0181709070892B61F0169507950D
:1044D000F794E79480E090E0A0E0B0E8E82AF92AB9
:1044E0000A2B1B2B76956795579547952F5F3F4F66
:1044F00077FDE7CF0CC0440F551F661F771F17FDD0
:104500004160EE0CFF1C001F111F21503040403055
:1045100090E0590790E0690790E4790760F32B8FEA
:104520003C8FDB01CA018F779070A070B07080342F
:104530009105A105B10561F447FD0AC0E114F1043C
:104540000105110529F0405C5F4F6F4F7F4F4078A8
:104550001A8EFE1711F081E08A8F4D8F5E8F6F8F5C
:1045600078A383E0898FCE0149960E948323A09689
:10457000E2E10C943525A8E0B0E0E1ECF2E20C9425
:1045800021257B018C01611571058105910519F4C7
:1045900082E0898360C083E089838EE1C82ED12CBC
:1045A000DC82CB82ED82FE820F831887C801B701BF
:1045B0000E943423FC013197F7FF3BC022273327A9
:1045C0002E1B3F0B57016801022E04C0D694C794DE
:1045D000B794A7940A94D2F740E050E060E070E00E
:1045E00081E090E0A0E0B0E004C0880F991FAA1F0E
:1045F000BB1F2A95D2F70197A109B1098E219F21EE
:10460000A023B1230097A105B10521F041E050E0BE
:1046100060E070E04A295B296C297D294D835E8327
:104620006F8378878EE190E08E1B9F0B9C838B833A
:1046300012C0309781F00E2E04C0EE0CFF1C001F3C
:10464000111F0A94D2F7ED82FE820F831887CE1ACB
:10465000DF0ADC82CB821A82CE0101960E9483237C
:104660002896EAE00C943D25EF92FF920F931F935A
:104670007B018C0180E0E81680E0F80681E0080705
:1046800080E0180788F48FEFE816F10401051105A2
:1046900031F028F088E090E0A0E0B0E017C080E0C2
:1046A00090E0A0E0B0E012C080E0E81680E0F806FC
:1046B00080E0080781E0180728F088E190E0A0E09A
:1046C000B0E004C080E190E0A0E0B0E020E230E0A3
:1046D00040E050E0281B390B4A0B5B0B04C01695D9
:1046E0000795F794E7948A95D2F7F701EA5DFD4FB5
:1046F0008081281B310941095109C9011F910F917E
:10470000FF90EF900895DF92EF92FF920F931F9327
:10471000FC01E480F58006811781D18080818230A0
:1047200048F480E090E0A0E1B0E0E82AF92A0A2B02
:104730001B2BA5C0843009F49FC0823021F4EE24E5
:10474000FF24870105C0E114F1040105110519F4E6
:10475000E0E0F0E096C0628173819FEF62387907F4
:104760000CF05BC022E83FEF261B370B2A313105E6
:104770002CF020E030E040E050E02AC0B801A70172
:10478000022E04C076956795579547950A94D2F7FF
:1047900081E090E0A0E0B0E004C0880F991FAA1F5C
:1047A000BB1F2A95D2F70197A109B1098E219F213C
:1047B000A023B1230097A105B10521F081E090E08D
:1047C000A0E0B0E09A01AB01282B392B4A2B5B2BE0
:1047D000DA01C9018F779070A070B07080349105B4
:1047E000A105B10539F427FF09C0205C3F4F4F4FA9
:1047F0005F4F04C0215C3F4F4F4F5F4FE0E0F0E060
:104800002030A0E03A07A0E04A07A0E45A0710F0E1
:10481000E1E0F0E079018A0127C06038710564F5B4
:10482000FB01E158FF4FD801C7018F779070A0704E
:10483000B07080349105A105B10539F4E7FE0DC0D3
:1048400080E490E0A0E0B0E004C08FE390E0A0E05E
:10485000B0E0E80EF91E0A1F1B1F17FF05C01695D2
:104860000795F794E794319687E016950795F794A6
:10487000E7948A95D1F705C0EE24FF248701EFEF76
:10488000F0E06E2F679566276795902F9F77D794F6
:10489000DD24D7948E2F8695492F462B582F5D29DE
:1048A000B701CA011F910F91FF90EF90DF9008951B
:1048B000FC01DB01408151812281622F6F7770E022
:1048C000221F2227221F9381892F880F822B282FB6
:1048D00030E0991F9927991F11969C9311972115E4
:1048E0003105A9F5411551056105710511F482E005
:1048F00037C082E89FEF13969C938E9312979A018C
:10490000AB0167E0220F331F441F551F6A95D1F793
:1049100083E08C930DC0220F331F441F551F129646
:104920008D919C911397019713969C938E93129758
:10493000203080E0380780E0480780E4580758F3CB
:1049400014962D933D934D935C93179708952F3FA5
:10495000310579F4411551056105710519F484E0BB
:104960008C93089564FF03C081E08C9312C01C9265
:1049700010C02F57304013963C932E93129783E02C
:104980008C9387E0440F551F661F771F8A95D1F7D8
:10499000706414964D935D936D937C93179708956F
:1049A000AA1BBB1B51E107C0AA1FBB1FA617B70755
:1049B00010F0A61BB70B881F991F5A95A9F7809571
:1049C0009095BC01CD01089597FB092E07260AD0CA
:1049D00077FD04D0E5DF06D000201AF470956195CC
:1049E0007F4F0895F6F7909581959F4F0895A1E226
:1049F0001A2EAA1BBB1BFD010DC0AA1FBB1FEE1F59
:104A0000FF1FA217B307E407F50720F0A21BB30BA3
:104A1000E40BF50B661F771F881F991F1A9469F71F
:104A200060957095809590959B01AC01BD01CF017B
:104A300008952F923F924F925F926F927F928F9242
:104A40009F92AF92BF92CF92DF92EF92FF920F931D
:104A50001F93CF93DF93CDB7DEB7CA1BDB0B0FB627
:104A6000F894DEBF0FBECDBF09942A8839884888E4
:104A70005F846E847D848C849B84AA84B984C8847A
:104A8000DF80EE80FD800C811B81AA81B981CE0F71
:104A9000D11D0FB6F894DEBF0FBECDBFED01089556
:104AA000AF92BF92CF92DF92EF92FF920F931F933C
:104AB000CF93DF93EC01A880B980CA80DB80A1147A
:104AC000B104C104D10441F484E2A82E89EDB82ECA
:104AD0008BE5C82E87E0D82EC601B5012DE133EF56
:104AE00041E050E00E94562A27EA31E440E050E0DD
:104AF0000E94372A7B018C01C601B5012DE133EFFD
:104B000041E050E00E94562ACA01B9012CEE34EF70
:104B10004FEF5FEF0E94372A6E0D7F1D801F911FA0
:104B200097FF04C06150704080409048688379834B
:104B30008A839B839B013F77C901DF91CF911F91AE
:104B40000F91FF90EF90DF90CF90BF90AF900895BE
:104B50000E945025089586E293E00E945025089512
:104B6000A0E0B0E08093260390932703A09328034E
:104B7000B09329030895FB01DC0102C001900D925E
:104B800041505040D8F708950F931F93CF93DF9370
:104B90008C01EB01009731F46115710519F420E0E7
:104BA00030E038C081E090E06EE070E00E946F2855
:104BB000FC019C01009771F180E88383209771F0DC
:104BC000D387C28781E88383809186069091870688
:104BD000892B21F4F0938706E093860601151105D1
:104BE000C9F0118700878381826083838091880662
:104BF00090918906892B71F4F0938906E0938806D9
:104C000080918A0690918B06892B21F4F0938B0674
:104C1000E0938A06C901DF91CF911F910F9108950A
:104C2000DF93CF93CDB7DEB7FE01359661917191D9
:104C30008091880690918906AF010E945326CF91FA
:104C4000DF9108950F931F93DF93CF93CDB7DEB716
:104C50002E970FB6F894DEBF0FBECDBF0D891E890B
:104C600086E08C831A8309838FEF9FE79E838D8371
:104C70009E01275E3F4FCE0101966F89788DA90175
:104C80000E9453262F813885020F131FF8011082CE
:104C90002E960FB6F894DEBF0FBECDBFCF91DF9139
:104CA0001F910F9108952F923F924F925F926F92B2
:104CB0007F928F929F92AF92BF92CF92DF92EF92AC
:104CC000FF920F931F93DF93CF93CDB7DEB72B9750
:104CD0000FB6F894DEBF0FBECDBF3C012B015A01C9
:104CE000FC0117821682838181FD03C06FEF7FEF85
:104CF000C6C19AE0892E1E010894211C311CF301C3
:104D00002381F20123FD859123FF81912F018823C7
:104D100009F4B2C1853239F423FD859123FF8191D5
:104D20002F01853229F490E0B3010E94AD29E7CF2D
:104D3000982FFF24EE249924FFE1FF15D0F09B3239
:104D400069F09C3228F4903259F0933291F40EC0FD
:104D50009D3249F0903369F441E024C052E0F52AD5
:104D600084E0F82A28C098E0F92A25C0E0E1FE2A6C
:104D700022C0F7FC29C0892F80538A3070F4F6FED8
:104D800005C0989C902C1124980E15C0E89CE02C2E
:104D90001124E80EF0E2FF2A0EC09E3229F4F6FC40
:104DA0006BC140E4F42A07C09C3619F450E8F52A98
:104DB00002C0983649F4F20123FD959123FF9191A9
:104DC0002F01992309F0B8CF892F8554833018F02B
:104DD0008052833038F444E050E0A40EB51E5FE307
:104DE00059830FC0933631F0933779F0933509F03A
:104DF00056C020C0F5018081898342E050E0A40EB6
:104E0000B51E610101E010E012C0F501C080D18043
:104E1000F6FC03C06FEF7FEF02C0692D70E042E047
:104E200050E0A40EB51EC6010E94A2298C015FE7C6
:104E3000F52214C0F501C080D180F6FC03C06FEFED
:104E40007FEF02C0692D70E042E050E0A40EB51E75
:104E5000C6010E9490298C0150E8F52AF3FE07C094
:104E60001AC080E290E0B3010E94AD29EA948E2D31
:104E700090E008171907A8F30EC0F601F7FC85911A
:104E8000F7FE81916F0190E0B3010E94AD29E1101E
:104E9000EA94015010400115110579F7EAC09436E3
:104EA00011F0993669F5F7FE08C0F50120813181CE
:104EB0004281538184E090E00AC0F50180819181B4
:104EC0009C01442737FD4095542F82E090E0A80EC6
:104ED000B91E9FE6F92257FF09C0509540953095BD
:104EE00021953F4F4F4F5F4FE0E8FE2ACA01B901BD
:104EF000A1012AE030E00E94D929D82ED21840C062
:104F0000953729F41F2D1F7E2AE030E01DC01F2D8C
:104F1000197F9F3661F0903720F4983509F0ACC0C6
:104F20000FC0903739F0983709F0A6C004C028E0C8
:104F300030E00AC0106114FD146020E130E004C0CC
:104F400014FD166020E132E017FF08C0F501608112
:104F500071818281938144E050E008C0F501808135
:104F60009181BC0180E090E042E050E0A40EB51ECB
:104F7000A1010E94D929D82ED2188FE7F82EF1224C
:104F8000F6FE0BC05EEFF522D91438F4F4FE07C02C
:104F9000F2FC05C08FEEF82202C01D2D01C0192DB4
:104FA000F4FE0DC0FE01ED0DF11D8081803319F47A
:104FB00099EEF92208C01F5FF2FE05C003C08F2DD5
:104FC000867809F01F5F0F2DF3FC14C0F0FE0FC0B0
:104FD0001E1510F09D2C0BC09D2C9E0C911A1E2DA1
:104FE00006C080E290E0B3010E94AD291F5F1E154C
:104FF000C0F304C01E1510F4E11A01C0EE2404FF32
:105000000FC080E390E0B3010E94AD2902FF1DC0F4
:1050100001FD03C088E790E00EC088E590E00BC07A
:10502000802F867891F001FF02C08BE201C080E200
:10503000F7FC8DE290E0B3010E94AD2906C080E349
:1050400090E0B3010E94AD299A94D914C0F3DA9488
:10505000F101ED0DF11D808190E0B3010E94AD29B9
:10506000DD20A9F706C080E290E0B3010E94AD29DF
:10507000EA94EE20C1F743CEF30166817781CB013C
:105080002B960FB6F894DEBF0FBECDBFCF91DF9148
:105090001F910F91FF90EF90DF90CF90BF90AF9056
:1050A0009F908F907F906F905F904F903F902F9048
:1050B0000895F999FECF92BD81BDF89A992780B5E0
:1050C0000895262FF999FECF1FBA92BD81BD20BD4C
:1050D0000FB6F894FA9AF99A0FBE019608950F93B5
:1050E0001F93CF93DF93689F8001699F100D789F76
:1050F000100D1124C8010E948B28EC01009729F0A3
:1051000060E070E0A8010E949B29CE01DF91CF9161
:105110001F910F910895CF93DF93BC0182309105C9
:1051200010F462E070E0A0918E06B0918F06ED0160
:10513000E0E0F0E040E050E021C0888199818617EE
:10514000970769F48A819B81309719F09383828352
:1051500004C090938F0680938E06FE0134C06817BA
:10516000790738F44115510519F08417950708F4AB
:10517000AC01FE018A819B819C01E9012097E9F63F
:1051800041155105A9F1CA01861B970B049708F434
:10519000BA01E0E0F0E02AC08D919C91119784174C
:1051A0009507F9F46417750781F412968D919C9117
:1051B0001397309719F09383828304C090938F06DE
:1051C00080938E06FD0132964FC0CA01861B970B55
:1051D000FD01E80FF91F6193719302978D939C93E2
:1051E00043C0FD01828193819C01D9011097A1F6F2
:1051F00080918C0690918D06892B41F480912C032F
:1052000090912D0390938D0680938C0640912E03F0
:1052100050912F034115510541F44DB75EB7809170
:105220002A0390912B03481B590B20918C06309137
:105230008D0624173507B0F4CA01821B930B86171D
:10524000970780F0AB014E5F5F4F8417950750F0D2
:10525000420F531F50938D0640938C06F9016193C2
:10526000719302C0E0E0F0E0CF01DF91CF910895AB
:10527000CF93DF93009709F450C0EC0122971B8273
:105280001A82A0918E06B0918F06109709F140E026
:1052900050E0AC17BD0708F1BB83AA83FE01219142
:1052A0003191E20FF31FAE17BF0779F48D919C91F6
:1052B0001197280F391F2E5F3F4F3983288312968D
:1052C0008D919C9113979B838A834115510571F4AD
:1052D000D0938F06C0938E0620C012968D919C911C
:1052E0001397AD01009711F0DC01D3CFFA01D383FE
:1052F000C28321913191E20FF31FCE17DF0769F4CA
:1053000088819981280F391F2E5F3F4FFA01318321
:1053100020838A819B8193838283DF91CF9108953B
:10532000FC010590615070400110D8F78095909570
:105330008E0F9F1F0895DC0101C06D9341505040B6
:10534000E0F70895FC016150704001900110D8F71A
:10535000809590958E0F9F1F08950F931F93CF9365
:10536000DF938C01EB018B8181FF1BC082FF0DC09D
:105370002E813F818C819D812817390764F4E88153
:10538000F9810193F983E88306C0E885F985802FC8
:105390000995892B31F48E819F8101969F838E839D
:1053A00002C00FEF1FEFC801DF91CF911F910F9146
:1053B0000895FA01AA27283051F1203181F1E894AB
:1053C0006F936E7F6E5F7F4F8F4F9F4FAF4FB1E0F8
:1053D0003ED0B4E03CD0670F781F891F9A1FA11DF3
:1053E000680F791F8A1F911DA11D6A0F711D811DF4
:1053F000911DA11D20D009F468943F912AE0269FB9
:1054000011243019305D3193DEF6CF010895462F17
:105410004770405D4193B3E00FD0C9F7F6CF462FF8
:105420004F70405D4A3318F0495D31FD4052419361
:1054300002D0A9F7EACFB4E0A6959795879577951E
:105440006795BA95C9F700976105710508959B01A5
:10545000AC010A2E06945795479537952795BA952E
:10546000C9F7620F731F841F951FA01D0895629FC7
:10547000D001739FF001829FE00DF11D649FE00D4C
:10548000F11D929FF00D839FF00D749FF00D659FAD
:10549000F00D9927729FB00DE11DF91F639FB00DAC
:1054A000E11DF91FBD01CF011124089597FB092EBD
:1054B00005260ED057FD04D09ADA0AD0001C38F425
:1054C00050954095309521953F4F4F4F5F4F089530
:1054D000F6F790958095709561957F4F8F4F9F4F10
:0654E0000895F894FFCFCF
:1054E60066726F6D20307800252E325820003A20E3
:1054F600566363203D202575206D560D0A00000079
:10550600000000000000000102020303030304047C
:10551600040404040404050505050505050505053B
:10552600050505050505060606060606060606061B
:105536000606060606060606060606060606060605
:1055460006060606060607070707070707070707EB
:1055560007070707070707070707070707070707D5
:1055660007070707070707070707070707070707C5
:1055760007070707070707070707070707070707B5
:10558600070707070707080808080808080808089B
:105596000808080808080808080808080808080885
:1055A6000808080808080808080808080808080875
:1055B6000808080808080808080808080808080865
:1055C6000808080808080808080808080808080855
:1055D6000808080808080808080808080808080845
:1055E6000808080808080808080808080808080835
:1055F6000808080808080808080808080808080825
:1056060008080808080801000000200090060000AD
:00000001FF
