:100000000C948D000C94AC000C94AC000C94AC00DF
:100010000C94AC000C94AC000C94AC000C94AC00B0
:100020000C94AC000C94AC000C94AC000C94AC00A0
:100030000C94AC000C94AC000C94AC000C94AC0090
:100040000C9413030C9456070C94AC000C94AC0065
:100050000C9425070C94AC000C94AC000C94AC00F0
:100060000C94AC000C94AC000C94AC000C94AC0060
:100070000C94AC000C94AC000C94AC000C94AC0050
:100080000C94AC000C94AC000C94AC000C94AC0040
:100090000C94AC000C94AC0003020201010000FFC0
:1000A000FEFDFCFBF9F7F4EFE219FA147414BA221E
:1000B000E2207C1F17287625E425F624B82B3A2E5B
:1000C0000000AB2F7C2800009818A81888185E182C
:1000D00077189E17B71740180000000076172717EB
:1000E000F017FC168C1717175817491708176717BA
:1000F00001040101010201010101010101010101EC
:1001000004010802010101010201010201020101D1
:100110000201020201010101080011241FBECFEFFC
:10012000D0E2DEBFCDBF11E0A0E0B1E0E6E2FAE64A
:1001300000E00BBF02C007900D92A430B107D9F7C1
:1001400016E0A4E0B1E001C01D92AD31B107E1F7C6
:100150000E94E2020C9411350C940000089582E094
:1001600090E061E070E00E94B0070895EF92FF9286
:100170000F931F93662399F482E090E060E070E0B3
:100180000E94B00787E040E251EA67E070E020E0BB
:1001900030E00FEA10E0EE24FF240E94FB051F91DF
:1001A0000F91FF90EF900895EF92FF920F931F939E
:1001B00082E090E060E070E00E94B00787E040E2FB
:1001C00051EA67E070E020E030E00FEA10E0EE2452
:1001D000FF240E94FB051F910F91FF90EF9008955F
:1001E000EF92FF920F931F9381E090E062E070E046
:1001F0000E94B00787E040E251EA67E070E020E04B
:1002000030E000EF10E0EE24FF240E94FB051F9178
:100210000F91FF90EF900895EF92FF920F931F932D
:100220006623B9F487E00E94EC0481E090E060E08E
:1002300070E00E94B00786E040E854E86EE170E0AC
:1002400020E030E001E411E0EE24FF240E94FB05F1
:1002500003C081E00E944C321F910F91FF90EF90FC
:100260000895882351F487E00E94EC0481E090E037
:1002700060E070E00E94B007089581E00E944C3277
:100280000895EF92FF920F931F93DF93CF93CDB713
:10029000DEB72C970FB6F894DEBF0FBECDBF82E05D
:1002A0008A838EEB9AEB9C838B83809105019091DE
:1002B00006019E838D830E94863489830091040108
:1002C0000F5F0093040182E0BE016E5F7F4F41E04B
:1002D0009E012F5F3F4FEE24E3940E94603386E03F
:1002E00040E854E86EE170E020E030E001E411E025
:1002F000EE24FF240E94FB052C960FB6F894DEBF77
:100300000FBECDBFCF91DF911F910F91FF90EF9066
:100310000895EF92FF920F931F937C01E0911001DB
:10032000F0911101309709F1809112018217E9F4DF
:10033000809113018317C9F4809114018417A9F4E3
:1003400080911501851789F480911601861769F44B
:1003500080911701871749F4809118018E1529F4AF
:10036000809119018F1509F45DC000911A01109157
:100370001B010115110501F180911C018217E1F4A7
:1003800080911D018317C1F480911E018417A1F48F
:1003900080911F01851781F480912001861761F4F7
:1003A00080912101871741F4809122018E1521F45B
:1003B000809123018F15B9F1EF2B19F4A0E0B0E083
:1003C00004C0012B49F5A1E0B0E08D010F5F1F4F84
:1003D000FD01EE0FFF1FCD01880F991F880F991F98
:1003E000880F991FE80FF91FE05FFE4F118300830C
:1003F000FD01EE0FFF1FEE0FFF1FEA0FFB1FEE0FB9
:10040000FF1FEE5EFE4F208331834283538364835C
:100410007583E682F78207C0C7010FEF1FEFEE2456
:10042000E39403C08F01C701EE240E94D4321F91D0
:100430000F91FF90EF900895AF92CF92EF920F93AC
:10044000DF93CF930F92CDB7DEB7882301F56335E5
:1004500021F481E0898381E405C0613449F481E0BD
:10046000898382E5BE016F5F7F4F0E94C53312C052
:10047000623569F48EEB9AEB64E140E02FE00FE027
:10048000EE24E394CC24AA240E949C3103C081E092
:100490000E944C320F90CF91DF910F91EF90CF904F
:1004A000AF900895CF92DF92EF920F93DF93CF93A7
:1004B00000D0CDB7DEB740910F014F5F40930F01E1
:1004C0008823C1F5F60120E032C08385843169F5C7
:1004D0008485882351F5818192818E5B9A4B29F521
:1004E0008585968597FF21C08081823039F483818C
:1004F0009481909306018093050110C0833089F5A3
:1005000027E031E0AF014D5F5F4F88E0DA010D90E9
:10051000AD01D9010D929D018150C1F7838564859C
:10052000AF0120E80E9411331FC071962F5F2E1576
:1005300060F202C08A3EA9F4433050F481E040E00A
:1005400058EF6FEF77E024E000E00E94CF310CC05D
:1005500019821A8283E5BE016F5F7F4F0E94C53307
:1005600003C081E00E944C320F900F90CF91DF9139
:100570000F91EF90DF90CF900895EF92FF920F933D
:100580001F938823B9F481E040E058EF6FEF77E0E4
:1005900024E000E00E94CF3187E040E251EA67E0CA
:1005A00070E020E030E000EF10E0EE24FF240E9435
:1005B000FB0503C081E00E944C321F910F91FF9018
:1005C000EF9008950E940734882311F00E943E03A3
:1005D0000E94A70780E090E060E070E00E94B00712
:1005E00081E090E061E070E00E94B00782E090E07E
:1005F00061E070E00E94B007789481E00E944C3284
:100600000E94F133FDCF9093250180932401EFE602
:10061000F0E080818F7D8083E1E8F0E0808180647C
:100620008083B59A08951F920F920FB60F920BB662
:100630000F9211242F933F934F935F936F937F9368
:100640008F939F93AF93BF93EF93FF93E091240118
:10065000F09125010995FF91EF91BF91AF919F9185
:100660008F917F916F915F914F913F912F910F905B
:100670000BBE0F900FBE0F901F9018955F985D9A5C
:10068000779A769A579A559A6F9A6E9A8FEF9FEF4C
:100690000E94F7035F9B05C05F985D9A779A769AF0
:1006A000F5CF5F9A5D9877987698F0CFCF92DF92EA
:1006B000EF92FF920F931F93CF93DF937B018A01F9
:1006C0006901892B11F088EE19C0CA01860F971FA6
:1006D0008150904110F085E811C0C0E0D0E00AC020
:1006E000CE018E0D9F1D0E949F34F601EC0FFD1F61
:1006F00080832196C017D10798F380E0DF91CF91D6
:100700001F910F91FF90EF90DF90CF900895CF92BF
:10071000DF92EF92FF920F931F93CF93DF938C01A1
:100720007B016A01CB01800F911F8150904110F035
:1007300085E816C0C0E0D0E00FC0C8010E949F3419
:10074000F601EC0FFD1F6081861719F0C8010E94A9
:10075000A7340F5F1F4F2196CE15DF0570F380E0A1
:10076000DF91CF911F910F91FF90EF90DF90CF908D
:1007700008950E94C205089580E090E020E80FB639
:10078000F89420936100809361000FBE0E94A0073F
:100790000E942F080E94690780E00895892B11F4B8
:1007A00082E401C087E4809381000895FC012091D8
:1007B000070530910805C901A0E0B0E0BC0155274C
:1007C00044278091840090918500A0E0B0E0482B00
:1007D000592B6A2B7B2B80910705909108052817D0
:1007E000390729F7408351836283738308954FB794
:1007F000F8948630910518F120918400309185009D
:10080000280F391F809184009091850082179307EB
:1008100040F4809184009091850082179307C8F37B
:100820000EC0809184009091850028173907C8F385
:10083000809184009091850082179307C8F34FBF81
:10084000089520E090E0FC0153E0EE0FFF1F5A9561
:10085000E1F7E80FF91FE75FFA4F84819581892B53
:1008600009F021E0822F0895DF92EF92FF920F931B
:100870001F93DFB6F894809128018F3F09F453C08D
:1008800090E0FC01A3E0EE0FFF1FAA95E1F7E80F4F
:10089000F91FE75FFA4FE080F18002811381209118
:1008A000070530910805C801AA27BB272817390773
:1008B00051F4F0928900E092880082E086BB80913A
:1008C0006F00826003C080916F008D7F80936F0006
:1008D00060910705709108059B0140E050E0809110
:1008E000840090918500A90133272227A0E0B0E081
:1008F000282B392B4A2B5B2B8091070590910805FB
:100900006817790729F72E193F09400B510B2F5F04
:100910003F4F4F4F5F4F2F5F3F4F4F4F5F4718F491
:1009200081E080932701DFBE1F910F91FF90EF9030
:10093000DF90089580912701882309F44CC010921C
:10094000270130912601332309F445C08091290104
:100950008F3F59F480912A018F3F39F4809128010B
:1009600080932A018093290112C02091280180914F
:100970002A0190E0FC0143E0EE0FFF1F4A95E1F7EA
:10098000E80FF91FE75FFA4F208720932A01809133
:10099000280190E0FC0123E0EE0FFF1F2A95E1F70C
:1009A000E80FF91FE75FFA4F808580932801809157
:1009B0002A0190E0FC01B3E0EE0FFF1FBA95E1F7CA
:1009C000E80FF91FE75FFA4F8FEF808731503093C0
:1009D00026010E9434040895FF920F931F93182F4D
:1009E000883010F08AE8C5C0FFB6F8940E949A04D7
:1009F00000912601002309F4C0C040912801842FF2
:100A0000302F242F1217F1F5212F30E0141781F425
:100A1000F90163E0EE0FFF1F6A95E1F7E20FF31FA4
:100A2000E75FFA4F8085809328010E94340418C044
:100A300090E0DC0153E0AA0FBB1F5A95E1F7A80F25
:100A4000B91FA75FBA4FF90143E0EE0FFF1F4A95A8
:100A5000E1F7E20FF31FE75FFA4F808518968C935A
:100A6000812F90E0FC0123E0EE0FFF1F2A95E1F7B4
:100A7000E80FF91FE75FFA4F8FEF8087015000936F
:100A8000260162C0822F90E0FC01B3E0EE0FFF1F51
:100A9000BA95E1F7E80FF91FE75FFA4F508531503B
:100AA000822F09F46AC0252FADCF1217D1F52091FE
:100AB0002A011317B1F4121721F48FEF80932A0142
:100AC0000DC0812F90E0FC01A3E0EE0FFF1FAA955F
:100AD000E1F7E80FF91FE75FFA4F8085809329015E
:100AE00033C0842F90E0DC01E3E0AA0FBB1FEA953E
:100AF000E1F7A80FB91FA75FBA4F812F90E0FC0163
:100B000073E0EE0FFF1F7A95E1F7E80FF91FE75F3B
:100B1000FA4F808518968C931217B1F440932A01EE
:100B200013C0822F90E0FC0163E0EE0FFF1F6A9577
:100B3000E1F7E80FF91FE75FFA4F422F20852F3FBB
:100B400009F0B3CF80E00FC0812F90E0FC0153E0AB
:100B5000EE0FFF1F5A95E1F7E80FF91FE75FFA4F15
:100B60001582148281E0FFBE882311F489E801C058
:100B700080E01F910F91FF90089530912901432F3C
:100B8000232FDDCF1F931FB7F8940E949A041FBF35
:100B90001FEF25C06FB7F894822F90E0FC0173E03F
:100BA000EE0FFF1F7A95E1F7E80FF91FE75FFA4FA5
:100BB0002085448155818681978110871582148212
:100BC000178216822F3F09F43FEF6FBF4115510581
:100BD00051F030932A0120932901FA0109953091AF
:100BE0002A01209129012F3FA9F630932A01209351
:100BF00029011F9108952F923F924F925F927F9209
:100C00008F929F92AF92BF92CF92DF92EF92FF921C
:100C10000F931F93CF93DF93782E5A016B014901F5
:100C200097E0292E281610F48AE8E2C00115110574
:100C300009F4DBC0C82FD0E0FE0183E0EE0FFF1FF8
:100C40008A95E1F7EC0FFD1FE75FFA4F84819581EC
:100C5000892B11F088E8CCC06091070570910805D8
:100C60009B0140E050E08091840090918500A901B3
:100C700033272227A0E0B0E0282B392B4A2B5B2B0F
:100C800080910705909108056817790729F7811465
:100C9000910431F061E08616910409F0A6C011C0FC
:100CA000D601C50180589040A040B04080589F4F69
:100CB000AF4FBF4708F09BC0A20EB31EC41ED51E87
:100CC00010C0D601C50180589040A040B040821BA2
:100CD000930BA40BB50B80589F4FAF4FBF4708F045
:100CE00086C09FB6F8940E949A04509128015F3FF5
:100CF00031F060912601452F252F30E054C07092CD
:100D00002801FE01A3E0EE0FFF1FAA95E1F7EC0F0B
:100D1000FD1FE75FFA4F508731C02F3F09F43EC0F7
:100D2000822F90E0FC0173E0EE0FFF1F7A95E1F750
:100D3000E80FF91FE75FFA4F80819181A281B381AB
:100D400015012601281A390A4A0A5B0AD201C10193
:100D50008F5F9F4FAF4FBF4710F4808521C0FE01CA
:100D600033E0EE0FFF1F3A95E1F7EC0FFD1FE75F51
:100D7000FA4F2087521721F47092280191E017C092
:100D8000842F90E0FC0123E0EE0FFF1F2A95E1F78E
:100D9000E80FF91FE75FFA4F708655C08FEF242FD9
:100DA0003F5F422F282F361708F4B7CF33C0FE011C
:100DB00083E0EE0FFF1F8A95E1F7EC0FFD1FE75F61
:100DC000FA4FA082B182C282D38215830483F78254
:100DD000E682809126018F5F80932601992311F08E
:100DE0000E9434049FBE80E003C088EE01C08BE8FF
:100DF000DF91CF911F910F91FF90EF90DF90CF90F7
:100E0000BF90AF909F908F907F905F904F903F905A
:100E10002F900895842F90E0FC01B3E0EE0FFF1FA8
:100E2000BA95E1F7E80FF91FE75FFA4F7086FE0108
:100E3000A3E0EE0FFF1FAA95E1F7EC0FFD1FE75FA0
:100E4000FA4F8FEF808790E0B2CF1F920F920FB6CC
:100E50000F920BB60F9211242F933F934F935F93F2
:100E60006F937F938F939F93AF93BF93EF93FF9372
:100E7000809107059091080501969093080580934D
:100E800007050E943404FF91EF91BF91AF919F91AC
:100E90008F917F916F915F914F913F912F910F9023
:100EA0000BBE0F900FBE0F901F9018951F920F92C0
:100EB0000FB60F9211248F9380912601882319F089
:100EC00081E0809327018F910F900FBE0F901F90AC
:100ED0001895109226011092270110920805109281
:100EE00007058FEF809328018093290180932A01C1
:100EF000EDE0F5E0848311821082399695E0E535C6
:100F0000F907C1F70E940C080895FC0180910705BC
:100F1000909108052091860030918700A0E0B0E014
:100F2000DC019927882740E050E0822B932BA42BEB
:100F3000B52B80839183A283B383089581E00895C4
:100F4000209A219A259A229A249A239808955F98A4
:100F50005D9A779A769A579A559A6F9A6E9A0895EB
:100F60008130910551F08130910550F0823091052A
:100F700061F0039709F04FC00BC080E035E002C07C
:100F800081E037E0EBE2F0E007C080E037E002C04C
:100F900080E036E0EEE2F0E06115710521F06130AD
:100FA0007105D1F40BC02081882309F581E090E020
:100FB00002C0880F991F3A95E2F709C0208102C04C
:100FC000660F771F3A95E2F7882321F0862F8095E8
:100FD000282315C0262B13C02081822F90E0032EDA
:100FE00002C0959587950A94E2F780FD0AC081E0DA
:100FF00090E002C0880F991F3A95E2F7282B2083D2
:10100000089581E090E002C0880F991F3A95E2F7B9
:10101000809582238083089582E48093810082E01A
:1010200086BB84E086BB88E086BBEFE6F0E080818B
:101030008160808308958DE480937C0080917A00A4
:10104000866F80937A0080917A0084FFFCCF809134
:10105000780010927C0010927A0090E0089580E56C
:101060008CBD81E08DBD8CB58C7F8CBD289A089598
:1010700020916F0090916F009F7D90936F00806C26
:1010800028988EBD0DB407FEFDCF6EBD0DB407FED2
:10109000FDCF289A20936F00089520916F009091C2
:1010A0006F009F7D90936F00806828988EBD0DB46F
:1010B00007FEFDCF1EBC0DB407FEFDCF8EB5289AEE
:1010C00020936F000895FC01289880E28EBD0DB436
:1010D00007FEFDCF1EBC613089F0DF01262F0DB465
:1010E00007FEFDCF8EB51EBC8D9321502230B8F780
:1010F0006250862F90E00196E80FF91F0DB407FEAD
:10110000FDCF8EB58083289A0895FC01289880E64B
:101110008EBD0DB407FEFDCF819161500DB407FE69
:10112000FDCF8EBD6623C1F70DB407FEFDCF289A13
:101130000895FF920F931F93062FF42E0E944D08DF
:10114000082310E002C015950795FA94E2F7802F66
:101150001F910F91FF900895DF92EF92FF920F93EE
:101160001F93D82EF62EE42E022F0E944D0810E079
:1011700002C0000F111FEA94E2F76F2D6023F09474
:10118000F8226F298D2D0E9438081F910F91FF9032
:10119000EF90DF900895BC01009721F08FED94E06F
:1011A0000E94000908958FED94E060E070E00E94D5
:1011B000950908950F931F93CF93DF938FED94E0DC
:1011C0000E94F908C7ECD4E00BE211E01983088310
:1011D0008FED94E0BE010E940009249606561F4F31
:1011E00084E0CF3DD80791F7DF91CF911F910F9108
:1011F0000895FC01118210821382128214820895D4
:10120000CF93DF93DC01EB019FB7F89414968C9198
:101210001497882321F411967C936E9306C012963E
:10122000ED91FC911397738362831396DC93CE93B5
:1012300012971B821A8214968C9114978F5F1496C2
:101240008C939FBFDF91CF9108959F92AF92BF92F1
:10125000CF92DF92EF92FF920F931F93CF93DF9382
:101260008C015B016A019FB6F894DC0114968C91A5
:10127000882319F4C0E0D0E04AC0F801C081D181D0
:1012800041155105B1F07E0111C0D60112966D9144
:101290007C911397ED91FC91888199810995882320
:1012A00059F47E018A819B819C01E901209769F7AD
:1012B0002EC0209761F17E01AB2849F5F8018081AD
:1012C00091812A813B81C817D90719F43183208382
:1012D00005C0D70113963C932E931297F801828193
:1012E0009381C817D90711F4F382E282D8011496CA
:1012F0008C911497815014968C9314978D919C9196
:101300001197892B21F413961C921E9212979FBE5F
:10131000CE01DF91CF911F910F91FF90EF90DF9061
:10132000CF90BF90AF909F900895AB0160E070E0C8
:101330000E9425090895AB0161E070E00E94250933
:101340000895CF93DF93EC010BC0CE0160E070E015
:101350000E949509009711F41C8205C00E94CB08D9
:101360008C81882391F7DF91CF9108950F931F937C
:10137000DF93CF93CDB7DEB728970FB6F894DEBFD3
:101380000FBECDBF81E06FE140E00E949908883038
:10139000D9F580916F008F7D80936F008EE061E0C2
:1013A0000E9438088FE00E944D0882E069E00E94A8
:1013B0003808CE0101960E94D6038E010B5F1F4FA5
:1013C0008FE00E944D0880FD14C0C8010E94D60322
:1013D0008D819E81AF81B88529813A814B815C8165
:1013E000821B930BA40BB50B89509740A040B040D3
:1013F00038F380E286BB8EE068E00E943808809176
:101400006F00806280936F0028960FB6F894DEBF5D
:101410000FBECDBFCF91DF911F910F9108951F9304
:10142000CF93DF93EC0180917105909172050F9736
:10143000B9F42C9881E06FE140E00E94990888306F
:10144000C9F7C830D10519F0C330D10549F488E097
:1014500090E0909372058093710528E030E011C20E
:1014600081E06FE140E00E9499088093710510923D
:101470007205C930D10509F475C0CA30D10560F4D0
:10148000C630D10509F4FAC0C830D10509F43DC011
:10149000239709F0E8C149C0C631D10509F440C11C
:1014A000C731D10520F42A9709F0DDC176C0C931D2
:1014B000D10509F487C16A9709F0D5C182E063E0DC
:1014C0000E9438080E948634682F192F8DE20E94EE
:1014D00038088EE267E040E0212F0E94AC0800004F
:1014E00000000000000000000000000000002C9A36
:1014F00083E290E00E94F7038FE090E09093720502
:10150000809371052FE030E0BCC1883009F4ABC195
:1015100082E068E00E94380800000000000000003F
:1015200000000000000000009EC1883009F49BC14B
:10153000893159F482E063E00E9438082C9A82E0F5
:1015400090E00E94F7032C988EC182E063E00E9435
:10155000380800000000000000000000000000004B
:10156000000081C1883009F486C0893020F48630BB
:1015700009F079C105C0863119F0893109F073C1CC
:1015800082E069E00E9438080000000000000000CE
:10159000000000000000000066C1883009F46BC044
:1015A000893040F4823069F1863061F0813009F091
:1015B0005AC108C0823109F43EC0863119F0813128
:1015C00009F051C110916F0080916F008F7D809361
:1015D0006F0082E063E00E94380882E069E00E94C8
:1015E00038088FE00E944D0880E286BB10936F00A0
:1015F00000000000000000000000000000000000EB
:1016000032C110916F0080916F008F7D80936F00C9
:1016100082E063E00E94380882E069E00E943808B6
:1016200010936F00000000000000000000000000A8
:101630000000000018C110916F0080916F008F7D35
:1016400080936F0082E063E00E9438082C9882E06B
:1016500090E00E94F7032C9A82E069E00E9438082B
:1016600010936F0000000000000000000000000068
:1016700000000000F8C00E94B609F5C0893061F092
:101680008A3020F4883009F0EEC013C0863101F1B1
:10169000893109F0E8C01CC082E066E00E94380889
:1016A000000000000000000000000000000000003A
:1016B000DAC00E94B60982E066E00E9438080000A5
:1016C0000000000000000000000000000000CBC08F
:1016D00082E069E00E94380800000000000000007D
:1016E000000000000000000081E06FE140E00E9487
:1016F0009908282F30E03093720520937105293026
:10170000310509F0BEC082E066E00E9438080000A2
:101710000000000000000000000000000000A3C066
:101720008830C9F0893020F4863009F09CC022C08E
:10173000893021F0893109F096C01CC082E066E151
:101740000E943808000000000000000000000000B7
:101750000000000088C00E94B60982E066E10E9495
:101760003808000000000000000000000000000039
:10177000000079C082E069E00E94380800000000A3
:1017800000000000000000000000000081E06FE1A8
:1017900040E00E949908282F30E030937205209392
:1017A00071052930310509F06CC082E066E10E94C4
:1017B00038080000000000000000000000000000E9
:1017C000000051C0883009F440C0893020F48630D0
:1017D00009F049C013C0893021F0863109F043C0B7
:1017E0000DC082E069E10E9438080000000000009E
:1017F0000000000000000000000035C082E069E049
:101800000E943808000000000000000000000000F6
:101810000000000081E06FE140E00E949908282F5D
:1018200030E030937205209371052930310549F578
:1018300082E069E10E94380800000000000000001A
:1018400000000000000000000EC00E94B60982E007
:1018500069E10E943808000000000000000000005C
:1018600000000000000081E06FE140E00E94990864
:10187000282F30E030937205209371052F31310508
:1018800091F3C901DF91CF911F9108958091620575
:101890008823F9F080917B0590917C05892BC9F410
:1018A0008091E4049091E504892B39F48AE90E943F
:1018B000D3089093E5048093E4048091E40490912C
:1018C000E504892B31F01092620586E190E00E94D8
:1018D0000F0A80916705882351F083E695E060E068
:1018E00070E00E949509009711F00E94840C80918D
:1018F0007B0590917C05009731F08F70825082308B
:1019000010F40E94DB0D0895EF92FF920F931F9346
:10191000CF93DF937C01DC010D911C91D8011796C8
:10192000ED91FC911897808180937405C82FD0E0C9
:101930002196CE0FDF1F98812981203210F02FE1F0
:1019400003C0222309F421E0929596959695937011
:101950008FEF989FC001112430E0FC01E29FC0018D
:10196000E39F900DF29F900D11246DE570E00E94B1
:1019700017346F3F710511F008F06FEF6883D801DD
:101980001296FC92EE921197C8010E940019DF9105
:10199000CF911F910F91FF90EF900895DF92EF92FA
:1019A000FF920F931F93DF93CF930F92CDB7DEB7C4
:1019B000E091E404F091E5043097C9F1E080F18012
:1019C00087E00E944D08D82ECE01019661E00E946A
:1019D0006308698167FD2BC06D5F0AE910E0061B93
:1019E00011090E0D1F1D6150C8010E946308F70107
:1019F000108707838981080F111DF801D282609139
:101A0000E4047091E50483E695E00E9400098AE908
:101A10000E94D3089093E5048093E404892B39F461
:101A200089E090E00E940F0A81E0809362050F90A8
:101A3000CF91DF911F910F91FF90EF90DF9008956C
:101A400020917B0530917C0522303105A9F5882352
:101A500049F582E060EE45E00E9499088330B1F0DC
:101A6000843028F4882361F08130E1F403C08530AC
:101A7000C9F412C080917B0590917C05806117C0EC
:101A800080917B0590917C05806211C080917B05DF
:101A900090917C0580630BC080917B0590917C05C3
:101AA000806405C080917B0590917C058065909352
:101AB0007C0580937B0508952330310531F483E262
:101AC00090E090937C0580937B0508950F931F937E
:101AD000CF93DF938C01EB01442359F08CE260EF4C
:101AE00044E0209170050E94AC08C230D10528F571
:101AF0000AC06230710538F08CE260EF44E020E00B
:101B00000E94AC081AC089E090E00E940F0A099771
:101B1000D1F783E090E090937C0580937B0521973B
:101B2000C1F480917405833118F080E492E002C022
:101B300080E890E00E94F7030CC089E190E00E94E9
:101B40000F0A4997D1F782E090E090937C0580934B
:101B50007B0580916F008F7D80936F002C9A2C986D
:101B6000F80160816150C8010E94850880916F0072
:101B7000806280936F00DF91CF911F910F91089544
:101B8000FC0180917B0590917C05892B11F086E802
:101B90000895F0936E05E0936D058781908590938D
:101BA000760580937505009711F488EE08950E94DC
:101BB000660D80E0089580917B0590917C059C01E5
:101BC000207F30708F7090708230910521F00397E4
:101BD00009F059C04AC02033310539F121333105AC
:101BE00040F42031310569F02032310509F04BC055
:101BF00012C02034310519F12035310509F043C0F8
:101C000028C010927C0510927B0560916D05709143
:101C10006E0587E827C010927C0510927B056091C5
:101C20006D0570916E0580E01DC010927C051092CC
:101C30007B0560916D0570916E0581EE13C0109269
:101C40007C0510927B0560916D0570916E0589EEA3
:101C500009C010927C0510927B0560916D05709112
:101C60006E0585E80E94382A08952032310559F41E
:101C700010927C0510927B0560916D0570916E0548
:101C800080E00E94382A0895EF92FF920F931F93ED
:101C900087E060E00E94380881E040E950E060E0C1
:101CA00070E020E030E00BEB1EE0EE24FF240E9409
:101CB000FB05882389F71F910F91FF90EF900895FE
:101CC000EF92FF920F931F93182F80917B059091B5
:101CD0007C05009731F0049711F086E847C081E851
:101CE00045C080916F008F7D80936F008FE00E94D0
:101CF0004D0886E090E00E940F0A8630910531F091
:101D000080916F00806280936F002FC090937C055C
:101D100080937B051092E60440EC53E060E070E0B5
:101D200004C0440F551F661F771F1A95D2F7405401
:101D30005C4F6F4F7F4F84E0440F551F661F771F26
:101D40008A95D1F780E020E030E008EC1EE0EE2438
:101D5000FF240E94FB05882321F40E94440E80E0AA
:101D600005C010927C0510927B0585E81F910F91AC
:101D7000FF90EF90089587E00E944D08982F809182
:101D8000E604891710F49093E6040E94440E089527
:101D900081E00E94EC048AE090E00E940F0A8FE04C
:101DA0000E944D0880E286BB80916F008062809324
:101DB0006F0010927C0510927B0586E190E00E94F6
:101DC0000F0A9091E604993320F08FEF8093E60498
:101DD0000AC08FEF989FC001112468E370E00E9451
:101DE00017346093E6048091E6040E94042E08955F
:101DF000282F85FD03C0982F9F7304C0982F9195BD
:101E00009F719195E8E9F0E08491891734F03F964D
:101E10008491981714F0822F0CC0803E3CF08032E1
:101E20003CF487FF06C08F71806203C080E201C06E
:101E30008FE18068089584E08093680523E0209313
:101E40006F058FEF9FEF90935E0580935D059093F4
:101E50006105809360058BE080936A0580E098EFD0
:101E6000AFEFB7E08093770590937805A09379055D
:101E7000B0937A0510925C058AE091E090935B053F
:101E800080935A058AE08093730582E08093690508
:101E900085E080936C052093700583E80E94F80E1E
:101EA0008093510581E080935F0510926B05089542
:101EB00085FD03C0982F9F7304C0982F91959F7143
:101EC0009195E8E9F0E080E02491921724F0291739
:101ED0003CF4815008958F5F31968031A9F780E0FE
:101EE00008951F93CF93DF9382E260915D050E9476
:101EF000380860915E0583E20E943808C2E5D5E0AB
:101F000014E2812F69910E9438081F5F1C32C9F7C3
:101F100080E2609160050E9438086091610581E26D
:101F20000E943808809151050E94580F282F85E0A3
:101F30006FE040E00E94AC0888E060E645E0209158
:101F40005F050E94AC0888E06FE140E020916A05DF
:101F50000E94AC088EE260EC46E020916F050E9482
:101F6000AC08DF91CF911F9108950F931F93CF93EA
:101F7000DF93EB0120917B0530917C052630310504
:101F800009F4DCC08E3431F0893541F488818093C6
:101F90007005D8C0888180936805D4C040917105D0
:101FA000509172054F30510511F481E8CCC08B304F
:101FB00009F4BBC08C3070F4823009F47EC08330E9
:101FC00018F48823D9F115C0833009F484C0843013
:101FD00081F467C0833519F1843528F48F3459F0C2
:101FE000803539F40FC0873509F463C0803F09F4A8
:101FF00079C084EFA8C0288120936F058EE260EC41
:1020000046E099C06881898160935D0580935E0593
:1020100082E20E94380860915E0583E20CC068810C
:102020008981609360058093610580E20E94380891
:102030006091610581E20E94380884C0232B09F079
:102040007DC080E098EFAFEFB7E0088004C0B695A0
:10205000A795979587950A94D2F781709070892BF0
:1020600009F46EC04830510519F408E010E008C0CA
:1020700088E090E00E940F0A0897D1F706E110E08F
:10208000288120936A0588E06FE140E00E94AC0857
:102090000830110509F456C086E190E00E940F0A4D
:1020A00051C0232B09F04AC08881882309F44AC013
:1020B00047C0888180936C0545C088818093510515
:1020C0000E94F80E809351050E94580F282F85E03A
:1020D0006FE040E030C0288120935F0588E060E633
:1020E00045E029C0888180935205898180935305FA
:1020F0008A81809354058B81809355058C818093D0
:1021000056058D81809357058E81809358058F8168
:1021100080935905C2E5D5E014E2812F69910E94B0
:1021200038081F5F1C32C9F70DC0288120936B054A
:102130008EE268E043E00E94AC0804C086E803C079
:1021400088EE01C080E0DF91CF911F910F9108953B
:10215000FF920F931F93F82E062F2C9880E793E0A1
:102160000E94F7032D9886E090E00E94F7032D9AD5
:1021700010E081E06FE140E00E9499081F5F1B3F83
:1021800011F485E841C08830A1F788E090E0909391
:1021900072058093710583E061E00E9438088EE249
:1021A00060E245E021E00E94AC0885E060E847E09D
:1021B00021E00E94AC088EE068E00E94380800230D
:1021C00021F00E941B080E948B340E948634682FE5
:1021D000192F8DE20E9438088EE267E040E0212F3F
:1021E0000E94AC0880E00E94E1120E94CB12FF2006
:1021F00011F00E941B0F0E94710F10927C0510922B
:102200007B051092620580E01F910F91FF90089569
:102210001F9360E00E94A810882311F085E824C075
:102220001FB7F89480E00E94EC0481E00E94EC0467
:102230001FBF0AC083E695E060E070E00E94950948
:10224000009711F00E94CB0880916705882391F7D1
:102250008BEA92E10E94030380E286BB80916F00CB
:10226000806280936F0080E01F910895EF92FF924B
:102270000F931F93CF93DF930E94BC03882309F031
:1022800062C12D9A2C9884EF91E00E94F7032D985B
:1022900086E090E00E94F7032D9A10E004C01F5FD3
:1022A0001F3F09F450C18DE10E944D088230B9F7FB
:1022B0008CE10E944D08823091F768E00E94380856
:1022C00010E081E06FE140E00E949908115009F4AC
:1022D0003AC18830B1F788E090E09093720580931E
:1022E000710580E090E060E070E048E050E022E5B9
:1022F00035E00E94560370915205E09153054091DC
:10230000540560915505F0915605B091570500911F
:10231000580550915905E72EEA9491E0E71608F028
:1023200090E08E2F815021E08E1708F020E0F92EEA
:10233000F80E91E0F81608F090E0292B842F8150D8
:1023400031E0841708F030E0122F180F91E01817D1
:1023500008F090E0392B862F815021E0861708F095
:1023600020E0A32FA80F91E0A81708F090E0292BF8
:102370008F2F815031E08F1708F030E0622F680F07
:1023800091E0681708F090E0392B8B2F815021E005
:102390008B1708F020E0432F480F91E0481708F012
:1023A00090E0292B802F815091E0801708F090E079
:1023B000322F380F21E0381708F020E0922B51958A
:1023C000591709F09BC03F3F09F098C04F3F09F0F3
:1023D00095C06F3F09F092C0AF3F09F08FC01F3F1B
:1023E00009F08CC08FEFF81609F088C08DEF8E15BC
:1023F00008F084C00E941B080E948B34C2E5D5E01F
:102400000E948634899385E0CA35D807C9F7809140
:1024100052053091530540915405609155057091D6
:102420005605F0915705B091580550915905082F60
:10243000015091E0081708F090E0832F815021E0CF
:10244000831708F020E0192F180F91E0181708F0F3
:1024500090E0292B842F815031E0841708F030E080
:10246000A22FA80F91E0A81708F090E0392B862F33
:10247000815021E0861708F020E0E32FE80F91E07B
:10248000E81708F090E0292B872F815031E087175B
:1024900008F030E0622F680F91E0681708F090E0D4
:1024A000392B8F2F815021E08F1708F020E0432F28
:1024B000480F91E0481708F090E0292B8B2F8150AE
:1024C00091E08B1708F090E0322F380F21E0381799
:1024D00008F020E0922B51955917A1F43F3F91F459
:1024E0004F3F81F46F3F71F4EF3F61F4AF3F51F420
:1024F0001F3F41F40E3F08F081CF04C0872F9E2F6D
:102500000E948B3481E060E00E94A8108823D9F4F7
:102510008FE00E944D088BEA92E10E9403038091B4
:102520006F00806280936F000E94DA088AE90E943F
:10253000D3089093E5048093E40483E695E00E9439
:10254000F90880E001C085E8DF91CF911F910F91DC
:10255000FF90EF900895CF93DF938FE00E944D0896
:10256000C82F83FF15C080917B0590917C05029751
:10257000029760F486E190E00E940F0AC6FF02C055
:1025800081E001C080E00E94200D02C00E94CE0CBC
:10259000DF91CF91089580917105909172050F9709
:1025A00011F082E8089588E090E00E940F0A0897F1
:1025B00011F085E8089581E090E00E94CE0380E06C
:1025C0000895882311F088EE089580917105909107
:1025D00072050F9711F481E8089580917B05909121
:1025E0007C05892BA1F41092620588E090E00E949E
:1025F0000F0A0897D1F780E090E00E94CE038AE1AD
:1026000090E00E940F0A0F9711F480E0089586E889
:102610000895282F80917B0590917C05892B11F0DE
:1026200086E80895283041F488E090E00E940F0A7F
:102630001092620588E008958091E4049091E50489
:10264000892B31F086E190E00E940F0A86E0089520
:1026500081E08093620586E00895CF93DF93DC01EB
:102660009C9111962C91119780917D05882321F4DE
:10267000CD010E94CB081AC0E92FF22F9F012F5FD6
:102680003F4F40E056E088E0EA010990AE01E901E1
:1026900009929E018150C1F780910B06818783E1E9
:1026A000808388E196E0BD010E940009DF91CF910F
:1026B0000895DC01ED91FC91119784E1808363839F
:1026C0005283418388E196E0BD010E94000908958C
:1026D0000F931F93DF93CF9300D0CDB7DEB7A091B8
:1026E000A105B091A205ED91FC91119784E1808341
:1026F0008BEE83830FEF1FEF1283018388E196E057
:10270000BD010E940009109290051A83098380E59B
:10271000BE016F5F7F4F0E94C8251093D8050093BC
:10272000D7051092E5051092E6051092E705109284
:10273000E8051092E9051092EA051092EB05109257
:10274000EC050E9410240F900F90CF91DF911F9104
:102750000F910895EF92FF920F931F93E090E10580
:10276000F090E20580E061E040E020E030E000E051
:1027700010E00E94421D8823A9F4A091A105B09108
:10278000A205ED91FC91119784E1808381EE838312
:102790008FEF9FEF9283818388E196E0BD010E94D5
:1027A000000919C0A70160E070E084E0440F551FE4
:1027B000661F771F8A95D1F782E020E030E008E6B7
:1027C00013E1EE24FF240E94FB05882321F080E022
:1027D00090E00E9468131F910F91FF90EF90089571
:1027E000FF920F931F93DF93CF9300D0CDB7DEB747
:1027F000F0900D060E94CB08FF20B1F583E56BE059
:1028000076E00E94C82520910B0630910C0680913D
:1028100000068093E505809101068093E60580918E
:1028200002068093E705809103068093E805809176
:1028300004068093E905809105068093EA0580915E
:1028400006068093EB05809107068093EC0581E0F6
:10285000809314061092900580919B05833031F58A
:1028600082E080939B0522C0109290050FEF1FEF2E
:102870001A83098380E5BE016F5F7F4F0E94C825E0
:102880001093D8050093D7051092E5051092E60540
:102890001092E7051092E8051092E9051092EA05FA
:1028A0001092EB051092EC052FEF3FEFE091A105A0
:1028B000F091A205A081B18184E18C931396FC92E2
:1028C000139712963C932E93119788E196E0BF01DF
:1028D0000E9400090E9410240F900F90CF91DF9169
:1028E0001F910F91FF9008950F931F93DF93CF9344
:1028F000CDB7DEB72C970FB6F894DEBF0FBECDBFB5
:10290000AC01DE011196FC01808191819C01F901ED
:102910008CE001900D928150E1F7DA010D911C914C
:10292000809114068250823020F0CA010E94CB08A8
:1029300056C082E0F8018083D801AC56BF4FFD013C
:1029400081938A859B8512969C938E9311978C8593
:1029500082839D0128503040D901E2E5F5E088E00E
:1029600001900D928150E1F7F90138979F01BE0166
:102970006E5F7F4F88E0DB010D90BD01D9010D92A4
:102980009D018150C1F780915D0590915E05929304
:10299000829380919C0582938F5F80939C0583E650
:1029A0009CEC929382938BE18293D8011896FC93CE
:1029B000EE93179716961C928FE795E0BA010E9446
:1029C000000980919E0590919F05F801958384836D
:1029D00083E00E942104882311F40E9479212C961F
:1029E0000FB6F894DEBF0FBECDBFCF91DF911F9120
:1029F0000F910895CF92DF92EF92FF921F93DF9392
:102A0000CF93CDB7DEB72F970FB6F894DEBF0FBECA
:102A1000CDBFAC017C01DE011196FC01808191816A
:102A20009C01F9018FE001900D928150E1F74093F4
:102A3000A1055093A2058C81823019F48F8198856D
:102A40001AC08F818093E50588858093E605898586
:102A50008093E7058A858093E8058B858093E90557
:102A60008C858093EA058D858093EB058E85809318
:102A7000EC058EEF9FEF9093D8058093D70580E506
:102A8000BE016B5F7F4F0E94C8250E94EB23D701D8
:102A9000CD90DC9081E0F6018083F282E182EA56FB
:102AA000FF4F80838F8581839F0128503040D9015B
:102AB000E2E5F5E088E001900D928150E1F7F9013F
:102AC0008FEF9FEF929382938C81823051F48091AB
:102AD000D7059091D8059293829345E123E238EC93
:102AE00011C0F9013A979F0145EE55E088E0DA01FF
:102AF0000D90AD01D9010D929D018150C1F74BE1BF
:102B000023E23CEC80915D0590915E059293829367
:102B100080919C0582938F5F80939C0532932293D2
:102B20004293D6011896FC93EE93179784E0BE016A
:102B30006D5F7F4F0E94C825182F80E0BE016E5F39
:102B40007F4F0E94C825112371F4882361F4C601C8
:102B500062E070E041E00E94C00D882321F481E032
:102B60008093150612C0D701ED91FC9184E180831A
:102B700081EE83838FEF9FEF9283818388E196E0DC
:102B8000B7010E9400090E9410242F960FB6F894F6
:102B9000DEBF0FBECDBFCF91DF911F91FF90EF90B1
:102BA000DF90CF900895FC018091E9048730F0F424
:102BB000A781B08512968C91129786958695837021
:102BC0008230A1F4E091E704F091E8043297F093A9
:102BD000E804E093E70416968D919C9117979183F2
:102BE00080838091E9048F5F8093E90480E00895F9
:102BF000FC018091E9048730F0F40780F085E02D36
:102C000082818695869583708330A9F48091E7044C
:102C10009091E80408979093E8048093E704DC011E
:102C2000369688E001900D928150E1F78091E90499
:102C30008F5F8093E90480E008959F92AF92BF92E6
:102C4000CF92DF92EF92FF920F931F93DF93CF9378
:102C500000D000D0CDB7DEB7FB01A080B180D50198
:102C600012967C936E9311978AE08C9378E9C72E25
:102C7000D12CCA0CDB1C80919D05882319F46DE0D2
:102C8000962E0EC0482F50E0C41AD50A5DE0952E4E
:102C9000980E23EA35E0C601B90150E00E9496344F
:102CA00080918305882309F442C0D092E804C09241
:102CB000E7041092E90488EF95E19A8389838FE70E
:102CC00095E07E010894E11CF11CB7010E949B096C
:102CD0000091E9041092E90483ED95E19A838983D8
:102CE0008FE795E0B7010E949B092091E904E091EC
:102CF000E704F091E804319710E0C80134E0880F50
:102D0000991F3A95E1F7822B8083000F111F000F66
:102D1000111F020F111D000F111F0093E904900EE7
:102D2000E02FF0E0E095F095EC0DFD1D02C0F601FE
:102D30001292DF011E9280911406833019F42FEF56
:102D40003FE402C02FEF3FE080917D0581113068A4
:102D5000FD013293229380916005909161052FEFE0
:102D60008E3F920799F4FD013A9786E0980E9F01F5
:102D700042E555E088E0DA010D90AD01D9010D92F0
:102D80009D018150C1F720E030EC04C09293829302
:102D900020E030E880915D0590915E0592938293EA
:102DA00080919A0582938F5F80939A053293229344
:102DB0009292D5011896FC93EE931797C50162E0A5
:102DC00070E040E00E94C00D81E0809315060F90F6
:102DD0000F900F900F90CF91DF911F910F91FF9067
:102DE000EF90DF90CF90BF90AF909F900895BC017F
:102DF00080E00E941D160895FC010190F081E02DF5
:102E0000628173818181448125810E9416340895F5
:102E10000F931F938C01DC01ED91FC9181810E9445
:102E20003101C8010E94CB081F910F9108950F93A3
:102E30001F938C01DC01ED91FC91818162810E94E4
:102E40001C02C8010E94CB081F910F910895AF92F8
:102E5000BF92CF92DF92EF920F931F935C01DC0140
:102E6000ED91FC91048115812681378181816281F8
:102E70004381E08439966F010E945202C5010E948D
:102E8000CB081F910F91EF90DF90CF90BF90AF9044
:102E900008950F931F938C01DC01ED91FC918181CA
:102EA0000E941534C8010E94CB081F910F9108950C
:102EB0000F931F938C01DC01ED91FC9181810E94A5
:102EC000BD02C8010E94CB081F910F9108950F9376
:102ED0001F938C01DC01ED91FC9181810E941434DF
:102EE000C8010E94CB081F910F9108950F931F9363
:102EF0008C01DC01ED91FC9121813281438154816F
:102F000065817681878190850E941334C8010E9473
:102F1000CB081F910F9108950F931F938C01DC0133
:102F2000ED91FC91818162813396AF010E94123450
:102F3000C8010E94CB081F910F910895EF92FF9254
:102F40000F937C01DC01ED91FC9121813281438161
:102F50005481658176818781908501850E94113435
:102F6000C7010E94CB080F91FF90EF9008950F9337
:102F70001F93DF93CF93CDB7DEB72B970FB6F8949F
:102F8000DEBF0FBECDBF8C01DC01ED91FC918281D3
:102F90008983838194819B838A839E012C5F3F4F29
:102FA000AF014B5F5F4F88E0DA010D90AD01D901B1
:102FB0000D929D018150C1F78181BE016F5F7F4FEE
:102FC0000E941034C8010E94CB082B960FB6F894CB
:102FD000DEBF0FBECDBFCF91DF911F910F9108953E
:102FE0000F931F93DF93CF93CDB7DEB766970FB6DE
:102FF000F894DEBF0FBECDBF8C01DC01ED91FC91DA
:10300000818192819B838A83838189839E012C5F46
:103010003F4FAF014C5F5F4F88E0DA010D90AD018B
:10302000D9010D929D018150C1F7818192819E87C6
:103030008D8784858C879E01215F3F4FAF01435F61
:103040005F4F88E0DA010D90AD01D9010D929D012D
:103050008150C1F7CE010196BE01645F7F4F458963
:103060000E94AE00C8010E94CB0866960FB6F89485
:10307000DEBF0FBECDBFCF91DF911F910F9108959D
:10308000CF92DF92EF92FF920F936C01DC01ED91F2
:10309000FC91BF016E5F7F4F24893589E788F08CF2
:1030A0008181438906890E940F34C6010E94CB08A2
:1030B0000F91FF90EF90DF90CF900895EF92FF92E5
:1030C0000F937C01DC01ED91FC91218132814381E0
:1030D0005481658176818781908501850E9489016F
:1030E000C7010E94CB080F91FF90EF9008950F93B6
:1030F0001F938C01DC01ED91FC91818192816381B0
:103100000E940C01C8010E94CB081F910F910895E5
:103110000F931F938C01DC01ED91FC918181628101
:103120000E940E34C8010E94CB081F910F91089590
:103130000F931F938C01DC01ED91FC9181816281E1
:103140000E94B600C8010E94CB081F910F910895FC
:10315000CF92DF92EF920F93DF93CF93CDB7DEB78D
:1031600066970FB6F894DEBF0FBECDBF6C01DC01D1
:10317000ED91FC9181818983828193819B838A83F4
:103180009E012C5F3F4FAF014C5F5F4F88E0DA013B
:103190000D90AD01D9010D929D018150C1F784853B
:1031A0008C87858596859E878D879E01215F3F4F01
:1031B000AF01415F5F4F88E0DA010D90AD01D901A9
:1031C0000D929D018150C1F7228D338DCE01019664
:1031D000BE01645F7F4F418D0789E08C0E94D4005F
:1031E000C6010E94CB0866960FB6F894DEBF0FBEEC
:1031F000CDBFCF91DF910F91EF90DF90CF900895E9
:10320000FC011082618172816115710521F08CEDE4
:1032100095E00E9400090895282F80910B06909157
:103220000C0696FF1BC0222359F42091FE05309115
:10323000FF0580915D0590915E052817390759F0CB
:103240002091FE053091FF058091DA059091DB0514
:103250002817390719F48EEE0E94463008950F930F
:103260001F93CF93DF93282F80910B0690910C062C
:1032700096FFA3C0222359F42091FE053091FF054B
:1032800080915D0590915E052817390761F02091C6
:10329000FE053091FF058091DA059091DB05281736
:1032A000390709F08AC0209100063091010680910B
:1032B000D7059091D8052817390709F47EC0909159
:1032C00000068091E505981759F5909101068091C7
:1032D000E605981729F5909102068091E705981761
:1032E000F9F4909103068091E8059817C9F490913C
:1032F00004068091E905981799F49091050680914C
:10330000EA05981769F4909106068091EB059817E5
:1033100039F4909107068091EC05981709F44DC097
:103320008AE90E94D3088C01009709F446C0DC01A9
:103330002D913C9185E0F901808312830183E95648
:10334000FF4F8083AF0148505040FA01A2E5B5E03D
:1033500088E00D9001928150E1F7FA013897EF0172
:10336000A5EEB5E088E00D9009928150E1F78091DB
:103370005D0590915E059293829380919C05829366
:103380008F5F80939C0583E69CEC9293829388E107
:103390008293D9011896FC93EE931797C90162E0C6
:1033A00070E041E00E94C00D882321F481E0809309
:1033B000150603C0C8010E94CB08DF91CF911F9171
:1033C0000F9108950F931F93CF93DF93EC01E88142
:1033D000F981A781B0857C917093F005FD01E70F1D
:1033E000F11D81818093090611964D915C91129790
:1033F0005093EE054093ED0513968C9113978093AF
:10340000F1058D010C5F1F4F652F629566956695DE
:103410006370352F36953695337019F4F80120E036
:1034200049C014968D919C9115979093F4058093C3
:10343000F305FD0136963230E1F41092F505109255
:10344000F6051092F7051092F8051092F905109202
:10345000FA051092FB051092FC0516968D919C9131
:1034600017979093F6058093F505FD01389624E0B3
:1034700021C0333011F022E01DC016968C911697B2
:103480008093F50581818093F60582818093F7050D
:1034900083818093F80584818093F90585818093E9
:1034A000FA0586818093FB0587818093FC05FD01E9
:1034B0003E962AE0662309F447C046FD08C0819184
:1034C00091919093FF058093FE052E5F08C0809137
:1034D000F3059091F4059093FF058093FE0562300B
:1034E000C1F410920006109201061092020610928A
:1034F000030610920406109205061092060610921A
:1035000007068081918190930106809300062E5FCB
:103510001BC06330C9F48081809300068181809351
:103520000106828180930206838180930306848151
:103530008093040685818093050686818093060624
:10354000878180930706285F972F9550921B909351
:103550000A066093FD053093F20543FDCDC1D80105
:10356000A20FB11D842F87708093EF05833021F463
:103570008C918093080663C0813009F451C081307A
:1035800020F0833009F0B8C15AC08D919C911197F9
:1035900090930C0680930B0612968C911297809351
:1035A0000D06877011F493E002C0982F9C5FFD0117
:1035B000E90FF11D808180930E06292F2F5F382F90
:1035C000377090E08077907044E0959587954A95A4
:1035D000E1F7482F332311F4882389F0CD01820FBE
:1035E000911D9093100680930F06332311F0330F33
:1035F000230F442321F0440F440F440F240F8091E4
:103600000A06281750F4821B80931106A20FB11DE1
:10361000B0931306A093120673C11092110670C1E5
:10362000992351F0963718F086E780930A06B093F5
:103630000C06A0930B0664C110920A0661C180912A
:1036400008068330E1F0843030F48130C1F08230FC
:1036500009F052C107C0883008F452C1883009F01F
:103660004BC112C011968D919C91129790930C06AC
:1036700080930B0613968C9180930D0641C1119691
:103680008C9180930B063CC111968D919C91129761
:1036900090930C0680930B0613968D919C91149732
:1036A00090930E0680930D0615968C911597809336
:1036B0000F0616968D919C91179790931106809303
:1036C000100654FF1DC118968C918093120618C1E4
:1036D0008091EF05833061F480910806843011F009
:1036E000873031F48CED95E0BE010E9400090EC1D7
:1036F00080919005813009F4EBC0813020F0843056
:1037000008F0FAC0A3C080919905882309F06AC027
:1037100090911406933080F1933009F0EDC08091C0
:10372000EF05813009F4E4C0813010F1833009F0F5
:10373000E3C080910806843009F4AFC0853038F4C6
:10374000813009F4A0C0833009F0D6C009C08630AA
:1037500009F4AEC0863040F0873009F0CDC0B0C06B
:10376000CE010E944B1FD2C08EEE0E944630C4C0D4
:1037700080E00E940C19C0C08091EF05813009F4EF
:10378000B7C0813020F0833009F0B6C00CC0809102
:103790001706882309F4B0C0992309F4ADC080E06E
:1037A0000E942F19A9C080910806843009F475C0C1
:1037B000853038F4813009F466C0833009F09CC04C
:1037C00004C0873009F05AC009C0CE010E944B1FC7
:1037D00080911406813009F099C05CC0923009F0E4
:1037E0008BC06EC0833009F1843019F0823009F04B
:1037F00083C08091EF05882309F07EC08091140674
:10380000833019F481E00E940C19809117068823F7
:1038100041F0809114068150823018F481E00E94BA
:103820002F19CE010E94E02871C08091EF058330EE
:1038300009F062C080910806883009F05DC084E01C
:103840000E94EC04CE010E94C32C60C00E944B2851
:103850008091EF05813009F44BC0833009F04CC0F2
:10386000809108068430C9F0853030F4813059F0F9
:10387000833009F041C00BC08730F1F0883021F16E
:103880008630D1F515C0CE010E942D133FC0CE0168
:103890000E944B1F0E94332539C0809183058823E5
:1038A00021F0CE010E94051E31C00E94E71C24C0F9
:1038B000CE010E9493252AC0809114068230E1F443
:1038C000CE010E94F71622C0CE010E948B301EC08E
:1038D0008091EF05833051F480910806823061F4C5
:1038E0000E94EC04CE010E94F01310C0813021F43C
:1038F000CE010E9495210AC0CE010E94CB0806C0CD
:1039000080911506882309F0E3CEF2CEDF91CF91A6
:103910001F910F910895DB01FC018681882399F4A2
:103920000780F085E02D82818695869583708230B0
:1039300051F440E02D913C918681978128173907F9
:1039400019F441E001C040E0842F0895DB01FC013F
:1039500086818823C9F50780F085E02D82818695D0
:1039600086958370833081F520E09C91868198173D
:1039700061F511969C9111978781981731F51296F0
:103980009C9112978085981701F513969C91139737
:1039900081859817D1F414969C9114978285981775
:1039A000A1F415969C9115978385981771F4169636
:1039B0009C9116978485981741F417969C9185855C
:1039C000981719F421E001C020E0822F08950F9389
:1039D0001F93CF93DF938AE90E94D3088C0100974D
:1039E00009F44BC0DC01CD91DC918CE088831A8313
:1039F00009831E82FE01E856FF4F8091FD0583304A
:103A000089F438979F0140E056E088E0DA010D9094
:103A1000AD01D9010D929D018150C1F74FE021E028
:103A20003CE009C080910006909101069293829338
:103A300049E021E038E08091FE059091FF059293E6
:103A4000829380919C0582938F5F80939C05329333
:103A500022934293F887EF83F8018081918161E09E
:103A600070E040E00E94C00D882321F481E0809343
:103A7000150603C0C8010E94CB08DF91CF911F91AA
:103A80000F9108956F927F929F92AF92BF92CF92C3
:103A9000DF92EF92FF920F931F93CF93DF93D82E75
:103AA000962EC42E590138018AE90E94D3087C0160
:103AB000009709F49BC0DC010D911C91DD2021F0E1
:103AC00084E0F801808303C08BE0D8018C93F80177
:103AD000F282E182E956FF4F84E080832091600505
:103AE00030916105C9010296029710F0992069F0A2
:103AF0003897EF01A2E5B5E088E00D90099281507A
:103B0000E1F762E183E290EC05C0329322936CE02E
:103B100083E290E8CC2061F020915D0530915E0554
:103B20006216730629F06E5F3293229370E002C032
:103B3000806471E022E0C21641F4AC015860D50106
:103B40008D919C919293829328C0B3E0CB1661F43F
:103B5000AC015C6038976A5FEF01D50188E00D9099
:103B600009928150E1F719C02091D7053091D8050D
:103B70004FEF2E3F340729F0AC0158603293229367
:103B80000CC0AC015C6038976A5FEF01A5EEB5E050
:103B900088E00D9009928150E1F73297772339F050
:103BA00080915D0590915E059183808302C0718252
:103BB000608280919C0582938F5F80939C055293D5
:103BC00042936293D8011896FC93EE931797C8011D
:103BD00062E070E041E00E94C00D882321F481E0A2
:103BE0008093150604C0C7010E94CB0880E0DF91D6
:103BF000CF911F910F91FF90EF90DF90CF90BF90EA
:103C0000AF909F907F906F900895EF92FF920F93E7
:103C10001F93DF93CF9300D000D0CDB7DEB70E94C3
:103C2000CB0880911406823008F453C08091FD05C2
:103C3000823019F48BE89CE105C0833009F049C05B
:103C400086EA9CE19A83898380E096E09C838B835B
:103C50008FE795E07E010894E11CF11CB7010E94FA
:103C60009B09DC01009781F00D911C911197F801DF
:103C7000878190852091FE053091FF05FC018481AC
:103C800095812817390719F00E94E71C22C081E0AE
:103C9000F8018683B283A1838FE795E0B7010E9484
:103CA0009B09892B41F0D8011796ED91FC9118974B
:103CB000818180618183C80161E070E040E00E9401
:103CC000C00D882321F481E08093150602C0F8011D
:103CD00016820F900F900F900F90CF91DF911F9150
:103CE0000F91FF90EF900895EF92FF920F931F9323
:103CF000CF93DF937C01E801DC01ED91FC9186E13B
:103D000080836183428334832383CF0105964230CD
:103D100069F4158216821782108611861286138620
:103D20001486888199819683858307C0DC01F80118
:103D300088E001900D928150E1F788E196E0B701AB
:103D40000E940009DF91CF911F910F91FF90EF909A
:103D500008950F931F93DF93CF93CDB7DEB72897C6
:103D60000FB6F894DEBF0FBECDBFDC01062FED917C
:103D7000FC91119719821A821B821C821D821E825D
:103D80001F8218860780F085E02D12811695169502
:103D90001370123029F42681378129833A8310C0A9
:103DA0008681898387818A8380858B8381858C83C3
:103DB00082858D8383858E8384858F83858588879F
:103DC000809114068330C9F1823009F041C012306D
:103DD00051F4268137818091D7059091D805281715
:103DE000390759F535C0133041F596818091E505C5
:103DF000981719F597818091E6059817F1F4908549
:103E00008091E7059817C9F491858091E805981786
:103E1000A1F492858091E905981779F493858091B2
:103E2000EA05981751F494858091EB05981729F4C9
:103E300095858091EC05981759F020915D0530919A
:103E40005E05CD01602F412F8E010F5F1F4F16C001
:103E50008091600590916105029620915D053091F9
:103E60005E05029730F4CD01602F43E002E515E0D6
:103E700005C0CD01602F42E000E615E00E94741EEF
:103E800028960FB6F894DEBF0FBECDBFCF91DF915D
:103E90001F910F910895CF93DF939C01FC01C08186
:103EA000D181FE0185E18193A0E0B6E088E00D902C
:103EB00001928150E1F780910B06898788E196E0B5
:103EC000B9010E9400091092E5051092E6051092D2
:103ED000E7051092E8051092E9051092EA051092A4
:103EE000EB051092EC058FEF9FEF9093D805809330
:103EF000D705DF91CF910895EF92FF920F931F9313
:103F0000DF93CF93CDB7DEB72E970FB6F894DEBF11
:103F10000FBECDBF8C01DC01ED90FC90DE0111964F
:103F2000F7018EE001900D928150E1F7F7011283C5
:103F3000018383E08083EA56FF4F80838D858183F0
:103F400038979F0142E555E088E0DA010D90AD0118
:103F5000D9010D929D018150C1F78A81823031F4DF
:103F60008D819E819293829333E10FC038979F0198
:103F7000AE014B5F5F4F88E0DA010D90AD01D901D2
:103F80000D929D018150C1F739E180915D059091BD
:103F90005E059293829380919C0582938F5F8093BC
:103FA0009C052A81922F990F990F80E08366906C6F
:103FB000929382933293D7011896FC93EE931797BE
:103FC00016961C92809114068250823008F060C0D0
:103FD0008E85882309F45CC08A818230D1F48D817A
:103FE0008B3409F041C08E818823F1F58F818823BD
:103FF000D9F588858823C1F589858823A9F58A851F
:10400000882391F58B85882379F58C85882361F544
:104010005BC0833009F058C09D818091E5059817F9
:1040200019F59E818091E6059817F1F49F818091A2
:10403000E7059817C9F498858091E8059817A1F4C9
:1040400099858091E905981779F49A858091EA0518
:10405000981751F49B858091EB05981729F49C855E
:104060008091EC05981781F18FE795E0B8010E94E7
:10407000000980919E0590919F05F70195838483A7
:1040800083E00E9421048823F9F40E9479211CC056
:104090000E94EB23D8018D919C9162E070E041E099
:1040A0000E94C00D882321F481E0809315060CC086
:1040B0002B813C81C80161EE4A818E010B5F1F4F4D
:1040C0000E94741E0E9410242E960FB6F894DEBF34
:1040D0000FBECDBFCF91DF911F910F91FF90EF9059
:1040E0000895DC01ED91FC911197E081E43278F4C0
:1040F000F0E0EE0FFF1FE855FF4F25913491211599
:10410000310519F0F901099508950E94CB08089529
:104110001F9380911506882381F480919805882348
:1041200061F084E995E060E070E00E9495090097F5
:1041300021F00E94712011E001C010E08091E005A3
:10414000882359F08CED95E060E070E00E949509BD
:10415000009719F00E94712011E0812F1F9108959E
:10416000FC018681882329F48481958101979583B8
:10417000848380E00895FC018681882311F020E08B
:1041800006C020E084819581892B09F421E0822FEB
:104190000895FB0120E0DC0113969C918081981723
:1041A00009F421E0822F0895DC01ED91FC91119733
:1041B00080E180834183628388E196E0BD010E94B3
:1041C00000090895EF92FF920F931F93DF93CF930F
:1041D00000D000D00F92CDB7DEB77C01FC0100818A
:1041E0001181F801918182E18083998389EC90E2C9
:1041F0009B838A83CE0101969D838C838FE795E014
:10420000BE016E5F7F4F0E949509009729F00E94C2
:10421000CB08F801128203C087EEF801828388E19F
:1042200096E0B7010E9400090F900F900F900F9039
:104230000F90CF91DF911F910F91FF90EF90089514
:10424000FF920F931F93DF93CF9300D000D0CDB791
:10425000DEB780EB90E29A8389838FE795E08E0149
:104260000F5F1F4FB8010E949B098BEB90E29A836E
:104270008983F02E012F10E18FE795E06F2D702FCD
:104280000E949509DC01009721F19C9111962C91D7
:104290001197E92FF22F8081833049F08D3061F042
:1042A000823051F780EFBD010E941B24E5CFCD0184
:1042B00060EF0E94A91EE0CF8381E92FF22F1083C7
:1042C000818380EF828388E196E0BD010E9400092E
:1042D000D3CF80918305882311F00E9479210F901C
:1042E0000F900F900F90CF91DF911F910F91FF9042
:1042F0000895EF92FF920F931F9383E040E050EEFA
:1043000061E070E020E030E000E211E2EE24FF2402
:104310000E94FB05882321F080E090E00E9420218C
:104320001F910F91FF90EF9008950F931F93DF93CC
:10433000CF93CDB7DEB728970FB6F894DEBF0FBE88
:10434000CDBFAC01DC019C9111962C9180910A06A5
:10435000882321F4CA010E94CB08FFC0E92FF22F65
:104360008091F105808F8091FD058183825082309C
:10437000A8F48091FE059091FF05938382839F01AD
:104380002C5F3F4F60E076E088E0DB010D90BD01DF
:10439000D9010D929D018150C1F70AC0138212828A
:1043A0001482158216821782108611861286138651
:1043B000208D80917E05281761F594818091860576
:1043C000981739F5958180918705981711F5968191
:1043D000809188059817E9F497818091890598174D
:1043E000C1F4908580918A05981799F49185809100
:1043F0008B05981771F4928580918C05981749F474
:10440000938580918D05981721F4CA010E94CB08ED
:104410005AC020937E058481809386058581809390
:1044200087058681809388058781809389058085AB
:1044300080938A05818580938B05828580938C0586
:10444000838580938D052091F20524871786108A35
:10445000118A128A138A148A158A168A8091F305A2
:104460009091F40596878587233079F49F01215F29
:104470003F4F65EF75E088E0DB010D90BD01D9018C
:104480000D929D018150C1F70BC0223039F480910B
:10449000F5059091F605908B878702C016861586E4
:1044A00080910906878B80910A06818F80910B0687
:1044B00090910C06938F828F81E1808388E196E052
:1044C000BA010E9400098091ED0584FF46C08091E9
:1044D0001406833009F443C08091FD05823071F4E5
:1044E00080910006909101069A8389830091FE05D0
:1044F0001091FF0580E060E042E021C0833019F5B3
:10450000809100068983809101068A83809102064A
:104510008B83809103068C83809104068D83809128
:1045200005068E83809106068F8380910706888713
:104530000091FE051091FF0580E060E043E09E01E0
:104540002F5F3F4F07C080E060E040E020E030E0B8
:1045500000E010E00E94421D02C00E941024289634
:104560000FB6F894DEBF0FBECDBFCF91DF911F9184
:104570000F910895CF92DF92EF92FF920F931F93C6
:10458000DF93CF93CDB7DEB762970FB6F894DEBF57
:104590000FBECDBF8C01DE011196FC01808191819F
:1045A0009C01F90182E101900D928150E1F78F8524
:1045B00082FD11C080919005882321F48091990596
:1045C000882349F09E85D801ED91FC9180E180839C
:1045D000918381EEAEC0F801E080F1808DE0D701DB
:1045E0008C938E8513968C93139716961C928889BC
:1045F00045E0D42ED80EE8E9F0E0E81BF109EE0D15
:10460000FF1D9A81923051F437E0D32ED80E80915D
:104610006005909161059293829312C0933081F46A
:1046200038972DE0D22ED80E9F0142E555E088E064
:10463000DA010D90AD01D9010D929D018150C1F7B4
:1046400020915D0530915E058C819D812817390789
:1046500049F48A81882331F08B81882319F040E462
:1046600050E009C08A81882321F0B2E0DB0E32934A
:10467000229340E050E08B81882311F1823039F49D
:104680006D2D6E5F8E819F819293829312C03897B9
:104690006D2D685F9F0196E0C92ED12CCC0EDD1EDA
:1046A00088E0D6010D906D01D9010D929D018150D8
:1046B000C1F782E0D82ED60E8C819D819293829391
:1046C00080919C0582938F5F80939C05BA01616005
:1046D0008F8580FF02C0BA0161628889873608F041
:1046E00070618B81382F330F330F20E04A81942F74
:1046F0009295990F990F907C80E0282B392B262BCF
:10470000372B329322933296D7FC0BC03397D0824B
:10471000D7011896FC93EE9317978F8582FD10C0F2
:1047200028C09E85D801ED91FC9180E18083918322
:1047300085EE828388E196E0B8010E9400093CC0C2
:104740008091140682508230A0F48FE795E0B80182
:104750000E94000980919E0590919F05F701958325
:10476000848383E00E942104882331F50E9479210B
:1047700023C00E94EB23D70112961C930E9311972E
:10478000C70162E070E041E00E94C00D882321F47F
:1047900081E08093150610C09E85D801ED91FC91B3
:1047A00080E18083918381EE828388E196E0B80185
:1047B0000E9400090E94102462960FB6F894DEBF92
:1047C0000FBECDBFCF91DF911F910F91FF90EF9062
:1047D000DF90CF90089580911606813051F40E94A9
:1047E000CB12853831F081E090E00E94CE03109228
:1047F0001606089580911606882389F480E090E0DB
:104800000E94CE0380E00E94E112882321F481E01F
:1048100080931606089581E090E00E94CE030895EB
:1048200080918405882331F48091D905882311F47F
:104830000E94FA230895DF93CF93CDB7DEB7289770
:104840000FB6F894DEBF0FBECDBF482F9B01DB0132
:10485000ED91FC910780F085E02DDE0111963696F2
:1048600088E001900D928150E1F7D901ED91FC9122
:104870008CE1808380915D0590915E0592838183B8
:1048800093E09383809152058483809153058583BF
:1048900080915405868380915505878380915605C4
:1048A0008087809157058187809158058287809104
:1048B000590583879487898185878A8186878B813B
:1048C00087878C81808B8D81818B8E81828B8F817C
:1048D000838B8885848B458B88E196E0B9010E94A3
:1048E000000928960FB6F894DEBF0FBECDBFCF915A
:1048F000DF9108950F931F93182F109215061092B1
:104900001406109216061092990510929B051092AB
:10491000900510927E058FEF809386058093870522
:10492000809388058093890580938A0580938B0501
:1049300080938C0580938D051092D90588E00E94A4
:1049400009130FB7F89482E00E94EC0483E00E9400
:10495000EC0484E00E94EC0485E00E94EC040FBFAC
:10496000112309F440C01092170682EC97E090934F
:1049700093058093920580E098E79093E2058093F9
:10498000E10510928F0510927D0510929D050E9401
:10499000863480939A0584EF91E090939F058093ED
:1049A0009E0581E08093910586E0809385051092B5
:1049B000E5051092E6051092E7051092E8051092C1
:1049C000E9051092EA051092EB051092EC058FEFC5
:1049D0009FEF9093D8058093D7050E9486348093EB
:1049E0009C05109284051F910F9108950F931F93BA
:1049F000CF93DF93EC01088119810E94EB23F8012A
:104A0000018180E090E00E94CE0380E0011181E00E
:104A10000E940811182F81E090E00E94CE03802FA1
:104A20000E947A240E94102484E995E00E94A10942
:104A30008CED95E00E94A10988E196E00E94A10911
:104A40008FE795E00E94A109E881F981118380E256
:104A5000808388E196E0BE010E940009DF91CF913A
:104A60001F910F910895DF93CF9300D000D0CDB761
:104A7000DEB70E94EB238FEF9FEF9A8389839C839D
:104A80008B8383E5BE016F5F7F4F0E94C82580E561
:104A9000BE016D5F7F4F0E94C82581E00E947A248D
:104AA0000E9410240F900F900F900F90CF91DF91E4
:104AB00008950E9436118823B9F40E949E07882326
:104AC00099F081E00E947A240E94102484E995E004
:104AD0000E94F9088CED95E00E94F9088FE795E0B7
:104AE0000E94F90880E0089585E80895FF920F93E9
:104AF0001F93182FF92E40915D0550915E0589E0B6
:104B0000612F792F20916A0500915C050E94C030C9
:104B1000882329F481EE612F7F2D0E941B241F9191
:104B20000F91FF900895CF93DF93EC01E881F98115
:104B30008AE18193A0E0B6E088E00D900192815077
:104B4000E1F788E196E0BE010E940009DF91CF9174
:104B50000895E82F853419F480919D0508958830D3
:104B600030F4E82FF0E0E051FF4F84910895805435
:104B7000803228F4F0E0E854FF4F84910895E03F3C
:104B800010F480E00895F0E0E85DFF4F849108950F
:104B90001F93CF93DF93182FEB018091160681307E
:104BA00051F40E94EB23812FBE010E94B50F182FF4
:104BB0000E94102404C0812F0E94B50F182F812F4E
:104BC000DF91CF911F9108950F931F93CF93DF93A0
:104BD0008C01FC01C081D181BE016D5F7F4F898155
:104BE0008B3409F4A4C08C3478F5863009F475C090
:104BF000873098F4823009F4D0C0833038F48823A9
:104C000009F4BBC0813009F048C0BAC0843009F44F
:104C10005CC0853008F05CC0C3C0853409F469C04D
:104C2000863448F4813409F461C0823409F45BC0ED
:104C3000873099F555C0893409F468C08A3408F082
:104C40006DC0863451F55FC0853509F462C0863584
:104C5000A0F48F3409F476C0803530F48C3409F434
:104C60006BC08E34D1F46BC0823509F473C08335C8
:104C700009F473C0803589F468C08935D9F08A3564
:104C800028F4873579F0883580F409C08D35D1F066
:104C9000803F09F469C08A3581F094EF85C0809126
:104CA000170680C080916C057DC08091920590911F
:104CB000930557C08091700575C08091E105909172
:104CC000E2054FC080918F056DC080915C056AC080
:104CD00080915A0590915B0544C08091730562C034
:104CE000809169055FC0809191055CC080917D05D0
:104CF00059C040919D0523EA35E0CB01B90150E050
:104D00000E94963450C080919D054CC080919A05B8
:104D100049C080919E0590919F0523C0DB01E5EE7F
:104D2000F5E088E001900D928150E1F73CC0809160
:104D3000D7059091D80515C080919C0533C080910E
:104D4000680530C080916F052DC080915D05909100
:104D50005E0507C08091840525C080916005909113
:104D600061059C838B831FC0DB01E2E5F5E088E0F1
:104D700001900D928150E1F716C080916A0512C032
:104D80008091770590917805A0917905B0917A0589
:104D90008B839C83AD83BE8306C08091510502C086
:104DA00080915F058B8390E089818A838EE188837F
:104DB000998388E196E0B8010E940009DF91CF91C4
:104DC0001F910F910895FF920F931F93CF93DF933D
:104DD000182FEB01F42E8B3409F49BC08C3440F572
:104DE000833409F4B1C0843478F4853038F48230E7
:104DF00008F0AAC0882309F4A7C03EC0813409F492
:104E000053C08234C9F548C0863409F45AC0873487
:104E100030F4843409F444C0853471F549C08934D0
:104E200009F453C08A3408F05BC0873429F58CC07C
:104E3000853509F44EC0863570F4813530F48E34F2
:104E400008F082C08C34C1F46BC0823509F46CC0A8
:104E5000823590F079C08835A9F0893528F48635F7
:104E600069F0873549F470C08A3579F08A3508F4DD
:104E70006BC0803F09F468C004EFC7C0888180938D
:104E80001706C2C088819981BBC08881998190939F
:104E9000E2058093E105B8C0888180939105B4C094
:104EA000888180938505B0C0888180937D05ACC0E2
:104EB00023EA35E040919D05C90150E00E949634F7
:104EC000A3C0888180939D059FC0888180939A05A7
:104ED0009BC08881998190939F0580939E0594C083
:104EE00088818093E50589818093E6058A81809396
:104EF000E7058B818093E8058C818093E9058D819E
:104F00008093EA058E818093EB058F818093EC0579
:104F10007BC0888199819093D8058093D70574C010
:104F2000888180939C0570C06881611161E0609305
:104F30008405662331F00E94EB2386E00E9409136A
:104F400063C00E94102460C0812FBE010E94B50F73
:104F5000082F813871F40E94CB12812FBE010E946C
:104F6000B50F082F882309F050C081E08093EA0430
:104F700003C0882309F049C080916805282F30E0DC
:104F800080916C05482F50E060916F05CA01861B27
:104F90009109281739070CF4C901A82F281B3109DA
:104FA00081E090E002C0880F991F4A95E2F70197CF
:104FB000289FA001299F500D389F500D112420E0FB
:104FC00030E070E0E1E0F0E00DC0C901860F971F0E
:104FD000EF0102C0CC0FDD1F8A95E2F74C0F5D1F79
:104FE0002F5F3F4F2A1788F384E190E09C01429F96
:104FF000C001439F900D529F900D1124865F9E4FDC
:10500000909393058093920500E0FF2049F08091F2
:10501000EA04882329F080E00E94E1121092EA0459
:10502000802FDF91CF911F910F91FF900895EF9204
:10503000FF920F931F937C01FC0100811181B80145
:105040006E5F7F4FF801818141E00E94E326F80105
:10505000918192839FE19083818388E196E0B701FB
:105060000E9400091F910F91FF90EF900895CF9338
:10507000DF93EC01E881F98183E280836183662319
:1050800011F00E94102488E196E0BE010E94000900
:10509000DF91CF9108958091EF058823E1F082E0C0
:1050A0000E94EC048091EF05813031F480910A0672
:1050B000882311F060E001C06BEE80919005823092
:1050C00031F48091A1059091A2050E943728109299
:1050D000150610929005089580919005823039F45C
:1050E0008091A1059091A2056BEE0E943728109245
:1050F0009005109215060895CF92DF92EF92FF92DD
:105100000F931F93DF93CF93CDB7DEB728970FB6DA
:10511000F894DEBF0FBECDBFD82EC92E809190056A
:105120008823D1F5809114068330B1F180919905DF
:10513000882391F50E94EB23ED2CFC2CD701ED91F7
:10514000FC9181819F012C5F3F4F823031F484813B
:1051500095819A83898342E00DC0AE014F5F5F4F16
:1051600088E0D9010D909D01DA010D92AD018150C9
:10517000C1F743E00281138181E060E09E012F5F6F
:105180003F4F0E94421D882311F4C70107C0D092EF
:10519000A105C092A20505C08D2D9C2D61EE0E9437
:1051A000372828960FB6F894DEBF0FBECDBFCF913B
:1051B000DF911F910F91FF90EF90DF90CF900895B6
:1051C0005F926F927F928F929F92AF92BF92CF9297
:1051D000DF92EF92FF920F931F93DF93CF93CDB7A0
:1051E000DEB761970FB6F894DEBF0FBECDBFBC012E
:1051F00040919905423011F0443069F48091910555
:10520000882349F0E091A105F091A2052081318128
:10521000D901199604C0A0E0B0E020E030E0509140
:10522000FD0559830091FE051091FF051B830A833C
:10523000523069F41E821F82188619861A861B86D0
:1052400080910006909101069D838C8318C0809107
:1052500000068C83809101068D83809102068E83E7
:10526000809103068F8380910406888780910506CC
:105270008987809106068A87809107068B879090A0
:105280006A059C86B0905C05BD8680910B06909166
:105290000C069F878E87188A80910D0687FF02C0B3
:1052A00081E0888B80910906898B423019F0443067
:1052B00009F06FC080919105882309F46AC0F90153
:1052C000F084EC81FD815C806D807E808F80A8847D
:1052D000C984DA84EB8440E049C011968D919C9199
:1052E00012970817190709F03FC08C915817E1F57C
:1052F0001B968C911B979816B9F51C968C911C9750
:10530000B81691F5523041F413968D919C911497F3
:10531000E817F90749F53DC013968C911397851549
:1053200019F514968C9114978615F1F415968C91B5
:1053300015978715C9F416968C9116978815A1F4C0
:1053400017968C9117978A1579F418968C9118975F
:105350008C1551F419968C9119978D1529F41A967C
:105360008C911A978E15A9F04F5F51964F1508F43E
:10537000B4CF59C0FD01DE01119681E10D9001927B
:105380008150E1F7D90118968C9118978F5F189684
:105390008C9390910E0680911106882321F48091C0
:1053A00091058823E1F5DB01ED91FC9187E1808394
:1053B0008091F10581839F012E5F3F4FAE014F5FCA
:1053C0005F4F81E1DA010D90AD01D9010D929D0190
:1053D0008150C1F780910E06838B892F877059F415
:1053E000892F90E08077907024E0959587952A9595
:1053F000E1F7882331F080910F0690911006958B8C
:10540000848B80911106868B8091120690911306F1
:10541000908F878B88E196E00E94000909C0CB013C
:105420000E94CB0805C0E4E0EF1508F4B2CFA2CF8C
:1054300061960FB6F894DEBF0FBECDBFCF91DF915E
:105440001F910F91FF90EF90DF90CF90BF90AF90A2
:105450009F908F907F906F905F900895FB0140E048
:10546000208131812817390709F441E0842F0895FC
:10547000EF92FF920F931F93DF93CF9300D000D052
:10548000CDB7DEB7F82E8B011092150680919905E5
:10549000823029F4FB018081873059F406C08330C3
:1054A00041F4FB018081863021F48F2D0E94232F4F
:1054B0002CC1F8018081883009F419C1893098F431
:1054C000833009F445C0843038F4813009F468C071
:1054D000823009F018C1E4C0843009F490C08530EE
:1054E00009F011C1FBC08B3009F489C08C3038F44D
:1054F000893009F4ECC08A3009F005C1FFC08C3056
:1055000009F4FCC08D3009F0FEC0F80186818823C3
:10551000B9F01682FF2021F0F7E8FF1609F0F3C07A
:105520008EE29AE29A838983F801818192819C8339
:105530008B838FE795E0BE016F5F7F4F0E949509D7
:10554000F801818192816F2D43810E94D420DBC0BC
:10555000F80186818823B1F01682FF2019F0F7E860
:10556000FF16B1F48EE29AE29A838983F801818171
:1055700092819C838B838FE795E0BE016F5F7F4FA5
:105580000E949509F801818192816F2D0E94A91EC8
:1055900080911406813009F0B6C00E943325B3C053
:1055A000F9EEFF1619F091EEF91649F4F801818130
:1055B00092816F2D4FEF5FEF0E945913A4C080932B
:1055C00090054091E1055091E20560E070E094E0C3
:1055D000440F551F661F771F9A95D1F782E020E090
:1055E00030E00AEA13E1EE24FF240E94FB05882341
:1055F00009F48BC080E090E00E94AA1386C0F801F5
:10560000818192810E94CB0880919005813009F4BC
:105610007CC0F80180818430C1F4F7E8FF1699F06E
:10562000E091A105F091A2050190F081E02D83E2C7
:105630008083F1826091A1057091A20588E196E0D6
:105640000E94000960C082E009C089EEF81609F4E2
:105650005AC091EEF91609F456C083E08093900584
:10566000409192055091930560E070E084E0440F12
:10567000551F661F771F8A95D1F782E020E030E042
:105680000CE618E2EE24FF240E94FB0591E09093C3
:1056900015068823D1F180E090E00E946C2835C087
:1056A000F8011682FF2019F0F7E8FF1661F58EE287
:1056B0009AE29A838983F801818192819C838B830A
:1056C0008FE795E0BE016F5F7F4F0E949509F8015B
:1056D000618172818F2D0E941B2415C0F801818188
:1056E00092810E94CB088EEE0E9446300CC0F801D9
:1056F000618172818F2D0E947E2F05C0F80181810A
:1057000092810E94CB080E9410240F900F900F905E
:105710000F90CF91DF911F910F91FF90EF9008951F
:10572000EF92FF920F931F931092D90580918405F9
:105730008823C9F4809116068823A9F488E00E9482
:105740000913883071F085E040E850E060E070E0D7
:1057500020E030E000E91BE2EE24FF240E94FB057C
:1057600002C00E9410241F910F91FF90EF900895A6
:10577000DF92EF92FF920F931F93CF93DF93EC0191
:10578000E881F981E680F78000851185E114F10454
:105790000105110539F480E090E00E94902BE8812A
:1057A000F98147C0809190058823F1F58091990592
:1057B0008823D1F50E94EB2386E00E940913D82E9E
:1057C00081E08093D90585E00E942104882319F0A7
:1057D00085E00E94EC0484E0EE0CFF1C001F111F0A
:1057E0008A95D1F785E0B801A70120E030E000E913
:1057F0001BE2EE24FF240E94FB05882381F0E88150
:10580000F98181E2808388EE818388E196E0BE01A0
:105810000E94000980E090E00E94902B12C0E88175
:10582000F98186E0D81629F081E2808382EF8183B6
:1058300003C081E28083118288E196E0BE010E946C
:105840000009DF91CF911F910F91FF90EF90DF90B2
:105850000895BC0188E196E00E94000980918E05C0
:105860008093F10484E061EF74E00E94C825809188
:10587000A0058093F00480E060EF74E00E94C825EA
:10588000109299050E9410240895CF93DF93E09120
:10589000E305F091E405C081D181DE01A956BF4F37
:1058A000FA83E983882339F087E088838C934AE080
:1058B00023E038E013C086E088838C9318979D011D
:1058C00042E555E088E0FA010190AF01F90101924B
:1058D0009F018150C1F742E123E438ECFD018FEFD5
:1058E0009FEF929382933297918380831597809153
:1058F0009C058C938F5F80939C053E932E93FD01B6
:105900004293F887EF83CE0160E070E040E00E94B0
:10591000C00D882311F080E003C081E0809315065C
:10592000DF91CF910895DF93CF930F92CDB7DEB77C
:1059300090919905923069F0933079F09130F9F4B3
:105940008823C1F4909315068091F2040E94600EA2
:1059500016C0882379F481E002C0882359F40E949C
:10596000452C882361F484E08983CE0101960E944E
:10597000D02D05C08091F0048F5F8093F0040F90CC
:10598000CF91DF9108950F931F938C018091E305D0
:105990009091E4050E94CB081092E4051092E30573
:1059A000A091A105B091A205ED91FC9111978BE119
:1059B0008083118283E0828314821582168217828B
:1059C000108688E196E0BD010E94000910929905B9
:1059D0000E941024C8010E94CB0880E56BE076E0AD
:1059E0000E94C82580911006909111068F5F9F4FED
:1059F00029F083E560E176E00E94C82580910D06DC
:105A000090910E069093D8058093D7058091ED056F
:105A10009091EE0594FF05C084E062E176E00E947B
:105A2000C82580E06FE076E00E94C8250E94932C94
:105A30001F910F910895EF92FF921F93CF93DF93E1
:105A4000182F7B01FB01C081D18184E061EF74E0FC
:105A50000E94C82540919905509191052091F0042C
:105A600051C0423011F0443031F4552321F0888583
:105A7000853008F04AC0133021F48885882309F066
:105A800072C0322F3F5F8C819D81AE81BF81022E1B
:105A900004C0B695A795979587950A94D2F781701B
:105AA0009070892B71F12093F004113021F482E081
:105AB0008093990504C0133011F41093990580E088
:105AC00060EF74E00E94C825182F8823B1F0809100
:105AD000E3059091E4050E94CB081092E405109232
