:100000000C9408010C94790C0C9427010C94270192
:100010000C9427010C9427010C9427010C942701C0
:100020000C9427010C9427010C9427010C942701B0
:100030000C9427010C9427010C9427010C942701A0
:100040000C94A40C0C9451100C9427010C942701CF
:100050000C9420100C9427010C9427010C94270178
:100060000C9427010C9427010C9427010C94270170
:100070000C9427010C9427010C9427010C94270160
:100080000C9427010C9427010C9427010C94270150
:100090000C9427010C9427010C9427010C94270140
:1000A0000C9427010C9427010C9427010C94270130
:1000B0000C9427010C9427010C9427010C94270120
:1000C0000C9427010C9427010C9427017307F30962
:1000D00040061409CC078B07F309F309A807F309B5
:1000E000F309340780070107A0077306F30999078E
:1000F000860996079E085C09C306F30947096E61E5
:100100006E00696E660003020201010000FFFEFD41
:10011000FCFBF9F7F4EF00407A10F35A00A0724E9E
:1001200018090010A5D4E80000E87648170000E49C
:100130000B54020000CA9A3B000000E1F5050000E4
:1001400080969800000040420F000000A086010049
:100150000000102700000000E80300000000640019
:10016000000000000A000000000001000000000084
:100170002C76D888DC674F0823DFC1DFAE59E1B1A8
:10018000B796E5E3E453C63AE651997696E8E6C2B7
:100190008426EB898C9B62ED407C6FFCEFBC9C9FBE
:1001A00040F2BAA56FA5F490055A2AF75C936B6CE0
:1001B000F9676DC11BFCE0E40D47FEF520E6B500D4
:1001C000D0ED902E0300943577050080841E080042
:1001D00000204E0A000000C80C333333330F986EF2
:1001E00012831141EF8D2114893BE65516CFFEE6AF
:1001F000DB18D1844B381BF77C1D901DA4BBE42475
:10020000203284725E228100C9F124ECA1E53D27F1
:1002100011241FBECFEFD1E2DEBFCDBF1CE0A0E0B6
:10022000B2E0E4E2FCE500E00BBF02C007900D92F3
:10023000A433B107D9F715E1A4E3BCE001C01D92D6
:10024000A837B107E1F70E94010A0C94102E0C9414
:100250000000CF92DF92EF92FF920F931F93809155
:100260000D0B90910E0B029709F001C1E090EF0C7D
:10027000F090F00C0091F10C1091F20C8091EB0CCD
:100280009091EC0CA091ED0CB091EE0CE81AF90AEB
:100290000A0B1B0B80E092E00E94F32BC801B70110
:1002A0000E94E22220E034E244E759E40E94542113
:1002B0006B017C0100D000D000D088E192E0ADB7A6
:1002C000BEB712969C938E931197EDB7FEB7C3827B
:1002D000D482E582F6820E94DA2B00D000D0EDB7FE
:1002E000FEB7319682E392E0ADB7BEB712969C930B
:1002F0008E93119780910F0B9091100BA091110B81
:10030000B091120B82839383A483B5838091E30C15
:100310009091E40CA091E50CB091E60C8683978354
:10032000A087B1870E94DA2BEDB7FEB73A960FB6D9
:10033000F894FEBF0FBEEDBF8091130B882319F117
:1003400000D000D000D083E692E0ADB7BEB71296E1
:100350009C938E9311978091DB0C9091DC0CA09173
:10036000DD0CB091DE0CEDB7FEB783839483A583DB
:10037000B6830E94DA2B8DB79EB706960FB6F89417
:100380009EBF0FBE8DBF8091140B882319F100D042
:1003900000D000D08AE792E0ADB7BEB712969C932A
:1003A0008E9311978091DF0C9091E00CA091E10C5D
:1003B000B091E20CEDB7FEB783839483A583B68337
:1003C0000E94DA2B8DB79EB706960FB6F8949EBFA3
:1003D0000FBE8DBF00D000D000D00DB71EB70F5F8D
:1003E0001F4F8AE992E0ADB7BEB712969C938E93E9
:1003F000119760910F0B7091100B8091110B9091E0
:10040000120B23E0660F771F881F991F2A95D1F7DB
:100410002091150B30E040E050E00E9400290E943E
:10042000E222A70196010E94542120E030E04AE731
:1004300054E40E945421F80162837383848395837A
:100440000E94DA2B0F900F900F900F9088EB92E0A4
:10045000ADB7BEB712969C938E9311970E94DA2B7C
:100460000F900F9080E090E00E94E60A48C082ED75
:1004700092E00E94F32BE090D30CF090D40C00910A
:10048000D50C1091D60CE114F10401051105A1F071
:100490006091F30C7091F40C8091F50C9091F60C36
:1004A000A80197010E9446292093F30C3093F40C85
:1004B0004093F50C5093F60CEDB7FEB738970FB696
:1004C000F894FEBF0FBEEDBF31968BEE92E0ADB754
:1004D000BEB712969C938E931197E282F3820483A7
:1004E00015838091F30C868317820E94DA2BEDB777
:1004F000FEB738960FB6F894FEBF0FBEEDBF1F9142
:100500000F91FF90EF90DF90CF900895FF920F939F
:100510001F93DF93CF930F92CDB7DEB7F82E80E015
:10052000BE016F5F7F4F0E94B01700D000D000D097
:100530000DB71EB70F5F1F4F8FE193E0EDB7FEB70A
:10054000928381838981F801828313826F2D70E009
:10055000882777FD8095982F0E94302221EE30EE7B
:1005600040E65EE30E945A209B01AC0160E070E02F
:1005700086EB92E40E94FC1F0E94841EF8016483B3
:1005800015820E94DA2BF694F69400E08DB79EB7A0
:1005900006960FB6F8949EBF0FBE8DBF05C088E5C6
:1005A00090E00E94EC2B0F5F0F15C8F388E293E0F8
:1005B0000E94F32B8FEF89834091F80C5091F90C36
:1005C0006091FA0C7091FB0C20E030E0DB01CA0175
:1005D000022E04C0B695A795979587950A94D2F7F1
:1005E00081709070892BF1F0298381E090E0A0E088
:1005F000B0E0022E04C0880F991FAA1FBB1F0A94E7
:10060000D2F780959095A095B09584239523A62345
:10061000B7238093F80C9093F90CA093FA0CB09345
:10062000FB0C05C02F5F3F4F2B31310579F68981D7
:100630008F3FB9F480E067EF7CE00E9417191092B9
:10064000340C00D08AE293E0EDB7FEB79283818349
:100650000E94DA2B0F900F9080E090E00E94E60A53
:100660000AC080E0BE016F5F7F4F0E941719809122
:10067000FC0C0E941E170F90CF91DF911F910F91DC
:10068000FF9008958823A1F48091D70C9091D80C05
:10069000A091D90CB091DA0C0196A11DB11D8093E7
:1006A000D70C9093D80CA093D90CB093DA0C3FC020
:1006B000893EA1F48091DB0C9091DC0CA091DD0CC3
:1006C000B091DE0C0196A11DB11D8093DB0C9093BF
:1006D000DC0CA093DD0CB093DE0C29C0813EA1F4AC
:1006E0008091DF0C9091E00CA091E10CB091E20CB4
:1006F0000196A11DB11D8093DF0C9093E00CA09397
:10070000E10CB093E20C13C08091E30C9091E40CE7
:10071000A091E50CB091E60C0196A11DB11D80934E
:10072000E30C9093E40CA093E50CB093E60C80915D
:10073000E70C9091E80CA091E90CB091EA0C0197BC
:10074000A109B1098093E70C9093E80CA093E90C00
:10075000B093EA0C0097A105B10549F48FEE9CE037
:100760000E944C0D88E00E94CE1C0E94290110922C
:10077000350C0895AF92BF92CF92DF92FF920F9304
:100780001F93DF93CF9300D000D00F92CDB7DEB789
:100790008C018091D30C9091D40CA091D50CB09188
:1007A000D60C0196A11DB11D8093D30C9093D40C4F
:1007B000A093D50CB093D60CD8011796ED91FC916F
:1007C00018973081E30FF11D21818091F30C9091F6
:1007D000F40CA091F50CB091F60C820F911DA11DA7
:1007E000B11D8093F30C9093F40CA093F50CB0938F
:1007F000F60C80910D0B90910E0B039709F051C0F0
:1008000000D000D0EDB7FEB7319682E593E0ADB7EA
:10081000BEB712969C938E931197328313820E94D7
:10082000DA2BFF240F900F900F900F906E01089419
:10083000C11CD11C3EE5A32E33E0B32E24C000D052
:1008400000D000D04DB75EB74F5F5F4FEDB7FEB73A
:10085000D282C182FA01B382A282A20FB31F8C910D
:10086000848315820E94282C0F900F900F900F9078
:10087000ADB7BEB71296DC92CE9211970E94DA2BDA
:10088000F3940F900F90F801A781B0858C9190E0C0
:100890002F2D30E08217930794F688E293E00E94B0
:1008A000F32BD80111968D919C9112970E9474128E
:1008B0000F900F900F900F900F90CF91DF911F919D
:1008C0000F91FF90DF90CF90BF90AF900895CF939E
:1008D000DF934091150B4B5088E990E0841B910900
:1008E0002091D10C3091D20C280F391FF90180E0F2
:1008F00002C081938F5F8417E0F3F90181E090E0FB
:10090000929382939293829332978DEC9BEA918398
:100910008083E90127970E94FA2988838091130B2D
:10092000882319F081E698E802C081E498E89A9358
:100930008A93FE018091150B8293A091D10CB09106
:10094000D20C1896FC93EE931797DF91CF910895F0
:10095000DF92EF92FF920F931F93DF93CF93CDB768
:10096000DEB764970FB6F894DEBF0FBECDBF84E646
:1009700093E00E94F32B00D08CE993E0ADB7BEB7B3
:1009800012969C938E9311970E94DA2B8BEB93E037
:10099000EDB7FEB7928381830E94DA2B85EC93E05A
:1009A000ADB7BEB712969C938E9311970E94DA2B27
:1009B00089EC93E0EDB7FEB7928381830E94DA2B36
:1009C0000F900F9084ED93E00E94F32B80E08E0156
:1009D0000F5F1F4FB8010E94B01700D000D0EDB7D5
:1009E000FEB7319682EE93E0ADB7BEB712969C93F8
:1009F0008E9311978981828313820E94DA2B0F9044
:100A00000F9087EF93E0EDB7FEB7928381830E944A
:100A1000DA2B0F900F9084E0B8010E94B017882362
:100A2000B9F400D000D0EDB7FEB731968BE094E07A
:100A3000ADB7BEB712969C938E931197898182832E
:100A400013820E94DA2B0F900F900F900F9004C02A
:100A500082E194E00E94F32B82E0BE016F5F7F4F42
:100A60000E94B017898185FD03C0282F2F7304C011
:100A7000282F21952F71219500D000D081E294E09C
:100A8000EDB7FEB792838183822F992787FD9095DA
:100A9000948383830E94DA2B00D08BE394E0ADB77C
:100AA000BEB712969C938E93119780910F0B9091E5
:100AB000100BA091110BB091120BEDB7FEB7838311
:100AC0009483A583B6830E94DA2B0F900F90EDB725
:100AD000FEB731968FE594E0ADB7BEB712969C9302
:100AE0008E9311978091150B828313820E94DA2BCB
:100AF0000F900F9080E894E0EDB7FEB7928381836A
:100B00000E94DA2B0F900F908091130B882319F01D
:100B100085E994E002C084EA94E00E94F32B00D0BF
:100B200086EB94E0ADB7BEB712969C938E93119767
:100B30000E94DA2B0F900F908091160B882319F0EA
:100B400083ED94E002C089ED94E00E94F32B00D085
:100B500080EE94E0EDB7FEB7928381830E94DA2B9A
:100B60000F900F908091140B882319F083ED94E07F
:100B700002C089ED94E00E94F32B00D086EF94E050
:100B8000ADB7BEB712969C938E9311970E94DA2B45
:100B90000F900F9080910D0B90910E0B813091056D
:100BA00069F08130910530F08230910559F003975A
:100BB000F1F410C000D08AE295E007C000D08EE2C8
:100BC00095E00BC000D081E395E0EDB7FEB79283CE
:100BD000818309C000D084E395E0ADB7BEB712961B
:100BE0009C938E9311970E94DA2B0F900F9088E2BE
:100BF00093E00E94F32B85E495E00E94F32B88E6B6
:100C000095E00E94F32B8AE995E00E94F32B00D037
:100C100085ED95E0EDB7FEB7928381830E94DA2BD4
:100C20000F900F908091170B882319F087EF95E0B4
:100C300002C080E096E00E94F32B8AE096E00E94DA
:100C4000F32B86E396E00E94F32B8EE390E00E9464
:100C5000EC2B80E090E00E94E60A90E00E94272BB7
:100C600090E0FC01E154F040E931F10508F0BBC32C
:100C7000EA59FF4FEE0FFF1F0590F491E02D099404
:100C8000DE011496E8E1FBE083E001900D928150D3
:100C9000E1F700D088E496E0ADB7BEB712969C931A
:100CA0008E9311970E94DA2B8E010C5F1F4F0F90CD
:100CB0000F90F7E0EF2EF12CEC0EFD1E80E090E09F
:100CC0000E94E60A982F80538A3030F4F8019193FD
:100CD0008F01EE15FF0591F7CE0104960E94282A98
:100CE0006A8380E04AC0DE011496EBE1FBE083E01A
:100CF00001900D928150E1F785E796E00E94F32B79
:100D00008FE996E00E94F32B87EA96E00E94F32B8E
:100D100082EB96E00E94F32B8FEB96E00E94F32B80
:100D20008CEC96E00E94F32B00D089EE96E0ADB7F4
:100D3000BEB712969C938E9311970E94DA2B8E0168
:100D40000C5F1F4F0F900F90E7E0EE2EF12CEC0E92
:100D5000FD1E80E090E00E94E60A982F80538A30C2
:100D600030F4F80191938F01EE15FF0591F7CE0154
:100D700004960E940A2A8A8384E0BE016E5F7F4F38
:100D80000E94171930C31F82188619861A8600D050
:100D900084E297E0ADB7BEB712969C938E931197FD
:100DA0000E94DA2B8E01095F1F4F0F900F907BE09E
:100DB000E72EF12CEC0EFD1E80E090E00E94E60A8A
:100DC000982F80538A3020F09D3211F09B3231F4FD
:100DD000F80191938F01EE15FF0571F7CE0107968B
:100DE0000E940A2A803E14F480E208C0803214F087
:100DF0008FE104C087FF02C08F7180628A8382E026
:100E0000BCCF8E01055F1F4F8AE0D8011D928A95E5
:100E1000E9F700D089E697E0EDB7FEB792838183CA
:100E20000E94DA2B0F900F9065E1E62EF12CEC0E6C
:100E3000FD1E80E090E00E94E60A982F80538A30E1
:100E400030F4D8019D938D01AE15BF0591F7CE0109
:100E50000B960E94282A60930F0B7093100B8093BF
:100E6000110B9093120BBFC21F82188619861A8627
:100E700000D000D084EA97E0EDB7FEB7928381837B
:100E80008BE090E0948383830E94DA2B8E01095FCC
:100E90001F4F0F900F900F900F905BE0E52EF12CFD
:100EA000EC0EFD1E80E090E00E94E60A982F805331
:100EB0008A3030F4D8019D938D01AE15BF0591F7AE
:100EC000CE0107960E940A2A8B30910510F48BE020
:100ED00004C08038910520F08FE78093150B0DC07A
:100EE0008093150B0AC08091130B882319F0109280
:100EF000130B03C081E08093130B0E94670473C23D
:100F00008091140B882319F01092140B6CC281E0AD
:100F10008093140B68C28091160B882319F01092ED
:100F2000160B61C281E08093160B5DC282E090E0F7
:100F300002C081E090E090930E0B80930D0B53C2A2
:100F400010920E0B10920D0B88E00E94CE1C4BC22B
:100F500081E08A831092D30C1092D40C1092D50C9D
:100F60001092D60C1092F30C1092F40C1092F50C17
:100F70001092F60C81E5BE016E5F7F4F0E9417193B
:100F8000882309F030C283E090E090930E0B8093A9
:100F90000D0B8DEE97E045C1DE011496EEE1FBE00E
:100FA00083E001900D928150E1F78CE08B8382E029
:100FB000BE016D5F7F4F41E00E945C0C84E298E0CF
:100FC0000E94F32B81E398E00E94F32B8EE698E0D9
:100FD0000E94F32B00D089E998E0EDB7FEB7928329
:100FE00081830E94DA2B8E010C5F1F4FDD240F904E
:100FF0000F9047E0E42EF12CEC0EFD1E80E090E017
:101000000E94E60A982F80538A3040F4D8019D93BD
:101010008D01DD24D394AE15BF0581F7CE01049672
:101020000E94282A6093FC0CDD2011F0603180F0D2
:101030008BEC98E00E94F32B00D08AE293E0EDB7AE
:10104000FEB7928381830E94DA2B0F900F90C7C165
:1010500081E08093340C00D000D0EDB7FEB731961C
:1010600084EE98E0ADB7BEB712969C938E9311971D
:101070008091FC0C828313820E94DA2B0F900F90D8
:101080000F900F9088E299E00E94F32B80E067EFC9
:101090007CE00E94B01781E068EF7CE00E94B0170E
:1010A0004091F80C5091F90C6091FA0C7091FB0C86
:1010B00020E030E0E22FDB01CA01022E04C0B69529
:1010C000A795979587950A94D2F781709070892B90
:1010D00029F12A8321E030E040E050E004C0220FF3
:1010E000331F441F551FEA95D2F720953095409540
:1010F00050958091F80C9091F90CA091FA0CB09158
:10110000FB0C82239323A423B5238093F80C9093A4
:10111000F90CA093FA0CB093FB0C05C02F5F3F4F66
:101120002B31310539F680E0BE016E5F7F4F0E94A2
:1011300017198091FC0C0E941E1755C180E0BE015A
:101140006D5F7F4F0E94B01700D08EE399E0EDB73E
:10115000FEB7928381830E94DA2B0F900F9080E07C
:1011600090E00E94E60A90E00E94272B833421F051
:10117000803509F054C018C000D000D0EDB7FEB7DC
:10118000319681E899E0ADB7BEB712969C938E93E5
:1011900011978B81828313820E94DA2B0F900F901C
:1011A0000F900F9080E017C000D000D0EDB7FEB7D1
:1011B00031968FEB99E0ADB7BEB712969C938E93A4
:1011C00011978B81828313820E94DA2B0F900F90EC
:1011D0000F900F9081E00E94321D84E090E0909388
:1011E0000E0B80930D0B00D080E19AE0EDB7FEB7B7
:1011F000928381830E94DA2B0F900F9080E090E021
:101200000E94E60A0E94FE1C81E49AE00E94F32BF1
:1012100010920E0B10920D0B0E94A804E4C085EFF3
:1012200099E00E94F32BDFC084E090E090930E0BD6
:1012300080930D0B80E0BE016E5F7F4F0E94B01760
:1012400000D000D0EDB7FEB7319681E899E0ADB798
:10125000BEB712969C938E9311978A8182831382D4
:101260000E94DA2B0F900F900F900F9080E00E9459
:10127000321D80E040E553EC60E070E020E030E0BB
:101280000EEB1AE0EE24FF240E942C0FACC08091DC
:10129000170B882339F01092170B8DE068E043E0BC
:1012A00020E007C081E08093170B8DE068E043E009
:1012B00021E00E94551297C00E94901D9C0100D011
:1012C00000D000D0EDB7FEB7319687E59AE0ADB714
:1012D000BEB712969C938E931197C90168EE73E086
:1012E0000E941F2973836283C90168EE73E00E9424
:1012F0001F29958384830E94DA2BEDB7FEB73696BB
:101300000FB6F894FEBF0FBEEDBF6DC080910D0B00
:1013100090910E0B82309105D1F500D088E79AE0CC
:10132000ADB7BEB712969C938E9311970E94DA2B9D
:1013300080910F0B9091100BA091110BB091120B9B
:101340008093E70C9093E80CA093E90CB093EA0C1F
:101350001092DB0C1092DC0C1092DD0C1092DE0C63
:101360001092DF0C1092E00C1092E10C1092E20C43
:101370001092E30C1092E40C1092E50C1092E60C23
:101380000F900F908BEE9CE00E944C0D2CC00197AB
:1013900011F51092F30C1092F40C1092F50C1092BF
:1013A000F60C1092D30C1092D40C1092D50C109213
:1013B000D60C81E08093360C86E00E94CE1C00D0D3
:1013C00088EA9AE0EDB7FEB7928381830E94DA2B18
:1013D0000F900F9008C08DED9AE00E94F32B80E0F3
:1013E00090E00E94E60A64960FB6F894DEBF0FBE46
:1013F000CDBFCF91DF911F910F91FF90EF90DF90C4
:101400000895EF92FF920F931F93DF93CF9300D035
:101410000F92CDB7DEB70E948F1B882311F00E9478
:10142000AE0C0E947D100E94791180E090E060E097
:1014300070E00E948711789482E00E94650C8823F6
:1014400011F00E94AE0C82E09BE066EE7AE00E9412
:10145000622B87E39CE09093D20C8093D10C81E0C7
:1014600090E09B838A838E010E5F1F4F83E5B80156
:101470000E9417198DEC9BEA9B838A8380E5B80153
:101480000E94171984E1898380E08E010F5F1F4F4E
:10149000B8010E9417190E94670480E090E00E9442
:1014A000E60AEE24E394F02E012F0E942D0D0E94F7
:1014B00022158091E70C9091E80CA091E90CB09175
:1014C000EA0C0097A105B10509F18091350C88233C
:1014D00061F7E092350CA091D10CB091D20C179627
:1014E000ED91FC91189783818F5F83838091140B1A
:1014F000882321F0CD0162E070E003C0CD0160E0FF
:1015000070E04091160B0E94AA16CFCF8091360C46
:10151000882369F080E090E00E94CB0A8F5F9F4FA4
:1015200021F21092360C88E00E94CE1C19C08091E6
:101530000D0B90910E0B83309105A9F480E090E0A3
:101540000E94CB0A8F5F9F4F09F4AFCF198281E5CC
:101550006F2D702F0E94171910920E0B10920D0B09
:101560000E942901A2CF049709F49FCF8091340CE7
:10157000882309F09ACF0E94A80497CF0E94FE1CEE
:1015800081E49AE00E94F32B10920E0B10920D0B47
:101590000E94A8040895DF93CF930F92CDB7DEB7D2
:1015A0000E942D0D82E0BE016F5F7F4F41E00E94DF
:1015B000530C813019F02FEF3FEF03C08981282FA2
:1015C00030E0C9010F90CF91DF9108950F931F93E1
:1015D000DF93CF930F92CDB7DEB78E010F5F1F4F12
:1015E00002C00E942D0D82E0B80141E00E94530C20
:1015F0008823B9F3898190E00F90CF91DF911F91FB
:101600000F9108950F931F93DF93CF930F92CDB750
:10161000DEB789838A30A9F48DE089838E010F5F5C
:101620001F4F02C00E942D0D82E0B80141E00E94D0
:101630005C0C8823B9F38AE0898303C00E942D0DD6
:1016400003C08E010F5F1F4F82E0B80141E00E948E
:101650005C0C882399F380E090E00F90CF91DF91AC
:101660001F910F910895E4E7F0E080818068808306
:1016700080E8809375008DB18F738DB90895DC017A
:101680008091FD0C882311F080E008959091FF0C6B
:101690008091FE0C981710F0875F01C08150891B64
:1016A000282F681708F4262F8091020D820F80934F
:1016B000020D322F0DC0E92FF0E0EC5DFA4E8C9157
:1016C0008083993011F490E001C09F5F31501196F2
:1016D000332389F79093FF0C822F0895DC019091BA
:1016E000030D992311F480E008959A3058F0809109
:1016F000010D8093000D8AE08093030D6A3020F085
:101700009AE003C0961708F0962F2091000D4091A3
:10171000030D392F0CC0E22FF0E0E25DFA4E80811C
:101720008C932F5F2A3009F420E011963150332337
:1017300091F72093000D491B4093030D892F0895C5
:101740001F93DF93CF9300D000D0CDB7DEB76CB13D
:1017500067FD18C08091030D8A30A0F48F5F8093DD
:10176000030D9091010D80910022E92FF0E0E25DE0
:10177000FA4E8083993019F41092010D03C09F5FD7
:101780009093010DB091020DBB2309F052C083C0AC
:1017900061157105B1F4AA2329F020E030E040E0A2
:1017A00050E0A0E0E92FF0E0EC5DFA4E80818093FC
:1017B0000022993011F490E001C09F5F1150B150A8
:1017C00048C02093040D3093050D4093060D5093AF
:1017D000070DA093FD0C9093FE0CB093020DAA236D
:1017E00009F059C0211531054105510529F484E05E
:1017F0009DE00E944C0D4FC0CE0101960E944C0D01
:1018000089819A81AB81BC812091040D3091050DB5
:101810004091060D5091070D821B930BA40BB50B45
:1018200089589341A040B040B0F181E08093FD0C15
:1018300032C02091040D3091050D4091060D50915C
:10184000070DA091FD0C9091FE0C1FEF70E06074ED
:101850007070BB2379F42093040D3093050D4093F1
:10186000060D5093070DA093FD0C9093FE0C109263
:10187000020D11C0112309F08BCF2093040D30937A
:10188000050D4093060D5093070DA093FD0C90930A
:10189000FE0CB093020D0F900F900F900F90CF9110
:1018A000DF911F910895823011F080E00895CB01FF
:1018B000642F0E946E0B0895823011F080E008952D
:1018C000CB01642F0E943F0B0895823011F085E810
:1018D00008950E94330B80E008959093090D809342
:1018E000080DE9E6F0E080818360808381E08CBBB5
:1018F00008951F920F920FB60F920BB60F921124FC
:101900002F933F934F935F936F937F938F939F9307
:10191000AF93BF93EF93FF93E091080DF091090D02
:101920000995FF91EF91BF91AF919F918F917F9119
:101930006F915F914F913F912F910F900BBE0F9040
:101940000FBE0F901F9018951F920F920FB60F9217
:1019500011240F900FBE0F901F9018950E947911BF
:101960008FEF9FEF0E946D0D80E090E062E070E0ED
:101970000E94871181E090E062E070E00E94871190
:10198000EFCFCF92DF92EF92FF920F931F93CF93FF
:10199000DF938C017B016A01CB01800F911F815085
:1019A000904110F085E816C0C0E0D0E00FC0C8013B
:1019B0000E94B72CF601EC0FFD1F6081861719F00D
:1019C000C8010E94BF2C0F5F1F4F2196CE15DF0567
:1019D00070F380E0DF91CF911F910F91FF90EF9016
:1019E000DF90CF900895CF92DF92EF92FF920F9306
:1019F0001F93CF93DF938B017A01690181309105A9
:101A000031F4862F642FA9010E9403111DC0892B78
:101A100011F088EE19C0CA01860F971F81509041BE
:101A200010F085E811C0C0E0D0E00AC0CE01800F00
:101A3000911F0E94B72CF601EC0FFD1F80832196A9
:101A4000CE15DF0598F380E0DF91CF911F910F91C4
:101A5000FF90EF90DF90CF9008950E94F30E0E94C8
:101A6000A00B089580E090E020E80FB6F894209352
:101A70006100809361000FBE0E94ED100E94E4118E
:101A80000E94641080E00895892B11F482E401C063
:101A900087E4809381000895FC01209138153091EE
:101AA0003915C901A0E0B0E0BC0155274427809159
:101AB000840090918500A0E0B0E0482B592B6A2B60
:101AC0007B2B80913815909139152817390729F704
:101AD000408351836283738308954FB7F8948630AF
:101AE000910518F12091840030918500280F391F4D
:101AF00080918400909185008217930740F4809133
:101B000084009091850082179307C8F30EC08091DE
:101B100084009091850028173907C8F380918400CC
:101B20009091850082179307C8F34FBF089520E076
:101B300090E0FC0153E0EE0FFF1F5A95E1F7E80F2C
:101B4000F91FE65CFA4E84819581892B09F021E02A
:101B5000822F0895DF92EF92FF920F931F93DFB6CB
:101B6000F89480910C0D8F3F09F453C090E0FC0174
:101B7000A3E0EE0FFF1FAA95E1F7E80FF91FE65C5F
:101B8000FA4EE080F1800281138120913815309166
:101B90003915C801AA27BB272817390751F4F09235
:101BA0008900E092880082E086BB80916F008260AD
:101BB00003C080916F008D7F80936F006091381516
:101BC000709139159B0140E050E080918400909124
:101BD0008500A90133272227A0E0B0E0282B392B6C
:101BE0004A2B5B2B8091381590913915681779072E
:101BF00029F72E193F09400B510B2F5F3F4F4F4FD5
:101C00005F4F2F5F3F4F4F4F5F4718F481E0809346
:101C10000B0DDFBE1F910F91FF90EF90DF900895A5
:101C200080910B0D882309F44CC010920B0D30915C
:101C30000A0D332309F445C080910D0D8F3F59F4EF
:101C400080910E0D8F3F39F480910C0D80930E0D15
:101C500080930D0D12C020910C0D80910E0D90E01F
:101C6000FC0143E0EE0FFF1F4A95E1F7E80FF91F73
:101C7000E65CFA4E208720930E0D80910C0D90E0CB
:101C8000FC0123E0EE0FFF1F2A95E1F7E80FF91F93
:101C9000E65CFA4E808580930C0D80910E0D90E0ED
:101CA000FC01B3E0EE0FFF1FBA95E1F7E80FF91F53
:101CB000E65CFA4E8FEF8087315030930A0D0E9418
:101CC000AA0D08950F931F93882311F08AE883C00B
:101CD0000FB7F8940E94100E10910A0D112309F409
:101CE0007DC040910C0D242F312F842F2223F1F43D
:101CF000442339F48091421580930C0D0E94AA0D63
:101D00000EC090E0FC01A3E0EE0FFF1FAA95E1F7E3
:101D1000E80FF91FE65CFA4E8091421580878FEF3D
:101D200080934215115010930A0D4AC0822F90E003
:101D3000FC0173E0EE0FFF1F7A95E1F7E80FF91F42
:101D4000E65CFA4E50853150822F09F447C0252FAA
:101D5000CDCF222319F520910E0D332359F42223E0
:101D600021F48FEF80930E0D02C080914215809375
:101D70000D0D26C0842F90E0FC0163E0EE0FFF1FE5
:101D80006A95E1F7E80FF91FE65CFA4E809142157B
:101D900080872223A9F440930E0D12C0822F90E079
:101DA000FC0153E0EE0FFF1F5A95E1F7E80FF91F12
:101DB000E65CFA4E422F20852F3F59F680E005C0A1
:101DC00010923F1510923E1581E00FBF882311F449
:101DD00089E801C080E01F910F91089530910D0DA9
:101DE000232F432FE9CF1F931FB7F8940E94100EA3
:101DF0001FBF1FEF25C06FB7F894822F90E0FC0142
:101E0000B3E0EE0FFF1FBA95E1F7E80FF91FE65CAC
:101E1000FA4E2085448155818681978110871582ED
:101E20001482178216822F3F09F43FEF6FBF4115CE
:101E3000510551F030930E0D20930D0DFA010995C7
:101E400030910E0D20910D0D2F3FA9F630930E0D00
:101E500020930D0D1F9108954F925F926F927F9284
:101E60009F92AF92BF92CF92DF92EF92FF920F9329
:101E70001F935A016B01F901882311F08AE8C0C051
:101E80000115110509F4B9C080913E1590913F15D7
:101E9000892B11F088E8B4C060913815709139151C
:101EA0009B0140E050E08091840090918500A90161
:101EB00033272227A0E0B0E0282B392B4A2B5B2BBD
:101EC00080913815909139156817790729F730975F
:101ED00021F0319709F091C011C0D601C501805899
:101EE0009040A040B04080589F4FAF4FBF4708F090
:101EF00086C0A20EB31EC41ED51E10C0D601C501D9
:101F000080589040A040B040821B930BA40BB50BAF
:101F100080589F4FAF4FBF4708F071C09FB6F894ED
:101F20000E94100E30910C0D3F3F31F060910A0D70
:101F3000432F232F50E041C010920C0D30934215D7
:101F400027C02F3FA9F1822F90E0FC0173E0EE0F34
:101F5000FF1F7A95E1F7E80FF91FE65CFA4E8081E2
:101F60009181A281B38125013601481A590A6A0A72
:101F70007B0AD301C2018F5F9F4FAF4FBF4710F461
:101F8000808518C020934215321721F410920C0D51
:101F900091E017C0842F90E0FC0133E0EE0FFF1FAB
:101FA0003A95E1F7E80FF91FE65CFA4E108646C055
:101FB0008FEF242F5F5F422F282F561708F4C1CFD1
:101FC0002DC0A0923A15B0923B15C0923C15D0920C
:101FD0003D1510933F1500933E15F0924115E09288
:101FE000401580910A0D8F5F80930A0D992311F09F
:101FF0000E94AA0D9FBE80E003C088EE01C08BE85E
:102000001F910F91FF90EF90DF90CF90BF90AF9016
:102010009F907F906F905F904F900895842F90E0F5
:10202000FC0123E0EE0FFF1F2A95E1F7E80FF91FEF
:10203000E65CFA4E10868FEF8093421590E0C1CF98
:102040001F920F920FB60F920BB60F9211242F937F
:102050003F934F935F936F937F938F939F93AF9330
:10206000BF93EF93FF9380913815909139150196A6
:1020700090933915809338150E94AA0DFF91EF9126
:10208000BF91AF919F918F917F916F915F914F9190
:102090003F912F910F900BBE0F900FBE0F901F908E
:1020A00018951F920F920FB60F9211248F93809163
:1020B0000A0D882319F081E080930B0D8F910F900A
:1020C0000FBE0F901F90189510920A0D10920B0DD5
:1020D00010923915109238158FEF80930C0D809364
:1020E0000D0D80930E0D8093421510923F151092A6
:1020F0003E150E94F41008950895CF92DF92EF925A
:10210000FF920F931F93DFB6F894E090B100F09028
:102110008100009180001092B10010928100109215
:102120008000E0E06FEF7FEF40E050E01FEFF1E074
:1021300080E2C82EA4E2B4EF16BB17BB1092B20027
:102140001092850010928400F0938100F093B1000A
:10215000C092B600B89BFECF109281001092B100E1
:1021600020918400309185002115310511F480E023
:1021700024C084EF2532380720F4CD01821B930B55
:1021800003C0C9018452944F8617970718F4E09151
:102190006600BC012552344F20F4809166008F5FA9
:1021A00003C0809166008150809366004F5F5F4F4F
:1021B0004436510509F0C0CF81E0E092B100F092C1
:1021C000810000938000DFBEE09366001F910F91B5
:1021D000FF90EF90DF90CF900895209A219A259A52
:1021E000229A249A2398089582E48093810082E0C1
:1021F00086BB84E086BB88E086BBEFE6F0E08081AA
:102200008160808308951F93DF93CF93CDB7DEB7AE
:10221000C054D0400FB6F894DEBF0FBECDBF182F0C
:10222000FE0131967E2FA3E09E01205C3F4F8E2F52
:10223000871B9DB3E8982D982898000000000000A7
:1022400000000000000000000000AEBD0DB407FE5D
:10225000FDCF8F778EBD0DB407FEFDCF1EBC0DB434
:1022600007FEFDCF8EB5289A2D9A9DBB8083E2177D
:10227000F30711F03196DBCFFE01319620E030E01C
:10228000DE01AF5BBF4F81912827022E2295207F70
:102290002025032E322F22952F70022626953227D5
:1022A0002327220F220F220F2025EA17FB0759F7B9
:1022B000232B11F085E812C0DE011196A10FB11D8C
:1022C0009A01AD0106C0FA018191AF01F901819334
:1022D0009F01842F8A1B8617B0F380E0C05CDF4F1C
:1022E0000FB6F894DEBF0FBECDBFCF91DF911F9127
:1022F0000895E4E7F0E080818068808380E880933F
:10230000750010920F0D8FEF809300400895019794
:1023100011F441E001C040E06115710531F02091F8
:102320000F0D61307105B9F40BC021E030E002C03F
:10233000220F331F4A95E2F780910F0D822B08C0C0
:1023400002C0660F771F4A95E2F7862F8095822399
:1023500080930F0D22C0822F90E0042E02C095952D
:1023600087950A94E2F780FF0CC081E090E002C0FC
:10237000880F991F4A95E2F78095822380930F0D6D
:102380000AC081E090E002C0880F991F4A95E2F7E9
:10239000282B20930F0D80910F0D80958C6F8093CB
:1023A00000400895E4E7F0E080818068808380E861
:1023B0008093750008952091004030E0209530957D
:1023C00021703070C901089580E58CBD81E08DBD1C
:1023D0008CB58C7F8CBD289A08959DB3E898806C4D
:1023E00028988EBD0DB407FEFDCF6EBD0DB407FE5F
:1023F000FDCF289A9DBB08959DB3E89880682898E2
:102400008EBD0DB407FEFDCF1EBC0DB407FEFDCF83
:102410008EB5289A9DBB0895FC01289880E28EBD58
:102420000DB407FEFDCF1EBC613089F0DF01262F01
:102430000DB407FEFDCF8EB51EBC8D93215022300A
:10244000B8F76250862F90E00196E80FF91F0DB49F
:1024500007FEFDCF8EB58083289A0895FC01289849
:1024600080E68EBD0DB407FEFDCF819161500DB4A5
:1024700007FEFDCF8EBD6623C1F70DB407FEFDCF6D
:10248000289A0895FF920F931F93062FF42E0E940F
:10249000FC11082310E002C015950795FA94E2F7A5
:1024A000802F1F910F91FF900895DF92EF92FF927E
:1024B0000F931F93D82EF62EE42E022F0E94FC11AC
:1024C00010E002C0000F111FEA94E2F76F2D6023A5
:1024D000F094F8226F298D2D0E94ED111F910F911C
:1024E000FF90EF90DF900895BC01009721F086E106
:1024F00095E10E94A912089586E195E160E070E0FF
:102500000E943E1308950F931F93CF93DF9386E1AC
:1025100095E10E94A212C2EED4E100E11DE0198310
:10252000088386E195E1BE010E94A9122496065611
:102530001F4F85E1C631D80791F7DF91CF911F91E9
:102540000F910895FC01118210821382128214826D
:102550000895CF93DF93DC01EB019FB7F8941496B5
:102560008C911497882321F411967C936E9306C066
:102570001296ED91FC911397738362831396DC930B
:10258000CE9312971B821A8214968C9114978F5FA8
:1025900014968C939FBFDF91CF9108959F92AF9235
:1025A000BF92CF92DF92EF92FF920F931F93CF9340
:1025B000DF938C015B016A019FB6F894DC011496ED
:1025C0008C91882319F4C0E0D0E04AC0F801C081A2
:1025D000D18141155105B1F07E0111C0D60112968D
:1025E0006D917C911397ED91FC918881998109956A
:1025F000882359F47E018A819B819C01E9012097FF
:1026000069F72EC0209761F17E01AB2849F5F801EA
:10261000808191812A813B81C817D90719F43183C0
:10262000208305C0D70113963C932E931297F8018F
:1026300082819381C817D90711F4F382E282D8010D
:1026400014968C911497815014968C9314978D91B5
:102650009C911197892B21F413961C921E9212972C
:102660009FBECE01DF91CF911F910F91FF90EF9010
:10267000DF90CF90BF90AF909F900895AB0160E046
:1026800070E00E94CE120895AB0161E070E00E94FC
:10269000CE120895CF93DF93EC010BC0CE0160E022
:1026A00070E00E943E13009711F41C8205C00E9446
:1026B00074128C81882391F7DF91CF9108950F9345
:1026C0001F93DF93CF93CDB7DEB728970FB6F8945B
:1026D000DEBF0FBECDBF81E06FE140E00E9442123D
:1026E000883039F58FE00E94FC1182E069E00E9499
:1026F000ED11CE0101960E944C0D8E010B5F1F4F14
:102700008FE00E94FC1180FD14C0C8010E944C0D96
:102710008D819E81AF81B88529813A814B815C8111
:10272000821B930BA40BB50B8D3D9105A105B10543
:1027300038F328960FB6F894DEBF0FBECDBFCF9109
:10274000DF911F910F9108950F931F93082F809190
:1027500064158F30B1F42C9881E06FE140E00E9465
:1027600042128830C9F78DE064E042E021E00E9427
:102770005512083011F0033021F488E0809364157D
:102780005EC181E06FE140E00E94421280936415D7
:10279000083009F443C0093050F4043009F478C01B
:1027A000063009F482C0033009F040C147C00F3041
:1027B00069F0003120F4093009F038C14FC006310A
:1027C00009F49CC0093109F031C1E4C082E063E042
:1027D0000E94ED118DE064E042E020E00E9455127D
:1027E0000E94FA29682F192F8DE20E94ED118EE2C6
:1027F00067E040E0212F0E94551200000000000019
:10280000000000000000000000002C9A83E290E02D
:102810000E946D0D009364158FE011C1883009F49A
:1028200005C182E068E00E94ED1100000000000098
:1028300000000000000000000000F8C0883009F42B
:10284000F5C082E063E00E94ED110000000000008E
:1028500000000000000000000000E8C08830E9F03F
:10286000893020F4863009F0E1C005C0863119F0C6
:10287000893109F0DBC082E069E00E94ED110000BF
:102880000000000000000000000000000000CEC0BA
:10289000883019F0893021F4C9C00E945F13C6C086
:1028A00082E064E00E94ED11C1C0893059F08A30A5
:1028B00020F4883009F0BAC012C0863119F089318D
:1028C00009F0B4C082E066E00E94ED110000000053
:1028D000000000000000000000000000A7C00E94EF
:1028E0005F1382E066E00E94ED110000000000002E
:1028F0000000000000000000000098C08830C1F017
:10290000893020F4863009F091C021C0893019F057
:10291000893109F08BC082E066E10E94ED11000070
:1029200000000000000000000000000000007EC069
:102930000E945F1382E066E10E94ED11000000003A
:102940000000000000000000000000006FC082E0F6
:1029500069E00E94ED11000000000000000000008E
:1029600000000000000081E06FE140E00E944212A0
:1029700080936415893009F062C082E066E10E94AC
:10298000ED11000000000000000000000000000049
:1029900000004CC0883009F43BC0893020F48630F8
:1029A00009F044C013C0893021F0863109F03EC0DF
:1029B0000DC082E069E10E94ED11000000000000FE
:1029C0000000000000000000000030C082E069E06C
:1029D0000E94ED1100000000000000000000000057
:1029E0000000000081E06FE140E00E94421280930D
:1029F0006415893021F582E069E10E94ED11000043
:102A000000000000000000000000000000000EC0F8
:102A10000E945F1382E069E10E94ED110000000056
:102A200000000000000000000000000081E06FE1F5
:102A300040E00E944212809364158F31B9F31F91D8
:102A40000F91089580915415882311F180916D158F
:102A50008823F1F480911B1590911C15892B39F472
:102A60008AE90E947C1290931C1580931B1580911B
:102A70001B1590911C15892B59F0109254158091BB
:102A80006315882311F086E001C086E10E94A4133B
:102A900080915915882351F085E595E160E070E05B
:102AA0000E943E13009711F00E94941580916D15BD
:102AB000823019F0853031F403C00E94C3160895A6
:102AC0000E94F3160895982F80914E15882319F5CA
:102AD0006F3110F06EE103C0662309F461E0929556
:102AE0009695969593708FEF989FC0011124262F8D
:102AF00030E0AC01429FC001439F900D529F900D6A
:102B000011246AE570E00E941F29CB016F3F710517
:102B100009F040F408956F3128F4862F880F880F4C
:102B2000880F08958FEF0895EF92FF920F931F93F0
:102B3000CF93DF937C01FC01C081D181EF81F885C7
:102B400080818093661590916315282F30E099233A
:102B500059F089010F5F1F4F0E0F1F1FF801808171
:102B600061810E9463150AC089010F5F1F4F0E0F1C
:102B70001F1FF801808161810E946315F801808325
:102B8000FA82E982CE010E94BA03DF91CF911F91B0
:102B90000F91FF90EF900895DF92EF92FF920F93C5
:102BA0001F93DF93CF930F92CDB7DEB7E0911B1544
:102BB000F0911C15309709F443C0E080F1808091BA
:102BC0006315882339F086E060E847E00E944212EE
:102BD0008823B1F187E00E94FC11D82ECE01019626
:102BE00061E00E940C12698167FD2AC06D5F0AE9ED
:102BF00010E0061B11090E0D1F1D6150C8010E9437
:102C00000C12F701108707838981080F111DF80145
:102C1000D28260911B1570911C1585E595E10E948B
:102C2000A9128AE90E947C1290931C1580931B15AF
:102C3000892B31F489E00E94A41381E0809354151C
:102C40000F90CF91DF911F910F91FF90EF90DF9048
:102C50000895882311F087E005C082E060EE45E02A
:102C60000E94421280931D1582E080936D15809121
:102C70001B1590911C15892B39F489E00E94A4132F
:102C800081E080935415089586E10E94A41308956D
:102C9000EF92FF921F93CF93DF937C01EB01142FF0
:102CA000442331F08CE260EF44E02091621504C0CF
:102CB0008CE260EF44E020E00E945512C230D10562
:102CC00098F4112361F08CE26EE041E020915A15F6
:102CD0000E9455128FE260E00E94ED1116C08CE256
:102CE0006EE041E027E00FC060915E156295607F65
:102CF00080916115682B8FE20E94ED118CE26EE0ED
:102D000041E020915A150E94551289E10E94A413B6
:102D10008931D9F7E898219759F480916615833164
:102D200018F080E492E002C080E890E00E946D0D0F
:102D30002C9A2C98F70160816150C7010E942E12D5
:102D400081E080936D15E89ADF91CF911F91FF90FC
:102D5000EF900895FC0180916D15882311F086E8AD
:102D60000895F0936015E0935F15878190859093A7
:102D7000681580936715009711F488EE08950E94F6
:102D8000481680E0089510926D1580911D158330CE
:102D9000B1F0843028F4882331F08130E1F409C0A7
:102DA0008530C9F412C060915F157091601580E0A4
:102DB00017C060915F157091601587E811C0609130
:102DC0005F157091601581EE0BC060915F15709179
:102DD000601589EE05C060915F157091601585E8FA
:102DE0000E944203089585E160E847E020E00E94E8
:102DF000551280E79CE10E946D0C8EE06CE00E9411
:102E0000ED11E89A10926D1586E10E94A41390913D
:102E10001E15993320F08FEF80931E150AC08FEF97
:102E2000989FC001112468E370E00E941F296093FD
:102E30001E1580911E150E94860208951F93182F5B
:102E400080916D15882341F0809164158F3011F0C9
:102E500086E855C081E853C0E8988FE00E94FC11D5
:102E600085E160E847E021E00E94551281E897E1A2
:102E70000E946D0C8EE06FEF40E020E10E94551241
:102E8000E89A86E00E94A413863089F085E160E824
:102E900047E020E00E94551280E79CE10E946D0C03
:102EA0008EE06CE00E94ED11E89A85E828C087E08A
:102EB0006FEF0E94ED1184E080936D1510921E1546
:102EC00080EC93E0A0E0B0E004C0880F991FAA1F37
:102ED000BB1F1A95D2F780549C4FAF4FBF4F23E0D2
:102EE000B695A795979587952A95D1F780931F1545
:102EF00090932015A0932115B093221580E01F9187
:102F000008958FE00E94FC1184FF29C087E00E9491
:102F1000FC11982F80911E15891710F490931E159F
:102F200080911F1590912015A0912115B091221527
:102F30000197A109B10980931F1590932015A093C3
:102F40002115B09322150097A105B10529F087E05E
:102F50006FEF0E94ED11089585E080936D1508953F
:102F6000FB018B3009F491C08C30C0F4833009F43C
:102F700058C0843038F4813009F443C0823008F0FE
:102F80004DC03CC0853009F452C0853008F44CC0B7
:102F9000863009F456C08730D1F450C0813521F114
:102FA000823538F48F34C1F08035C8F48E3479F42A
:102FB00010C0873509F448C0883518F4833539F4D2
:102FC00018C0893509F443C0803F09F444C084EF38
:102FD000089580915A153DC0809161153AC0809145
:102FE0004F159091501527C08091631580831182F1
:102FF0004AC080915215909153151DC080915C1567
:1030000028C08091691590916A15A0916B15B091B7
:103010006C1580839183A283B38335C0809143155F
:1030200018C08091511515C080914E1512C0809125
:103030004C1590914D159183808325C080915B152F
:1030400008C08091651505C080915E1502C0809111
:103050006215808318C08091441580838091451546
:103060008183809146158283809147158383809167
:103070004815848380914915858380914A158683FC
:1030800080914B15878380E0089580915D15808342
:1030900080E00895282F85FD03C0982F9F7304C0FA
:1030A000982F91959F719195E6E0F1E084918917B1
:1030B00034F03F968491981714F0822F0CC0803E14
:1030C0003CF080323CF487FF06C08F71806203C001
:1030D00080E201C08FE18068089584E080935A15F2
:1030E00023E0209361158FEF9FEF9093501580930D
:1030F0004F1590935315809352158BE080935C1578
:1031000080E098EFAFEFB7E08093691590936A1570
:10311000A0936B15B0936C1510924E158AE091E058
:1031200090934D1580934C158AE08093651582E04D
:1031300080935B1585E080935E152093621583E88C
:103140000E944A188093431581E080935115109294
:103150005D1510926315089585FD03C0982F9F7328
:1031600004C0982F91959F719195E6E0F1E080E081
:103170002491921724F029173CF4815008958F5F11
:1031800031968031A9F780E00895282F8AE091E0F8
:1031900090934D1580934C158AE08093651582E0DD
:1031A00080935B152230B1F0233018F4222339F0DC
:1031B00004C02031A1F0213131F180E008958CE08C
:1031C00063E040E020E00E94551287E164E042E0C5
:1031D00020E00FC08CE063E040E021E004C08CE020
:1031E00063E040E022E00E94551287E164E042E0A3
:1031F00021E00E94551285E16FE040E020E00E944E
:10320000551281E008958CE063E040E023E00E94E5
:10321000551287E164E042E021E00E94551285E109
:103220006FE040E021E00E94551281E00895FF9296
:103230000F931F93CF93DF93EB0190916D15943013
:1032400009F41BC1813569F0893519F08E3439F5DF
:1032500004C088818093621514C1888180935A15B7
:1032600010C12881211121E020936315222389F0C8
:103270000E94991C80911B1590911C15892B39F483
:1032800089E00E94A41381E080935415FAC086E07F
:1032900086C088E00E94A41310925415F2C02091B9
:1032A00064152F3011F481E8EDC08B3009F4DCC0D7
:1032B0008C3078F4823009F49FC0833020F4882366
:1032C00009F443C015C0833009F4A4C0843081F4EC
:1032D00069C0833559F1843528F48F3459F080352D
:1032E00039F417C0873509F47AC0803F09F499C0D2
:1032F00084EFC8C088818093611590915E159817FE
:1033000010F4909361158FE26FE040E02091611519
:10331000B1C06881898160934F158093501582E216
:103320000E94ED116091501583E20CC06881898183
:10333000609352158093531580E20E94ED116091C5
:10334000531581E20E94ED119CC0992309F095C0AC
:1033500080E098EFAFEFB7E0088004C0B695A7957E
:10336000979587950A94D2F781709070892B09F40C
:1033700086C0283011F418E006C088E00E94A4132B
:103380008830D9F716E1288120935C1588E06FE139
:1033900040E00E945512183009F473C086E10E9483
:1033A000A4136FC0992309F068C0283011F418E005
:1033B00006C088E00E94A4138830D9F716E1F8808F
:1033C0008F2D0E94C518082F183019F086E10E9431
:1033D000A413002309F453C0F0924E1552C0288163
:1033E00020935E1580916115281710F420936115C4
:1033F0008FE260EF44E03EC08881809343150E94D5
:103400004A18809343150E94AC18282F85E06FE07E
:1034100040E030C028812093511588E060E645E007
:1034200029C08881809344158981809345158A81BC
:10343000809346158B81809347158C818093481526
:103440008D81809349158E8180934A158F81809359
:103450004B15C4E4D5E114E2812F69910E94ED116E
:103460001F5F1C32C9F70DC0288120935D158EE2C5
:1034700068E043E00E94551204C086E803C088EE6D
:1034800001C080E0DF91CF911F910F91FF900895CF
:103490001F93CF93DF9382E260914F150E94ED114D
:1034A0006091501583E20E94ED11C4E4D5E114E26D
:1034B000812F69910E94ED111F5F1C32C9F780E2D4
:1034C000609152150E94ED116091531581E20E94A6
:1034D000ED1188E060E645E0209151150E945512FB
:1034E0008FE26FE040E0209161150E9455128EE25C
:1034F00068E043E020915D150E9455128FE260EF75
:1035000044E020915E150E94551280914E150E9454
:10351000C51888E06FE140E020915C150E945512CB
:10352000809143150E94AC18282F85E06FE040E0A1
:103530000E94551280916315882319F086E00E943D
:10354000A413DF91CF911F910895DF92EF92FF9224
:103550000F931F93DF93CF930F92CDB7DEB7D82E83
:1035600081E090E065E170E041E050E09E012F5F76
:103570003F4F0E94F30C2C988CE791E00E946D0D58
:103580002D9881E090E00E946D0D2D9A10E081E071
:103590006FE140E00E9442121F5F1B3F11F485E87B
:1035A00049C08830A1F7809364152981222309F44A
:1035B0004AC082E16FE040E00E94551244C086E0BC
:1035C00060E645E00E9442129801220F331F220F4D
:1035D000331F082F10E0022B132BF39488E0F8160A
:1035E00071F783E00E94A4138FE00E94FC1181E038
:1035F0008CBBEDBAC8010E94FF290E94FA29682FEE
:10360000192F8DE20E94ED118EE267E040E0212F3C
:103610000E94551280E00E94AC1C0E94991CDD2083
:1036200011F00E946D180E94481A10926D151092A8
:10363000541580E00F90CF91DF911F910F91FF9073
:10364000EF90DF90089583E060E344E020E00E9483
:10365000551283E068E043E020E00E94551283E0C9
:1036600067E040E021E00E9455128EE260E245E012
:1036700021E00E9455128CE060E847E021E00E94C2
:10368000551284E062E041E021E00E9455128EE094
:103690006CE00E94ED118DE063E040E021E00E94CB
:1036A00055128AE06FE040E023E00E9455128DE061
:1036B00068E043E021E00E9455128DE064E042E0C2
:1036C00021E00E94551286E00E94A413EDB2E89812
:1036D00000E010E0FF2473CF1F93182F0E94A51A5B
:1036E000882361F085E819C085E595E160E070E028
:1036F0000E943E13009711F00E9474128091591598
:10370000882391F7812F0E94021D80E79CE10E948F
:103710006D0C81E08CBBE89A80E01F9108950F93B7
:103720001F93CF93DF930E94320D882309F0D2C0FC
:103730002D9A2C988AE491E00E946D0D2D9881E0DD
:1037400090E00E946D0D2D9A10E004C01F5F1F3F96
:1037500009F4C0C08DE10E94FC118230B9F78CE100
:103760000E94FC11833091F782E068E00E94ED1125
:1037700010E081E06FE140E00E944212115009F434
:10378000A9C08830B1F78093641581E090E060E0D3
:1037900070E048E050E024E435E10E94F30C09C0F9
:1037A000C4E4D5E10E94FA29899385E1CC34D80795
:1037B000C9F78091441530914515409146156091A7
:1037C000471570914815F0914915B0914A155091DF
:1037D0004B15082F015091E0081708F090E0832F57
:1037E000815021E0831708F020E0192F180F91E095
:1037F000181708F090E0292B842F815031E08417AE
:1038000008F030E0A22FA80F91E0A81708F090E090
:10381000392B862F815021E0861708F020E0E32F16
:10382000E80F91E0E81708F090E0292B872F8150EE
:1038300031E0871708F030E0622F680F91E06817D9
:1038400008F090E0392B8F2F815021E08F1708F07E
:1038500020E0432F480F91E0481708F090E0292B13
:103860008B2F815091E08B1708F090E0322F380FAA
:1038700021E0381708F020E0922B5195591779F480
:103880003F3F69F44F3F59F46F3F49F4EF3F39F43C
:10389000AF3F29F41F3F19F40E3F08F081CF81E0BC
:1038A0000E94A51A8823B1F480E79CE10E946D0C68
:1038B000E89A0E9483128AE90E947C1290931C1558
:1038C00080931B1585E595E10E94A2120E940E1DB2
:1038D00080E001C085E8DF91CF911F910F9108959D
:1038E0008FE00E94FC11282F83FF0CC080916D1582
:1038F000813029F426FF80E00E94291608950E9455
:10390000CC15089582FF14C08DE060E847E00E9466
:103910004212882339F48DE063E040E021E00E9408
:10392000551208958DE063E040E022E00E945512B8
:103930000895809164158F3011F082E8089588E031
:103940000E94A413883011F085E8089581E090E08A
:103950000E94440D80E00895882311F088EE0895B8
:10396000809164158F3011F481E8089580916D1570
:10397000882391F41092541588E00E94A413883093
:10398000D9F780E090E00E94440D8FE00E94A413DC
:103990008F3011F480E0089586E80895982F809183
:1039A0006D15882311F086E80895983039F488E081
:1039B0000E94A4131092541588E0089580911B155D
:1039C00090911C15892B59F080916315882311F073
:1039D00086E001C086E10E94A41386E0089581E09C
:1039E0008093541586E00895FB01882311F084EF3D
:1039F000089580912315808380E0089580E00E94DF
:103A00006C1B0895882311F01092231585E16FE057
:103A100040E0209123150E9455120895109223151D
:103A200085E16FE040E020E00E94551280E00895BB
:103A3000FB01882311F084EF089580818093231582
:103A4000992787FD9095865A9F4F63E070E00E940A
:103A50003329262F2F5F85E16FE040E00E94551249
:103A600080E00895EF92FF921F93DF93CF93CDB73D
:103A7000DEB7CF57D0400FB6F894DEBF0FBECDBF34
:103A8000182F84E060E245E020E00E94551282E0B9
:103A900068E00E94ED1186E36FE00E94ED118CE07A
:103AA00063E040E023E00E9455128AE067EA0E944A
:103AB000ED11112339F481E089831A82CE01019638
:103AC00062E012C08FE7898311E07E010894E11C57
:103AD000F11C0E94FA29F701E10FF11D80831F5F9D
:103AE0001038B9F7C70160E80E942E128CE164E536
:103AF0000E94ED118CE166E40E94ED1189E00E94C4
:103B0000A4132C9A2C98C158DF4F0FB6F894DEBF3F
:103B10000FBECDBFCF91DF911F91FF90EF90089521
:103B2000FF920F931F93CF93DF93E898F090641563
:103B30008FE0F81619F488E00E94A41381E160E197
:103B400044E020E00E94551281E16FE040E02FE068
:103B50000E94551281E160E245E00E9442128823F2
:103B600089F481E16FE040E020E00E94551281E19C
:103B700060E245E00E944212882309F052C0C0E092
:103B8000D0E03FC081E160E144E021E00E945512B5
:103B900081E16FE040E02FE00E94551281E160E298
:103BA00045E00E944212813011F001E03BC0CFEFAE
:103BB000DFEF27C081E16FE040E0212F0E94551226
:103BC00081E160E245E00E944212882339F411232A
:103BD00011F420E007C0212F215004C01F5F1031D5
:103BE00049F72FE0002339F08BE4289FE0011124EE
:103BF000CA50D64F06C082E3289FE0011124CC555D
:103C0000D94F8FE00E94FC118FE0F81611F40E944A
:103C1000A413E89ACE01DF91CF911F910F91FF90ED
:103C2000089500E010E0C6CF1F9386E00E94A41321
:103C30008630D9F785E160E847E021E00E9455121F
:103C400087E06FEF0E94ED1180E890E00E946D0D1B
:103C50008FE00E94FC1184FFFBCF87E00E94FC11E3
:103C6000182F8FE00E94FC1185E160E847E020E01A
:103C70000E94551288E00E94A413193310F06FEFD0
:103C800008C08FEF189FC001112468E370E00E9404
:103C90001F29862F1F9108951F9388E00E94A41367
:103CA0008830D9F785E160E847E021E00E945512AD
:103CB00086E00E94A4138630D9F788E060E847E0E8
:103CC00021E00E94551280E990E00E946D0D81E094
:103CD00060E847E00E9442128130C9F788E00E9404
:103CE000A41381E060E446E00E944212813011F0AA
:103CF00010E001C014E085E160E847E020E00E94A8
:103D00005512812F1F910895EF92FF920F931F93E9
:103D10007B018C0120E030E040E05FE40E94002263
:103D200088238CF0C801B70120E030E040E05FE478
:103D30000E94FC1F0E948E229B01AC01205030404B
:103D40004040504806C0C801B7010E948E229B0126
:103D5000AC01B901CA011F910F91FF90EF90089536
:103D6000A0E0B0E0E6EBFEE10C946829DC012B0159
:103D7000FA019C91923008F439C1EB0188818230BC
:103D800008F433C1943069F4843009F02FC11196DE
:103D90009C9111978981981709F428C1A1E2BBE091
:103DA00025C1843009F421C18230A9F4923009F090
:103DB0001DC19A01AD0188E0EA010990AE01E90157
:103DC00009929E018150C1F7E201898111969C916F
:103DD0008923818308C1923009F407C112962D907E
:103DE0003C901397EB018A819B811496AD90BD9016
:103DF000CD90DC901797EC80FD800E811F819101A2
:103E0000281B390BB90137FF04C066277727621BCF
:103E1000730B603271050CF061C0121613066CF55D
:103E200037014801062E04C09694879477946794CE
:103E30000A94D2F721E030E040E050E004C0220FC5
:103E4000331F441F551F6A95D2F721503040404020
:103E500050402E213F21402351232115310541059A
:103E6000510521F021E030E040E050E079018A0185
:103E7000E628F728082919293CC0232BD1F1260E62
:103E8000371E35014601062E04C096948794779418
:103E900067940A94D2F721E030E040E050E004C09B
:103EA000220F331F441F551F6A95D2F7215030400F
:103EB000404050402A213B214C215D2121153105F4
:103EC0004105510521F021E030E040E050E059018A
:103ED0006A01A628B728C828D9280BC082159305DF
:103EE0002CF01C01AA24BB24650103C0EE24FF248E
:103EF000870111969C91D20111968C91981709F423
:103F000045C0992339F0A80197012A193B094C09AA
:103F10005D0906C0A60195012E193F09400B510B02
:103F200057FD08C011823382228224833583468361
:103F300057831DC081E0818333822282882799279D
:103F4000DC01821B930BA40BB50B84839583A683A2
:103F5000B7830DC0220F331F441F551F24833583A1
:103F6000468357838281938101979383828324813F
:103F7000358146815781DA01C9010197A109B1094B
:103F80008F5F9F4FAF4FBF4328F30BC091833382A6
:103F90002282EA0CFB1C0C1D1D1DE482F5820683A7
:103FA000178383E08083248135814681578157FFC1
:103FB0001AC0C901AA2797FDA095BA2F81709070E9
:103FC000A070B0705695479537952795822B932B07
:103FD000A42BB52B84839583A683B7838281938199
:103FE000019693838283DF0101C0D201CD01CDB759
:103FF000DEB7E2E10C948429A0E2B0E0E2E0F0E276
:104000000C94742969837A838B839C832D833E83EC
:104010004F835887E9E0EE2EF12CEC0EFD1ECE0109
:104020000196B7010E947F248E010F5E1F4FCE01C3
:104030000596B8010E947F248A8991E089278A8B9E
:10404000C701B801AE01475E5F4F0E94B01E0E94DB
:10405000AA23A096E6E00C949029A0E2B0E0E3E366
:10406000F0E20C94742969837A838B839C832D837B
:104070003E834F835887F9E0EF2EF12CEC0EFD1EA6
:10408000CE010196B7010E947F248E010F5E1F4F63
:10409000CE010596B8010E947F24C701B801AE0188
:1040A000475E5F4F0E94B01E0E94AA23A096E6E0E2
:1040B0000C949029A0E2B0E0E0E6F0E20C946829CC
:1040C00069837A838B839C832D833E834F835887B8
:1040D000CE010196BE01675F7F4F0E947F24CE0113
:1040E0000596BE016F5E7F4F0E947F2499859230B6
:1040F00088F089898230C8F0943019F4823051F404
:1041000004C0843029F4923081F481E29BE0C6C07F
:10411000923049F420E09A858A89981321E02A8711
:10412000CE010996BBC0823049F420E09A858A8985
:10413000981321E02A8BCE014196B0C02D843E8495
:104140004F8458886D887E888F88988CEE24FF2451
:104150008701AA24BB24650140E050E060E070E0E4
:10416000E0E0F0E0C10181709070892BE9F0E60C8D
:10417000F71C081D191D9A01AB012A0D3B1D4C1D92
:104180005D1D80E090E0A0E0B0E0E614F7040805D3
:10419000190520F481E090E0A0E0B0E0BA01A901A7
:1041A000480F591F6A1F7B1FAA0CBB1CCC1CDD1CAF
:1041B00097FE08C081E090E0A0E0B0E0A82AB92A0C
:1041C000CA2ADB2A3196E032F10549F0660C771CE9
:1041D000881C991C5694479437942794C3CFFA852A
:1041E000EA892B893C898B859C85280F391F2E5F96
:1041F0003F4F17C0CA0181709070892B61F01695EE
:104200000795F794E79480E090E0A0E0B0E8E82A12
:10421000F92A0A2B1B2B76956795579547952F5FA3
:104220003F4F77FDE7CF0CC0440F551F661F771F28
:1042300017FD4160EE0CFF1C001F111F2150304084
:10424000403090E0590790E0690790E4790760F307
:104250002B8F3C8FDB01CA018F779070A070B070FC
:1042600080349105A105B10561F447FD0AC0E11450
:10427000F1040105110529F0405C5F4F6F4F7F4F3E
:1042800040781A8EFE1711F081E08A8F4D8F5E8F75
:104290006F8F78A383E0898FCE0149960E94AA236D
:1042A000A096E2E10C948429A8E1B0E0EAE5F1E20D
:1042B0000C94702969837A838B839C832D833E833E
:1042C0004F835887B9E0EB2EF12CEC0EFD1ECE018A
:1042D0000196B7010E947F248E010F5E1F4FCE0111
:1042E0000596B8010E947F242985223008F47EC0FB
:1042F0003989323010F4B8017CC08A859A898927BF
:104300008A87243011F0223031F4231709F06EC06F
:1043100061E27BE06EC0343039F41D861E861F8654
:10432000188A1C861B8604C0323021F484E08987F9
:10433000B7015FC02B853C858B899C89281B390B75
:104340003C872B87ED84FE840F851889AD88BE8855
:10435000CF88D88CEA14FB040C051D0540F4EE0C44
:10436000FF1C001F111F215030403C872B8720E08D
:1043700030E040E050E080E090E0A0E0B0E460E0B9
:1043800070E0EA14FB040C051D0540F0282B392BC6
:104390004A2B5B2BEA18FB080C091D09B695A7955B
:1043A00097958795EE0CFF1C001F111F6F5F7F4FC5
:1043B0006F31710531F7DA01C9018F779070A07004
:1043C000B07080349105A105B10561F427FD0AC0E4
:1043D000E114F1040105110529F0205C3F4F4F4F16
:1043E0005F4F20782D873E874F87588BBE01675FD0
:1043F0007F4FCB010E94AA236896EAE00C948C2997
:10440000A8E1B0E0E6E0F2E20C94742969837A83D3
:104410008B839C832D833E834F83588789E0E82ECE
:10442000F12CEC0EFD1ECE010196B7010E947F24F7
:104430008E010F5E1F4FCE010596B8010E947F24AA
:104440008985823040F08989823028F0C701B8011F
:104450000E94F72401C08FEF6896E6E00C94902943
:10446000A8E0B0E0E6E3F2E20C9471299B01AC0114
:1044700083E08983DA01C9018827B7FD83959927ED
:10448000AA27BB27B82E211531054105510519F47E
:1044900082E089833AC08823A9F0203080E0380781
:1044A00080E0480780E8580729F460E070E080E089
:1044B0009FEC30C0EE24FF248701E21AF30A040BBC
:1044C000150B02C079018A018EE1C82ED12CDC8245
:1044D000CB82ED82FE820F831887C801B7010E944C
:1044E0005B2301971816190684F4082E04C0EE0CFD
:1044F000FF1C001F111F0A94D2F7ED82FE820F836A
:104500001887C81AD90ADC82CB82BA82CE010196FA
:104510000E94AA232896E9E00C948D29ACE0B0E033
:10452000E4E9F2E20C94782969837A838B839C8393
:10453000CE010196BE016B5F7F4F0E947F248D816B
:10454000823061F1823050F1843021F48E818823F1
:1045500051F12EC02F81388537FD20C06E812F315B
:1045600031051CF06623F9F023C08EE190E0821B38
:10457000930B29853A854B855C8504C056954795F4
:10458000379527958A95D2F76623B1F050954095D7
:10459000309521953F4F4F4F5F4F0EC020E030E0E8
:1045A00040E050E009C02FEF3FEF4FEF5FE704C05E
:1045B00020E030E040E050E8B901CA012C96E2E08A
:1045C0000C949429A8E0B0E0E8EEF2E20C94702993
:1045D0007B018C01611571058105910519F482E05B
:1045E000898360C083E089838EE1C82ED12CDC8270
:1045F000CB82ED82FE820F831887C801B7010E942B
:104600005B23FC013197F7FF3BC0222733272E1B8A
:104610003F0B57016801022E04C0D694C794B7948B
:10462000A7940A94D2F740E050E060E070E081E0A7
:1046300090E0A0E0B0E004C0880F991FAA1FBB1F44
:104640002A95D2F70197A109B1098E219F21A023B4
:10465000B1230097A105B10521F041E050E060E0F1
:1046600070E04A295B296C297D294D835E836F8325
:1046700078878EE190E08E1B9F0B9C838B8312C00A
:10468000309781F00E2E04C0EE0CFF1C001F111F8E
:104690000A94D2F7ED82FE820F831887CE1ADF0AC2
:1046A000DC82CB821A82CE0101960E94AA23289630
:1046B000EAE00C948C29EF92FF920F931F937B01F9
:1046C0008C0180E0E81680E0F80681E0080780E0D1
:1046D000180788F48FEFE816F1040105110531F091
:1046E00028F088E090E0A0E0B0E017C080E090E023
:1046F000A0E0B0E012C080E0E81680E0F80680E0BC
:10470000080781E0180728F088E190E0A0E0B0E019
:1047100004C080E190E0A0E0B0E020E230E040E0C2
:1047200050E0281B390B4A0B5B0B04C0169507950C
:10473000F794E7948A95D2F7F701E75DF44F80810B
:10474000281B310941095109C9011F910F91FF909F
:10475000EF900895DF92EF92FF920F931F93FC0169
:10476000E480F58006811781D1808081823048F411
:1047700080E090E0A0E1B0E0E82AF92A0A2B1B2BA8
:10478000A5C0843009F49FC0823021F4EE24FF24B8
:10479000870105C0E114F1040105110519F4E0E0F9
:1047A000F0E096C0628173819FEF623879070CF068
:1047B0005BC022E83FEF261B370B2A3131052CF076
:1047C00020E030E040E050E02AC0B801A701022E0E
:1047D00004C076956795579547950A94D2F781E07E
:1047E00090E0A0E0B0E004C0880F991FAA1FBB1F93
:1047F0002A95D2F70197A109B1098E219F21A02303
:10480000B1230097A105B10521F081E090E0A0E07F
:10481000B0E09A01AB01282B392B4A2B5B2BDA0134
:10482000C9018F779070A070B07080349105A10598
:10483000B10539F427FF09C0205C3F4F4F4F5F4F50
:1048400004C0215C3F4F4F4F5F4FE0E0F0E020306D
:10485000A0E03A07A0E04A07A0E45A0710F0E1E020
:10486000F0E079018A0127C06038710564F5FB0129
:10487000E158FF4FD801C7018F779070A070B070DA
:1048800080349105A105B10539F4E7FE0DC080E43F
:1048900090E0A0E0B0E004C08FE390E0A0E0B0E0E2
:1048A000E80EF91E0A1F1B1F17FF05C01695079576
:1048B000F794E794319687E016950795F794E79477
:1048C0008A95D1F705C0EE24FF248701EFEFF0E0D1
:1048D0006E2F679566276795902F9F77D794DD2475
:1048E000D7948E2F8695492F462B582F5D29B701D7
:1048F000CA011F910F91FF90EF90DF900895FC0186
:10490000DB01408151812281622F6F7770E0221F8D
:104910002227221F9381892F880F822B282F30E096
:10492000991F9927991F11969C931197211531056D
:10493000A9F5411551056105710511F482E037C0F3
:1049400082E89FEF13969C938E9312979A01AB0186
:1049500067E0220F331F441F551F6A95D1F783E08C
:104960008C930DC0220F331F441F551F12968D913B
:104970009C911397019713969C938E9312972030D6
:1049800080E0380780E0480780E4580758F3149621
:104990002D933D934D935C93179708952F3F3105C9
:1049A00079F4411551056105710519F484E08C9382
:1049B000089564FF03C081E08C9312C01C9210C064
:1049C0002F57304013963C932E93129783E08C938D
:1049D00087E0440F551F661F771F8A95D1F77064D3
:1049E00014964D935D936D937C93179708951F9341
:1049F000DC01FB019C91923008F447C08081823039
:104A000008F443C0943051F411961C91843099F508
:104A10008181682F70E0611B71093FC0843021F0F3
:104A2000923031F48230B9F18181882389F12DC02F
:104A300011961C9111978230F1F081811817D9F4E9
:104A400012962D913C91139782819381821793073F
:104A500094F028173907BCF014968D919D910D9014
:104A6000BC91A02D248135814681578128173907B3
:104A70004A075B0718F4112341F00AC08217930715
:104A8000A407B50740F4112319F061E070E005C0F8
:104A90006FEF7FEF02C060E070E0CB011F910895DF
:104AA0002F923F924F925F926F927F928F929F923E
:104AB000AF92BF92CF92DF92EF92FF920F931F932C
:104AC000DF93CF93CDB7DEB761970FB6F894DEBF13
:104AD0000FBECDBF3C017F876E876A01FC01178244
:104AE0001682838181FD03C06FEF7FEF6FC39E014C
:104AF0002F5F3F4F398B288BF3012381EE85FF8594
:104B000023FD859123FF8191FF87EE87882309F498
:104B10005AC3853251F4EE85FF8523FD859123FF2D
:104B20008191FF87EE87853229F490E0B3010E94DE
:104B3000AE2BE2CF982F10E0882499241032B0F4E5
:104B40009B3269F09C3228F4903251F0933271F428
:104B50000BC09D3239F0903349F4116028C01260C7
:104B6000146025C0186023C0106121C017FD2AC041
:104B7000892F80538A3078F416FF06C0FAE09F9E92
:104B8000902C1124980E13C03AE0839E802C11249F
:104B9000880E10620CC09E3221F416FD14C31064FE
:104BA00006C09C3611F4106802C0983659F4EE85A0
:104BB000FF8523FD959123FF9191FF87EE87992330
:104BC00009F0BCCF892F8554833020F4812F806178
:104BD000905E07C0892F8556833008F09FC1812FD2
:104BE0008F7E86FD02C076E0972E6FE3F62EF822C8
:104BF000953619F4F0E4FF2A07C0963619F420E838
:104C0000F22A02C091109A94F7FE0AC03BE33915CC
:104C100018F45CE3B52E02C0B92CB39427E009C0A8
:104C200047E0491520F4BB2447E0942EF7CF292D07
:104C3000BB24C60104969D878C87F6016081718133
:104C400082819381AE014F5F5F4F0B2D0E944F2AEF
:104C50006C010981202E332400FF04C003FD02C033
:104C60001DE209C0F1FE02C01BE205C0F2FC02C059
:104C700010E001C010E2C1018C709070892BB9F175
:104C8000112311F483E001C084E0881510F088241A
:104C90000AC0881AF3FC07C080E290E0B3010E94CA
:104CA000AE2B8A94C9F7112329F0812F90E0B3012C
:104CB0000E94AE2B23FE03C00EEF10E00EC002E0F8
:104CC00011E00BC0E114F10409F0805290E0B3014F
:104CD0000E94AE2B0F5F1F4F05C0EF2CFF24F0E1A9
:104CE000EF22FF24F8018491882361F714C1F7FEB5
:104CF00012C0BC0C24FE04C08A81813309F4BA942A
:104D00001B141CF0BB24B3942DC0F8E0FB1550F528
:104D100038E0B32E27C0F6FC25C0892D90E08C1515
:104D20009D054CF02CEFC2162FEFD20624F030E890
:104D3000F32A01C09A94992049F0E2E0F0E0EC0FE8
:104D4000FD1FE90DF11D80818033A1F3F7FE0AC03C
:104D5000B92CB394892D90E0C816D90614F0992483
:104D600001C09C18F7FC03C025E030E009C01C140A
:104D70001D041CF021E030E003C096012F5F3F4F7F
:104D8000112311F02F5F3F4F992029F0892D90E0DA
:104D90000196280F391F882D90E02817390714F045
:104DA000882401C0821A4F2C5524C201897090704A
:104DB000892B39F008C080E290E0B3010E94AE2B4D
:104DC0008A948820C1F7112329F0812F90E0B30144
:104DD0000E94AE2B43FE07C008C080E390E0B30101
:104DE0000E94AE2B8A948820C1F7F7FE46C0860148
:104DF000D7FE02C000E010E076010894E11CF11C2F
:104E0000E01AF10A41E050E04C0F5D1FE40EF51E80
:104E100026014B185108892D90E0AA24BB24A81A1A
:104E2000B90A5FEF0F3F150729F48EE290E0B30156
:104E30000E94AE2BC016D10634F0401651061CF469
:104E4000F701808101C080E3015010400894E11C0B
:104E5000F11C0A151B052CF090E0B3010E94AE2B4B
:104E6000E0CF0C151D0539F49A81963318F495336B
:104E700011F424FE81E390E04BC08A81813309F074
:104E80000F7E90E0B3010E94AE2B9920A1F08EE23C
:104E900090E0B3010E94AE2B12E0E1E0F0E0EC0FF5
:104EA000FD1FE10FF11D1F5F808190E0B3010E94A3
:104EB000AE2B9A9491F744FC03C085E690E002C0C3
:104EC00085E490E0B3010E94AE2BD7FC05C0C1146D
:104ED000D10441F404FF06C0D094C194D108D39406
:104EE0008DE201C08BE290E0B3010E94AE2B80E323
:104EF00005C08F5F26EF3FEFC20ED31E3AE0C31608
:104F0000D104BCF790E0B3010E94AE2BC601C0965D
:104F1000B3010E94AE2BCC84DD8452C1933631F0B4
:104F2000933799F0933509F059C023C0F601808179
:104F300089835E010894A11CB11C22E030E0C20EFE
:104F4000D31E21E0E22EF12C12C0F601A080B18028
:104F500016FD03C06FEF7FEF02C0692D70E022E005
:104F600030E0C20ED31EC5010E943A2B7C011F7790
:104F700013C0F601A080B18016FD03C06FEF7FEF74
:104F800002C0692D70E022E030E0C20ED31EC501E0
:104F90000E942F2B7C01106813FF07C01BC080E20A
:104FA00090E0B3010E94AE2B8A94882D90E0E81621
:104FB000F906A8F30FC0F50117FD859117FF819140
:104FC0005F0190E0B3010E94AE2B81108A94089497
:104FD000E108F108E114F10471F7F2C0943611F020
:104FE000993689F517FF08C0F60120813181428189
:104FF000538184E090E00AC0F601808191819C0198
:10500000442737FD4095542F82E090E0C80ED91E0A
:105010009FE6F92EF12257FF09C050954095309533
:1050200021953F4F4F4F5F4F90E8F92ACA01B901D0
:10503000AE014F5F5F4F2AE030E00E94592CE82E0E
:10504000E889EE1A41C0953721F41F7E2AE030E04E
:105050001CC0197F9F3661F0903720F4983509F015
:10506000B2C00FC0903739F0983709F0ACC004C017
:1050700028E030E00AC0106114FD146020E130E047
:1050800004C014FD166020E132E017FF08C0F601ED
:10509000608171818281938144E050E008C0F60113
:1050A00080819181BC0180E090E042E050E0C40E3C
:1050B000D51EAE014F5F5F4F0E94592CE82E5889D4
:1050C000E51A8FE7F82EF122F6FE0BC08EEFF822DC
:1050D000E91438F4F4FE07C0F2FC05C09FEEF92293
:1050E00002C01E2D01C0192DF4FE0DC0FE01EE0DF3
:1050F000F11D8081803319F4E9EEFE2208C01F5FA4
:10510000F2FE05C003C08F2D867809F01F5F0F2DBA
:10511000F3FC14C0F0FE0FC0181510F09E2C0BC04D
:105120009E2C980C911A182D06C080E290E0B301D5
:105130000E94AE2B1F5F1815C0F304C0181510F4A1
:10514000811A01C0882404FF0FC080E390E0B301FE
:105150000E94AE2B02FF1DC001FD03C088E790E056
:105160000EC088E590E00BC0802F867891F001FF9B
:1051700002C08BE201C080E2F7FC8DE290E0B30157
:105180000E94AE2B06C080E390E0B3010E94AE2BDC
:105190009A94E914C0F3EA94E1E0F0E0EC0FFD1F0B
:1051A000EE0DF11D808190E0B3010E94AE2BEE2048
:1051B00091F706C080E290E0B3010E94AE2B8A9482
:1051C0008820C1F799CCF30166817781CB01619684
:1051D0000FB6F894DEBF0FBECDBFCF91DF911F9108
:1051E0000F91FF90EF90DF90CF90BF90AF909F9086
:1051F0008F907F906F905F904F903F902F90089589
:10520000629FD001739FF001829FE00DF11D649FAA
:10521000E00DF11D929FF00D839FF00D749FF00D36
:10522000659FF00D9927729FB00DE11DF91F639FD7
:10523000B00DE11DF91FBD01CF0111240895AA1B76
:10524000BB1B51E107C0AA1FBB1FA617B70710F071
:10525000A61BB70B881F991F5A95A9F780959095A3
:10526000BC01CD01089597FB092E07260AD077FDD2
:1052700004D0E5DF06D000201AF4709561957F4FC9
:105280000895F6F7909581959F4F0895A1E21A2E03
:10529000AA1BBB1BFD010DC0AA1FBB1FEE1FFF1FDA
:1052A000A217B307E407F50720F0A21BB30BE40B2A
:1052B000F50B661F771F881F991F1A9469F7609571
:1052C0007095809590959B01AC01BD01CF0108952B
:1052D0002F923F924F925F926F927F928F929F9206
:1052E000AF92BF92CF92DF92EF92FF920F931F93F4
:1052F000CF93DF93CDB7DEB7CA1BDB0B0FB6F894A5
:10530000DEBF0FBECDBF09942A88398848885F84E4
:105310006E847D848C849B84AA84B984C884DF8055
:10532000EE80FD800C811B81AA81B981CE0FD11D39
:105330000FB6F894DEBF0FBECDBFED010895AF925A
:10534000BF92CF92DF92EF92FF920F931F93CF9372
:10535000DF93EC01A880B980CA80DB80A114B1047E
:10536000C104D10441F484E2A82E89EDB82E8BE566
:10537000C82E87E0D82EC601B5012DE133EF41E0FC
:1053800050E00E94F52D27EA31E440E050E00E9411
:1053900000297B018C01C601B5012DE133EF41E00D
:1053A00050E00E94F52DCA01B9012CEE34EF4FEF09
:1053B0005FEF0E9400296E0D7F1D801F911F97FFD8
:1053C00004C06150704080409048688379838A832C
:1053D0009B839B013F77C901DF91CF911F910F9173
:1053E000FF90EF90DF90CF90BF90AF9008950E9414
:1053F0009F29089589E29CE00E949F290895A0E0DA
:10540000B0E08093290C90932A0CA0932B0CB093BE
:105410002C0C0895FC0188279927E89421912032CB
:10542000E9F3293010F02E30C8F32B3241F02D3241
:1054300039F4689404C00E945A2B820F911D219167
:1054400020532A30C0F31EF4909581959F4F089504
:105450001F93FC0199278827BC01E8941191103211
:10546000E9F3193010F01E30C8F31B3251F01D3231
:1054700049F4689406C00E94452B610F711D811D7F
:10548000911D119110531A30B0F33EF49095809510
:10549000709561957F4F8F4F9F4F1F9108952830D2
:1054A00008F027E03327DA01990F311D87FD91605D
:1054B00000966105710539F432602E5F3D9330E34B
:1054C0002A95E1F708959F3F30F080387105610516
:1054D00009F03C5F3C5F3D93913008F08068911D7E
:1054E000DF93CF931F930F93FF92EF92192F987F23
:1054F0009695E92F96959695E90FFF27E059FE4F6F
:1055000099273327EE24FF24A701E701059008948B
:10551000079428F4360FE71EF81E491F511D660F29
:10552000771F881F991F0694A1F70590079428F408
:10553000E70EF81E491F561FC11D770F881F991FC0
:10554000661F0694A1F70590079428F4F80E491FEA
:10555000561FC71FD11D880F991F661F771F0694FE
:10556000A1F70590079420F4490F561FC71FD81FB5
:10557000990F661F771F881F0694A9F784911095CD
:10558000177041F0D695C79557954795F794E794CE
:105590001A95C1F7E6E1F1E06894159015913591FF
:1055A0006591959105907FE27395E118F10A430B9F
:1055B000560BC90BD009C0F7E10CF11E431F561F53
:1055C000C91FD01D7EF4703311F48A95E6CFE8949C
:1055D000015030F0080F0AF40027021708F4202FBA
:1055E0002395022F7A3328F079E37D932A95E9F702
:1055F00010C07D932A9589F60694979567953795FF
:1056000017951794E118F10A430B560BC90BD009F3
:1056100098F023957E9173957A3308F070E37C932C
:105620002013B8F77E9170617D9330F0839571E31C
:105630007D9370E32A95E1F71124EF90FF900F918D
:105640001F91CF91DF91992787FD90950895911132
:10565000089581568A5108F4805285580895FC01B6
:105660000590615070400110D8F7809590958E0F8D
:105670009F1F0895FC016150704001900110D8F700
:10568000809590958E0F9F1F0895592F482F372F83
:10569000262F660F771F881F991F660F771F881F99
:1056A000991F620F731F841F951F660F771F881F36
:1056B000991F08957AE0979F902D879F802D910DD7
:1056C000112408950F931F93CF93DF938C01EB0167
:1056D000009731F46115710519F420E030E038C00D
:1056E00081E090E06EE070E00E94CD2CFC019C0116
:1056F000009771F180E88383209771F0D387C28788
:1057000081E8838380916E1590916F15892B21F428
:10571000F0936F15E0936E1501151105C9F011870F
:1057200000878381826083838091701590917115C9
:10573000892B71F4F0937115E093701580917215B7
:1057400090917315892B21F4F0937315E0937215E2
:10575000C901DF91CF911F910F9108950F931F936E
:10576000CF93DF938C01EB018B8181FF1BC082FF04
:105770000DC02E813F818C819D812817390764F4EB
:10578000E881F9810193F983E88306C0E885F9850A
:10579000802F0995892B31F48E819F8101969F83FB
:1057A0008E8302C00FEF1FEFC801DF91CF911F91D1
:1057B0000F910895DF93CF93CDB7DEB7FE013596F5
:1057C000619171918091701590917115AF010E9456
:1057D0005025CF91DF9108956091701570917115EA
:1057E0000E94AE2B08950F931F93CF93DF938C01EC
:1057F000E0917015F0917115838181FF21C0C0E0A7
:10580000D0E00DC0E0917015F091711520853185C3
:10581000BF01F9010995892B11F0CFEFDFEFF801F6
:1058200081918F01882371F7E0917015F0917115C6
:10583000208531858AE0BF01F9010995892B11F096
:10584000CFEFDFEFCE01DF91CF911F910F91089540
:105850000F931F93DF93CF93CDB7DEB72E970FB67D
:10586000F894DEBF0FBECDBF0D891E8986E08C8304
:105870001A8309838FEF9FE79E838D839E01275EA6
:105880003F4FCE0101966F89788DA9010E94502566
:105890002F813885020F131FF80110822E960FB644
:1058A000F894DEBF0FBECDBFCF91DF911F910F9156
:1058B0000895FA01AA27283051F1203181F1E894A6
:1058C0006F936E7F6E5F7F4F8F4F9F4FAF4FB1E0F3
:1058D0003ED0B4E03CD0670F781F891F9A1FA11DEE
:1058E000680F791F8A1F911DA11D6A0F711D811DEF
:1058F000911DA11D20D009F468943F912AE0269FB4
:1059000011243019305D3193DEF6CF010895462F12
:105910004770405D4193B3E00FD0C9F7F6CF462FF3
:105920004F70405D4A3318F0495D31FD405241935C
:1059300002D0A9F7EACFB4E0A69597958795779519
:105940006795BA95C9F700976105710508959B01A0
:10595000AC010A2E06945795479537952795BA9529
:10596000C9F7620F731F841F951FA01D0895F99931
:10597000FECF92BD81BDF89A992780B50895262F54
:10598000F999FECF1FBA92BD81BD20BD0FB6F89424
:10599000FA9AF99A0FBE019608950F931F93CF9329
:1059A000DF93689F8001699F100D789F100D11246F
:1059B000C8010E94E92CEC01009729F060E070E03A
:1059C000A8010E94EE2DCE01DF91CF911F910F9182
:1059D0000895CF93DF93BC018230910510F462E00B
:1059E00070E0A0917615B0917715ED01E0E0F0E060
:1059F00040E050E021C0888199818617970769F4BB
:105A00008A819B81309719F09383828304C090939D
:105A1000771580937615FE0134C06817790738F43E
:105A20004115510519F08417950708F4AC01FE01E2
:105A30008A819B819C01E9012097E9F64115510576
:105A4000A9F1CA01861B970B049708F4BA01E0E09C
:105A5000F0E02AC08D919C91119784179507F9F475
:105A60006417750781F412968D919C911397309766
:105A700019F09383828304C09093771580937615F1
:105A8000FD0132964FC0CA01861B970BFD01E80F3E
:105A9000F91F6193719302978D939C9343C0FD010D
:105AA000828193819C01D9011097A1F68091741590
:105AB00090917515892B41F480912F0C9091300CA9
:105AC00090937515809374154091310C5091320C60
:105AD0004115510541F44DB75EB780912D0C909161
