:100000000C94D1000C94F0000C94F0000C94F000CF
:100010000C94F0000C94F0000C94F0000C94F000A0
:100020000C94F0000C94F0000C94F0000C94F00090
:100030000C94F0000C94F0000C94F0000C94F00080
:100040000C94F0000C94F0000C94F0000C94F00070
:100050000C94F0000C94F0000C94F0000C94F00060
:100060000C94F0000C94F0000C94F0000C94F00050
:100070000C94F0000C94F0000C94F0000C94F00040
:100080000C94F0000C94F0000C94F0000C94F00030
:100090000C94A2030C94F0000C94CE030C94F0008A
:1000A0000C94F0000C94F0000C94F0000C94F00010
:1000B0000C94F0000C94F0000C94F0000C94F00000
:1000C0000C94F0000C94F0000C94F0000C94F000F0
:1000D0000C94F0000C94F0000C94F0000C94F000E0
:1000E0000C94F0000C94B3040C94BD040C94A9047B
:1000F0000C9453040C947E040C94C7040C942804B0
:100100000C94DB040C94AB090C94D4090C94F0000F
:100110000C94F0000C94F0000C94E5040C94D104C1
:1001200003020201010000FFFEFDFCFBF9F7F4EF02
:10013000361738140000A91C0000B31A082000006C
:100140002820531EE1237D260000000044210000EA
:100150000F161F1600000000FE158E15A715E015DE
:100160000000000000002D15000011157C151D1564
:100170005E154F1500006D1501040101010201011A
:100180000101010101010101040108020101010154
:100190000201010201020101020102020101010149
:1001A000080011241FBECFEFD1E4DEBFCDBF12E0A7
:1001B000A0E0B2E0E0E4FFE500E00BBF02C0079082
:1001C0000D92A43AB107D9F716E0A4EAB2E001C053
:1001D0001D92AD32B107E1F70E9466020C949E2F8A
:1001E0000C940000EF92FF920F931F9383E040E482
:1001F0005BE46CE470E020E030E008E011E0EE2425
:10020000FF240E942A081F910F91FF90EF900895FC
:10021000DF93CF93CDB7DEB72B970FB6F894DEBF41
:100220000FBECDBF82E089838EEB9AEB9B838A83DE
:100230008091A4029091A5029D838C8380E092E03E
:100240000E941A2BCE0101960E9436282B960FB6DB
:10025000F894DEBF0FBECDBFCF91DF910895EF922E
:10026000FF920F931F93DF93CF93CDB7DEB7CF5F8E
:10027000D0400FB6F894DEBF0FBECDBF8091A6026E
:100280009091A702A091A802B091A9020196A11D88
:10029000B11D8093A6029093A702A093A802B093E9
:1002A000A9022DB73EB7285030400FB6F8943EBF94
:1002B0000FBE2DBF4DB75EB74F5F5F4F8E010F5F13
:1002C0001F4FEDB7FEB71283018321E132E0FA013F
:1002D0003383228384839583A683B7830E944F2B25
:1002E0002DB73EB72A5F3F4F0FB6F8943EBF0FBE03
:1002F0002DBFEDB7FEB7128301830E94082B0F902C
:100300000F9082E090E060E070E00E94F20984E0EB
:1003100040E251EA67E070E020E030E002EA11E0FC
:10032000EE24FF240E942A08C150DF4F0FB6F89434
:10033000DEBF0FBECDBFCF91DF911F910F91FF9018
:10034000EF90089582E090E061E070E00E94F20991
:100350000895EF92FF920F931F9381E090E062E087
:1003600070E00E94F20984E040E251EA67E070E048
:1003700020E030E009EA11E0EE24FF240E942A0880
:100380001F910F91FF90EF900895EF92FF920F93BE
:100390001F936623D9F486E292E00E941A2B84E030
:1003A0000E941E0781E090E060E070E00E94F20988
:1003B00083E040E45BE46CE470E020E030E008E0DF
:1003C00011E0EE24FF240E942A0803C081E00E946D
:1003D000D9281F910F91FF90EF900895CF92DF924F
:1003E000EF920F93CF93DF93882389F5E60120E006
:1003F00025C08B85843101F58C858823E9F48981BA
:100400009A818E5B9A4BC1F48D859E8597FF14C0AF
:100410008881823041F58B819C819093A5028093E5
:10042000A4028EE492E00E941A2B8B856C85AE01AB
:1004300020E80E9424291AC061962F5F2E15C8F269
:1004400081E040E058EF6FEF77E025E008C08A3E9A
:1004500051F481E040E058EF6FEF77E026E000E0F4
:100460000E945C2803C081E00E94D928DF91CF91CF
:100470000F91EF90DF90CF900895EF92FF920F933E
:100480001F938823D9F48CE592E00E941A2B81E017
:1004900040E058EF6FEF77E025E000E00E945C2835
:1004A00084E040E251EA67E070E020E030E009EAF1
:1004B00011E0EE24FF240E942A0803C081E00E947C
:1004C000D9281F910F91FF90EF9008950E94022A62
:1004D000882311F00E94EF040E94EB0980E090E075
:1004E00060E070E00E94F20981E090E061E070E07D
:1004F0000E94F20982E090E061E070E00E94F2095F
:10050000789481E00E940D04882311F00E94EF048A
:100510008EEC92E065EB72E00E94BC2A8EE692E0DF
:100520000E941A2B80E992E00E941A2B81E00E941F
:10053000D9280E94EC29FDCFDF93CF930F92CDB73E
:10054000DEB781E0BE016F5F7F4F41E00E94FB0399
:10055000813019F02FEF3FEF03C08981282F30E061
:10056000C9010F90CF91DF9108950F931F93DF93EF
:10057000CF930F92CDB7DEB78E010F5F1F4F81E093
:10058000B80141E00E94FB038823C9F3898190E010
:100590000F90CF91DF911F910F9108950F931F93AB
:1005A000DF93CF930F92CDB7DEB789838A3071F492
:1005B0008DE089838E010F5F1F4F81E0B80141E01C
:1005C0000E9404048823C9F38AE089838E010F5FA7
:1005D0001F4F81E0B80141E00E9404048823C9F361
:1005E00080E090E00F90CF91DF911F910F910895DF
:1005F0009B01AC016050774F824C9F4FF2E0660F39
:10060000771F881F991FFA95D1F7E3E0220F331F58
:10061000441F551FEA95D1F70E94262A21503040E9
:100620003093CD002093CC0082E08093C80086E018
:100630008093CA0088ED8093C9000895DC01809101
:10064000C9008F7B8093C90020916105809162056C
:10065000821730F0275F922F981B892F295005C0F1
:100660002150922F981B892F2F5F482F681708F46D
:10067000462F342F12C090916205E92FF0E0E35B22
:10068000FA4F8C918083993019F41092620503C05F
:100690009F5F9093620531501196332361F78091EB
:1006A0006505882351F4E22FF0E0E35BFA4F808187
:1006B0008093CE0081E0809365058091C9008064BD
:1006C0008093C900842F0895DC01209166052223C0
:1006D00011F480E008958091C9008F778093C9005C
:1006E0002A3058F080916405809363058AE08093F6
:1006F00066056A3020F02AE003C0261708F0262F8E
:10070000322F17C0E0916305F0E0E35BFA4F82857A
:100710008C93909163059F5F90936305809166052C
:100720008150809366059A3011F4109263051196FA
:100730003150332339F78091C90080688093C90014
:10074000822F08951F920F920FB60F920BB60F9241
:1007500011248F939F93EF93FF9390916405809161
:1007600066058F5F809366058091CE00E92FF0E0EB
:10077000E35BFA4F8287993019F41092640503C045
:100780009F5F90936405FF91EF919F918F910F90E0
:100790000BBE0F900FBE0F901F9018951F920F92D7
:1007A0000FB60F920BB60F9211248F93EF93FF9316
:1007B00080916105893019F41092610503C08F5F43
:1007C00080936105E091610580916205E81739F039
:1007D000F0E0E35BFA4F80818093CE0002C010927C
:1007E0006505FF91EF918F910F900BBE0F900FBE9B
:1007F0000F901F901895813011F080E00895CB0183
:10080000642F0E9464030895813011F080E0089500
:10081000CB01642F0E941E030895813011F085E8FA
:10082000089560E875E280E090E00E94F80280E0C0
:1008300008959093AB028093AA0208959093AD021D
:100840008093AC0208959093AF028093AE02089516
:100850001F920F920FB60F920BB60F9211242F9387
:100860003F934F935F936F937F938F939F93AF9338
:10087000BF93EF93FF93E091AA02F091AB02099529
:10088000FF91EF91BF91AF919F918F917F916F9168
:100890005F914F913F912F910F900BBE0F900FBE24
:1008A0000F901F9018951F920F920FB60F920BB6D4
:1008B0000F9211242F933F934F935F936F937F93E6
:1008C0008F939F93AF93BF93EF93FF93E091AC020D
:1008D000F091AD020995FF91EF91BF91AF919F917A
:1008E0008F917F916F915F914F913F912F910F90D9
:1008F0000BBE0F900FBE0F901F9018951F920F9276
:100900000FB60F920BB60F9211242F933F934F9374
:100910005F936F937F938F939F93AF93BF93EF9367
:10092000FF93E091AE02F091AF020995FF91EF9134
:10093000BF91AF919F918F917F916F915F914F91F7
:100940003F912F910F900BBE0F900FBE0F901F90F5
:1009500018951F920F920FB60F9211240F900FBE91
:100960000F901F9018951F920F920FB60F9211249F
:100970000F900FBE0F901F9018951F920F920FB6F9
:100980000F9211240F900FBE0F901F9018951F9279
:100990000F920FB60F9211240F900FBE0F901F9061
:1009A00018951F920F920FB60F9211240F900FBE41
:1009B0000F901F9018951F920F920FB60F9211244F
:1009C0000F900FBE0F901F9018951F920F920FB6A9
:1009D0000F9211240F900FBE0F901F9018951EB804
:1009E0008FEF8DB98FEF9FEF0E94EC058EB1809550
:1009F0008EB9F8CFCF92DF92EF92FF920F931F93B1
:100A0000CF93DF937B018A016901892B11F088EE76
:100A100019C0CA01860F971F8150904110F085E8D8
:100A200011C0C0E0D0E00AC0CE018E0D9F1D0E9413
:100A3000862DF601EC0FFD1F80832196C017D1078C
:100A400098F380E0DF91CF911F910F91FF90EF908D
:100A5000DF90CF900895CF92DF92EF92FF920F93A5
:100A60001F93CF93DF938C017B016A01CB01800F31
:100A7000911F8150904110F085E816C0C0E0D0E091
:100A80000FC0C8010E94862DF601EC0FFD1F60818A
:100A9000861719F0C8010E948E2D0F5F1F4F2196F7
:100AA000CE15DF0570F380E0DF91CF911F910F919C
:100AB000FF90EF90DF90CF9008950E94F407089583
:100AC0000E9466050E94870580E008959FB7F8940C
:100AD000E0E0F0E089E08093570084919FBF8F7041
:100AE000823011F090E001C09FE080E80FB6F894EA
:100AF00080936100909361000FBE80E18093350187
:100B000080933401809333018093320108951092D1
:100B1000B0021092B1028FEF8093B2028093B302C1
:100B20008093B402EBE6F5E09FEF9483118210828C
:100B3000399685E0E839F807C1F780E28093B6007E
:100B400088EA8093DC008FE08093F4009093F300B8
:100B50009093F2009093F10082E08093E000809106
:100B6000DF0082608093DF0008950895FC0180918A
:100B7000DE0080FDFCCF2091E100822F2091E20079
:100B8000922F2091E300A22F2091E400B22F24E0C5
:100B9000880F991FAA1FBB1F2A95D1F780839183C5
:100BA000A283B3830895FC012091E900822F209154
:100BB000EA00922F2091EB00A22F2091EC00B22F9F
:100BC00034E0880F991FAA1FBB1F3A95D1F7808385
:100BD0009183A283B3830895AC018436910518F004
:100BE00060E070E01EC07FB7F89461E01AC057FD66
:100BF00002C09A0102C02FEF3FE7C901880F991F79
:100C0000909581959F4F9093250180932401FABB85
:100C1000E0932101D09BFECF421B530B1092210188
:100C200002C0F1E0E2E04115510509F761117FBF13
:100C3000089520E090E0FC01B3E0EE0FFF1FBA95AD
:100C4000E1F7E80FF91FE959FA4F84819581892B63
:100C500009F021E0822F0895AF92BF92CF92DF92E8
:100C6000EF92FF920F931F938091B20290E0FC01EC
:100C700013E0EE0FFF1F1A95E1F7E80FF91FE9598E
:100C8000FA4FA080B180C280D3808091B0028823C7
:100C900009F46BC0D092F800C092F700B092F60051
:100CA000A092F5008091DF0080FD08C081E0809374
:100CB000E0008091DF0081608093DF002091E100FF
:100CC000822F2091E200922F2091E300A22F209109
:100CD000E400B22F9C01AD012F5F3F4F4F4F5F4F9C
:100CE000DA01C9018A259B25AC25BD25807090704D
:100CF000A070B87F0097A105B10531F4A216B30624
:100D0000C406D506C0F109C0D601C501B770577039
:100D1000281739074A075B0770F180915D01883019
:100D200068F5E090B502F090B6020091B70210911C
:100D3000B8020894E11CF11C011D111DEA14FB040A
:100D40000C051D05D9F48091E100282F8091E20067
:100D5000382F8091E300482F8091E400582F2E1502
:100D60003F054007510779F706C08091DF008E7F6D
:100D70008093DF0003C081E08093B1021F910F9147
:100D8000FF90EF90DF90CF90BF90AF9008951F93AA
:100D90001FB7F8948091B102882309F44CC01092D7
:100DA000B1023091B002332309F445C08091B302FF
:100DB0008F3F59F48091B4028F3F39F48091B20291
:100DC0008093B4028093B30212C02091B20280914A
:100DD000B40290E0FC0153E0EE0FFF1F5A95E1F7DB
:100DE000E80FF91FE959FA4F20872093B402809148
:100DF000B20290E0FC0143E0EE0FFF1F4A95E1F7DD
:100E0000E80FF91FE959FA4F80858093B20280916B
:100E1000B40290E0FC0123E0EE0FFF1F2A95E1F7FA
:100E2000E80FF91FE959FA4F8FEF8087315030935F
:100E3000B0020E942C061FBF1F910895FF920F93CE
:100E40001F93182F853010F08AE8C5C0FFB6F894BC
:100E50000E94C7060091B002002309F4C0C040916F
:100E6000B202242F842F302F1217F1F5212F30E0FA
:100E7000141781F4F901A3E0EE0FFF1FAA95E1F723
:100E8000E20FF31FE959FA4F80858093B2020E9466
:100E90002C0618C090E0DC01E3E0AA0FBB1FEA9526
:100EA000E1F7A80FB91FA959BA4FF90173E0EE0F86
:100EB000FF1F7A95E1F7E20FF31FE959FA4F80859A
:100EC00018968C93812F90E0FC0163E0EE0FFF1FDA
:100ED0006A95E1F7E80FF91FE959FA4F8FEF80871C
:100EE00001500093B00262C0822F90E0FC0153E0F9
:100EF000EE0FFF1F5A95E1F7E80FF91FE959FA4F76
:100F000050853150822F09F46AC0252FADCF1217BA
:100F1000D1F52091B4021317B1F4121721F48FEF19
:100F20008093B4020DC0812F90E0FC0143E0EE0FEE
:100F3000FF1F4A95E1F7E80FF91FE959FA4F80853D
:100F40008093B30233C0842F90E0DC0133E0AA0F1A
:100F5000BB1F3A95E1F7A80FB91FA959BA4F812FC6
:100F600090E0FC0103E0EE0FFF1F0A95E1F7E80FA8
:100F7000F91FE959FA4F808518968C931217B1F42E
:100F80004093B40213C0822F90E0FC0173E0EE0F97
:100F9000FF1F7A95E1F7E80FF91FE959FA4F422F41
:100FA00020852F3F09F0B3CF80E00FC0812F90E064
:100FB000FC0163E0EE0FFF1F6A95E1F7E80FF91FF0
:100FC000E959FA4F1582148281E0FFBE882311F49B
:100FD00089E801C080E01F910F91FF900895309142
:100FE000B302232F432FDDCF1F930E94C7061FEFAD
:100FF00025C06FB7F894822F90E0FC01B3E0EE0FAC
:10100000FF1FBA95E1F7E80FF91FE959FA4F20855C
:1010100044815581868197811087158214821782B9
:1010200016822F3F09F43FEF6FBF4115510551F074
:101030003093B4022093B302FA0109953091B402BF
:101040002091B3022F3FA9F63093B4022093B3024C
:101050001F9108952F923F924F925F926F927F92CD
:101060008F929F92AF92BF92CF92DF92EF92FF92B8
:101070000F931F93DF93CF9300D000D00F92CDB783
:10108000DEB7582E1801FB82EA8204E0081710F43C
:101090008AE820C12114310409F419C190E09D832C
:1010A0008C83FC01A3E0EE0FFF1FAA95E1F7E80F88
:1010B000F91FE959FA4F84819581892B11F088E84D
:1010C00009C1E4E07695679557954795EA95D1F77C
:1010D0002115310529F02130310509F0F8C026C06D
:1010E000DB01CA010897A109B109885F9F4FAF4F83
:1010F000B74008F0EEC02091E100822F2091E2007D
:10110000922F2091E300A22F2091E400B22F7A01C8
:101110008B01E80EF91E0A1F1B1F8FEF9FEFAFEF29
:10112000BFE0E822F9220A231B2320C02091E1001E
:10113000822F2091E200922F2091E300A22F209194
:10114000E400B22F8A019B01081B190B2A0B3B0BF1
:10115000D901C801BF700897A109B109885F9F4FE5
:10116000AF4FB74008F0B5C07A018B012FB7298384
:10117000F8946FEF862E6FEF962E6FEFA62E6FE02E
:10118000B62E8E209F20A022B1220E94C70660901A
:10119000B2023FEF631671F04090B002C62CD62C1D
:1011A00077248FEF9FEFAFEFB7E0E822F9220A2311
:1011B0001B2367C05092B202EC81FD8153E0EE0F19
:1011C000FF1F5A95E1F7AC81BD81EA0FFB1FE9597A
:1011D000FA4F60865AC0BFEFDB1609F44DC06D2D83
:1011E00070E0FB0143E0EE0FFF1F4A95E1F7E60FC9
:1011F000F71FE959FA4F2081318142815381D5018E
:10120000C40182279327A427B52780709070A0700F
:10121000B87F0097A105B10539F4281539054A05AD
:101220005B0508F46FC007C05770E216F3060407A9
:10123000150708F467C0EC81FD8133E0EE0FFF1F56
:101240003A95E1F70C811D81E00FF11FE959FA4F42
:10125000D0866D1419F45092B20217C08C2D90E014
:10126000FC0123E0EE0FFF1F2A95E1F7E80FF91FBD
:10127000E959FA4F508609C08FEFDC2C7394CD2CBE
:10128000D82E741408F4A7CF49C0EC81FD8193E0F7
:10129000EE0FFF1F9A95E1F72C813D81E20FF31FBE
:1012A000E959FA4F80829182A282B38235822482E8
:1012B0008A819B81978386838091B0028F5F809320
:1012C000B0020E942C0699819FBF80E003C088EE87
:1012D00001C08BE80F900F900F900F900F90CF915F
:1012E000DF911F910F91FF90EF90DF90CF90BF9013
:1012F000AF909F908F907F906F905F904F903F90B6
:101300002F900895FB0183E0EE0FFF1F8A95E1F710
:10131000E60FF71FE959FA4F8085B0CF8C2D90E08A
:10132000FC0103E0EE0FFF1F0A95E1F7E80FF91F3C
:10133000E959FA4F5086EC81FD8113E0EE0FFF1F53
:101340001A95E1F7AC81BD81EA0FFB1FE959FA4F0D
:101350008FEF80879ACF1F920F920FB60F921124B2
:101360002F933F938F939F938091E1009091E200A0
:101370002091E3003091E4008093B5029093B6028F
:101380002093B7023093B8028091B002882319F0FD
:1013900081E08093B1029F918F913F912F910F90A7
:1013A0000FBE0F901F9018951F920F920FB60F92BD
:1013B00011248F938FEF8093E4008093E300809358
:1013C000E2008093E1008F910F900FBE0F901F906D
:1013D000189581E00895729A6A9A739A6B9A749A32
:1013E0006C9A08958130910599F0029721F161304E
:1013F000710549F06130710520F06230710569F5C1
:1014000004C072980895729A08958EB194E010C045
:101410006130710549F06130710520F0623071056D
:10142000E1F404C073980895739A08958EB198E01A
:1014300089278EB908956130710549F061307105D1
:1014400020F06230710549F404C074980895749ACC
:1014500008958EB190E189278EB90895759A6D9897
:1014600008952CB130E085E0369527958A95E1F70F
:1014700021703070C9010895BC01009721F081E30B
:1014800095E00E94710A089581E395E060E070E0C4
:101490000E94060B08950F931F93CF93DF9381E370
:1014A00095E00E946A0AC1E2D5E009EB12E01983D7
:1014B000088381E395E0BE010E94710A24960656D6
:1014C0001F4F85E0C133D80791F7DF91CF911F916E
:1014D0000F910895FC0111821082138212821482EE
:1014E0000895CF93DF93DC01EB019FB7F894149636
:1014F0008C911497882321F411967C936E9306C0E7
:101500001296ED91FC911397738362831396DC938B
:10151000CE9312971B821A8214968C9114978F5F28
:1015200014968C939FBFDF91CF9108959F92AF92B5
:10153000BF92CF92DF92EF92FF920F931F93CF93C0
:10154000DF938C015B016A019FB6F894DC0114966D
:101550008C91882319F4C0E0D0E04AC0F801C08122
:10156000D18141155105B1F07E0111C0D60112960D
:101570006D917C911397ED91FC91888199810995EA
:10158000882359F47E018A819B819C01E90120977F
:1015900069F72EC0209761F17E01AB2849F5F8016B
:1015A000808191812A813B81C817D90719F4318341
:1015B000208305C0D70113963C932E931297F80110
:1015C00082819381C817D90711F4F382E282D8018E
:1015D00014968C911497815014968C9314978D9136
:1015E0009C911197892B21F413961C921E921297AD
:1015F0009FBECE01DF91CF911F910F91FF90EF9091
:10160000DF90CF90BF90AF909F900895AB0160E0C6
:1016100070E00E94960A0895AB0161E070E00E94BC
:10162000960A0895CF93DF93EC010BC0CE0160E0E2
:1016300070E00E94060B009711F41C8205C00E9406
:101640003C0A8C81882391F7DF91CF9108950F9305
:101650001F93DF93CF93CDB7DEB728970FB6F894DB
:10166000DEBF0FBECDBF809141018F71883029F55B
:1016700081E080934F0189E080934201CE01019681
:101680000E94B6058E010B5F1F4F80914F0180FDB8
:1016900014C0C8010E94B6058D819E81AF81B885B6
:1016A00029813A814B815C81821B930BA40BB50B82
:1016B0008D3D9105A105B10540F328960FB6F8942C
:1016C000DEBF0FBECDBFCF91DF911F910F91089567
:1016D000CF93DF93EC018091B4059091B5050F97FE
:1016E00009F033C0809139018D7F8093390194E6F0
:1016F000809141018F718830C9F0915031F480910F
:101700003901826080933901EDCF000000000000B4
:1017100000000000000000000000000000000000C9
:1017200000000000000000000000E2CFC830D1053A
:1017300019F0C330D10549F488E090E09093B505E5
:101740008093B40528E030E0E1C18091410190E050
:101750008F7190709093B5058093B405C830D10512
:1017600009F44FC0C930D10560F4C430D10509F483
:101770009AC0C630D10509F4A3C0239709F0B9C1B6
:1017800057C0CF30D10579F0C031D10520F4299769
:1017900009F0AFC164C0C631D10509F4CBC0699767
:1017A00009F0A7C136C183E0809342010E94A32AB9
:1017B00080936D0180916E019770887F982B909334
:1017C0006E010000000000000000000000000000AA
:1017D0000000000000000000000000000000000009
:1017E00000008091390182608093390183E290E0AA
:1017F0000E94EC05D093B505C093B4052FE030E00E
:1018000085C1089709F475C188E080934201000002
:1018100000000000000000000000000000000000C8
:10182000000000000000000000000000000061C196
:10183000089709F45EC183E0809342010000000034
:101840000000000000000000000000000000000098
:101850000000000000000000000000004AC18830C5
:10186000910539F18930910520F4069709F041C1BD
:1018700006C08631910519F0499709F03AC189E00F
:101880008093420100000000000000000000000002
:101890000000000000000000000000000000000048
:1018A0000000000026C18830910519F0099721F445
:1018B00020C10E94270B1DC184E08093420119C101
:1018C0008930910569F08A30910520F4089709F074
:1018D00010C11AC08631910519F0499709F009C164
:1018E00086E080934201000000000000000000003C
:1018F00000000000000000000000000000000000E8
:10190000000000000000F5C00E94270B86E08093D5
:101910004201000000000000000000000000000084
:1019200000000000000000000000000000000000B7
:101930000000DFC08830910509F18930910520F45D
:10194000069709F0D6C030C08930910519F0499743
:1019500009F0CFC086E18093420100000000000042
:101960000000000000000000000000000000000077
:1019700000000000000000000000BBC00E94270B18
:1019800086E180934201000000000000000000009A
:101990000000000000000000000000000000000047
:1019A000000000000000A5C089E080934201000013
:1019B0000000000000000000000000000000000027
:1019C0000000000000000000000000000000809106
:1019D0004101282F30E02F7130703093B5052093EE
:1019E000B4052930310509F091C086E180934201A8
:1019F00000000000000000000000000000000000E7
:101A000000000000000000000000000000000000D6
:101A100070C08830910509F457C08930910520F4D1
:101A2000069709F066C01BC08930910521F04697E2
:101A300009F05FC014C089E18093420100000000FA
:101A40000000000000000000000000000000000096
:101A50000000000000000000000000004AC089E013
:101A60008093420100000000000000000000000020
:101A70000000000000000000000000000000000066
:101A80000000000080914101282F30E02F7130705C
:101A90003093B5052093B4052930310509F036C0DF
:101AA00089E1809342010000000000000000000076
:101AB0000000000000000000000000000000000026
:101AC00000000000000015C00E94270B89E18093F0
:101AD00042010000000000000000000000000000C3
:101AE00000000000000000000000000000000000F6
:101AF000000080914101282F30E02F7130702F318C
:101B00003105B9F32093B4053093B505C901DF91D0
:101B1000CF9108958091A5058823E9F08091BE05B5
:101B20008823C9F48091360590913705892B39F4C3
:101B30008AE90E94440A9093370580933605809184
:101B4000360590913705892B31F01092A50586E175
:101B500090E00E94680B8091AA05882351F086EAE4
:101B600095E060E070E00E94060B009711F00E9483
:101B7000C00D8091BE05823011F40E941E0F0895A1
:101B8000EF92FF920F931F93CF93DF937C01DC01C1
:101B90000D911C91D8011696ED91FC9117978081BB
:101BA0008093B705C82FD0E02196CE0FDF1F988114
:101BB00029812D3310F02CE303C0222309F421E006
:101BC00092959695969593708FEF989FC0011124EA
:101BD00030E0FC01E29FC001E39F900DF29F900D69
:101BE000112464EB70E00E94122A6F3F710511F01E
:101BF00008F06FEF6883D8011296FC92EE9211976D
:101C0000C8010E947716DF91CF911F910F91FF902D
:101C1000EF900895CF92DF92EF92FF920F931F9370
:101C2000CF93DF93E0913605F0913705309709F4B3
:101C30004AC0C081D181C0904701D0907B01D7FCC0
:101C400042C082E0D80E0AE910E00D191109EEEF4A
:101C5000DE0E0C0F1D1FED2CFF2497012F5F3F4F51
:101C6000C80160E871E0A9010E94B32AF801D2928C
:101C7000FF83EE83EE0EFF1EF701C28280914C01BE
:101C80008F7780934C0180914C01806880934C0148
:101C9000609136057091370586EA95E00E94710AD9
:101CA0008AE90E94440A9093370580933605892B70
:101CB00039F489E090E00E94680B81E08093A505EB
:101CC00080E480934F01DF91CF911F910F91FF909E
:101CD000EF90DF90CF9008951F931091BE051130C3
:101CE000E9F480914201829586958770809338054A
:101CF0001092390582E08093BE058091360590915F
:101D00003705892B39F489E090E00E94680B109325
:101D1000A50504C086E190E00E94680B1F9108951C
:101D20000F931F93CF93DF93EC018B01442349F072
:101D300090916C018091B3058295807F9F70892B73
:101D400003C080916C018F7080936C01023011058B
:101D500098F4442369F090916C018091AB05880F51
:101D60008E70917F892B80936C0110926F0117C048
:101D700080916C018E6011C08091AF058295807F4B
:101D80009091B205892B80936F0190916C018091A5
:101D9000AB05880F8E70917F892B80936C0189E150
:101DA00090E00E94680B4997D1F70130110551F47A
:101DB0008091B705833118F080E492E005C080E897
:101DC00090E002C089E090E00E94EC051FB7F89413
:101DD00080913901826080933901809139018D7F32
:101DE00080933901288130E02150304080E891E033
:101DF000BE01A9010E94B32A81E08093BE051FBFE6
:101E0000DF91CF911F910F910895FC018091BE0544
:101E1000882311F086E80895F093B105E093B005AA
:101E2000868197819093B9058093B805009711F446
:101E300088EE08950E94900E80E008951092BE05ED
:101E4000809138059091390583309105B9F084303F
:101E5000910528F4009731F00197E1F409C0059746
:101E6000C9F412C06091B0057091B10580E017C04F
:101E70006091B0057091B10587E811C06091B0051F
:101E80007091B10581EE0BC06091B0057091B10504
:101E900089EE05C06091B0057091B10585E80E949A
:101EA000F2220895282F85FD03C0982F9F7304C048
:101EB000982F91959F719195E0E2F1E084918917B7
:101EC00034F03F968491981714F0822F0CC0803E16
:101ED0003CF080323CF487FF06C08F71806203C003
:101EE00080E201C08FE18068089584E08093AB05B3
:101EF00023E02093B2058FEF9FEF9093A10580938D
:101F0000A0059093A4058093A3058BE08093AD0575
:101F100010929F0580E098EFAFEFB7E08093BA058D
:101F20009093BB05A093BC05B093BD058AE091E0FA
:101F300090939E0580939D058AE08093B60582E08C
:101F40008093AC0585E08093AF052093B30583E8CB
:101F50000E94520F8093940581E08093A205109215
:101F6000AE05089585FD03C0982F9F7304C0982F78
:101F700091959F719195E0E2F1E080E024919217B4
:101F800024F029173CF4815008958F5F31968031F9
:101F9000A9F780E008958091A0059091A105809314
:101FA000620190936301E5E9F5E0A4E6B1E0819177
:101FB0008D9385E0ED39F807D1F78091A3059091D5
:101FC000A4058093600190936101909148018091F4
:101FD000A2058295880F80769F79892B809348018E
:101FE00090916F018091B2058F70907F892B8093C3
:101FF0006F0190916E018091AE05880F880F880F58
:102000008870977F892B80936E0190916F018091EA
:10201000AF058295807F9F70892B80936F0190918F
:1020200048018091AD058F71907E892B8093480186
:10203000809194050E94B20F909145018F70907F1E
:10204000892B809345010895CF93DF93EB018E3464
:1020500031F0893541F488818093B305EFC08881E0
:102060008093AB05EBC02091B4053091B5052F30BE
:10207000310511F481E8E3C08B3009F4CDC08C3018
:1020800070F4823009F487C0833018F48823B1F1EA
:1020900015C0833009F490C0843081F466C0833564
:1020A00011F1843528F48F3459F0803539F410C09B
:1020B000873509F464C0803F09F48BC084EFBFC04A
:1020C00098819093B20580916F019F70807F5FC06F
:1020D000888199818093A0059093A10580936201E6
:1020E00090936301ABC0888199818093A3059093FD
:1020F000A4058093600190936101A0C08091BE050A
:10210000882309F097C080E098EFAFEFB7E0088030
:1021100004C0B695A795979587950A94D2F78170D4
:102120009070892B09F488C02830310519F428E013
:1021300030E008C088E090E00E94680B0897D1F773
:1021400026E130E098819093AD05809148019F7120
:10215000807E982B909348012830310509F46EC099
:1021600086E190E00E94680B69C08091BE058823DB
:1021700009F060C08881882309F460C05DC098813F
:102180009093AF0580916F019295907F8F70982BFF
:1021900090936F0153C08881809394050E94520FE1
:1021A000809394050E94B20F909145018F70907FAB
:1021B000892B8093450142C088818093A20590912C
:1021C00048018295880F80769F79892B80934801FA
:1021D00035C08881809395058981809396058A8191
:1021E000809397058B81809398058C8180939905C6
:1021F0008D8180939A058E8180939B058F8180933A
:102200009C05E5E9F5E0A4E6B1E081918D9385E0D8
:10221000ED39F807D1F712C088818093AE0590910F
:102220006E01880F880F880F8870977F892B8093A5
:102230006E0104C086E803C088EE01C080E0DF9133
:10224000CF9108950F931F93CF93DF93082F809121
:1022500039018D7F8093390180EF90E00E94EC0579
:10226000809139018E7F8093390181E090E00E9456
:10227000EC058091390181608093390120E030E0E4
:10228000809141012F5F3F4F93E0293E390711F4C0
:1022900085E85FC090E08F7190708830910581F77C
:1022A0009093B5058093B40580916E018062809310
:1022B0006E0180914C01806880934C018CE4809386
:1022C0004E0186E090E00E94680B10924E01C0E043
:1022D000D0E010E080914601CC0FDD1FCC0FDD1F58
:1022E00090E08076907025E0969587952A95E1F7A5
:1022F000C82BD92B1F5F183069F783E090E00E944C
:10230000680B80914F0110934F0180E480934F013F
:102310008CE480934E01CE010E94A82A0E94A32A39
:1023200080936D0180916E019770887F982B9093B8
:102330006E0180E00E94D9120E94C712002311F0A2
:102340000E94750F0E94CB0F1092BE051092A5053A
:1023500080E0DF91CF911F910F9108950E9422118B
:10236000882361F085E8089586EA95E060E070E0F2
:102370000E94060B009711F00E943C0A8091AA056A
:10238000882391F788E080934F0180E480934F0188
:1023900084E080934F0180E008950F931F93CF93C3
:1023A000DF930E946005882309F0D0C08091390135
:1023B000816080933901809139018D7F809339014B
:1023C0008CE791E00E94EC05809139018E7F80932B
:1023D000390181E090E00E94EC0580913901816033
:1023E0008093390188E08093420120E0809141018F
:1023F000215009F4ABC090E08F7190708830910546
:10240000A9F79093B5058093B40580915C0183385A
:1024100009F09CC0A1C0C5E9D5E00E94A32A899318
:1024200085E0CD39D807C9F780919505309196059B
:10243000409197056091980570919905F0919A05E2
:10244000B0919B0550919C05082F015091E0081711
:1024500008F090E0832F815021E0831708F020E0FE
:10246000192F180F91E0181708F090E0292B842FEE
:10247000815031E0841708F030E0A22FA80F91E0DE
:10248000A81708F090E0392B862F815021E086179D
:1024900008F020E0E32FE80F91E0E81708F090E063
:1024A000292B872F815031E0871708F030E0622F09
:1024B000680F91E0681708F090E0392B8F2F81505A
:1024C00021E08F1708F020E0432F480F91E04817D4
:1024D00008F090E0292B8B2F815091E08B1708F0AA
:1024E00090E0322F380F21E0381708F020E0922BCF
:1024F0005195591779F43F3F69F44F3F59F46F3FB5
:1025000049F4EF3F39F4AF3F29F41F3F19F40E3F70
:1025100008F081CF81E00E9422118823B9F48FEB6B
:1025200092E10E941E0487EB92E10E9419040E942E
:102530004B0A8AE90E94440A909337058093360536
:1025400086EA95E00E946A0A80E001C085E8DF9192
:10255000CF911F910F91089580E090E060E070E0CE
:1025600048E050E025E935E00E94FA045DCF1F9372
:102570001FB7F8940E946C0E1FBF1F9108951F9300
:102580001FB7F8940E940A0E1FBF1F9108958091F3
:10259000B4059091B5050F9711F082E8089588E091
:1025A00090E00E94680B089711F085E8089580E09C
:1025B0000895882311F088EE08958091B4059091D4
:1025C000B5050F9711F481E808958091BE05882321
:1025D00081F41092A50588E090E00E94680B0897AE
:1025E000D1F78FE090E00E94680B0F9711F480E024
:1025F000089586E80895982F8091BE05882311F0EC
:1026000086E80895983041F488E090E00E94680BD5
:102610001092A50588E008958091360590913705C0
:10262000892B31F086E190E00E94680B86E00895E6
:1026300081E08093A50586E00895DC01ED91FC9191
:10264000119784E180836383528341838EE196E016
:10265000BD010E94710A08950F931F93DF93CF93DA
:1026600000D0CDB7DEB7A091DB05B091DC05ED91D0
:10267000FC91119784E180838BEE83830FEF1FEF32
:10268000128301838EE196E0BD010E94710A1092CF
:10269000CC051A83098380E5BE016F5F7F4F0E94DE
:1026A000E51E1093DE050093DD051092EB051092F8
:1026B000EC051092ED051092EE051092EF051092C8
:1026C000F0051092F1051092F2050E94DE1D0F90A8
:1026D0000F90CF91DF911F910F910895EF92FF928C
:1026E0000F931F93E090E705F090E80580E061E02C
:1026F00040E020E030E000E010E00E946E19882306
:10270000A9F4A091DB05B091DC05ED91FC91119746
:1027100084E1808381EE83838FEF9FEF92838183B7
:102720008EE196E0BD010E94710A19C0A70160E028
:1027300070E084E0440F551F661F771F8A95D1F71C
:1027400080E020E030E00CE213E1EE24FF240E9460
:102750002A08882321F080E090E00E942C131F912A
:102760000F91FF90EF900895FF920F931F93DF93C7
:10277000CF9300D0CDB7DEB7F09013060E943C0A8D
:10278000FF20B1F583E561E176E00E94E51E20912E
:10279000110630911206809106068093EB05809118
:1027A00007068093EC05809108068093ED058091E3
:1027B00009068093EE0580910A068093EF058091CB
:1027C0000B068093F00580910C068093F1058091B3
:1027D0000D068093F20581E080931A061092CC05D5
:1027E0008091D605833031F582E08093D60522C0F2
:1027F0001092CC050FEF1FEF1A83098380E5BE010D
:102800006F5F7F4F0E94E51E1093DE050093DD058C
:102810001092EB051092EC051092ED051092EE056A
:102820001092EF051092F0051092F1051092F2054A
:102830002FEF3FEFE091DB05F091DC05A081B18146
:1028400084E18C931396FC92139712963C932E93EB
:1028500011978EE196E0BF010E94710A0E94DE1D71
:102860000F900F90CF91DF911F910F91FF900895DE
:10287000CF92DF92EF92FF921F93DF93CF93CDB76A
:10288000DEB72F970FB6F894DEBF0FBECDBFAC01F9
:102890007C01DE011196FC01808191819C01F9018E
:1028A0008FE001900D928150E1F74093DB0550934A
:1028B000DC058C81823019F48F8198851AC08F8154
:1028C0008093EB0588858093EC0589858093ED05E1
:1028D0008A858093EE058B858093EF058C858093A8
:1028E000F0058D858093F1058E858093F2058EEF3E
:1028F0009FEF9093DE058093DD0580E5BE016B5F61
:102900007F4F0E94E51E0E94B91DD701CD90DC903B
:1029100081E0F6018083F282E182EA56FF4F8083F4
:102920008F8581839F0128503040D901E5E9F5E08A
:1029300088E001900D928150E1F7F9018FEF9FEF50
:10294000929382938C81823051F48091DD05909135
:10295000DE059293829345E123E238EC11C0F90140
:102960003A979F014BEE55E088E0DA010D90AD01FA
:10297000D9010D929D018150C1F74BE123E23CEC5E
:102980008091A0059091A105929382938091D705A3
:1029900082938F5F8093D705329322934293D6011F
:1029A0001796FC93EE93169784E0BE016D5F7F4F00
:1029B0000E94E51E182F80E0BE016E5F7F4F0E94CF
:1029C000E51E112371F4882361F4C60162E070E012
:1029D00041E00E94050F882321F481E080931B06CB
:1029E00012C0D701ED91FC9184E1808381EE838355
:1029F0008FEF9FEF928381838EE196E0B7010E9473
:102A0000710A0E94DE1D2F960FB6F894DEBF0FBE2E
:102A1000CDBFCF91DF911F91FF90EF90DF90CF90CE
:102A20000895FC010190F081E02D62817381818124
:102A3000448125810E94112A08950F931F938C01D0
:102A4000DC01ED91FC91818162810E940E2AC80116
:102A50000E943C0A1F910F910895AF92BF92CF92AE
:102A6000DF92EF920F931F935C01DC01ED91FC91DB
:102A70000481158126813781818162814381E084CF
:102A800039966F010E94EE01C5010E943C0A1F9118
:102A90000F91EF90DF90CF90BF90AF9008950F937C
:102AA0001F938C01DC01ED91FC9181810E94102A21
:102AB000C8010E943C0A1F910F9108950F931F9324
:102AC0008C01DC01ED91FC9181810E943D02C801E5
:102AD0000E943C0A1F910F9108950F931F938C0140
:102AE000DC01ED91FC9181810E94F200C8010E94FD
:102AF0003C0A1F910F9108950F931F938C01DC01E5
:102B0000ED91FC91818162813396AF010E940D2A83
:102B1000C8010E943C0A1F910F910895EF92FF9205
:102B20000F937C01DC01ED91FC9121813281438185
:102B30005481658176818781908501850E940C2A68
:102B4000C7010E943C0A0F91FF90EF9008950F93E8
:102B50001F93DF93CF93CDB7DEB72B970FB6F894C3
:102B6000DEBF0FBECDBF8C01DC01ED91FC918281F7
:102B70008983838194819B838A839E012C5F3F4F4D
:102B8000AF014B5F5F4F88E0DA010D90AD01D901D5
:102B90000D929D018150C1F78181BE016F5F7F4F12
:102BA0000E940B2AC8010E943C0A2B960FB6F8948B
:102BB000DEBF0FBECDBFCF91DF911F910F91089562
:102BC000CF92DF92EF92FF920F936C01DC01ED91B7
:102BD000FC91BF016E5F7F4F24893589E788F08CB7
:102BE0008181438906890E940A2AC6010E943C0A03
:102BF0000F91FF90EF90DF90CF9008950F931F9368
:102C00008C01DC01ED91FC918181928163810E94B4
:102C1000C501C8010E943C0A1F910F9108950F93AE
:102C20001F938C01DC01ED91FC91818162810E94F6
:102C3000092AC8010E943C0A1F910F910895CF9262
:102C4000DF92EF920F93DF93CF93CDB7DEB7669706
:102C50000FB6F894DEBF0FBECDBF6C01DC01ED9165
:102C6000FC9181818983828193819B838A839E01E8
:102C70002C5F3F4FAF014C5F5F4F88E0DA010D9052
:102C8000AD01D9010D929D018150C1F784858C87DA
:102C9000858596859E878D879E01215F3F4FAF0179
:102CA000415F5F4F88E0DA010D90AD01D9010D92CF
:102CB0009D018150C1F7228D338DCE010196BE0159
:102CC000645F7F4F418D0789E08C0E942F01C60110
:102CD0000E943C0A66960FB6F894DEBF0FBECDBFC9
:102CE000CF91DF910F91EF90DF90CF900895FC018D
:102CF0001082618172816115710521F082EE95E08B
:102D00000E94710A08950F931F93CF93DF93282F8A
:102D1000809111069091120696FFA3C0222359F4C8
:102D200020910406309105068091A0059091A1059F
:102D30002817390761F0209104063091050680912B
:102D4000E0059091E1052817390709F08AC0209124
:102D50000606309107068091DD059091DE05281763
:102D6000390709F47EC0909106068091EB0598170B
:102D700059F5909107068091EC05981729F59091E7
:102D800008068091ED059817F9F490910906809155
:102D9000EE059817C9F490910A068091EF059817EF
:102DA00099F490910B068091F005981769F4909131
:102DB0000C068091F105981739F490910D068091D9
:102DC000F205981709F44DC08AE90E94440A8C0163
:102DD000009709F446C0DC012D913C9185E0F90192
:102DE000808312830183E956FF4F8083AF014850EF
:102DF0005040FA01A5E9B5E088E00D9001928150BC
:102E0000E1F7FA013897EF01ABEEB5E088E00D90FD
:102E100009928150E1F78091A0059091A1059293CC
:102E200082938091D70582938F5F8093D70583E645
:102E30009CEC9293829388E18293D9011796FC933C
:102E4000EE931697C90162E070E041E00E94050F21
:102E5000882321F481E080931B0603C0C8010E94EF
:102E60003C0ADF91CF911F910F9108950F931F930B
:102E7000CF93DF93EC01E881F981A681B7817C9142
:102E80007093F605FD01E70FF11D818180930F0618
:102E900011964D915C9112975093F4054093F30570
:102EA00013968C9113978093F7058D010C5F1F4F3C
:102EB000652F6295669566956370352F36953695C4
:102EC000337019F4F80120E049C014968D919C915B
:102ED00015979093FA058093F905FD0136963230E7
:102EE000E1F41092FB051092FC051092FD05109282
:102EF000FE051092FF051092000610920106109236
:102F0000020616968D919C9117979093FC058093DD
:102F1000FB05FD01389624E021C0333011F022E09A
:102F20001DC016968C9116978093FB058181809326
:102F3000FC0582818093FD0583818093FE05848159
:102F40008093FF058581809300068681809301062A
:102F5000878180930206FD013E962AE0662309F4EC
:102F600047C046FD08C081919191909305068093DA
:102F700004062E5F08C08091F9059091FA059093A0
:102F80000506809304066230C1F410920606109282
:102F90000706109208061092090610920A0610926F
:102FA0000B0610920C0610920D0680819181909371
:102FB0000706809306062E5F1BC06330C9F480812C
:102FC000809306068181809307068281809308069C
:102FD000838180930906848180930A06858180938A
:102FE0000B06868180930C06878180930D06285FEF
:102FF000972F9550921B9093100660930306309381
:10300000F80543FD5CC1D801A20FB11D842F877064
:103010008093F505833021F48C9180930E0663C074
:10302000813009F451C0813020F0833009F047C16C
:103030005AC08D919C91119790931206809311061E
:1030400012968C91129780931306877011F493E077
:1030500002C0982F9C5FFD01E90FF11D80818093D4
:103060001406292F2F5F382F377090E080779070EB
:1030700044E0959587954A95E1F7482F332311F45D
:10308000882389F0CD01820F911D909316068093BD
:103090001506332311F0330F230F442321F0440F7F
:1030A000440F440F240F80911006281750F4821B00
:1030B00080931706A20FB11DB0931906A0931806AE
:1030C00002C110921706FFC0992351F0963718F0ED
:1030D00086E780931006B0931206A0931106F3C002
:1030E00010921006F0C080910E06843009F4EBC0F7
:1030F000853030F4823059F0833009F0E0C014C0DC
:10310000873009F4E0C0883009F0D9C012C01196A8
:103110008D919C91129790931206809311061396AD
:103120008C9180931306CFC011968C9180931106D9
:10313000CAC011968D919C9112979093120680931C
:10314000110613968D919C91149790931406809379
:10315000130615968C9115978093150616968D91EA
:103160009C911797909317068093160654FFABC057
:1031700018968C9180931806A6C08091F50583302F
:1031800061F480910E06843011F0873031F482EEC4
:1031900095E0BE010E94710A9CC08091CC058130EF
:1031A00009F478C0813020F0843008F088C059C01C
:1031B0008091D505882351F590911A06923008F038
:1031C0007EC08091F505813009F475C0813020F012
:1031D000833009F074C00CC080911D06882309F467
:1031E0006EC0992309F46BC080E00E94831667C00B
:1031F00080910E06833009F040C0CE010E94821AF1
:1032000080911A06813009F064C03DC08330D1F04E
:10321000843019F0823009F052C08091F50588237E
:1032200009F04DC080911D06882341F080911A0657
:103230008150823018F481E00E948316CE010E94F2
:10324000A42147C08091F5058330C9F580910E0611
:103250008830A9F581E00E941E07CE010E94272533
:1032600038C00E9413218091F505813021F183300F
:1032700031F580910E06833019F0883001F506C0D3
:10328000CE010E94821A0E948C1E23C0CE010E9491
:1032900001281FC08091F505833059F480910E06F6
:1032A000823069F480E00E941E07CE010E94B413B0
:1032B00010C0813021F4CE010E94891B0AC0CE01CA
:1032C0000E943C0A06C080911B06882309F055CF56
:1032D00064CFDF91CF911F910F9108956F927F92EC
:1032E0009F92AF92BF92CF92DF92EF92FF920F9395
:1032F0001F93CF93DF93D82E962EC42E59013801F9
:103300008AE90E94440A7C01009709F49BC0DC0111
:103310000D911C91DD2021F084E0F801808303C031
:103320008BE0D8018C93F801F282E182E956FF4FDD
:1033300084E080832091A3053091A405C901029601
:10334000029710F0992069F03897EF01A5E9B5E0F0
:1033500088E00D9009928150E1F762E183E290EC00
:1033600005C0329322936CE083E290E8CC2061F0B8
:103370002091A0053091A1056216730629F06E5FB9
:103380003293229370E002C0806471E022E0C216A2
:1033900041F4AC015860D5018D919C919293829338
:1033A00028C0B3E0CB1661F4AC015C6038976A5F6B
:1033B000EF01D50188E00D9009928150E1F719C025
:1033C0002091DD053091DE054FEF2E3F340729F0C7
:1033D000AC015860329322930CC0AC015C6038970A
:1033E0006A5FEF01ABEEB5E088E00D900992815085
:1033F000E1F73297772339F08091A0059091A105EC
:103400009183808302C0718260828091D70582930C
:103410008F5F8093D705529342936293D80117969A
:10342000FC93EE931697C80162E070E041E00E94C1
:10343000050F882321F481E080931B0604C0C70197
:103440000E943C0A80E0DF91CF911F910F91FF9085
:10345000EF90DF90CF90BF90AF909F907F906F9054
:103460000895EF92FF920F931F93CF93DF937C0108
:10347000E801DC01ED91FC9186E180836183428368
:1034800034832383CF010596423069F41582168276
:103490001782108611861286138614868881998178
:1034A0009683858307C0DC01F80188E001900D92C6
:1034B0008150E1F78EE196E0B7010E94710ADF9139
:1034C000CF911F910F91FF90EF9008950F931F934D
:1034D000AC018091A3059091A40502962091A005CE
:1034E0003091A105029728F4CA0143E005E915E0EF
:1034F00004C0CA0142E003EA15E00E94311A1F919C
:103500000F910895CF93DF939C01FC01C081D1817D
:10351000FE0185E18193A6E0B6E088E00D9001927E
:103520008150E1F78091110689878EE196E0B9011B
:103530000E94710A1092EB051092EC051092ED05B5
:103540001092EE051092EF051092F0051092F10521
:103550001092F2058FEF9FEF9093DE058093DD05CB
:10356000DF91CF9108950F931F93DF93CF93CDB742
:10357000DEB72E970FB6F894DEBF0FBECDBF8C011D
:10358000DC014D915C91DE011196FA018EE0019013
:103590000D928150E1F7FA011283018383E0808369
:1035A000EA56FF4F80838D85818338979F0165E9B7
:1035B00075E088E0DB010D90BD01D9010D929D0100
:1035C0008150C1F78A81823031F48D819E8192933E
:1035D000829333E10FC038979F01BE016B5F7F4F2D
:1035E00088E0DB010D90BD01D9010D929D01815054
:1035F000C1F739E18091A0059091A1059293829342
:103600008091D70582938F5F8093D7052A81922F6F
:10361000990F990F80E08366906C92938293329316
:10362000DA011796FC93EE9316970E94B91DF801E4
:103630008081918162E070E041E00E94050F882363
:1036400021F481E080931B060CC02B813C81C801D2
:1036500061EE4A818E010B5F1F4F0E94311A0E945A
:10366000DE1D2E960FB6F894DEBF0FBECDBFCF91F4
:10367000DF911F910F910895DC01ED91FC9111975D
:10368000E081E43278F4F0E0EE0FFF1FE05DFE4FE2
:10369000259134912115310519F0F9010995089505
:1036A0000E943C0A08951F9380911B06882381F491
:1036B0008091D405882361F080ED95E060E070E0B2
:1036C0000E94060B009721F00E943C1B11E001C0F4
:1036D00010E08091E605882359F082EE95E060E0E5
:1036E00070E00E94060B009719F00E943C1B11E04D
:1036F000812F1F910895DC01ED91FC91119780E1DC
:103700008083418362838EE196E0BD010E94710A4D
:1037100008950F931F93DF93CF93CDB7DEB728970C
:103720000FB6F894DEBF0FBECDBFAC01DC019C919B
:1037300011962C9180911006882321F4CA010E94D1
:103740003C0AFAC0E92FF22F8091F705808F809113
:103750000306818382508230A8F480910406909100
:103760000506938382839F012C5F3F4F66E076E0DE
:1037700088E0DB010D90BD01D9010D929D018150C2
:10378000C1F70AC013821282148215821682178230
:103790001086118612861386208D8091BF0528170A
:1037A00061F594818091C205981739F595818091D2
:1037B000C305981711F596818091C4059817E9F40F
:1037C00097818091C5059817C1F490858091C605B1
:1037D000981799F491858091C705981771F492858F
:1037E0008091C805981749F493858091C905981769
:1037F00021F4CA010E943C0A5AC02093BF0584816B
:103800008093C20585818093C30586818093C4051A
:1038100087818093C50580858093C60581858093C7
:10382000C70582858093C80583858093C90520914B
:10383000F80524871786108A118A128A138A148A37
:10384000158A168A8091F9059091FA0596878587E1
:10385000233079F49F01215F3F4F6BEF75E088E0E3
:10386000DB010D90BD01D9010D929D018150C1F781
:103870000BC0223039F48091FB059091FC05908BB0
:10388000878702C01686158680910F06878B8091E8
:103890001006818F8091110690911206938F828F6E
:1038A00081E180838EE196E0BA010E94710A8091E5
:1038B000F30584FF41C080910306823071F480914A
:1038C0000606909107069A83898300910406109159
:1038D000050680E060E042E021C0833019F5809168
:1038E00006068983809107068A83809108068B8368
:1038F000809109068C8380910A068D8380910B0646
:103900008E8380910C068F8380910D0688870091AD
:1039100004061091050680E060E043E09E012F5F01
:103920003F4F07C080E060E040E020E030E000E092
:1039300010E00E946E1902C00E94DE1D28960FB68C
:10394000F894DEBF0FBECDBFCF91DF911F910F91D5
:103950000895CF92DF92EF92FF920F931F93DF9320
:10396000CF93CDB7DEB762970FB6F894DEBF0FBE28
:10397000CDBF8C01DE011196FC01808191819C01FB
:10398000F90182E101900D928150E1F78F8582FD6E
:1039900011C08091CC05882321F48091D50588231E
:1039A00049F09E85D801ED91FC9180E1808391835F
:1039B00081EEB5C0F801C080D1808DE0D6018C9336
:1039C0008E8513968C93888945E0F42EF80EE8E9ED
:1039D000F0E0E81BF109EC0DFD1D9A81923051F4E5
:1039E00037E0F32EF80E8091A3059091A4059293F1
:1039F000829312C0933081F438972DE0F22EF80EA6
:103A00009F0145E955E088E0DA010D90AD01D9014B
:103A10000D929D018150C1F72091A0053091A10523
:103A20008C819D812817390749F48A81882331F0D8
:103A30008B81882319F040E450E009C08A818823F3
:103A400021F0B2E0FB0E3293229340E050E08B81F4
:103A5000882311F1823039F46F2D6E5F8E819F8142
:103A60009293829312C038976F2D685F9F0196E002
:103A7000E92EF12CEC0EFD1E88E0D7010D907D01A2
:103A8000D9010D929D018150C1F782E0F82EF60E0A
:103A90008C819D81929382938091D70582938F5FD1
:103AA0008093D705BA0161608F8580FF02C0BA019B
:103AB00061628889873608F070618B81382F330FF7
:103AC000330F20E04A81942F9295990F990F907CA3
:103AD00080E0282B392B262B372B329322933296DA
:103AE000F7FC15C03397F082D6011796FC93EE933E
:103AF00016970E94B91DF60112830183C60162E088
:103B000070E041E00E94050F882381F013C09E857C
:103B1000D801ED91FC9180E18083918385EE8283D1
:103B20008EE196E0B8010E94710A14C081E0809392
:103B30001B0610C09E85D801ED91FC9180E1808329
:103B4000918381EE82838EE196E0B8010E94710A32
:103B50000E94DE1D62960FB6F894DEBF0FBECDBF89
:103B6000CF91DF911F910F91FF90EF90DF90CF9059
:103B7000089580911C06813051F40E94C712853847
:103B800031F081E090E00E94B50510921C06089586
:103B900080911C06882389F480E090E00E94B5059E
:103BA00080E00E94D912882321F481E080931C06D2
:103BB000089581E090E00E94B50508958091C005C8
:103BC000882331F48091DF05882311F40E94C81DF9
:103BD00008950F931F93182F10921B0610921A0628
:103BE00010921C061092D5051092D6051092CC05A5
:103BF0001092BF058FEF8093C2058093C305809319
:103C0000C4058093C5058093C6058093C70580933E
:103C1000C8058093C9051092DF0588E00E94FB1259
:103C20000FB7F89480E00E941E0781E00E941E07F3
:103C300082E00E941E070FBF112391F110921D0612
:103C400082EC97E09093CF058093CE0580E098E7D3
:103C50009093E8058093E7051092CB0581E080936F
:103C6000CD0586E08093C1051092EB051092EC051E
:103C70001092ED051092EE051092EF051092F005EE
:103C80001092F1051092F2058FEF9FEF9093DE05F1
:103C90008093DD050E94A32A8093D7051092C0056A
:103CA0001F910F9108950F931F93CF93DF93EC0112
:103CB000088119810E94B91DF801018180E090E01E
:103CC0000E94B50580E0011181E00E94AE11182F1D
:103CD00081E090E00E94B505802F0E94E91D0E94BE
:103CE000DE1D80ED95E00E94120B82EE95E00E94B1
:103CF000120B8EE196E00E94120BE881F98111838C
:103D000080E280838EE196E0BE010E94710ADF911D
:103D1000CF911F910F910895DF93CF9300D000D0E2
:103D2000CDB7DEB70E94B91D8FEF9FEF9A838983CD
:103D30009C838B8383E5BE016F5F7F4F0E94E51EEE
:103D400080E5BE016D5F7F4F0E94E51E81E00E940D
:103D5000E91D0E94DE1D0F900F900F900F90CF91E4
:103D6000DF9108950E94CD11882399F40E94E909FA
:103D7000882379F081E00E94E91D0E94DE1D80ED1C
:103D800095E00E946A0A82EE95E00E946A0A80E04D
:103D9000089585E80895E82F883030F4E82FF0E0A2
:103DA000E858FE4F849108958054803228F4F0E062
:103DB000E05CFE4F84910895E03F10F480E00895A8
:103DC000F0E0E055FF4F849108951F93CF93DF9368
:103DD000182FEB0180911C06813051F40E94B91D0F
:103DE000812FBE010E942410182F0E94DE1D04C0E6
:103DF000812F0E942410182F812FDF91CF911F91C6
:103E00000895FF920F931F93CF93DF93182FEB0129
:103E1000F42E813520F58E3408F087C0833409F400
:103E200084C0843460F4853038F4823008F07DC07A
:103E3000882309F47AC02DC0823459F53AC08A34F7
:103E400009F43FC08B3428F48434B9F1873409F580
:103E50006CC08B3409F44EC08C34D9F452C0873511
:103E600009F463C0883558F4853530F4833508F09B
:103E70005CC0823571F449C0863559F40CC089356F
:103E800009F453C0893558F08A3561F0803F09F450
:103E90004CC004EFABC0888180931D06A6C088810A
:103EA00099819FC0888199819093E8058093E70567
:103EB0009CC088818093CD0598C088818093C1057E
:103EC00094C088818093EB0589818093EC058A8179
:103ED0008093ED058B818093EE058C818093EF05B7
:103EE0008D818093F0058E818093F1058F81809381
:103EF000F2057BC0888199819093DE058093DD0572
:103F000074C088818093D70570C06881611161E0B9
:103F10006093C005662331F00E94B91D86E00E94BF
:103F2000FB1263C00E94DE1D60C0812FBE010E9493
:103F30002410082F813871F40E94C712812FBE010E
:103F40000E942410082F882309F050C081E080933C
:103F50003A0503C0882309F049C08091AB05282F9A
:103F600030E08091AF05482F50E06091B205CA0162
:103F7000861B9109281739070CF4C901A82F281BA3
:103F8000310981E090E002C0880F991F4A95E2F75D
:103F90000197289FA001299F500D389F500D112493
:103FA00020E030E070E0E1E0F0E00DC0C901860FF4
:103FB000971FEF0102C0CC0FDD1F8A95E2F74C0F6F
:103FC0005D1F2F5F3F4F2A1788F384E190E09C012B
:103FD000429FC001439F900D529F900D1124865F18
:103FE0009E4F9093CF058093CE0500E0FF2049F0CF
:103FF00080913A05882329F080E00E94D91210921E
:104000003A05802FDF91CF911F910F91FF90089576
:10401000EF92FF920F931F937C01FC0100811181AD
:10402000B8016E5F7F4FF801818141E00E94011F5E
:10403000F801918192839FE1908381838EE196E0E4
:10404000B7010E94710A1F910F91FF90EF900895A0
:10405000CF93DF93AC01DC01ED91FC919F012D5FCB
:104060003F4F81818C3409F485C08D3438F585301B
:1040700009F464C0863088F4823009F4ACC083301F
:1040800030F4882309F497C08130E9F597C0833074
:1040900009F4A4C08430B9F54EC0823409F459C083
:1040A000833430F4863009F44EC0873061F54EC059
:1040B0008A3409F451C08B3431F557C0863529F163
:1040C000873588F4803509F45EC0813530F48E344C
:1040D00009F453C08F34B9F453C0823509F458C081
:1040E000833589F458C08935D9F08A3528F4873565
:1040F00079F0883541F40FC08D35D1F0803F09F457
:1041000051C08A3581F094EF6DC080911D0668C062
:104110008091AF0565C08091CE059091CF053FC0DD
:104120008091B3055DC08091E7059091E80537C0A7
:104130008091CB0555C080919F0552C080919D050F
:1041400090919E052CC08091B6054AC08091AC0527
:1041500047C08091CD0544C0E901ABEEB5E088E0F1
:104160000D9009928150E1F73CC08091DD0590915E
:10417000DE0515C08091D70533C08091AB0530C0F6
:104180008091B2052DC08091A0059091A10507C036
:104190008091C00525C08091A3059091A4059483CA
:1041A00083831FC0E901A5E9B5E088E00D9009927D
:1041B0008150E1F716C08091AD0512C08091BA051B
:1041C0009091BB05A091BC05B091BD0583839483FC
:1041D000A583B68306C08091940502C08091A20594
:1041E000838390E0818182838EE1808391838EE15D
:1041F00096E0BA010E94710ADF91CF910895CF93A2
:10420000DF93EC01E881F98183E280836183662397
:1042100011F00E94DE1D8EE196E0BE010E94710A3F
:10422000DF91CF9108958091F5058823E1F080E03A
:104230000E941E078091F505813031F480911006AF
:10424000882311F060E001C06BEE8091CC058230D4
:1042500031F48091DB059091DC050E94FF201092E3
:104260001B061092CC0508958091CC05823039F45C
:104270008091DB059091DC056BEE0E94FF2010928F
:10428000CC0510921B060895CF92DF92EF92FF9219
:104290000F931F93DF93CF93CDB7DEB728970FB659
:1042A000F894DEBF0FBECDBFD82EC92E8091CC05AD
:1042B0008823B1F58091D505882391F50E94B91D19
:1042C000ED2CFC2CD701ED91FC9181819F012C5F9D
:1042D0003F4F823031F4848195819A83898342E013
:1042E0000DC0AE014F5F5F4F88E0D9010D909D0179
:1042F000DA010D92AD018150C1F743E002811381D3
:1043000081E060E09E012F5F3F4F0E946E1988237D
:1043100011F4C70107C0D092DB05C092DC0505C0CF
:104320008D2D9C2D61EE0E94FF2028960FB6F894EB
:10433000DEBF0FBECDBFCF91DF911F910F91FF90D8
:10434000EF90DF90CF9008955F926F927F928F925F
:104350009F92AF92BF92CF92DF92EF92FF920F9314
:104360001F93DF93CF93CDB7DEB761970FB6F89465
:10437000DEBF0FBECDBFBC014091D505423011F06C
:10438000443069F48091CD05882349F0E091DB0544
:10439000F091DC0520813181D901199604C0A0E09B
:1043A000B0E020E030E0509103065983009104060C
:1043B000109105061B830A83523069F41E821F8206
:1043C000188619861A861B86809106069091070624
:1043D0009D838C8318C0809106068C83809107068C
:1043E0008D83809108068E83809109068F8380914A
:1043F0000A06888780910B06898780910C068A8738
:1044000080910D068B879090AD059C86B0909F059E
:10441000BD8680911106909112069F878E87188A1B
:104420008091130687FF02C081E0888B80910F0680
:10443000898B423019F0443009F06FC08091CD056E
:10444000882309F46AC0F901F084EC81FD815C8065
:104450006D807E808F80A884C984DA84EB8440E0FC
:1044600049C011968D919C9112970817190709F070
:104470003FC08C915817E1F51B968C911B979816AD
:10448000B9F51C968C911C97B81691F5523041F4F1
:1044900013968D919C911497E817F90749F53DC043
:1044A00013968C911397851519F514968C91149782
:1044B0008615F1F415968C9115978715C9F4169603
:1044C0008C9116978815A1F417968C9117978A15D9
:1044D00079F418968C9118978C1551F419968C9143
:1044E00019978D1529F41A968C911A978E15A9F0A3
:1044F0004F5F51964F1508F4B4CF59C0FD01DE014E
:10450000119681E10D9001928150E1F7D901189641
:104510008C9118978F5F18968C93909114068091C8
:104520001706882321F48091CD058823E1F5DB016E
:10453000ED91FC9187E180838091F70581839F0154
:104540002E5F3F4FAE014F5F5F4F81E1DA010D906B
:10455000AD01D9010D929D018150C1F780911406E2
:10456000838B892F877059F4892F90E08077907022
:1045700024E0959587952A95E1F7882331F080917D
:10458000150690911606958B848B80911706868B65
:104590008091180690911906908F878B8EE196E096
:1045A0000E94710A09C0CB010E943C0A05C0E4E0E8
:1045B000EF1508F4B2CFA2CF61960FB6F894DEBF24
:1045C0000FBECDBFCF91DF911F910F91FF90EF9064
:1045D000DF90CF90BF90AF909F908F907F906F9023
:1045E0005F900895EF92FF920F931F93CF93DF9305
:1045F000182FEB0110921B068091D505823021F413
:104600008881873051F405C0833039F48881863041
:1046100021F4812F0E946127A5C08881843009F48C
:1046200051C0853030F4813009F1833009F098C0F1
:1046300010C08B3009F446C08D3021F0853009F070
:104640008FC087C089819A81612F4B810E947B1B1B
:1046500087C089819A81612F0E94661A80911A060B
:10466000813009F07DC00E948C1E7AC0193E11F085
:10467000113E41F489819A81612F4FEF5FEF0E94D3
:104680001D136EC08093CC054091E7055091E8055D
:1046900060E070E094E0440F551F661F771F9A9505
:1046A000D1F780E020E030E00EE613E1EE24FF24B5
:1046B0000E942A08882309F455C080E090E00E94F7
:1046C0006E1350C089819A810E943C0A8091CC056A
:1046D000813009F447C088818430A1F4173881F013
:1046E000E091DB05F091DC05A081B18183E28C9340
:1046F00011961C938EE196E0BF010E94710A30C0B2
:1047000082E005C0193E61F1113E51F183E08093D2
:10471000CC054091CE055091CF0560E070E084E07B
:10472000440F551F661F771F8A95D1F780E020E060
:1047300030E004E311E2EE24FF240E942A0891E015
:1047400090931B06882371F080E090E00E94342152
:1047500009C089819A810E943C0A8EEE0E94BC2782
:104760000E94DE1DDF91CF911F910F91FF90EF907E
:104770000895EF92FF920F931F931092DF0580919F
:10478000C0058823C9F480911C068823A9F488E019
:104790000E94FB12883071F082E040E850E060E057
:1047A00070E020E030E009EB13E2EE24FF240E94E9
:1047B0002A0802C00E94DE1D1F910F91FF90EF900A
:1047C0000895DF92EF92FF920F931F93CF93DF93A1
:1047D000EC01E881F981E680F78000851185E1141C
:1047E000F1040105110539F480E090E00E94B9233D
:1047F000E881F98147C08091CC058823F1F580914B
:10480000D5058823D1F50E94B91D86E00E94FB12D0
:10481000D82E81E08093DF0582E00E94190688236C
:1048200019F082E00E941E0784E0EE0CFF1C001FBE
:10483000111F8A95D1F782E0B801A70120E030E08E
:1048400009EB13E2EE24FF240E942A08882381F05A
:10485000E881F98181E2808388EE81838EE196E0B0
:10486000BE010E94710A80E090E00E94B92312C04C
:10487000E881F98186E0D81629F081E2808382EF11
:10488000818303C081E2808311828EE196E0BE01C4
:104890000E94710ADF91CF911F910F91FF90EF90CD
:1048A000DF900895BC018EE196E00E94710A80912C
:1048B000CA058093410584E061E475E00E94E51E2D
:1048C0008091DA058093400580E060E475E00E9405
:1048D000E51E1092D5050E94DE1D0895CF93DF934B
:1048E000E091E905F091EA05C081D181DE01A95688
:1048F000BF4FFA83E983882339F087E088838C935C
:104900004AE023E038E013C086E088838C93189750
:104910009D0145E955E088E0FA010190AF01F901F8
:1049200001929F018150C1F742E123E438ECFD017F
:104930008FEF9FEF929382933297918380831597A5
:104940008091D7058C938F5F8093D7053E932E93EC
:10495000FD014293FF83EE83CE0162E070E040E010
:104960000E94050F882311F080E003C081E080934E
:104970001B06DF91CF910895EF92FF920F931F9343
:10498000DF93CF930F92CDB7DEB79091D5059330DB
:1049900009F443C0943041F0923009F050C08823AC
:1049A00009F048C081E03BC0882309F043C086E09D
:1049B0000E94FB12863021F540EC53E060E070E08D
:1049C0000090420504C0440F551F661F771F0A94CC
:1049D000D2F740545C4F6F4F7F4F84E0440F551F18
:1049E000661F771F8A95D1F781E020E030E009E467
:1049F00016E2EE24FF240E942A08882301F113C046
:104A0000809140058F5F809340056091DB05709138
:104A1000DC0582E00E947F2512C0882359F40E94A1
:104A20006E24882361F481E08983CE0101960E947F
:104A3000492605C0809140058F5F809340050F9007
:104A4000CF91DF911F910F91FF90EF9008950F93F9
:104A50001F938C018091E9059091EA050E943C0A20
:104A60001092EA051092E905A091DB05B091DC05F2
:104A7000ED91FC9111978BE18083118283E0828319
:104A8000148215821682178210868EE196E0BD018F
:104A90000E94710A1092D5050E94DE1DC8010E9475
:104AA0003C0A80E561E176E00E94E51E80911606F1
:104AB000909117068F5F9F4F29F083E566E176E0BE
:104AC0000E94E51E80911306909114069093DE05D6
:104AD0008093DD058091F3059091F40594FF05C066
:104AE00084E068E176E00E94E51E80E065E176E022
:104AF0000E94E51E0E94BC241F910F910895EF9221
:104B0000FF921F93CF93DF93182F7B01FB01C0818E
:104B1000D18184E061E475E00E94E51E4091D505F5
:104B20005091CD052091400555C0423011F04430E0
:104B300031F4552321F08885853008F04EC01330BC
:104B400021F48885882309F087C0322F3F5F8C814C
:104B50009D81AE81BF81022E04C0B695A795979521
:104B600087950A94D2F781709070892B91F12093E8
:104B70004005113011F482E003C0123021F484E0CA
:104B80008093D50504C0133011F41093D50580E04F
:104B900060E475E00E94E51E182F8823B1F0809133
:104BA000E9059091EA050E943C0A1092EA051092EC
:104BB000E9050E94DE1D8AEE898318868EE196E063
:104BC000B7010E94710A1092D505812F0E94BC2462
:104BD0005AC0232F2B3108F4A8CF20934005123060
:104BE00041F11330D9F1113009F04DC08091E90540
:104BF0009091EA050E943C0A1092EA051092E9059C
:104C00008091CD05882339F08885853010F08AEFB2
:104C100005C0882311F0198202C08AEE898380E5DD
:104C200060EE75E00E94E51E8091DB059091DC0549
:104C300028C0552339F08885853010F08AEF05C0EB
:104C4000882311F0198202C08AEE898380E560EE24
:104C500075E00E94E51E14C0209340058091E9058F
:104C60009091EA050E943C0A1092EA051092E9052B
:104C70008885882311F0198202C08AEE89831886FC
:104C8000C7010E945224DF91CF911F91FF90EF90B6
:104C90000895CF93DF93C091DB05D091DC05988117
:104CA00029818091D5058250833020F5E92FF22F9C
:104CB00021E030E040E050E00090400504C0220FC9
:104CC000331F441F551F0A94D2F720953095409505
:104CD000509584819581A681B78182239323A42353
:104CE000B52384839583A683B78380913B05BE015A
:104CF0000E947F25DF91CF910895CF92DF92EF92AE
:104D0000FF920F931F93DF93CF9300D0CDB7DEB701
:104D1000D82EC92E082F192FD801ED91FC91809122
:104D2000AD058093DA0580919F058093CA05868141
:104D300080934205818180933B0582819381A48188
:104D4000B58180933C0590933D05A0933E05B093BB
:104D50003F05278120934105D092DB05C092DC05F9
:104D60008BE1808380913B05828380913C0590910B
:104D70003D05A0913E05B0913F0584839583A683B0
:104D8000B7832383108611868091CC05882341F454
:104D90008091D505882321F480913B05882341F437
:104DA00088EE81838EE196E0B8010E94710A7EC090
:104DB0000E94B91DF801E080F1808BE080934005EE
:104DC00080913B05813008F466C0833020F0833049
:104DD00009F061C04BC08FEF9FEF9A838983809168
:104DE000A0059091A1059093E1058093E00580E5F1
:104DF000BE016F5F7F4F0E94E51E80913B058130B1
:104E000021F4D092E905C092EA058AE90E94440A99
:104E10009093DC058093DB050097E9F180913B05D9
:104E2000823019F4C8010E943C0A2091DB053091C0
:104E3000DC05D901ED91FC918BE1808380913B05EC
:104E4000828380914105838380913C0590913D054B
:104E5000A0913E05B0913F0584839583A683B783D7
:104E60001086118680913B05B90112C08AE90E9423
:104E7000440A9093EA058093E905009721F488EEAF
:104E8000F70181830CC06091DB057091DC0583E044
:104E90000E947F250BC088EED70111968C938EE17E
:104EA00096E0B8010E94710A0E94DE1D0F900F90DB
:104EB000CF91DF911F910F91FF90EF90DF90CF90F6
:104EC0000895EF92FF920F931F93DF93CF930F926A
:104ED000CDB7DEB79091D7059F5F9093D705882314
:104EE000B1F58091D505823091F440EC53E060E05B
:104EF00070E00090420504C0440F551F661F771FE5
:104F00000A94D2F740545C4F6F4F7F4F07C0809197
:104F1000E7059091E805AC0160E070E094E0440F93
:104F2000551F661F771F9A95D1F781E020E030E08A
:104F300009E416E2EE24FF240E942A088823A1F047
:104F400081E08983CE0101960E9449260DC080919F
:104F500040058F5F809340056091DB057091DC0513
:104F600080913B050E947F250F90CF91DF911F918B
:104F70000F91FF90EF90089527E435E030934405BA
:104F8000209343059DE190934705809348058091C8
:104F9000D505882379F08091E0059091E105909303
:104FA0004A05809349058091DA0580934B058091ED
:104FB000CA050EC08091A0059091A10590934A0565
:104FC000809349058091AD0580934B0580919F05A5
:104FD00080934C058EE196E063E475E00E94710ACF
:104FE00080911A06823050F48091D505882331F4DF
:104FF0008091CC05882311F40E94DE1D1092D60505
:1050000008950F931F938C018FEE0E94BC27C80157
:105010000E943C0A80E561E176E00E94E51E8091F5
:105020001606909117068F5F9F4F29F083E566E182
:1050300076E00E94E51E80911306909114069093ED
:10504000DE058093DD058091F3059091F40594FFD2
:1050500005C084E068E176E00E94E51E80E065E13D
:1050600076E00E94E51E1F910F910895CF93DF9384
:10507000EC018AE90E94440ADC01009711F480E007
:1050800018C0ED91FC9111978EE080838881818317
:1050900089819A81938382833496239688E009904C
:1050A00001928150E1F780ED95E0BD010E94710A07
:1050B00081E0DF91CF910895BF92CF92DF92EF927E
:1050C000FF920F931F93182F6A017B01B22E8AE97A
:1050D0000E94440ADC01009711F480E012C0ED91B7
:1050E000FC9111978BE080831183C282D382E4828A
:1050F000F582B682078380ED95E0BD010E94710ABA
:1051000081E01F910F91FF90EF90DF90CF90BF90C3
:1051100008957F928F929F92AF92BF92CF92DF922B
:10512000EF92FF920F931F93782E6A017B01480143
:1051300059018AE90E94440ADC01009711F480E0D9
:1051400014C0ED91FC9111978AE080837182C28234
:10515000D382E482F58286829782A086B18680ED32
:1051600095E0BD010E94710A81E01F910F91FF90AF
:10517000EF90DF90CF90BF90AF909F908F907F90F7
:1051800008951F93182F8AE90E94440ADC010097B2
:1051900011F480E00CC0ED91FC91119788E08083C0
:1051A000118380ED95E0BD010E94710A81E01F919D
:1051B00008951F93182F8AE90E94440ADC01009782
:1051C00011F480E00CC0ED91FC91119789E080838F
:1051D000118380ED95E0BD010E94710A81E01F916D
:1051E00008950F931F93CF93DF93EC01162F042F95
:1051F0008AE90E94440A9C01009711F480E01FC0D4
:10520000DC01ED91FC9185E08083148788818183A6
:1052100089819A8193838283AF014C5F5F4FDE0166
:10522000139688E00D90EA010992AE018150D1F702
:10523000058780ED95E0B9010E94710A81E0DF9158
:10524000CF911F910F910895FF920F931F93CF93CA
:10525000DF93182FF62EEA01022F8AE90E94440AF2
:105260009C01009711F480E020C0DC01ED91FC91DD
:1052700081E0808311838881838389819A819583EA
:105280008483AF014A5F5F4FDE01139688E00D9083
:10529000EA010992AE018150D1F70687F28280EDD2
:1052A00095E0B9010E94710A81E0DF91CF911F91D1
:1052B0000F91FF900895AF92BF92CF92DF92EF923D
:1052C000FF920F931F93CF93DF93D82EEB01F42E11
:1052D000B22EA32EC02E86E7841708F445C08AE9B3
:1052E0000E94440A8C01009709F43EC0DC01ED9154
:1052F000FC9183E08083D1822881228389819A81F5
:1053000094838383CF010596AE014D5F5F4F2230BA
:1053100069F415821682178210861186128613860A
:1053200014868B819C819683858307C0EC01DA010A
:1053300088E00D9009928150E1F7C586E686F786F0
:1053400028E930E02F1931092E0F3F1FC9016B2DBD
:105350007A2D4F2D50E00E94B32A80ED95E0B801E0
:105360000E94710A81E001C080E0DF91CF911F911E
:105370000F91FF90EF90DF90CF90BF90AF90089586
:10538000FF920F931F93CF93DF93182F062FF72EC3
:105390008AE90E94440AEC01009711F480E016C0EB
:1053A000812F0E94CB1E482FE881F98186E08083FF
:1053B00011833296CF01602F7F2D50E00E94B32AD7
:1053C00080ED95E0BE010E94710A81E0DF91CF91EE
:1053D0001F910F91FF9008951F930E94531B182F48
:1053E0008EE196E060E070E00E94060B009719F0F5
:1053F0000E943C1B11E00E948A0D0E945D05812FD6
:105400001F9108958EE196E00E946A0A0E94B21EE2
:1054100008950895089508950895089508950895A4
:1054200008950895AA1BBB1B51E107C0AA1FBB1F0B
:10543000A617B70710F0A61BB70B881F991F5A9520
:10544000A9F780959095BC01CD010895A1E21A2E8F
:10545000AA1BBB1BFD010DC0AA1FBB1FEE1FFF1F18
:10546000A217B307E407F50720F0A21BB30BE40B68
:10547000F50B661F771F881F991F1A9469F76095AF
:105480007095809590959B01AC01BD01CF01089569
:10549000AF92BF92CF92DF92EF92FF920F931F9342
:1054A000CF93DF93EC01A880B980CA80DB80A11480
:1054B000B104C104D10441F484E2A82E89EDB82ED0
:1054C0008BE5C82E87E0D82EC601B5012DE133EF5C
:1054D00041E050E00E94832F27EA31E440E050E0B1
:1054E0000E94642F7B018C01C601B5012DE133EFD1
:1054F00041E050E00E94832FCA01B9012CEE34EF45
:105500004FEF5FEF0E94642F6E0D7F1D801F911F74
:1055100097FF04C061507040804090486883798351
:105520008A839B839B013F77C901DF91CF911F91B4
:105530000F91FF90EF90DF90CF90BF90AF900895C4
:105540000E94482A089589E992E00E94482A089515
:10555000A0E0B0E08093990290939A02A0939B02FE
:10556000B0939C020895FB01DC0102C001900D92F2
:1055700041505040D8F708950F931F93CF93DF9376
:105580008C01EB01009731F46115710519F420E0ED
:1055900030E038C081E090E06EE070E00E949C2D29
:1055A000FC019C01009771F180E88383209771F0E2
:1055B000D387C28781E88383809123069091240654
:1055C000892B21F4F0932406E0932306011511059D
:1055D000C9F01187008783818260838380912506CB
:1055E00090912606892B71F4F0932606E093250608
:1055F0008091270690912806892B21F4F0932806A4
:10560000E0932706C901DF91CF911F910F91089573
:10561000DF93CF93CDB7DEB7FE01359661917191DF
:105620008091250690912606AF010E94802BCF9194
:10563000DF9108950F931F93CF93DF938C01E09137
:105640002506F0912606838181FF21C0C0E0D0E0CD
:105650000DC0E0912506F091260620853185BF0119
:10566000F9010995892B11F0CFEFDFEFF801819156
:105670008F01882371F7E0912506F0912606208599
:1056800031858AE0BF01F9010995892B11F0CFEF2F
:10569000DFEFCE01DF91CF911F910F9108950F930E
:1056A0001F93DF93CF93CDB7DEB72E970FB6F89445
:1056B000DEBF0FBECDBF0D891E8986E08C831A83A5
:1056C00009838FEF9FE79E838D839E01275E3F4F67
:1056D000CE0101966F89788DA9010E94802B2F81C0
:1056E0003885020F131FF80110822E960FB6F8941A
:1056F000DEBF0FBECDBFCF91DF911F910F910895F7
:105700002F923F924F925F926F927F928F929F92D1
:10571000AF92BF92CF92DF92EF92FF920F931F93BF
:10572000DF93CF93CDB7DEB72B970FB6F894DEBFDC
:105730000FBECDBF3C012B015A01FC01178216821E
:10574000838181FD03C06FEF7FEFC6C19AE0892E90
:105750001E010894211C311CF3012381F20123FD59
:10576000859123FF81912F01882309F4B2C18532ED
:1057700039F423FD859123FF81912F01853229F48E
:1057800090E0B3010E94DA2EE7CF982FFF24EE2499
:105790009924FFE1FF15D0F09B3269F09C3228F488
:1057A000903259F0933291F40EC09D3249F090330B
:1057B00069F441E024C052E0F52A84E0F82A28C0C8
:1057C00098E0F92A25C0E0E1FE2A22C0F7FC29C0B2
:1057D000892F80538A3070F4F6FE05C0989C902C77
:1057E0001124980E15C0E89CE02C1124E80EF0E27C
:1057F000FF2A0EC09E3229F4F6FC6BC140E4F42A65
:1058000007C09C3619F450E8F52A02C0983649F4CE
:10581000F20123FD959123FF91912F01992309F026
:10582000B8CF892F8554833018F08052833038F4F4
:1058300044E050E0A40EB51E5FE359830FC09336D9
:1058400031F0933779F0933509F056C020C0F50157
:105850008081898342E050E0A40EB51E610101E021
:1058600010E012C0F501C080D180F6FC03C06FEFDC
:105870007FEF02C0692D70E042E050E0A40EB51E3B
:10588000C6010E94CF2E8C015FE7F52214C0F501FE
:10589000C080D180F6FC03C06FEF7FEF02C0692D9E
:1058A00070E042E050E0A40EB51EC6010E94BD2E7D
:1058B0008C0150E8F52AF3FE07C01AC080E290E0A0
:1058C000B3010E94DA2EEA948E2D90E00817190792
:1058D000A8F30EC0F601F7FC8591F7FE81916F01E8
:1058E00090E0B3010E94DA2EE110EA9401501040DA
:1058F0000115110579F7EAC0943611F0993669F56A
:10590000F7FE08C0F501208131814281538184E096
:1059100090E00AC0F501808191819C01442737FD08
:105920004095542F82E090E0A80EB91E9FE6F92220
:1059300057FF09C050954095309521953F4F4F4FE7
:105940005F4FE0E8FE2ACA01B901A1012AE030E078
:105950000E94062FD82ED21840C0953729F41F2D4B
:105960001F7E2AE030E01DC01F2D197F9F3661F099
:10597000903720F4983509F0ACC00FC0903739F05B
:10598000983709F0A6C004C028E030E00AC01061D2
:1059900014FD146020E130E004C014FD166020E125
:1059A00032E017FF08C0F501608171818281938127
:1059B00044E050E008C0F50180819181BC0180E0A5
:1059C00090E042E050E0A40EB51EA1010E94062F17
:1059D000D82ED2188FE7F82EF122F6FE0BC05EEF1C
:1059E000F522D91438F4F4FE07C0F2FC05C08FEE9E
:1059F000F82202C01D2D01C0192DF4FE0DC0FE01BC
:105A0000ED0DF11D8081803319F499EEF92208C063
:105A10001F5FF2FE05C003C08F2D867809F01F5F5F
:105A20000F2DF3FC14C0F0FE0FC01E1510F09D2CBE
:105A30000BC09D2C9E0C911A1E2D06C080E290E09A
:105A4000B3010E94DA2E1F5F1E15C0F304C01E159D
:105A500010F4E11A01C0EE2404FF0FC080E390E0CF
:105A6000B3010E94DA2E02FF1DC001FD03C088E7CA
:105A700090E00EC088E590E00BC0802F867891F012
:105A800001FF02C08BE201C080E2F7FC8DE290E0F2
:105A9000B3010E94DA2E06C080E390E0B3010E94B9
:105AA000DA2E9A94D914C0F3DA94F101ED0DF11DB8
:105AB000808190E0B3010E94DA2EDD20A9F706C0B4
:105AC00080E290E0B3010E94DA2EEA94EE20C1F762
:105AD00043CEF30166817781CB012B960FB6F89404
