:100000000C94A7000C9429030C94C6000C94C60011
:100010000C94C6000C94C6000C94C6000C94C60048
:100020000C94C6000C94C6000C94C6000C94C60038
:100030000C94C6000C94C6000C94C6000C94C60028
:100040000C9454030C9472070C94C6000C94C600D4
:100050000C9441070C94C6000C94C6000C94C60086
:100060000C94C6000C94C6000C94C6000C94C600F8
:100070000C94C6000C94C6000C94C6000C94C600E8
:100080000C94C6000C94C6000C94C6000C94C600D8
:100090000C94C6000C94C6000C94C6000C94C600C8
:1000A0000C94C6000C94C6000C94C6000C94C600B8
:1000B0000C94C6000C94C6000C94C6000C94C600A8
:1000C0000C94C6000C94C6000C94C60003020201F6
:1000D000010000FFFEFDFCFBF9F7F4EF5D1975145C
:1000E000EF1336225E20F81E9327F2246025722437
:1000F000342BBD2D00002E2FF827000013182318D5
:100100000318D917F21719173217BB170000000090
:10011000F116A2166B17771607179216D316C41688
:100120008316E2160104010101020101010101012E
:1001300001010101040108020101010102010102A2
:100140000102010102010202010101010800112462
:100150001FBECFEFD1E2DEBFCDBF12E0A0E0B2E024
:10016000ECE2F9E600E00BBF02C007900D92A4306C
:10017000B107D9F717E0A4E0B2E001C01D92AE309C
:10018000B107E1F70E94FC020C9494340C94000037
:10019000089582E090E061E070E00E94A208089576
:1001A000EF92FF920F931F93662399F482E090E001
:1001B00060E070E00E94A20885E040E251EA67E05A
:1001C00070E020E030E009EC10E0EE24FF240E9413
:1001D00017061F910F91FF90EF900895EF92FF92F5
:1001E0000F931F9382E090E060E070E00E94A2080D
:1001F00085E040E251EA67E070E020E030E009ECA1
:1002000010E0EE24FF240E9417061F910F91FF902B
:10021000EF900895EF92FF920F931F9381E090E08B
:1002200062E070E00E94A20885E040E251EA67E0E7
:1002300070E020E030E00AE011E0EE24FF240E94AC
:1002400017061F910F91FF90EF900895EF92FF9284
:100250000F931F936623B9F485E00E94080581E09F
:1002600090E060E070E00E94A20884E040E854E87A
:100270006EE170E020E030E00BE511E0EE24FF24B9
:100280000E94170603C081E00E94CF311F910F9199
:10029000FF90EF900895882351F485E00E940805AF
:1002A00081E090E060E070E00E94A208089581E0A3
:1002B0000E94CF310895EF92FF920F931F93DF9327
:1002C000CF93CDB7DEB72C970FB6F894DEBF0FBE35
:1002D000CDBF82E08A838EEB9AEB9C838B838091E7
:1002E0000502909106029E838D830E9409348983C2
:1002F000009104020F5F0093040282E0BE016E5F72
:100300007F4F41E09E012F5F3F4FEE24E3940E9418
:10031000E33284E040E854E86EE170E020E030E051
:100320000BE511E0EE24FF240E9417062C960FB671
:10033000F894DEBF0FBECDBFCF91DF911F910F911B
:10034000FF90EF900895EF92FF920F931F937C011F
:10035000E0911002F0911102309709F180911202A0
:100360008217E9F4809113028317C9F48091140273
:100370008417A9F480911502851789F480911602DB
:10038000861769F480911702871749F48091180243
:100390008E1529F4809119028F1509F45DC0009122
:1003A0001A0210911B020115110501F180911C0226
:1003B0008217E1F480911D028317C1F480911E021F
:1003C0008417A1F480911F02851781F48091200287
:1003D000861761F480912102871741F480912202EF
:1003E0008E1521F4809123028F15B9F1EF2B19F4AA
:1003F000A0E0B0E004C0012B49F5A1E0B0E08D0120
:100400000F5F1F4FFD01EE0FFF1FCD01880F991FDA
:10041000880F991F880F991FE80FF91FE05FFD4FA4
:1004200011830083FD01EE0FFF1FEE0FFF1FEA0F88
:10043000FB1FEE0FFF1FEE5EFD4F208331834283D3
:10044000538364837583E682F78207C0C7010FEF89
:100450001FEFEE24E39403C08F01C701EE240E9436
:1004600057321F910F91FF90EF900895AF92CF9266
:10047000EF920F93DF93CF930F92CDB7DEB7882320
:1004800001F5633521F481E0898381E405C061349D
:1004900049F481E0898382E5BE016F5F7F4F0E944E
:1004A000483312C0623569F48EEB9AEB64E140E0A8
:1004B0002FE00FE0EE24E394CC24AA240E941F3105
:1004C00003C081E00E94CF310F90CF91DF910F9157
:1004D000EF90CF90AF900895CF92DF92EF920F936D
:1004E000DF93CF9300D0CDB7DEB740910F024F5FBF
:1004F00040930F028823C1F5F60120E032C08385C6
:10050000843169F58485882351F5818192818E5BE0
:100510009A4B29F58585968597FF21C08081823089
:1005200039F483819481909306028093050210C070
:10053000833089F527E032E0AF014D5F5F4F88E0FF
:10054000DA010D90AD01D9010D929D018150C1F7E5
:1005500083856485AF0120E80E9494321FC07196A4
:100560002F5F2E1560F202C08A3EA9F4433050F48A
:1005700081E040E058EF6FEF77E024E000E00E9478
:1005800052310CC019821A8283E5BE016F5F7F4F22
:100590000E94483303C081E00E94CF310F900F903A
:1005A000CF91DF910F91EF90DF90CF900895EF9270
:1005B000FF920F931F938823B9F481E040E058EF36
:1005C0006FEF77E024E000E00E94523185E040E2E6
:1005D00051EA67E070E020E030E00AE011E0EE244C
:1005E000FF240E94170603C081E00E94CF311F91B3
:1005F0000F91FF90EF9008950E948A33882311F0A5
:100600000E945E030E949E0880E090E060E070E03F
:100610000E94A20881E090E061E070E00E94A208E0
:1006200082E090E061E070E00E94A208789481E0AE
:100630000E94CF310E947433FDCF909325028093A6
:100640002402E9E6F0E080818360808381E08CBB56
:1006500008951F920F920FB60F920BB60F921124AE
:100660002F933F934F935F936F937F938F939F93BA
:10067000AF93BF93EF93FF93E0912402F091250293
:100680000995FF91EF91BF91AF919F918F917F91CC
:100690006F915F914F913F912F910F900BBE0F90F3
:1006A0000FBE0F901F9018951F920F920FB60F92CA
:1006B00011240F900FBE0F901F9018951EB88FEF4A
:1006C0008DB98FEF9FEF0E9413048EB180958EB984
:1006D000F8CFCF92DF92EF92FF920F931F93CF93B9
:1006E000DF938C017B016A01CB01800F911F815048
:1006F000904110F085E816C0C0E0D0E00FC0C801FE
:100700000E942234F601EC0FFD1F6081861719F05C
:10071000C8010E942A340F5F1F4F2196CE15DF05B6
:1007200070F380E0DF91CF911F910F91FF90EF90D8
:10073000DF90CF900895CF92DF92EF92FF920F93C8
:100740001F93CF93DF938B017A016901813091056B
:1007500031F4862F642FA9010E9428081DC0892B1F
:1007600011F088EE19C0CA01860F971F8150904181
:1007700010F085E811C0C0E0D0E00AC0CE01800FC3
:10078000911F0E942234F601EC0FFD1F80832196F9
:10079000CE15DF0598F380E0DF91CF911F910F9187
:1007A000FF90EF90DF90CF9008950E94DE050895AE
:1007B00080E090E020E80FB6F894209361008093E9
:1007C00061000FBE0E9412080E941B090E9485074B
:1007D00080E00895892B11F482E401C087E48093BE
:1007E00081000895FC0120910C0630910D06C9018D
:1007F000A0E0B0E0BC01552744278091840090918F
:100800008500A0E0B0E0482B592B6A2B7B2B809110
:100810000C0690910D062817390729F7408351835C
:100820006283738308954FB7F8948630910518F169
:100830002091840030918500280F391F8091840019
:10084000909185008217930740F4809184009091E5
:10085000850082179307C8F30EC0809184009091A1
:10086000850028173907C8F380918400909185008E
:1008700082179307C8F34FBF089520E090E0FC0172
:1008800053E0EE0FFF1F5A95E1F7E80FF91FE25F03
:10089000F94F84819581892B09F021E0822F0895F9
:1008A000DF92EF92FF920F931F93DFB6F89480913F
:1008B00028028F3F09F453C090E0FC01A3E0EE0F43
:1008C000FF1FAA95E1F7E80FF91FE25FF94FE080FB
:1008D000F1800281138120910C0630910D06C80130
:1008E000AA27BB272817390751F4F0928900E09214
:1008F000880082E086BB80916F00826003C0809197
:100900006F008D7F80936F0060910C0670910D06D3
:100910009B0140E050E08091840090918500A90106
:1009200033272227A0E0B0E0282B392B4A2B5B2B62
:1009300080910C0690910D066817790729F72E19FA
:100940003F09400B510B2F5F3F4F4F4F5F4F2F5FC2
:100950003F4F4F4F5F4718F481E080932702DFBE7F
:100960001F910F91FF90EF90DF90089580912702E3
:10097000882309F44CC010922702309126023323B9
:1009800009F445C0809129028F3F59F480912A02D1
:100990008F3F39F48091280280932A0280932902A4
:1009A00012C02091280280912A0290E0FC0143E0CD
:1009B000EE0FFF1F4A95E1F7E80FF91FE25FF94FCD
:1009C000208720932A028091280290E0FC0123E0F6
:1009D000EE0FFF1F2A95E1F7E80FF91FE25FF94FCD
:1009E00080858093280280912A0290E0FC01B3E088
:1009F000EE0FFF1FBA95E1F7E80FF91FE25FF94F1D
:100A00008FEF80873150309326020E945004089562
:100A1000FF920F931F93182F863010F08AE8C5C0FD
:100A2000FFB6F8940E94B60400912602002309F450
:100A3000C0C040912802242F302F842F1217F1F5C7
:100A4000212F30E0141781F4F90163E0EE0FFF1F4E
:100A50006A95E1F7E20FF31FE25FF94F808580931B
:100A600028020E94500418C090E0DC0153E0AA0F55
:100A7000BB1F5A95E1F7A80FB91FA25FB94FF90143
:100A800043E0EE0FFF1F4A95E1F7E20FF31FE25F2D
:100A9000F94F808518968C93812F90E0FC0123E01C
:100AA000EE0FFF1F2A95E1F7E80FF91FE25FF94FFC
:100AB0008FEF808701500093260262C0822F90E062
:100AC000FC01B3E0EE0FFF1FBA95E1F7E80FF91F45
:100AD000E25FF94F50853150822F09F46AC0252F0B
:100AE000ADCF1217D1F520912A021317B1F41217C6
:100AF00021F48FEF80932A020DC0812F90E0FC013A
:100B0000A3E0EE0FFF1FAA95E1F7E80FF91FE25FE0
:100B1000F94F80858093290233C0842F90E0DC0157
:100B2000E3E0AA0FBB1FEA95E1F7A80FB91FA25F88
:100B3000B94F812F90E0FC0173E0EE0FFF1F7A9513
:100B4000E1F7E80FF91FE25FF94F808518968C9363
:100B50001217B1F440932A0213C0822F90E0FC01D7
:100B600063E0EE0FFF1F6A95E1F7E80FF91FE25F00
:100B7000F94F422F20852F3F09F0B3CF80E00FC0FF
:100B8000812F90E0FC0153E0EE0FFF1F5A95E1F733
:100B9000E80FF91FE25FF94F1582148281E0FFBE72
:100BA000882311F489E801C080E01F910F91FF9024
:100BB000089530912902232F432FDDCF1F931FB7B4
:100BC000F8940E94B6041FBF1FEF25C06FB7F894BA
:100BD000822F90E0FC0173E0EE0FFF1F7A95E1F7A2
:100BE000E80FF91FE25FF94F208544815581868126
:100BF0009781108715821482178216822F3F09F47D
:100C00003FEF6FBF4115510551F030932A022093F9
:100C10002902FA01099530912A02209129022F3FD9
:100C2000A9F630932A02209329021F9108952F924A
:100C30003F924F925F927F928F929F92AF92BF921C
:100C4000CF92DF92EF92FF920F931F93CF93DF9398
:100C5000782E5A016B01490195E0292E281610F4CF
:100C60008AE8E2C00115110509F4DBC0C82FD0E005
:100C7000FE0183E0EE0FFF1F8A95E1F7EC0FFD1FE9
:100C8000E25FF94F84819581892B11F088E8CCC00F
:100C900060910C0670910D069B0140E050E0809140
:100CA000840090918500A90133272227A0E0B0E0BD
:100CB000282B392B4A2B5B2B80910C0690910D062B
:100CC0006817790729F78114910431F061E08616DD
:100CD000910409F0A6C011C0D601C501805890400A
:100CE000A040B04080589F4FAF4FBF4708F09BC017
:100CF000A20EB31EC41ED51E10C0D601C501805859
:100D00009040A040B040821B930BA40BB50B8058C1
:100D10009F4FAF4FBF4708F086C09FB6F8940E9420
:100D2000B604509128025F3F31F060912602452FB2
:100D3000252F30E054C070922802FE01A3E0EE0F90
:100D4000FF1FAA95E1F7EC0FFD1FE25FF94F5087F7
:100D500031C02F3F09F43EC0822F90E0FC0173E0C8
:100D6000EE0FFF1F7A95E1F7E80FF91FE25FF94FE9
:100D700080819181A281B38115012601281A390A47
:100D80004A0A5B0AD201C1018F5F9F4FAF4FBF4735
:100D900010F4808521C0FE0133E0EE0FFF1F3A956D
:100DA000E1F7EC0FFD1FE25FF94F2087521721F4A6
:100DB0007092280291E017C0842F90E0FC0123E09C
:100DC000EE0FFF1F2A95E1F7E80FF91FE25FF94FD9
:100DD000708655C08FEF242F3F5F422F282F361784
:100DE00008F4B7CF33C0FE0183E0EE0FFF1F8A95F2
:100DF000E1F7EC0FFD1FE25FF94FA082B182C282E2
:100E0000D38215830483F782E682809126028F5F66
:100E100080932602992311F00E9450049FBE80E027
:100E200003C088EE01C08BE8DF91CF911F910F9135
:100E3000FF90EF90DF90CF90BF90AF909F908F90FA
:100E40007F905F904F903F902F900895842F90E077
:100E5000FC01B3E0EE0FFF1FBA95E1F7E80FF91FB1
:100E6000E25FF94F7086FE01A3E0EE0FFF1FAA9527
:100E7000E1F7EC0FFD1FE25FF94F8FEF808790E005
:100E8000B2CF1F920F920FB60F920BB60F92112492
:100E90002F933F934F935F936F937F938F939F9382
:100EA000AF93BF93EF93FF9380910C0690910D0643
:100EB000019690930D0680930C060E945004FF91BA
:100EC000EF91BF91AF919F918F917F916F915F91C2
:100ED0004F913F912F910F900BBE0F900FBE0F902F
:100EE0001F9018951F920F920FB60F9211248F9397
:100EF00080912602882319F081E0809327028F9148
:100F00000F900FBE0F901F9018951092260210920E
:100F1000270210920D0610920C068FEF8093280284
:100F20008093290280932A02E2E1F6E08483118211
:100F30001082399696E0E834F907C1F70E94190843
:100F400008950895CF92DF92EF92FF920F931F932F
:100F5000DFB6F894E090B100F0908100009180003D
:100F60001092B1001092810010928000E0E06FEFCB
:100F70007FEF40E050E01FEFF1E080E2C82EA4E2F6
:100F8000B4EF16BB17BB1092B200109285001092FE
:100F90008400F0938100F093B100C092B600B89B3A
:100FA000FECF109281001092B10020918400309108
:100FB00085002115310511F480E024C084EF25322D
:100FC000380720F4CD01821B930B03C0C901845262
:100FD000944F8617970718F4E0916600BC012552DC
:100FE000344F20F4809166008F5F03C080916600CB
:100FF0008150809366004F5F5F4F4436510509F082
:10100000C0CF81E0E092B100F092810000938000B7
:10101000DFBEE09366001F910F91FF90EF90DF908D
:10102000CF900895209A219A259A229A249A23985B
:10103000089582E48093810082E086BB84E086BBD1
:1010400088E086BBEFE6F0E08081816080830895D0
:101050001F93DF93CF93CDB7DEB7C054D0400FB608
:10106000F894DEBF0FBECDBF182FFE0131967E2F44
:10107000A3E09E01205C3F4F8E2F871B9DB3E89815
:101080002D982898000000000000000000000000DB
:1010900000000000AEBD0DB407FEFDCF8F778EBD02
:1010A0000DB407FEFDCF1EBC0DB407FEFDCF8EB5FF
:1010B000289A2D9A9DBB8083E217F30711F0319691
:1010C000DBCFFE01319620E030E0DE01AF5BBF4FA9
:1010D00081912827022E2295207F2025032E322F52
:1010E00022952F700226269532272327220F220FC2
:1010F000220F2025EA17FB0759F7232B11F085E86B
:1011000012C0DE011196A10FB11D9A01AD0106C0FA
:10111000FA018191AF01F90181939F01842F8A1B0C
:101120008617B0F380E0C05CDF4F0FB6F894DEBFE7
:101130000FBECDBFCF91DF911F9108958FEF8EB974
:101140008DB9089584309105E9F08530910548F412
:101150008230910599F08330910590F4019761F404
:1011600009C08630910591F08630910568F00797A7
:1011700019F40EC031E00DC030E00BC032E009C000
:1011800033E007C034E005C035E003C036E001C0FD
:1011900037E06115710501F16130710541F48EB1DF
:1011A00002C0660F771F3A95E2F7862B1FC08EB1FB
:1011B00090E0032E02C0959587950A94E2F780FD92
:1011C0000BC02EB181E090E002C0880F991F3A95C4
:1011D000E2F7282B2EB908952EB181E090E002C0ED
:1011E000880F991F3A95E2F7809582238EB908956A
:1011F000889A899A8A9A8B9A8098819882988398FB
:1012000008958230910549F08330910541F00197AE
:1012100011F481E005C080E003C082E001C083E0FA
:101220002FB130E002C0359527958A95E2F72170FD
:101230003070C901089580E58CBD81E08DBD8CB50D
:101240008C7F8CBD289A08959DB3E898806C28986F
:101250008EBD0DB407FEFDCF6EBD0DB407FEFDCFF4
:10126000289A9DBB08959DB3E898806828988EBD04
:101270000DB407FEFDCF1EBC0DB407FEFDCF8EB52D
:10128000289A9DBB0895FC01289880E28EBD0DB47C
:1012900007FEFDCF1EBC613089F0DF01262F0DB4A3
:1012A00007FEFDCF8EB51EBC8D9321502230B8F7BE
:1012B0006250862F90E00196E80FF91F0DB407FEEB
:1012C000FDCF8EB58083289A0895FC01289880E68A
:1012D0008EBD0DB407FEFDCF819161500DB407FEA8
:1012E000FDCF8EBD6623C1F70DB407FEFDCF289A52
:1012F0000895FF920F931F93062FF42E0E94330937
:10130000082310E002C015950795FA94E2F7802FA4
:101310001F910F91FF900895DF92EF92FF920F932C
:101320001F93D82EF62EE42E022F0E94330910E0D0
:1013300002C0000F111FEA94E2F76F2D6023F094B2
:10134000F8226F298D2D0E9424091F910F91FF9083
:10135000EF90DF900895BC01009721F08FED95E0AC
:101360000E94E00908958FED95E060E070E00E9432
:10137000750A08950F931F93CF93DF938FED95E038
:101380000E94D909C7ECD5E00BE212E0198308836B
:101390008FED95E0BE010E94E009249606561F4F8E
:1013A00085E0CF3DD80791F7DF91CF911F910F9145
:1013B0000895FC0111821082138212821482089512
:1013C000CF93DF93DC01EB019FB7F89414968C91D7
:1013D0001497882321F411967C936E9306C012967D
:1013E000ED91FC911397738362831396DC93CE93F4
:1013F00012971B821A8214968C9114978F5F149601
:101400008C939FBFDF91CF9108959F92AF92BF922F
:10141000CF92DF92EF92FF920F931F93CF93DF93C0
:101420008C015B016A019FB6F894DC0114968C91E3
:10143000882319F4C0E0D0E04AC0F801C081D1810E
:1014400041155105B1F07E0111C0D60112966D9182
:101450007C911397ED91FC9188819981099588235E
:1014600059F47E018A819B819C01E901209769F7EB
:101470002EC0209761F17E01AB2849F5F8018081EB
:1014800091812A813B81C817D90719F431832083C0
:1014900005C0D70113963C932E931297F8018281D1
:1014A0009381C817D90711F4F382E282D801149608
:1014B0008C911497815014968C9314978D919C91D4
:1014C0001197892B21F413961C921E9212979FBE9E
:1014D000CE01DF91CF911F910F91FF90EF90DF90A0
:1014E000CF90BF90AF909F900895AB0160E070E007
:1014F0000E94050A0895AB0161E070E00E94050AB0
:101500000895CF93DF93EC010BC0CE0160E070E053
:101510000E94750A009711F41C8205C00E94AB0955
:101520008C81882391F7DF91CF9108950F931F93BA
:10153000DF93CF93CDB7DEB728970FB6F894DEBF11
:101540000FBECDBF81E06FE140E00E947909883095
:1015500039F58FE00E94330982E069E00E94240996
:10156000CE0101960E94F2038E010B5F1F4F8FE0A8
:101570000E94330980FD14C0C8010E94F2038D81CE
:101580009E81AF81B88529813A814B815C81821B24
:10159000930BA40BB50B8D3D9105A105B10538F357
:1015A00028960FB6F894DEBF0FBECDBFCF91DF9166
:1015B0001F910F9108950F931F93082F8091640638
:1015C0008F30B1F42C9881E06FE140E00E947909FE
:1015D0008830C9F78DE064E042E021E00E948C0988
:1015E000083011F0033021F488E0809364065EC176
:1015F00081E06FE140E00E94790980936406083041
:1016000009F443C0093050F4043009F478C00630BE
:1016100009F482C0033009F040C147C00F3069F0BF
:10162000003120F4093009F038C14FC0063109F407
:101630009CC0093109F031C1E4C082E063E00E943E
:1016400024098DE064E042E020E00E948C090E94C1
:101650000934682F192F8DE20E9424098EE267E079
:1016600040E0212F0E948C090000000000000000D3
:1016700000000000000000002C9A83E290E00E942D
:101680001304009364068FE011C1883009F405C18A
:1016900082E068E00E9424090000000000000000D1
:1016A0000000000000000000F8C0883009F4F5C018
:1016B00082E063E00E9424090000000000000000B6
:1016C0000000000000000000E8C08830E9F0893028
:1016D00020F4863009F0E1C005C0863119F0893167
:1016E00009F0DBC082E069E00E94240900000000EC
:1016F000000000000000000000000000CEC08830A4
:1017000019F0893021F4C9C00E94960AC6C082E04F
:1017100064E00E942409C1C0893059F08A3020F465
:10172000883009F0BAC012C0863119F0893109F049
:10173000B4C082E066E00E942409000000000000BE
:1017400000000000000000000000A7C00E94960AF0
:1017500082E066E00E942409000000000000000012
:10176000000000000000000098C08830C1F08930FF
:1017700020F4863009F091C021C0893019F08931F8
:1017800009F08BC082E066E10E942409000000009D
:101790000000000000000000000000007EC00E9469
:1017A000960A82E066E10E94240900000000000021
:1017B000000000000000000000006FC082E069E04F
:1017C0000E9424090000000000000000000000004A
:1017D0000000000081E06FE140E00E947909809301
:1017E0006406893009F062C082E066E10E94240943
:1017F00000000000000000000000000000000000E9
:101800004CC0883009F43BC0893020F4863009F0A0
:1018100044C013C0893021F0863109F03EC00DC0AC
:1018200082E069E10E94240900000000000000003D
:10183000000000000000000030C082E069E00E946B
:10184000240900000000000000000000000000006B
:10185000000081E06FE140E00E9479098093640616
:10186000893021F582E069E10E942409000000002E
:101870000000000000000000000000000EC00E94F8
:10188000960A82E069E10E9424090000000000003D
:101890000000000000000000000081E06FE140E077
:1018A0000E947909809364068F31B9F31F910F91DB
:1018B0000895809155068823E1F080916D06882374
:1018C000C1F48091E4059091E505892B39F48AE90A
:1018D0000E94B3099093E5058093E4058091E405A7
:1018E0009091E505892B29F01092550686E10E941A
:1018F000DB0A80915A06882351F086E596E060E085
:1019000070E00E94750A009711F00E94940C80917B
:101910006D06823019F0853031F403C00E94C90D84
:1019200008950E94F90D0895EF92FF920F931F936F
:10193000CF93DF937C01DC010D911C91D8011796A8
:10194000ED91FC911897808180936606C82FD0E0B6
:101950002196CE0FDF1F988129812F3110F02EE1C3
:1019600003C0222309F421E09295969596959370F1
:101970008FEF989FC001112430E0FC01E29FC0016D
:10198000E39F900DF29F900D11246AE570E00E9494
:101990009A336F3F710511F008F06FEF6883D8013B
:1019A0001296FC92EE921197C8010E947B18DF916B
:1019B000CF911F910F91FF90EF900895DF92EF92DA
:1019C000FF920F931F93DF93CF930F92CDB7DEB7A4
:1019D000E091E405F091E5053097C1F1E080F180F8
:1019E00087E00E943309D82ECE01019661E00E9463
:1019F0004309698167FD2AC06D5F0AE910E0061B93
:101A000011090E0D1F1D6150C8010E944309F70105
:101A1000108707838981080F111DF801D282609118
:101A2000E4057091E50586E596E00E94E0098AE903
:101A30000E94B3099093E5058093E405892B31F466
:101A400089E00E94DB0A81E0809355060F90CF91D8
:101A5000DF911F910F91FF90EF90DF900895882301
:101A600011F087E005C082E060EE45E00E94790950
:101A70008093E60582E080936D068091E405909165
:101A8000E505892B39F489E00E94DB0A81E0809327
:101A90005506089586E10E94DB0A0895EF92FF92B1
:101AA0001F93CF93DF937C01EB01142F442331F07C
:101AB0008CE260EF44E02091630604C08CE260EFAA
:101AC00044E020E00E948C09C230D10598F4112333
:101AD00061F08CE26EE041E020915B060E948C098F
:101AE0008FE260E00E94240916C08CE26EE041E0C3
:101AF00027E00FC060915F066295607F809162066B
:101B0000682B8FE20E9424098CE26EE041E0209174
:101B10005B060E948C0989E10E94DB0A8931D9F7B2
:101B2000E898219759F480916606833118F080E493
:101B300092E002C080E890E00E9413042C9A2C9856
:101B4000F70160816150C7010E94650981E08093BF
:101B50006D06E89ADF91CF911F91FF90EF90089565
:101B6000FC0180916D06882311F086E80895F093BA
:101B70006106E09360068781908590936806809364
:101B80006706009711F488EE08950E944E0D80E0DC
:101B9000089510926D068091E6058330B1F084308F
:101BA00028F4882331F08130E1F409C08530C9F48C
:101BB00012C0609160067091610680E017C060916C
:101BC00060067091610687E811C0609160067091AF
:101BD000610681EE0BC0609160067091610689EE2E
:101BE00005C0609160067091610685E80E94B42985
:101BF000089585E160E847E020E00E948C098AE2D0
:101C000092E10E941D038EE06CE00E942409E89A94
:101C100010926D0686E10E94DB0A9091E7059933E8
:101C200020F08FEF8093E7050AC08FEF989FC001E7
:101C3000112468E370E00E949A336093E705809175
:101C4000E7050E94872D08951F93182F80916D0638
:101C5000882341F0809164068F3011F086E855C0EA
:101C600081E853C0E8988FE00E94330985E160E87D
:101C700047E021E00E948C0987E89EE00E941D0356
:101C80008EE06FEF40E020E10E948C09E89A86E048
:101C90000E94DB0A863089F085E160E847E020E0B9
:101CA0000E948C098AE292E10E941D038EE06CE0A2
:101CB0000E942409E89A85E828C087E06FEF0E9417
:101CC000240984E080936D061092E70580EC93E090
:101CD000A0E0B0E004C0880F991FAA1FBB1F1A958F
:101CE000D2F780549C4FAF4FBF4F23E0B695A795D6
:101CF000979587952A95D1F78093E8059093E90504
:101D0000A093EA05B093EB0580E01F9108958FE062
:101D10000E94330984FF29C087E00E943309982F6D
:101D20008091E705891710F49093E7058091E80505
:101D30009091E905A091EA05B091EB050197A10901
:101D4000B1098093E8059093E905A093EA05B09363
:101D5000EB050097A105B10529F087E06FEF0E9420
:101D60002409089585E080936D060895282F85FD48
:101D700003C0982F9F7304C0982F91959F719195E0
:101D8000ECECF0E08491891734F03F968491981739
:101D900014F0822F0CC0803E3CF080323CF487FF70
:101DA00006C08F71806203C080E201C08FE180684D
:101DB000089584E080935B0623E0209362068FEF12
:101DC0009FEF909351068093500690935406809312
:101DD00053068BE080935D0680E098EFAFEFB7E0AD
:101DE0008093690690936A06A0936B06B0936C0685
:101DF00010924F068AE091E090934E0680934D0634
:101E00008AE08093650682E080935C0685E080939B
:101E10005F062093630683E80E94B60E8093440613
:101E200081E08093520610925E06089585FD03C0FE
:101E3000982F9F7304C0982F91959F719195ECEC0A
:101E4000F0E080E02491921724F029173CF48150AF
:101E500008958F5F31968031A9F780E008951F9330
:101E6000CF93DF9382E2609150060E942409609133
:101E7000510683E20E942409C5E4D6E014E2812FD2
:101E800069910E9424091F5F1C32C9F780E26091AA
:101E900053060E9424096091540681E20E9424099D
:101EA00088E060E645E0209152060E948C098FE2AE
:101EB0006FE040E0209162060E948C098EE268E0AB
:101EC00043E020915E060E948C098FE260EF44E0BF
:101ED00020915F060E948C0988E06FE140E020912C
:101EE0005D060E948C09809144060E94160F282FDF
:101EF00085E06FE040E00E948C09DF91CF911F9157
:101F000008951F93CF93DF93EB0190916D0694306A
:101F100009F4D4C08E3431F0893541F4888180933E
:101F20006306D0C0888180935B06CCC02091640694
:101F30002F3011F481E8C7C08B3009F4B6C08C3063
:101F400070F4823009F479C0833018F48823C9F121
:101F500015C0833009F47FC0843081F45FC08335BD
:101F600009F1843528F48F3459F0803539F40DC0E7
:101F7000873509F45BC0803F09F474C084EFA3C0C7
:101F80002881209362068FE263C068818981609313
:101F900050068093510682E20E9424096091510606
:101FA00083E20CC068818981609353068093540654
:101FB00080E20E9424096091540681E20E94240973
:101FC00081C0992309F07AC080E098EFAFEFB7E0C5
:101FD000088004C0B695A795979587950A94D2F77F
:101FE00081709070892B09F46BC0283011F418E0CF
:101FF00006C088E00E94DB0A8830D9F716E1288104
:1020000020935D0688E06FE140E00E948C09183063
:1020100009F458C086E10E94DB0A54C0992309F0F4
:102020004DC08881882309F44DC04AC0288120937F
:102030005F068FE260EF44E03EC0888180934406F3
:102040000E94B60E809344060E94160F282F85E04A
:102050006FE040E030C028812093520688E060E6BF
:1020600045E029C088818093450689818093460692
:102070008A81809347068B81809348068C81809368
:1020800049068D8180934A068E8180934B068F810D
:1020900080934C06C5E4D6E014E2812F69910E943A
:1020A00024091F5F1C32C9F70DC0288120935E06EA
:1020B0008EE268E043E00E948C0904C086E803C019
:1020C00088EE01C080E0DF91CF911F910895DF92EB
:1020D000EF92FF920F931F93DF93CF930F92CDB7A1
:1020E000DEB7D82E81E090E065E170E041E050E09D
:1020F0009E012F5F3F4F0E949B032C988CE791E03D
:102100000E9413042D9881E090E00E9413042D9A00
:1021100010E081E06FE140E00E9479091F5F1B3F02
:1021200011F485E849C08830A1F7809364062981BD
:10213000222309F44AC082E16FE040E00E948C094A
:1021400044C086E060E645E00E9479099801220FCC
:10215000331F220F331F082F10E0022B132BF39491
:1021600088E0F81671F783E00E94DB0A8FE00E9496
:10217000330981E08CBBEDBAC8010E940E340E9485
:102180000934682F192F8DE20E9424098EE267E03E
:1021900040E0212F0E948C0980E00E9466120E947C
:1021A0005312DD2011F00E94D90E0E942F0F1092C1
:1021B0006D061092550680E00F90CF91DF911F9130
:1021C0000F91FF90EF90DF90089583E060E344E08B
:1021D00020E00E948C0983E068E043E020E00E9458
:1021E0008C0983E067E040E021E00E948C098EE2E8
:1021F00060E245E021E00E948C098CE060E847E065
:1022000021E00E948C0984E062E041E021E00E942C
:102210008C098EE06CE00E9424098DE063E040E0D0
:1022200021E00E948C098AE06FE040E023E00E94F8
:102230008C098DE068E043E021E00E948C098DE08C
:1022400064E042E021E00E948C0986E00E94DB0A03
:10225000EDB2E89800E010E0FF2473CF0E94671011
:10226000882361F085E8089586E596E060E070E0F7
:102270000E94750A009711F00E94AB0980915A06DE
:10228000882391F78AE292E10E941D0381E08CBBD2
:10229000E89A80E008950F931F93CF93DF930E94F5
:1022A000D803882309F0D0C02D9A2C988AE491E0B5
:1022B0000E9413042D9881E090E00E9413042D9A4F
:1022C00010E004C01F5F1F3F09F4BEC08DE10E94F3
:1022D00033098230B9F78CE10E943309833091F7DA
:1022E00082E068E00E94240910E081E06FE140E0B4
:1022F0000E947909115009F4A7C08830B1F7809382
:10230000640681E090E060E070E048E050E025E4A1
:1023100036E00E949B0309C0C5E4D6E00E94093460
:10232000899386E0CD34D807C9F78091450630916E
:102330004606409147066091480670914906F09123
:102340004A06B0914B0650914C06082F015091E07F
:10235000081708F090E0832F815021E0831708F0E0
:1023600020E0192F180F91E0181708F090E0292BA2
:10237000842F815031E0841708F030E0A22FA80F9D
:1023800091E0A81708F090E0392B862F815021E0CA
:10239000861708F020E0E32FE80F91E0E81708F037
:1023A00090E0292B872F815031E0871708F030E02B
:1023B000622F680F91E0681708F090E0392B8F2F9B
:1023C000815021E08F1708F020E0432F480F91E063
:1023D000481708F090E0292B8B2F815091E08B1744
:1023E00008F090E0322F380F21E0381708F020E095
:1023F000922B5195591779F43F3F69F44F3F59F4A7
:102400006F3F49F4EF3F39F4AF3F29F41F3F19F410
:102410000E3F08F081CF81E00E9467108823A1F46D
:102420008AE292E10E941D03E89A0E94BA098AE9B1
:102430000E94B3099093E5058093E40586E596E054
:102440000E94D90980E001C085E8DF91CF911F91FA
:102450000F9108958FE00E943309282F83FF0CC04D
:1024600080916D06813029F426FF80E00E942F0DB7
:1024700008950E94DE0C089582FF14C08DE060E88C
:1024800047E00E947909882339F48DE063E040E059
:1024900021E00E948C0908958DE063E040E022E095
:1024A0000E948C090895809164068F3011F082E8B3
:1024B000089588E00E94DB0A883011F085E80895CD
:1024C00081E090E00E94EA0380E00895882311F003
:1024D00088EE0895809164068F3011F481E80895A4
:1024E00080916D06882391F41092550688E00E9431
:1024F000DB0A8830D9F780E090E00E94EA038FE0A1
:102500000E94DB0A8F3011F480E0089586E8089578
:10251000982F80916D06882311F086E808959830F1
:1025200039F488E00E94DB0A1092550688E008958D
:102530008091E4059091E505892B29F086E10E94C0
:10254000DB0A86E0089581E08093550686E00895D1
:10255000CF93DF93DC019C9111962C911197809180
:102560006E06882321F4CD010E94AB091AC0E92F21
:10257000F22F9F012F5F3F4F41EF56E088E0EA01C5
:102580000990AE01E90109929E018150C1F7809145
:10259000FC06818783E1808389E097E0BD010E948A
:1025A000E009DF91CF910895DC01ED91FC91119745
:1025B00084E1808363835283418389E097E0BD0196
:1025C0000E94E00908950F931F93DF93CF9300D0EB
:1025D000CDB7DEB7A0919206B0919306ED91FC9134
:1025E000119784E180838BEE83830FEF1FEF1283BB
:1025F000018389E097E0BD010E94E0091092810605
:102600001A83098380E5BE016F5F7F4F0E944425D6
:102610001093C9060093C8061092D6061092D706EA
:102620001092D8061092D9061092DA061092DB06A4
:102630001092DC061092DD060E948C230F900F9002
:10264000CF91DF911F910F910895EF92FF920F9319
:102650001F93E090D206F090D30680E061E040E066
:1026600020E030E000E010E00E94BE1C8823A9F4C6
:10267000A0919206B0919306ED91FC91119784E19F
:10268000808381EE83838FEF9FEF9283818389E044
:1026900097E0BD010E94E00919C0A70160E070E069
:1026A00084E0440F551F661F771F8A95D1F780E09D
:1026B00020E030E003EE12E1EE24FF240E94170632
:1026C000882321F080E090E00E94E3121F910F9197
:1026D000FF90EF900895FF920F931F93DF93CF9396
:1026E00000D0CDB7DEB7F090FE060E94AB09FF2008
:1026F000B1F583E56CEF76E00E9444252091FC065D
:102700003091FD068091F1068093D6068091F20605
:102710008093D7068091F3068093D8068091F406C3
:102720008093D9068091F5068093DA068091F606AB
:102730008093DB068091F7068093DC068091F80693
:102740008093DD0681E080930507109281068091D9
:102750008C06833031F582E080938C0622C0109283
:1027600081060FEF1FEF1A83098380E5BE016F5FBB
:102770007F4F0E9444251093C9060093C80610920B
:10278000D6061092D7061092D8061092D90610924B
:10279000DA061092DB061092DC061092DD062FEFAF
:1027A0003FEFE0919206F0919306A081B18184E120
:1027B0008C931396FC92139712963C932E93119739
:1027C00089E097E0BF010E94E0090E948C230F90EE
:1027D0000F90CF91DF911F910F91FF9008950F936C
:1027E0001F93DF93CF93CDB7DEB72C970FB6F89436
:1027F000DEBF0FBECDBFAC01DE011196FC018081B2
:1028000091819C01F9018CE001900D928150E1F7DA
:10281000DA010D911C91809105078250823020F0E1
:10282000CA010E94AB0956C082E0F8018083D8013A
:10283000AC56BF4FFD0181938A859B8512969C9370
:102840008E9311978C8582839D0128503040D90149
:10285000E5E4F6E088E001900D928150E1F7F9019E
:1028600038979F01BE016E5F7F4F88E0DB010D90BE
:10287000BD01D9010D929D018150C1F78091500693
:10288000909151069293829380918D0682938F5FEF
:1028900080938D0683E69CEC929382938BE18293E6
:1028A000D8011896FC93EE93179716961C9280E722
:1028B00096E0BA010E94E00980918F0690919006FF
:1028C000F8019583848381E00E943D04882311F4FC
:1028D0000E94F5202C960FB6F894DEBF0FBECDBF38
:1028E000CF91DF911F910F910895CF92DF92EF92D8
:1028F000FF921F93DF93CF93CDB7DEB72F970FB61D
:10290000F894DEBF0FBECDBFAC017C01DE01119695
:10291000FC01808191819C01F9018FE001900D9271
:102920008150E1F740939206509393068C81823058
:1029300019F48F8198851AC08F818093D606888577
:102940008093D70689858093D8068A858093D90697
:102950008B858093DA068C858093DB068D8580934A
:10296000DC068E858093DD068EEF9FEF9093C9067F
:102970008093C80680E5BE016B5F7F4F0E944425AF
:102980000E946723D701CD90DC9081E0F60180831F
:10299000F282E182EA56FF4F80838F8581839F0117
:1029A00028503040D901E5E4F6E088E001900D922E
:1029B0008150E1F7F9018FEF9FEF929382938C8121
:1029C000823051F48091C8069091C9069293829307
:1029D00045E123E238EC11C0F9013A979F0146ED39
:1029E00056E088E0DA010D90AD01D9010D929D010C
:1029F0008150C1F74BE123E23CEC8091500690916D
:102A000051069293829380918D0682938F5F80937B
:102A10008D06329322934293D6011896FC93EE933F
:102A2000179784E0BE016D5F7F4F0E944425182FE9
:102A300080E0BE016E5F7F4F0E944425112371F438
:102A4000882361F4C60162E070E041E00E94B00DAD
:102A5000882321F481E08093060712C0D701ED910D
:102A6000FC9184E1808381EE83838FEF9FEF9283DB
:102A7000818389E097E0B7010E94E0090E948C23DE
:102A80002F960FB6F894DEBF0FBECDBFCF91DF916A
:102A90001F91FF90EF90DF90CF900895FC018091FF
:102AA000EE058730F0F4A781B08512968C911297CD
:102AB0008695869583708230A1F4E091EC05F091C3
:102AC000ED053297F093ED05E093EC0516968D91A8
:102AD0009C911797918380838091EE058F5F8093FF
:102AE000EE0580E00895FC018091EE058730F0F45A
:102AF0000780F085E02D82818695869583708330EE
:102B0000A9F48091EC059091ED0508979093ED055F
:102B10008093EC05DC01369688E001900D9281509F
:102B2000E1F78091EE058F5F8093EE0580E00895D8
:102B30009F92AF92BF92CF92DF92EF92FF920F934C
:102B40001F93DF93CF9300D000D0CDB7DEB7FB014A
:102B5000A080B180D50112967C936E9311978AE084
:102B60008C9378E9C72ED12CCA0CDB1C80918E0681
:102B7000882319F46DE0962E0EC0482F50E0C41A39
:102B8000D50A5DE0952E980E24E936E0C601B9011C
:102B900050E00E94193480917406882309F442C0E1
:102BA000D092ED05C092EC051092EE0583E795E119
:102BB0009A83898380E796E07E010894E11CF11CEA
:102BC000B7010E947B0A0091EE051092EE058EE49B
:102BD00095E19A83898380E796E0B7010E947B0A9A
:102BE0002091EE05E091EC05F091ED05319710E0B4
:102BF000C80134E0880F991F3A95E1F7822B808352
:102C0000000F111F000F111F020F111D000F111FC8
:102C10000093EE05900EE02FF0E0E095F095EC0DBE
:102C2000FD1D02C0F6011292DF011E928091050780
:102C3000833019F42FEF3FE402C02FEF3FE0809183
:102C40006E0681113068FD01329322938091530604
:102C5000909154062FEF8E3F920799F4FD013A9719
:102C600086E0980E9F0145E456E088E0DA010D9079
:102C7000AD01D9010D929D018150C1F720E030ECEA
:102C800004C09293829320E030E8809150069091A6
:102C900051069293829380918B0682938F5F8093EB
:102CA0008B06329322939292D5011896FC93EE9361
:102CB0001797C50162E070E040E00E94B00D81E02E
:102CC000809306070F900F900F900F90CF91DF9198
:102CD0001F910F91FF90EF90DF90CF90BF90AF903A
:102CE0009F900895BC0180E00E9498150895FC0112
:102CF0000190F081E02D6281738181814481258181
:102D00000E94993308950F931F938C01DC01ED917C
:102D1000FC9181810E944B01C8010E94AB091F9167
:102D20000F9108950F931F938C01DC01ED91FC919D
:102D3000818162810E943602C8010E94AB091F9105
:102D40000F910895AF92BF92CF92DF92EF920F93BF
:102D50001F935C01DC01ED91FC91048115812681BA
:102D60003781818162814381E08439966F010E94BD
:102D70006C02C5010E94AB091F910F91EF90DF908B
:102D8000CF90BF90AF9008950F931F938C01DC01FB
:102D9000ED91FC9181810E949833C8010E94AB099A
:102DA0001F910F9108950F931F938C01DC01ED91FA
:102DB000FC9181810E94D702C8010E94AB091F913A
:102DC0000F9108950F931F938C01DC01ED91FC91FD
:102DD00081810E949733C8010E94AB091F910F9116
:102DE00008950F931F938C01DC01ED91FC912181DB
:102DF00032814381548165817681878190850E94EB
:102E00009633C8010E94AB091F910F9108950F934B
:102E10001F938C01DC01ED91FC91818162813396DD
:102E2000AF010E949533C8010E94AB091F910F9119
:102E30000895EF92FF920F937C01DC01ED91FC91DC
:102E4000218132814381548165817681878190859A
:102E500001850E949433C7010E94AB090F91FF9036
:102E6000EF9008950F931F93DF93CF93CDB7DEB705
:102E70002B970FB6F894DEBF0FBECDBF8C01DC01DF
:102E8000ED91FC9182818983838194819B838A83E4
:102E90009E012C5F3F4FAF014B5F5F4F88E0DA012F
:102EA0000D90AD01D9010D929D018150C1F7818135
:102EB000BE016F5F7F4F0E949333C8010E94AB0930
:102EC0002B960FB6F894DEBF0FBECDBFCF91DF912A
:102ED0001F910F9108950F931F93DF93CF93CDB759
:102EE000DEB766970FB6F894DEBF0FBECDBF8C017C
:102EF000DC01ED91FC91818192819B838A838381A6
:102F000089839E012C5F3F4FAF014C5F5F4F88E08C
:102F1000DA010D90AD01D9010D929D018150C1F7EB
:102F2000818192819E878D8784858C879E01215F18
:102F30003F4FAF01435F5F4F88E0DA010D90AD0175
:102F4000D9010D929D018150C1F7CE010196BE01BC
:102F5000645F7F4F45890E94C800C8010E94AB0989
:102F600066960FB6F894DEBF0FBECDBFCF91DF914E
:102F70001F910F910895CF92DF92EF92FF920F93DE
:102F80006C01DC01ED91FC91BF016E5F7F4F2489E4
:102F90003589E788F08C8181438906890E949233C4
:102FA000C6010E94AB090F91FF90EF90DF90CF9088
:102FB0000895EF92FF920F937C01DC01ED91FC915B
:102FC0002181328143815481658176818781908519
:102FD00001850E94A301C7010E94AB090F91FF90D8
:102FE000EF9008950F931F938C01DC01ED91FC91FC
:102FF0008181928163810E942601C8010E94AB09F0
:103000001F910F9108950F931F938C01DC01ED9197
:10301000FC91818162810E949133C8010E94AB09B9
:103020001F910F9108950F931F938C01DC01ED9177
:10303000FC91818162810E94D000C8010E94AB098D
:103040001F910F910895CF92DF92EF920F93DF932C
:10305000CF93CDB7DEB766970FB6F894DEBF0FBE3D
:10306000CDBF6C01DC01ED91FC918181898382816E
:1030700093819B838A839E012C5F3F4FAF014C5FFE
:103080005F4F88E0DA010D90AD01D9010D929D01ED
:103090008150C1F784858C87858596859E878D872D
:1030A0009E01215F3F4FAF01415F5F4F88E0DA0132
:1030B0000D90AD01D9010D929D018150C1F7228D76
:1030C000338DCE010196BE01645F7F4F418D07892C
:1030D000E08C0E94EE00C6010E94AB0966960FB616
:1030E000F894DEBF0FBECDBFCF91DF910F91EF906F
:1030F000DF90CF900895FC0110826181728161158B
:10310000710521F08DEC96E00E94E0090895282FCA
:103110008091FC069091FD0696FF1BC0222359F476
:103120002091EF063091F006809150069091510663
:103130002817390759F02091EF063091F006809159
:10314000CB069091CC062817390719F48EEE0E9411
:10315000C92F08950F931F93CF93DF93282F80914A
:10316000FC069091FD0696FFA3C0222359F42091FE
:10317000EF063091F0068091500690915106281785
:10318000390761F02091EF063091F0068091CB066F
:103190009091CC062817390709F08AC02091F106D2
:1031A0003091F2068091C8069091C9062817390718
:1031B00009F47EC09091F1068091D606981759F5D2
:1031C0009091F2068091D706981729F59091F30611
:1031D0008091D8069817F9F49091F4068091D90659
:1031E0009817C9F49091F5068091DA06981799F42A
:1031F0009091F6068091DB06981769F49091F70696
:103200008091DC06981739F49091F8068091DD06DC
:10321000981709F44DC08AE90E94B3098C01009700
:1032200009F446C0DC012D913C9185E0F9018083D1
:1032300012830183E956FF4F8083AF01485050400D
:10324000FA01A5E4B6E088E00D9001928150E1F723
:10325000FA013897EF01A6EDB6E088E00D900992EB
:103260008150E1F78091500690915106929382939C
:1032700080918D0682938F5F80938D0683E69CEC10
:103280009293829388E18293D9011896FC93EE93EE
:103290001797C90162E070E041E00E94B00D8823F9
:1032A00021F481E08093060703C0C8010E94AB09A6
:1032B000DF91CF911F910F9108950F931F93CF939B
:1032C000DF93EC01E881F981A781B0857C9170934F
:1032D000E106FD01E70FF11D81818093FA06119649
:1032E0004D915C9112975093DF064093DE06139642
:1032F0008C9113978093E2068D010C5F1F4F652F11
:103300006295669566956370352F36953695337060
:1033100019F4F80120E049C014968D919C911597FD
:103320009093E5068093E406FD0136963230E1F491
:103330001092E6061092E7061092E8061092E9064F
:103340001092EA061092EB061092EC061092ED062F
:1033500016968D919C9117979093E7068093E606B9
:10336000FD01389624E021C0333011F022E01DC069
:1033700016968C9116978093E60681818093E706D6
:1033800082818093E80683818093E906848180931B
:10339000EA0685818093EB0686818093EC0687811F
:1033A0008093ED06FD013E962AE0662309F447C0AE
:1033B00046FD08C0819191919093F0068093EF06AD
:1033C0002E5F08C08091E4069091E5069093F00688
:1033D0008093EF066230C1F41092F1061092F2066B
:1033E0001092F3061092F4061092F5061092F6066B
:1033F0001092F7061092F806808191819093F20660
:103400008093F1062E5F1BC06330C9F480818093E6
:10341000F10681818093F20682818093F306838195
:103420008093F40684818093F50685818093F60667
:1034300086818093F70687818093F806285F972F0F
:103440009550921B9093FB066093EE063093E30633
:1034500043FDCEC1D801A20FB11D842F8770809388
:10346000E006833021F48C918093F90663C08130AB
:1034700009F451C0813020F0833009F0B9C15AC03D
:103480008D919C9111979093FD068093FC06129666
:103490008C9112978093FE06877011F493E002C01E
:1034A000982F9C5FFD01E90FF11D80818093FF063D
:1034B000292F2F5F382F377090E08077907044E08D
:1034C000959587954A95E1F7482F332311F4882382
:1034D00089F0CD01820F911D909301078093000721
:1034E000332311F0330F230F442321F0440F440FF3
:1034F000440F240F8091FB06281750F4821B809301
:103500000207A20FB11DB0930407A093030774C173
:103510001092020771C1992351F0963718F086E78F
:103520008093FB06B093FD06A093FC0665C1109244
:10353000FB0662C18091F9068330E1F0843030F4FB
:103540008130C1F0823009F053C107C0883008F4DF
:1035500053C1883009F04CC112C011968D919C91D5
:1035600012979093FD068093FC0613968C9180939E
:10357000FE0642C111968C918093FC063DC11196C6
:103580008D919C9112979093FD068093FC06139663
:103590008D919C9114979093FF068093FE0615964B
:1035A0008C9115978093000716968D919C91179793
:1035B000909302078093010754FF1EC118968C91C7
:1035C0008093030719C18091E006833061F48091F4
:1035D000F906843011F0873031F48DEC96E0BE01AD
:1035E0000E94E0090FC180918106813009F4EBC08F
:1035F000813020F0843008F0FBC0A3C080918A069F
:10360000882309F06AC090910507933080F19330C8
:1036100009F0EEC08091E006813009F4E5C0813008
:1036200010F1833009F0E4C08091F906843009F488
:10363000AFC0853038F4813009F4A0C0833009F080
:10364000D7C009C0863009F4AEC0863040F087305C
:1036500009F0CEC0B0C0CE010E94C71ED3C08EEE0E
:103660000E94C92FC5C080E00E948718C1C0809108
:10367000E006813009F4B8C0813020F0833009F0D1
:10368000B7C00CC080910807882309F4B1C0992302
:1036900009F4AEC080E00E94AA18AAC08091F90681
:1036A000843009F475C0853038F4813009F466C07F
:1036B000833009F09DC004C0873009F05AC009C0AA
:1036C000CE010E94C71E80910507813009F09AC083
:1036D0005CC0923009F08CC06EC0833009F1843038
:1036E00019F0823009F084C08091E006882309F047
:1036F0007FC080910507833019F481E00E9487180C
:1037000080910807882341F080910507815082301D
:1037100018F481E00E94AA18CE010E945C2872C0B1
:103720008091E006833009F063C08091F90688300B
:1037300009F05EC082E00E940805CE010E94462C7E
:1037400061C00E94C7278091E006813009F44CC017
:10375000833009F04DC08091F9068430C9F085307E
:1037600030F4813059F0833009F042C00BC087300B
:10377000F1F0883021F18630D9F515C0CE010E94D4
:10378000A81240C0CE010E94C71E0E94AF243AC0BA
:1037900080917406882321F0CE010E94811D32C0E1
:1037A0000E94631C25C0CE010E940F252BC0809172
:1037B00005078230E9F4CE010E94721623C0CE01C3
:1037C0000E940E301FC08091E006833059F4809132
:1037D000F906823069F480E00E940805CE010E945B
:1037E0006B1310C0813021F4CE010E9411210AC058
:1037F000CE010E94AB0906C080910607882309F01C
:10380000E2CEF1CEDF91CF911F910F910895DB01B0
:10381000FC018681882399F40780F085E02D828160
:10382000869586958370823051F440E02D913C91CD
:10383000868197812817390719F441E001C040E0DB
:10384000842F0895DB01FC0186818823C9F5078058
:10385000F085E02D8281869586958370833081F591
:1038600020E09C918681981761F511969C911197A3
:103870008781981731F512969C9112978085981739
:1038800001F513969C91139781859817D1F414969E
:103890009C91149782859817A1F415969C91159781
:1038A0008385981771F416969C91169784859817BE
:1038B00041F417969C918585981719F421E001C071
:1038C00020E0822F08950F931F93CF93DF938AE90F
:1038D0000E94B3098C01009709F44BC0DC01CD9123
:1038E000DC918CE088831A8309831E82FE01E856EE
:1038F000FF4F8091EE06833089F438979F0141EFA6
:1039000056E088E0DA010D90AD01D9010D929D01DC
:103910008150C1F721E03CE04FE009C08091F10601
:103920009091F2069293829321E038E049E08091F1
:10393000EF069091F0069293829380918D06829388
:103940008F5F80938D06329322934293F887EF83A3
:10395000F8018081918161E070E040E00E94B00D4B
:10396000882321F481E08093060703C0C8010E94E8
:10397000AB09DF91CF911F910F9108956F927F92C4
:103980009F92AF92BF92CF92DF92EF92FF920F93EE
:103990001F93CF93DF93D82E962EC42E5901380152
:1039A0008AE90E94B3097C01009709F49BC0DC01FD
:1039B0000D911C91DD2021F084E0F801808303C08B
:1039C0008BE0D8018C93F801F282E182E956FF4F37
:1039D00084E080832091530630915406C9010296F9
:1039E000029710F0992069F03897EF01A5E4B6E04E
:1039F00088E00D9009928150E1F762E183E290EC5A
:103A000005C0329322936CE083E290E8CC2061F011
:103A100020915006309151066216730629F06E5FB0
:103A20003293229370E002C0806471E022E0C216FB
:103A300041F4AC015860D5018D919C919293829391
:103A400028C0B3E0CB1661F4AC015C6038976A5FC4
:103A5000EF01D50188E00D9009928150E1F719C07E
:103A60002091C8063091C9064FEF2E3F340729F048
:103A7000AC015860329322930CC0AC015C60389763
:103A80006A5FEF01A6EDB6E088E00D9009928150E3
:103A9000E1F73297772339F08091500690915106E3
:103AA0009183808302C07182608280918D068293AF
:103AB0008F5F80938D06529342936293D80118963C
:103AC000FC93EE931797C80162E070E041E00E941A
:103AD000B00D882321F481E08093060704C0C7015C
:103AE0000E94AB0980E0DF91CF911F910F91FF9071
:103AF000EF90DF90CF90BF90AF909F907F906F90AE
:103B00000895EF92FF920F931F93DF93CF9300D00E
:103B100000D0CDB7DEB70E94AB0980910507823097
:103B200008F453C08091EE06823019F487E09CE1DE
:103B300005C0833009F049C082E29CE19A83898301
:103B400081EF96E09C838B8380E796E07E0108946A
:103B5000E11CF11CB7010E947B0ADC01009781F097
:103B60000D911C911197F801878190852091EF06A6
:103B70003091F006FC01848195812817390719F0EE
:103B80000E94631C22C081E0F8018683B283A18376
:103B900080E796E0B7010E947B0A892B41F0D801AB
:103BA0001796ED91FC911897818180618183C801FE
:103BB00061E070E040E00E94B00D882321F481E0D4
:103BC0008093060702C0F80116820F900F900F90A5
:103BD0000F90CF91DF911F910F91FF90EF9008957B
:103BE000EF92FF920F931F93CF93DF937C01E80135
:103BF000DC01ED91FC9186E1808361834283348313
:103C00002383CF010596423069F41582168217820C
:103C10001086118612861386148688819981968370
:103C2000858307C0DC01F80188E001900D92815086
:103C3000E1F789E097E0B7010E94E009DF91CF91B9
:103C40001F910F91FF90EF9008950F931F93DF93B3
:103C5000CF93CDB7DEB728970FB6F894DEBF0FBE6F
:103C6000CDBFDC01062FED91FC91119719821A82CC
:103C70001B821C821D821E821F8218860780F0858F
:103C8000E02D1281169516951370123029F42681B5
:103C9000378129833A8310C08681898387818A830B
:103CA00080858B8381858C8382858D8383858E83BC
:103CB00084858F8385858887809105078330C9F146
:103CC000823009F041C0123051F426813781809151
:103CD000C8069091C9062817390759F535C0133021
:103CE00041F596818091D606981719F597818091B4
:103CF000D7069817F1F490858091D8069817C9F4E3
:103D000091858091D9069817A1F492858091DA0661
:103D1000981779F493858091DB06981751F4948570
:103D20008091DC06981729F495858091DD06981717
:103D300059F02091500630915106CD01602F412F4E
:103D40008E010F5F1F4F16C080915306909154064D
:103D500002962091500630915106029730F4CD0121
:103D6000602F43E005E416E005C0CD01602F42E07E
:103D700003E516E00E94F01D28960FB6F894DEBF0A
:103D80000FBECDBFCF91DF911F910F910895CF93BB
:103D9000DF939C01FC01C081D181FE0185E181930B
:103DA000A1EFB6E088E00D9001928150E1F780919B
:103DB000FC06898789E097E0B9010E94E00910922A
:103DC000D6061092D7061092D8061092D9061092F5
:103DD000DA061092DB061092DC061092DD068FEFF9
:103DE0009FEF9093C9068093C806DF91CF91089505
:103DF000EF92FF920F931F93DF93CF93CDB7DEB770
:103E00002E970FB6F894DEBF0FBECDBF8C01DC013C
:103E1000ED90FC90DE011196F7018EE001900D927D
:103E20008150E1F7F7011283018383E08083EA5632
:103E3000FF4F80838D85818338979F0145E456E04D
:103E400088E0DA010D90AD01D9010D929D018150FC
:103E5000C1F78A81823031F48D819E819293829361
:103E600033E10FC038979F01AE014B5F5F4F88E091
:103E7000DA010D90AD01D9010D929D018150C1F77C
:103E800039E18091500690915106929382938091EE
:103E90008D0682938F5F80938D062A81922F990FD2
:103EA000990F80E08366906C929382933293D7014E
:103EB0001896FC93EE93179716961C92809105071F
:103EC0008250823008F060C08E85882309F45CC07F
:103ED0008A818230D1F48D818B3409F041C08E818A
:103EE0008823F1F58F818823D9F588858823C1F54A
:103EF00089858823A9F58A85882391F58B85882370
:103F000079F58C85882361F55BC0833009F058C052
:103F10009D818091D606981719F59E818091D706CC
:103F20009817F1F49F818091D8069817C9F4988565
:103F30008091D9069817A1F499858091DA0698178F
:103F400079F49A858091DB06981751F49B858091CE
:103F5000DC06981729F49C858091DD06981781F17D
:103F600080E796E0B8010E94E00980918F06909169
:103F70009006F7019583848381E00E943D048823A5
:103F8000F9F40E94F5201CC00E946723D8018D918E
:103F90009C9162E070E041E00E94B00D882321F422
:103FA00081E0809306070CC02B813C81C80161EE43
:103FB0004A818E010B5F1F4F0E94F01D0E948C23CF
:103FC0002E960FB6F894DEBF0FBECDBFCF91DF9116
:103FD0001F910F91FF90EF900895DC01ED91FC91FE
:103FE0001197E081E43278F4F0E0EE0FFF1FE45225
:103FF000FF4F259134912115310519F0F9010995EB
:1040000008950E94AB0908951F93809106078823A5
:1040100081F480918906882361F085E896E060E06C
:1040200070E00E94750A009721F00E94ED1F11E0D8
:1040300001C010E08091D106882359F08DEC96E004
:1040400060E070E00E94750A009719F00E94ED1F71
:1040500011E0812F1F910895FC018681882329F4A6
:104060008481958101979583848380E00895FC0184
:104070008681882311F020E006C020E084819581AC
:10408000892B09F421E0822F0895FB0120E0DC0157
:1040900013969C918081981709F421E0822F08954E
:1040A000DC01ED91FC91119780E180834183628373
:1040B00089E097E0BD010E94E0090895EF92FF9228
:1040C0000F931F93DF93CF9300D000D00F92CDB703
:1040D000DEB77C01FC0100811181F801918182E150
:1040E0008083998385E490E29B838A83CE01019645
:1040F0009D838C8380E796E0BE016E5F7F4F0E94B8
:10410000750A009729F00E94AB09F801128203C0DA
:1041100087EEF801828389E097E0B7010E94E00909
:104120000F900F900F900F900F90CF91DF911F91F4
:104130000F91FF90EF900895FF920F931F93DF93DD
:10414000CF9300D000D0CDB7DEB78CE290E29A8357
:10415000898380E796E08E010F5F1F4FB8010E94B0
:104160007B0A87E390E29A838983F02E012F10E186
:1041700080E796E06F2D702F0E94750ADC01009792
:1041800021F19C9111962C911197E92FF22F8081AA
:10419000833049F08D3061F0823051F780EFBD01FE
:1041A0000E949723E5CFCD0160EF0E94251EE0CF4E
:1041B0008381E92FF22F1083818380EF828389E04E
:1041C00097E0BD010E94E009D3CF80917406882357
:1041D00011F00E94F5200F900F900F900F90CF914B
:1041E000DF911F910F91FF900895EF92FF920F932F
:1041F0001F9381E040E050EE61E070E020E030E0AD
:104200000CE910E2EE24FF240E941706882321F017
:1042100080E090E00E949C201F910F91FF90EF9012
:1042200008950F931F93DF93CF93CDB7DEB72897F1
:104230000FB6F894DEBF0FBECDBFAC01DC019C9180
:1042400011962C918091FB06882321F4CA010E94CB
:10425000AB09FFC0E92FF22F8091E206808F809199
:10426000EE06818382508230A8F48091EF0690910F
:10427000F006938382839F012C5F3F4F61EF76E0CE
:1042800088E0DB010D90BD01D9010D929D018150A7
:10429000C1F70AC013821282148215821682178215
:1042A0001086118612861386208D80916F0628173E
:1042B00061F5948180917706981739F59581809101
:1042C0007806981711F59681809179069817E9F488
:1042D000978180917A069817C1F4908580917B062A
:1042E000981799F4918580917C06981771F49285BE
:1042F00080917D06981749F4938580917E069817E2
:1043000021F4CA010E94AB095AC020936F06848130
:1043100080937706858180937806868180937906DD
:10432000878180937A06808580937B068185809340
:104330007C06828580937D06838580937E0620910E
:10434000E30624871786108A118A128A138A148A30
:10435000158A168A8091E4069091E50696878587EE
:10436000233079F49F01215F3F4F66EE76E088E0CD
:10437000DB010D90BD01D9010D929D018150C1F766
:104380000BC0223039F48091E6069091E706908BBD
:10439000878702C0168615868091FA06878B8091E2
:1043A000FB06818F8091FC069091FD06938F828F92
:1043B00081E1808389E097E0BA010E94E009809161
:1043C000DE0684FF46C080910507833009F443C0B0
:1043D0008091EE06823071F48091F1069091F206A0
:1043E0009A8389830091EF061091F00680E060E0E7
:1043F00042E021C0833019F58091F10689838091D4
:10440000F2068A838091F3068B838091F4068C8375
:104410008091F5068D838091F6068E838091F70654
:104420008F838091F80688870091EF061091F0063F
:1044300080E060E043E09E012F5F3F4F07C080E0D7
:1044400060E040E020E030E000E010E00E94BE1CB0
:1044500002C00E948C2328960FB6F894DEBF0FBED0
:10446000CDBFCF91DF911F910F910895CF92DF9231
:10447000EF92FF920F931F93DF93CF93CDB7DEB7E9
:1044800062970FB6F894DEBF0FBECDBF8C01DE0180
:104490001196FC01808191819C01F90182E10190DA
:1044A0000D928150E1F78F8582FD11C080918106C8
:1044B000882321F480918A06882349F09E85D801BB
:1044C000ED91FC9180E18083918381EEAEC0F80193
:1044D000E080F1808DE0D7018C938E8513968C93CC
:1044E000139716961C92888945E0D42ED80EE8E9D9
:1044F000F0E0E81BF109EE0DFF1D9A81923051F4B6
:1045000037E0D32ED80E80915306909154069293A3
:10451000829312C0933081F438972DE0D22ED80EBA
:104520009F0145E456E088E0DA010D90AD01D90124
:104530000D929D018150C1F7209150063091510696
:104540008C819D812817390749F48A81882331F0AD
:104550008B81882319F040E450E009C08A818823C8
:1045600021F0B2E0DB0E3293229340E050E08B81E9
:10457000882311F1823039F46D2D6E5F8E819F8119
:104580009293829312C038976D2D685F9F0196E0D9
:10459000C92ED12CCC0EDD1E88E0D6010D906D0108
:1045A000D9010D929D018150C1F782E0D82ED60E1F
:1045B0008C819D819293829380918D0682938F5FEF
:1045C00080938D06BA0161608F8580FF02C0BA01B9
:1045D00061628889873608F070618B81382F330FCC
:1045E000330F20E04A81942F9295990F990F907C78
:1045F00080E0282B392B262B372B329322933296AF
:10460000D7FC0BC03397D082D7011896FC93EE935A
:1046100017978F8582FD10C028C09E85D801ED9127
:10462000FC9180E18083918385EE828389E097E02D
:10463000B8010E94E0093CC0809105078250823099
:10464000A0F480E796E0B8010E94E00980918F060F
:1046500090919006F7019583848381E00E943D0448
:10466000882331F50E94F52023C00E946723D701DB
:1046700012961C930E931197C70162E070E041E01F
:104680000E94B00D882321F481E08093060710C0BA
:104690009E85D801ED91FC9180E18083918381EE2C
:1046A000828389E097E0B8010E94E0090E948C2390
:1046B00062960FB6F894DEBF0FBECDBFCF91DF91EB
:1046C0001F910F91FF90EF90DF90CF900895809110
:1046D0000707813051F40E945312853831F081E090
:1046E00090E00E94EA03109207070895809107075F
:1046F000882389F480E090E00E94EA0380E00E9431
:104700006612882321F481E080930707089581E0F1
:1047100090E00E94EA03089580917506882331F4A1
:104720008091CA06882311F40E9476230895DF93AE
:10473000CF93CDB7DEB728970FB6F894DEBF0FBE84
:10474000CDBF482F9B01DB01ED91FC910780F085E7
:10475000E02DDE011196369688E001900D92815091
:10476000E1F7D901ED91FC918CE1808380915006B5
:10477000909151069283818393E0938380914506C3
:104780008483809146068583809147068683809145
:104790004806878380914906808780914A068187F1
:1047A00080914B06828780914C068387948789810C
:1047B00085878A8186878B8187878C81808B8D8195
:1047C000818B8E81828B8F81838B8885848B458BB7
:1047D00089E097E0B9010E94E00928960FB6F894A5
:1047E000DEBF0FBECDBFCF91DF9108950F931F9312
:1047F000182F1092060710920507109207071092C3
:104800008A0610928C061092810610926F068FEF26
:1048100080937706809378068093790680937A0652
:1048200080937B0680937C0680937D0680937E0632
:104830001092CA0688E00E9488120FB7F89480E0B0
:104840000E94080581E00E94080582E00E94080598
:1048500083E00E9408050FBF112309F440C01092A5
:10486000080782EC97E0909384068093830680E0AB
:1048700098E79093D3068093D20610928006109208
:104880006E0610928E060E94093480938B0684EF88
:1048900091E09093900680938F0681E0809382064A
:1048A00086E0809376061092D6061092D706109274
:1048B000D8061092D9061092DA061092DB061092F2
:1048C000DC061092DD068FEF9FEF9093C906809370
:1048D000C8060E94093480938D06109275061F91B8
:1048E0000F9108950F931F93CF93DF93EC010881ED
:1048F00019810E946723F801018180E090E00E9405
:10490000EA0380E0011181E00E942E11182F81E05E
:1049100090E00E94EA03802F0E94F6230E948C23DD
:1049200085E896E00E94810A8DEC96E00E94810A5B
:1049300089E097E00E94810A80E796E00E94810A60
:10494000E881F981118380E2808389E097E0BE01EC
:104950000E94E009DF91CF911F910F910895DF939D
:10496000CF9300D000D0CDB7DEB70E9467238FEF82
:104970009FEF9A8389839C838B8383E5BE016F5F5E
:104980007F4F0E94442580E5BE016D5F7F4F0E94EE
:10499000442581E00E94F6230E948C230F900F9003
:1049A0000F900F90CF91DF9108950E944B118823B3
:1049B000B9F40E94A207882399F081E00E94F623AF
:1049C0000E948C2385E896E00E94D9098DEC96E040
:1049D0000E94D90980E796E00E94D90980E00895F5
:1049E00085E80895FF920F931F93182FF92E409199
:1049F00050065091510689E0612F792F20915D0674
:104A000000914F060E944330882329F481EE612FE4
:104A10007F2D0E9497231F910F91FF900895CF93B0
:104A2000DF93EC01E881F9818AE18193A1EFB6E09F
:104A300088E00D9001928150E1F789E097E0BE0196
:104A40000E94E009DF91CF910895E82F853419F491
:104A500080918E060895883030F4E82FF0E0EC5D08
:104A6000FE4F849108958054803228F4F0E0E451A0
:104A7000FF4F84910895E03F10F480E00895F0E046
:104A8000E45AFF4F849108951F93CF93DF93182F1B
:104A9000EB0180910707813051F40E946723812F39
:104AA000BE010E94810F182F0E948C2304C0812F09
:104AB0000E94810F182F812FDF91CF911F910895B0
:104AC0000F931F93CF93DF938C01FC01C081D181A1
:104AD000BE016D5F7F4F89818B3409F4A4C08C3493
:104AE00078F5863009F475C0873098F4823009F47F
:104AF000D0C0833038F4882309F4BBC0813009F07A
:104B000048C0BAC0843009F45CC0853008F05CC08D
:104B1000C3C0853409F469C0863448F4813409F48B
:104B200061C0823409F45BC0873099F555C089347F
:104B300009F468C08A3408F06DC0863451F55FC04E
:104B4000853509F462C08635A0F48F3409F476C047
:104B5000803530F48C3409F46BC08E34D1F46BC0E2
:104B6000823509F473C0833509F473C0803589F444
:104B700068C08935D9F08A3528F4873579F08835C9
:104B800080F409C08D35D1F0803F09F469C08A35C1
:104B900081F094EF85C08091080780C080915F0606
:104BA0007DC0809183069091840657C080916306F2
:104BB00075C08091D2069091D3064FC08091800637
:104BC0006DC080914F066AC080914D0690914E064F
:104BD00044C08091650662C080915C065FC0809190
:104BE00082065CC080916E0659C040918E0624E911
:104BF00036E0CB01B90150E00E94193450C08091D9
:104C00008E064CC080918B0649C080918F06909192
:104C1000900623C0DB01E6EDF6E088E001900D92FE
:104C20008150E1F73CC08091C8069091C90615C03B
:104C300080918D0633C080915B0630C08091620602
:104C40002DC0809150069091510607C08091750645
:104C500025C080915306909154069C838B831FC07E
:104C6000DB01E5E4F6E088E001900D928150E1F788
:104C700016C080915D0612C08091690690916A0607
:104C8000A0916B06B0916C068B839C83AD83BE8331
:104C900006C08091440602C0809152068B8390E04A
:104CA00089818A838EE18883998389E097E0B801BE
:104CB0000E94E009DF91CF911F910F910895FF921B
:104CC0000F931F93CF93DF93182FEB01F42E8B34A8
:104CD00009F49BC08C3440F5833409F4B1C08434AA
:104CE00078F4853038F4823008F0AAC0882309F4BB
:104CF000A7C03EC0813409F453C08234C9F548C00E
:104D0000863409F45AC0873430F4843409F444C03A
:104D1000853471F549C0893409F453C08A3408F0E8
:104D20005BC0873429F58CC0853509F44EC08635C3
:104D300070F4813530F48E3408F082C08C34C1F4C4
:104D40006BC0823509F46CC0823590F079C088352B
:104D5000A9F0893528F4863569F0873549F470C0A3
:104D60008A3579F08A3508F46BC0803F09F468C051
:104D700004EFC7C0888180930807C2C088819981E9
:104D8000BBC0888199819093D3068093D206B8C026
:104D9000888180938206B4C0888180937606B0C0F3
:104DA000888180936E06ACC024E936E040918E067F
:104DB000C90150E00E941934A3C0888180938E06F7
:104DC0009FC0888180938B069BC088819981909336
:104DD000900680938F0694C088818093D60689813F
:104DE0008093D7068A818093D8068B818093D906D9
:104DF0008C818093DA068D818093DB068E8180938F
:104E0000DC068F818093DD067BC088819981909339
:104E1000C9068093C80674C0888180938D0670C0CF
:104E20006881611161E060937506662331F00E942C
:104E3000672386E00E94881263C00E948C2360C0B2
:104E4000812FBE010E94810F082F813871F40E94CA
:104E50005312812FBE010E94810F082F882309F071
:104E600050C081E08093EF0503C0882309F049C05A
:104E700080915B06282F30E080915F06482F50E03C
:104E800060916206CA01861B9109281739070CF444
:104E9000C901A82F281B310981E090E002C0880FCA
:104EA000991F4A95E2F70197289FA001299F500D6D
:104EB000389F500D112420E030E070E0E1E0F0E098
:104EC0000DC0C901860F971FEF0102C0CC0FDD1F77
:104ED0008A95E2F74C0F5D1F2F5F3F4F2A1788F32B
:104EE00084E190E09C01429FC001439F900D529F3E
:104EF000900D1124865F9E4F9093840680938306C5
:104F000000E0FF2049F08091EF05882329F080E040
:104F10000E9466121092EF05802FDF91CF911F91B2
:104F20000F91FF900895EF92FF920F931F937C01D2
:104F3000FC0100811181B8016E5F7F4FF801818112
:104F400041E00E945F26F801918192839FE1908366
:104F5000818389E097E0B7010E94E0091F910F91DA
:104F6000FF90EF900895CF93DF93EC01E881F981F2
:104F700083E280836183662311F00E948C2389E0A1
:104F800097E0BE010E94E009DF91CF9108958091E2
:104F9000E0068823E1F080E00E9408058091E006A9
:104FA000813031F48091FB06882311F060E001C06C
:104FB0006BEE80918106823031F48091920690915F
:104FC00093060E94B3271092060710928106089557
:104FD00080918106823039F48091920690919306F7
:104FE0006BEE0E94B3271092810610920607089577
:104FF000CF92DF92EF92FF920F931F93DF93CF93A5
:10500000CDB7DEB728970FB6F894DEBF0FBECDBF81
:10501000D82EC92E809181068823D1F5809105076D
:105020008330B1F180918A06882391F50E9467232D
:10503000ED2CFC2CD701ED91FC9181819F012C5F1F
:105040003F4F823031F4848195819A83898342E095
:105050000DC0AE014F5F5F4F88E0D9010D909D01FB
:10506000DA010D92AD018150C1F743E00281138155
:1050700081E060E09E012F5F3F4F0E94BE1C8823AD
:1050800011F4C70107C0D0929206C092930605C0E2
:105090008D2D9C2D61EE0E94B32728960FB6F894B3
:1050A000DEBF0FBECDBFCF91DF911F910F91FF905B
:1050B000EF90DF90CF9008955F926F927F928F92E2
:1050C0009F92AF92BF92CF92DF92EF92FF920F9397
:1050D0001F93DF93CF93CDB7DEB761970FB6F894E8
:1050E000DEBF0FBECDBFBC0140918A06423011F039
:1050F000443069F480918206882349F0E091920659
:10510000F091930620813181D901199604C0A0E065
:10511000B0E020E030E05091EE0659830091EF06B8
:105120001091F0061B830A83523069F41E821F829D
:10513000188619861A861B868091F1069091F206D0
:105140009D838C8318C08091F1068C838091F20638
:105150008D838091F3068E838091F4068F838091F6
:10516000F50688878091F60689878091F7068A87F9
:105170008091F8068B8790905D069C86B0904F06D4
:10518000BD868091FC069091FD069F878E87188AC8
:105190008091FE0687FF02C081E0888B8091FA062D
:1051A000898B423019F0443009F06FC0809182063B
:1051B000882309F46AC0F901F084EC81FD815C80E8
:1051C0006D807E808F80A884C984DA84EB8440E07F
:1051D00049C011968D919C9112970817190709F0F3
:1051E0003FC08C915817E1F51B968C911B97981630
:1051F000B9F51C968C911C97B81691F5523041F474
:1052000013968D919C911497E817F90749F53DC0C5
:1052100013968C911397851519F514968C91149704
:105220008615F1F415968C9115978715C9F4169685
:105230008C9116978815A1F417968C9117978A155B
:1052400079F418968C9118978C1551F419968C91C5
:1052500019978D1529F41A968C911A978E15A9F025
:105260004F5F51964F1508F4B4CF59C0FD01DE01D0
:10527000119681E10D9001928150E1F7D9011896C4
:105280008C9118978F5F18968C939091FF06809160
:105290000207882321F4809182068823E1F5DB014F
:1052A000ED91FC9187E180838091E20681839F01EB
:1052B0002E5F3F4FAE014F5F5F4F81E1DA010D90EE
:1052C000AD01D9010D929D018150C1F78091FF067A
:1052D000838B892F877059F4892F90E080779070A5
:1052E00024E0959587952A95E1F7882331F0809100
:1052F000000790910107958B848B80910207868B24
:105300008091030790910407908F878B89E097E045
:105310000E94E00909C0CB010E94AB0905C0E4E08E
:10532000EF1508F4B2CFA2CF61960FB6F894DEBFA6
:105330000FBECDBFCF91DF911F910F91FF90EF90E6
:10534000DF90CF90BF90AF909F908F907F906F90A5
:105350005F900895FB0140E02081318128173907D3
:1053600009F441E0842F0895EF92FF920F931F9369
:10537000DF93CF9300D000D0CDB7DEB7F82E8B01EE
:105380001092060780918A06823029F4FB01808101
:10539000873059F406C0833041F4FB0180818630A8
:1053A00021F48F2D0E94A62E2CC1F8018081883017
:1053B00009F419C1893098F4833009F445C0843068
:1053C00038F4813009F468C0823009F018C1E4C0B3
:1053D000843009F490C0853009F011C1FBC08B30D6
:1053E00009F489C08C3038F4893009F4ECC08A3073
:1053F00009F005C1FFC08C3009F4FCC08D3009F004
:10540000FEC0F80186818823B9F01682FF2021F0C2
:10541000F7E8FF1609F0F3C08AEA99E29A838983D4
:10542000F801818192819C838B8380E796E0BE01A5
:105430006F5F7F4F0E94750AF801818192816F2D05
:1054400043810E945020DBC0F80186818823B1F09F
:105450001682FF2019F0F7E8FF16B1F48AEA99E204
:105460009A838983F801818192819C838B8380E771
:1054700096E0BE016F5F7F4F0E94750AF80181813F
:1054800092816F2D0E94251E80910507813009F0C1
:10549000B6C00E94AF24B3C0F9EEFF1619F091EE2A
:1054A000F91649F4F801818192816F2D4FEF5FEF7A
:1054B0000E94D412A4C0809381064091D2065091DC
:1054C000D30660E070E094E0440F551F661F771F1D
:1054D0009A95D1F780E020E030E005E213E1EE2478
:1054E000FF240E941706882309F48BC080E090E017
:1054F0000E94251386C0F801818192810E94AB0928
:1055000080918106813009F47CC0F801808184306B
:10551000C1F4F7E8FF1699F0E0919206F091930636
:105520000190F081E02D83E28083F1826091920608
:105530007091930689E097E00E94E00960C082E0E4
:1055400009C089EEF81609F45AC091EEF91609F46B
:1055500056C083E080938106409183065091840673
:1055600060E070E084E0440F551F661F771F8A9546
:10557000D1F780E020E030E008EE17E2EE24FF24CF
:105580000E94170691E0909306078823D1F180E0EE
:1055900090E00E94E82735C0F8011682FF2019F03C
:1055A000F7E8FF1661F58AEA99E29A838983F801A0
:1055B000818192819C838B8380E796E0BE016F5F3F
:1055C0007F4F0E94750AF801618172818F2D0E94C0
:1055D000972315C0F801818192810E94AB098EEE5C
:1055E0000E94C92F0CC0F801618172818F2D0E9429
:1055F000012F05C0F801818192810E94AB090E94B0
:105600008C230F900F900F900F90CF91DF911F91EF
:105610000F91FF90EF900895EF92FF920F931F93D9
:105620001092CA06809175068823C9F480910707F5
:105630008823A9F488E00E948812883071F083E002
:1056400040E850E060E070E020E030E00CE01BE279
:10565000EE24FF240E94170602C00E948C231F9193
:105660000F91FF90EF900895DF92EF92FF920F93CA
:105670001F93CF93DF93EC01E881F981E680F780F7
:1056800000851185E114F1040105110539F480E06C
:1056900090E00E940C2BE881F98147C0809181063F
:1056A0008823F1F580918A068823D1F50E9467232B
:1056B00086E00E948812D82E81E08093CA0683E09B
:1056C0000E943D04882319F083E00E94080584E0CD
:1056D000EE0CFF1C001F111F8A95D1F783E0B80163
:1056E000A70120E030E00CE01BE2EE24FF240E9442
:1056F0001706882381F0E881F98181E2808388EEB2
:10570000818389E097E0BE010E94E00980E090E09B
:105710000E940C2B12C0E881F98186E0D81629F08E
:1057200081E2808382EF818303C081E280831182E2
:1057300089E097E0BE010E94E009DF91CF911F91BF
:105740000F91FF90EF90DF900895BC0189E097E002
:105750000E94E00980917F068093F60584E066EF61
:1057600075E00E944425809191068093F50580E0C4
:1057700065EF75E00E94442510928A060E948C23F2
:105780000895CF93DF93E091D406F091D506C081C0
:10579000D181DE01A956BF4FFA83E983882339F00E
:1057A00087E088838C934AE023E038E013C086E0EA
:1057B00088838C9318979D0145E456E088E0FA01B0
:1057C0000190AF01F90101929F018150C1F742E1BF
:1057D00023E438ECFD018FEF9FEF92938293329791
:1057E00091838083159780918D068C938F5F809332
:1057F0008D063E932E93FD014293F887EF83CE01F1
:1058000062E070E040E00E94B00D882311F080E07B
:1058100003C081E080930607DF91CF9108951F9325
:10582000DF93CF930F92CDB7DEB710918A06123077
:1058300069F01330A1F0113021F58823E9F41093B9
:1058400006078091F7050E94240E1BC08823A1F44F
:1058500081E00E94C12B8823A1F4198308C088230A
:1058600059F40E94C12B882361F482E08983CE0120
:1058700001960E94532D05C08091F5058F5F80939E
:10588000F5050F90CF91DF911F9108950F931F930E
:105890008C018091D4069091D5060E94AB0910929C
:1058A000D5061092D406A0919206B0919306ED9180
:1058B000FC9111978BE18083118283E082831482B3
:1058C000158216821782108689E097E0BD010E943A
:1058D000E00910928A060E948C23C8010E94AB093D
:1058E00080E56CEF76E00E9444258091010790915D
:1058F00002078F5F9F4F29F083E561E077E00E9408
:1059000044258091FE069091FF069093C9068093EE
:10591000C8068091DE069091DF0694FF05C084E002
:1059200063E077E00E94442580E060E077E00E9439
:1059300044250E940F2C1F910F910895EF92FF9222
:105940001F93CF93DF93182F7B01FB01C081D1817F
:1059500084E066EF75E00E94442540918A065091EC
:1059600082062091F50551C0423011F0443031F4E7
:10597000552321F08885853008F04AC0133021F482
:105980008885882309F072C0322F3F5F8C819D810A
:10599000AE81BF81022E04C0B695A79597958795D5
:1059A0000A94D2F781709070892B71F12093F505DC
:1059B000113021F482E080938A0604C0133011F480
:1059C00010938A0680E065EF75E00E944425182F49
:1059D0008823B1F08091D4069091D5060E94AB093E
:1059E0001092D5061092D4060E948C238AEE8983E9
:1059F000188689E097E0B7010E94E00910928A06B4
:105A0000812F0E940F2C49C0232F2B3108F4ACCFDB
:105A10002093F505113039F0113018F01330E9F505
:105A200027C0198237C08091D4069091D5060E9474
:105A3000AB091092D5061092D40680918206882375
:105A400039F08885853010F08AEF05C0882311F081
:105A5000198202C08AEE898380E56BEC76E00E94B1
:105A60004425809192069091930615C02093F505E8
:105A70008091D4069091D5060E94AB091092D5066C
:105A80001092D4068885882311F0198202C08AEE0C
:105A900089831886C7010E94A52BDF91CF911F91A2
:105AA000FF90EF900895CF93DF93C0919206D0912D
:105AB00093069881298180918A068250833020F54F
:105AC000E92FF22F21E030E040E050E00090F505B2
:105AD00004C0220F331F441F551F0A94D2F720958C
