:100000000C94D1000C94F0000C94F0000C94F000CF
:100010000C94F0000C94F0000C94F0000C94F000A0
:100020000C94F0000C94F0000C94F0000C94F00090
:100030000C94F0000C94F0000C94F0000C94F00080
:100040000C94F0000C94F0000C94F0000C94F00070
:100050000C94F0000C94F0000C94F0000C94F00060
:100060000C94F0000C94F0000C94F0000C94F00050
:100070000C94F0000C94F0000C94F0000C94F00040
:100080000C94F0000C94F0000C94F0000C94F00030
:100090000C94F0000C94F0000C94F0000C94F00020
:1000A0000C94F0000C94F0000C94F0000C94F00010
:1000B0000C94F0000C94F0000C94F0000C94F00000
:1000C0000C94F0000C94F0000C94F0000C94F000F0
:1000D0000C94F0000C94F0000C94F0000C94F000E0
:1000E0000C94F0000C94CB020C94D5020C94C10239
:1000F0000C946B020C9496020C94DF020C94400258
:100100000C94F3020C94C3070C94EC070C94F000CD
:100110000C94F0000C94F0000C94FD020C94E90295
:1001200003020201010000FFFEFDFCFBF9F7F4EF02
:10013000A018B81332137921A11F3B1ED6263524EF
:10014000A324B523772A002D0000712E3B27000041
:100150005617661746171C1735175C167516FE16C8
:10016000000000003416E515AE16BA154A16D5156E
:1001700016160716C6152516010401010102010114
:100180000101010101010101040108020101010154
:100190000201010201020101020102020101010149
:1001A000080011241FBECFEFD1E4DEBFCDBF12E0A7
:1001B000A0E0B2E0E6EBF7E600E00BBF02C007907C
:1001C0000D92A430B107D9F717E0A4E0B2E001C066
:1001D0001D92A130B107E1F70E9410020C94D933AF
:1001E0000C940000089582E090E061E070E00E94CD
:1001F0000A080895EF92FF920F931F9382E090E018
:1002000060E070E00E940A0884E040E251EA67E0A2
:1002100070E020E030E003EF10E0EE24FF240E94C5
:1002200042061F910F91FF90EF900895EF92FF9279
:100230000F931F937C01E0910402F0910502309727
:1002400009F1809106028217E9F480910702831771
:10025000C9F4809108028417A9F4809109028517D6
:1002600089F480910A02861769F480910B0287173E
:1002700049F480910C028E1529F480910D028F159E
:1002800009F45DC000910E0210910F0201151105D5
:1002900001F1809110028217E1F48091110283171D
:1002A000C1F4809112028417A1F480911302851782
:1002B00081F480911402861761F4809115028717EA
:1002C00041F4809116028E1521F4809117028F154A
:1002D000B9F1EF2B19F4A0E0B0E004C0012B49F50F
:1002E000A1E0B0E08D010F5F1F4FFD01EE0FFF1F7A
:1002F000CD01880F991F880F991F880F991FE80F4C
:10030000F91FEC5FFD4F11830083FD01EE0FFF1F0E
:10031000EE0FFF1FEA0FFB1FEE0FFF1FEA5FFD4FFF
:10032000208331834283538364837583E682F7821B
:1003300007C0C7010FEF1FEFEE24E39403C08F0146
:10034000C701EE240E949A311F910F91FF90EF9008
:100350000895882339F481E090E060E070E00E9425
:100360000A08089581E00E9412310895AF92CF9259
:10037000EF920F938EEB9AEB64E140E02FE00FE0F9
:10038000EE24E394CC24AA240E9462300F91EF90D3
:10039000CF90AF900895DF93CF9300D0CDB7DEB765
:1003A000882349F419821A8283E5BE016F5F7F4F6B
:1003B0000E948B3203C081E00E9412310F900F9097
:1003C000CF91DF9108950F93DF93CF930F92CDB725
:1003D000DEB78823E9F4633521F481E0898381E481
:1003E00005C0613449F481E0898382E5BE016F5F15
:1003F0007F4F0E948B320FC0623551F481E040E0A4
:1004000058EF6FEF77E021E000E00E94953003C0E5
:1004100081E00E9412310F90CF91DF910F910895EA
:100420000E94CD32882311F00E9407030E94030826
:1004300080E090E060E070E00E940A0881E090E0D7
:1004400061E070E00E940A0882E090E061E070E004
:100450000E940A08789481E00E9412310E94B7320B
:10046000FDCF9093190280931802089590931B0278
:1004700080931A02089590931D0280931C020895A0
:100480001F920F920FB60F920BB60F9211242F935B
:100490003F934F935F936F937F938F939F93AF930C
:1004A000BF93EF93FF93E0911802F0911902099521
:1004B000FF91EF91BF91AF919F918F917F916F913C
:1004C0005F914F913F912F910F900BBE0F900FBEF8
:1004D0000F901F9018951F920F920FB60F920BB6A8
:1004E0000F9211242F933F934F935F936F937F93BA
:1004F0008F939F93AF93BF93EF93FF93E0911A0273
:10050000F0911B020995FF91EF91BF91AF919F91DF
:100510008F917F916F915F914F913F912F910F90AC
:100520000BBE0F900FBE0F901F9018951F920F9249
:100530000FB60F920BB60F9211242F933F934F9348
:100540005F936F937F938F939F93AF93BF93EF933B
:10055000FF93E0911C02F0911D020995FF91EF912C
:10056000BF91AF919F918F917F916F915F914F91CB
:100570003F912F910F900BBE0F900FBE0F901F90C9
:1005800018951F920F920FB60F9211240F900FBE65
:100590000F901F9018951F920F920FB60F92112473
:1005A0000F900FBE0F901F9018951F920F920FB6CD
:1005B0000F9211240F900FBE0F901F9018951F924D
:1005C0000F920FB60F9211240F900FBE0F901F9035
:1005D00018951F920F920FB60F9211240F900FBE15
:1005E0000F901F9018951F920F920FB60F92112423
:1005F0000F900FBE0F901F9018951F920F920FB67D
:100600000F9211240F900FBE0F901F9018951EB8D7
:100610008FEF8DB98FEF9FEF0E9404048EB180950C
:100620008EB9F8CFCF92DF92EF92FF920F931F9384
:10063000CF93DF937B018A016901892B11F088EE4A
:1006400019C0CA01860F971F8150904110F085E8AC
:1006500011C0C0E0D0E00AC0CE018E0D9F1D0E94E7
:100660006733F601EC0FFD1F80832196C017D10779
:1006700098F380E0DF91CF911F910F91FF90EF9061
:10068000DF90CF900895CF92DF92EF92FF920F9379
:100690001F93CF93DF938C017B016A01CB01800F05
:1006A000911F8150904110F085E816C0C0E0D0E065
:1006B0000FC0C8010E946733F601EC0FFD1F608177
:1006C000861719F0C8010E946F330F5F1F4F2196E4
:1006D000CE15DF0570F380E0DF91CF911F910F9170
:1006E000FF90EF90DF90CF9008950E940C06089540
:1006F0000E947E030E949F0380E008959FB7F894B4
:10070000E0E0F0E089E08093570084919FBF8F7014
:10071000823011F090E001C09FE080E80FB6F894BD
:1007200080936100909361000FBE80E1809335015A
:1007300080933401809333018093320108951092A5
:100740001E0210921F028FEF8093200280932102DD
:1007500080932202EDE0F6E09FEF948311821082F5
:10076000399686E0EA33F807C1F780E28093B60055
:1007700088EA8093DC008FE08093F4009093F3008C
:100780009093F2009093F10082E08093E0008091DA
:10079000DF0082608093DF0008950895FC0180915E
:1007A000DE0080FDFCCF2091E100822F2091E2004D
:1007B000922F2091E300A22F2091E400B22F24E099
:1007C000880F991FAA1FBB1F2A95D1F78083918399
:1007D000A283B3830895FC012091E900822F209128
:1007E000EA00922F2091EB00A22F2091EC00B22F73
:1007F00034E0880F991FAA1FBB1F3A95D1F7808359
:100800009183A283B3830895AC018436910518F0D7
:1008100060E070E01EC07FB7F89461E01AC057FD39
:1008200002C09A0102C02FEF3FE7C901880F991F4C
:10083000909581959F4F9093250180932401FABB59
:10084000E0932101D09BFECF421B530B109221015C
:1008500002C0F1E0E2E04115510509F761117FBFE7
:10086000089520E090E0FC01B3E0EE0FFF1FBA9581
:10087000E1F7E80FF91FE75FF94F84819581892B34
:1008800009F021E0822F0895AF92BF92CF92DF92BC
:10089000EF92FF920F931F938091200290E0FC0152
:1008A00013E0EE0FFF1F1A95E1F7E80FF91FE75F5E
:1008B000F94FA080B180C280D38080911E0288232E
:1008C00009F46BC0D092F800C092F700B092F60025
:1008D000A092F5008091DF0080FD08C081E0809348
:1008E000E0008091DF0081608093DF002091E100D3
:1008F000822F2091E200922F2091E300A22F2091DD
:10090000E400B22F9C01AD012F5F3F4F4F4F5F4F6F
:10091000DA01C9018A259B25AC25BD258070907020
:10092000A070B87F0097A105B10531F4A216B306F7
:10093000C406D506C0F109C0D601C501B77057700D
:10094000281739074A075B0770F180915D018830ED
:1009500068F5E0902302F0902402009125021091A6
:1009600026020894E11CF11C011D111DEA14FB0470
:100970000C051D05D9F48091E100282F8091E2003B
:10098000382F8091E300482F8091E400582F2E15D6
:100990003F054007510779F706C08091DF008E7F41
:1009A0008093DF0003C081E080931F021F910F91AD
:1009B000FF90EF90DF90CF90BF90AF9008951F937E
:1009C0001FB7F89480911F02882309F44CC010923D
:1009D0001F0230911E02332309F445C08091210289
:1009E0008F3F59F4809122028F3F39F48091200289
:1009F000809322028093210212C0209120028091D4
:100A0000220290E0FC0153E0EE0FFF1F5A95E1F740
:100A1000E80FF91FE75FF94F2087209322028091AA
:100A2000200290E0FC0143E0EE0FFF1F4A95E1F742
:100A3000E80FF91FE75FF94F8085809320028091CE
:100A4000220290E0FC0123E0EE0FFF1F2A95E1F760
:100A5000E80FF91FE75FF94F8FEF80873150309330
:100A60001E020E9444041FBF1F910895FF920F931E
:100A70001F93182F853010F08AE8C5C0FFB6F89490
:100A80000E94DF0400911E02002309F4C0C04091BF
:100A90002002242F842F302F1217F1F5212F30E060
:100AA000141781F4F901A3E0EE0FFF1FAA95E1F7F7
:100AB000E20FF31FE75FF94F8085809320020E94C9
:100AC000440418C090E0DC01E3E0AA0FBB1FEA95E4
:100AD000E1F7A80FB91FA75FB94FF90173E0EE0F57
:100AE000FF1F7A95E1F7E20FF31FE75FF94F80856B
:100AF00018968C93812F90E0FC0163E0EE0FFF1FAE
:100B00006A95E1F7E80FF91FE75FF94F8FEF8087EC
:100B1000015000931E0262C0822F90E0FC0153E05E
:100B2000EE0FFF1F5A95E1F7E80FF91FE75FF94F46
:100B300050853150822F09F46AC0252FADCF12178E
:100B4000D1F5209122021317B1F4121721F48FEF7F
:100B5000809322020DC0812F90E0FC0143E0EE0F54
:100B6000FF1F4A95E1F7E80FF91FE75FF94F80850E
:100B70008093210233C0842F90E0DC0133E0AA0F80
:100B8000BB1F3A95E1F7A80FB91FA75FB94F812F97
:100B900090E0FC0103E0EE0FFF1F0A95E1F7E80F7C
:100BA000F91FE75FF94F808518968C931217B1F4FF
:100BB0004093220213C0822F90E0FC0173E0EE0FFD
:100BC000FF1F7A95E1F7E80FF91FE75FF94F422F12
:100BD00020852F3F09F0B3CF80E00FC0812F90E038
:100BE000FC0163E0EE0FFF1F6A95E1F7E80FF91FC4
:100BF000E75FF94F1582148281E0FFBE882311F46C
:100C000089E801C080E01F910F91FF900895309115
:100C10002102232F432FDDCF1F930E94DF041FEFFC
:100C200025C06FB7F894822F90E0FC01B3E0EE0F7F
:100C3000FF1FBA95E1F7E80FF91FE75FF94F20852D
:100C4000448155818681978110871582148217828D
:100C500016822F3F09F43FEF6FBF4115510551F048
:100C60003093220220932102FA0109953091220249
:100C7000209121022F3FA9F63093220220932102D6
:100C80001F9108952F923F924F925F926F927F92A1
:100C90008F929F92AF92BF92CF92DF92EF92FF928C
:100CA0000F931F93DF93CF9300D000D00F92CDB757
:100CB000DEB7582E1801FB82EA8204E0081710F410
:100CC0008AE820C12114310409F419C190E09D8300
:100CD0008C83FC01A3E0EE0FFF1FAA95E1F7E80F5C
:100CE000F91FE75FF94F84819581892B11F088E81E
:100CF00009C1E4E07695679557954795EA95D1F750
:100D00002115310529F02130310509F0F8C026C040
:100D1000DB01CA010897A109B109885F9F4FAF4F56
:100D2000B74008F0EEC02091E100822F2091E20050
:100D3000922F2091E300A22F2091E400B22F7A019C
:100D40008B01E80EF91E0A1F1B1F8FEF9FEFAFEFFD
:100D5000BFE0E822F9220A231B2320C02091E100F2
:100D6000822F2091E200922F2091E300A22F209168
:100D7000E400B22F8A019B01081B190B2A0B3B0BC5
:100D8000D901C801BF700897A109B109885F9F4FB9
:100D9000AF4FB74008F0B5C07A018B012FB7298358
:100DA000F8946FEF862E6FEF962E6FEFA62E6FE002
:100DB000B62E8E209F20A022B1220E94DF046090D8
:100DC00020023FEF631671F040901E02C62CD62C15
:100DD00077248FEF9FEFAFEFB7E0E822F9220A23E5
:100DE0001B2367C050922002EC81FD8153E0EE0F7F
:100DF000FF1F5A95E1F7AC81BD81EA0FFB1FE75F4A
:100E0000F94F60865AC0BFEFDB1609F44DC06D2D57
:100E100070E0FB0143E0EE0FFF1F4A95E1F7E60F9C
:100E2000F71FE75FF94F2081318142815381D5015E
:100E3000C40182279327A427B52780709070A070E3
:100E4000B87F0097A105B10539F4281539054A0581
:100E50005B0508F46FC007C05770E216F30604077D
:100E6000150708F467C0EC81FD8133E0EE0FFF1F2A
:100E70003A95E1F70C811D81E00FF11FE75FF94F13
:100E8000D0866D1419F45092200217C08C2D90E07A
:100E9000FC0123E0EE0FFF1F2A95E1F7E80FF91F91
:100EA000E75FF94F508609C08FEFDC2C7394CD2C8F
:100EB000D82E741408F4A7CF49C0EC81FD8193E0CB
:100EC000EE0FFF1F9A95E1F72C813D81E20FF31F92
:100ED000E75FF94F80829182A282B38235822482B9
:100EE0008A819B819783868380911E028F5F809386
:100EF0001E020E94440499819FBF80E003C088EED7
:100F000001C08BE80F900F900F900F900F90CF9132
:100F1000DF911F910F91FF90EF90DF90CF90BF90E6
:100F2000AF909F908F907F906F905F904F903F9089
:100F30002F900895FB0183E0EE0FFF1F8A95E1F7E4
:100F4000E60FF71FE75FF94F8085B0CF8C2D90E05B
:100F5000FC0103E0EE0FFF1F0A95E1F7E80FF91F10
:100F6000E75FF94F5086EC81FD8113E0EE0FFF1F24
:100F70001A95E1F7AC81BD81EA0FFB1FE75FF94FDE
:100F80008FEF80879ACF1F920F920FB60F92112486
:100F90002F933F938F939F938091E1009091E20074
:100FA0002091E3003091E400809323029093240287
:100FB000209325023093260280911E02882319F087
:100FC00081E080931F029F918F913F912F910F900D
:100FD0000FBE0F901F9018951F920F920FB60F9291
:100FE00011248F938FEF8093E4008093E30080932C
:100FF000E2008093E1008F910F900FBE0F901F9041
:10100000189581E00895729A6A9A739A6B9A749A05
:101010006C9A089581309105B9F08130910518F0EE
:101020000297B9F524C06130710549F0613071054E
:1010300020F06230710569F504C072980895729AC3
:1010400008958EB194E010C06130710549F06130AF
:10105000710520F062307105E1F404C073980895C1
:10106000739A08958EB198E089278EB908956130FA
:10107000710549F06130710520F06230710549F465
:1010800004C074980895749A08958EB190E18927E8
:101090008EB908956D9875980895892B19F021E0FF
:1010A00030E00AC08CB1282F30E085E036952795D6
:1010B0008A95E1F721703070C9010895BC0100974D
:1010C00021F08BED95E00E94930808958BED95E05B
:1010D00060E070E00E94280908950F931F93CF935A
:1010E000DF938BED95E00E948C08C3ECD5E007E21E
:1010F00012E0198308838BED95E0BE010E949308EE
:10110000249606561F4F85E0CB3DD80791F7DF9117
:10111000CF911F910F910895FC01118210821382CB
:10112000128214820895CF93DF93DC01EB019FB705
:10113000F89414968C911497882321F411967C933B
:101140006E9306C01296ED91FC91139773836283A0
:101150001396DC93CE9312971B821A8214968C916D
:1011600014978F5F14968C939FBFDF91CF91089552
:101170009F92AF92BF92CF92DF92EF92FF920F9326
:101180001F93CF93DF938C015B016A019FB6F894A4
:10119000DC0114968C91882319F4C0E0D0E04AC099
:1011A000F801C081D18141155105B1F07E0111C016
:1011B000D60112966D917C911397ED91FC918881E7
:1011C00099810995882359F47E018A819B819C012C
:1011D000E901209769F72EC0209761F17E01AB28C5
:1011E00049F5F801808191812A813B81C817D9078F
:1011F00019F43183208305C0D70113963C932E93B5
:101200001297F80182819381C817D90711F4F382EC
:10121000E282D80114968C911497815014968C9385
:1012200014978D919C911197892B21F413961C9200
:101230001E9212979FBECE01DF91CF911F910F9109
:10124000FF90EF90DF90CF90BF90AF909F90089568
:10125000AB0160E070E00E94B8080895AB0161E066
:1012600070E00E94B8080895CF93DF93EC010BC0A3
:10127000CE0160E070E00E942809009711F41C8202
:1012800005C00E945E088C81882391F7DF91CF9181
:1012900008950F931F93DF93CF93CDB7DEB72897B1
:1012A0000FB6F894DEBF0FBECDBF809141018F71A4
:1012B000883029F581E080934F0189E080934201D5
:1012C000CE0101960E94CE038E010B5F1F4F8091CD
:1012D0004F0180FD14C0C8010E94CE038D819E8104
:1012E000AF81B88529813A814B815C81821B930B48
:1012F000A40BB50B8D3D9105A105B10540F32896D2
:101300000FB6F894DEBF0FBECDBFCF91DF911F9116
:101310000F910895CF93DF93EC0180915606909141
:1013200057060F9709F033C0809139018D7F809364
:10133000390194E6809141018F718830C9F0915054
:1013400031F480913901826080933901EDCF000042
:10135000000000000000000000000000000000008D
:101360000000000000000000000000000000E2CFCC
:10137000C830D10519F0C330D10549F488E090E0B8
:10138000909357068093560628E030E0E1C18091A3
:10139000410190E08F7190709093570680935606AC
:1013A000C830D10509F44FC0C930D10560F4C4304C
:1013B000D10509F49AC0C630D10509F4A3C023971A
:1013C00009F0B9C157C0CF30D10579F0C031D1058E
:1013D00020F4299709F0AFC164C0C631D10509F4E2
:1013E000CBC0699709F0A7C136C183E08093420161
:1013F0000E944E3380936D0180916E019770887FBB
:10140000982B90936E010000000000000000000087
:1014100000000000000000000000000000000000CC
:101420000000000000008091390182608093390142
:1014300083E290E00E940404D0935706C0935606BE
:101440002FE030E085C1089709F475C188E08093EA
:101450004201000000000000000000000000000049
:10146000000000000000000000000000000000007C
:10147000000061C1089709F45EC183E080934201D6
:10148000000000000000000000000000000000005C
:10149000000000000000000000000000000000004C
:1014A0004AC18830910539F18930910520F40697B9
:1014B00009F041C106C08631910519F0499709F03C
:1014C0003AC189E080934201000000000000000062
:1014D000000000000000000000000000000000000C
:1014E000000000000000000026C18830910519F0BE
:1014F000099721F420C10E9449091DC184E080930D
:10150000420119C18930910569F08A30910520F4B2
:10151000089709F010C11AC08631910519F0499752
:1015200009F009C186E0809342010000000000003C
:1015300000000000000000000000000000000000AB
:1015400000000000000000000000F5C00E944909F2
:1015500086E08093420100000000000000000000CF
:10156000000000000000000000000000000000007B
:10157000000000000000DFC08830910509F18930CB
:10158000910520F4069709F0D6C030C08930910546
:1015900019F0499709F0CFC086E18093420100001D
:1015A000000000000000000000000000000000003B
:1015B0000000000000000000000000000000BBC0B0
:1015C0000E94490986E1809342010000000000006A
:1015D000000000000000000000000000000000000B
:1015E00000000000000000000000A5C089E080931A
:1015F00042010000000000000000000000000000A8
:1016000000000000000000000000000000000000DA
:10161000000080914101282F30E02F71307030930D
:101620005706209356062930310509F091C086E10E
:101630008093420100000000000000000000000054
:10164000000000000000000000000000000000009A
:101650000000000070C08830910509F457C089303F
:10166000910520F4069709F066C01BC089309105EA
:1016700021F0469709F05FC014C089E180934201D0
:10168000000000000000000000000000000000005A
:10169000000000000000000000000000000000004A
:1016A0004AC089E080934201000000000000000071
:1016B000000000000000000000000000000000002A
:1016C000000000000000000080914101282F30E060
:1016D0002F7130703093570620935606293031050C
:1016E00009F036C089E1809342010000000000004B
:1016F00000000000000000000000000000000000EA
:101700000000000000000000000015C00E94490910
:1017100089E1809342010000000000000000000009
:1017200000000000000000000000000000000000B9
:1017300000000000000080914101282F30E02F714F
:1017400030702F313105B9F3209356063093570688
:10175000C901DF91CF910895809147068823E9F070
:10176000809160068823C9F48091E0059091E1059D
:10177000892B39F48AE90E9466089093E1058093E9
:10178000E0058091E0059091E105892B31F0109200
:10179000470686E190E00E948A0980914C068823E2
:1017A00051F088E496E060E070E00E94280900971C
:1017B00011F00E94E80B80916006823019F08530AC
:1017C00031F403C00E94460D08950E94A10D0895B2
:1017D000EF92FF920F931F93CF93DF937C01DC0175
:1017E0000D911C91D8011796ED91FC91189780816D
:1017F00080935906C82FD0E02196CE0FDF1F988125
:1018000029812D3310F02CE303C0222309F421E0B9
:1018100092959695969593708FEF989FC00111249D
:1018200030E0FC01E29FC001E39F900DF29F900D1C
:10183000112464EB70E00E94DF326F3F710511F0FC
:1018400008F06FEF6883D8011296FC92EE92119720
:10185000C8010E94BE17DF91CF911F910F91FF9099
:10186000EF900895CF92DF92EF92FF920F931F9324
:10187000CF93DF93E091E005F091E105309709F413
:101880004AC0C081D181C0904701D0907B01D7FC74
:1018900042C082E0D80E0AE910E00D191109EEEFFE
:1018A000DE0E0C0F1D1FED2CFF2497012F5F3F4F05
:1018B000C80160E871E0A9010E945E33F801D2928C
:1018C000F887EF83EE0EFF1EF701C28280914C0174
:1018D0008F7780934C0180914C01806880934C01FC
:1018E0006091E0057091E10588E496E00E9493081C
:1018F0008AE90E9466089093E1058093E005892BB0
:1019000039F489E090E00E948A0981E080934706DB
:1019100080E480934F01DF91CF911F910F91FF9051
:10192000EF90DF90CF9008951F93109160061130D3
:10193000E9F4809142018295869587708093E20553
:101940001092E30582E0809360068091E00590911B
:10195000E105892B39F489E090E00E948A0910930F
:10196000470604C086E190E00E948A091F9108950D
:101970000F931F93CF93DF93EC018B01442349F026
:1019800090916C01809155068295807F9F70892B84
:1019900003C080916C018F7080936C01023011053F
:1019A00098F4442369F090916C0180914D06880F62
:1019B0008E70917F892B80936C0110926F0117C0FC
:1019C00080916C018E6011C0809151068295807F5C
:1019D00090915406892B80936F0190916C018091B6
:1019E0004D06880F8E70917F892B80936C0189E161
:1019F00090E00E948A094997D1F70130110551F40E
:101A000080915906833118F080E492E005C080E8A7
:101A100090E002C089E090E00E9404041FB7F894AF
:101A200080913901826080933901809139018D7FE5
:101A300080933901288130E02150304080E891E0E6
:101A4000BE01A9010E945E3381E0809360061FBF42
:101A5000DF91CF911F910F910895FC018091600655
:101A6000882311F086E80895F0935306E093520618
:101A70008781908590935B0680935A06009711F4B6
:101A800088EE08950E94B80C80E0089510926006D8
:101A90008091E2059091E30583309105B9F084309F
:101AA000910528F4009731F00197E1F409C00597FA
:101AB000C9F412C0609152067091530680E017C0BD
:101AC000609152067091530687E811C060915206EA
:101AD0007091530681EE0BC06091520670915306CF
:101AE00089EE05C0609152067091530685E80E9408
:101AF000F7280895909147018091E405891710F423
:101B00009093E4058091E5059091E605A091E705A5
:101B1000B091E8050197A109B1098093E50590937B
:101B2000E605A093E705B093E8050097A105B10588
:101B300021F08FEF80934701089585E08093600640
:101B40000895809155018F77809355018CE480939F
:101B50004E011092600686E190E00E948A09909101
:101B6000E405983320F08FEF8093E4050AC08FEFEF
:101B7000989FC001112467E370E00E94DF326093F8
:101B8000E4058091E4050E94CA2C08950F931F93E9
:101B9000082F80916006882351F08091560690911D
:101BA00057060F9711F086E847C081E845C080913D
:101BB000550180688093550110E110934F018AE729
:101BC0009DE00E943B0210934E0186E090E00E944F
:101BD0008A09069751F0809155018F7780935501BE
:101BE0008CE480934E0185E827C084E080936006F2
:101BF0001092E40580EC93E0A0E0B0E004C0880F10
:101C0000991FAA1FBB1F0A95D2F780549C4FAF4F54
:101C1000BF4F23E0B695A795979587952A95D1F75D
:101C20008093E5059093E605A093E705B093E8055A
:101C30008FEF8093470180E01F910F910895282F27
:101C400085FD03C0982F9F7304C0982F91959F71B5
:101C50009195E0E2F1E08491891734F03F96849108
:101C6000981714F0822F0CC0803E3CF080323CF478
:101C700087FF06C08F71806203C080E201C08FE1E0
:101C80008068089584E080934D0623E020935406F5
:101C90008FEF9FEF90934306809342069093460602
:101CA000809345068BE080934F061092410680E0BA
:101CB00098EFAFEFB7E080935C0690935D06A0933A
:101CC0005E06B0935F068AE091E0909340068093B1
:101CD0003F068AE08093580682E080934E0685E0B6
:101CE000809351062093550683E80E941F0E80932F
:101CF000360681E08093440610925006089585FDD3
:101D000003C0982F9F7304C0982F91959F71919550
:101D1000E0E2F1E080E02491921724F029173CF4EE
:101D2000815008958F5F31968031A9F780E0089542
:101D300080914206909143068093620190936301E3
:101D4000E7E3F6E0A4E6B1E081918D9386E0EF331E
:101D5000F807D1F78091450690914606809360017F
:101D60009093610190914801809144068295880F7B
:101D700080769F79892B8093480190916F018091A3
:101D800054068F70907F892B80936F0190916E0124
:101D900080915006880F880F880F8870977F892B55
:101DA00080936E0190916F01809151068295807FA2
:101DB0009F70892B80936F019091480180914F060D
:101DC0008F71907E892B80934801809136060E9406
:101DD0007F0E909145018F70907F892B80934501F4
:101DE0000895CF93DF93EB0190916006943009F44E
:101DF000EFC08E3431F0893541F4888180935506E7
:101E0000EBC0888180934D06E7C020915606309143
:101E100057062F30310511F481E8DFC08B3009F40B
:101E2000C9C08C3070F4823009F483C0833018F458
:101E30008823B1F115C0833009F48CC0843081F45B
:101E400064C0833511F1843528F48F3459F080351E
:101E500039F410C0873509F460C0803F09F487C0A9
:101E600084EFBBC098819093540680916F019F705E
:101E7000807F5BC08881998180934206909343065E
:101E80008093620190936301A7C0888199818093B8
:101E900045069093460680936001909361019CC033
:101EA000992309F095C080E098EFAFEFB7E0088084
:101EB00004C0B695A795979587950A94D2F7817037
:101EC0009070892B09F486C02830310519F428E078
:101ED00030E008C088E090E00E948A090897D1F7B6
:101EE00026E130E0988190934F06809148019F71E0
:101EF000807E982B909348012830310509F46CC0FE
:101F000086E190E00E948A0967C0992309F060C0C9
:101F10008881882309F460C05DC098819093510640
:101F200080916F019295907F8F70982B90936F01A5
:101F300053C08881809336060E941F0E8093360618
:101F40000E947F0E909145018F70907F892B809326
:101F5000450142C088818093440690914801829552
:101F6000880F80769F79892B8093480135C08881BE
:101F7000809337068981809338068A818093390659
:101F80008B8180933A068C8180933B068D81809370
:101F90003C068E8180933D068F8180933E06E7E369
:101FA000F6E0A4E6B1E081918D9386E0EF33F80787
:101FB000D1F712C088818093500690916E01880FEE
:101FC000880F880F8870977F892B80936E0104C0DB
:101FD00086E803C088EE01C080E0DF91CF910895CC
:101FE0000F931F93CF93DF93082F809139018D7F3B
:101FF0008093390180EF90E00E94040480913901C0
:102000008E7F8093390181E090E00E9404048091EA
:10201000390181608093390120E030E080914101F5
:102020002F5F3F4F93E0293E390711F485E85FC0E9
:1020300090E08F7190708830910581F790935706EA
:102040008093560680916E01806280936E0180912C
:102050004C01806880934C018CE480934E0186E0B3
:1020600090E00E948A0910924E01C0E0D0E010E09A
:1020700080914601CC0FDD1FCC0FDD1F90E08076F4
:10208000907025E0969587952A95E1F7C82BD92B76
:102090001F5F183069F783E090E00E948A09809101
:1020A0004F0110934F0180E480934F018CE48093A3
:1020B0004E01CE010E9453330E944E3380936D0136
:1020C00080916E019770887F982B90936E0180E0CD
:1020D0000E94A7110E949511002311F00E94420E48
:1020E0000E94980E109260061092470680E0DF91E1
:1020F000CF911F910F9108950E94F00F882361F0F6
:1021000085E8089588E496E060E070E00E94280980
:10211000009711F00E945E0880914C06882391F789
:1021200088E080934F0180E480934F0184E08093A6
:102130004F0180E008950F931F93CF93DF930E9488
:102140007803882309F0D0C08091390181608093A1
:102150003901809139018D7F809339018CE791E0BD
:102160000E940404809139018E7F8093390181E0BF
:1021700090E00E94040480913901816080933901CC
:1021800088E08093420120E080914101215009F4D0
:10219000ABC090E08F71907088309105A9F7909353
:1021A00057068093560680915C01833809F09CC0E5
:1021B000A1C0C7E3D6E00E944E33899386E0CF33B7
:1021C000D807C9F780913706309138064091390613
:1021D00060913A0670913B06F0913C06B0913D0645
:1021E00050913E06082F015091E0081708F090E04A
:1021F000832F815021E0831708F020E0192F180F5A
:1022000091E0181708F090E0292B842F815031E0DD
:10221000841708F030E0A22FA80F91E0A81708F06B
:1022200090E0392B862F815021E0861708F020E0BE
:10223000E32FE80F91E0E81708F090E0292B872FB3
:10224000815031E0871708F030E0622F680F91E08D
:10225000681708F090E0392B8F2F815021E08F17FD
:1022600008F020E0432F480F91E0481708F090E075
:10227000292B8B2F815091E08B1708F090E0322FA3
:10228000380F21E0381708F020E0922B51955917AC
:1022900079F43F3F69F44F3F59F46F3F49F4EF3F02
:1022A00039F4AF3F29F41F3F19F40E3F08F081CFF6
:1022B00081E00E94F00F8823B9F48DE891E10E943B
:1022C000360285E891E10E9431020E946D088AE998
:1022D0000E9466089093E1058093E00588E496E00B
:1022E0000E948C0880E001C085E8DF91CF911F91AA
:1022F0000F91089580E090E060E070E048E050E0E9
:1023000027E336E00E9412035DCF1F931FB7F894B6
:102310000E94940C1FBF1F9108951F931FB7F8943C
:102320000E94320C1FBF1F91089580915606909114
:1023300057060F9711F082E8089588E090E00E9418
:102340008A09089711F085E8089580E008958823A8
:1023500011F088EE089580915606909157060F97D8
:1023600011F481E8089580916006882381F4109229
:10237000470688E090E00E948A090897D1F78FE02D
:1023800090E00E948A090F9711F480E0089586E892
:102390000895982F80916006882311F086E80895AB
:1023A000983041F488E090E00E948A091092470634
:1023B00088E008958091E0059091E105892B31F046
:1023C00086E190E00E948A0986E0089581E080938A
:1023D000470686E00895CF93DF93DC019C91119628
:1023E0002C91119780916106882321F4CD010E94E0
:1023F0005E081AC0E92FF22F9F012F5F3F4F44EE76
:1024000056E088E0EA010990AE01E90109929E01D7
:102410008150C1F78091EF06818783E180838CEF43
:1024200096E0BD010E949308DF91CF910895DC01F1
:10243000ED91FC91119784E1808363835283418302
:102440008CEF96E0BD010E94930808950F931F93AF
:10245000DF93CF9300D0CDB7DEB7A0918506B091C2
:102460008606ED91FC91119784E180838BEE838346
:102470000FEF1FEF128301838CEF96E0BD010E94E6
:102480009308109274061A83098380E5BE016F5F7A
:102490007F4F0E9487241093BC060093BB061092C6
:1024A000C9061092CA061092CB061092CC06109262
:1024B000CD061092CE061092CF061092D0060E9442
:1024C000CF220F900F90CF91DF911F910F91089520
:1024D000EF92FF920F931F93E090C506F090C6060F
:1024E00080E061E040E020E030E000E010E00E94A9
:1024F000011C8823A9F4A0918506B0918606ED9170
:10250000FC91119784E1808381EE83838FEF9FEFAD
:10251000928381838CEF96E0BD010E94930819C0DD
:10252000A70160E070E084E0440F551F661F771F2D
:102530008A95D1F780E020E030E006E212E1EE2457
:10254000FF240E944206882321F080E090E00E9450
:1025500026121F910F91FF90EF900895FF920F9315
:102560001F93DF93CF9300D0CDB7DEB7F090F10685
:102570000E945E08FF20B1F583E56FEE76E00E94D1
:1025800087242091EF063091F0068091E406809335
:10259000C9068091E5068093CA068091E60680937D
:1025A000CB068091E7068093CC068091E806809365
:1025B000CD068091E9068093CE068091EA0680934D
:1025C000CF068091EB068093D00681E08093F806D9
:1025D0001092740680917F06833031F582E08093FB
:1025E0007F0622C0109274060FEF1FEF1A83098333
:1025F00080E5BE016F5F7F4F0E9487241093BC0669
:102600000093BB061092C9061092CA061092CB0620
:102610001092CC061092CD061092CE061092CF06E4
:102620001092D0062FEF3FEFE0918506F0918606DD
:10263000A081B18184E18C931396FC92139712963A
:102640003C932E9311978CEF96E0BF010E94930864
:102650000E94CF220F900F90CF91DF911F910F9189
:10266000FF9008950F931F93DF93CF93CDB7DEB7FD
:102670002C970FB6F894DEBF0FBECDBFAC01DE01C4
:102680001196FC01808191819C01F9018CE00190FF
:102690000D928150E1F7DA010D911C918091F806BD
:1026A0008250823020F0CA010E945E0856C082E04B
:1026B000F8018083D801AC56BF4FFD0181938A8514
:1026C0009B8512969C938E9311978C8582839D0196
:1026D00028503040D901E7E3F6E088E001900D9200
:1026E0008150E1F7F90138979F01BE016E5F7F4F7E
:1026F00088E0DB010D90BD01D9010D929D01815053
:10270000C1F7809142069091430692938293809103
:10271000800682938F5F8093800683E69CEC929381
:1027200082938BE18293D8011896FC93EE931797CE
:1027300016961C9283E696E0BA010E949308809157
:10274000820690918306F8019583848381E00E943C
:102750003104882311F40E9438202C960FB6F89487
:10276000DEBF0FBECDBFCF91DF911F910F910895B6
:10277000CF92DF92EF92FF921F93DF93CF93CDB76B
:10278000DEB72F970FB6F894DEBF0FBECDBFAC01FA
:102790007C01DE011196FC01808191819C01F9018F
:1027A0008FE001900D928150E1F7409385065093A0
:1027B00086068C81823019F48F8198851AC08F81AA
:1027C0008093C90688858093CA0689858093CB0645
:1027D0008A858093CC068B858093CD068C858093EB
:1027E000CE068D858093CF068E858093D0068EEFA2
:1027F0009FEF9093BC068093BB0680E5BE016B5FA4
:102800007F4F0E9487240E94AA22D701CD90DC909E
:1028100081E0F6018083F282E182EA56FF4F8083F5
:102820008F8581839F0128503040D901E7E3F6E08E
:1028300088E001900D928150E1F7F9018FEF9FEF51
:10284000929382938C81823051F48091BB06909157
:10285000BC069293829345E123E238EC11C0F90162
:102860003A979F0149EC56E088E0DA010D90AD01FE
:10287000D9010D929D018150C1F74BE123E23CEC5F
:1028800080914206909143069293829380918006B4
:1028900082938F5F80938006329322934293D60176
:1028A0001896FC93EE93179784E0BE016D5F7F4FFF
:1028B0000E948724182F80E0BE016E5F7F4F0E9428
:1028C0008724112371F4882361F4C60162E070E06B
:1028D00041E00E942D0D882321F481E08093F906C8
:1028E00012C0D701ED91FC9184E1808381EE838356
:1028F0008FEF9FEF928381838CEF96E0B7010E9468
:1029000093080E94CF222F960FB6F894DEBF0FBE19
:10291000CDBFCF91DF911F91FF90EF90DF90CF90CF
:102920000895FC018091EB058730F0F4A781B08514
:1029300012968C9112978695869583708230A1F4B9
:10294000E091E905F091EA053297F093EA05E0930A
:10295000E90516968D919C911797918380838091BC
:10296000EB058F5F8093EB0580E00895FC0180917B
:10297000EB058730F0F40780F085E02D82818695A5
:10298000869583708330A9F48091E9059091EA05DA
:1029900008979093EA058093E905DC01369688E074
:1029A00001900D928150E1F78091EB058F5F80934C
:1029B000EB0580E008959F92AF92BF92CF92DF9295
:1029C000EF92FF920F931F93DF93CF9300D000D02D
:1029D000CDB7DEB7FB01A080B180D50112967C9304
:1029E0006E9311978AE08C9378E9C72ED12CCA0C8C
:1029F000DB1C80918106882319F46DE0962E0EC0B1
:102A0000482F50E0C41AD50A5DE0952E980E27E8AD
:102A100036E0C601B90150E00E945E33809167063E
:102A2000882309F442C0D092EA05C092E9051092C9
:102A3000EB0586EB94E19A83898383E696E07E0139
:102A40000894E11CF11CB7010E942E090091EB05CE
:102A50001092EB0581E994E19A83898383E696E0FD
:102A6000B7010E942E092091EB05E091E905F09154
:102A7000EA05319710E0C80134E0880F991F3A95B4
:102A8000E1F7822B8083000F111F000F111F020F2F
:102A9000111D000F111F0093EB05900EE02FF0E0C9
:102AA000E095F095EC0DFD1D02C0F6011292DF01DC
:102AB0001E928091F806833019F42FEF3FE402C094
:102AC0002FEF3FE08091610681113068FD01329364
:102AD000229380914506909146062FEF8E3F9207F4
:102AE00099F4FD013A9786E0980E9F0147E356E07E
:102AF00088E0DA010D90AD01D9010D929D01815060
:102B0000C1F720E030EC04C09293829320E030E8DB
:102B100080914206909143069293829380917E0623
:102B200082938F5F80937E06329322939292D50197
:102B30001896FC93EE931797C50162E070E040E0B1
:102B40000E942D0D81E08093F9060F900F900F9059
:102B50000F90CF91DF911F910F91FF90EF90DF9039
:102B6000CF90BF90AF909F900895BC0180E00E94ED
:102B7000DB140895FC010190F081E02D62817381E6
:102B80008181448125810E94DE3208950F931F9335
:102B90008C01DC01ED91FC9181810E94A901C801A9
:102BA0000E945E081F910F9108950F931F938C014F
:102BB000DC01ED91FC91818162810E94E301C801F9
:102BC0000E945E081F910F910895AF92BF92CF921D
:102BD000DF92EF920F931F935C01DC01ED91FC916A
:102BE0000481158126813781818162814381E0845E
:102BF00039966F010E94B601C5010E945E081F91BF
:102C00000F91EF90DF90CF90BF90AF9008950F930A
:102C10001F938C01DC01ED91FC9181810E94DD32DA
:102C2000C8010E945E081F910F9108950F931F9392
:102C30008C01DC01ED91FC9181810E94CB01C801E6
:102C40000E945E081F910F9108950F931F938C01AE
:102C5000DC01ED91FC9181810E94DC32C8010E946F
:102C60005E081F910F9108950F931F938C01DC0153
:102C7000ED91FC912181328143815481658176817E
:102C8000878190850E94DB32C8010E945E081F91F7
:102C90000F9108950F931F938C01DC01ED91FC912E
:102CA000818162813396AF010E94DA32C8010E94AD
:102CB0005E081F910F910895EF92FF920F937C0190
:102CC000DC01ED91FC912181328143815481658148
:102CD00076818781908501850E94D932C7010E9443
:102CE0005E080F91FF90EF9008950F931F93DF936D
:102CF000CF93CDB7DEB72B970FB6F894DEBF0FBEDC
:102D0000CDBF8C01DC01ED91FC91828189838381AF
:102D100094819B838A839E012C5F3F4FAF014B5F61
:102D20005F4F88E0DA010D90AD01D9010D929D0150
:102D30008150C1F78181BE016F5F7F4F0E94D83201
:102D4000C8010E945E082B960FB6F894DEBF0FBE36
:102D5000CDBFCF91DF911F910F9108950F931F93D6
:102D6000DF93CF93CDB7DEB766970FB6F894DEBF8B
:102D70000FBECDBF8C01DC01ED91FC918181928170
:102D80009B838A83838189839E012C5F3F4FAF01A0
:102D90004C5F5F4F88E0DA010D90AD01D9010D92D3
:102DA0009D018150C1F7818192819E878D878485A5
:102DB0008C879E01215F3F4FAF01435F5F4F88E0EB
:102DC000DA010D90AD01D9010D929D018150C1F73D
:102DD000CE010196BE01645F7F4F45890E94F200DB
:102DE000C8010E945E0866960FB6F894DEBF0FBE5B
:102DF000CDBFCF91DF911F910F910895CF92DF92B8
:102E0000EF92FF920F936C01DC01ED91FC91BF01F9
:102E10006E5F7F4F24893589E788F08C81814389F3
:102E200006890E94D732C6010E945E080F91FF906A
:102E3000EF90DF90CF900895EF92FF920F937C0177
:102E4000DC01ED91FC9121813281438154816581C6
:102E500076818781908501850E941601C7010E94B5
:102E60005E080F91FF90EF9008950F931F938C01D0
:102E7000DC01ED91FC918181928163810E94D632C7
:102E8000C8010E945E081F910F9108950F931F9330
:102E90008C01DC01ED91FC91818162810E94D5322F
:102EA000C8010E945E081F910F9108950F931F9310
:102EB0008C01DC01ED91FC91818162810E94D43210
:102EC000C8010E945E081F910F910895CF92DF9272
:102ED000EF920F93DF93CF93CDB7DEB766970FB620
:102EE000F894DEBF0FBECDBF6C01DC01ED91FC910B
:102EF00081818983828193819B838A839E012C5F58
:102F00003F4FAF014C5F5F4F88E0DA010D90AD019C
:102F1000D9010D929D018150C1F784858C878585EB
:102F200096859E878D879E01215F3F4FAF01415F50
:102F30005F4F88E0DA010D90AD01D9010D929D013E
:102F40008150C1F7228D338DCE010196BE01645FA1
:102F50007F4F418D0789E08C0E94FA00C6010E94D4
:102F60005E0866960FB6F894DEBF0FBECDBFCF9158
:102F7000DF910F91EF90DF90CF900895FC011082C8
:102F8000618172816115710521F080EC96E00E94EB
:102F900093080895282F8091EF069091F00696FFF0
:102FA0001BC0222359F42091E2063091E306809160
:102FB0004206909143062817390759F02091E206FE
:102FC0003091E3068091BE069091BF06281739071D
:102FD00019F48EEE0E940C2F08950F931F93CF9338
:102FE000DF93282F8091EF069091F00696FFA3C003
:102FF000222359F42091E2063091E30680914206A3
:10300000909143062817390761F02091E20630912C
:10301000E3068091BE069091BF062817390709F094
:103020008AC02091E4063091E5068091BB0690911C
:10303000BC062817390709F47EC09091E4068091F8
:10304000C906981759F59091E5068091CA06981718
:1030500029F59091E6068091CB069817F9F49091A6
:10306000E7068091CC069817C9F49091E806809104
:10307000CD06981799F49091E9068091CE0698179D
:1030800069F49091EA068091CF06981739F49091EF
:10309000EB068091D006981709F44DC08AE90E948A
:1030A00066088C01009709F446C0DC012D913C9123
:1030B00085E0F901808312830183E956FF4F808305
:1030C000AF0148505040FA01A7E3B6E088E00D9008
:1030D00001928150E1F7FA013897EF01A9ECB6E0CF
:1030E00088E00D9009928150E1F78091420690911D
:1030F0004306929382938091800682938F5F8093A0
:10310000800683E69CEC9293829388E18293D901B6
:103110001896FC93EE931797C90162E070E041E0C6
:103120000E942D0D882321F481E08093F90603C0CD
:10313000C8010E945E08DF91CF911F910F91089501
:103140000F931F93CF93DF93EC01E881F981A7815F
:10315000B0857C917093D406FD01E70FF11D81814C
:103160008093ED0611964D915C9112975093D20683
:103170004093D10613968C9113978093D5068D01B9
:103180000C5F1F4F652F6295669566956370352FAE
:1031900036953695337019F4F80120E049C014963D
:1031A0008D919C9115979093D8068093D706FD0139
:1031B00036963230E1F41092D9061092DA06109267
:1031C000DB061092DC061092DD061092DE061092ED
:1031D000DF061092E00616968D919C9117979093BA
:1031E000DA068093D906FD01389624E021C03330F9
:1031F00011F022E01DC016968C9116978093D90687
:1032000081818093DA0682818093DB0683818093BB
:10321000DC0684818093DD0685818093DE068681CD
:103220008093DF0687818093E006FD013E962AE0C9
:10323000662309F447C046FD08C08191919190939F
:10324000E3068093E2062E5F08C08091D706909136
:10325000D8069093E3068093E2066230C1F41092A0
:10326000E4061092E5061092E6061092E706109228
:10327000E8061092E9061092EA061092EB068081A9
:1032800091819093E5068093E4062E5F1BC0633026
:10329000C9F480818093E40681818093E506828170
:1032A0008093E60683818093E70684818093E80615
:1032B00085818093E90686818093EA0687818093E1
:1032C000EB06285F972F9550921B9093EE06609324
:1032D000E1063093D60643FDCEC1D801A20FB11D41
:1032E000842F87708093D306833021F48C91809350
:1032F000EC0663C0813009F451C0813020F0833086
:1033000009F0B9C15AC08D919C9111979093F00624
:103310008093EF0612968C9112978093F106877036
:1033200011F493E002C0982F9C5FFD01E90FF11D9D
:1033300080818093F206292F2F5F382F377090E01D
:103340008077907044E0959587954A95E1F7482FEE
:10335000332311F4882389F0CD01820F911D9093BE
:10336000F4068093F306332311F0330F230F442325
:1033700021F0440F440F440F240F8091EE062817CC
:1033800050F4821B8093F506A20FB11DB093F7068F
:10339000A093F60674C11092F50671C1992351F0FD
:1033A000963718F086E78093EE06B093F006A09368
:1033B000EF0665C11092EE0662C18091EC06833083
:1033C000E1F0843030F48130C1F0823009F053C133
:1033D00007C0883008F453C1883009F04CC112C0CE
:1033E00011968D919C9112979093F0068093EF0621
:1033F00013968C918093F10642C111968C91809323
:10340000EF063DC111968D919C9112979093F00615
:103410008093EF0613968D919C9114979093F206EA
:103420008093F10615968C9115978093F306169666
:103430008D919C9117979093F5068093F40654FF15
:103440001EC118968C918093F60619C18091D306FF
:10345000833061F48091EC06843011F0873031F4D0
:1034600080EC96E0BE010E9493080FC18091740623
:10347000813009F4EBC0813020F0843008F0FBC0CB
:10348000A3C080917D06882309F06AC09091F80658
:10349000933080F1933009F0EEC08091D3068130F3
:1034A00009F4E5C0813010F1833009F0E4C0809167
:1034B000EC06843009F4AFC0853038F4813009F46B
:1034C000A0C0833009F0D7C009C0863009F4AEC06F
:1034D000863040F0873009F0CEC0B0C0CE010E94E7
:1034E0000A1ED3C08EEE0E940C2FC5C080E00E9441
:1034F000CA17C1C08091D306813009F4B8C08130A9
:1035000020F0833009F0B7C00CC08091FB068823FF
:1035100009F4B1C0992309F4AEC080E00E94ED1710
:10352000AAC08091EC06843009F475C0853038F467
:10353000813009F466C0833009F09DC004C0873033
:1035400009F05AC009C0CE010E940A1E8091F806F7
:10355000813009F09AC05CC0923009F08CC06EC016
:10356000833009F1843019F0823009F084C08091F1
:10357000D306882309F07FC08091F806833019F4C0
:1035800081E00E94CA178091FB06882341F0809158
:10359000F8068150823018F481E00E94ED17CE01C8
:1035A0000E949F2772C08091D306833009F063C0C8
:1035B0008091EC06883009F05EC082E00E943605FA
:1035C000CE010E94892B61C00E940A278091D306F8
:1035D000813009F44CC0833009F04DC08091EC0675
:1035E0008430C9F0853030F4813059F0833009F0EF
:1035F00042C00BC08730F1F0883021F18630D9F518
:1036000015C0CE010E94EB1140C0CE010E940A1EDF
:103610000E94F2233AC080916706882321F0CE01F0
:103620000E94C41C32C00E94A61B25C0CE010E946D
:1036300052242BC08091F8068230E9F4CE010E941A
:10364000B51523C0CE010E94512F1FC08091D30613
:10365000833059F48091EC06823069F480E00E9456
:103660003605CE010E94AE1210C0813021F4CE0189
:103670000E9454200AC0CE010E945E0806C08091BC
:10368000F906882309F0E2CEF1CEDF91CF911F91A8
:103690000F910895DB01FC018681882399F407804E
:1036A000F085E02D8281869586958370823051F475
:1036B00040E02D913C91868197812817390719F4B4
:1036C00041E001C040E0842F0895DB01FC018681C8
:1036D0008823C9F50780F085E02D8281869586953F
:1036E0008370833081F520E09C918681981761F585
:1036F00011969C9111978781981731F512969C919C
:1037000012978085981701F513969C9113978185E0
:103710009817D1F414969C91149782859817A1F468
:1037200015969C9115978385981771F416969C9120
:1037300016978485981741F417969C91858598175C
:1037400019F421E001C020E0822F08950F931F9308
:10375000CF93DF938AE90E9466088C01009709F4F1
:103760004BC0DC01CD91DC918CE088831A83098306
:103770001E82FE01E856FF4F8091E106833089F4F6
:1037800038979F0144EE56E088E0DA010D90AD01D4
:10379000D9010D929D018150C1F721E03CE04FE03D
:1037A00009C08091E4069091E5069293829321E00E
:1037B00038E049E08091E2069091E306929382938B
:1037C0008091800682938F5F80938006329322934C
:1037D0004293F887EF83F8018081918161E070E086
:1037E00040E00E942D0D882321F481E08093F906AA
:1037F00003C0C8010E945E08DF91CF911F910F9115
:1038000008956F927F929F92AF92BF92CF92DF9274
:10381000EF92FF920F931F93CF93DF93D82E962EA4
:10382000C42E590138018AE90E9466087C0100977C
:1038300009F49BC0DC010D911C91DD2021F084E096
:10384000F801808303C08BE0D8018C93F801F282E9
:10385000E182E956FF4F84E0808320914506309154
:103860004606C9010296029710F0992069F0389730
:10387000EF01A7E3B6E088E00D9009928150E1F7EF
:1038800062E183E290EC05C0329322936CE083E224
:1038900090E8CC2061F020914206309143066216F8
:1038A000730629F06E5F3293229370E002C0806449
:1038B00071E022E0C21641F4AC015860D5018D914F
:1038C0009C919293829328C0B3E0CB1661F4AC0133
:1038D0005C6038976A5FEF01D50188E00D9009922E
:1038E0008150E1F719C02091BB063091BC064FEF23
:1038F0002E3F340729F0AC015860329322930CC05C
:10390000AC015C6038976A5FEF01A9ECB6E088E033
:103910000D9009928150E1F73297772339F0809129
:103920004206909143069183808302C07182608237
:103930008091800682938F5F80938006529342939A
:103940006293D8011896FC93EE931797C80162E032
:1039500070E041E00E942D0D882321F481E08093E6
:10396000F90604C0C7010E945E0880E0DF91CF9194
:103970001F910F91FF90EF90DF90CF90BF90AF908D
:103980009F907F906F900895EF92FF920F931F93F7
:10399000DF93CF9300D000D0CDB7DEB70E945E0892
:1039A0008091F806823008F453C08091E10682309D
:1039B00019F48AE49BE105C0833009F049C085E62B
:1039C0009BE19A83898384EE96E09C838B8383E6D4
:1039D00096E07E010894E11CF11CB7010E942E09BB
:1039E000DC01009781F00D911C911197F8018781FE
:1039F00090852091E2063091E306FC018481958157
:103A00002817390719F00E94A61B22C081E0F8018F
:103A10008683B283A18383E696E0B7010E942E09D4
:103A2000892B41F0D8011796ED91FC91189781816F
:103A300080618183C80161E070E040E00E942D0D4B
:103A4000882321F481E08093F90602C0F8011682F0
:103A50000F900F900F900F90CF91DF911F910F91CA
:103A6000FF90EF900895EF92FF920F931F93CF93E3
:103A7000DF937C01E801DC01ED91FC9186E180831C
:103A80006183428334832383CF010596423069F4F6
:103A90001582168217821086118612861386148666
:103AA000888199819683858307C0DC01F80188E0CD
:103AB00001900D928150E1F78CEF96E0B7010E94E2
:103AC0009308DF91CF911F910F91FF90EF90089590
:103AD0000F931F93DF93CF93CDB7DEB728970FB621
:103AE000F894DEBF0FBECDBFDC01062FED91FC9137
:103AF000119719821A821B821C821D821E821F82CC
:103B000018860780F085E02D1281169516951370A2
:103B1000123029F42681378129833A8310C08681A7
:103B2000898387818A8380858B8381858C83828545
:103B30008D8383858E8384858F8385858887809117
:103B4000F8068330C9F1823009F041C0123051F4D7
:103B5000268137818091BB069091BC0628173907D2
:103B600059F535C0133041F596818091C9069817F3
:103B700019F597818091CA069817F1F49085809184
:103B8000CB069817C9F491858091CC069817A1F4BB
:103B900092858091CD06981779F493858091CE0611
:103BA000981751F494858091CF06981729F495853C
:103BB0008091D006981759F0209142063091430623
:103BC000CD01602F412F8E010F5F1F4F16C08091D6
:103BD0004506909146060296209142063091430692
:103BE000029730F4CD01602F43E007E316E005C0F3
:103BF000CD01602F42E005E416E00E94331D2896B7
:103C00000FB6F894DEBF0FBECDBFCF91DF911F91ED
:103C10000F910895CF93DF939C01FC01C081D18166
:103C2000FE0185E18193A4EEB6E088E00D9001925B
:103C30008150E1F78091EF0689878CEF96E0B9011A
:103C40000E9493081092C9061092CA061092CB06E1
:103C50001092CC061092CD061092CE061092CF068E
:103C60001092D0068FEF9FEF9093BC068093BB0617
:103C7000DF91CF910895EF92FF920F931F93DF93FF
:103C8000CF93CDB7DEB72E970FB6F894DEBF0FBE39
:103C9000CDBF8C01DC01ED90FC90DE011196F701A7
:103CA0008EE001900D928150E1F7F70112830183BC
:103CB00083E08083EA56FF4F80838D858183389728
:103CC0009F0147E356E088E0DA010D90AD01D9018C
:103CD0000D929D018150C1F78A81823031F48D812E
:103CE0009E819293829333E10FC038979F01AE017A
:103CF0004B5F5F4F88E0DA010D90AD01D9010D9265
:103D00009D018150C1F739E18091420690914306AF
:103D1000929382938091800682938F5F8093800636
:103D20002A81922F990F990F80E08366906C92936D
:103D300082933293D7011896FC93EE9317971696B9
:103D40001C928091F8068250823008F060C08E8507
:103D5000882309F45CC08A818230D1F48D818B3450
:103D600009F041C08E818823F1F58F818823D9F530
:103D700088858823C1F589858823A9F58A858823C4
:103D800091F58B85882379F58C85882361F55BC057
:103D9000833009F058C09D818091C906981719F5A4
:103DA0009E818091CA069817F1F49F818091CB067D
:103DB0009817C9F498858091CC069817A1F4998535
:103DC0008091CD06981779F49A858091CE06981740
:103DD00051F49B858091CF06981729F49C8580919A
:103DE000D006981781F183E696E0B8010E94930807
:103DF0008091820690918306F7019583848381E008
:103E00000E9431048823F9F40E9438201CC00E94CB
:103E1000AA22D8018D919C9162E070E041E00E945D
:103E20002D0D882321F481E08093F9060CC02B81AD
:103E30003C81C80161EE4A818E010B5F1F4F0E94D9
:103E4000331D0E94CF222E960FB6F894DEBF0FBE10
:103E5000CDBFCF91DF911F910F91FF90EF9008950B
:103E6000DC01ED91FC911197E081E43278F4F0E00F
:103E7000EE0FFF1FE05DFE4F2591349121153105B6
:103E800019F0F901099508950E945E0808951F939D
:103E90008091F906882381F480917C06882361F063
:103EA00088E796E060E070E00E942809009721F022
:103EB0000E94301F11E001C010E08091C4068823E9
:103EC00059F080EC96E060E070E00E9428090097CD
:103ED00019F00E94301F11E0812F1F910895FC01FD
:103EE0008681882329F48481958101979583848331
:103EF00080E00895FC018681882311F020E006C04F
:103F000020E084819581892B09F421E0822F089596
:103F1000FB0120E0DC0113969C918081981709F445
:103F200021E0822F0895DC01ED91FC91119780E151
:103F30008083418362838CEF96E0BD010E949308E9
:103F40000895EF92FF920F931F93DF93CF9300D0CA
:103F500000D00F92CDB7DEB77C01FC01008111814A
:103F6000F801918182E18083998388E89FE19B83B6
:103F70008A83CE0101969D838C8383E696E0BE0101
:103F80006E5F7F4F0E942809009729F00E945E080B
:103F9000F801128203C087EEF80182838CEF96E06D
:103FA000B7010E9493080F900F900F900F900F9001
:103FB000CF91DF911F910F91FF90EF900895FF92A5
:103FC0000F931F93DF93CF9300D000D0CDB7DEB710
:103FD0008FE69FE19A83898383E696E08E010F5FE7
:103FE0001F4FB8010E942E098AE79FE19A838983B7
:103FF000F02E012F10E183E696E06F2D702F0E94C6
:104000002809DC01009721F19C9111962C911197C0
:10401000E92FF22F8081833049F08D3061F08230BA
:1040200051F780EFBD010E94DA22E5CFCD0160EFAC
:104030000E94681DE0CF8381E92FF22F10838183D6
:1040400080EF82838CEF96E0BD010E949308D3CF6E
:1040500080916706882311F00E9438200F900F90FE
:104060000F900F90CF91DF911F910F91FF900895C6
:10407000EF92FF920F931F9381E040E050EE61E0DA
:1040800070E020E030E00FED1FE1EE24FF240E94FD
:104090004206882321F080E090E00E94DF1F1F91FC
:1040A0000F91FF90EF9008950F931F93DF93CF939D
:1040B000CDB7DEB728970FB6F894DEBF0FBECDBFE1
:1040C000AC01DC019C9111962C918091EE06882325
:1040D00021F4CA010E945E08FFC0E92FF22F8091EF
:1040E000D506808F8091E106818382508230A8F4CA
:1040F0008091E2069091E306938382839F012C5F77
:104100003F4F64EE76E088E0DB010D90BD01D90100
:104110000D929D018150C1F70AC013821282148250
:104120001582168217821086118612861386208DBC
:1041300080916206281761F5948180916A0698172C
:1041400039F5958180916B06981711F596818091CC
:104150006C069817E9F4978180916D069817C1F461
:10416000908580916E06981799F4918580916F06DD
:10417000981771F4928580917006981749F4938589
:1041800080917106981721F4CA010E945E085AC0F6
:1041900020936206848180936A06858180936B06F2
:1041A000868180936C06878180936D0680858093DD
:1041B0006E06818580936F06828580937006838565
:1041C000809371062091D60624871786108A118A5B
:1041D000128A138A148A158A168A8091D7069091BA
:1041E000D80696878587233079F49F01215F3F4F5A
:1041F00069ED76E088E0DB010D90BD01D9010D92FB
:104200009D018150C1F70BC0223039F48091D9064D
:104210009091DA06908B878702C01686158680916A
:10422000ED06878B8091EE06818F8091EF0690914D
:10423000F006938F828F81E180838CEF96E0BA0144
:104240000E9493088091D10684FF46C08091F806B1
:10425000833009F443C08091E106823071F480918B
:10426000E4069091E5069A8389830091E206109115
:10427000E30680E060E042E021C0833019F58091E0
:10428000E40689838091E5068A838091E6068B8324
:104290008091E7068C838091E8068D838091E90602
:1042A0008E838091EA068F838091EB068887009148
:1042B000E2061091E30680E060E043E09E012F5F9C
:1042C0003F4F07C080E060E040E020E030E000E0E9
:1042D00010E00E94011C02C00E94CF2228960FB657
:1042E000F894DEBF0FBECDBFCF91DF911F910F912C
:1042F0000895CF92DF92EF92FF920F931F93DF9377
:10430000CF93CDB7DEB762970FB6F894DEBF0FBE7E
:10431000CDBF8C01DE011196FC01808191819C0151
:10432000F90182E101900D928150E1F78F8582FDC4
:1043300011C080917406882321F480917D06882322
:1043400049F09E85D801ED91FC9180E180839183B5
:1043500081EEAEC0F801E080F1808DE0D7018C9352
:104360008E8513968C93139716961C92888945E038
:10437000D42ED80EE8E9F0E0E81BF109EE0DFF1DA0
:104380009A81923051F437E0D32ED80E80914506B1
:10439000909146069293829312C0933081F438979D
:1043A0002DE0D22ED80E9F0147E356E088E0DA01D7
:1043B0000D90AD01D9010D929D018150C1F7209161
:1043C0004206309143068C819D812817390749F4B4
:1043D0008A81882331F08B81882319F040E450E0F2
:1043E00009C08A81882321F0B2E0DB0E3293229348
:1043F00040E050E08B81882311F1823039F46D2D3B
:104400006E5F8E819F819293829312C038976D2D3B
:10441000685F9F0196E0C92ED12CCC0EDD1E88E08E
:10442000D6010D906D01D9010D929D018150C1F70A
:1044300082E0D82ED60E8C819D81929382938091BA
:10444000800682938F5F80938006BA0161608F85BA
:1044500080FF02C0BA0161628889873608F0706106
:104460008B81382F330F330F20E04A81942F9295A0
:10447000990F990F907C80E0282B392B262B372B16
:10448000329322933296D7FC0BC03397D082D70158
:104490001896FC93EE9317978F8582FD10C028C065
:1044A0009E85D801ED91FC9180E18083918385EE1A
:1044B00082838CEF96E0B8010E9493083CC0809103
:1044C000F80682508230A0F483E696E0B8010E949C
:1044D00093088091820690918306F70195838483E7
:1044E00081E00E943104882331F50E94382023C0E6
:1044F0000E94AA22D70112961C930E931197C7010E
:1045000062E070E041E00E942D0D882321F481E0FB
:104510008093F90610C09E85D801ED91FC9180E151
:104520008083918381EE82838CEF96E0B8010E94B4
:1045300093080E94CF2262960FB6F894DEBF0FBE9A
:10454000CDBFCF91DF911F910F91FF90EF90DF9042
:10455000CF9008958091FA06813051F40E94951110
:10456000853831F081E090E00E94CD031092FA0688
:1045700008958091FA06882389F480E090E00E94F3
:10458000CD0380E00E94A711882321F481E080936D
:10459000FA06089581E090E00E94CD03089580918D
:1045A0006806882331F48091BD06882311F40E94A7
:1045B000B9220895DF93CF93CDB7DEB728970FB612
:1045C000F894DEBF0FBECDBF482F9B01DB01ED91FC
:1045D000FC910780F085E02DDE011196369688E08B
:1045E00001900D928150E1F7D901ED91FC918CE1A0
:1045F000808380914206909143069283818393E069
:1046000093838091370684838091380685838091D7
:104610003906868380913A06878380913B0680879E
:1046200080913C06818780913D06828780913E067D
:1046300083879487898185878A8186878B8187870D
:104640008C81808B8D81818B8E81828B8F81838BFE
:104650008885848B458B8CEF96E0B9010E94930886
:1046600028960FB6F894DEBF0FBECDBFCF91DF9175
:1046700008950F931F93182F1092F9061092F806C1
:104680001092FA0610927D0610927F061092740620
:10469000109262068FEF80936A0680936B06809378
:1046A0006C0680936D0680936E0680936F068093F0
:1046B0007006809371061092BD0688E00E94C911B1
:1046C0000FB7F89480E00E94360581E00E9436051D
:1046D00082E00E94360583E00E9436050FBF112359
:1046E00009F440C01092FB0682EC97E090937706A5
:1046F0008093760680E098E79093C6068093C5067F
:104700001092730610926106109281060E944E3339
:1047100080937E0684EF91E09093830680938206D7
:1047200081E08093750686E0809369061092C90641
:104730001092CA061092CB061092CC061092CD06AB
:104740001092CE061092CF061092D0068FEF9FEFF8
:104750009093BC068093BB060E944E3380938006E4
:10476000109268061F910F9108950F931F93CF9396
:10477000DF93EC01088119810E94AA22F8010181CE
:1047800080E090E00E94CD0380E0011181E00E9472
:104790007C10182F81E090E00E94CD03802F0E94B2
:1047A00039230E94CF2288E796E00E94340980ECEA
:1047B00096E00E9434098CEF96E00E94340983E66B
:1047C00096E00E943409E881F981118380E28083B8
:1047D0008CEF96E0BE010E949308DF91CF911F916C
:1047E0000F910895DF93CF9300D000D0CDB7DEB7FF
:1047F0000E94AA228FEF9FEF9A8389839C838B83E9
:1048000083E5BE016F5F7F4F0E94872480E5BE0174
:104810006D5F7F4F0E94872481E00E9439230E94B0
:10482000CF220F900F900F900F90CF91DF910895AE
:104830000E949B108823B9F40E940108882399F0F4
:1048400081E00E9439230E94CF2288E796E00E94EF
:104850008C0880EC96E00E948C0883E696E00E942B
:104860008C0880E0089585E80895FF920F931F93C8
:10487000182FF92E409142065091430689E0612F8E
:10488000792F20914F06009141060E94862F8823A0
:1048900029F481EE612F7F2D0E94DA221F910F9162
:1048A000FF900895CF93DF93EC01E881F9818AE1CD
:1048B0008193A4EEB6E088E00D9001928150E1F77B
:1048C0008CEF96E0BE010E949308DF91CF9108958E
:1048D000E82F853419F4809181060895883030F4EA
:1048E000E82FF0E0E858FE4F84910895805480321C
:1048F00028F4F0E0E05CFE4F84910895E03F10F46E
:1049000080E00895F0E0E055FF4F849108951F93F3
:10491000CF93DF93182FEB018091FA06813051F489
:104920000E94AA22812FBE010E94F10E182F0E9420
:10493000CF2204C0812F0E94F10E182F812FDF910A
:10494000CF911F9108950F931F93CF93DF938C0105
:10495000FC01C081D181BE016D5F7F4F89818B34A5
:1049600009F4A4C08C3478F5863009F475C087301A
:1049700098F4823009F4D0C0833038F4882309F4E5
:10498000BBC0813009F048C0BAC0843009F45CC0B3
:10499000853008F05CC0C3C0853409F469C0863432
:1049A00048F4813409F461C0823409F45BC0873073
:1049B00099F555C0893409F468C08A3408F06DC08F
:1049C000863451F55FC0853509F462C08635A0F4A0
:1049D0008F3409F476C0803530F48C3409F46BC020
:1049E0008E34D1F46BC0823509F473C0833509F479
:1049F00073C0803589F468C08935D9F08A3528F4C8
:104A0000873579F0883580F409C08D35D1F0803F45
:104A100009F469C08A3581F094EF85C08091FB0666
:104A200080C0809151067DC0809176069091770676
:104A300057C08091550675C08091C5069091C606F5
:104A40004FC0809173066DC0809141066AC080910D
:104A50003F069091400644C08091580662C0809104
:104A60004E065FC0809175065CC08091610659C09A
:104A70004091810627E836E0CB01B90150E00E9461
:104A80005E3350C0809181064CC080917E0649C043
:104A9000809182069091830623C0DB01E9ECF6E069
:104AA00088E001900D928150E1F73CC08091BB06F7
:104AB0009091BC0615C08091800633C080914D0650
:104AC00030C0809154062DC08091420690914306DB
:104AD00007C08091680625C08091450690914606E2
:104AE0009C838B831FC0DB01E7E3F6E088E0019045
:104AF0000D928150E1F716C080914F0612C080914F
:104B00005C0690915D06A0915E06B0915F068B8376
:104B10009C83AD83BE8306C08091360602C080911F
:104B200044068B8390E089818A838EE18883998310
:104B30008CEF96E0B8010E949308DF91CF911F910E
:104B40000F910895FF920F931F93CF93DF93182F28
:104B5000EB01F42E8B3409F49BC08C3440F5833484
:104B600009F4B1C0843478F4853038F4823008F028
:104B7000AAC0882309F4A7C03EC0813409F453C0F9
:104B80008234C9F548C0863409F45AC0873430F4F9
:104B9000843409F444C0853471F549C0893409F47A
:104BA00053C08A3408F05BC0873429F58CC0853542
:104BB00009F44EC0863570F4813530F48E3408F037
:104BC00082C08C34C1F46BC0823509F46CC082356C
:104BD00090F079C08835A9F0893528F4863569F0D8
:104BE000873549F470C08A3579F08A3508F46BC08E
:104BF000803F09F468C004EFC7C088818093FB063A
:104C0000C2C088819981BBC0888199819093C60672
:104C10008093C506B8C0888180937506B4C088812A
:104C200080936906B0C0888180936106ACC027E894
:104C300036E040918106C90150E00E945E33A3C076
:104C40008881809381069FC0888180937E069BC067
:104C500088819981909383068093820694C088818D
:104C60008093C90689818093CA068A818093CB0686
:104C70008B818093CC068C818093CD068D8180932F
:104C8000CE068E818093CF068F818093D0067BC025
:104C9000888199819093BC068093BB0674C08881FB
:104CA0008093800670C06881611161E0609368063E
:104CB000662331F00E94AA2286E00E94C91163C0D7
:104CC0000E94CF2260C0812FBE010E94F10E082FEA
:104CD000813871F40E949511812FBE010E94F10E5E
:104CE000082F882309F050C081E08093EC0503C0B1
:104CF000882309F049C080914D06282F30E080912B
:104D00005106482F50E060915406CA01861B910954
:104D1000281739070CF4C901A82F281B310981E095
:104D200090E002C0880F991F4A95E2F70197289FEB
:104D3000A001299F500D389F500D112420E030E034
:104D400070E0E1E0F0E00DC0C901860F971FEF01B0
:104D500002C0CC0FDD1F8A95E2F74C0F5D1F2F5F5D
:104D60003F4F2A1788F384E190E09C01429FC001E5
:104D7000439F900D529F900D1124865F9E4F9093FC
:104D800077068093760600E0FF2049F08091EC05DD
:104D9000882329F080E00E94A7111092EC05802F53
:104DA000DF91CF911F910F91FF900895EF92FF92A5
:104DB0000F931F937C01FC0100811181B8016E5F8C
:104DC0007F4FF801818141E00E94A225F801918185
:104DD00092839FE1908381838CEF96E0B7010E94DC
:104DE00093081F910F91FF90EF900895CF93DF9359
:104DF000EC01E881F98183E280836183662311F00D
:104E00000E94CF228CEF96E0BE010E949308DF91B2
:104E1000CF9108958091D3068823E1F080E00E942D
:104E200036058091D306813031F48091EE068823D7
:104E300011F060E001C06BEE80917406823031F4B5
:104E400080918506909186060E94F6261092F906BA
:104E500010927406089580917406823039F480911E
:104E60008506909186066BEE0E94F62610927406D7
:104E70001092F9060895CF92DF92EF92FF920F936E
:104E80001F93DF93CF93CDB7DEB728970FB6F89473
:104E9000DEBF0FBECDBFD82EC92E809174068823E9
:104EA000D1F58091F8068330B1F180917D06882399
:104EB00091F50E94AA22ED2CFC2CD701ED91FC91DA
:104EC00081819F012C5F3F4F823031F48481958135
:104ED0009A83898342E00DC0AE014F5F5F4F88E047
:104EE000D9010D909D01DA010D92AD018150C1F7FC
:104EF00043E00281138181E060E09E012F5F3F4F1C
:104F00000E94011C882311F4C70107C0D0928506B6
:104F1000C092860605C08D2D9C2D61EE0E94F6265E
:104F200028960FB6F894DEBF0FBECDBFCF91DF91AC
:104F30001F910F91FF90EF90DF90CF9008955F92B7
:104F40006F927F928F929F92AF92BF92CF92DF9299
:104F5000EF92FF920F931F93DF93CF93CDB7DEB7FE
:104F600061970FB6F894DEBF0FBECDBFBC01409174
:104F70007D06423011F0443069F480917506882333
:104F800049F0E0918506F091860620813181D901B2
:104F9000199604C0A0E0B0E020E030E05091E106B6
:104FA00059830091E2061091E3061B830A83523075
:104FB00069F41E821F82188619861A861B868091C4
:104FC000E4069091E5069D838C8318C08091E406E9
:104FD0008C838091E5068D838091E6068E83809197
:104FE000E7068F838091E80688878091E9068987A4
:104FF0008091EA068A878091EB068B8790904F0616
:105000009C86B0904106BD868091EF069091F00697
:105010009F878E87188A8091F10687FF02C081E002
:10502000888B8091ED06898B423019F0443009F06D
:105030006FC080917506882309F46AC0F901F08475
:10504000EC81FD815C806D807E808F80A884C98426
:10505000DA84EB8440E049C011968D919C911297BF
:105060000817190709F03FC08C915817E1F51B96F6
:105070008C911B979816B9F51C968C911C97B816B5
:1050800091F5523041F413968D919C911497E81745
:10509000F90749F53DC013968C911397851519F5BD
:1050A00014968C9114978615F1F415968C9115979A
:1050B0008715C9F416968C9116978815A1F4179642
:1050C0008C9117978A1579F418968C9118978C15EE
:1050D00051F419968C9119978D1529F41A968C9183
:1050E0001A978E15A9F04F5F51964F1508F4B4CF5B
:1050F00059C0FD01DE01119681E10D9001928150B0
:10510000E1F7D90118968C9118978F5F18968C93B8
:105110009091F2068091F506882321F4809175061E
:105120008823E1F5DB01ED91FC9187E1808380919B
:10513000D50681839F012E5F3F4FAE014F5F5F4FCA
:1051400081E1DA010D90AD01D9010D929D018150EF
:10515000C1F78091F206838B892F877059F4892FCC
:1051600090E08077907024E0959587952A95E1F7F7
:10517000882331F08091F3069091F406958B848B0F
:105180008091F506868B8091F6069091F706908FB8
:10519000878B8CEF96E00E94930809C0CB010E9498
:1051A0005E0805C0E4E0EF1508F4B2CFA2CF619627
:1051B0000FB6F894DEBF0FBECDBFCF91DF911F9128
:1051C0000F91FF90EF90DF90CF90BF90AF909F90A6
:1051D0008F907F906F905F900895FB0140E0208159
:1051E00031812817390709F441E0842F0895EF929F
:1051F000FF920F931F93DF93CF9300D000D0CDB7D2
:10520000DEB7F82E8B011092F90680917D06823070
:1052100029F4FB018081873059F406C0833041F4C2
:10522000FB018081863021F48F2D0E94E92D2CC155
:10523000F8018081883009F419C1893098F48330ED
:1052400009F445C0843038F4813009F468C08230F4
:1052500009F018C1E4C0843009F490C0853009F029
:1052600011C1FBC08B3009F489C08C3038F489300F
:1052700009F4ECC08A3009F005C1FFC08C3009F494
:10528000FCC08D3009F0FEC0F80186818823B9F09A
:105290001682FF2021F0F7E8FF1609F0F3C08DEE2B
:1052A00098E29A838983F801818192819C838B8320
:1052B00083E696E0BE016F5F7F4F0E942809F801E8
:1052C000818192816F2D43810E94931FDBC0F80181
:1052D00086818823B1F01682FF2019F0F7E8FF16C7
:1052E000B1F48DEE98E29A838983F80181819281ED
:1052F0009C838B8383E696E0BE016F5F7F4F0E94A5
:105300002809F801818192816F2D0E94681D80918A
:10531000F806813009F0B6C00E94F223B3C0F9EE5E
:10532000FF1619F091EEF91649F4F8018181928186
:105330006F2D4FEF5FEF0E941712A4C08093740689
:105340004091C5065091C60660E070E094E0440FBD
:10535000551F661F771F9A95D1F780E020E030E057
:1053600008E612E1EE24FF240E944206882309F495
:105370008BC080E090E00E94681286C0F8018181B5
:1053800092810E945E0880917406813009F47CC08D
:10539000F80180818430C1F4F7E8FF1699F0E091BC
:1053A0008506F09186060190F081E02D83E28083EE
:1053B000F18260918506709186068CEF96E00E94DE
:1053C000930860C082E009C089EEF81609F45AC05B
:1053D00091EEF91609F456C083E08093740640916B
:1053E00076065091770660E070E084E0440F551F28
:1053F000661F771F8A95D1F780E020E030E00BE24E
:1054000017E2EE24FF240E94420691E09093F906F1
:105410008823D1F180E090E00E942B2735C0F8016D
:105420001682FF2019F0F7E8FF1661F58DEE98E27D
:105430009A838983F801818192819C838B8383E69F
:1054400096E0BE016F5F7F4F0E942809F8016181DD
:1054500072818F2D0E94DA2215C0F801818192811C
:105460000E945E088EEE0E940C2F0CC0F801618134
:1054700072818F2D0E94442E05C0F8018181928196
:105480000E945E080E94CF220F900F900F900F9005
:10549000CF91DF911F910F91FF90EF900895EF92C0
:1054A000FF920F931F931092BD0680916806882388
:1054B000C9F48091FA068823A9F488E00E94C911F2
:1054C000883071F083E040E850E060E070E020E078
:1054D00030E00FE41AE2EE24FF240E94420602C0EC
:1054E0000E94CF221F910F91FF90EF900895DF92BD
:1054F000EF92FF920F931F93CF93DF93EC01E8811C
:10550000F981E680F78000851185E114F104010539
:10551000110539F480E090E00E944F2AE881F9817A
:1055200047C0809174068823F1F580917D06882319
:10553000D1F50E94AA2286E00E94C911D82E81E0EE
:105540008093BD0683E00E943104882319F083E034
:105550000E94360584E0EE0CFF1C001F111F8A9587
:10556000D1F783E0B801A70120E030E00FE41AE2B0
:10557000EE24FF240E944206882381F0E881F9810D
:1055800081E2808388EE81838CEF96E0BE010E94E9
:10559000930880E090E00E944F2A12C0E881F981D0
:1055A00086E0D81629F081E2808382EF818303C0F0
:1055B00081E2808311828CEF96E0BE010E94930805
:1055C000DF91CF911F910F91FF90EF90DF900895A1
:1055D000BC018CEF96E00E94930880917206809344
:1055E000F30584E063EF75E00E94872480918406D0
:1055F0008093F20580E062EF75E00E9487241092AC
:105600007D060E94CF220895CF93DF93E091C706D5
:10561000F091C806C081D181DE01A956BF4FFA833F
:10562000E983882339F087E088838C934AE023E07C
:1056300038E013C086E088838C9318979D0147E378
:1056400056E088E0FA010190AF01F90101929F0153
:105650008150C1F742E123E438ECFD018FEF9FEF69
:1056600092938293329791838083159780918006DD
:105670008C938F5F809380063E932E93FD0142931F
:10568000F887EF83CE0162E070E040E00E942D0DCC
:10569000882311F080E003C081E08093F906DF9158
:1056A000CF9108951F93DF93CF930F92CDB7DEB7BD
:1056B00010917D06123069F01330A1F0113021F500
:1056C0008823E9F41093F9068091F4050E94C60D31
:1056D0001BC08823A1F481E00E94042B8823A1F43D
:1056E000198308C0882359F40E94042B882361F48D
:1056F00082E08983CE0101960E94962C05C080919C
:10570000F2058F5F8093F2050F90CF91DF911F918B
:1057100008950F931F938C018091C7069091C8063E
:105720000E945E081092C8061092C706A0918506D6
:10573000B0918606ED91FC9111978BE180831182E7
:1057400083E08283148215821682178210868CEF82
:1057500096E0BD010E94930810927D060E94CF2220
:10576000C8010E945E0880E56FEE76E00E94872403
:105770008091F4069091F5068F5F9F4F29F083E5A5
:1057800064EF76E00E9487248091F1069091F20602
:105790009093BC068093BB068091D1069091D2066F
:1057A00094FF05C084E066EF76E00E94872480E0E5
:1057B00063EF76E00E9487240E94522B1F910F9185
:1057C0000895EF92FF921F93CF93DF93182F7B01E1
:1057D000FB01C081D18184E063EF75E00E948724E2
:1057E00040917D06509175062091F20551C04230DE
:1057F00011F0443031F4552321F08885853008F0CC
:105800004AC0133021F48885882309F072C0322FF2
:105810003F5F8C819D81AE81BF81022E04C0B69511
:10582000A795979587950A94D2F781709070892BE8
:1058300071F12093F205113021F482E080937D060E
:1058400004C0133011F410937D0680E062EF75E020
:105850000E948724182F8823B1F08091C706909169
:10586000C8060E945E081092C8061092C7060E94E1
:10587000CF228AEE898318868CEF96E0B7010E94CA
:10588000930810927D06812F0E94522B49C0232F2E
:105890002B3108F4ACCF2093F205113039F01130E0
:1058A00018F01330E9F527C0198237C08091C70678
:1058B0009091C8060E945E081092C8061092C70612
:1058C00080917506882339F08885853010F08AEF3D
:1058D00005C0882311F0198202C08AEE898380E511
:1058E0006EEB76E00E948724809185069091860673
:1058F00015C02093F2058091C7069091C8060E94BA
:105900005E081092C8061092C7068885882311F099
:10591000198202C08AEE89831886C7010E94E82A8C
:10592000DF91CF911F91FF90EF900895CF93DF9378
:10593000C0918506D09186069881298180917D0647
:105940008250833020F5E92FF22F21E030E040E053
:1059500050E00090F20504C0220F331F441F551F72
:105960000A94D2F720953095409550958481958181
:10597000A681B78182239323A423B52384839583AF
:10598000A683B7838091ED05BE010E94E12BDF91D4
:10599000CF9108951092F906609185067091860660
:1059A000DB01ED91FC919085DF01A90FB11D1996E6
:1059B0008C93199780858F5F80871A961C9221E0BF
:1059C00030E040E050E00090F20504C0220F331FA9
:1059D000441F551F0A94D2F7209530954095509555
:1059E00084819581A681B78182239323A423B52343
:1059F00084839583A683B78380E00E94E12B08957A
:105A0000CF92DF92EF92FF920F931F93DF93CF938A
:105A100000D0CDB7DEB7D82EC92E082F192FD80148
:105A2000ED91FC9180914F06809384068091410610
:105A30008093720686818093F40581818093ED05C1
:105A400082819381A481B5818093EE059093EF05C7
:105A5000A093F005B093F10527812093F305D09230
:105A60008506C09286068BE180838091ED05828356
:105A70008091EE059091EF05A091F005B091F105B0
:105A800084839583A683B7832383108611868091B0
:105A90007406882321F480917D06882341F088EEE6
:105AA00081838CEF96E0B8010E94930887C00E9422
:105AB000AA22F801E080F1808BE08093F2058091CA
:105AC000ED05833018F4813070F404C0833009F0A0
:105AD0006AC054C0D7011A961C9281E080937D065B
