:100000000C94D1000C94F0000C94F0000C94F000CF
:100010000C94F0000C94F0000C94F0000C94F000A0
:100020000C94F0000C94F0000C94F0000C94F00090
:100030000C94F0000C94F0000C94F0000C94F00080
:100040000C94F0000C94F0000C94F0000C94F00070
:100050000C94F0000C94F0000C94F0000C94F00060
:100060000C94F0000C94F0000C94F0000C94F00050
:100070000C94F0000C94F0000C94F0000C94F00040
:100080000C94F0000C94F0000C94F0000C94F00030
:100090000C94F0000C94F0000C94F0000C94F00020
:1000A0000C94F0000C94F0000C94F0000C94F00010
:1000B0000C94F0000C94F0000C94F0000C94F00000
:1000C0000C94F0000C94F0000C94F0000C94F000F0
:1000D0000C94F0000C94F0000C94F0000C94F000E0
:1000E0000C94F0000C9414050C941E050C940A0555
:1000F0000C94B4040C94DF040C9428050C9489042B
:100100000C943C050C941E0A0C94470A0C94F000C5
:100110000C94F0000C94F0000C9446050C943205FD
:1001200003020201010000FFFEFDFCFBF9F7F4EF02
:10013000C317C5140000361D0000401B95200000A9
:10014000B520E01E6E240A2700000000D121000027
:100150009C16AC16000000008B161B1634166D168C
:10016000000000000000BA1500009E150916AA152F
:10017000EB15DC150000FA15010401010102010173
:100180000101010101010101040108020101010154
:100190000201010201020101020102020101010149
:1001A000080011241FBECFEFD1E4DEBFCDBF12E0A7
:1001B000A0E0B2E0EAE5F0E600E00BBF02C0079085
:1001C0000D92A43AB107D9F716E0A4EAB2E001C053
:1001D0001D92A83AB107E1F70E9466020C942B30F9
:1001E0000C940000EF92FF920F931F9383E040E482
:1001F0005BE46CE470E020E030E008E011E0EE2425
:10020000FF240E949D081F910F91FF90EF90089589
:10021000DF93CF93CDB7DEB72B970FB6F894DEBF41
:100220000FBECDBF82E089838EEB9AEB9B838A83DE
:100230008091A4029091A5029D838C8380E092E03E
:100240000E94852BCE0101960E94C3282B960FB6E3
:10025000F894DEBF0FBECDBFCF91DF910895EF922E
:10026000FF920F931F93DF93CF93CDB7DEB7CF5F8E
:10027000D0400FB6F894DEBF0FBECDBF8091A6026E
:100280009091A702A091A802B091A9020196A11D88
:10029000B11D8093A6029093A702A093A802B093E9
:1002A000A9022DB73EB7285030400FB6F8943EBF94
:1002B0000FBE2DBF4DB75EB74F5F5F4F8E010F5F13
:1002C0001F4FEDB7FEB71283018321E132E0FA013F
:1002D0003383228384839583A683B7830E94BA2BBA
:1002E0002DB73EB72A5F3F4F0FB6F8943EBF0FBE03
:1002F0002DBFEDB7FEB7128301830E94732B0F90C1
:100300000F9082E090E060E070E00E94650A84E077
:1003100040E251EA67E070E020E030E002EA11E0FC
:10032000EE24FF240E949D08C150DF4F0FB6F894C1
:10033000DEBF0FBECDBFCF91DF911F910F91FF9018
:10034000EF90089582E090E061E070E00E94650A1D
:100350000895EF92FF920F931F9381E090E062E087
:1003600070E00E94650A84E040E251EA67E070E0D4
:1003700020E030E009EA11E0EE24FF240E949D080D
:100380001F910F91FF90EF900895EF92FF920F93BE
:100390001F936623D9F486E292E00E94852B84E0C5
:1003A0000E94910781E090E060E070E00E94650AA1
:1003B00083E040E45BE46CE470E020E030E008E0DF
:1003C00011E0EE24FF240E949D0803C081E00E94FA
:1003D00066291F910F91FF90EF900895CF92DF92C1
:1003E000EF920F93CF93DF93882389F5E60120E006
:1003F00025C08B85843101F58C858823E9F48981BA
:100400009A818E5B9A4BC1F48D859E8597FF14C0AF
:100410008881823041F58B819C819093A5028093E5
:10042000A4028EE492E00E94852B8B856C85AE0140
:1004300020E80E94B1291AC061962F5F2E15C8F2DC
:1004400081E040E058EF6FEF77E025E008C08A3E9A
:1004500051F481E040E058EF6FEF77E026E000E0F4
:100460000E94E92803C081E00E946629DF91CF91B4
:100470000F91EF90DF90CF900895EF92FF920F933E
:100480001F938823D9F48CE592E00E94852B81E0AC
:1004900040E058EF6FEF77E025E000E00E94E928A8
:1004A00084E040E251EA67E070E020E030E009EAF1
:1004B00011E0EE24FF240E949D0803C081E00E9409
:1004C00066291F910F91FF90EF9008950E948F2A47
:1004D000882311F00E9450050E945E0A80E090E09F
:1004E00060E070E00E94650A81E090E061E070E009
:1004F0000E94650A82E090E061E070E00E94650A77
:10050000789482E00E947204882311F00E945005C2
:1005100083ED92E067EB72E00E94272B8EE692E07B
:100520000E94852B80E992E00E94852B81E00E9449
:1005300066290E94792AFDCFDF93CF930F92CDB722
:10054000DEB70E94CE0582E0BE016F5F7F4F41E0C3
:100550000E946004813019F02FEF3FEF03C08981C2
:10056000282F30E0C9010F90CF91DF9108950F93AC
:100570001F93DF93CF930F92CDB7DEB78E010F5F3E
:100580001F4F02C00E94CE0582E0B80141E00E94E8
:1005900060048823B9F3898190E00F90CF91DF91B7
:1005A0001F910F9108950F931F93DF93CF930F9295
:1005B000CDB7DEB789838E010F5F1F4F02C00E9447
:1005C000CE0582E0B80141E00E9469048823B9F3B6
:1005D00080E090E00F90CF91DF911F910F910895EF
:1005E0005C9A549AA19A999A6A9825982098829828
:1005F00055989A986E9824986F98269802C05C989F
:100600005C9A629BFCCF0895DC018091AA0288234A
:1006100039F59091360380913503981710F0815881
:1006200001C08150891B282F681708F4262F80915C
:100630003903820F80933903322F0DC0E92FF0E088
:10064000E555FD4F8C9180839F3711F490E001C0F8
:100650009F5F31501196332389F790933603622FB1
:10066000862F0895DC0190913A03992311F480E0DC
:1006700008959A3058F080913803809337038AE0C8
:1006800080933A036A3020F09AE003C0961708F08E
:10069000962F40913A0320913703392F0CC0E22F57
:1006A000F0E0E55DFC4F80818C932F5F2A3009F4E8
:1006B00020E011963150332391F7491B40933A03C0
:1006C00020933703892F0895DF93CF9300D000D074
:1006D000CDB7DEB7629930C080913A038F5F8093C7
:1006E0003A032098829855989A986E9824986F9813
:1006F00026985C98000000009091380383B18170C7
:100700007A9982604D998460929988606699806137
:100710001C998062679980641E998068E92FF0E0D7
:10072000E55DFC4F80835C9A993019F41092380390
:1007300003C09F5F9093380350913903552309F00C
:1007400089C0B7C01D994FC0442329F080E090E0D4
:10075000A0E0B0E040E0209A829A559A9A9A6E9A68
:10076000249A6F9A269AE32FF0E0E555FD4FE08139
:100770002E2FE0FF02C0289A01C0289821FF02C056
:100780008A9A01C08A9822FF02C05D9A01C05D98D2
:1007900023FF02C0A29A01C0A29824FF02C0769A49
:1007A00001C0769825FF02C02C9A01C02C9826FF24
:1007B00002C0779A01C07798E7FF02C02E9A01C065
:1007C0002E98A198A19A2098829855989A986E98F8
:1007D00024986F9826983F3711F430E001C03F5FAE
:1007E0006150515044C080933B0390933C03A093CD
:1007F0003D03B0933E034093AA02309335035093D8
:100800003903442309F055C00097A105B10529F427
:100810008BE393E00E9429064CC0CE0101960E9412
:10082000290689819A81AB81BC8120913B0330915B
:100830003C0340913D0350913E03821B930BA40B5C
:10084000B50B89589341A040B04098F181E0809366
:10085000AA022FC080913B0390913C03A0913D03DD
:10086000B0913E034091AA02309135036FEF5523BA
:1008700079F480933B0390933C03A0933D03B093A2
:100880003E034093AA02309335031092390311C0FE
:10089000662309F057CF80933B0390933C03A093CA
:1008A0003D03B0933E034093AA0230933503509327
:1008B00039030F900F900F900F90CF91DF91089513
:1008C000823011F080E00895CB01642F0E94320342
:1008D0000895823011F080E00895CB01642F0E94CA
:1008E00004030895823011F085E808950E94F00213
:1008F00080E008959093400380933F030895909380
:1009000042038093410308959093440380934303EB
:1009100008951F920F920FB60F920BB60F921124EB
:100920002F933F934F935F936F937F938F939F93F7
:10093000AF93BF93EF93FF93E0913F03F091400398
:100940000995FF91EF91BF91AF919F918F917F9109
:100950006F915F914F913F912F910F900BBE0F9030
:100960000FBE0F901F9018951F920F920FB60F9207
:100970000BB60F9211242F933F934F935F936F9376
:100980007F938F939F93AF93BF93EF93FF93E091E8
:100990004103F09142030995FF91EF91BF91AF910F
:1009A0009F918F917F916F915F914F913F912F9187
:1009B0000F900BBE0F900FBE0F901F9018951F92B7
:1009C0000F920FB60F920BB60F9211242F933F93F5
:1009D0004F935F936F937F938F939F93AF93BF9347
:1009E000EF93FF93E0914303F09144030995FF9146
:1009F000EF91BF91AF919F918F917F916F915F9197
:100A00004F913F912F910F900BBE0F900FBE0F9003
:100A10001F9018951F920F920FB60F9211240F90EE
:100A20000FBE0F901F9018951F920F920FB60F9246
:100A300011240F900FBE0F901F9018951F920F92C8
:100A40000FB60F9211240F900FBE0F901F901895A4
:100A50001F920F920FB60F9211240F900FBE0F909E
:100A60001F9018951F920F920FB60F9211240F909E
:100A70000FBE0F901F9018951F920F920FB60F92F6
:100A800011240F900FBE0F901F9018951F920F9278
:100A90000FB60F9211240F900FBE0F901F90189554
:100AA000FF920F931F939D9A6B9A6C9AA59A739AD3
:100AB000749A80E2F82E08E010E18FEF9FEF0E9419
:100AC0005F0684B38F2584BB8EB180278EB98EB12B
:100AD00081278EB9F2CFCF92DF92EF92FF920F93E0
:100AE0001F93CF93DF937B018A016901892B11F05A
:100AF00088EE19C0CA01860F971F8150904110F0EF
:100B000085E811C0C0E0D0E00AC0CE018E0D9F1D67
:100B10000E94F12DF601EC0FFD1F80832196C01776
:100B2000D10798F380E0DF91CF911F910F91FF9053
:100B3000EF90DF90CF900895CF92DF92EF92FF92E7
:100B40000F931F93CF93DF938C017B016A01CB013D
:100B5000800F911F8150904110F085E816C0C0E0D1
:100B6000D0E00FC0C8010E94F12DF601EC0FFD1F6F
:100B70006081861719F0C8010E94F92D0F5F1F4F81
:100B80002196CE15DF0570F380E0DF91CF911F91A4
:100B90000F91FF90EF90DF90CF9008950E9467082B
:100BA0000E94640308950E94D9050E94FA0580E01E
:100BB00008959FB7F894E0E0F0E089E08093570053
:100BC00084919FBF8F70823011F090E001C09FE050
:100BD00080E80FB6F89480936100909361000FBE97
:100BE00080E18093350180933401809333018093B9
:100BF0003201089510924503109246038FEF8093BF
:100C000047038093480380934903E6EEF5E09FEFA6
:100C1000948311821082399686E0E331F807C1F798
:100C200080E28093B60088EA8093DC008FE08093B6
:100C3000F4009093F3009093F2009093F10082E01F
:100C40008093E0008091DF0082608093DF00089550
:100C50000895FC018091DE0080FDFCCF2091E10031
:100C6000822F2091E200922F2091E300A22F209169
:100C7000E400B22F24E0880F991FAA1FBB1F2A95FA
:100C8000D1F780839183A283B3830895FC012091DF
:100C9000E900822F2091EA00922F2091EB00A22FF1
:100CA0002091EC00B22F34E0880F991FAA1FBB1FC0
:100CB0003A95D1F780839183A283B3830895AC01E1
:100CC0008436910518F060E070E01EC07FB7F8949C
:100CD00061E01AC057FD02C09A0102C02FEF3FE742
:100CE000C901880F991F909581959F4F9093250179
:100CF00080932401FABBE0932101D09BFECF421BDD
:100D0000530B1092210102C0F1E0E2E041155105C0
:100D100009F761117FBF089520E090E0FC01B3E086
:100D2000EE0FFF1FBA95E1F7E80FF91FEE51FA4FEA
:100D300084819581892B09F021E0822F0895AF925B
:100D4000BF92CF92DF92EF92FF920F931F93809109
:100D5000470390E0FC0113E0EE0FFF1F1A95E1F747
:100D6000E80FF91FEE51FA4FA080B180C280D38006
:100D700080914503882309F46BC0D092F800C0929B
:100D8000F700B092F600A092F5008091DF0080FDA0
:100D900008C081E08093E0008091DF008160809353
:100DA000DF002091E100822F2091E200922F20911C
:100DB000E300A22F2091E400B22F9C01AD012F5F30
:100DC0003F4F4F4F5F4FDA01C9018A259B25AC2564
:100DD000BD2580709070A070B87F0097A105B10507
:100DE00031F4A216B306C406D506C0F109C0D60177
:100DF000C501B7705770281739074A075B0770F1AC
:100E000080915D01883068F5E0904A03F0904B03D3
:100E100000914C0310914D030894E11CF11C011D3D
:100E2000111DEA14FB040C051D05D9F48091E100A5
:100E3000282F8091E200382F8091E300482F809185
:100E4000E400582F2E153F054007510779F706C0DB
:100E50008091DF008E7F8093DF0003C081E080936C
:100E600046031F910F91FF90EF90DF90CF90BF90BE
:100E7000AF9008951F931FB7F8948091460388237D
:100E800009F44CC01092460330914503332309F412
:100E900045C0809148038F3F59F4809149038F3FAB
:100EA00039F480914703809349038093480312C02B
:100EB000209147038091490390E0FC0153E0EE0F3D
:100EC000FF1F5A95E1F7E80FF91FEE51FA4F2087FF
:100ED000209349038091470390E0FC0143E0EE0F2B
:100EE000FF1F4A95E1F7E80FF91FEE51FA4F808591
:100EF000809347038091490390E0FC0123E0EE0FCB
:100F0000FF1F2A95E1F7E80FF91FEE51FA4F8FEF17
:100F100080873150309345030E949F061FBF1F9169
:100F20000895FF920F931F93182F853010F08AE8D1
:100F3000C5C0FFB6F8940E943A070091450300230C
:100F400009F4C0C040914703242F842F302F12177B
:100F5000F1F5212F30E0141781F4F901A3E0EE0F31
:100F6000FF1FAA95E1F7E20FF31FEE51FA4F8085BC
:100F7000809347030E949F0618C090E0DC01E3E0E5
:100F8000AA0FBB1FEA95E1F7A80FB91FAE51BA4FE0
:100F9000F90173E0EE0FFF1F7A95E1F7E20FF31FFF
:100FA000EE51FA4F808518968C93812F90E0FC01CA
:100FB00063E0EE0FFF1F6A95E1F7E80FF91FEE51AE
:100FC000FA4F8FEF808701500093450362C0822F54
:100FD00090E0FC0153E0EE0FFF1F5A95E1F7E80F98
:100FE000F91FEE51FA4F50853150822F09F46AC033
:100FF000252FADCF1217D1F5209149031317B1F466
:10100000121721F48FEF809349030DC0812F90E0D8
:10101000FC0143E0EE0FFF1F4A95E1F7E80FF91FCF
:10102000EE51FA4F80858093480333C0842F90E0BF
:10103000DC0133E0AA0FBB1F3A95E1F7A80FB91FF7
:10104000AE51BA4F812F90E0FC0103E0EE0FFF1F7D
:101050000A95E1F7E80FF91FEE51FA4F80851896CF
:101060008C931217B1F44093490313C0822F90E080
:10107000FC0173E0EE0FFF1F7A95E1F7E80FF91F0F
:10108000EE51FA4F422F20852F3F09F0B3CF80E079
:101090000FC0812F90E0FC0163E0EE0FFF1F6A9507
:1010A000E1F7E80FF91FEE51FA4F1582148281E043
:1010B000FFBE882311F489E801C080E01F910F91E1
:1010C000FF90089530914803232F432FDDCF1F93C6
:1010D0000E943A071FEF25C06FB7F894822F90E067
:1010E000FC01B3E0EE0FFF1FBA95E1F7E80FF91F1F
:1010F000EE51FA4F20854481558186819781108772
:1011000015821482178216822F3F09F43FEF6FBFBA
:101110004115510551F03093490320934803FA01DA
:10112000099530914903209148032F3FA9F6309348
:101130004903209348031F9108952F923F924F92A5
:101140005F926F927F928F929F92AF92BF92CF9257
:10115000DF92EF92FF920F931F93DF93CF9300D014
:1011600000D00F92CDB7DEB7582E1801FB82EA826D
:1011700004E0081710F48AE820C12114310409F4AE
:1011800019C190E09D838C83FC01A3E0EE0FFF1F4B
:10119000AA95E1F7E80FF91FEE51FA4F8481958186
:1011A000892B11F088E809C1E4E076956795579599
:1011B0004795EA95D1F72115310529F02130310500
:1011C00009F0F8C026C0DB01CA010897A109B109DE
:1011D000885F9F4FAF4FB74008F0EEC02091E1000D
:1011E000822F2091E200922F2091E300A22F2091E4
:1011F000E400B22F7A018B01E80EF91E0A1F1B1FB3
:101200008FEF9FEFAFEFBFE0E822F9220A231B2305
:1012100020C02091E100822F2091E200922F2091A6
:10122000E300A22F2091E400B22F8A019B01081B4A
:10123000190B2A0B3B0BD901C801BF700897A109F4
:10124000B109885F9F4FAF4FB74008F0B5C07A0132
:101250008B012FB72983F8946FEF862E6FEF962EB0
:101260006FEFA62E6FE0B62E8E209F20A022B12217
:101270000E943A07609047033FEF631671F0409079
:101280004503C62CD62C77248FEF9FEFAFEFB7E046
:10129000E822F9220A231B2367C050924703EC81FE
:1012A000FD8153E0EE0FFF1F5A95E1F7AC81BD8140
:1012B000EA0FFB1FEE51FA4F60865AC0BFEFDB16F4
:1012C00009F44DC06D2D70E0FB0143E0EE0FFF1FF0
:1012D0004A95E1F7E60FF71FEE51FA4F2081318171
:1012E00042815381D501C40182279327A427B527C2
:1012F00080709070A070B87F0097A105B10539F497
:10130000281539054A055B0508F46FC007C05770FA
:10131000E216F3060407150708F467C0EC81FD81A7
:1013200033E0EE0FFF1F3A95E1F70C811D81E00FCE
:10133000F11FEE51FA4FD0866D1419F45092470305
:1013400017C08C2D90E0FC0123E0EE0FFF1F2A95C3
:10135000E1F7E80FF91FEE51FA4F508609C08FEF01
:10136000DC2C7394CD2CD82E741408F4A7CF49C06C
:10137000EC81FD8193E0EE0FFF1F9A95E1F72C8140
:101380003D81E20FF31FEE51FA4F80829182A282DB
:10139000B382358224828A819B8197838683809160
:1013A00045038F5F809345030E949F0699819FBFED
:1013B00080E003C088EE01C08BE80F900F900F9083
:1013C0000F900F90CF91DF911F910F91FF90EF90B1
:1013D000DF90CF90BF90AF909F908F907F906F9055
:1013E0005F904F903F902F900895FB0183E0EE0FA8
:1013F000FF1F8A95E1F7E60FF71FEE51FA4F808540
:10140000B0CF8C2D90E0FC0103E0EE0FFF1F0A959A
:10141000E1F7E80FF91FEE51FA4F5086EC81FD819C
:1014200013E0EE0FFF1F1A95E1F7AC81BD81EA0FC3
:10143000FB1FEE51FA4F8FEF80879ACF1F920F92CA
:101440000FB60F9211242F933F938F939F93809108
:10145000E1009091E2002091E3003091E40080935C
:101460004A0390934B0320934C0330934D03809198
:101470004503882319F081E0809346039F918F9163
:101480003F912F910F900FBE0F901F9018951F92B4
:101490000F920FB60F9211248F938FEF8093E40079
:1014A0008093E3008093E2008093E1008F910F909E
:1014B0000FBE0F901F90189581E008959D9A6B9A2A
:1014C0006C9AA59A739A749A089581309105C9F01F
:1014D0008130910518F00297C9F526C06130710579
:1014E00049F06130710520F06230710579F504C072
:1014F000A5980895A59A089584B390E2892784BB9E
:1015000008956130710549F06130710520F0623055
:101510007105E1F404C073980895739A08958EB12B
:1015200098E089278EB908956130710549F06130DE
:10153000710520F06230710549F404C07498089573
:10154000749A08958EB190E189278EB908952798ED
:1015500056982F9A5E9A0895009729F0019769F09E
:1015600021E030E014C083B1282F332727FD3095C8
:101570002227330F221F33270AC089B1282F30E0DA
:1015800086E0369527958A95E1F721703070C9017C
:101590000895BC01009721F086EC95E00E94FE0AB8
:1015A000089586EC95E060E070E00E94930B08954A
:1015B0000F931F93CF93DF9386EC95E00E94F70A79
:1015C000C6EBD5E00EE413E01983088386EC95E0C2
:1015D000BE010E94FE0A249606561F4F85E0C63CB7
:1015E000D80791F7DF91CF911F910F910895FC01DA
:1015F000118210821382128214820895CF93DF9396
:10160000DC01EB019FB7F89414968C911497882312
:1016100021F411967C936E9306C01296ED91FC9185
:101620001397738362831396DC93CE9312971B8276
:101630001A8214968C9114978F5F14968C939FBF87
:10164000DF91CF9108959F92AF92BF92CF92DF9298
:10165000EF92FF920F931F93CF93DF938C015B0167
:101660006A019FB6F894DC0114968C91882319F4D2
:10167000C0E0D0E04AC0F801C081D18141155105D8
:10168000B1F07E0111C0D60112966D917C91139735
:10169000ED91FC91888199810995882359F47E0107
:1016A0008A819B819C01E901209769F72EC02097D0
:1016B00061F17E01AB2849F5F801808191812A8191
:1016C0003B81C817D90719F43183208305C0D7019E
:1016D00013963C932E931297F80182819381C81739
:1016E000D90711F4F382E282D80114968C911497F1
:1016F000815014968C9314978D919C911197892BFE
:1017000021F413961C921E9212979FBECE01DF9178
:10171000CF911F910F91FF90EF90DF90CF90BF90EE
:10172000AF909F900895AB0160E070E00E94230BA2
:101730000895AB0161E070E00E94230B0895CF9300
:10174000DF93EC010BC0CE0160E070E00E94930BD0
:10175000009711F41C8205C00E94C90A8C8188235D
:1017600091F7DF91CF9108950F931F93DF93CF935C
:10177000CDB7DEB728970FB6F894DEBF0FBECDBF4A
:10178000809141018F71883029F581E080934F016C
:1017900089E080934201CE0101960E9429068E01C4
:1017A0000B5F1F4F80914F0180FD14C0C8010E9444
:1017B00029068D819E81AF81B88529813A814B812F
:1017C0005C81821B930BA40BB50B8D3D9105A1058C
:1017D000B10540F328960FB6F894DEBF0FBECDBF1B
:1017E000CF91DF911F910F910895CF93DF93EC017B
:1017F00080912F06909130060F9709F033C08091A9
:1018000039018D7F8093390194E6809141018F7178
:101810008830C9F0915031F4809139018260809311
:101820003901EDCF000000000000000000000000C2
:1018300000000000000000000000000000000000A8
:1018400000000000E2CFC830D10519F0C330D10547
:1018500049F488E090E09093300680932F0628E0CA
:1018600030E0E1C18091410190E08F7190709093E0
:10187000300680932F06C830D10509F44FC0C93017
:10188000D10560F4C430D10509F49AC0C630D10541
:1018900009F4A3C0239709F0B9C157C0CF30D105CF
:1018A00079F0C031D10520F4299709F0AFC164C0A7
:1018B000C631D10509F4CBC0699709F0A7C136C17B
:1018C00083E0809342010E940E2B80936D018091F2
:1018D0006E019770887F982B90936E010000000036
:1018E00000000000000000000000000000000000F8
:1018F000000000000000000000000000809139019D
:1019000082608093390183E290E00E945F06D09369
:101910003006C0932F062FE030E085C1089709F408
:1019200075C188E0809342010000000000000000C3
:1019300000000000000000000000000000000000A7
:10194000000000000000000061C1089709F45EC1BA
:1019500083E08093420100000000000000000000CE
:101960000000000000000000000000000000000077
:101970000000000000004AC18830910539F189302B
:10198000910520F4069709F041C106C08631910502
:1019900019F0499709F03AC189E0809342010000AB
:1019A0000000000000000000000000000000000037
:1019B000000000000000000000000000000026C140
:1019C0008830910519F0099721F420C10E94B40BC9
:1019D0001DC184E08093420119C18930910569F0ED
:1019E0008A30910520F4089709F010C11AC0863199
:1019F000910519F0499709F009C186E080934201E9
:101A000000000000000000000000000000000000D6
:101A100000000000000000000000000000000000C6
:101A2000F5C00E94B40B86E08093420100000000E4
:101A300000000000000000000000000000000000A6
:101A4000000000000000000000000000DFC088303F
:101A5000910509F18930910520F4069709F0D6C067
:101A600030C08930910519F0499709F0CFC086E15F
:101A70008093420100000000000000000000000010
:101A80000000000000000000000000000000000056
:101A900000000000BBC00E94B40B86E180934201AD
:101AA0000000000000000000000000000000000036
:101AB0000000000000000000000000000000000026
:101AC000A5C089E0809342010000000000000000F2
:101AD0000000000000000000000000000000000006
:101AE000000000000000000080914101282F30E03C
:101AF0002F7130703093300620932F062930310536
:101B000009F091C086E180934201000000000000CE
:101B100000000000000000000000000000000000C5
:101B20000000000000000000000070C08830910537
:101B300009F457C08930910520F4069709F066C072
:101B40001BC08930910521F0469709F05FC014C091
:101B500089E18093420100000000000000000000C5
:101B60000000000000000000000000000000000075
:101B70000000000000004AC089E08093420100009C
:101B80000000000000000000000000000000000055
:101B90000000000000000000000000000000809134
:101BA0004101282F30E02F713070309330062093A0
:101BB0002F062930310509F036C089E180934201B2
:101BC0000000000000000000000000000000000015
:101BD0000000000000000000000000000000000005
:101BE00015C00E94B40B89E18093420100000000FF
:101BF00000000000000000000000000000000000E5
:101C00000000000000000000000000008091410181
:101C1000282F30E02F7130702F313105B9F3209328
:101C20002F0630933006C901DF91CF91089580913E
:101C300020068823E9F0809139068823C9F4809131
:101C4000CB059091CC05892B39F48AE90E94D10A01
:101C50009093CC058093CB058091CB059091CC05DA
:101C6000892B31F01092200686E190E00E94F50B5E
:101C700080912506882351F081E296E060E070E0D3
:101C80000E94930B009711F00E944D0E809139062F
:101C9000823011F40E94AB0F0895EF92FF920F93E0
:101CA0001F93CF93DF937C01DC010D911C91D80130
:101CB0001696ED91FC911797808180933206C82F7C
:101CC000D0E02196CE0FDF1F988129812D3310F0AF
:101CD0002CE303C0222309F421E092959695969572
:101CE00093708FEF989FC001112430E0FC01E29FB8
:101CF000C001E39F900DF29F900D112464EB70E002
:101D00000E949F2A6F3F710511F008F06FEF688302
:101D1000D8011296FC92EE921197C8010E94041706
:101D2000DF91CF911F910F91FF90EF900895CF9287
:101D3000DF92EF92FF920F931F93CF93DF93E09187
:101D4000CB05F091CC05309709F44AC0C081D18110
:101D5000C0904701D0907B01D7FC42C082E0D80EF2
:101D60000AE910E00D191109EEEFDE0E0C0F1D1F30
:101D7000ED2CFF2497012F5F3F4FC80160E871E011
:101D8000A9010E941E2BF801D292FF83EE83EE0E72
:101D9000FF1EF701C28280914C018F7780934C0126
:101DA00080914C01806880934C016091CB057091CB
:101DB000CC0581E296E00E94FE0A8AE90E94D10ADF
:101DC0009093CC058093CB05892B39F489E090E082
:101DD0000E94F50B81E08093200680E480934F0100
:101DE000DF91CF911F910F91FF90EF90DF90CF90F7
:101DF00008951F93109139061130E9F48091420142
:101E00008295869587708093CD051092CE0582E0ED
:101E1000809339068091CB059091CC05892B39F4BC
:101E200089E090E00E94F50B1093200604C086E143
:101E300090E00E94F50B1F9108950F931F93CF938D
:101E4000DF93EC018B01442349F090916C01809168
:101E50002E068295807F9F70892B03C080916C0134
:101E60008F7080936C010230110598F4442369F05F
:101E700090916C0180912606880F8E70917F892B3E
:101E800080936C0110926F0117C080916C018E607D
:101E900011C080912A068295807F90912D06892B12
:101EA00080936F0190916C0180912606880F8E704F
:101EB000917F892B80936C0189E190E00E94F50B62
:101EC0004997D1F70130110551F4809132068331E1
:101ED00018F080E492E005C080E890E002C089E05C
:101EE00090E00E945F061FB7F894809139018260EC
:101EF00080933901809139018D7F80933901288148
:101F000030E02150304080E891E0BE01A9010E94FC
:101F10001E2B81E0809339061FBFDF91CF911F9167
:101F20000F910895FC0180913906882311F086E80D
:101F30000895F0932C06E0932B0686819781909369
:101F4000340680933306009711F488EE08950E94BA
:101F50001D0F80E00895109239068091CD05909173
:101F6000CE0583309105B9F08430910528F40097AF
:101F700031F00197E1F409C00597C9F412C06091EE
:101F80002B0670912C0680E017C060912B06709193
:101F90002C0687E811C060912B0670912C0681EE0B
:101FA0000BC060912B0670912C0689EE05C06091E4
:101FB0002B0670912C0685E80E947F230895282F18
:101FC00085FD03C0982F9F7304C0982F91959F7132
:101FD0009195E0E2F1E08491891734F03F96849185
:101FE000981714F0822F0CC0803E3CF080323CF4F5
:101FF00087FF06C08F71806203C080E201C08FE15D
:102000008068089584E08093260623E020932D06BF
:102010008FEF9FEF90931C0680931B0690931F06F3
:1020200080931E068BE08093280610921A0680E0AB
:1020300098EFAFEFB7E08093350690933606A09304
:102040003706B09338068AE091E0909319068093A2
:1020500018068AE08093310682E08093270685E0A7
:1020600080932A0620932E0683E80E94DF0F809338
:102070000F0681E080931D0610922906089585FDC4
:1020800003C0982F9F7304C0982F91959F719195CD
:10209000E0E2F1E080E02491921724F029173CF46B
:1020A000815008958F5F31968031A9F780E00895BF
:1020B00080911B0690911C068093620190936301AE
:1020C000E0E1F6E0A4E6B1E081918D9386E0E831AD
:1020D000F807D1F780911E0690911F06809360014A
:1020E000909361019091480180911D068295880F1F
:1020F00080769F79892B8093480190916F01809120
:102100002D068F70907F892B80936F0190916E01C7
:1021100080912906880F880F880F8870977F892BF8
:1021200080936E0190916F0180912A068295807F45
:102130009F70892B80936F019091480180912806B0
:102140008F71907E892B8093480180910F060E94A9
:102150003F10909145018F70907F892B80934501AE
:102160000895CF93DF93EB018E3431F0893541F43C
:10217000888180932E06EFC0888180932606EBC06D
:1021800020912F06309130062F30310511F481E86F
:10219000E3C08B3009F4CDC08C3070F4823009F488
:1021A00087C0833018F48823B1F115C0833009F457
:1021B00090C0843081F466C0833511F1843528F4F1
:1021C0008F3459F0803539F410C0873509F464C074
:1021D000803F09F48BC084EFBFC0988190932D0697
:1021E00080916F019F70807F5FC08881998180930B
:1021F0001B0690931C068093620190936301ABC011
:102200008881998180931E0690931F0680936001B8
:1022100090936101A0C080913906882309F097C08E
:1022200080E098EFAFEFB7E0088004C0B695A795BF
:10223000979587950A94D2F781709070892B09F44D
:1022400088C02830310519F428E030E008C088E063
:1022500090E00E94F50B0897D1F726E130E09881D5
:1022600090932806809148019F71807E982B9093CF
:1022700048012830310509F46EC086E190E00E94E3
:10228000F50B69C080913906882309F060C0888108
:10229000882309F460C05DC0988190932A068091DC
:1022A0006F019295907F8F70982B90936F0153C020
:1022B000888180930F060E94DF0F80930F060E9493
:1022C0003F10909145018F70907F892B809345013D
:1022D00042C0888180931D06909148018295880FA5
:1022E00080769F79892B8093480135C088818093BF
:1022F00010068981809311068A81809312068B8152
:10230000809313068C81809314068D81809315062B
:102310008E81809316068F8180931706E0E1F6E0A8
:10232000A4E6B1E081918D9386E0E831F807D1F71A
:1023300012C088818093290690916E01880F880FC2
:10234000880F8870977F892B80936E0104C086E880
:1023500003C088EE01C080E0DF91CF9108950F9314
:102360001F93CF93DF93082F809139018D7F809346
:10237000390180EF90E00E945F06809139018E7FE5
:102380008093390181E090E00E945F0680913901DD
:1023900081608093390120E030E0809141012F5F1E
:1023A0003F4F93E0293E390711F485E85FC090E084
:1023B0008F7190708830910581F7909330068093EB
:1023C0002F0680916E01806280936E0180914C0196
:1023D000806880934C018CE480934E0186E090E00D
:1023E0000E94F50B10924E01C0E0D0E010E0809109
:1023F0004601CC0FDD1FCC0FDD1F90E08076907082
:1024000025E0969587952A95E1F7C82BD92B1F5F74
:10241000183069F783E090E00E94F50B80914F013E
:1024200010934F0180E480934F018CE480934E0120
:10243000CE010E94132B0E940E2B80936D01809180
:102440006E019770887F982B90936E0180E00E94B8
:1024500066130E945413002311F00E9402100E9480
:102460005810109239061092200680E0DF91CF912B
:102470001F910F9108950E94AF11882361F085E8A4
:10248000089581E296E060E070E00E94930B00976F
:1024900011F00E94C90A80912506882391F788E0EF
:1024A00080934F0180E480934F0184E080934F013B
:1024B00080E008950F931F93CF93DF930E94D3057D
:1024C000882309F0D0C0809139018160809339015F
:1024D000809139018D7F809339018CE791E00E94D2
:1024E0005F06809139018E7F8093390181E090E011
:1024F0000E945F068091390181608093390188E0F4
:102500008093420120E080914101215009F4ABC049
:1025100090E08F71907088309105A9F79093300604
:1025200080932F0680915C01833809F09CC0A1C084
:10253000C0E1D6E00E940E2B899386E0C831D8070F
:10254000C9F78091100630911106409112066091F2
:10255000130670911406F0911506B091160650916D
:102560001706082F015091E0081708F090E0832F1C
:10257000815021E0831708F020E0192F180F91E017
:10258000181708F090E0292B842F815031E0841730
:1025900008F030E0A22FA80F91E0A81708F090E013
:1025A000392B862F815021E0861708F020E0E32F99
:1025B000E80F91E0E81708F090E0292B872F815071
:1025C00031E0871708F030E0622F680F91E068175C
:1025D00008F090E0392B8F2F815021E08F1708F001
:1025E00020E0432F480F91E0481708F090E0292B96
:1025F0008B2F815091E08B1708F090E0322F380F2D
:1026000021E0381708F020E0922B5195591779F402
:102610003F3F69F44F3F59F46F3F49F4EF3F39F4BE
:10262000AF3F29F41F3F19F40E3F08F081CF81E03E
:102630000E94AF118823B9F48CE493E10E947F04D7
:1026400084E493E10E947A040E94D80A8AE90E94F5
:10265000D10A9093CC058093CB0581E296E00E944D
:10266000F70A80E001C085E8DF91CF911F910F91BB
:10267000089580E090E060E070E048E050E020E104
:1026800036E00E946B055DCF1F931FB7F8940E9440
:10269000F90E1FBF1F9108951F931FB7F8940E9452
:1026A000970E1FBF1F91089580912F0690913006BD
:1026B0000F9711F082E8089588E090E00E94F50BF2
:1026C000089711F085E8089580E00895882311F0B7
:1026D00088EE089580912F06909130060F9711F49F
:1026E00081E8089580913906882381F410922006AC
:1026F00088E090E00E94F50B0897D1F78FE090E01A
:102700000E94F50B0F9711F480E0089586E8089574
:10271000982F80913906882311F086E80895983023
:1027200041F488E090E00E94F50B1092200688E0CA
:1027300008958091CB059091CC05892B31F086E1ED
:1027400090E00E94F50B86E0089581E080932006DA
:1027500086E00895DC01ED91FC91119784E180837E
:1027600063835283418389E996E0BD010E94FE0A9A
:1027700008950F931F93DF93CF9300D0CDB7DEB7AB
:10278000A0915606B0915706ED91FC91119784E106
:1027900080838BEE83830FEF1FEF1283018389E920
:1027A00096E0BD010E94FE0A109247061A83098333
:1027B00080E5BE016F5F7F4F0E94721F1093590624
:1027C00000935806109266061092670610926806EB
:1027D0001092690610926A0610926B0610926C06AF
:1027E00010926D060E946B1E0F900F90CF91DF919B
:1027F0001F910F910895EF92FF920F931F93E09016
:102800006206F090630680E061E040E020E030E0A6
:1028100000E010E00E94FB198823A9F4A09156065D
:10282000B0915706ED91FC91119784E1808381EE80
:1028300083838FEF9FEF9283818389E996E0BD01C7
:102840000E94FE0A19C0A70160E070E084E0440F16
:10285000551F661F771F8A95D1F780E020E030E092
:1028600009EB13E1EE24FF240E949D08882321F048
:1028700080E090E00E94B9131F910F91FF90EF90BC
:102880000895FF920F931F93DF93CF9300D0CDB79E
:10289000DEB7F0908E060E94C90AFF20B1F583E5ED
:1028A0006CE876E00E94721F20918C0630918D06B4
:1028B00080918106809366068091820680936706E8
:1028C00080918306809368068091840680936906D0
:1028D0008091850680936A068091860680936B06B8
:1028E0008091870680936C068091880680936D06A0
:1028F00081E08093950610924706809151068330BF
:1029000031F582E08093510622C0109247060FEF06
:102910001FEF1A83098380E5BE016F5F7F4F0E941E
:10292000721F109359060093580610926606109273
:102930006706109268061092690610926A06109255
:102940006B0610926C0610926D062FEF3FEFE09130
:102950005606F0915706A081B18184E18C931396BD
:10296000FC92139712963C932E93119789E996E067
:10297000BF010E94FE0A0E946B1E0F900F90CF9124
:10298000DF911F910F91FF900895CF92DF92EF9208
:10299000FF921F93DF93CF93CDB7DEB72F970FB67C
:1029A000F894DEBF0FBECDBFAC017C01DE011196F5
:1029B000FC01808191819C01F9018FE001900D92D1
:1029C0008150E1F740935606509357068C81823030
:1029D00019F48F8198851AC08F8180936606888547
:1029E000809367068985809368068A858093690647
:1029F0008B8580936A068C8580936B068D8580938A
:102A00006C068E8580936D068EEF9FEF909359062E
:102A10008093580680E5BE016B5F7F4F0E94721F56
:102A20000E94461ED701CD90DC9081E0F6018083A4
:102A3000F282E182EA56FF4F80838F8581839F0176
:102A400028503040D901E0E1F6E088E001900D9295
:102A50008150E1F7F9018FEF9FEF929382938C8180
:102A6000823051F480915806909159069293829346
:102A700045E123E238EC11C0F9013A979F0146E69F
:102A800056E088E0DA010D90AD01D9010D929D016B
:102A90008150C1F74BE123E23CEC80911B06909101
:102AA0001C06929382938091520682938F5F80934B
:102AB0005206329322934293D6011796FC93EE93DB
:102AC000169784E0BE016D5F7F4F0E94721F182F22
:102AD00080E0BE016E5F7F4F0E94721F112371F470
:102AE000882361F4C60162E070E041E00E94920F29
:102AF000882321F481E08093960612C0D701ED91DE
:102B0000FC9184E1808381EE83838FEF9FEF92833A
:102B1000818389E996E0B7010E94FE0A0E946B1E3C
:102B20002F960FB6F894DEBF0FBECDBFCF91DF91C9
:102B30001F91FF90EF90DF90CF900895FC010190DE
:102B4000F081E02D628173818181448125810E9421
:102B50009E2A08950F931F938C01DC01ED91FC9147
:102B6000818162810E949B2AC8010E94C90A1F912B
:102B70000F910895AF92BF92CF92DF92EF920F9391
:102B80001F935C01DC01ED91FC910481158126818C
:102B90003781818162814381E08439966F010E948F
:102BA000EE01C5010E94C90A1F910F91EF90DF90BD
:102BB000CF90BF90AF9008950F931F938C01DC01CD
:102BC000ED91FC9181810E949D2AC8010E94C90A51
:102BD0001F910F9108950F931F938C01DC01ED91CC
:102BE000FC9181810E943D02C8010E94C90A1F9187
:102BF0000F9108950F931F938C01DC01ED91FC91CF
:102C000081810E94F200C8010E94C90A1F910F91A0
:102C100008950F931F938C01DC01ED91FC9181814C
:102C200062813396AF010E949A2AC8010E94C90AA4
:102C30001F910F910895EF92FF920F937C01DC0199
:102C4000ED91FC91218132814381548165817681AE
:102C50008781908501850E94992AC7010E94C90A2F
:102C60000F91FF90EF9008950F931F93DF93CF93F1
:102C7000CDB7DEB72B970FB6F894DEBF0FBECDBF32
:102C80008C01DC01ED91FC918281898383819481A7
:102C90009B838A839E012C5F3F4FAF014B5F5F4F49
:102CA00088E0DA010D90AD01D9010D929D018150AE
:102CB000C1F78181BE016F5F7F4F0E94982AC801D2
:102CC0000E94C90A2B960FB6F894DEBF0FBECDBF87
:102CD000CF91DF911F910F910895CF92DF92EF92E4
:102CE000FF920F936C01DC01ED91FC91BF016E5FCF
:102CF0007F4F24893589E788F08C81814389068953
:102D00000E94972AC6010E94C90A0F91FF90EF9076
:102D1000DF90CF9008950F931F938C01DC01ED910C
:102D2000FC918181928163810E94C501C8010E944A
:102D3000C90A1F910F9108950F931F938C01DC0115
:102D4000ED91FC91818162810E94962AC8010E94C6
:102D5000C90A1F910F910895CF92DF92EF920F93BE
:102D6000DF93CF93CDB7DEB766970FB6F894DEBF8B
:102D70000FBECDBF6C01DC01ED91FC918181898397
:102D8000828193819B838A839E012C5F3F4FAF0199
:102D90004C5F5F4F88E0DA010D90AD01D9010D92D3
:102DA0009D018150C1F784858C87858596859E8796
:102DB0008D879E01215F3F4FAF01415F5F4F88E0EC
:102DC000DA010D90AD01D9010D929D018150C1F73D
:102DD000228D338DCE010196BE01645F7F4F418D00
:102DE0000789E08C0E942F01C6010E94C90A6696DD
:102DF0000FB6F894DEBF0FBECDBFCF91DF910F911C
:102E0000EF90DF90CF900895FC0110826181728174
:102E10006115710521F08DE596E00E94FE0A089586
:102E20000F931F93CF93DF93282F80918C0690915F
:102E30008D0696FFA3C0222359F420917F0630917E
:102E4000800680911B0690911C062817390761F0B7
:102E500020917F063091800680915B0690915C0600
:102E60002817390709F08AC020918106309182061F
:102E700080915806909159062817390709F47EC0A9
:102E80009091810680916606981759F59091820677
:102E900080916706981729F59091830680916806BE
:102EA0009817F9F490918406809169069817C9F4EF
:102EB0009091850680916A06981799F490918606FC
:102EC00080916B06981769F49091870680916C0643
:102ED000981739F49091880680916D06981709F437
:102EE0004DC08AE90E94D10A8C01009709F446C0BE
:102EF000DC012D913C9185E0F901808312830183EF
:102F0000E956FF4F8083AF0148505040FA01A0E1DD
:102F1000B6E088E00D9001928150E1F7FA01389710
:102F2000EF01A6E6B6E088E00D9009928150E1F746
:102F300080911B0690911C06929382938091520679
:102F400082938F5F8093520683E69CEC92938293E8
:102F500088E18293D9011796FC93EE931697C901E5
:102F600062E070E041E00E94920F882321F481E04A
:102F70008093960603C0C8010E94C90ADF91CF91D1
:102F80001F910F9108950F931F93CF93DF93EC013F
:102F9000E881F981A681B7817C9170937106FD016A
:102FA000E70FF11D818180938A0611964D915C9106
:102FB000129750936F0640936E0613968C91139759
:102FC000809372068D010C5F1F4F652F6295669589
:102FD00066956370352F36953695337019F4F80180
:102FE00020E049C014968D919C9115979093750699
:102FF00080937406FD0136963230E1F41092760625
:1030000010927706109278061092790610927A063E
:1030100010927B0610927C0610927D0616968D917A
:103020009C9117979093770680937606FD013896CA
:1030300024E021C0333011F022E01DC016968C919F
:10304000169780937606818180937706828180939C
:103050007806838180937906848180937A068581BE
:1030600080937B06868180937C06878180937D0692
:10307000FD013E962AE0662309F447C046FD08C0DC
:10308000819191919093800680937F062E5F08C076
:1030900080917406909175069093800680937F06C8
:1030A0006230C1F41092810610928206109283065B
:1030B000109284061092850610928606109287065A
:1030C0001092880680819181909382068093810678
:1030D0002E5F1BC06330C9F480818093810681819B
:1030E0008093820682818093830683818093840605
:1030F000848180938506858180938606868180936E
:103100008706878180938806285F972F9550921BAA
:1031100090938B0660937E063093730643FD5CC1EB
:10312000D801A20FB11D842F877080937006833061
:1031300021F48C918093890663C0813009F451C0D9
:10314000813020F0833009F047C15AC08D919C91A5
:10315000119790938D0680938C0612968C911297FE
:1031600080938E06877011F493E002C0982F9C5FC5
:10317000FD01E90FF11D808180938F06292F2F5FBC
:10318000382F377090E08077907044E09595879560
:103190004A95E1F7482F332311F4882389F0CD01B4
:1031A000820F911D9093910680939006332311F026
:1031B000330F230F442321F0440F440F440F240FF7
:1031C00080918B06281750F4821B80939206A20FE1
:1031D000B11DB0939406A093930602C1109292067B
:1031E000FFC0992351F0963718F086E780938B063D
:1031F000B0938D06A0938C06F3C010928B06F0C09E
:1032000080918906843009F4EBC0853030F4823037
:1032100059F0833009F0E0C014C0873009F4E0C0F1
:10322000883009F0D9C012C011968D919C911297E7
:1032300090938D0680938C0613968C9180938E06C6
:10324000CFC011968C9180938C06CAC011968D9137
:103250009C91129790938D0680938C0613968D9176
:103260009C91149790938F0680938E0615968C915F
:1032700015978093900616968D919C911797909331
:1032800092068093910654FFABC018968C91809360
:103290009306A6C080917006833061F48091890600
:1032A000843011F0873031F48DE596E0BE010E9444
:1032B000FE0A9CC080914706813009F478C08130B5
:1032C00020F0843008F088C059C0809150068823CF
:1032D00051F590919506923008F07EC0809170066D
:1032E000813009F475C0813020F0833009F074C05A
:1032F0000CC080919806882309F46EC0992309F4C4
:103300006BC080E00E94101767C0809189068330EF
:1033100009F040C0CE010E940F1B809195068130BC
:1033200009F064C03DC08330D1F0843019F08230A0
:1033300009F052C080917006882309F04DC0809139
:103340009806882341F0809195068150823018F4C8
:1033500081E00E941017CE010E94312247C0809167
:1033600070068330C9F5809189068830A9F581E01F
:103370000E949107CE010E94B42538C00E94A0216E
:1033800080917006813021F1833031F5809189067A
:10339000833019F0883001F506C0CE010E940F1B62
:1033A0000E94191F23C0CE010E948E281FC0809149
:1033B0007006833059F480918906823069F480E088
:1033C0000E949107CE010E94411410C0813021F467
:1033D000CE010E94161C0AC0CE010E94C90A06C076
:1033E00080919606882309F055CF64CFDF91CF9165
:1033F0001F910F9108956F927F929F92AF92BF920B
:10340000CF92DF92EF92FF920F931F93CF93DF93B0
:10341000D82E962EC42E590138018AE90E94D10A6D
:103420007C01009709F49BC0DC010D911C91DD200B
:1034300021F084E0F801808303C08BE0D8018C93F5
:10344000F801F282E182E956FF4F84E08083209107
:103450001E0630911F06C9010296029710F09920AE
:1034600069F03897EF01A0E1B6E088E00D9009928D
:103470008150E1F762E183E290EC05C03293229340
:103480006CE083E290E8CC2061F020911B06309143
:103490001C066216730629F06E5F3293229370E069
:1034A00002C0806471E022E0C21641F4AC015860B1
:1034B000D5018D919C919293829328C0B3E0CB1655
:1034C00061F4AC015C6038976A5FEF01D50188E078
:1034D0000D9009928150E1F719C020915806309162
:1034E00059064FEF2E3F340729F0AC015860329354
:1034F00022930CC0AC015C6038976A5FEF01A6E6CE
:10350000B6E088E00D9009928150E1F73297772379
:1035100039F080911B0690911C069183808302C034
:10352000718260828091520682938F5F80935206EF
:10353000529342936293D8011796FC93EE93169799
:10354000C80162E070E041E00E94920F882321F4FC
:1035500081E08093960604C0C7010E94C90A80E0FA
:10356000DF91CF911F910F91FF90EF90DF90CF905F
:10357000BF90AF909F907F906F900895EF92FF92D1
:103580000F931F93CF93DF937C01E801DC01ED9152
:10359000FC9186E180836183428334832383CF015E
:1035A0000596423069F415821682178210861186BC
:1035B000128613861486888199819683858307C035
:1035C000DC01F80188E001900D928150E1F789E972
:1035D00096E0B7010E94FE0ADF91CF911F910F91F3
:1035E000FF90EF9008950F931F93AC0180911E06FA
:1035F00090911F06029620911B0630911C0602979F
:1036000028F4CA0143E000E116E004C0CA0142E028
:103610000EE116E00E94BE1A1F910F910895CF93FC
:10362000DF939C01FC01C081D181FE0185E1819382
:10363000A1E8B6E088E00D9001928150E1F7809119
:103640008C06898789E996E0B9010E94FE0A1092EA
:10365000660610926706109268061092690610922C
:103660006A0610926B0610926C0610926D068FEF30
:103670009FEF9093590680935806DF91CF9108955C
:103680000F931F93DF93CF93CDB7DEB72E970FB66F
:10369000F894DEBF0FBECDBF8C01DC014D915C9173
:1036A000DE011196FA018EE001900D928150E1F752
:1036B000FA011283018383E08083EA56FF4F8083FF
:1036C0008D85818338979F0160E176E088E0DB019A
:1036D0000D90BD01D9010D929D018150C1F78A81E4
:1036E000823031F48D819E819293829333E10FC0B9
:1036F00038979F01BE016B5F7F4F88E0DB010D9023
:10370000BD01D9010D929D018150C1F739E1809130
:103710001B0690911C06929382938091520682938D
:103720008F5F809352062A81922F990F990F80E024
:103730008366906C929382933293DA011796FC938E
:10374000EE9316970E94461EF8018081918162E0F7
:1037500070E041E00E94920F882321F481E0809381
:1037600096060CC02B813C81C80161EE4A818E0116
:103770000B5F1F4F0E94BE1A0E946B1E2E960FB643
:10378000F894DEBF0FBECDBFCF91DF911F910F9197
:103790000895DC01ED91FC911197E081E43278F419
:1037A000F0E0EE0FFF1FE05DFE4F259134912115F3
:1037B000310519F0F901099508950E94C90A089583
:1037C0001F9380919606882381F480914F06882369
:1037D00061F08BE496E060E070E00E94930B00974C
:1037E00021F00E94C91B11E001C010E08091610628
:1037F000882359F08DE596E060E070E00E94930B1D
:10380000009719F00E94C91B11E0812F1F910895A4
:10381000DC01ED91FC91119780E18083418362830B
:1038200089E996E0BD010E94FE0A08950F931F9357
:10383000DF93CF93CDB7DEB728970FB6F894DEBFEE
:103840000FBECDBFAC01DC019C9111962C918091F3
:103850008B06882321F4CA010E94C90AFAC0E92F05
:10386000F22F80917206808F80917E068183825034
:103870008230A8F480917F069091800693838283A2
:103880009F012C5F3F4F61E876E088E0DB010D90FF
:10389000BD01D9010D929D018150C1F70AC013826B
:1038A0001282148215821682178210861186128661
:1038B0001386208D80913A06281761F594818091B6
:1038C0003D06981739F5958180913E06981711F5B8
:1038D000968180913F069817E9F497818091400680
:1038E0009817C1F4908580914106981799F49185B5
:1038F00080914206981771F492858091430698173B
:1039000049F4938580914406981721F4CA010E94D6
:10391000C90A5AC020933A06848180933D06858166
:1039200080933E06868180933F0687818093400680
:1039300080858093410681858093420682858093AD
:103940004306838580934406209173062487178657
:10395000108A118A128A138A148A158A168A80910B
:1039600074069091750696878587233079F49F01B8
:10397000215F3F4F66E776E088E0DB010D90BD01F7
:10398000D9010D929D018150C1F70BC0223039F44D
:103990008091760690917706908B878702C0168675
:1039A000158680918A06878B80918B06818F809106
:1039B0008C0690918D06938F828F81E1808389E9B7
:1039C00096E0BA010E94FE0A80916E0684FF41C013
:1039D00080917E06823071F48091810690918206FA
:1039E0009A83898300917F061091800680E060E0D1
:1039F00042E021C0833019F580918106898380914E
:103A000082068A83809183068B83809184068C83CF
:103A1000809185068D83809186068E8380918706AE
:103A20008F8380918806888700917F061091800699
:103A300080E060E043E09E012F5F3F4F07C080E0E1
:103A400060E040E020E030E000E010E00E94FB1980
:103A500002C00E946B1E28960FB6F894DEBF0FBE00
:103A6000CDBFCF91DF911F910F910895CF92DF923B
:103A7000EF92FF920F931F93DF93CF93CDB7DEB7F3
:103A800062970FB6F894DEBF0FBECDBF8C01DE018A
:103A90001196FC01808191819C01F90182E10190E4
:103AA0000D928150E1F78F8582FD11C0809147060C
:103AB000882321F480915006882349F09E85D801FF
:103AC000ED91FC9180E18083918381EEB5C0F80196
:103AD000C080D1808DE0D6018C938E8513968C9317
:103AE000888945E0F42EF80EE8E9F0E0E81BF109DA
:103AF000EC0DFD1D9A81923051F437E0F32EF80E53
:103B000080911E0690911F069293829312C093306B
:103B100081F438972DE0F22EF80E9F0140E156E037
:103B200088E0DA010D90AD01D9010D929D0181501F
:103B3000C1F720911B0630911C068C819D812817AE
:103B4000390749F48A81882331F08B81882319F061
:103B500040E450E009C08A81882321F0B2E0FB0EE6
:103B60003293229340E050E08B81882311F1823020
:103B700039F46F2D6E5F8E819F819293829312C074
:103B800038976F2D685F9F0196E0E92EF12CEC0EBF
:103B9000FD1E88E0D7010D907D01D9010D929D0198
:103BA0008150C1F782E0F82EF60E8C819D819293B0
:103BB00082938091520682938F5F80935206BA015E
:103BC00061608F8580FF02C0BA0161628889873693
:103BD00008F070618B81382F330F330F20E04A815A
:103BE000942F9295990F990F907C80E0282B392B78
:103BF000262B372B329322933296F7FC15C033973E
:103C0000F082D6011796FC93EE9316970E94461EFB
:103C1000F60112830183C60162E070E041E00E9478
:103C2000920F882381F013C09E85D801ED91FC91FD
:103C300080E18083918385EE828389E996E0B801F3
:103C40000E94FE0A14C081E08093960610C09E85F3
:103C5000D801ED91FC9180E18083918381EE828394
:103C600089E996E0B8010E94FE0A0E946B1E6296E6
:103C70000FB6F894DEBF0FBECDBFCF91DF911F917D
:103C80000F91FF90EF90DF90CF900895809197066D
:103C9000813051F40E945413853831F081E090E076
:103CA0000E9428061092970608958091970688230F
:103CB00089F480E090E00E94280680E00E9466136C
:103CC000882321F481E080939706089581E090E0B5
:103CD0000E942806089580913B06882331F4809144
:103CE0005A06882311F40E94551E08950F931F93BE
:103CF000182F109296061092950610929706109221
:103D00005006109251061092470610923A068FEF15
:103D100080933D0680933E0680933F068093400645
:103D20008093410680934206809343068093440625
:103D300010925A0688E00E9488130FB7F89480E02A
:103D40000E94910781E00E94910782E00E94910702
:103D50000FBF112391F11092980682EC97E0909397
:103D60004A068093490680E098E790936306809323
:103D700062061092460681E08093480686E08093B2
:103D80003C06109266061092670610926806109222
:103D9000690610926A0610926B0610926C061092D9
:103DA0006D068FEF9FEF90935906809358060E94FF
:103DB0000E2B8093520610923B061F910F9108958F
:103DC0000F931F93CF93DF93EC01088119810E9419
:103DD000461EF801018180E090E00E94280680E004
:103DE000011181E00E943B12182F81E090E00E94B7
:103DF0002806802F0E94761E0E946B1E8BE496E0A0
:103E00000E949F0B8DE596E00E949F0B89E996E04A
:103E10000E949F0BE881F981118380E2808389E908
:103E200096E0BE010E94FE0ADF91CF911F910F9193
:103E30000895DF93CF9300D000D0CDB7DEB70E94B6
:103E4000461E8FEF9FEF9A8389839C838B8383E544
:103E5000BE016F5F7F4F0E94721F80E5BE016D5FE4
:103E60007F4F0E94721F81E00E94761E0E946B1E8F
:103E70000F900F900F900F90CF91DF9108950E94B7
:103E80005A12882399F40E945C0A882379F081E011
:103E90000E94761E0E946B1E8BE496E00E94F70A39
:103EA0008DE596E00E94F70A80E0089585E8089580
:103EB000E82F883030F4E82FF0E0E858FE4F849186
:103EC00008958054803228F4F0E0E05CFE4F849145
:103ED0000895E03F10F480E00895F0E0E055FF4FD2
:103EE000849108951F93CF93DF93182FEB01809156
:103EF0009706813051F40E94461E812FBE010E9418
:103F0000B110182F0E946B1E04C0812F0E94B110A7
:103F1000182F812FDF91CF911F910895FF920F935A
:103F20001F93CF93DF93182FEB01F42E813520F5EB
:103F30008E3408F087C0833409F484C0843460F47C
:103F4000853038F4823008F07DC0882309F47AC0C7
:103F50002DC0823459F53AC08A3409F43FC08B34FD
:103F600028F48434B9F1873409F56CC08B3409F432
:103F70004EC08C34D9F452C0873509F463C08835FB
:103F800058F4853530F4833508F05CC0823571F41F
:103F900049C0863559F40CC0893509F453C08935B8
:103FA00058F08A3561F0803F09F44CC004EFABC093
:103FB000888180939806A6C0888199819FC0888156
:103FC000998190936306809362069CC08881809358
:103FD000480698C0888180933C0694C0888180936D
:103FE00066068981809367068A81809368068B8143
:103FF000809369068C8180936A068D8180936B061D
:104000008E8180936C068F8180936D067BC0888142
:104010009981909359068093580674C08881809343
:10402000520670C06881611161E060933B066623AF
:1040300031F00E94461E86E00E94881363C00E94F1
:104040006B1E60C0812FBE010E94B110082F813805
:1040500071F40E945413812FBE010E94B110082FE9
:10406000882309F050C081E08093CF0503C08823E6
:1040700009F049C080912606282F30E080912A0659
:10408000482F50E060912D06CA01861B9109281720
:1040900039070CF4C901A82F281B310981E090E0F1
:1040A00002C0880F991F4A95E2F70197289FA00147
:1040B000299F500D389F500D112420E030E070E012
:1040C000E1E0F0E00DC0C901860F971FEF0102C0CB
:1040D000CC0FDD1F8A95E2F74C0F5D1F2F5F3F4F1E
:1040E0002A1788F384E190E09C01429FC001439F1E
:1040F000900D529F900D1124865F9E4F90934A061B
:104100008093490600E0FF2049F08091CF05882385
:1041100029F080E00E9466131092CF05802FDF9176
:10412000CF911F910F91FF900895EF92FF920F93FF
:104130001F937C01FC0100811181B8016E5F7F4FEC
:10414000F801818141E00E948E1FF80191819283E4
:104150009FE19083818389E996E0B7010E94FE0A7E
:104160001F910F91FF90EF900895CF93DF93AC01D3
:10417000DC01ED91FC919F012D5F3F4F81818C34DB
:1041800009F485C08D3438F5853009F464C0863073
:1041900088F4823009F4ACC0833030F4882309F409
:1041A00097C08130E9F597C0833009F4A4C084300A
:1041B000B9F54EC0823409F459C0833430F48630E6
:1041C00009F44EC0873061F54EC08A3409F451C0FD
:1041D0008B3431F557C0863529F1873588F4803521
:1041E00009F45EC0813530F48E3409F453C08F3445
:1041F000B9F453C0823509F458C0833589F458C0E6
:104200008935D9F08A3528F4873579F0883541F435
:104210000FC08D35D1F0803F09F451C08A3581F04F
:1042200094EF6DC08091980668C080912A0665C0A1
:104230008091490690914A063FC080912E065DC04C
:10424000809162069091630637C08091460655C002
:1042500080911A0652C080911806909119062CC0C0
:10426000809131064AC08091270647C08091480658
:1042700044C0E901A6E6B6E088E00D9009928150BD
:10428000E1F73CC0809158069091590615C0809185
:10429000520633C08091260630C080912D062DC075
:1042A00080911B0690911C0607C080913B0625C09B
:1042B00080911E0690911F06948383831FC0E9019D
:1042C000A0E1B6E088E00D9009928150E1F716C0B8
:1042D0008091280612C08091350690913606A091F3
:1042E0003706B091380683839483A583B68306C0CE
:1042F00080910F0602C080911D06838390E081812A
:1043000082838EE18083918389E996E0BA010E94DD
:10431000FE0ADF91CF910895CF93DF93EC01E881FE
:10432000F98183E280836183662311F00E946B1E12
:1043300089E996E0BE010E94FE0ADF91CF910895BF
:10434000809170068823E1F080E00E9491078091BF
:104350007006813031F480918B06882311F060E083
:1043600001C06BEE80914706823031F48091560691
:10437000909157060E948C21109296061092470643
:10438000089580914706823039F4809156069091C5
:1043900057066BEE0E948C211092470610929606EB
:1043A0000895CF92DF92EF92FF920F931F93DF93C6
:1043B000CF93CDB7DEB728970FB6F894DEBF0FBE08
:1043C000CDBFD82EC92E809147068823B1F58091A4
:1043D0005006882391F50E94461EED2CFC2CD70137
:1043E000ED91FC9181819F012C5F3F4F823031F430
:1043F000848195819A83898342E00DC0AE014F5F2D
:104400005F4F88E0D9010D909D01DA010D92AD0159
:104410008150C1F743E00281138181E060E09E0199
:104420002F5F3F4F0E94FB19882311F4C70107C07B
:10443000D0925606C092570605C08D2D9C2D61EE78
:104440000E948C2128960FB6F894DEBF0FBECDBF18
:10445000CF91DF911F910F91FF90EF90DF90CF9060
:1044600008955F926F927F928F929F92AF92BF92C8
:10447000CF92DF92EF92FF920F931F93DF93CF9330
:10448000CDB7DEB761970FB6F894DEBF0FBECDBFD4
:10449000BC0140915006423011F0443069F48091E3
:1044A0004806882349F0E0915606F091570620818E
:1044B0003181D901199604C0A0E0B0E020E030E0DD
:1044C00050917E06598300917F06109180061B83D0
:1044D0000A83523069F41E821F82188619861A8652
:1044E0001B8680918106909182069D838C8318C0E3
:1044F000809181068C83809182068D8380918306D2
:104500008E83809184068F83809185068887809131
:1045100086068987809187068A87809188068B879F
:10452000909028069C86B0901A06BD8680918C06D5
:1045300090918D069F878E87188A80918E0687FFBF
:1045400002C081E0888B80918A06898B423019F005
:10455000443009F06FC080914806882309F46AC08E
:10456000F901F084EC81FD815C806D807E808F801C
:10457000A884C984DA84EB8440E049C011968D9107
:104580009C9112970817190709F03FC08C91581792
:10459000E1F51B968C911B979816B9F51C968C919A
:1045A0001C97B81691F5523041F413968D919C9159
:1045B0001497E817F90749F53DC013968C911397A6
:1045C000851519F514968C9114978615F1F41596A6
:1045D0008C9115978715C9F416968C9116978815A6
:1045E000A1F417968C9117978A1579F418968C91E7
:1045F00018978C1551F419968C9119978D1529F4EB
:104600001A968C911A978E15A9F04F5F51964F15F7
:1046100008F4B4CF59C0FD01DE01119681E10D907F
:1046200001928150E1F7D90118968C9118978F5F0C
:1046300018968C9390918F0680919206882321F48E
:10464000809148068823E1F5DB01ED91FC9187E13B
:1046500080838091720681839F012E5F3F4FAE0160
:104660004F5F5F4F81E1DA010D90AD01D9010D92ED
:104670009D018150C1F780918F06838B892F8770B0
:1046800059F4892F90E08077907024E09595879574
:104690002A95E1F7882331F0809190069091910658
:1046A000958B848B80919206868B80919306909156
:1046B0009406908F878B89E996E00E94FE0A09C0D4
:1046C000CB010E94C90A05C0E4E0EF1508F4B2CF9F
:1046D000A2CF61960FB6F894DEBF0FBECDBFCF91CB
:1046E000DF911F910F91FF90EF90DF90CF90BF90DF
:1046F000AF909F908F907F906F905F900895EF9212
:10470000FF920F931F93CF93DF93182FEB0110921B
:10471000960680915006823021F48881873051F4CA
:1047200005C0833039F48881863021F4812F0E94BE
:10473000EE27A5C08881843009F451C0853030F45B
:10474000813009F1833009F098C010C08B3009F432
:1047500046C08D3021F0853009F08FC087C0898137
:104760009A81612F4B810E94081C87C089819A81A0
:10477000612F0E94F31A80919506813009F07DC067
:104780000E94191F7AC0193E11F0113E41F489812F
:104790009A81612F4FEF5FEF0E94AA136EC0809342
:1047A0004706409162065091630660E070E094E035
:1047B000440F551F661F771F9A95D1F780E020E0C0
:1047C00030E00BEF13E1EE24FF240E949D088823C4
:1047D00009F455C080E090E00E94FB1350C089812D
:1047E0009A810E94C90A80914706813009F447C026
:1047F00088818430A1F4173881F0E0915606F09159
:104800005706A081B18183E28C9311961C9389E9AC
:1048100096E0BF010E94FE0A30C082E005C0193E4A
:1048200061F1113E51F183E08093470640914906C2
:1048300050914A0660E070E084E0440F551F661F07
:10484000771F8A95D1F780E020E030E001EC11E29B
:10485000EE24FF240E949D0891E090939606882301
:1048600071F080E090E00E94C12109C089819A81A5
:104870000E94C90A8EEE0E9449280E946B1EDF9199
:10488000CF911F910F91FF90EF900895EF92FF92BB
:104890000F931F9310925A0680913B068823C9F408
:1048A000809197068823A9F488E00E9488138830B5
:1048B00071F082E040E850E060E070E020E030E03D
:1048C00006E414E2EE24FF240E949D0802C00E9428
:1048D0006B1E1F910F91FF90EF900895DF92EF9262
:1048E000FF920F931F93CF93DF93EC01E881F9813F
:1048F000E680F78000851185E114F10401051105BA
:1049000039F480E090E00E944624E881F98147C0B4
:10491000809147068823F1F5809150068823D1F5D0
:104920000E94461E86E00E948813D82E81E0809364
:104930005A0682E00E948C06882319F082E00E94C9
:10494000910784E0EE0CFF1C001F111F8A95D1F720
:1049500082E0B801A70120E030E006E414E2EE2492
:10496000FF240E949D08882381F0E881F98181E27B
:10497000808388EE818389E996E0BE010E94FE0A69
:1049800080E090E00E94462412C0E881F98186E030
:10499000D81629F081E2808382EF818303C081E20F
:1049A0008083118289E996E0BE010E94FE0ADF91B0
:1049B000CF911F910F91FF90EF90DF900895BC0170
:1049C00089E996E00E94FE0A809145068093D6050B
:1049D00084E066ED75E00E94721F80915506809319
:1049E000D50580E065ED75E00E94721F10925006BB
:1049F0000E946B1E0895CF93DF93E0916406F091BF
:104A00006506C081D181DE01A956BF4FFA83E983D3
:104A1000882339F087E088838C934AE023E038E0EC
:104A200013C086E088838C9318979D0140E156E07F
:104A300088E0FA010190AF01F90101929F018150D4
:104A4000C1F742E123E438ECFD018FEF9FEF929331
:104A500082933297918380831597809152068C932D
:104A60008F5F809352063E932E93FD014293FF8306
:104A7000EE83CE0162E070E040E00E94920F882356
:104A800011F080E003C081E080939606DF91CF9122
:104A90000895EF92FF920F931F93DF93CF930F929E
:104AA000CDB7DEB790915006933009F443C09430EF
:104AB00041F0923009F050C0882309F048C081E0ED
:104AC0003BC0882309F043C086E00E9488138630EB
:104AD00021F540EC53E060E070E00090D70504C0A1
:104AE000440F551F661F771F0A94D2F740545C4F3E
:104AF0006F4F7F4F84E0440F551F661F771F8A95C5
:104B0000D1F781E020E030E006ED16E2EE24FF244C
:104B10000E949D08882301F113C08091D5058F5F05
:104B20008093D505609156067091570682E00E94E9
:104B30000C2612C0882359F40E94FB24882361F4B8
:104B400081E08983CE0101960E94D62605C080911E
:104B5000D5058F5F8093D5050F90CF91DF911F9181
:104B60000F91FF90EF9008950F931F938C01809108
:104B70006406909165060E94C90A1092650610921B
:104B80006406A0915606B0915706ED91FC911197DD
:104B90008BE18083118283E08283148215821682E6
:104BA0001782108689E996E0BD010E94FE0A1092E4
:104BB00050060E946B1EC8010E94C90A80E56CE87D
:104BC00076E00E94721F80919106909192068F5F0D
:104BD0009F4F29F083E561E976E00E94721F809182
:104BE0008E0690918F069093590680935806809177
:104BF0006E0690916F0694FF05C084E063E976E04D
:104C00000E94721F80E060E976E00E94721F0E949D
:104C100049251F910F910895EF92FF921F93CF9313
:104C2000DF93182F7B01FB01C081D18184E066ED09
:104C300075E00E94721F40915006509148062091E5
:104C4000D50555C0423011F0443031F4552321F0E0
:104C50008885853008F04EC0133021F4888588237C
:104C600009F087C0322F3F5F8C819D81AE81BF816B
:104C7000022E04C0B695A795979587950A94D2F70A
:104C800081709070892B91F12093D505113011F42A
:104C900082E003C0123021F484E08093500604C007
:104CA000133011F41093500680E065ED75E00E941A
:104CB000721F182F8823B1F08091640690916506C9
:104CC0000E94C90A10926506109264060E946B1E2B
:104CD0008AEE8983188689E996E0B7010E94FE0A68
:104CE00010925006812F0E9449255AC0232F2B3144
:104CF00008F4A8CF2093D505123041F11330D9F133
:104D0000113009F04DC080916406909165060E94B3
:104D1000C90A10926506109264068091480688239D
:104D200039F08885853010F08AEF05C0882311F0AE
:104D3000198202C08AEE898380E56BE576E00E94E5
:104D4000721F809156069091570628C0552339F05E
:104D50008885853010F08AEF05C0882311F019820C
:104D600002C08AEE898380E56BE576E00E94721FBF
:104D700014C02093D50580916406909165060E9429
:104D8000C90A10926506109264068885882311F07E
:104D9000198202C08AEE89831886C7010E94DF2427
:104DA000DF91CF911F91FF90EF900895CF93DF9304
:104DB000C0915606D091570698812981809150065E
:104DC0008250833020F5E92FF22F21E030E040E0DF
:104DD00050E00090D50504C0220F331F441F551F1B
:104DE0000A94D2F72095309540955095848195810D
:104DF000A681B78182239323A423B523848395833B
:104E0000A683B7838091D005BE010E940C26DF9156
:104E1000CF910895CF92DF92EF92FF920F931F935D
:104E2000DF93CF9300D0CDB7DEB7D82EC92E082F91
:104E3000192FD801ED91FC91809128068093550699
:104E400080911A068093450686818093D7058181DB
:104E50008093D00582819381A481B5818093D1050F
:104E60009093D205A093D305B093D40527812093C6
:104E7000D605D0925606C09257068BE1808380916A
:104E8000D00582838091D1059091D205A091D30560
:104E9000B091D40584839583A683B783238310863A
:104EA000118680914706882341F48091500688231B
:104EB00021F48091D005882341F488EE818389E92B
:104EC00096E0B8010E94FE0A7EC00E94461EF801CC
:104ED000E080F1808BE08093D5058091D005813012
:104EE00008F466C0833020F0833009F061C04BC005
:104EF0008FEF9FEF9A83898380911B0690911C0608
:104F000090935C0680935B0680E5BE016F5F7F4FE8
:104F10000E94721F8091D005813021F4D0926406E6
:104F2000C09265068AE90E94D10A90935706809341
:104F300056060097E9F18091D005823019F4C80136
:104F40000E94C90A2091560630915706D901ED9169
:104F5000FC918BE180838091D00582838091D6057E
:104F600083838091D1059091D205A091D305B09112
:104F7000D40584839583A683B78310861186809198
:104F8000D005B90112C08AE90E94D10A9093650642
:104F900080936406009721F488EEF70181830CC0AA
:104FA000609156067091570683E00E940C260BC054
:104FB00088EED70111968C9389E996E0B8010E949A
:104FC000FE0A0E946B1E0F900F90CF91DF911F91F0
:104FD0000F91FF90EF90DF90CF900895EF92FF92A6
:104FE0000F931F93DF93CF930F92CDB7DEB79091BE
:104FF00052069F5F909352068823B1F58091500628
:10500000823091F440EC53E060E070E00090D7050E
:1050100004C0440F551F661F771F0A94D2F74054EF
:105020005C4F6F4F7F4F07C080916206909163067F
:10503000AC0160E070E094E0440F551F661F771FDD
:105040009A95D1F781E020E030E006ED16E2EE24FB
:10505000FF240E949D088823A1F081E08983CE016E
:1050600001960E94D6260DC08091D5058F5F809352
:10507000D50560915606709157068091D0050E9423
:105080000C260F90CF91DF911F910F91FF90EF9021
:1050900008952CED35E03093D9052093D8059DE196
:1050A0009093DC058093DD0580915006882379F08C
:1050B00080915B0690915C069093DF058093DE05FE
:1050C000809155068093E005809145060EC0809141
:1050D0001B0690911C069093DF058093DE0580915E
:1050E00028068093E00580911A068093E10589E9FE
:1050F00096E068ED75E00E94FE0A80919506823088
:1051000050F480915006882331F48091470688231B
:1051100011F40E946B1E1092510608950F931F9375
:105120008C018FEE0E944928C8010E94C90A80E5BF
:105130006CE876E00E94721F809191069091920631
:105140008F5F9F4F29F083E561E976E00E94721F2F
:1051500080918E0690918F06909359068093580601
:1051600080916E0690916F0694FF05C084E063E91C
:1051700076E00E94721F80E060E976E00E94721F74
:105180001F910F910895CF93DF93EC018AE90E945C
:10519000D10ADC01009711F480E018C0ED91FC9178
:1051A00011978EE080838881818389819A8193839E
:1051B00082833496239688E0099001928150E1F72A
:1051C0008BE496E0BD010E94FE0A81E0DF91CF9161
:1051D0000895BF92CF92DF92EF92FF920F931F93A9
:1051E000182F6A017B01B22E8AE90E94D10ADC01E4
:1051F000009711F480E012C0ED91FC9111978BE0C3
:1052000080831183C282D382E482F582B6820783CF
:105210008BE496E0BD010E94FE0A81E01F910F9190
:10522000FF90EF90DF90CF90BF9008957F928F9284
:105230009F92AF92BF92CF92DF92EF92FF920F9325
:105240001F93782E6A017B01480159018AE90E9467
:10525000D10ADC01009711F480E014C0ED91FC91BB
:1052600011978AE080837182C282D382E482F582C0
:1052700086829782A086B1868BE496E0BD010E946B
:10528000FE0A81E01F910F91FF90EF90DF90CF9089
:10529000BF90AF909F908F907F9008951F93182F8D
:1052A0008AE90E94D10ADC01009711F480E00CC069
:1052B000ED91FC91119788E0808311838BE496E057
:1052C000BD010E94FE0A81E01F9108951F93182FCF
:1052D0008AE90E94D10ADC01009711F480E00CC039
:1052E000ED91FC91119789E0808311838BE496E026
:1052F000BD010E94FE0A81E01F9108950F931F9344
:10530000CF93DF93EC01162F042F8AE90E94D10A74
:105310009C01009711F480E01FC0DC01ED91FC912D
:1053200085E0808314878881818389819A81938332
:105330008283AF014C5F5F4FDE01139688E00D90D2
:10534000EA010992AE018150D1F705878BE496E01E
:10535000B9010E94FE0A81E0DF91CF911F910F9168
:105360000895FF920F931F93CF93DF93182FF62E7C
:10537000EA01022F8AE90E94D10A9C01009711F4E8
:1053800080E020C0DC01ED91FC9181E080831183FD
:105390008881838389819A8195838483AF014A5F61
:1053A0005F4FDE01139688E00D90EA010992AE018D
:1053B0008150D1F70687F2828BE496E0B9010E9412
:1053C000FE0A81E0DF91CF911F910F91FF90089528
:1053D000AF92BF92CF92DF92EF92FF920F931F9303
:1053E000CF93DF93D82EEB01F42EB22EA32EC02E36
:1053F00086E7841708F445C08AE90E94D10A8C0127
:10540000009709F43EC0DC01ED91FC9183E08083BC
:10541000D1822881228389819A8194838383CF01D9
:105420000596AE014D5F5F4F223069F415821682FA
:105430001782108611861286138614868B819C81B2
:105440009683858307C0EC01DA0188E00D9009920C
:105450008150E1F7C586E686F78628E930E02F1906
:1054600031092E0F3F1FC9016B2D7A2D4F2D50E0B2
:105470000E941E2B8BE496E0B8010E94FE0A81E098
:1054800001C080E0DF91CF911F910F91FF90EF90CD
:10549000DF90CF90BF90AF900895FF920F931F932E
:1054A000CF93DF93182F062FF72E8AE90E94D10A97
:1054B000EC01009711F480E016C0812F0E94581F64
:1054C000482FE881F98186E0808311833296CF01ED
:1054D000602F7F2D50E00E941E2B8BE496E0BE01D2
:1054E0000E94FE0A81E0DF91CF911F910F91FF9002
:1054F00008951F930E94E01B182F89E996E060E051
:1055000070E00E94930B009719F00E94C91B11E0F4
:105510000E94170E0E94CE05812F1F91089589E9E0
:1055200096E00E94F70A0E943F1F0895089508958B
:105530000895089508950895089508950895AA1B5B
:10554000BB1B51E107C0AA1FBB1FA617B70710F06E
:10555000A61BB70B881F991F5A95A9F780959095A0
:10556000BC01CD010895AF92BF92CF92DF92EF922E
:10557000FF920F931F93CF93DF93EC01A880B98024
:10558000CA80DB80A114B104C104D10441F484E2D7
:10559000A82E89EDB82E8BE5C82E87E0D82EC6013F
:1055A000B5012DE133EF41E050E00E94EE2F27EAF4
:1055B00031E440E050E00E94CF2F7B018C01C60116
:1055C000B5012DE133EF41E050E00E94EE2FCA011A
:1055D000B9012CEE34EF4FEF5FEF0E94CF2F6E0D2D
:1055E0007F1D801F911F97FF04C061507040804055
:1055F0009048688379838A839B839B013F77C901A5
:10560000DF91CF911F910F91FF90EF90DF90CF909E
:10561000BF90AF9008950E94B32A089589E992E05F
:105620000E94B32A0895A0E0B0E08093990290937D
:105630009A02A0939B02B0939C020895FB01DC01A7
:1056400002C001900D9241505040D8F708950F9339
:105650001F93CF93DF938C01EB01009731F4611519
:10566000710519F420E030E038C081E090E06EE090
:1056700070E00E94072EFC019C01009771F180E808
:105680008383209771F0D387C28781E883838091D9
:105690009E0690919F06892B21F4F0939F06E0933C
:1056A0009E0601151105C9F011870087838182606C
:1056B00083838091A0069091A106892B71F4F093C9
:1056C000A106E093A0068091A2069091A306892BE3
:1056D00021F4F093A306E093A206C901DF91CF91D4
:1056E0001F910F910895DF93CF93CDB7DEB7FE01E1
:1056F0003596619171918091A0069091A106AF01BC
:105700000E94EB2BCF91DF9108950F931F93CF93BE
:10571000DF938C01E091A006F091A106838181FFC7
:1057200021C0C0E0D0E00DC0E091A006F091A1063C
:1057300020853185BF01F9010995892B11F0CFEF43
:10574000DFEFF80181918F01882371F7E091A006C6
:10575000F091A106208531858AE0BF01F901099504
:10576000892B11F0CFEFDFEFCE01DF91CF911F91A9
:105770000F9108950F931F93DF93CF93CDB7DEB7AB
:105780002E970FB6F894DEBF0FBECDBF0D891E89D0
:1057900086E08C831A8309838FEF9FE79E838D8336
:1057A0009E01275E3F4FCE0101966F89788DA9013A
:1057B0000E94EB2B2F813885020F131FF8011082F6
:1057C0002E960FB6F894DEBF0FBECDBFCF91DF91FE
:1057D0001F910F9108952F923F924F925F926F9277
:1057E0007F928F929F92AF92BF92CF92DF92EF9271
:1057F000FF920F931F93DF93CF93CDB7DEB72B9715
:105800000FB6F894DEBF0FBECDBF3C012B015A018D
:10581000FC0117821682838181FD03C06FEF7FEF49
:10582000C6C19AE0892E1E010894211C311CF30187
:105830002381F20123FD859123FF81912F0188238C
:1058400009F4B2C1853239F423FD859123FF81919A
:105850002F01853229F490E0B3010E94452FE7CF54
:10586000982FFF24EE249924FFE1FF15D0F09B32FE
:1058700069F09C3228F4903259F0933291F40EC0C2
:105880009D3249F0903369F441E024C052E0F52A9A
:1058900084E0F82A28C098E0F92A25C0E0E1FE2A31
:1058A00022C0F7FC29C0892F80538A3070F4F6FE9D
:1058B00005C0989C902C1124980E15C0E89CE02CF3
:1058C0001124E80EF0E2FF2A0EC09E3229F4F6FC05
:1058D0006BC140E4F42A07C09C3619F450E8F52A5D
:1058E00002C0983649F4F20123FD959123FF91916E
:1058F0002F01992309F0B8CF892F8554833018F0F0
:105900008052833038F444E050E0A40EB51E5FE3CB
:1059100059830FC0933631F0933779F0933509F0FE
:1059200056C020C0F5018081898342E050E0A40E7A
:10593000B51E610101E010E012C0F501C080D18008
:10594000F6FC03C06FEF7FEF02C0692D70E042E00C
:1059500050E0A40EB51EC6010E943A2F8C015FE7ED
:10596000F52214C0F501C080D180F6FC03C06FEFB2
:105970007FEF02C0692D70E042E050E0A40EB51E3A
:10598000C6010E94282F8C0150E8F52AF3FE07C0BB
:105990001AC080E290E0B3010E94452FEA948E2D58
:1059A00090E008171907A8F30EC0F601F7FC8591DF
:1059B000F7FE81916F0190E0B3010E94452FE11045
:1059C000EA94015010400115110579F7EAC09436A8
:1059D00011F0993669F5F7FE08C0F5012081318193
:1059E0004281538184E090E00AC0F5018081918179
:1059F0009C01442737FD4095542F82E090E0A80E8B
:105A0000B91E9FE6F92257FF09C050954095309581
:105A100021953F4F4F4F5F4FE0E8FE2ACA01B90181
:105A2000A1012AE030E00E94712FD82ED21840C088
:105A3000953729F41F2D1F7E2AE030E01DC01F2D51
:105A4000197F9F3661F0903720F4983509F0ACC08B
:105A50000FC0903739F0983709F0A6C004C028E08D
:105A600030E00AC0106114FD146020E130E004C091
:105A700014FD166020E132E017FF08C0F5016081D7
:105A800071818281938144E050E008C0F5018081FA
:105A90009181BC0180E090E042E050E0A40EB51E90
:105AA000A1010E94712FD82ED2188FE7F82EF12273
:105AB000F6FE0BC05EEFF522D91438F4F4FE07C0F1
:105AC000F2FC05C08FEEF82202C01D2D01C0192D79
:105AD000F4FE0DC0FE01ED0DF11D8081803319F43F
