:100000000C9454010C947A010C94F5050C942B0675
:100010000C947A010C947A010C947A010C947A0174
:100020000C947A010C947A010C947A010C947A0164
:100030000C947A010C947A010C94800A0C947A0145
:100040000C94BC0A0C947A010C947A010C947A01F9
:100050000C947A010C947A010C947A010C947A0134
:100060000C947A010C947A010C947A010C947A0124
:100070000C947A010C947A010C947A010C947A0114
:100080000C947A010C947A010C947A010C947A0104
:100090000C947A010C947A010C947A010C947A01F4
:1000A0000C947A010C947A010C947A010C947A01E4
:1000B0000C947A010C947A010C947A010C947A01D4
:1000C0000C947A010C947A010C947A010C947A01C4
:1000D0000C947A010C947A010C947A010C947A01B4
:1000E0000C947A010C947A010C947A010C947A01A4
:1000F0000C947A010C947A010C947A010C947A0194
:100100000C947A010C947A010C947A010C947A0183
:100110000C947A010C947A010C947A010C947A0173
:100120000C947A010C947A010C947A010C947A0163
:100130000C947A010C947A010C947A010C947A0153
:100140000C947A010C947A010C947A010C947A0143
:100150000C947A010C947A010C947A010C947A0133
:100160000C947A010C947A010C947A010C94660533
:100170000C947A010C9498050C947A010C947A01F1
:100180000C947A010C947A010C947A010C947A0103
:100190000C947A010C947A010C947A010C947A01F3
:1001A0000C947A010C947A010C947A010C947A01E3
:1001B0000C947A010C947A010C947A010C947A01D3
:1001C0000C947A010C947A010C947A010C947A01C3
:1001D0000C947A010C947A010C947A010C947A01B3
:1001E0000C947A010C947A010C947A010C947A01A3
:1001F0000C947A01E7E7E7E7E7E7E8E9EACAAAABA0
:100200004525030405060708090AE7E7E7E7E7E7E6
:10021000E8E9EACBABACAD4827060708090A0B0CA6
:10022000C0A181828360614142222302030405064A
:100230000708090A0B0C0B1F3C1ABC19E727FF25FE
:100240009F244B2D962A042B172A2731D5330000E3
:100250006A35B02D0000C71DD71DB71D8D1DA61D09
:10026000D91CF21C6F1D00000000B11C621C251D72
:10027000371CC71C521C931C841C431CA21C010469
:10028000010101020101010101010101010104015A
:100290000802010101010201010201020101020142
:1002A000020201010101080011241FBECFEFDFE3AC
:1002B000DEBFCDBF00E00CBF18BE19BE1ABE1BBE0C
:1002C00010E2A0E0B0E2ECE7FEE700E00BBF02C006
:1002D00007900D92A03FB107D9F71BBE16E2A0EF21
:1002E000B0E201C01D92AB30B107E1F70E942304D8
:1002F0000C943C3F0C940000CF92DF92EF92FF925F
:100300000F931F93DF93CF93CDB7DEB7CF5FD0406E
:10031000CDBFDEBFF22EE32ED82EC92EE091F02005
:10032000F091F120309701F18091F2208217E1F4F1
:100330008091F3208317C1F48091F4208417A1F4F5
:100340008091F520851781F48091F620861761F45D
:100350008091F720871741F48091F8208D1521F4C2
:100360008091F920891741F12091FA203091FB20EA
:100370002115310531F18091FC208F1511F5809107
:10038000FD208E15F1F48091FE208417D1F4809128
:10039000FF208517B1F480910021861791F4809198
:1003A0000121871771F4809102218D1551F48091FC
:1003B00003218C1531F4F901D801ED93FC9381E010
:1003C0005BC0EF2B19F4A0E0B0E006C0232B11F0C6
:1003D00080E052C0A1E0B0E09D012F5F3F4FF801E7
:1003E00020833183FD01EE0FFF1FCD0113E0880F45
:1003F000991F1A95E1F7E80FF91FE051FF4D20838F
:100400003183FD01EE0FFF1FEE0FFF1FEA0FFB1FF1
:10041000EE0FFF1FEE50FF4DF082E18242835383C7
:1004200064837583D682C782809104218F5F809315
:10043000042100D000D0EDB7FEB731968E010F5FDA
:100440001F4FADB7BEB711960D931C93129780E066
:1004500090E282839383248335830E942E3B0F9006
:100460000F900F900F90EDB7FEB7018312830E949B
:10047000E73A81E00F900F90C150DF4FCDBFDEBF54
:10048000CF91DF911F910F91FF90EF90DF90CF9070
:100490000895EF92FF920F93DF93CF93CDB7DEB71E
:1004A000CF5FD040CDBFDEBF062F00D000D0EDB76C
:1004B000FEB731967E010894E11CF11CADB7BEB7C2
:1004C0001196ED92FC92129726E130E2228333835B
:1004D000848315820E942E3B0F900F900F900F90F7
:1004E000EDB7FEB7E182F2820E94E73A0F900F90DB
:1004F000002319F484E390E209C0013F19F48CE36E
:1005000090E204C0003F21F481E590E20E94F93AB4
:10051000C150DF4FCDBFDEBFCF91DF910F91FF9074
:10052000EF900895EF92FF920F931F93442369F485
:1005300084E040E45BE46CE470E020E030E00AEA50
:1005400012E0EE24FF240E9456091F910F91FF90A4
:10055000EF9008952F923F924F925F926F927F9209
:100560008F929F92AF92BF92CF92DF92EF92FF92C3
:100570000F931F93DF93CF93CDB7DEB7CB50D1400E
:10058000CDBFDEBFFF24EDE0CE2ED12CCC0EDD1E84
:1005900075E6272E70E2372E6EEB462E6AEB562E4E
:1005A0005FE7652E50E2752E42E0842E912C8C0E72
:1005B0009D1E5E010894A11CB11C67C00F2D10E0A8
:1005C00000D000D0EDB7FEB73196ADB7BEB71196EB
:1005D000CD92DC921297228233820F5F1F4F0483E9
:1005E0001583015010400E942E3B0F900F900F90EA
:1005F0000F90EDB7FEB7C182D2820E94E73AF2E0D7
:10060000FA834B825C82F80133E0EE0FFF1F3A95CC
:10061000E1F7000F111FE00FF11FE051FF4D808146
:1006200091818D839E830F900F900E94823A8983DF
:10063000809105218F5F8093052100D000D0EDB718
:10064000FEB73196ADB7BEB71196CD92DC92129738
:1006500062827382848315820E942E3B0F900F90DA
:100660000F900F90EDB7FEB7C182D2820E94E73A99
:100670000F900F9082E0B40141E0950100910521B7
:1006800095E0E92E0E941939F39480910421F8161F
:1006900008F494CF84E040E45BE46CE470E020E094
:1006A00030E00AEA12E0EE24FF240E945609C55FFA
:1006B000DE4FCDBFDEBFCF91DF911F910F91FF9035
:1006C000EF90DF90CF90BF90AF909F908F907F90F2
:1006D0006F905F904F903F902F9008958F929F92D0
:1006E000AF92BF92CF92DF92EF92FF920F931F9340
:1006F000DF93CF930F920F92CDB7DEB77901D42E4F
:10070000C52EB62EA72E982E892E8FEF9FEF8983A8
:100710009A83892D982D8E010F5F1F4F0E947C01B7
:1007200009811A81882349F097014D2D5C2D6B2D8D
:100730007A2D892D982DEE2409C097014D2D5C2D21
:100740006B2D7A2D892D982DEE24E3940E948D38FF
:100750000F900F90CF91DF911F910F91FF90EF902D
:10076000DF90CF90BF90AF909F908F900895882397
:1007700059F483E990E20E94F93A81E090E060E068
:1007800070E00E941D0C089581E00E9405380895D4
:10079000AF92CF92EF920F938EEB9AEB61E040E035
:1007A0002FE00FE0EE24E394CC24AA240E945537D6
:1007B0000F91EF90CF90AF900895DF93CF930F926A
:1007C0000F92CDB7DEB7882349F419821A8283E5E8
:1007D000BE016F5F7F4F0E947E3903C081E00E949F
:1007E00005380F900F90CF91DF9108950F93DF930D
:1007F000CF930F92CDB7DEB78823E9F4633521F4A8
:1008000081E0898381E405C0613449F481E0898312
:1008100082E5BE016F5F7F4F0E947E390FC0623557
:1008200051F481E04EEF57E060E070E021E000E03D
:100830000E94883703C081E00E9405380F90CF9155
:10084000DF910F9108950E94C039882311F00E9412
:10085000B3060E94170C80E090E060E070E00E9418
:100860001D0C81E090E061E070E00E941D0C82E0D0
:1008700090E061E070E00E941D0C789481E00E949D
:10088000DD05882311F00E94B3068BE894E062E74F
:1008900074E00E949B3A85EB90E20E94F93A87ED62
:1008A00090E20E94F93A81E00E9405380E94AA393C
:1008B000FDCFDF93CF930F92CDB7DEB781E0BE01BE
:1008C0006F5F7F4F41E00E94CB05813019F02FEF21
:1008D0003FEF03C08981282F30E0C9010F90CF91ED
:1008E000DF9108950F931F93DF93CF930F92CDB7AE
:1008F000DEB78E010F5F1F4F81E0B80141E00E941B
:10090000CB058823C9F3898190E00F90CF91DF91C7
:100910001F910F9108950F931F93DF93CF930F9221
:10092000CDB7DEB789838A3071F48DE089838E017B
:100930000F5F1F4F81E0B80141E00E94D40588237A
:10094000C9F38AE089838E010F5F1F4F81E0B801F0
:1009500041E00E94D4058823C9F380E090E00F9025
:10096000CF91DF911F910F9108959B01AC016050D1
:10097000774F824C9F4FF2E0660F771F881F991FB9
:10098000FA95D1F7E3E0220F331F441F551FEA9574
:10099000D1F70E94053A21503040E0E6F6E080E8C9
:1009A000818380E48283E0EBF9E0378326838CE166
:1009B000848383E085838CE383830895DC018091C5
:1009C000B309837FE0EBF9E08383209102258091D6
:1009D0000325821730F0275F922F981B892F29500B
:1009E00005C02150922F981B892F2F5F482F681721
:1009F00008F4462F342F12C090910325E92FF0E020
:100A0000E251FB4D8C918083993019F410920325AB
:100A100003C09F5F9093032531501196332361F7F4
:100A200080910625882351F4E22FF0E0E251FB4D3E
:100A300080818093B00981E0809306258091B3097D
:100A40008C60E0EBF9E08383842F0895DC01209132
:100A50000725222311F480E008958091B3098F7C4B
:100A6000E0EBF9E083832A3058F0809105258093EC
:100A700004258AE0809307256A3020F02AE003C02D
:100A8000261708F0262F322F17C0E0910425F0E03A
:100A9000E251FB4D82858C93909104259F5F90934A
:100AA0000425809107258150809307259A3011F401
:100AB0001092042511963150332339F78091B309F0
:100AC0008063E0EBF9E08383822F08951F920F92F9
:100AD0000FB60F9208B60F920BB60F92112418BEE4
:100AE0001BBE8F939F93EF93FF9390910525809169
:100AF00007258F5F809307258091B009E92FF0E0EB
:100B0000E251FB4D8287993019F41092052503C0FC
:100B10009F5F90930525FF91EF919F918F910F908B
:100B20000BBE0F9008BE0F900FBE0F901F90189530
:100B30001F920F920FB60F9208B60F920BB60F923C
:100B4000112418BE1BBE8F93EF93FF938091022553
:100B5000893019F41092022503C08F5F809302251B
:100B6000E091022580910325E81739F0F0E0E25189
:100B7000FB4D80818093B00902C010920625FF9141
:100B8000EF918F910F900BBE0F9008BE0F900FBE8C
:100B90000F901F901895813011F080E00895CB01DF
:100BA000642F0E9426050895813011F080E0089599
:100BB000CB01642F0E94DE040895813011F085E896
:100BC000089560E875E280E090E00E94B50480E05E
:100BD00008958093062190930721E0E4F6E091E0E8
:100BE000928B84E08287948708951F920F920FB6AC
:100BF0000F9208B60F9209B60F920BB60F921124FE
:100C000018BE19BE1BBE2F933F934F935F936F93F4
:100C10007F938F939F93AF93BF93EF93FF93E09155
:100C20000621F09107211995FF91EF91BF91AF91A6
:100C30009F918F917F916F915F914F913F912F91F4
:100C40000F900BBE0F9009BE0F9008BE0F900FBE05
:100C50000F901F9018951F920F920FB60F9208B623
:100C60000F92112418BE0F9008BE0F900FBE0F9068
:100C70001F9018954F925F926F927F928F929F92E2
:100C8000AF92BF92CF92DF92EF92FF920F931F939A
:100C9000CF93DF939C016B015A01CB01820F931F0D
:100CA0008150984010F085E84DC0A0E0B0E0C0EC65
:100CB000D1E040EC51E016E0612EF8EDEF2EF12C82
:100CC00001E010E06BEC71E0E3E37E2E95E3892E0A
:100CD00086E3982E33C08091CF0187FDFCCFFA01C7
:100CE00012823183522E2093C0016286C701FB011C
:100CF00084BF00838091C401F501EA0FFB1F40808F
:100D00008415C9F08091CF0187FDFCCF8091CF0180
:100D100081FF06C0FA019286C701FB0184BF0083F0
:100D20007A865092C00119821A824C828A86C70143
:100D3000FB0184BF00832F5F3F4F1196AC15BD05AB
:100D400050F280E0DF91CF911F910F91FF90EF90D3
:100D5000DF90CF90BF90AF909F908F907F906F90DB
:100D60005F904F9008951F93CF93DF93E0E8F6E0F4
:100D700014828FEF8183C0E8D6E01FEF8FEF9FEFE3
:100D80000E944F071F83FACFBF92CF92DF92EF925C
:100D9000FF920F931F93CF93DF938130910531F42E
:100DA000862F642FA9010E945F0B35C0892B11F09B
:100DB00088EE31C0CA01860F971F8150984010F00D
:100DC00085E829C0A0E0B0E0C0ECD1E096E0B92E03
:100DD00088EDC82ED12C01E0E02EF12C0BEC11E0B7
:100DE00016C08091CF0187FDFCCF1A827983609372
:100DF000C001BA86C601F80184BFE0828091C401B7
:100E0000F901EA0FFB1F808311966F5F7F4FA417D4
:100E1000B50738F380E0DF91CF911F910F91FF90DC
:100E2000EF90DF90CF90BF9008950E941D09089524
:100E30000E94180B0E94330B0E94A00C0E94D40A3F
:100E40000E940B0B0E94120B80E00895892B29F45D
:100E500088E080930008809340080895FC01209169
:100E6000082530910925C901A0E0B0E0BC01552753
:100E700044278091200890912108A0E0B0E0482B01
:100E8000592B6A2B7B2B80910825909109252817D7
:100E9000390729F7408351836283738308954FB7DD
:100EA000F8948630910518F120912008309121089E
:100EB000280F391F809120089091210882179307ED
:100EC00040F4809120089091210882179307C8F37D
:100ED0000EC0809120089091210828173907C8F387
:100EE000809120089091210882179307C8F34FBF83
:100EF000089520E090E0FC0153E0EE0FFF1F5A95AB
:100F0000E1F7E80FF91FE65FFA4D84819581892B9F
:100F100009F021E0822F0895DF92EF92FF920F9364
:100F20001F93DFB6F89480910A218F3F09F456C0D1
:100F300090E0FC01A3E0EE0FFF1FAA95E1F7E80F98
:100F4000F91FE65FFA4DE080F18002811381209164
:100F5000082530910925C801AA27BB27281739077A
:100F600069F4E0922808F092290880910C088061C9
:100F700080930C0880910708836003C08091070864
:100F80008C7F8093070860910825709109259B014B
:100F900040E050E08091200890912108A90133277A
:100FA0002227A0E0B0E0282B392B4A2B5B2B809125
:100FB0000825909109256817790729F72E193F0907
:100FC000400B510B2F5F3F4F4F4F5F4F2F5F3F4FF6
:100FD0004F4F5F4718F481E080930921DFBE1F91D6
:100FE0000F91FF90EF90DF90089580910921882361
:100FF00009F44CC01092092130910821332309F4DF
:1010000045C080910B218F3F59F480910C218F3F77
:1010100039F480910A2180930C2180930B2112C016
:1010200020910A2180910C2190E0FC0143E0EE0F19
:10103000FF1F4A95E1F7E80FF91FE65FFA4D208799
:1010400020930C2180910A2190E0FC0123E0EE0F17
:10105000FF1F2A95E1F7E80FF91FE65FFA4D80853B
:1010600080930A2180910C2190E0FC01B3E0EE0F07
:10107000FF1FBA95E1F7E80FF91FE65FFA4D8FEF12
:1010800080873150309308210E948C070895FF9289
:101090000F931F93182F853010F08AE8C5C0FFB654
:1010A000F8940E94F50700910821002309F4C0C0BC
:1010B00040910A21242F302F842F1217F1F5212F70
:1010C00030E0141781F4F90163E0EE0FFF1F6A9519
:1010D000E1F7E20FF31FE65FFA4D808580930A2166
:1010E0000E948C0718C090E0DC0153E0AA0FBB1FE0
:1010F0005A95E1F7A80FB91FA65FBA4DF90143E071
:10110000EE0FFF1F4A95E1F7E20FF31FE65FFA4D7E
:10111000808518968C93812F90E0FC0123E0EE0FE0
:10112000FF1F2A95E1F7E80FF91FE65FFA4D8FEFF1
:10113000808701500093082162C0822F90E0FC015B
:10114000B3E0EE0FFF1FBA95E1F7E80FF91FE65F76
:10115000FA4D50853150822F09F46AC0252FADCF4A
:101160001217D1F520910C211317B1F4121721F4A5
:101170008FEF80930C210DC0812F90E0FC01A3E044
:10118000EE0FFF1FAA95E1F7E80FF91FE65FFA4D92
:10119000808580930B2133C0842F90E0DC01E3E055
:1011A000AA0FBB1FEA95E1F7A80FB91FA65FBA4DBA
:1011B000812F90E0FC0173E0EE0FFF1F7A95E1F7BD
:1011C000E80FF91FE65FFA4D808518968C93121789
:1011D000B1F440930C2113C0822F90E0FC0163E036
:1011E000EE0FFF1F6A95E1F7E80FF91FE65FFA4D72
:1011F000422F20852F3F09F0B3CF80E00FC0812F11
:1012000090E0FC0153E0EE0FFF1F5A95E1F7E80F65
:10121000F91FE65FFA4D1482158281E0FFBE882334
:1012200011F489E801C080E01F910F91FF900895AB
:1012300030910B21232F432FDDCF1F931FB7F8943D
:101240000E94F5071FBF1FEF25C06FB7F894822FCC
:1012500090E0FC0173E0EE0FFF1F7A95E1F7E80FD5
:10126000F91FE65FFA4D208544815581868197817B
:10127000108714821582168217822F3F09F43FEFE0
:101280006FBF4115510551F030930C2120930B2174
:10129000FA01199530910C2120910B212F3FA9F6CD
:1012A00030930C2120930B211F9108952F923F9290
:1012B0004F925F927F928F929F92AF92BF92CF9206
:1012C000DF92EF92FF920F931F93CF93DF93782ECD
:1012D0005A016B01490194E0292E281610F48AE87E
:1012E000E2C00115110509F4DBC0C82FD0E0FE01F2
:1012F00083E0EE0FFF1F8A95E1F7EC0FFD1FE65F1D
:10130000FA4D84819581892B11F088E8CCC06091D9
:101310000825709109259B0140E050E0809120084C
:1013200090912108A90133272227A0E0B0E0282BC3
:10133000392B4A2B5B2B8091082590910925681742
:10134000790729F78114910431F061E08616910440
:1013500009F0A6C011C0D601C50180589040A04038
:10136000B04080589F4FAF4FBF4708F09BC0A20EC0
:10137000B31EC41ED51E10C0D601C50180589040B2
:10138000A040B040821B930BA40BB50B80589F4F1D
:10139000AF4FBF4708F086C09FB6F8940E94F5078C
:1013A00050910A215F3F31F060910821452F252F90
:1013B00030E054C070920A21FE01A3E0EE0FFF1F3F
:1013C000AA95E1F7EC0FFD1FE65FFA4D508731C09B
:1013D0002F3F09F43EC0822F90E0FC0173E0EE0F36
:1013E000FF1F7A95E1F7E80FF91FE65FFA4D80815C
:1013F0009181A281B38115012601281A390A4A0A6E
:101400005B0AD201C1018F5F9F4FAF4FBF4710F4FE
:10141000808521C0FE0133E0EE0FFF1F3A95E1F712
:10142000EC0FFD1FE65FFA4D2087521721F47092F2
:101430000A2191E017C0842F90E0FC0123E0EE0F19
:10144000FF1F2A95E1F7E80FF91FE65FFA4D708656
:1014500055C08FEF242F3F5F422F282F361708F4F7
:10146000B7CF33C0FE0183E0EE0FFF1F8A95E1F78F
:10147000EC0FFD1FE65FFA4DA082B182C282D382DB
:1014800004831583E682F782809108218F5F809321
:101490000821992311F00E948C079FBE80E003C0B1
:1014A00088EE01C08BE8DF91CF911F910F91FF90E3
:1014B000EF90DF90CF90BF90AF909F908F907F90F4
:1014C0005F904F903F902F900895842F90E0FC0103
:1014D000B3E0EE0FFF1FBA95E1F7E80FF91FE65FE3
:1014E000FA4D7086FE01A3E0EE0FFF1FAA95E1F70B
:1014F000EC0FFD1FE65FFA4D8FEF808790E0B2CFD3
:101500001F920F920FB60F9208B60F9209B60F9264
:101510000BB60F92112418BE19BE1BBE2F933F931A
:101520004F935F936F937F938F939F93AF93BF93EB
:10153000EF93FF9380910825909109250196809360
:101540000825909309250E948C07FF91EF91BF9188
:10155000AF919F918F917F916F915F914F913F914B
:101560002F910F900BBE0F9009BE0F9008BE0F90E9
:101570000FBE0F901F9018951F920F920FB60F92EB
:1015800008B60F92112418BE8F93809108218823EA
:1015900019F081E0809309218F910F9008BE0F9080
:1015A0000FBE0F901F9018951092082110920921DC
:1015B00010920825109209258FEF80930A218093BD
:1015C0000B2180930C21EEE0F5E2848310821182DE
:1015D000399695E2EB33F907C1F70E94480B08955D
:1015E000FC0180910825909109252091680830918F
:1015F0006908A0E0B0E0DC019927882740E050E0CE
:10160000822B932BA42BB52B80839183A283B3834E
:10161000089581E0089584E88093800181E68093B5
:1016200081010895E0EAF0E0828184608283089578
:1016300082E0809350008091510081FFFCCF98EDB3
:1016400094BF84E0E0E4F0E0818394BF81E0809384
:10165000400082E0E0E5F0E08683809160008160F8
:10166000809360000895E0E4F6E0808180618083EB
:1016700080818068808380818160808380818062B6
:10168000808380818860808380818F7B80830895C0
:1016900088E0809300088093400880EF80930C08D6
:1016A00080E380934C0883E080930608E1E4F8E04F
:1016B00080818061808389E28093430808956F92DE
:1016C0007F929F92AF92BF92CF92DF92EF92FF9262
:1016D0000F931F93DF93CF93CDB7DEB7C054D040A5
:1016E000CDBFDEBFD82EA62EC42EB52E3E01089447
:1016F000611C711C662DA0E4B6E0EE24E39470E159
:10170000F72E00EC18E053E0952E20EC38E0AE0107
:10171000405C5F4F962D961B70914906809149065B
:101720008C7F19968C9319971696EC9216971696AD
:10173000FC9216970000000000000000000000006E
:101740000000000000000000000000000000000099
:1017500000000000F80193828091C20887FFFCCF4F
:101760009F77F90193838091C20887FFFCCFF9012D
:1017700013828091C20887FFFCCF8091C308159621
:10178000FC9215971596EC92159719967C931997DC
:10179000F30180836416750621F00894611C711CA6
:1017A000B9CFFE01319620E030E0DE01AF5BBF4FE4
:1017B00081912827022E2295207F2025032E322F6B
:1017C00022952F700226269532272327220F220FDB
:1017D000220F2025EA17FB0759F7232B11F085E884
:1017E00014C0DE011196AD0DB11D8C2D9B2D9C01F9
:1017F000AD0106C0FA018191AF01F90181939F010A
:10180000842F8A1B8A15B0F380E0C05CDF4FCDBF08
:10181000DEBFCF91DF911F910F91FF90EF90DF908E
:10182000CF90BF90AF909F907F906F900895E0E829
:10183000F6E08FEF84838083089584309105E9F08A
:101840008530910548F48230910599F083309105F7
:1018500090F4019761F409C08630910591F08630CB
:10186000910568F0079719F40EC021E00DC020E043
:101870000BC022E009C023E007C024E005C025E03A
:1018800003C026E001C027E06115710521F0613039
:101890007105A9F40BC081E090E002C0880F991F88
:1018A0002A95E2F7E0E8F6E08683089502C0660F25
:1018B000771F2A95E2F7E0E8F6E06583089581E076
:1018C00090E002C0880F991F2A95E2F7E0E8F6E061
:1018D000878308951092A006089584309105E9F059
:1018E0008530910548F48230910599F08330910557
:1018F00090F4019761F409C08630910591F086302B
:10190000910568F0079719F40EC081E00DC080E0E2
:101910000BC082E009C083E007C084E005C085E019
:1019200003C086E001C087E02091A80630E002C035
:10193000359527958A95E2F721703070C901089591
:1019400080E58093C00880E1E0E4F6E085830895B7
:10195000E0E4F6E020914906909149069C7F91874A
:10196000806C90E19683E0ECF8E083838091C2087C
:1019700087FFFCCFE0ECF8E063838091C20887FF2B
:10198000FCCFE0E4F6E080E1858321870895E0E480
:10199000F6E020914906909149069C7F91878068E6
:1019A00090E19683E0ECF8E083838091C20887FFA2
:1019B000FCCFE0ECF8E013828091C20887FFFCCFF7
:1019C0008091C308E0E4F6E090E1958321870895D3
:1019D000CF93DF93DC0180E1E0E4F6E0868380E2F0
:1019E000E0ECF8E083838091C20887FFFCCFE0EC55
:1019F000F8E013826130A9F0FD01262FC0ECD8E099
:101A00008091C20887FFFCCF8091C3081B8281931D
:101A100021502230A8F76250862F90E00196A80F3F
:101A2000B91F8091C20887FFFCCF8091C3088C93B7
:101A300080E1E0E4F6E08583DF91CF910895DC0159
:101A400080E1E0E4F6E0868380E6E0ECF8E0838382
:101A50008091C20887FFFCCFE0ECF8E09D916150D7
:101A60008091C20887FFFCCF93836623B9F78091EA
:101A7000C20887FFFCCF80E1E0E4F6E085830895AB
:101A8000FF920F931F93062FF42E0E94C70C08237A
:101A900010E002C015950795FA94E2F7802F1F9188
:101AA0000F91FF900895DF92EF92FF920F931F9393
:101AB000D82EF62EE42E022F0E94C70C10E002C092
:101AC000000F111FEA94E2F76F2D6023F094F822C3
:101AD0006F298D2D0E94A80C1F910F91FF90EF9000
:101AE000DF900895BC01009721F081EC94E20E9400
:101AF000A70D089581EC94E260E070E00E943C0E36
:101B000008950F931F93CF93DF9381EC94E20E948B
:101B1000A00DC9EAD4E20DE011E20883198381EC3B
:101B200094E2BE010E94A70D249606561F4F84E240
:101B3000C13CD80791F7DF91CF911F910F91089584
:101B4000FC01108211821282138214820895CF93B5
:101B5000DF93DC01EB019FB7F89414968C911497F6
:101B6000882321F46D937C93119706C01296ED9112
:101B7000FC911397628373831296CD93DC93139732
:101B80001A821B8214968C9114978F5F14968C93F3
:101B90009FBFDF91CF9108959F92AF92BF92CF9256
:101BA000DF92EF92FF920F931F93CF93DF938C01FD
:101BB0005B016A019FB6F894DC0114968C9188232E
:101BC00019F4C0E0D0E04AC0F801C081D1814115CC
:101BD0005105B1F07E0111C0D60112966D917C9134
:101BE0001397ED91FC91888199811995882359F477
:101BF0007E018A819B819C01E901209769F72EC0B3
:101C0000209761F17E01AB2849F5F801808191812F
:101C10002A813B81C817D90719F42083318305C075
:101C2000D70112962D933C931397F80182819381EB
:101C3000C817D90711F4E282F382D80114968C9167
:101C40001497815014968C9314978D919C911197B1
:101C5000892B21F412961D921C9213979FBECE01E0
:101C6000DF91CF911F910F91FF90EF90DF90CF9078
:101C7000BF90AF909F900895AB0160E070E00E942C
:101C8000CC0D0895AB0161E070E00E94CC0D089589
:101C9000CF93DF93EC010BC0CE0160E070E00E94B7
:101CA0003C0E009711F41C8205C00E94720D8C81BD
:101CB000882391F7DF91CF9108950F931F93DF93BE
:101CC000CF93CDB7DEB72897CDBFDEBF81E06FE100
:101CD00040E00E94400D883039F58FE00E94C70C2B
:101CE00082E069E00E94A80CCE0101960E942E07B6
:101CF0008E010B5F1F4F8FE00E94C70C80FD14C048
:101D0000C8010E942E078D819E81AF81B8852981EF
:101D10003A814B815C81821B930BA40BB50B8D3DEB
:101D20009105A105B10538F32896CDBFDEBFCF914F
:101D3000DF911F910F9108950F931F93082F8091AA
:101D400057258F3099F488E0E0E4F6E0868381E05F
:101D50006FE140E00E94400D8830C9F7083011F073
:101D6000033021F488E080935725CCC181E06FE1F6
:101D700040E00E94400D80935725083009F448C088
:101D8000093050F4043009F495C0063009F49FC0BE
:101D9000033009F0AEC154C00F3069F0003120F4B7
:101DA000093009F0A6C164C0063109F4C9C009317F
:101DB00009F09FC131C182E063E00E94A80C0E943B
:101DC000823A682F192F8DE20E94A80C8EE267E0FC
:101DD00040E0212F0E94530D000000000000000091
:101DE00000000000000000000000000000000000F3
:101DF000000000000000000088E0E0E4F6E08583D9
:101E000083E290E00E944F07009357258FE07AC14C
:101E1000883009F46EC182E068E00E94A80C0000DE
:101E200000000000000000000000000000000000B2
:101E3000000000000000000000000000000059C188
:101E4000883009F456C182E063E00E94A80C0000CB
:101E50000000000000000000000000000000000082
:101E6000000000000000000000000000000041C170
:101E7000883029F1893020F4863009F03AC105C054
:101E8000863119F0893109F034C182E069E00E949D
:101E9000A80C00000000000000000000000000008E
:101EA0000000000000000000000000000000000032
:101EB00000001FC1883019F0893021F41AC10E9436
:101EC0005D0E17C182E064E00E94A80C12C1893047
:101ED00059F08A3020F4883009F00BC11AC08631DD
:101EE00019F0893109F005C182E066E00E94A80C72
:101EF00000000000000000000000000000000000E2
:101F000000000000000000000000000000000000D1
:101F1000F0C00E945D0E82E066E00E94A80C000006
:101F200000000000000000000000000000000000B1
:101F30000000000000000000000000000000D9C008
:101F4000883001F1893020F4863009F0D2C031C0E8
:101F5000893019F0893109F0CCC082E066E10E9435
:101F6000A80C0000000000000000000000000000BD
:101F70000000000000000000000000000000000061
:101F80000000B7C00E945D0E82E066E10E94A80CCE
:101F90000000000000000000000000000000000041
:101FA0000000000000000000000000000000000031
:101FB000A0C082E069E00E94A80C000000000000C0
:101FC0000000000000000000000000000000000011
:101FD0000000000000000000000081E06FE140E030
:101FE0000E94400D80935725893009F08BC082E014
:101FF00066E10E94A80C0000000000000000000044
:1020000000000000000000000000000000000000D0
:102010000000000000006DC0883009F454C0893011
:1020200020F4863009F065C01BC0893021F086316C
:1020300009F05FC015C082E069E10E94A80C0000B1
:102040000000000000000000000000000000000090
:10205000000000000000000000000000000049C077
:1020600082E069E00E94A80C00000000000000006F
:102070000000000000000000000000000000000060
:10208000000000000000000081E06FE140E00E94DD
:10209000400D80935725893009F034C082E069E112
:1020A0000E94A80C000000000000000000000000DA
:1020B0000000000000000000000000000000000020
:1020C0000000000016C00E945D0E82E069E10E94DF
:1020D000A80C00000000000000000000000000004C
:1020E00000000000000000000000000000000000F0
:1020F000000081E06FE140E00E94400D8093572591
:102100008F31B9F31F910F9108958091482588234D
:10211000E1F0809160258823C1F48091C6249091DC
:10212000C724892B39F48AE90E947A0D8093C6244A
:102130009093C7248091C6249091C724892B29F0BD
:102140001092482586E10E949C0E80914D2588239F
:1021500051F089E495E260E070E00E943C0E009747
:1021600011F00E94C01080916025823019F08530F6
:1021700031F403C00E94271208950E945712089557
:10218000EF92FF920F931F93CF93DF937C01DC01BB
:102190000D911C91D8011796ED91FC9118978081B3
:1021A00080935925C82FD0E02196CE0FDF1F98814C
:1021B0002981263210F025E203C0222309F421E010
:1021C00092959695969593708FEF989FC0011124E4
:1021D00030E0FC01E29FC001E39F900DF29F900D63
:1021E00011246FE670E00E94F1396F3F710511F024
:1021F00008F06FEF6883D8011196ED92FC92129768
:10220000C8010E94291EDF91CF911F910F91FF906D
:10221000EF900895DF92EF92FF920F931F93DF9359
:10222000CF930F92CDB7DEB7E091C624F091C724CB
:102230003097C1F1E080F18087E00E94C70CD82E72
:10224000CE01019661E00E94E80C698167FD2AC019
:102250006D5F0AE910E0061B11090E0D1F1D61508C
:10226000C8010E94E80CF701078310878981080FD5
:10227000111DF801D2826091C6247091C72489E4AF
:1022800095E20E94A70D8AE90E947A0D8093C624E8
:102290009093C724892B31F489E00E949C0E81E041
:1022A000809348250F90CF91DF911F910F91FF9060
:1022B000EF90DF900895882311F087E005C082E059
:1022C00060EE45E00E94400D8093C82482E0809338
:1022D00060258091C6249091C724892B39F489E028
:1022E0000E949C0E81E080934825089586E10E941B
:1022F0009C0E0895EF92FF920F931F93CF93DF935D
:102300007C01EB01042F442331F08CE260EF44E0C8
:102310002091562504C08CE260EF44E020E00E944A
:10232000530DC230D10598F4002361F08CE26EE0C9
:1023300041E020914E250E94530D8FE260E00E9403
:10234000A80C16C08CE26EE041E027E00FC060915F
:1023500052256295607F80915525682B8FE20E94FF
:10236000A80C8CE26EE041E020914E250E94530DB6
:1023700089E10E949C0E8931D9F7809149068C7FB2
:10238000E0E4F6E08187219779F5809159259091D5
:1023900042258331A0F080915025992341F4882370
:1023A00019F088EA93E01EC080E997E01BC08823FB
:1023B00019F080E492E016C080E096E013C08091AE
:1023C0005025992341F4882319F08CEE90E00AC03F
:1023D00088E192E007C0882319F080E890E002C00D
:1023E00080EA91E00E944F0700E416E088E0F801DF
:1023F00085838683C701F70160810E941F0D81E0FC
:1024000080936025809149068360F8018187DF9180
:10241000CF911F910F91FF90EF900895FC01809153
:102420006025882311F086E80895E0935325F09302
:1024300054258781908580935A2590935B2500973A
:1024400011F488EE08950E947A1180E008951092A8
:1024500060258091C8248330B1F0843028F488232B
:1024600031F08130E1F409C08530C9F412C06091C7
:1024700053257091542580E017C0609153257091C9
:10248000542587E811C0609153257091542581EE41
:102490000BC0609153257091542589EE05C0609161
:1024A00053257091542585E80E94602F089585E199
:1024B00060E847E020E00E94530D8CED97E10E9418
:1024C000E9058EE068E00E94A80C809149068360CF
:1024D000E0E4F6E081871092602586E10E949C0E80
:1024E0009091C9249F3320F08FEF8093C9240AC0B4
:1024F0008FEF989FC00111246EE370E00E94F139C4
:102500006093C9248091C9240E949F3308951F932A
:10251000CF93DF93182F80916025882341F080911D
:1025200057258F3011F086E860C081E85EC0C0E4B6
:10253000D6E0809149068C7F89878FE00E94C70C86
:1025400085E160E847E021E00E94530D89EF92E1C8
:102550000E94E9058EE06FEF40E020E10E94530DFC
:10256000809149068360898786E00E949C0E8630B0
:10257000A1F085E160E847E020E00E94530D8CED7A
:1025800097E10E94E9058EE068E00E94A80C809126
:1025900049068360898785E828C087E06FEF0E943D
:1025A000A80C84E0809360251092C92480EC93E00D
:1025B000A0E0B0E004C0880F991FAA1FBB1F1A95A6
:1025C000D2F780549C4FAF4FBF4F23E0B695A795ED
:1025D000979587952A95D1F78093CA249093CB2419
:1025E000A093CC24B093CD2480E0DF91CF911F91B4
:1025F00008958FE00E94C70C84FF29C087E00E94E5
:10260000C70C982F8091C924891710F49093C9247E
:102610008091CA249091CB24A091CC24B091CD2458
:102620000197A109B1098093CA249093CB24A09368
:10263000CC24B093CD240097A105B10529F087E003
:102640006FEF0E94A80C089585E08093602508959F
:102650008091372585FD03C0982F9F7308C0982F60
:1026600091959F719195963F14F495EF22C08091BA
:102670004225823059F08530A1F08823A1F4809161
:102680005025882359F49630FCF411C080915025D0
:10269000882321F494303CF093E00FC09B3094F4F5
:1026A00002C096308CF4903214F08FE908C097FF86
:1026B00004C0892F8F71806A02C0892F806880933F
:1026C000372508959AE0F9CF95E0F7CF1F9384E07E
:1026D00080934E2523E0209355258FEF9FEF809325
:1026E000432590934425809346259093472511E0F8
:1026F000109350251092422588E294E08093402563
:102700009093412588E28093582588E080934F2557
:1027100085E080935225209356258AE880933725BB
:102720000E94281310934525109251251F9108955A
:1027300085FD03C0982F9F7304C0982F91959F71BA
:10274000919580914225853051F4892F992787FDF5
:102750009095EEEFF1E0E81BF90B849108958091DC
:102760005025292F332727FD3095882331F4E4E1C4
:10277000F2E0E21BF30B84910895EAE2F2E0E21B3F
:10278000F30B84910895E0914225EE2309F0C1C036
:1027900060E074E048E050E020E230E0240F351FB4
:1027A000260F371F2093402530934125EE2319F43F
:1027B00028E090E202C022E098E0920F9093582522
:1027C000EE2311F092E001C098E090934F25823003
:1027D00091F0853009F456C0882311F080E0089507
:1027E0008CE068E043E020E00E94530D86E163E066
:1027F00040E023E010C08CE068E043E021E00E946C
:10280000530D86E163E040E022E00E94530D8CE02E
:1028100063E040E020E00E94530D80915025882322
:1028200021F48CE064E042E009C08CE064E042E026
:1028300021E00E94530D8CE060E144E020E00E9422
:10284000530D87E164E042E020E00E94530D8FEFDA
:1028500097E0A0E0B0E080935C2590935D25A09385
:102860005E25B0935F2584E167E040E020E00E94B0
:10287000530D88E06FE140E0209150250E94530DF8
:1028800081E008958CE068E043E021E00E94530D70
:1028900086E163E040E022E00E94530D8CE063E0BB
:1028A00040E020E00E94530D8CE060E144E021E034
:1028B0000E94530D8CE064E042E021E00E94530D41
:1028C00087E164E042E020E00E94530D8FE090E059
:1028D000A0E0B0E080935C2590935D25A0935E25F9
:1028E000B0935F2580915025843010F010925025D0
:1028F00084E167E040E024E00E94530D20915025E0
:10290000220F255F83E16FEF40E00E94530D81E0CD
:10291000089560E071E042E050E028E030E03ECF12
:102920001F93CF93DF9382E2609143250E94A80C0E
:102930006091442583E20E94A80CC8E3D5E214E22A
:10294000812F69910E94A80C1F5F1C32C9F780E299
:10295000609146250E94A80C6091472581E20E9463
:10296000A80C88E060E645E0209145250E94530DC3
:102970008FE26FE040E0209155250E94530D8EE2DA
:1029800068E043E0209151250E94530D8FE260EFF3
:1029900044E0209152250E94530D809142250E94CF
:1029A000C313809137250E949813682F85E00E94F9
:1029B000A80CDF91CF911F910895FF920F931F9361
:1029C000CF93DF93EB0190916025943009F415C10A
:1029D0008E3431F0893541F488818093562511C1B8
:1029E000888180934E250DC1209157252F3011F4F9
:1029F00081E808C18B3009F4F9C08C3070F4823062
:102A000009F4BCC0833018F48823D9F115C0833091
:102A100009F4C0C0843081F487C0833519F184354E
:102A200028F48F3459F0803539F40FC0873509F414
:102A30009EC0803F09F4B7C084EFE4C02881209392
:102A400055258FE26FE040E0ABC0688189816093DB
:102A500043258093442582E20E94A80C609144257E
:102A600083E20CC068818981609346258093472565
:102A700080E20E94A80C6091472581E20E94A80C88
:102A8000C0C0992309F0B9C08091422528818530C2
:102A900029F48FE090E0A0E0B0E004C08FEF97E071
:102AA000A0E0B0E004C0B695A795979587952A95C4
:102AB000D2F780FFA4C010915025888180935025C3
:102AC00080915725883011F408E006C088E00E9404
:102AD0009C0E8830D9F706E180914225209150253F
:102AE000853029F4220F255F83E16FEF06C0222392
:102AF00041F0112331F088E06FE140E00E94530D76
:102B00000CC00E94C3130E942813809137250E9495
:102B10009813682F85E00E94A80C083009F471C052
:102B200086E10E949C0E6DC0992309F066C0283092
:102B300011F418E006C088E00E949C0E8830D9F796
:102B400016E1F8808F2D0E94C313082F183019F05A
:102B500086E10E949C0E002309F451C0F0924225A8
:102B60000E942813809137250E94981310C0288155
:102B7000209352258FE260EF44E012C08881809359
:102B800037250E942813809137250E949813682FBB
:102B900085E074CF28812093452588E060E645E0F4
:102BA0000E94530D2EC0888180933825898180939F
:102BB00039258A8180933A258B8180933B258C81AE
:102BC00080933C258D8180933D258E8180933E2589
:102BD0008F8180933F25C8E3D5E214E2812F69916C
:102BE0000E94A80C1F5F1C32C9F70BC028812093DC
:102BF00051258EE268E043E0D3CF86E803C088EE3B
:102C000001C080E0DF91CF911F910F91FF90089557
:102C1000DF92EF92FF920F931F93DF93CF930F9268
:102C2000CDB7DEB7D82E81E090E065E170E041E0FD
:102C300050E09E012F5F3F4F0E94C40600E416E063
:102C400088E0F80186838CE791E00E944F07FF241B
:102C5000F394F801F68281E090E00E944F07F801BA
:102C6000F58210E081E06FE140E00E94400D1F5FBF
:102C70001B3F11F485E84BC08830A1F7809357259E
:102C80002981222309F44CC082E16FE040E00E94D8
:102C9000530D46C086E060E645E00E94400D980175
:102CA000220F331F220F331F082F10E0022B132B8C
:102CB000F394F8E0FF1671F783E00E949C0E8FE01A
:102CC0000E94C70CE0E4F6E081E08487E186C80159
:102CD0000E94873A0E94823A682F192F8DE20E9443
:102CE000A80C8EE267E040E0212F0E94530D80E0A7
:102CF0000E9401180E94EE17DD2011F00E94661359
:102D00000E949014109260251092482580E00F9048
:102D1000CF91DF911F910F91FF90EF90DF90089579
:102D200083E060E344E020E00E94530D83E068E02C
:102D300043E020E00E94530D83E067E040E021E0A3
:102D40000E94530D8EE260E245E021E00E94530DA7
:102D50008CE060E847E021E00E94530D84E062E0EF
:102D600041E021E00E94530D8EE068E00E94A80C33
:102D700086E00E949C0EE0904906809149068C7F77
:102D8000E0E4F6E0818700E010E0FF2483CF0E94BA
:102D90000816882361F085E8089589E495E260E0EB
:102DA00070E00E943C0E009711F00E94720D80911D
:102DB0004D25882391F78CED97E10E94E905E0E429
:102DC000F6E081E08487809149068360818780E016
:102DD0000895FF920F931F93CF93DF930E941807DC
:102DE000882309F0E2C0E0E4F6E081E0858388E032
:102DF00086838AE491E00E944F0710E0C0E4D6E0A9
:102E0000FF24F39401E00E8381E090E00E944F07DD
:102E1000FD82115009F4C9C08DE10E94C70C8130B8
:102E200091F78CE10E94C70C873069F783E067E077
:102E300040E021E00E94530D82E063E00E94A80C74
:102E400010E081E06FE140E00E94400D115009F474
:102E5000ACC08830B1F78093572581E090E060E006
:102E600070E048E050E028E335E20E94C40609C063
:102E7000C8E3D5E20E94823A899385E2C034D8073C
:102E8000C9F7809138253091392540913A256091D4
:102E90003B2570913C25F0913D25B0913E25509108
:102EA0003F25082F015091E0081708F090E0832F8C
:102EB000815021E0831708F020E0192F180F91E0CE
:102EC000181708F090E0292B842F815031E08417E7
:102ED00008F030E0A22FA80F91E0A81708F090E0CA
:102EE000392B862F815021E0861708F020E0E32F50
:102EF000E80F91E0E81708F090E0292B872F815028
:102F000031E0871708F030E0622F680F91E0681712
:102F100008F090E0392B8F2F815021E08F1708F0B7
:102F200020E0432F480F91E0481708F090E0292B4C
:102F30008B2F815091E08B1708F090E0322F380FE3
:102F400021E0381708F020E0922B5195591779F4B9
:102F50003F3F69F44F3F59F46F3F49F4EF3F39F475
:102F6000AF3F29F41F3F19F40E3F08F081CF81E0F5
:102F70000E9408168823C9F48CED97E10E94E905A8
:102F8000809149068360E0E4F6E081870E94810D2C
:102F90008AE90E947A0D8093C6249093C72489E41D
:102FA00095E20E94A00D80E001C085E8DF91CF91FD
:102FB0001F910F91FF9008958FE00E94C70C282F5A
:102FC00083FF0BC080916025813029F426FF80E0CB
:102FD0000E945B1108950E940A110895809157255F
:102FE0008F3011F082E8089588E00E949C0E8830AE
:102FF00011F085E8089581E090E00E94260780E0C6
:103000000895882311F088EE0895809157258F3018
:1030100011F481E8089580916025882391F410923D
:10302000482588E00E949C0E8830D9F780E090E027
:103030000E9426078FE00E949C0E8F3011F480E0E2
:10304000089586E80895982F80916025882311F0CF
:1030500086E80895983039F488E00E949C0E10921A
:10306000482588E008958091C6249091C724892B33
:1030700029F086E10E949C0E86E0089581E080930D
:10308000482586E00895CF93DF93DC019C9111964B
:103090002C91119780916125882321F4CD010E9404
:1030A000720D1AC0E92FF22F9F012F5F3F4F44EEA0
:1030B00055E288E0EA010990AE01E90109929E011A
:1030C0008150C1F78091EF25818783E180838CEF68
:1030D00095E2BD010E94A70DDF91CF910895DC011B
:1030E000ED91FC91119784E1808363834183528346
:1030F0008CEF95E2BD010E94A70D08950F931F93D9
:10310000DF93CF930F920F92CDB7DEB7A0918525B5
:10311000B0918625ED91FC91119784E180838BEE2F
:1031200083830FEF1FEF018312838CEF95E2BD01C4
:103130000E94A70D1092742509831A8380E5BE01B1
:103140006F5F7F4F0E94E82A0093BB251093BC2538
:103150001092C9251092CA251092CB251092CC2529
:103160001092CD251092CE251092CF251092D02509
:103170000E9437290F900F90CF91DF911F910F91EF
:103180000895CF92DF92EF92FF920F931F93809159
:103190004225909150258823D1F44091C525509126
:1031A000C625992341F4BA0180E090E022E330E0A3
:1031B00040E050E007C0BA0180E090E029E130E053
:1031C00040E050E00E94D2396B017C0118C0409170
:1031D000C5255091C625992341F4BA0180E090E0BD
:1031E00028E230E040E050E0EDCF6A01EE24FF2419
:1031F00084E0CC0CDD1CEE1CFF1C8A95D1F780E02E
:1032000061E040E020E030E000E010E00E946C224D
:103210008823A9F4A0918525B0918625ED91FC9194
:10322000119784E1808381EE83838FEF9FEF818309
:1032300092838CEF95E2BD010E94A70D11C080E042
:10324000B701A60120E030E00EE718E1EE24FF24EC
:103250000E945609882321F080E090E00E947E18A9
:103260001F910F91FF90EF90DF90CF900895FF9204
:103270000F931F93DF93CF930F920F92CDB7DEB7CB
:10328000F090F1250E94720DFF20B1F583E56FEEFD
:1032900075E20E94E82A2091EF253091F025809177
:1032A000E4258093C9258091E5258093CA258091E6
:1032B000E6258093CB258091E7258093CC258091CE
:1032C000E8258093CD258091E9258093CE258091B6
:1032D000EA258093CF258091EB258093D02581E04E
:1032E0008093F8251092742580917F25833031F5E5
:1032F00082E080937F2522C0109274250FEF1FEF8C
:1033000009831A8380E5BE016F5F7F4F0E94E82A20
:103310000093BB251093BC251092C9251092CA2595
:103320001092CB251092CC251092CD251092CE254F
:103330001092CF251092D0252FEF3FEFE0918525F9
:10334000F0918625A081B18184E18C931396FC9243
:10335000139711962D933C9312978CEF95E2BF0132
:103360000E94A70D0E9437290F900F90CF91DF91F7
:103370001F910F91FF9008950F931F93DF93CF93A9
:10338000CDB7DEB72C97CDBFDEBFAC01DE01119605
:10339000FC01808191819C01F9018CE001900D92EA
:1033A0008150E1F7DA010D911C918091F82582504E
:1033B000823020F0CA010E94720D56C082E0F801EE
:1033C0008083D801AC56BF4FFD0181938A859B85D0
:1033D00011968D939C9312978C8582839D01285022
:1033E0003040D901E8E3F5E288E001900D92815088
:1033F000E1F7F90138979F01BE016E5F7F4F88E0CA
:10340000DB010D90BD01D9010D929D018150C1F7E5
:1034100080914325909144259293829380918025B9
:1034200082938F5F8093802583E69CEC92938293B6
:103430008BE18293D8011796ED93FC93189716961B
:103440001C9283E695E2BA010E94A70D8091822525
:1034500090918325F8018483958381E00E94790708
:10346000882311F40E9493262C96CDBFDEBFCF9106
:10347000DF911F910F910895CF92DF92EF92FF920B
:103480001F93DF93CF93CDB7DEB72F97CDBFDEBFAE
:10349000AC017C01DE011196FC01808191819C01CF
:1034A000F9018FE001900D928150E1F7409385255D
:1034B000509386258C81823019F48F8198851AC0AB
:1034C0008F818093C92588858093CA2589858093BB
:1034D000CB258A858093CC258B858093CD258C85C3
:1034E0008093CE258D858093CF258E858093D025A2
:1034F0008EEF9FEF8093BB259093BC2580E5BE01A6
:103500006B5F7F4F0E94E82A0E941229D701CD905D
:10351000DC9081E0F6018083E182F282EA56FF4F7F
:1035200080838F8581839F0128503040D901E8E353
:10353000F5E288E001900D928150E1F7F9018FEFFB
:103540009FEF929382938C81823051F48091BB25BE
:103550009091BC259293829345E123E238EC11C00F
:10356000F9013A979F0149EC55E288E0DA010D90A4
:10357000AD01D9010D929D018150C1F74BE123E2CC
:103580003CEC8091432590914425929382938091C5
:10359000802582938F5F809380253293229342937C
:1035A000D6011796ED93FC93189784E0BE016D5FEA
:1035B0007F4F0E94E82A182F80E0BE016E5F7F4F88
:1035C0000E94E82A112371F4882361F4C60162E0A5
:1035D00070E041E00E940E12882321F481E0809384
:1035E000F92512C0D701ED91FC9184E1808381EE31
:1035F00083838FEF9FEF818392838CEF95E2B701F6
:103600000E94A70D0E9437292F96CDBFDEBFCF9114
:10361000DF911F91FF90EF90DF90CF900895FC0114
:103620008091D0248730F0F4A781B08512968C91D8
:1036300012978695869583708230A1F4E091CE240E
:10364000F091CF243297E093CE24F093CF241696B6
:103650008D919C911797808391838091D0248F5F67
:103660008093D02480E00895FC018091D02487309D
:10367000F0F40780F085E02D828186958695837031
:103680008330A9F48091CE249091CF240897809321
:10369000CE249093CF24DC01369688E001900D92E1
:1036A0008150E1F78091D0248F5F8093D02480E017
:1036B00008959F92AF92BF92CF92DF92EF92FF92C6
:1036C0000F931F93DF93CF9300D00F92CDB7DEB748
:1036D000FB01A080B180D50111966D937C93129768
:1036E0008AE08C9378E9C72ED12CCA0CDB1C809120
:1036F0008125882319F46DE0962E0EC0482F50E0E6
:10370000C41AD50A5DE0952E980E27E835E2C60169
:10371000B90150E00E94923A80916725882309F40C
:1037200042C0C092CE24D092CF241092D02484E301
:103730009BE189839A8383E695E27E010894E11CEC
:10374000F11CB7010E94420E0091D0241092D024A7
:103750008FE09BE189839A8383E695E2B7010E941B
:10376000420E2091D024E091CE24F091CF243197C5
:1037700010E0C80134E0880F991F3A95E1F7822BD9
:103780008083000F111F000F111F020F111D000F6A
:10379000111F0093D024900EE02FF0E0E095F095FB
:1037A000EC0DFD1D02C0F6011292DF011E92809108
:1037B000F825833019F42FEF3FE402C02FEF3FE0EC
:1037C0008091612581113068FD01329322938091AF
:1037D0004625909147252FEF8E3F920799F4FD01E2
:1037E0003A9786E0980E9F0148E355E288E0DA01B7
:1037F0000D90AD01D9010D929D018150C1F720E0DE
:1038000030EC04C09293829320E030E8809143250D
:10381000909144259293829380917E2582938F5F2D
:1038200080937E25329322939292D5011796ED9341
:10383000FC931897C50162E070E040E00E940E1210
:1038400081E08093F9252496CDBFDEBFCF91DF9133
:103850001F910F91FF90EF90DF90CF90BF90AF90AE
:103860009F900895BC0180E00E94591B0895FC01BF
:103870000190F081E02D62817381818144812581F5
:103880000E94D13908950F931F938C01DC01ED91B3
:10389000FC9181810E94B703C8010E94720D1F91A3
:1038A0000F9108950F931F938C01DC01ED91FC9112
:1038B000818162810E94F603C8010E94720D1F91EE
:1038C0000F910895AF92BF92CF92DF92EF920F9334
:1038D0001F935C01DC01ED91FC910481158126812F
:1038E0003781818162814381E08439966F010E9432
:1038F000C803C5010E94720D1F910F91EF90DF90D8
:10390000CF90BF90AF9008950F931F938C01DC016F
:10391000ED91FC9181810E94D039C8010E94720D05
:103920001F910F9108950F931F938C01DC01ED916E
:10393000FC9181810E94DD03C8010E94720D1F91DC
:103940000F9108950F931F938C01DC01ED91FC9171
:1039500081810E94CF39C8010E94720D1F910F9181
:1039600008950F931F938C01DC01ED91FC9121814F
:1039700032814381548165817681878190850E945F
:10398000CE39C8010E94720D1F910F9108950F93B7
:103990001F938C01DC01ED91FC9181816281339652
:1039A000AF010E94CD39C8010E94720D1F910F9185
:1039B0000895EF92FF920F937C01DC01ED91FC9151
:1039C000218132814381548165817681878190850F
:1039D00001850E94CC39C7010E94720D0F91FF90A2
:1039E000EF9008950F931F93DF93CF93CDB7DEB77A
:1039F0002B97CDBFDEBF8C01DC01ED91FC91828164
:103A00008983838194818A839B839E012C5F3F4FAE
:103A1000AF014B5F5F4F88E0DA010D90AD01D90136
:103A20000D929D018150C1F78181BE016F5F7F4F73
:103A30000E94CB39C8010E94720D2B96CDBFDEBF0C
:103A4000CF91DF911F910F9108950F931F93DF93F3
:103A5000CF93CDB7DEB76697CDBFDEBF8C01DC015B
:103A6000ED91FC91818192818A839B8383818983FB
:103A70009E012C5F3F4FAF014C5F5F4F88E0DA0142
:103A80000D90AD01D9010D929D018150C1F7818149
:103A900092818D879E8784858C879E01215F3F4F11
:103AA000AF01435F5F4F88E0DA010D90AD01D901AE
:103AB0000D929D018150C1F7CE010196BE01645F58
:103AC0007F4F45890E949202C8010E94720D66963E
:103AD000CDBFDEBFCF91DF911F910F910895CF929F
:103AE000DF92EF92FF920F936C01DC01ED91FC915C
:103AF000BF016E5F7F4F24893589E788F08C818113
:103B0000438906890E94CA39C6010E94720D0F912D
:103B1000FF90EF90DF90CF900895EF92FF920F9378
:103B20007C01DC01ED91FC91218132814381548142
:103B3000658176818781908501850E946E03C7012A
:103B40000E94720D0F91FF90EF9008950F931F93B5
:103B50008C01DC01ED91FC918181928163810E9455
:103B6000C939C8010E94720D1F910F9108950F93DA
:103B70001F938C01DC01ED91FC91818162810E9497
:103B8000C739C8010E94720D1F910F9108950F93BC
:103B90001F938C01DC01ED91FC91818162810E9477
:103BA0004902C8010E94720D1F910F910895CF9292
:103BB000DF92EF920F93DF93CF93CDB7DEB7669787
:103BC000CDBFDEBF6C01DC01ED91FC918181898369
:103BD000828193818A839B839E012C5F3F4FAF013B
:103BE0004C5F5F4F88E0DA010D90AD01D9010D9275
:103BF0009D018150C1F784858C87858596858D8749
:103C00009E879E01215F3F4FAF01415F5F4F88E07C
:103C1000DA010D90AD01D9010D929D018150C1F7DE
:103C2000228D338DCE010196BE01645F7F4F418DA1
:103C30000789E08C0E94C839C6010E94720D669601
:103C4000CDBFDEBFCF91DF910F91EF90DF90CF908E
:103C50000895FC011082618172816115710521F066
:103C600080EC95E20E94A70D0895282F8091EF2502
:103C70009091F02596FF1BC0222359F42091E22554
:103C80003091E325809143259091442528173907E9
:103C900059F02091E2253091E3258091BE25909145
:103CA000BF252817390719F48EEE0E9405360895AE
:103CB0000F931F93CF93DF93282F8091EF2590913F
:103CC000F02596FFA3C0222359F42091E2253091DC
:103CD000E32580914325909144252817390761F009
:103CE0002091E2253091E3258091BE259091BF255A
:103CF0002817390709F08AC02091E4253091E5257D
:103D00008091BB259091BC252817390709F47EC006
:103D10009091E4258091C925981759F59091E52552
:103D20008091CA25981729F59091E6258091CB2599
:103D30009817F9F49091E7258091CC259817C9F44C
:103D40009091E8258091CD25981799F49091E925D7
:103D50008091CE25981769F49091EA258091CF251E
:103D6000981739F49091EB258091D025981709F494
:103D70004DC08AE90E947A0D8C01009709F446C073
:103D8000DC012D913C9185E0F90180830183128350
:103D9000E956FF4F8083AF0148505040FA01A8E335
:103DA000B5E288E00D9001928150E1F7FA01389771
:103DB000EF01A9ECB5E288E00D9009928150E1F79E
:103DC0008091432590914425929382938091802500
:103DD00082938F5F8093802583E69CEC92938293FD
:103DE00088E18293D9011796ED93FC931897C90146
:103DF00062E070E041E00E940E12882321F481E02D
:103E00008093F92503C0C8010E94720DDF91CF9104
:103E10001F910F9108950F931F93CF93DF93EC01A0
:103E2000E881F981A781B0857C917093D425FD014B
:103E3000E70FF11D81818093ED2511964D915C91E5
:103E400012974093D1255093D22513968C911397B6
:103E50008093D5258D010C5F1F4F652F6295669568
:103E600066956370352F36953695337019F4F801E1
:103E700020E049C014968D919C9115978093D72589
:103E80009093D825FD0136963230E1F41092D92571
:103E90001092DA251092DB251092DC251092DD2598
:103EA0001092DE251092DF251092E02516968D9156
:103EB0009C9117978093D9259093DA25FD01389628
:103EC00024E021C0333011F022E01DC016968C9101
:103ED00016978093D92581818093DA2582818093FA
:103EE000DB2583818093DC2584818093DD2585819A
:103EF0008093DE2586818093DF2587818093E0256E
:103F0000FD013E962AE0662309F447C046FD08C03D
:103F1000819191918093E2259093E3252E5F08C0D3
:103F20008091D7259091D8258093E2259093E32521
:103F30006230C1F41092E4251092E5251092E62536
:103F40001092E7251092E8251092E9251092EA25B3
:103F50001092EB25808191818093E4259093E52553
:103F60002E5F1BC06330C9F480818093E42581817A
:103F70008093E52582818093E62583818093E725E0
:103F800084818093E82585818093E92586818093CB
:103F9000EA2587818093EB25285F972F9550921B08
:103FA0009093EE256093E1253093D62543FDCEC155
:103FB000D801A20FB11D842F87708093D325833041
:103FC00021F48C918093EC2563C0813009F451C0B9
:103FD000813020F0833009F0B9C15AC08D919C9195
:103FE00011978093EF259093F02512968C9112975C
:103FF0008093F125877011F493E002C0982F9C5FA5
:10400000FD01E90FF11D80818093F225292F2F5F9B
:10401000382F377090E08077907044E095958795C1
:104020004A95E1F7482F332311F4882389F0CD0115
:10403000820F911D8093F3259093F425332311F083
:10404000330F230F442321F0440F440F440F240F58
:104050008091EE25281750F4821B8093F525A20F3E
:10406000B11DA093F625B093F72574C11092F525E4
:1040700071C1992351F0963718F086E78093EE25A9
:10408000A093EF25B093F02565C11092EE2562C193
:104090008091EC258330E1F0843030F48130C1F040
:1040A000823009F053C107C0883008F453C188300A
:1040B00009F04CC112C011968D919C91129780937A
:1040C000EF259093F02513968C918093F12542C1B2
:1040D00011968C918093EF253DC111968D919C9105
:1040E00012978093EF259093F02513968D919C91D4
:1040F00014978093F1259093F22515968C9115973E
:104100008093F32516968D919C9117978093F425B3
:104110009093F52554FF1EC118968C918093F62537
:1041200019C18091D325833061F48091EC258430CE
:1041300011F0873031F480EC95E2BE010E94A70DAA
:104140000FC180917425813009F4EBC0813020F0DB
:10415000843008F0FBC0A3C080917D25882309F03E
:104160006AC09091F825933080F1933009F0EEC049
:104170008091D325813009F4E5C0813010F183307E
:1041800009F0E4C08091EC25843009F4AFC085309B
:1041900038F4813009F4A0C0833009F0D7C009C0D9
:1041A000863009F4AEC0863040F0873009F0CEC0CA
:1041B000B0C0CE010E946E24D3C08EEE0E940536A0
:1041C000C5C080E00E94351EC1C08091D3258130DA
:1041D00009F4B8C0813020F0833009F0B7C00CC0BA
:1041E0008091FB25882309F4B1C0992309F4AEC05E
:1041F00080E00E94581EAAC08091EC25843009F40A
:1042000075C0853038F4813009F466C0833009F018
:104210009DC004C0873009F05AC009C0CE010E9479
:104220006E248091F825813009F09AC05CC09230EC
:1042300009F08CC06EC0833009F1843019F08230EF
:1042400009F084C08091D325882309F07FC0809134
:10425000F825833019F481E00E94351E8091FB25FA
:10426000882341F08091F8258150823018F481E054
:104270000E94581ECE010E940E2E72C08091D3253E
:10428000833009F063C08091EC25883009F05EC06E
:1042900082E00E944708CE010E945E3261C00E9407
:1042A0007F2D8091D325813009F44CC0833009F0F3
:1042B0004DC08091EC258430C9F0853030F48130D8
:1042C00059F0833009F042C00BC08730F1F08830DC
:1042D00021F18630D9F515C0CE010E94431840C0A7
:1042E000CE010E946E240E94542A3AC08091672514
:1042F000882321F0CE010E942F2332C00E94112278
:1043000025C0CE010E94B32A2BC08091F8258230AF
:10431000E9F4CE010E94321C23C0CE010E944A362D
:104320001FC08091D325833059F48091EC258230D1
:1043300069F480E00E944708CE010E94371910C03E
:10434000813021F4CE010E94C8260AC0CE010E940D
:10435000720D06C08091F925882309F0E2CEF1CED6
:10436000DF91CF911F910F910895DB01FC018681B0
:10437000882399F40780F085E02D828186958695C3
:104380008370823051F440E02D913C918681978179
:104390002817390719F441E001C040E0842F08953F
:1043A000DB01FC0186818823C9F50780F085E02DBB
:1043B0008281869586958370833081F520E09C917B
:1043C0008681981761F511969C91119787819817AE
:1043D00031F512969C9112978085981701F51396E6
:1043E0009C91139781859817D1F414969C911497FA
:1043F00082859817A1F415969C9115978385981737
:1044000071F416969C9116978485981741F4179627
:104410009C918585981719F421E001C020E0822F36
:1044200008950F931F93CF93DF938AE90E947A0D2B
:104430008C01009709F44BC0DC01CD91DC918CE03C
:10444000888309831A831E82FE01E856FF4F8091FC
:10445000E125833089F438979F0144EE55E288E0E6
:10446000DA010D90AD01D9010D929D018150C1F786
:1044700021E03CE04FE009C08091E4259091E525E2
:104480009293829321E038E049E08091E225909177
:10449000E325929382938091802582938F5F80930E
:1044A0008025329322934293EF83F887F80180812D
:1044B000918161E070E040E00E940E12882321F4B7
:1044C00081E08093F92503C0C8010E94720DDF913D
:1044D000CF911F910F9108956F927F929F92AF920B
:1044E000BF92CF92DF92EF92FF920F931F93CF93E1
:1044F000DF93D82E962EC42E590138018AE90E94E6
:104500007A0D7C01009709F49BC0DC010D911C9190
:10451000DD2021F084E0F801808303C08BE0D80126
:104520008C93F801E182F282E956FF4F84E08083A8
:104530002091462530914725C9010296029710F037
:10454000992069F03897EF01A8E3B5E288E00D9073
:1045500009928150E1F762E183E290EC05C0329369
:1045600022936CE083E290E8CC2061F02091432517
:10457000309144256216730629F06E5F32932293C0
:1045800070E002C0806471E022E0C21641F4AC0128
:104590005860D5018D919C919293829328C0B3E08D
:1045A000CB1661F4AC015C6038976A5FEF01D5010E
:1045B00088E00D9009928150E1F719C02091BB2548
:1045C0003091BC254FEF2E3F340729F0AC015860E5
:1045D000329322930CC0AC015C6038976A5FEF01A4
:1045E000A9ECB5E288E00D9009928150E1F732978D
:1045F000772339F0809143259091442580839183DE
:1046000002C0608271828091802582938F5F809347
:104610008025529342936293D8011796ED93FC93B1
:104620001897C80162E070E041E00E940E128823F2
:1046300021F481E08093F92504C0C7010E94720D26
:1046400080E0DF91CF911F910F91FF90EF90DF906D
:10465000CF90BF90AF909F907F906F900895EF9212
:10466000FF920F931F93DF93CF9300D00F92CDB79C
:10467000DEB70E94720D8091F825823008F453C095
:104680008091E125823019F485EB91E205C08330F9
:1046900009F049C080ED91E289839A8384EE95E226
:1046A0008B839C8383E695E27E010894E11CF11CD8
:1046B000B7010E94420EDC01009781F00D911C9120
:1046C0001197F801878190852091E2253091E325AB
:1046D000FC01848195812817390719F00E94112265
:1046E00022C081E0F8018683A183B28383E695E24C
:1046F000B7010E94420E892B41F0D8011796ED9127
:10470000FC911897818180618183C80161E070E02C
:1047100040E00E940E12882321F481E08093F92565
:1047200002C0F80116822496CDBFDEBFCF91DF9183
:104730001F910F91FF90EF900895EF92FF920F93CA
:104740001F93CF93DF937C01E801DC01ED91FC9195
:1047500086E180836183428323833483CF0105967E
:10476000423069F4158216821782108611861286ED
:1047700013861486888199818583968307C0DC011E
:10478000F80188E001900D928150E1F78CEF95E2FD
:10479000B7010E94A70DDF91CF911F910F91FF905C
:1047A000EF9008950F931F93DF93CF93CDB7DEB7AC
:1047B0002897CDBFDEBFDC01062FED91FC9111974C
:1047C00019821A821B821C821D821E821F821886F9
:1047D0000780F085E02D1281169516951370123022
:1047E00029F42681378129833A8310C08681898301
:1047F00087818A8380858B8381858C8382858D8365
:1048000083858E8384858F83858588878091F8252D
:104810008330C9F1823009F041C0123051F4268151
:1048200037818091BB259091BC252817390759F510
:1048300035C0133041F596818091C925981719F537
:1048400097818091CA259817F1F490858091CB25A6
:104850009817C9F491858091CC259817A1F4928579
:104860008091CD25981779F493858091CE2598175E
:1048700051F494858091CF25981729F495858091DE
:10488000D025981759F02091432530914425CD012A
:10489000602F412F8E010F5F1F4F16C0809146255C
:1048A0009091472502962091432530914425029707
:1048B00030F4CD01602F43E008E315E205C0CD01DF
:1048C000602F42E006E415E20E949D232896CDBFAA
:1048D000DEBFCF91DF911F910F910895CF93DF93AA
:1048E0009C01FC01C081D181FE0185E18193A4EE90
:1048F000B5E288E00D9001928150E1F78091EF25BB
:1049000089878CEF95E2B9010E94A70D1092C92505
:104910001092CA251092CB251092CC251092CD254D
:104920001092CE251092CF251092D0258FEF9FEFB9
:104930008093BB259093BC25DF91CF910895EF9292
:10494000FF920F931F93DF93CF93CDB7DEB72E97D0
:10495000CDBFDEBF8C01DC01ED90FC90DE01119635
:10496000F7018EE001900D928150E1F7F70101838C
:10497000128383E08083EA56FF4F80838D85818395
:1049800038979F0148E355E288E0DA010D90AD01C8
:10499000D9010D929D018150C1F78A81823031F495
:1049A0008D819E819293829333E10FC038979F014E
:1049B000AE014B5F5F4F88E0DA010D90AD01D90188
:1049C0000D929D018150C1F739E18091432590916D
:1049D0004425929382938091802582938F5F809368
:1049E00080252A81922F990F990F80E08366906C21
:1049F000929382933293D7011796ED93FC93189775
:104A000016961C928091F8258250823008F060C082
:104A10008E85882309F45CC08A818230D1F48D812F
:104A20008B3409F041C08E818823F1F58F81882372
:104A3000D9F588858823C1F589858823A9F58A85D4
:104A4000882391F58B85882379F58C85882361F5FA
:104A50005BC0833009F058C09D818091C9259817AB
:104A600019F59E818091CA259817F1F49F81809154
:104A7000CB259817C9F498858091CC259817A1F477
:104A800099858091CD25981779F49A858091CE25C6
:104A9000981751F49B858091CF25981729F49C8510
:104AA0008091D025981781F183E695E2B8010E94A4
:104AB000A70D8091822590918325F70184839583AA
:104AC00081E00E9479078823F9F40E9493261CC094
:104AD0000E941229D8018D919C9162E070E041E022
:104AE0000E940E12882321F481E08093F9250CC0E6
:104AF0002B813C81C80161EE4A818E010B5F1F4F03
:104B00000E949D230E9437292E96CDBFDEBFCF91F4
:104B1000DF911F910F91FF90EF900895DC01ED91CF
:104B2000FC911197E081E43278F4F0E0EE0FFF1F82
:104B3000EA5CFD4F259134912115310519F0F901F9
:104B4000199508950E94720D08951F938091F9257B
:104B5000882381F480917C25882361F088E795E2A1
:104B600060E070E00E943C0E009721F00E948E25CC
:104B700011E001C010E08091C425882359F080EC39
:104B800095E260E070E00E943C0E009719F00E94F0
:104B90008E2511E0812F1F910895FC0186818823C5
:104BA00029F48481958101978483958380E0089519
:104BB000FC018681882311F020E006C020E084817A
:104BC0009581892B09F421E0822F0895FB0120E0D3
:104BD000DC0113969C918081981709F421E0822FC3
:104BE0000895DC01ED91FC91119780E18083418370
:104BF00062838CEF95E2BD010E94A70D0895EF92AC
:104C0000FF920F931F93DF93CF93CDB7DEB7259716
:104C1000CDBFDEBF7C01FC0100811181F8019181D3
:104C200082E18083998386EE95E28A839B83CE011D
:104C300001968C839D8383E695E2BE016E5F7F4F74
:104C40000E943C0E009729F00E94720DF80112821A
:104C500003C087EEF80182838CEF95E2B7010E94D2
:104C6000A70D2596CDBFDEBFCF91DF911F910F918C
:104C7000FF90EF900895FF920F931F93DF93CF93D0
:104C800000D00F92CDB7DEB78DEC95E289839A8381
:104C900083E695E28E010F5F1F4FB8010E94420E1E
:104CA00088ED95E289839A83F02E012F10E183E647
:104CB00095E26F2D702F0E943C0EDC01009721F1D0
:104CC0009C9111962C911197E92FF22F80818330BE
:104CD00049F08D3061F0823051F780EFBD010E94C4
:104CE0004229E5CFCD0160EF0E94D223E0CF83813E
:104CF000E92FF22F1083818380EF82838CEF95E27E
:104D0000BD010E94A70DD3CF80916725882311F0A4
:104D10000E9493262496CDBFDEBFCF91DF911F91D5
:104D20000F91FF900895EF92FF920F931F93809140
:104D3000422590915025882361F4992329F040E081
:104D40005EEE62E070E010C040E05CED65E070E0B7
:104D50000BC0992329F040E050EE61E070E004C000
:104D600040E050EB64E070E081E020E030E00BE3F5
:104D700016E2EE24FF240E945609882321F080E0E9
:104D800090E00E943B261F910F91FF90EF900895B5
:104D90000F931F93DF93CF93CDB7DEB72897CDBF87
:104DA000DEBFAC01DC019C9111962C918091EE2527
:104DB000882321F4CA010E94720DFFC0E92FF22F4F
:104DC0008091D525808F8091E1258183825082302A
:104DD000A8F48091E2259091E325828393839F013B
:104DE0002C5F3F4F64EE75E288E0DB010D90BD0162
:104DF000D9010D929D018150C1F70AC01282138220
:104E000014821582168217821086118612861386E6
:104E1000208D80916225281761F5948180916A2503
:104E2000981739F5958180916B25981711F5968122
:104E300080916C259817E9F4978180916D259817DA
:104E4000C1F4908580916E25981799F49185809191
:104E50006F25981771F4928580917025981749F401
:104E6000938580917125981721F4CA010E94720DD3
:104E70005AC020936225848180936A25858180931E
:104E80006B25868180936C25878180936D25808535
:104E900080936E25818580936F2582858093702510
:104EA0008385809371252091D62524871786108AC3
:104EB000118A128A138A148A158A168A8091D72534
:104EC0009091D82585879687233079F49F01215FBB
:104ED0003F4F69ED75E288E0DB010D90BD01D9011E
:104EE0000D929D018150C1F70BC0223039F48091A1
:104EF000D9259091DA258787908B02C01586168672
:104F00008091ED25878B8091EE25818F8091EF2513
:104F10009091F025828F938F81E180838CEF95E2D1
:104F2000BA010E94A70D8091D12584FF46C08091CF
:104F3000F825833009F443C08091E125823071F473
:104F40008091E4259091E52589839A830091E2255B
:104F50001091E32580E060E042E021C0833019F544
:104F60008091E42589838091E5258A838091E625D7
:104F70008B838091E7258C838091E8258D838091B8
:104F8000E9258E838091EA258F838091EB258887A0
:104F90000091E2251091E32580E060E043E09E016E
:104FA0002F5F3F4F07C080E060E040E020E030E04E
:104FB00000E010E00E946C2202C00E94372928966F
:104FC000CDBFDEBFCF91DF911F910F910895CF929A
:104FD000DF92EF92FF920F931F93DF93CF93CDB7A2
:104FE000DEB76297CDBFDEBF8C01DE011196FC01FA
:104FF000808191819C01F90182E101900D928150A3
:10500000E1F78F8582FD11C080917425882321F4FA
:1050100080917D25882349F09E85D801ED91FC91F2
:1050200080E18083918381EEAEC0F801E080F18061
:105030008DE0D7018C938E8513968C9313971696DB
:105040001C92888945E0D42ED80EE8E9F0E0E81BF0
:10505000F109EE0DFF1D9A81923051F437E0D32E05
:10506000D80E80914625909147259293829312C045
:10507000933081F438972DE0D22ED80E9F0148E36B
:1050800055E288E0DA010D90AD01D9010D929D0144
:105090008150C1F720914325309144258C819D8119
:1050A0002817390749F48A81882331F08B818823B6
:1050B00019F040E450E009C08A81882321F0B2E071
:1050C000DB0E3293229340E050E08B81882311F174
:1050D000823039F46D2D6E5F8E819F819293829321
:1050E00012C038976D2D685F9F0196E0C92ED12CB4
:1050F000CC0EDD1E88E0D6010D906D01D9010D9218
:105100009D018150C1F782E0D82ED60E8C819D8101
:10511000929382938091802582938F5F80938025E4
:10512000BA0161608F8580FF02C0BA01616288891F
:10513000873608F070618B81382F330F330F20E0F2
:105140004A81942F9295990F990F907C80E0282B9B
:10515000392B262B372B329322933296D7FC0BC058
:105160003397D082D7011796ED93FC9318978F85CC
:1051700082FD10C028C09E85D801ED91FC9180E190
:105180008083918385EE82838CEF95E2B8010E9443
:10519000A70D3CC08091F82582508230A0F483E6B0
:1051A00095E2B8010E94A70D8091822590918325F8
:1051B000F7018483958381E00E947907882331F584
:1051C0000E94932623C00E941229D70111960D93A5
:1051D0001C931297C70162E070E041E00E940E123A
:1051E000882321F481E08093F92510C09E85D801A1
:1051F000ED91FC9180E18083918381EE82838CEF3D
:1052000095E2B8010E94A70D0E9437296296CDBF92
:10521000DEBFCF91DF911F910F91FF90EF90DF9054
:10522000CF9008958091FA25813051F40E94EE17B5
:10523000853831F081E090E00E9426071092FA252F
:1052400008958091FA25882389F480E090E00E94F7
:10525000260780E00E940118882321F481E08093D2
:10526000FA25089581E090E00E9426070895809134
:105270006825882331F48091BD25882311F40E948C
:1052800021290895DF93CF93CDB7DEB72897CDBFFF
:10529000DEBF482F9B01DB01ED91FC910780F0857B
:1052A000E02DDE011196369688E001900D92815036
:1052B000E1F7D901ED91FC918CE180838091432548
:1052C000909144258183928393E093838091382544
:1052D000848380913925858380913A2586838091C6
:1052E0003B25878380913C25808780913D25818760
:1052F00080913E25828780913F258387948789818D
:1053000085878A8186878B8187878C81808B8D8139
:10531000818B8E81828B8F81838B8885848B458B5B
:105320008CEF95E2B9010E94A70D2896CDBFDEBF94
:10533000CF91DF9108950F931F93182F1092F925A5
:105340001092F8251092FA2510927D2510927F2553
:1053500010927425109262258FEF80936A258093B6
:105360006B2580936C2580936D2580936E258093AB
:105370006F2580937025809371251092BD2588E05C
:105380000E9423180FB7F89480E00E94470881E03C
:105390000E94470882E00E94470883E00E94470875
:1053A0000FBF112309F440C01092FB2580EE9AE054
:1053B000809376259093772580E098E78093C525A4
:1053C0009093C62510927325109261251092812525
:1053D0000E94823A80937E2584EF91E0809382251B
:1053E0009093832581E08093752586E080936925DD
:1053F0001092C9251092CA251092CB251092CC2567
:105400001092CD251092CE251092CF251092D02546
:105410008FEF9FEF8093BB259093BC250E94823A2B
:1054200080938025109268251F910F9108950F9306
:105430001F93CF93DF93EC01088119810E941229F9
:10544000F801018180E090E00E94260780E00111D0
:1054500081E00E94C716182F81E090E00E94260785
:10546000802F0E949B290E94372988E795E20E949D
:10547000480E80EC95E20E94480E8CEF95E20E9467
:10548000480E83E695E20E94480EE881F981118377
:1054900080E280838CEF95E2BE010E94A70DDF9130
:1054A000CF911F910F910895DF93CF9300D00F926A
:1054B000CDB7DEB70E9412298FEF9FEF89839A83C1
:1054C0008B839C8383E5BE016F5F7F4F0E94E82A38
:1054D00080E5BE016D5F7F4F0E94E82A81E00E9457
:1054E0009B290E9437292496CDBFDEBFCF91DF9143
:1054F00008950E94E9168823B9F40E94090B8823B5
:1055000099F081E00E949B290E94372988E795E263
:105510000E94A00D80EC95E20E94A00D83E695E22A
:105520000E94A00D80E0089585E80895FF920F93F2
:105530001F93182FF92E409143255091442589E05F
:10554000612F792F20915025009142250E947F36AE
:10555000882329F481EE612F7F2D0E9442291F911B
:105560000F91FF900895CF93DF93EC01E881F981CB
:105570008AE18193A4EEB5E288E00D90019281501A
:10558000E1F78CEF95E2BE010E94A70DDF91CF916C
:105590000895E82F853419F4809181250895883085
:1055A00030F4E82FF0E0E258FD4F849108958054E4
:1055B000803228F4F0E0EA5BFD4F84910895E03FEB
:1055C00010F480E00895F0E0EA54FE4F84910895CD
:1055D0001F93CF93DF93182FEB018091FA25813031
:1055E00051F40E941229812FBE010E94DD14182F50
:1055F0000E94372904C0812F0E94DD14182F812FAB
:10560000DF91CF911F9108950F931F93CF93DF9355
:105610008C01FC01C081D181BE016D5F7F4F89810A
:105620008B3409F4A4C08C3478F5863009F475C045
:10563000873098F4823009F4D0C0833038F488235E
:1056400009F4BBC0813009F048C0BAC0843009F405
:105650005CC0853008F05CC0C3C0853409F469C003
:10566000863448F4813409F461C0823409F45BC0A3
:10567000873099F555C0893409F468C08A3408F038
:105680006DC0863451F55FC0853509F462C086353A
:10569000A0F48F3409F476C0803530F48C3409F4EA
:1056A0006BC08E34D1F46BC0823509F473C083357E
:1056B00009F473C0803589F468C08935D9F08A351A
:1056C00028F4873579F0883580F409C08D35D1F01C
:1056D000803F09F469C08A3581F094EF85C08091DC
:1056E000FB2580C0809152257DC0809176259091C8
:1056F000772557C08091562575C08091C52590911A
:10570000C6254FC0809173256DC0809142256AC027
:10571000809140259091412544C08091582562C0D8
:1057200080914F255FC0809175255CC08091612577
:1057300059C04091812527E835E2CB01B90150E0FD
:105740000E94923A50C0809181254CC080917E2564
:1057500049C0809182259091832523C0DB01E9EC2B
:10576000F5E288E001900D928150E1F73CC0809114
:10577000BB259091BC2515C08091802533C08091B8
:105780004E2530C0809155252DC0809143259091A4
:10579000442507C08091682525C0809146259091B9
:1057A00047258B839C831FC0DB01E8E3F5E288E09B
:1057B00001900D928150E1F716C08091502512C0E2
:1057C00080915C2590915D25A0915E25B0915F252B
:1057D0008B839C83AD83BE8306C08091372502C036
:1057E000809145258B8390E089818A838EE188832F
:1057F00099838CEF95E2B8010E94A70DDF91CF91BC
:105800001F910F910895FF920F931F93CF93DF93F2
:10581000182FEB01F42E8B3409F49BC08C3440F527
:10582000833409F4B1C0843478F4853038F482309C
:1058300008F0AAC0882309F4A7C03EC0813409F447
:1058400053C08234C9F548C0863409F45AC087343D
:1058500030F4843409F444C0853471F549C0893486
:1058600009F453C08A3408F05BC0873429F58CC032
:10587000853509F44EC0863570F4813530F48E34A8
:1058800008F082C08C34C1F46BC0823509F46CC05E
:10589000823590F079C08835A9F0893528F48635AD
:1058A00069F0873549F470C08A3579F08A3508F493
:1058B0006BC0803F09F468C004EFD4C08881809336
:1058C000FB25CFC088819981C8C088819981809348
:1058D000C5259093C625C5C0888180937525C1C014
:1058E000888180936925BDC0888180936125B9C076
:1058F00027E835E240918125C90150E00E94923AA3
:10590000B0C0888180938125ACC0888180937E253A
:10591000A8C0888199818093822590938325A1C016
:1059200088818093C92589818093CA258A81809343
:10593000CB258B818093CC258C818093CD258D8147
:105940008093CE258E818093CF258F818093D02523
:1059500088C0888199818093BB259093BC2581C0A4
:105960008881809380257DC06881611161E06093AA
:105970006825662331F00E94122986E00E942318D0
:1059800070C00E9437296DC0812FBE010E94DD14B6
:10599000082F813871F40E94EE17812FBE010E94FA
:1059A000DD14082F882309F05DC081E08093D124A5
:1059B00003C0882309F056C080914E25282F30E07F
:1059C00080915225482F50E060915525CA01861BD1
:1059D0009109281739070CF4C901A82F281B310990
:1059E00081E090E002C0880F991F4A95E2F7019785
:1059F000289FA001299F500D389F500D112420E0B1
:105A000030E070E0E1E0F0E00DC0C901860F971FC3
:105A1000EF0102C0CC0FDD1F8A95E2F74C0F5D1F2E
:105A20002F5F3F4F2A1788F384E190E0489FB00131
:105A3000499F700D589F700D112480914225882335
:105A400019F540E054E028E030E080E290E0820F79
:105A5000931F840F951F860F971F80937625909331
:105A6000772500E0FF2049F08091D124882329F098
:105A700080E00E9401181092D124802FDF91CF91F5
:105A80001F910F91FF90089540E051E022E030E037
:105A900088E090E0DCCFEF92FF920F931F937C01A0
:105AA000FC0100811181B8016E5F7F4FF801818197
:105AB00041E00E94032CF801918192839FE1908341
:105AC00081838CEF95E2B7010E94A70D1F910F9182
:105AD000FF90EF900895CF93DF93EC01E881F98177
