:100000000C943B010C9461010C94AF020C94E5023A
:100010000C9461010C9461010C9461010C946101D8
:100020000C9461010C9461010C9461010C946101C8
:100030000C9461010C9461010C9431070C946101E2
:100040000C946D070C9461010C9461010C94610196
:100050000C9461010C9461010C9461010C94610198
:100060000C9461010C9461010C9461010C94610188
:100070000C9461010C9461010C9461010C94610178
:100080000C9461010C9461010C9461010C94610168
:100090000C9461010C9461010C9461010C94610158
:1000A0000C9461010C9461010C9461010C94610148
:1000B0000C9461010C9461010C9461010C94610138
:1000C0000C9461010C9461010C9461010C94610128
:1000D0000C9461010C9461010C9461010C94610118
:1000E0000C9461010C9461010C9461010C94610108
:1000F0000C9461010C9461010C9461010C946101F8
:100100000C9461010C9461010C9461010C946101E7
:100110000C9461010C9461010C9461010C946101D7
:100120000C9461010C9461010C9461010C946101C7
:100130000C9461010C9461010C9461010C946101B7
:100140000C9461010C9461010C9461010C946101A7
:100150000C9461010C9461010C9461010C94610197
:100160000C9461010C9461010C9461010C94610187
:100170000C9461010C9461010C9461010C94610177
:100180000C9461010C9461010C9461010C94610167
:100190000C9461010C9461010C9461010C94610157
:1001A0000C9461010C9461010C9461010C94610147
:1001B0000C9461010C9461010C9461010C94610137
:1001C0000C9461010C9461010C9461010C94610127
:1001D0000C9461010C9461010C9461010C94610117
:1001E0000C9461010C9461010C9461010C94610107
:1001F0000C94610103020201010000FFFEFDFCFB03
:10020000F9F7F4EF5F199014101422225320F31E13
:100210007227D1243F255224062B8F2D0000012F59
:10022000D72700001B182B180B18E117FA172D17EA
:100230004617C317000000000517B61679178B166E
:100240001B17A616E716D8169716F6160104010115
:100250000102010101010101010101010401080282
:100260000101010102010102010201010201020278
:1002700001010101080011241FBECFEFDFE3DEBF43
:10028000CDBF00E00CBF18BE19BE1ABE1BBE10E2E7
:10029000A0E0B0E2EEE9F8E600E00BBF02C0079094
:1002A0000D92A430B107D9F71BBE14E2A4E0B0E26E
:1002B00001C01D92A93FB107E1F70E9482020C9490
:1002C0004D340C940000089582E090E061E070E00D
:1002D0000E9416080895EF92FF920F931F9382E0F9
:1002E00090E060E070E00E94160884E040E251EA8D
:1002F00067E070E020E030E004E611E0EE24FF2447
:100300000E9407061F910F91FF90EF900895EF92C2
:10031000FF920F931F937C01E0910420F091052040
:10032000309709F1809106208217E9F48091072027
:100330008317C9F4809108208417A9F480910920BB
:10034000851789F480910A20861769F480910B2023
:10035000871749F480910C208E1529F480910D2087
:100360008F1509F45DC000910E2010910F2001152A
:10037000110501F1809110208217E1F48091112084
:100380008317C1F4809112208417A1F48091132067
:10039000851781F480911420861761F480911520CF
:1003A000871741F4809116208E1521F48091172033
:1003B0008F15B9F1EF2B19F4A0E0B0E004C0012BC8
:1003C00049F5A1E0B0E08D010F5F1F4FFD01EE0F79
:1003D000FF1FCD01880F991F880F991F880F991F44
:1003E000E80FF91FEC5FFF4D00831183FD01EE0F55
:1003F000FF1FEE0FFF1FEA0FFB1FEE0FFF1FEA5F4D
:10040000FF4D208331834283538364837583E68267
:10041000F78207C0C7010FEF1FEFEE24E39403C07C
:100420008F01C701EE240E9424321F910F91FF908B
:10043000EF900895882339F481E090E060E070E067
:100440000E941608089581E00E949C310895AF92A1
:10045000CF92EF920F938EEB9AEB64E140E02FE0A6
:100460000FE0EE24E394CC24AA240E94EC300F91F8
:10047000EF90CF90AF900895DF93CF930F920F92AC
:10048000CDB7DEB7882349F419821A8283E5BE010D
:100490006F5F7F4F0E94153303C081E00E949C3143
:1004A0000F900F90CF91DF9108950F93DF93CF932B
:1004B0000F92CDB7DEB78823E9F4633521F481E0EC
:1004C000898381E405C0613449F481E0898382E550
:1004D000BE016F5F7F4F0E9415330FC0623551F42C
:1004E00081E040E058EF6FEF77E021E000E00E940C
:1004F0001F3103C081E00E949C310F90CF91DF91AA
:100500000F9108950E945733882311F00E94B5037C
:100510000E94100880E090E060E070E00E94160801
:1005200081E090E061E070E00E94160882E090E0D7
:1005300061E070E00E941608789481E00E949C318E
:100540000E944133FDCF8093182090931920E0E45E
:10055000F6E091E0928B84E08287948708951F9261
:100560000F920FB60F9208B60F9209B60F920BB604
:100570000F92112418BE19BE1BBE2F933F934F93A9
:100580005F936F937F938F939F93AF93BF93EF93FB
:10059000FF93E0911820F09119201995FF91EF91A8
:1005A000BF91AF919F918F917F916F915F914F918B
:1005B0003F912F910F900BBE0F9009BE0F9008BE78
:1005C0000F900FBE0F901F9018951F920F920FB6AD
:1005D0000F9208B60F92112418BE0F9008BE0F900C
:1005E0000FBE0F901F901895BF92CF92DF92EF929F
:1005F000FF920F931F93CF93DF93892B11F088EE17
:1006000031C0CA01860F971F8150984010F085E8CD
:1006100029C0A0E0B0E0C0ECD1E0E6E0BE2E98ED4D
:10062000C92ED12C81E0E82EF12C0BEC11E016C084
:100630008091CF0187FDFCCF1A8279836093C0013E
:10064000BA86C601F80184BFE0828091C401F90135
:10065000EA0FFB1F808311966F5F7F4FA417B507CA
:1006600038F380E0DF91CF911F910F91FF90EF90D1
:10067000DF90CF90BF9008954F925F926F927F92DC
:100680008F929F92AF92BF92CF92DF92EF92FF92A2
:100690000F931F93CF93DF939C016B015A01CB0102
:1006A000820F931F8150984010F085E84DC0A0E064
:1006B000B0E0C0ECD1E040EC51E076E0672E68EDB0
:1006C000E62EF12C01E010E06BEC71E093E3792E63
:1006D00085E3882EF6E39F2E33C08091CF0187FDFE
:1006E000FCCFFA0112823183522E2093C001628620
:1006F000C701FB0184BF00838091C401F501EA0FAB
:10070000FB1F40808415C9F08091CF0187FDFCCF8D
:100710008091CF0181FF06C0FA019286C701FB01DB
:1007200084BF00837A865092C00119821A824C825B
:100730008A86C701FB0184BF00832F5F3F4F11965C
:10074000AC15BD0550F280E0DF91CF911F910F9164
:10075000FF90EF90DF90CF90BF90AF909F908F90E1
:100760007F906F905F904F9008951F93CF93DF938A
:10077000E0E8F6E014828FEF8183C0E8D6E01FEF57
:100780008FEF9FEF0E9400041F83FACF0E94CE05D7
:1007900008950E94C9070E94E4070E9499080E94D8
:1007A00085070E94BC070E94C30780E00895892B3B
:1007B00029F488E080930008809340080895FC01A4
:1007C0002091002430910124C901A0E0B0E0BC01D7
:1007D000552744278091200890912108A0E0B0E09F
:1007E000482B592B6A2B7B2B80910024909101245C
:1007F0002817390729F7408351836283738308954B
:100800004FB7F8948630910518F120912008309167
:100810002108280F391F8091200890912108821704
:10082000930740F480912008909121088217930744
:10083000C8F30EC08091200890912108281739072D
:10084000C8F3809120089091210882179307C8F37C
:100850004FBF089520E090E0FC0153E0EE0FFF1F32
:100860005A95E1F7E80FF91FEE5FFB4D8481958102
:10087000892B09F021E0822F0895DF92EF92FF92F9
:100880000F931F93DFB6F89480911C208F3F09F4DB
:1008900056C090E0FC01A3E0EE0FFF1FAA95E1F720
:1008A000E80FF91FEE5FFB4DE080F18002811381BC
:1008B0002091002430910124C801AA27BB272817C2
:1008C000390769F4E0922808F092290880910C0811
:1008D000806180930C0880910708836003C0809139
:1008E00007088C7F80930708609100247091012491
:1008F0009B0140E050E08091200890912108A901DF
:1009000033272227A0E0B0E0282B392B4A2B5B2B82
:1009100080910024909101246817790729F72E19F6
:100920003F09400B510B2F5F3F4F4F4F5F4F2F5FE2
:100930003F4F4F4F5F4718F481E080931B20DFBE8D
:100940001F910F91FF90EF90DF90089580911B20F1
:10095000882309F44CC010921B2030911A203323B5
:1009600009F445C080911D208F3F59F480911E20CD
:100970008F3F39F480911C2080931E2080931D208E
:1009800012C020911C2080911E2090E0FC0143E0C9
:10099000EE0FFF1F4A95E1F7E80FF91FEE5FFB4DE1
:1009A000208720931E2080911C2090E0FC0123E0F2
:1009B000EE0FFF1F2A95E1F7E80FF91FEE5FFB4DE1
:1009C000808580931C2080911E2090E0FC01B3E084
:1009D000EE0FFF1FBA95E1F7E80FF91FEE5FFB4D31
:1009E0008FEF8087315030931A200E943D04089584
:1009F000FF920F931F93182F853010F08AE8C5C01F
:100A0000FFB6F8940E94A60400911A20002309F46E
:100A1000C0C040911C20842F242F302F1217F1F5D5
:100A2000212F30E0141781F4F90163E0EE0FFF1F6E
:100A30006A95E1F7E20FF31FEE5FFB4D808580932F
:100A40001C200E943D0418C090E0DC0153E0AA0F76
:100A5000BB1F5A95E1F7A80FB91FAE5FBB4DF90157
:100A600043E0EE0FFF1F4A95E1F7E20FF31FEE5F41
:100A7000FB4D808518968C93812F90E0FC0123E03C
:100A8000EE0FFF1F2A95E1F7E80FF91FEE5FFB4D10
:100A90008FEF8087015000931A2062C0822F90E070
:100AA000FC01B3E0EE0FFF1FBA95E1F7E80FF91F65
:100AB000EE5FFB4D50853150822F09F46AC0252F1F
:100AC000ADCF1217D1F520911E201317B1F41217D4
:100AD00021F48FEF80931E200DC0812F90E0FC0148
:100AE000A3E0EE0FFF1FAA95E1F7E80FF91FEE5FF5
:100AF000FB4D808580931D2033C0842F90E0DC0166
:100B0000E3E0AA0FBB1FEA95E1F7A80FB91FAE5F9C
:100B1000BB4D812F90E0FC0173E0EE0FFF1F7A9533
:100B2000E1F7E80FF91FEE5FFB4D808518968C9377
:100B30001217B1F440931E2013C0822F90E0FC01E5
:100B400063E0EE0FFF1F6A95E1F7E80FF91FEE5F14
:100B5000FB4D422F20852F3F09F0B3CF80E00FC01F
:100B6000812F90E0FC0153E0EE0FFF1F5A95E1F753
:100B7000E80FF91FEE5FFB4D1482158281E0FFBE86
:100B8000882311F489E801C080E01F910F91FF9044
:100B9000089530911D20432F232FDDCF1F931FB7C2
:100BA000F8940E94A6041FBF1FEF25C06FB7F894EA
:100BB000822F90E0FC0173E0EE0FFF1F7A95E1F7C2
:100BC000E80FF91FEE5FFB4D20854481558186813A
:100BD0009781108714821582168217822F3F09F49D
:100BE0003FEF6FBF4115510551F030931E20209308
:100BF0001D20FA01199530911E2020911D202F3FB4
:100C0000A9F630931E2020931D201F9108952F9246
:100C10003F924F925F927F928F929F92AF92BF923C
:100C2000CF92DF92EF92FF920F931F93CF93DF93B8
:100C3000782E5A016B01490194E0292E281610F4F0
:100C40008AE8E2C00115110509F4DBC0C82FD0E025
:100C5000FE0183E0EE0FFF1F8A95E1F7EC0FFD1F09
:100C6000EE5FFB4D84819581892B11F088E8CCC023
:100C700060910024709101249B0140E050E080913C
:100C8000200890912108A90133272227A0E0B0E095
:100C9000282B392B4A2B5B2B809100249091012427
:100CA0006817790729F78114910431F061E08616FD
:100CB000910409F0A6C011C0D601C501805890402A
:100CC000A040B04080589F4FAF4FBF4708F09BC037
:100CD000A20EB31EC41ED51E10C0D601C501805879
:100CE0009040A040B040821B930BA40BB50B8058E2
:100CF0009F4FAF4FBF4708F086C09FB6F8940E9441
:100D0000A60450911C205F3F31F060911A20452FBE
:100D1000252F30E054C070921C20FE01A3E0EE0F9E
:100D2000FF1FAA95E1F7EC0FFD1FEE5FFB4D50870B
:100D300031C02F3F09F43EC0822F90E0FC0173E0E8
:100D4000EE0FFF1F7A95E1F7E80FF91FEE5FFB4DFD
:100D500080819181A281B38115012601281A390A67
:100D60004A0A5B0AD201C1018F5F9F4FAF4FBF4755
:100D700010F4808521C0FE0133E0EE0FFF1F3A958D
:100D8000E1F7EC0FFD1FEE5FFB4D2087521721F4BA
:100D900070921C2091E017C0842F90E0FC0123E0AA
:100DA000EE0FFF1F2A95E1F7E80FF91FEE5FFB4DED
:100DB000708655C08FEF242F3F5F422F282F3617A4
:100DC00008F4B7CF33C0FE0183E0EE0FFF1F8A9512
:100DD000E1F7EC0FFD1FEE5FFB4DA082B182C282F6
:100DE000D38204831583E682F78280911A208F5F75
:100DF00080931A20992311F00E943D049FBE80E049
:100E000003C088EE01C08BE8DF91CF911F910F9155
:100E1000FF90EF90DF90CF90BF90AF909F908F901A
:100E20007F905F904F903F902F900895842F90E097
:100E3000FC01B3E0EE0FFF1FBA95E1F7E80FF91FD1
:100E4000EE5FFB4D7086FE01A3E0EE0FFF1FAA953B
:100E5000E1F7EC0FFD1FEE5FFB4D8FEF808790E019
:100E6000B2CF1F920F920FB60F9208B60F9209B62B
:100E70000F920BB60F92112418BE19BE1BBE2F93F2
:100E80003F934F935F936F937F938F939F93AF9312
:100E9000BF93EF93FF9380910024909101240196DA
:100EA00080930024909301240E943D04FF91EF91D0
:100EB000BF91AF919F918F917F916F915F914F9172
:100EC0003F912F910F900BBE0F9009BE0F9008BE5F
:100ED0000F900FBE0F901F9018951F920F920FB694
:100EE0000F9208B60F92112418BE8F9380911A208A
:100EF000882319F081E080931B208F910F9008BE0A
:100F00000F900FBE0F901F90189510921A201092FC
:100F10001B2010920024109201248FEF80931C203C
:100F200080931D2080931E20E6E0F4E284831082EB
:100F30001182399694E2E333F907C1F70E94F90769
:100F40000895FC018091002490910124209168086B
:100F500030916908A0E0B0E0DC019927882740E0E3
:100F600050E0822B932BA42BB52B80839183A283FB
:100F7000B383089581E0089584E88093800181E639
:100F8000809381010895E0EAF0E0828184608283A9
:100F9000089582E0809350008091510081FFFCCF42
:100FA00098ED94BF84E0E0E4F0E0818394BF81E0B9
:100FB0008093400082E0E0E5F0E08683809160006D
:100FC0008160809360000895E0E4F6E080818061B4
:100FD000808380818068808380818160808380813C
:100FE0008062808380818860808380818F7B808322
:100FF000089588E0809300088093400880EF8093F4
:101000000C0880E380934C0883E080930608E1E4B9
:10101000F8E080818061808389E2809343080895AD
:10102000E0E8F6E08FEF84838083089584309105B3
:10103000E9F08530910548F48230910599F08330CC
:10104000910590F4019761F409C08630910591F003
:101050008630910568F0079719F40EC021E00DC0A5
:1010600020E00BC022E009C023E007C024E005C057
:1010700025E003C026E001C027E06115710521F0DD
:1010800061307105A9F40BC081E090E002C0880FC7
:10109000991F2A95E2F7E0E8F6E08683089502C0FA
:1010A000660F771F2A95E2F7E0E8F6E0658308957A
:1010B00081E090E002C0880F991F2A95E2F7E0E8EE
:1010C000F6E0878308951092A00608958430910574
:1010D000E9F08530910548F48230910599F083302C
:1010E000910590F4019761F409C08630910591F063
:1010F0008630910568F0079719F40EC081E00DC0A5
:1011000080E00BC082E009C083E007C084E005C036
:1011100085E003C086E001C087E02091A80630E0AA
:1011200002C0359527958A95E2F721703070C90184
:10113000089580E58093C00880E1E0E4F6E08583CF
:101140000895E0E4F6E020914906909149069C7FDD
:101150009187806C90E19683E0ECF8E08383809146
:10116000C20887FFFCCFE0ECF8E063838091C208FF
:1011700087FFFCCFE0E4F6E080E1858321870895D6
:10118000E0E4F6E020914906909149069C7F918722
:10119000806890E19683E0ECF8E083838091C20858
:1011A00087FFFCCFE0ECF8E013828091C20887FF54
:1011B000FCCF8091C308E0E4F6E090E195832187BD
:1011C0000895CF93DF93DC0180E1E0E4F6E08683CD
:1011D00080E2E0ECF8E083838091C20887FFFCCFD7
:1011E000E0ECF8E013826130A9F0FD01262FC0EC9D
:1011F000D8E08091C20887FFFCCF8091C3081B8292
:10120000819321502230A8F76250862F90E00196FA
:10121000A80FB91F8091C20887FFFCCF8091C30837
:101220008C9380E1E0E4F6E08583DF91CF9108952F
:10123000DC0180E1E0E4F6E0868380E6E0ECF8E0C3
:1012400083838091C20887FFFCCFE0ECF8E09D919A
:1012500061508091C20887FFFCCF93836623B9F762
:101260008091C20887FFFCCF80E1E0E4F6E085834F
:101270000895FF920F931F93062FF42E0E94C0082B
:10128000082310E002C015950795FA94E2F7802F25
:101290001F910F91FF900895DF92EF92FF920F93AD
:1012A0001F93D82EF62EE42E022F0E94C00810E0C5
:1012B00002C0000F111FEA94E2F76F2D6023F09433
:1012C000F8226F298D2D0E94A1081F910F91FF9088
:1012D000EF90DF900895BC01009721F083ED93E239
:1012E0000E94A009089583ED93E260E070E00E94FF
:1012F000350A08950F931F93CF93DF9383ED93E205
:101300000E949909CBEBD3E20FE110E20883198325
:1013100083ED93E2BE010E94A009249606561F4F5A
:1013200083E2C33DD80791F7DF91CF911F910F91D1
:101330000895FC0110821182128213821482089592
:10134000CF93DF93DC01EB019FB7F89414968C9157
:101350001497882321F46D937C93119706C01296FD
:10136000ED91FC911397628373831296CD93DC9376
:1013700013971A821B8214968C9114978F5F149680
:101380008C939FBFDF91CF9108959F92AF92BF92B0
:10139000CF92DF92EF92FF920F931F93CF93DF9341
:1013A0008C015B016A019FB6F894DC0114968C9164
:1013B000882319F4C0E0D0E04AC0F801C081D1818F
:1013C00041155105B1F07E0111C0D60112966D9103
:1013D0007C911397ED91FC918881998119958823CF
:1013E00059F47E018A819B819C01E901209769F76C
:1013F0002EC0209761F17E01AB2849F5F80180816C
:1014000091812A813B81C817D90719F42083318340
:1014100005C0D70112962D933C931397F801828152
:101420009381C817D90711F4E282F382D801149688
:101430008C911497815014968C9314978D919C9154
:101440001197892B21F412961D921C9213979FBE1F
:10145000CE01DF91CF911F910F91FF90EF90DF9020
:10146000CF90BF90AF909F900895AB0160E070E087
:101470000E94C5090895AB0161E070E00E94C509B2
:101480000895CF93DF93EC010BC0CE0160E070E0D4
:101490000E94350A009711F41C8205C00E946B0956
:1014A0008C81882391F7DF91CF9108950F931F933B
:1014B000DF93CF93CDB7DEB72897CDBFDEBF81E0F6
:1014C0006FE140E00E943909883039F58FE00E94D1
:1014D000C00882E069E00E94A108CE0101960E9446
:1014E000DF038E010B5F1F4F8FE00E94C00880FD5D
:1014F00014C0C8010E94DF038D819E81AF81B88531
:1015000029813A814B815C81821B930BA40BB50B23
:101510008D3D9105A105B10538F32896CDBFDEBFFD
:10152000CF91DF911F910F9108950F931F93082F73
:1015300080914F248F3099F488E0E0E4F6E08683D0
:1015400081E06FE140E00E9439098830C9F7083036
:1015500011F0033021F488E080934F24CCC181E066
:101560006FE140E00E94390980934F24083009F46C
:1015700048C0093050F4043009F495C0063009F42D
:101580009FC0033009F0AEC154C00F3069F0003184
:1015900020F4093009F0A6C164C0063109F4C9C0BD
:1015A000093109F09FC131C182E063E00E94A108C6
:1015B0000E94D833682F192F8DE20E94A1088EE275
:1015C00067E040E0212F0E944C090000000000006D
:1015D000000000000000000000000000000000000B
:1015E0000000000000000000000088E0E0E4F6E0F9
:1015F000858383E290E00E94000400934F248FE0F3
:101600007AC1883009F46EC182E068E00E94A108C6
:1016100000000000000000000000000000000000CA
:1016200000000000000000000000000000000000BA
:1016300059C1883009F456C182E063E00E94A108D4
:10164000000000000000000000000000000000009A
:10165000000000000000000000000000000000008A
:1016600041C1883029F1893020F4863009F03AC12F
:1016700005C0863119F0893109F034C182E069E092
:101680000E94A1080000000000000000000000000F
:10169000000000000000000000000000000000004A
:1016A000000000001FC1883019F0893021F41AC1F0
:1016B0000E94560A17C182E064E00E94A10812C18C
:1016C000893059F08A3020F4883009F00BC11AC0F3
:1016D000863119F0893109F005C182E066E00E9487
:1016E000A108000000000000000000000000000051
:1016F00000000000000000000000000000000000EA
:101700000000F0C00E94560A82E066E00E94A10834
:1017100000000000000000000000000000000000C9
:1017200000000000000000000000000000000000B9
:10173000D9C0883001F1893020F4863009F0D2C058
:1017400031C0893019F0893109F0CCC082E066E1FE
:101750000E94A1080000000000000000000000003E
:101760000000000000000000000000000000000079
:1017700000000000B7C00E94560A82E066E10E94A5
:10178000A1080000000000000000000000000000B0
:101790000000000000000000000000000000000049
:1017A0000000A0C082E069E00E94A10800000000E3
:1017B0000000000000000000000000000000000029
:1017C00000000000000000000000000081E06FE168
:1017D00040E00E94390980934F24893009F08BC082
:1017E00082E066E10E94A108000000000000000005
:1017F00000000000000000000000000000000000E9
:1018000000000000000000006DC0883009F454C0E2
:10181000893020F4863009F065C01BC0893021F082
:10182000863109F05FC015C082E069E10E94A1081D
:1018300000000000000000000000000000000000A8
:101840000000000000000000000000000000000098
:1018500049C082E069E00E94A10800000000000089
:101860000000000000000000000000000000000078
:101870000000000000000000000081E06FE140E097
:101880000E94390980934F24893009F034C082E0E6
:1018900069E10E94A10800000000000000000000B3
:1018A0000000000000000000000000000000000038
:1018B00000000000000016C00E94560A82E069E1A4
:1018C0000E94A108000000000000000000000000CD
:1018D0000000000000000000000000000000000008
:1018E0000000000081E06FE140E00E943909809330
:1018F0004F248F31B9F31F910F91089580914024A7
:101900008823E1F0809158248823C1F48091D82362
:101910009091D923892B39F48AE90E947309809325
:10192000D8239093D9238091D8239091D923892BC0
:1019300029F01092402486E10E94950A8091452466
:10194000882351F081E494E260E070E00E94350A5F
:10195000009711F00E94B90C80915824823019F040
:10196000853031F403C00E94FD0D08950E942D0EB4
:101970000895EF92FF920F931F93CF93DF937C0113
:10198000DC010D911C91D8011796ED91FC911897EF
:10199000808180935124C82FD0E02196CE0FDF1F85
:1019A000988129812F3110F02EE103C0222309F400
:1019B00021E092959695969593708FEF989FC00130
:1019C000112430E0FC01E29FC001E39F900DF29FE3
:1019D000900D11246AE570E00E9469336F3F710534
:1019E00011F008F06FEF6883D8011196ED92FC9228
:1019F0001297C8010E947D18DF91CF911F910F911E
:101A0000FF90EF900895DF92EF92FF920F931F9354
:101A1000DF93CF930F92CDB7DEB7E091D823F0914B
:101A2000D9233097C1F1E080F18087E00E94C0089F
:101A3000D82ECE01019661E00E94E108698167FD20
:101A40002AC06D5F0AE910E0061B11090E0D1F1D6B
:101A50006150C8010E94E108F7010783108789815E
:101A6000080F111DF801D2826091D8237091D923FB
:101A700081E494E20E94A0098AE90E94730980939C
:101A8000D8239093D923892B31F489E00E94950AB9
:101A900081E0809340240F90CF91DF911F910F91AF
:101AA000FF90EF90DF900895882311F087E005C044
:101AB00082E060EE45E00E9439098093DA2382E0FB
:101AC000809358248091D8239091D923892B39F47D
:101AD00089E00E94950A81E080934024089586E180
:101AE0000E94950A0895EF92FF920F931F93CF9350
:101AF000DF937C01EB01042F442331F08CE260EF93
:101B000044E020914E2404C08CE260EF44E020E0E9
:101B10000E944C09C230D10598F4002361F08CE298
:101B20006EE041E0209146240E944C098FE260E083
:101B30000E94A10816C08CE26EE041E027E00FC0D1
:101B400060914A246295607F80914D24682B8FE2DA
:101B50000E94A1088CE26EE041E0209146240E94A0
:101B60004C0989E10E94950A8931D9F7809149068B
:101B70008C7FE0E4F6E08187219759F4809151242D
:101B8000833118F080E492E002C080E890E00E9487
:101B9000000400E416E088E0F80185838683F701FD
:101BA00060816150C7010E94180981E08093582428
:101BB000809149068360F8018187DF91CF911F9161
:101BC0000F91FF90EF900895FC0180915824882395
:101BD00011F086E80895E0934B24F0934C2487811C
:101BE00090858093522490935324009711F488EEAB
:101BF00008950E94730D80E00895109258248091FA
:101C0000DA238330B1F0843028F4882331F0813036
:101C1000E1F409C08530C9F412C060914B24709181
:101C20004C2480E017C060914B2470914C2487E8CD
:101C300011C060914B2470914C2481EE0BC06091D7
:101C40004B2470914C2489EE05C060914B24709117
:101C50004C2485E80E948729089585E160E847E0E3
:101C600020E00E944C0980E692E10E94A3028EE0EF
:101C700068E00E94A108809149068360E0E4F6E0F4
:101C800081871092582486E10E94950A9091DB2367
:101C9000993320F08FEF8093DB230AC08FEF989F5A
:101CA000C001112468E370E00E9469336093DB2374
:101CB0008091DB230E94592D08951F93CF93DF93CA
:101CC000182F80915824882341F080914F248F3021
:101CD00011F086E860C081E85EC0C0E4D6E0809183
:101CE00049068C7F89878FE00E94C00885E160E803
:101CF00047E021E00E944C098FEC9EE00E94A30285
:101D00008EE06FEF40E020E10E944C09809149068F
:101D10008360898786E00E94950A8630A1F085E17C
:101D200060E847E020E00E944C0980E692E10E94D2
:101D3000A3028EE068E00E94A108809149068360BA
:101D4000898785E828C087E06FEF0E94A10884E0BA
:101D5000809358241092DB2380EC93E0A0E0B0E065
:101D600004C0880F991FAA1FBB1F1A95D2F7805471
:101D70009C4FAF4FBF4F23E0B695A795979587959A
:101D80002A95D1F78093DC239093DD23A093DE2363
:101D9000B093DF2380E0DF91CF911F9108958FE012
:101DA0000E94C00884FF29C087E00E94C008982FC5
:101DB0008091DB23891710F49093DB238091DC233F
:101DC0009091DD23A091DE23B091DF230197A1093B
:101DD000B1098093DC239093DD23A093DE23B0939D
:101DE000DF230097A105B10529F087E06FEF0E947E
:101DF000A108089585E0809358240895282F85FD33
:101E000003C0982F9F7304C0982F91959F7191954F
:101E1000E4EFF1E08491891734F03F9684919817AC
:101E200014F0822F0CC0803E3CF080323CF487FFDF
:101E300006C08F71806203C080E201C08FE18068BC
:101E4000089584E08093462423E020934D248FEF6F
:101E50009FEF80933B2490933C2480933E24909367
:101E60003F248BE08093482480E098EFAFEFB7E009
:101E70008093542490935524A0935624B0935724D0
:101E800010923A248AE091E0809338249093392488
:101E90008AE08093502482E08093472485E08093F9
:101EA0004A2420934E2483E80E94FE0E80932F2420
:101EB00081E080933D2410924924089585FD03C05C
:101EC000982F9F7304C0982F91959F719195E4EF7F
:101ED000F1E080E02491921724F029173CF481501E
:101EE00008958F5F31968031A9F780E008951F93A0
:101EF000CF93DF9382E260913B240E94A10860911E
:101F00003C2483E20E94A108C0E3D4E214E2812FC2
:101F100069910E94A1081F5F1C32C9F780E260919D
:101F20003E240E94A10860913F2481E20E94A10802
:101F300088E060E645E020913D240E944C098FE254
:101F40006FE040E020914D240E944C098EE268E051
:101F500043E0209149240E944C098FE260EF44E065
:101F600020914A240E944C0988E06FE140E02091D2
:101F700048240E944C0980912F240E945E0F282F34
:101F800085E06FE040E00E944C09DF91CF911F9106
:101F900008951F93CF93DF93EB01909158249430D1
:101FA00009F4D4C08E3431F0893541F488818093AE
:101FB0004E24D0C0888180934624CCC020914F24E9
:101FC0002F3011F481E8C7C08B3009F4B6C08C30D3
:101FD00070F4823009F479C0833018F48823C9F191
:101FE00015C0833009F47FC0843081F45FC083352D
:101FF00009F1843528F48F3459F0803539F40DC057
:10200000873509F45BC0803F09F474C084EFA3C036
:10201000288120934D248FE263C068818981609379
:102020003B2480933C2482E20E94A10860913C24DE
:1020300083E20CC06881898160933E2480933F24B1
:1020400080E20E94A10860913F2481E20E94A108E1
:1020500081C0992309F07AC080E098EFAFEFB7E034
:10206000088004C0B695A795979587950A94D2F7EE
:1020700081709070892B09F46BC0283011F418E03E
:1020800006C088E00E94950A8830D9F716E12881B9
:102090002093482488E06FE140E00E944C0918300A
:1020A00009F458C086E10E94950A54C0992309F0AA
:1020B0004DC08881882309F44DC04AC028812093EF
:1020C0004A248FE260EF44E03EC0888180932F2451
:1020D0000E94FE0E80932F240E945E0F282F85E021
:1020E0006FE040E030C0288120933D2488E060E626
:1020F00045E029C0888180933024898180933124F0
:102100008A81809332248B81809333248C818093C5
:1021100034248D81809335248E81809336248F8161
:1021200080933724C0E3D4E214E2812F69910E94A6
:10213000A1081F5F1C32C9F70DC0288120934924D4
:102140008EE268E043E00E944C0904C086E803C0C8
:1021500088EE01C080E0DF91CF911F910895DF925A
:10216000EF92FF920F931F93D82E00E416E088E0C1
:10217000F80186838CE791E00E940004FF24F39429
:10218000F801F68281E090E00E940004F801F582F7
:1021900010E081E06FE140E00E9439091F5F1B3FC2
:1021A00011F485E877C08830A1F780934F2483E04D
:1021B00060E344E020E00E944C0983E068E043E0F3
:1021C00020E00E944C0983E067E040E021E00E94AB
:1021D0004C098EE260E245E021E00E944C098CE06F
:1021E00060E847E021E00E944C0984E062E041E0C1
:1021F00021E00E944C098EE068E00E94A10886E080
:102200000E94950AE0904906809149068C7FE0E49F
:10221000F6E0818700E010E0FF2486E060E645E01C
:102220000E9439099801220F331F220F331F082FF4
:1022300010E0022B132BF394F8E0FF1671F783E004
:102240000E94950A8FE00E94C008E0E4F6E081E079
:102250008487E186C8010E94DD330E94D833682F4D
:10226000192F8DE20E94A1088EE267E040E0212F45
:102270000E944C0980E00E9485120E947212DD20AB
:1022800011F00E94210F0E94770F10925824109293
:10229000402480E01F910F91FF90EF90DF90089510
:1022A0000E94AF10882361F085E8089581E494E2EC
:1022B00060E070E00E94350A009711F00E946B09FF
:1022C00080914524882391F780E692E10E94A30241
:1022D000E0E4F6E081E084878091490683608187AD
:1022E00080E00895FF920F931F93CF93DF930E9496
:1022F000C903882309F0DDC000E416E0FF24F3944D
:10230000F801F58288E086838AE491E00E94000467
:10231000F801F68281E090E00E940004F801F58265
:1023200000E004C00F5F0F3F09F4C3C08DE10E94BD
:10233000C0088230B9F78CE10E94C008833091F761
:1023400082E068E00E94A10800E081E06FE140E0E7
:102350000E943909015009F4ACC08830B1F780936C
:102360004F2480E090E060E070E048E050E020E33F
:1023700034E20E94F40209C0C0E3D4E20E94D833E0
:102380008993F4E2C833DF07C9F780913024309194
:102390003124409132246091332470913424F0919F
:1023A0003524B091362450913724182F115091E0E4
:1023B000181708F090E0832F815021E0831708F070
:1023C00020E0092F080F91E0081708F090E0292B72
:1023D000842F815031E0841708F030E0A22FA80F3D
:1023E00091E0A81708F090E0392B862F815021E06A
:1023F000861708F020E0E32FE80F91E0E81708F0D7
:1024000090E0292B872F815031E0871708F030E0CA
:10241000622F680F91E0681708F090E0392B8F2F3A
:10242000815021E08F1708F020E0432F480F91E002
:10243000481708F090E0292B8B2F815091E08B17E3
:1024400008F090E0322F380F21E0381708F020E034
:10245000922B5195591779F43F3F69F44F3F59F446
:102460006F3F49F4EF3F39F4AF3F29F40F3F19F4C0
:102470001E3F08F081CF81E00E94AF108823C9F48D
:1024800080E692E10E94A302809149068360E0E425
:10249000F6E081870E947A098AE90E947309809395
:1024A000D8239093D92381E494E20E94990980E093
:1024B00001C085E8DF91CF911F910F91FF900895A2
:1024C0008FE00E94C008282F83FF0BC08091582402
:1024D000813029F426FF80E00E94540D08950E9467
:1024E000030D089580914F248F3011F082E80895F4
:1024F00088E00E94950A883011F085E8089581E00F
:1025000090E00E94D70380E00895882311F088EEC0
:10251000089580914F248F3011F481E808958091BF
:102520005824882391F41092402488E00E94950A50
:102530008830D9F780E090E00E94D7038FE00E94B6
:10254000950A8F3011F480E0089586E80895982F59
:1025500080915824882311F086E80895983039F442
:1025600088E00E94950A1092402488E008958091A6
:10257000D8239091D923892B29F086E10E94950ACE
:1025800086E0089581E08093402486E00895CF930B
:10259000DF93DC019C9111962C9111978091592425
:1025A000882321F4CD010E946B091AC0E92FF22F74
:1025B0009F012F5F3F4F4CED54E288E0EA01099004
:1025C000AE01E90109929E018150C1F78091E72493
:1025D000818783E1808384EF94E2BD010E94A0099A
:1025E000DF91CF910895DC01ED91FC91119784E189
:1025F000808363834183528384EF94E2BD010E9410
:10260000A00908950F931F93DF93CF930F920F921A
:10261000CDB7DEB7A0917D24B0917E24ED91FC91E1
:10262000119784E180838BEE83830FEF1FEF01838B
:10263000128384EF94E2BD010E94A00910926C24E1
:1026400009831A8380E5BE016F5F7F4F0E942325B7
:102650000093B3241093B4241092C1241092C22486
:102660001092C3241092C4241092C5241092C62440
:102670001092C7241092C8240E9472230F900F90CA
:10268000CF91DF911F910F910895EF92FF920F93D9
:102690001F93E090BD24F090BE2480E061E040E014
:1026A00020E030E000E010E00E94C01C8823A9F484
:1026B000A0917D24B0917E24ED91FC91119784E14D
:1026C000808381EE83838FEF9FEF8183928384EFFA
:1026D00094E2BD010E94A00919C0A70160E070E06A
:1026E00084E0440F551F661F771F8A95D1F780E05D
:1026F00020E030E002E013E1EE24FF240E94070610
:10270000882321F080E090E00E9402131F910F9136
:10271000FF90EF900895FF920F931F93DF93CF9355
:102720000F920F92CDB7DEB7F090E9240E946B09AB
:10273000FF20B1F583E567EE74E20E942325209126
:10274000E7243091E8248091DC248093C124809197
:10275000DD248093C2248091DE248093C324809161
:10276000DF248093C4248091E0248093C524809149
:10277000E1248093C6248091E2248093C724809131
:10278000E3248093C82481E08093F02410926C2489
:1027900080917724833031F582E08093772422C0C2
:1027A00010926C240FEF1FEF09831A8380E5BE019E
:1027B0006F5F7F4F0E9423250093B3241093B424AE
:1027C0001092C1241092C2241092C3241092C424E7
:1027D0001092C5241092C6241092C7241092C824C7
:1027E0002FEF3FEFE0917D24F0917E24A081B18115
:1027F00084E18C931396FC92139711962D933C933E
:10280000129784EF94E2BF010E94A0090E947223F4
:102810000F900F90CF91DF911F910F91FF9008952E
:102820000F931F93DF93CF93CDB7DEB72C97CDBF18
:10283000DEBFAC01DE011196FC01808191819C011B
:10284000F9018CE001900D928150E1F7DA010D91D0
:102850001C918091F0248250823020F0CA010E94A5
:102860006B0956C082E0F8018083D801AC56BF4F97
:10287000FD0181938A859B8511968D939C93129778
:102880008C8582839D0128503040D901E0E3F4E239
:1028900088E001900D928150E1F7F90138979F018E
:1028A000BE016E5F7F4F88E0DB010D90BD01D90155
:1028B0000D929D018150C1F780913B2490913C2461
:1028C000929382938091782482938F5F809378246F
:1028D00083E69CEC929382938BE18293D8011796C6
:1028E000ED93FC93189716961C928BE594E2BA012F
:1028F0000E94A00980917A2490917B24F80184831E
:10290000958381E00E942A04882311F40E94E72025
:102910002C96CDBFDEBFCF91DF911F910F9108950F
:10292000CF92DF92EF92FF921F93DF93CF93CDB7B9
:10293000DEB72F97CDBFDEBFAC017C01DE01119663
:10294000FC01808191819C01F9018FE001900D9241
:102950008150E1F740937D2450937E248C81823016
:1029600019F48F8198851AC08F818093C12488853E
:102970008093C22489858093C3248A858093C4244C
:102980008B858093C5248C858093C6248D85809308
:10299000C7248E858093C8248EEF9FEF8093B32445
:1029A0009093B42480E5BE016B5F7F4F0E94232586
:1029B0000E944D23D701CD90DC9081E0F601808309
:1029C000E182F282EA56FF4F80838F8581839F01E7
:1029D00028503040D901E0E3F4E288E001900D9204
:1029E0008150E1F7F9018FEF9FEF929382938C81F1
:1029F000823051F48091B3249091B42492938293C5
:102A000045E123E238EC11C0F9013A979F0141EC0E
:102A100054E288E0DA010D90AD01D9010D929D01DB
:102A20008150C1F74BE123E23CEC80913B24909133
:102A30003C24929382938091782482938F5F809339
:102A40007824329322934293D6011796ED93FC9308
:102A5000189784E0BE016D5F7F4F0E942325182FD9
:102A600080E0BE016E5F7F4F0E942325112371F429
:102A7000882361F4C60162E070E041E00E94E40D49
:102A8000882321F481E08093F12412C0D701ED91D5
:102A9000FC9184E1808381EE83838FEF9FEF8183BC
:102AA000928384EF94E2B7010E94A0090E947223EE
:102AB0002F96CDBFDEBFCF91DF911F91FF90EF909A
:102AC000DF90CF900895FC018091E2238730F0F4ED
:102AD000A781B08512968C91129786958695837002
:102AE0008230A1F4E091E023F091E1233297E0936A
:102AF000E023F093E12316968D919C9117978083A4
:102B000091838091E2238F5F8093E22380E0089598
:102B1000FC018091E2238730F0F40780F085E02DFE
:102B200082818695869583708330A9F48091E02315
:102B30009091E12308978093E0239093E123DC01B7
:102B4000369688E001900D928150E1F78091E22362
:102B50008F5F8093E22380E008959F92AF92BF92AF
:102B6000CF92DF92EF92FF920F931F93DF93CF9359
:102B700000D00F92CDB7DEB7FB01A080B180D501A8
:102B800011966D937C9312978AE08C9378E9C72E07
:102B9000D12CCA0CDB1C80917924882319F46DE0B8
:102BA000962E0EC0482F50E0C41AD50A5DE0952E2F
:102BB000980E2FE734E2C601B90150E00E94E833D5
:102BC00080915F24882309F442C0C092E023D09210
:102BD000E1231092E22388E895E189839A838BE5CB
:102BE00094E27E010894E11CF11CB7010E943B0AAB
:102BF0000091E2231092E22383E695E189839A8390
:102C00008BE594E2B7010E943B0A2091E223E09118
:102C1000E023F091E123319710E0C80134E0880F00
:102C2000991F3A95E1F7822B8083000F111F000F47
:102C3000111F020F111D000F111F0093E223900EB0
:102C4000E02FF0E0E095F095EC0DFD1D02C0F601DF
:102C50001292DF011E928091F024833019F42FEF3D
:102C60003FE402C02FEF3FE080915924811130688A
:102C7000FD013293229380913E2490913F242FEFC7
:102C80008E3F920799F4FD013A9786E0980E9F01D6
:102C900040E354E288E0DA010D90AD01D9010D92D4
:102CA0009D018150C1F720E030EC04C092938293E3
:102CB00020E030E880913B2490913C2492938293D1
:102CC0008091762482938F5F80937624329322932F
:102CD0009292D5011796ED93FC931897C50162E087
:102CE00070E040E00E94E40D81E08093F12424969E
:102CF000CDBFDEBFCF91DF911F910F91FF90EF907D
:102D0000DF90CF90BF90AF909F900895BC0180E07E
:102D10000E94AD150895FC010190F081E02D6281C3
:102D200073818181448125810E94683308950F93C6
:102D30001F938C01DC01ED91FC9181810E941A02AC
:102D4000C8010E946B091F910F9108950F931F9363
:102D50008C01DC01ED91FC91818162810E94550220
:102D6000C8010E946B091F910F910895AF92BF9205
:102D7000CF92DF92EF920F931F935C01DC01ED91F4
:102D8000FC91048115812681378181816281438193
:102D9000E08439966F010E942702C5010E946B09E9
:102DA0001F910F91EF90DF90CF90BF90AF9008955B
:102DB0000F931F938C01DC01ED91FC9181810E94A6
:102DC0006733C8010E946B091F910F9108950F93FB
:102DD0001F938C01DC01ED91FC9181810E943C02EA
:102DE000C8010E946B091F910F9108950F931F93C3
:102DF0008C01DC01ED91FC9181810E946633C80158
:102E00000E946B091F910F9108950F931F938C01DE
:102E1000DC01ED91FC9121813281438154816581F6
:102E20007681878190850E946533C8010E946B0975
:102E30001F910F9108950F931F938C01DC01ED9169
:102E4000FC91818162813396AF010E946433C80195
:102E50000E946B091F910F910895EF92FF920F93BB
:102E60007C01DC01ED91FC9121813281438154810F
:102E7000658176818781908501850E946333C701D2
:102E80000E946B090F91FF90EF9008950F931F938D
:102E9000DF93CF93CDB7DEB72B97CDBFDEBF8C01CD
:102EA000DC01ED91FC9182818983838194818A8305
:102EB0009B839E012C5F3F4FAF014B5F5F4F88E0CC
:102EC000DA010D90AD01D9010D929D018150C1F73C
:102ED0008181BE016F5F7F4F0E946233C8010E94F3
:102EE0006B092B96CDBFDEBFCF91DF911F910F9164
:102EF00008950F931F93DF93CF93CDB7DEB76697F7
:102F0000CDBFDEBF8C01DC01ED91FC91818192810E
:102F10008A839B83838189839E012C5F3F4FAF010E
:102F20004C5F5F4F88E0DA010D90AD01D9010D9241
:102F30009D018150C1F7818192818D879E87848513
:102F40008C879E01215F3F4FAF01435F5F4F88E059
:102F5000DA010D90AD01D9010D929D018150C1F7AB
:102F6000CE010196BE01645F7F4F45890E946301D7
:102F7000C8010E946B096696CDBFDEBFCF91DF917D
:102F80001F910F910895CF92DF92EF92FF920F93CE
:102F90006C01DC01ED91FC91BF016E5F7F4F2489D4
:102FA0003589E788F08C8181438906890E946133E5
:102FB000C6010E946B090F91FF90EF90DF90CF90B8
:102FC0000895EF92FF920F937C01DC01ED91FC914B
:102FD0002181328143815481658176818781908509
:102FE00001850E948701C7010E946B090F91FF9024
:102FF000EF9008950F931F938C01DC01ED91FC91EC
:103000008181928163810E946033C8010E946B09B3
:103010001F910F9108950F931F938C01DC01ED9187
:10302000FC91818162810E945F33C8010E946B091B
:103030001F910F9108950F931F938C01DC01ED9167
:10304000FC91818162810E945E33C8010E946B09FC
:103050001F910F910895CF92DF92EF920F93DF931C
:10306000CF93CDB7DEB76697CDBFDEBF6C01DC0175
:10307000ED91FC9181818983828193818A839B83F5
:103080009E012C5F3F4FAF014C5F5F4F88E0DA013C
:103090000D90AD01D9010D929D018150C1F784853C
:1030A0008C87858596858D879E879E01215F3F4F02
:1030B000AF01415F5F4F88E0DA010D90AD01D901AA
:1030C0000D929D018150C1F7228D338DCE01019665
:1030D000BE01645F7F4F418D0789E08C0E946B01C8
:1030E000C6010E946B096696CDBFDEBFCF91DF910E
:1030F0000F91EF90DF90CF900895FC0110826181D5
:1031000072816115710521F088EB94E20E94A0099B
:103110000895282F8091E7249091E82496FF1BC002
:10312000222359F42091DA243091DB2480913B242E
:1031300090913C242817390759F02091DA243091D6
:10314000DB248091B6249091B7242817390719F40D
:103150008EEE0E949C2F08950F931F93CF93DF93C1
:10316000282F8091E7249091E82496FFA3C0222382
:1031700059F42091DA243091DB2480913B24909102
:103180003C242817390761F02091DA243091DB24A0
:103190008091B6249091B7242817390709F08AC086
:1031A0002091DC243091DD248091B3249091B424CB
:1031B0002817390709F47EC09091DC248091C1243E
:1031C000981759F59091DD248091C224981729F51C
:1031D0009091DE248091C3249817F9F49091DF2414
:1031E0008091C4249817C9F49091E0248091C5245B
:1031F000981799F49091E1248091C624981769F466
:103200009091E2248091C724981739F49091E32497
:103210008091C824981709F44DC08AE90E94730967
:103220008C01009709F446C0DC012D913C9185E0AA
:10323000F901808301831283E956FF4F8083AF0138
:1032400048505040FA01A0E3B4E288E00D900192AA
:103250008150E1F7FA013897EF01A1ECB4E288E080
:103260000D9009928150E1F780913B2490913C248C
:10327000929382938091782482938F5F80937824B5
:1032800083E69CEC9293829388E18293D90117960E
:10329000ED93FC931897C90162E070E041E00E9451
:1032A000E40D882321F481E08093F12403C0C80158
:1032B0000E946B09DF91CF911F910F9108950F9399
:1032C0001F93CF93DF93EC01E881F981A781B0854B
:1032D0007C917093CC24FD01E70FF11D81818093D7
:1032E000E52411964D915C9112974093C924509317
:1032F000CA2413968C9113978093CD248D010C5F73
:103300001F4F652F6295669566956370352F3695CC
:103310003695337019F4F80120E049C014968D9168
:103320009C9115978093CF249093D024FD013696DD
:103330003230E1F41092D1241092D2241092D3248E
:103340001092D4241092D5241092D6241092D7240F
:103350001092D82416968D919C9117978093D12422
:103360009093D224FD01389624E021C0333011F02F
:1033700022E01DC016968C9116978093D1248181EE
:103380008093D22482818093D32483818093D42418
:1033900084818093D52485818093D62486818093EF
:1033A000D72487818093D824FD013E962AE06623A6
:1033B00009F447C046FD08C0819191918093DA24B9
:1033C0009093DB242E5F08C08091CF249091D0246D
:1033D0008093DA249093DB246230C1F41092DC24D1
:1033E0001092DD241092DE241092DF241092E0244B
:1033F0001092E1241092E2241092E32480819181C2
:103400008093DC249093DD242E5F1BC06330C9F4CD
:1034100080818093DC2481818093DD24828180936C
:10342000DE2483818093DF2484818093E02485815E
:103430008093E12486818093E22487818093E32432
:10344000285F972F9550921B9093E6246093D92480
:103450003093CE2443FDCEC1D801A20FB11D842FDD
:1034600087708093CB24833021F48C918093E42463
:1034700063C0813009F451C0813020F0833009F0FD
:10348000B9C15AC08D919C9111978093E724909374
:10349000E82412968C9112978093E924877011F496
:1034A00093E002C0982F9C5FFD01E90FF11D808120
:1034B0008093EA24292F2F5F382F377090E0807790
:1034C000907044E0959587954A95E1F7482F33230E
:1034D00011F4882389F0CD01820F911D8093EB2494
:1034E0009093EC24332311F0330F230F442321F066
:1034F000440F440F440F240F8091E624281750F402
:10350000821B8093ED24A20FB11DA093EE24B093F3
:10351000EF2474C11092ED2471C1992351F09637B4
:1035200018F086E78093E624A093E724B093E8247C
:1035300065C11092E62462C18091E4248330E1F0F9
:10354000843030F48130C1F0823009F053C107C0BB
:10355000883008F453C1883009F04CC112C011966C
:103560008D919C9112978093E7249093E824139671
:103570008C918093E92442C111968C918093E72429
:103580003DC111968D919C9112978093E724909361
:10359000E82413968D919C9114978093E92490933D
:1035A000EA2415968C9115978093EB2416968D91AD
:1035B0009C9117978093EC249093ED2454FF1EC1A7
:1035C00018968C918093EE2419C18091CB2483307E
:1035D00061F48091E424843011F0873031F488EB79
:1035E00094E2BE010E94A0090FC180916C24813039
:1035F00009F4EBC0813020F0843008F0FBC0A3C098
:1036000080917524882309F06AC09091F02493304A
:1036100080F1933009F0EEC08091CB24813009F421
:10362000E5C0813010F1833009F0E4C08091E424DA
:10363000843009F4AFC0853038F4813009F4A0C07B
:10364000833009F0D7C009C0863009F4AEC0863097
:1036500040F0873009F0CEC0B0C0CE010E94C21E3B
:10366000D3C08EEE0E949C2FC5C080E00E948918B6
:10367000C1C08091CB24813009F4B8C0813020F0E2
:10368000833009F0B7C00CC08091F324882309F47B
:10369000B1C0992309F4AEC080E00E94AC18AAC062
:1036A0008091E424843009F475C0853038F4813089
:1036B00009F466C0833009F09DC004C0873009F06A
:1036C0005AC009C0CE010E94C21E8091F0248130F0
:1036D00009F09AC05CC0923009F08CC06EC0833093
:1036E00009F1843019F0823009F084C08091CB2434
:1036F000882309F07FC08091F024833019F481E0A1
:103700000E9489188091F324882341F08091F0244D
:103710008150823018F481E00E94AC18CE010E94E2
:10372000352872C08091CB24833009F063C080912A
:10373000E424883009F05EC082E00E94F804CE01E3
:103740000E94182C61C00E94A6278091CB24813052
:1037500009F44CC0833009F04DC08091E4248430DA
:10376000C9F0853030F4813059F0833009F042C01F
:103770000BC08730F1F0883021F18630D9F515C0C3
:10378000CE010E94C71240C0CE010E94C21E0E94FC
:103790008F243AC080915F24882321F0CE010E94BB
:1037A000831D32C00E94651C25C0CE010E94EE24FC
:1037B0002BC08091F0248230E9F4CE010E9486165D
:1037C00023C0CE010E94E12F1FC08091CB24833003
:1037D00059F48091E424823069F480E00E94F80476
:1037E000CE010E948B1310C0813021F4CE010E94C3
:1037F00003210AC0CE010E946B0906C08091F1240A
:10380000882309F0E2CEF1CEDF91CF911F910F9185
:103810000895DB01FC018681882399F40780F085F7
:10382000E02D8281869586958370823051F440E048
:103830002D913C91868197812817390719F441E031
:1038400001C040E0842F0895DB01FC0186818823BC
:10385000C9F50780F085E02D828186958695837075
:10386000833081F520E09C918681981761F511964F
:103870009C9111978781981731F512969C91129718
:103880008085981701F513969C9113978185981759
:10389000D1F414969C91149782859817A1F41596EB
:1038A0009C9115978385981771F416969C9116979D
:1038B0008485981741F417969C918585981719F47B
:1038C00021E001C020E0822F08950F931F93CF9332
:1038D000DF938AE90E9473098C01009709F44BC0B9
:1038E000DC01CD91DC918CE0888309831A831E82F0
:1038F000FE01E856FF4F8091D924833089F4389730
:103900009F014CED54E288E0DA010D90AD01D90140
:103910000D929D018150C1F721E03CE04FE009C0CC
:103920008091DC249091DD249293829321E038E011
:1039300049E08091DA249091DB24929382938091E4
:10394000782482938F5F80937824329322934293DA
:10395000EF83F887F8018081918161E070E040E0B9
:103960000E94E40D882321F481E08093F12403C0B8
:10397000C8010E946B09DF91CF911F910F910895AB
:103980006F927F929F92AF92BF92CF92DF92EF920F
:10399000FF920F931F93CF93DF93D82E962EC42EB2
:1039A000590138018AE90E9473097C01009709F4E2
:1039B0009BC0DC010D911C91DD2021F084E0F80119
:1039C000808303C08BE0D8018C93F801E182F282FE
:1039D000E956FF4F84E0808320913E2430913F24BC
:1039E000C9010296029710F0992069F03897EF010B
:1039F000A0E3B4E288E00D9009928150E1F762E122
:103A000083E290EC05C0329322936CE083E290E86D
:103A1000CC2061F020913B2430913C246216730647
:103A200029F06E5F3293229370E002C0806471E0EF
:103A300022E0C21641F4AC015860D5018D919C91F1
:103A40009293829328C0B3E0CB1661F4AC015C6022
:103A500038976A5FEF01D50188E00D900992815097
:103A6000E1F719C02091B3243091B4244FEF2E3FD9
:103A7000340729F0AC015860329322930CC0AC019A
:103A80005C6038976A5FEF01A1ECB4E288E00D90CA
:103A900009928150E1F73297772339F080913B24E6
:103AA00090913C248083918302C0608271828091D6
:103AB000782482938F5F8093782452934293629309
:103AC000D8011796ED93FC931897C80162E070E057
:103AD00041E00E94E40D882321F481E08093F124E9
:103AE00004C0C7010E946B0980E0DF91CF911F9154
:103AF0000F91FF90EF90DF90CF90BF90AF909F908D
:103B00007F906F900895EF92FF920F931F93DF9332
:103B1000CF9300D00F92CDB7DEB70E946B09809192
:103B2000F024823008F453C08091D924823019F4F3
:103B300089E09CE105C0833009F049C084E29CE142
:103B400089839A838CED94E28B839C838BE594E24A
:103B50007E010894E11CF11CB7010E943B0ADC01C4
:103B6000009781F00D911C911197F8018781908544
:103B70002091DA243091DB24FC018481958128177F
:103B8000390719F00E94651C22C081E0F801868384
:103B9000A183B2838BE594E2B7010E943B0A892B93
:103BA00041F0D8011796ED91FC91189781818061C1
:103BB0008183C80161E070E040E00E94E40D882349
:103BC00021F481E08093F12402C0F801168224964A
:103BD000CDBFDEBFCF91DF911F910F91FF90EF908E
:103BE0000895EF92FF920F931F93CF93DF937C0181
:103BF000E801DC01ED91FC9186E1808361834283E1
:103C000023833483CF010596423069F415821682EE
:103C100017821086118612861386148688819981F0
:103C20008583968307C0DC01F80188E001900D923E
:103C30008150E1F784EF94E2B7010E94A009DF917F
:103C4000CF911F910F91FF90EF9008950F931F93C5
:103C5000DF93CF93CDB7DEB72897CDBFDEBFDC01B2
:103C6000062FED91FC91119719821A821B821C82FA
:103C70001D821E821F8218860780F085E02D12812A
:103C8000169516951370123029F4268137812983F1
:103C90003A8310C08681898387818A8380858B835C
:103CA00081858C8382858D8383858E8384858F83B4
:103CB000858588878091F0248330C9F1823009F0AE
:103CC00041C0123051F4268137818091B324909104
:103CD000B4242817390759F535C0133041F59681BA
:103CE0008091C124981719F597818091C224981763
:103CF000F1F490858091C3249817C9F4918580913F
:103D0000C4249817A1F492858091C524981779F45A
:103D100093858091C624981751F494858091C72487
:103D2000981729F495858091C824981759F0209107
:103D30003B2430913C24CD01602F412F8E010F5F39
:103D40001F4F16C080913E2490913F2402962091EF
:103D50003B2430913C24029730F4CD01602F43E0A6
:103D600000E314E205C0CD01602F42E00EE314E24F
:103D70000E94F11D2896CDBFDEBFCF91DF911F912C
:103D80000F910895CF93DF939C01FC01C081D181F5
:103D9000FE0185E18193ACEDB4E288E00D900192E3
:103DA0008150E1F78091E724898784EF94E2B9019B
:103DB0000E94A0091092C1241092C2241092C32420
:103DC0001092C4241092C5241092C6241092C724C5
:103DD0001092C8248FEF9FEF8093B3249093B42464
:103DE000DF91CF910895EF92FF920F931F93DF938E
:103DF000CF93CDB7DEB72E97CDBFDEBF8C01DC01F0
:103E0000ED90FC90DE011196F7018EE001900D928D
:103E10008150E1F7F7010183128383E08083EA5642
:103E2000FF4F80838D85818338979F0140E354E263
:103E300088E0DA010D90AD01D9010D929D0181500C
:103E4000C1F78A81823031F48D819E819293829371
:103E500033E10FC038979F01AE014B5F5F4F88E0A1
:103E6000DA010D90AD01D9010D929D018150C1F78C
:103E700039E180913B2490913C24929382938091EC
:103E8000782482938F5F809378242A81922F990FD0
:103E9000990F80E08366906C929382933293D7015E
:103EA0001796ED93FC93189716961C928091F02428
:103EB0008250823008F060C08E85882309F45CC08F
:103EC0008A818230D1F48D818B3409F041C08E819A
:103ED0008823F1F58F818823D9F588858823C1F55A
:103EE00089858823A9F58A85882391F58B85882380
:103EF00079F58C85882361F55BC0833009F058C063
:103F00009D818091C124981719F59E818091C224CA
:103F10009817F1F49F818091C3249817C9F498856C
:103F20008091C4249817A1F499858091C52498178D
:103F300079F49A858091C624981751F49B858091D5
:103F4000C724981729F49C858091C824981781F17B
:103F50008BE594E2B8010E94A00980917A249091A7
:103F60007B24F7018483958381E00E942A048823BF
:103F7000F9F40E94E7201CC00E944D23D8018D91C6
:103F80009C9162E070E041E00E94E40D882321F4FE
:103F900081E08093F1240CC02B813C81C80161EE4B
:103FA0004A818E010B5F1F4F0E94F11D0E947223F8
:103FB0002E96CDBFDEBFCF91DF911F910F91FF9065
:103FC000EF900895DC01ED91FC911197E081E432CE
:103FD00078F4F0E0EE0FFF1FEC5FFD4F2591349178
:103FE0002115310519F0F901199508950E946B0901
:103FF00008951F938091F124882381F48091742483
:10400000882361F080E794E260E070E00E94350A66
:10401000009721F00E94E21F11E001C010E08091A2
:10402000BC24882359F088EB94E260E070E00E94A1
:10403000350A009719F00E94E21F11E0812F1F91AD
:104040000895FC018681882329F484819581019754
:104050008483958380E00895FC018681882311F094
:1040600020E006C020E084819581892B09F421E0BD
:10407000822F0895FB0120E0DC0113969C91808142
:10408000981709F421E0822F0895DC01ED91FC914D
:10409000119780E180834183628384EF94E2BD01C4
:1040A0000E94A0090895EF92FF920F931F93DF9350
:1040B000CF93CDB7DEB72597CDBFDEBF7C01FC0126
:1040C00000811181F801918182E1808399838AE3E3
:1040D00090E28A839B83CE0101968C839D838BE53E
:1040E00094E2BE016E5F7F4F0E94350A009729F06F
:1040F0000E946B09F801128203C087EEF8018283E7
:1041000084EF94E2B7010E94A0092596CDBFDEBFDF
:10411000CF91DF911F910F91FF90EF900895FF9243
:104120000F931F93DF93CF9300D00F92CDB7DEB7DD
:1041300081E290E289839A838BE594E28E010F5F9E
:104140001F4FB8010E943B0A8CE290E289839A8358
:10415000F02E012F10E18BE594E26F2D702F0E945D
:10416000350ADC01009721F19C9111962C91119751
:10417000E92FF22F8081833049F08D3061F0823059
:1041800051F780EFBD010E947D23E5CFCD0160EFA7
:104190000E94261EE0CF8381E92FF22F10838183B6
:1041A00080EF828384EF94E2BD010E94A009D3CF07
:1041B00080915F24882311F00E94E7202496CDBFD0
:1041C000DEBFCF91DF911F910F91FF900895EF9285
:1041D000FF920F931F9381E040E050EE61E070E0AA
:1041E00020E030E00FE810E2EE24FF240E940706F2
:1041F000882321F080E090E00E948F201F910F9192
:10420000FF90EF9008950F931F93DF93CF93CDB757
:10421000DEB72897CDBFDEBFAC01DC019C911196C3
:104220002C918091E624882321F4CA010E946B0915
:10423000FFC0E92FF22F8091CD24808F8091D92467
:10424000818382508230A8F48091DA249091DB241B
:10425000828393839F012C5F3F4F6CED74E288E073
:10426000DB010D90BD01D9010D929D018150C1F777
:104270000AC0128213821482158216821782108657
:10428000118612861386208D80915A24281761F595
:10429000948180916224981739F5958180916324E7
:1042A000981711F59681809164249817E9F4978105
:1042B000809165249817C1F49085809166249817A1
:1042C00099F4918580916724981771F49285809173
:1042D0006824981749F4938580916924981721F4EC
:1042E000CA010E946B095AC020935A24848180938A
:1042F00062248581809363248681809364248781EE
:1043000080936524808580936624818580936724CB
:104310008285809368248385809369242091CE24AC
:1043200024871786108A118A128A138A148A158A9A
:10433000168A8091CF249091D02485879687233048
:1043400079F49F01215F3F4F61ED74E288E0DB016A
:104350000D90BD01D9010D929D018150C1F70BC097
:10436000223039F48091D1249091D2248787908B88
:1043700002C0158616868091E524878B8091E624FD
:10438000818F8091E7249091E824828F938F81E13F
:10439000808384EF94E2BA010E94A0098091C9242D
:1043A00084FF46C08091F024833009F443C080919B
:1043B000D924823071F48091DC249091DD248983AA
:1043C0009A830091DA241091DB2480E060E042E0DF
:1043D00021C0833019F58091DC2489838091DD240C
:1043E0008A838091DE248B838091DF248C8380916B
:1043F000E0248D838091E1248E838091E2248F8359
:104400008091E32488870091DA241091DB2480E0F6
:1044100060E043E09E012F5F3F4F07C080E060E017
:1044200040E020E030E000E010E00E94C01C02C04C
:104430000E9472232896CDBFDEBFCF91DF911F91DE
:104440000F910895CF92DF92EF92FF920F931F93F7
:10445000DF93CF93CDB7DEB76297CDBFDEBF8C01C0
:10446000DE011196FC01808191819C01F90182E1BC
:1044700001900D928150E1F78F8582FD11C08091EE
:104480006C24882321F480917524882349F09E852B
:10449000D801ED91FC9180E18083918381EEAEC0E3
:1044A000F801E080F1808DE0D7018C938E85139622
:1044B0008C93139716961C92888945E0D42ED80EBB
:1044C000E8E9F0E0E81BF109EE0DFF1D9A8192305A
:1044D00051F437E0D32ED80E80913E2490913F24A2
:1044E0009293829312C0933081F438972DE0D22EAC
:1044F000D80E9F0140E354E288E0DA010D90AD014F
:10450000D9010D929D018150C1F720913B2430913A
:104510003C248C819D812817390749F48A8188239E
:1045200031F08B81882319F040E450E009C08A8182
:10453000882321F0B2E0DB0E3293229340E050E07A
:104540008B81882311F1823039F46D2D6E5F8E815D
:104550009F819293829312C038976D2D685F9F015F
:1045600096E0C92ED12CCC0EDD1E88E0D6010D9030
:104570006D01D9010D929D018150C1F782E0D82EC5
:10458000D60E8C819D819293829380917824829320
:104590008F5F80937824BA0161608F8580FF02C0AD
:1045A000BA0161628889873608F070618B81382F83
:1045B000330F330F20E04A81942F9295990F990F72
:1045C000907C80E0282B392B262B372B329322939B
:1045D0003296D7FC0BC03397D082D7011796ED9354
:1045E000FC9318978F8582FD10C028C09E85D80146
:1045F000ED91FC9180E18083918385EE828384EF4D
:1046000094E2B8010E94A0093CC08091F02482503D
:104610008230A0F48BE594E2B8010E94A009809159
:104620007A2490917B24F7018483958381E00E9412
:104630002A04882331F50E94E72023C00E944D23DD
:10464000D70111960D931C931297C70162E070E099
:1046500041E00E94E40D882321F481E08093F1245D
:1046600010C09E85D801ED91FC9180E180839183FB
:1046700081EE828384EF94E2B8010E94A0090E9437
:1046800072236296CDBFDEBFCF91DF911F910F9154
:10469000FF90EF90DF90CF9008958091F2248130C9
:1046A00051F40E947212853831F081E090E00E944E
:1046B000D7031092F22408958091F224882389F47C
:1046C00080E090E00E94D70380E00E94851288235A
:1046D00021F481E08093F224089581E090E00E942B
:1046E000D703089580916024882331F48091B52404
:1046F000882311F40E945C230895DF93CF93CDB7F4
:10470000DEB72897CDBFDEBF482F9B01DB01ED91BF
:10471000FC910780F085E02DDE011196369688E049
:1047200001900D928150E1F7D901ED91FC918CE15E
:10473000808380913B2490913C248183928393E0F9
:104740009383809130248483809131248583809168
:104750003224868380913324878380913424808718
:1047600080913524818780913624828780913724F7
:1047700083879487898185878A8186878B818787CC
:104780008C81808B8D81818B8E81828B8F81838BBD
:104790008885848B458B84EF94E2B9010E94A0093F
:1047A0002896CDBFDEBFCF91DF9108950F931F9361
:1047B000182F1092F1241092F0241092F2241092EB
:1047C00075241092772410926C2410925A248FEF43
:1047D000809362248093632480936424809365246F
:1047E000809366248093672480936824809369244F
:1047F0001092B52488E00E94A7120FB7F89480E0C9
:104800000E94F80481E00E94F80482E00E94F8040B
:1048100083E00E94F8040FBF112309F440C01092F6
:10482000F32482EC97E080936E2490936F2480E0D1
:1048300098E78093BD249093BE2410926B2410922D
:104840005924109279240E94D8338093762484EFDF
:1048500091E080937A2490937B2481E080936D246F
:1048600086E0809361241092C1241092C224109299
:10487000C3241092C4241092C5241092C62410920E
:10488000C7241092C8248FEF9FEF8093B324909396
:10489000B4240E94D83380937824109260241F910E
:1048A0000F9108950F931F93CF93DF93EC0108812D
:1048B00019810E944D23F801018180E090E00E945F
:1048C000D70380E0011181E00E945011182F81E090
:1048D00090E00E94D703802F0E94D6230E9472236B
:1048E00080E794E20E94410A88EB94E20E94410A28
:1048F00084EF94E20E94410A8BE594E20E94410A0F
:10490000E881F981118380E2808384EF94E2BE0123
:104910000E94A009DF91CF911F910F910895DF931D
:10492000CF9300D00F92CDB7DEB70E944D238FEF0B
:104930009FEF89839A838B839C8383E5BE016F5F9E
:104940007F4F0E94232580E5BE016D5F7F4F0E944F
:10495000232581E00E94D6230E9472232496CDBF96
:10496000DEBFCF91DF9108950E9472118823B9F4C0
:104970000E94BA07882399F081E00E94D6230E9402
:10498000722380E794E20E94990988EB94E20E94E6
:1049900099098BE594E20E94990980E0089585E8E1
:1049A0000895FF920F931F93182FF92E40913B24E7
:1049B00050913C2489E0612F792F20914824009167
:1049C0003A240E941630882329F481EE612F7F2D2E
:1049D0000E947D231F910F91FF900895CF93DF9345
:1049E000EC01E881F9818AE18193ACEDB4E288E0E1
:1049F0000D9001928150E1F784EF94E2BE010E9494
:104A0000A009DF91CF910895E82F853419F48091A2
:104A100079240895883030F4E82FF0E0E45BFD4F0E
:104A2000849108958054803228F4F0E0EC5EFD4FCC
:104A300084910895E03F10F480E00895F0E0EC5791
:104A4000FE4F849108951F93CF93DF93182FEB01AE
:104A50008091F224813051F40E944D23812FBE01B8
:104A60000E94C90F182F0E94722304C0812F0E9438
:104A7000C90F182F812FDF91CF911F9108950F93A8
:104A80001F93CF93DF938C01FC01C081D181BE01C4
:104A90006D5F7F4F89818B3409F4A4C08C3478F525
:104AA000863009F475C0873098F4823009F4D0C09C
:104AB000833038F4882309F4BBC0813009F048C042
:104AC000BAC0843009F45CC0853008F05CC0C3C053
:104AD000853409F469C0863448F4813409F461C02E
:104AE000823409F45BC0873099F555C0893409F4E4
:104AF00068C08A3408F06DC0863451F55FC08535D2
:104B000009F462C08635A0F48F3409F476C080358C
:104B100030F48C3409F46BC08E34D1F46BC0823520
:104B200009F473C0833509F473C0803589F468C013
:104B30008935D9F08A3528F4873579F0883580F4BD
:104B400009C08D35D1F0803F09F469C08A3581F004
:104B500094EF85C08091F32480C080914A247DC069
:104B600080916E2490916F2457C080914E2475C01F
:104B70008091BD249091BE244FC080916B246DC064
:104B800080913A246AC0809138249091392444C09D
:104B90008091502462C0809147245FC080916D2431
:104BA0005CC08091592459C0409179242FE734E2A8
:104BB000CB01B90150E00E94E83350C080917924C4
:104BC0004CC08091762449C080917A2490917B24B6
:104BD00023C0DB01E1ECF4E288E001900D9281500A
:104BE000E1F73CC08091B3249091B42415C080912A
:104BF000782433C08091462430C080914D242DC04C
:104C000080913B2490913C2407C08091602425C072
:104C100080913E2490913F248B839C831FC0DB01B5
:104C2000E0E3F4E288E001900D928150E1F716C0D4
:104C30008091482412C08091542490915524A091D1
:104C40005624B09157248B839C83AD83BE8306C0CA
:104C500080912F2402C080913D248B8390E0898134
:104C60008A838EE18883998384EF94E2B8010E945D
:104C7000A009DF91CF911F910F910895FF920F939B
:104C80001F93CF93DF93182FEB01F42E8B3409F48D
:104C90009BC08C3440F5833409F4B1C0843478F47B
:104CA000853038F4823008F0AAC0882309F4A7C000
:104CB0003EC0813409F453C08234C9F548C08634FB
:104CC00009F45AC0873430F4843409F444C085347C
:104CD00071F549C0893409F453C08A3408F05BC0C7
:104CE000873429F58CC0853509F44EC0863570F4BB
:104CF000813530F48E3408F082C08C34C1F46BC03E
:104D0000823509F46CC0823590F079C08835A9F0FD
:104D1000893528F4863569F0873549F470C08A35BD
:104D200079F08A3508F46BC0803F09F468C004EF5D
:104D3000C7C088818093F324C2C088819981BBC099
:104D4000888199818093BD249093BE24B8C08881C6
:104D500080936D24B4C0888180936124B0C0888121
:104D600080935924ACC02FE734E240917924C901E3
:104D700050E00E94E833A3C08881809379249FC0CB
:104D80008881809376249BC08881998180937A243E
:104D900090937B2494C088818093C12489818093DF
:104DA000C2248A818093C3248B818093C4248C8104
:104DB0008093C5248D818093C6248E818093C724DF
:104DC0008F818093C8247BC0888199818093B3248C
:104DD0009093B42474C088818093782470C06881D3
:104DE000611161E060936024662331F00E944D23DD
:104DF00086E00E94A71263C00E94722360C0812FC8
:104E0000BE010E94C90F082F813871F40E947212EE
:104E1000812FBE010E94C90F082F882309F050C0BE
:104E200081E08093E32303C0882309F049C0809187
:104E30004624282F30E080914A24482F50E060918A
:104E40004D24CA01861B9109281739070CF4C901A2
:104E5000A82F281B310981E090E002C0880F991F1C
:104E60004A95E2F70197289FA001299F500D389F8E
:104E7000500D112420E030E070E0E1E0F0E00DC0E2
:104E8000C901860F971FEF0102C0CC0FDD1F8A9565
:104E9000E2F74C0F5D1F2F5F3F4F2A1788F384E125
:104EA00090E09C01429FC001439F900D529F900D46
:104EB0001124865F9E4F80936E2490936F2400E0B0
:104EC000FF2049F08091E323882329F080E00E94AD
:104ED00085121092E323802FDF91CF911F910F91C4
:104EE000FF900895EF92FF920F931F937C01FC01B6
:104EF00000811181B8016E5F7F4FF801818141E02F
:104F00000E943E26F801918192839FE190838183E4
:104F100084EF94E2B7010E94A0091F910F91FF90C6
:104F2000EF900895CF93DF93EC01E881F98183E25C
:104F300080836183662311F00E94722384EF94E2E0
:104F4000BE010E94A009DF91CF9108958091CB24EA
:104F50008823E1F080E00E94F8048091CB24813026
:104F600031F48091E624882311F060E001C06BEEFB
:104F700080916C24823031F480917D2490917E2444
:104F80000E9492271092F12410926C24089580912F
:104F90006C24823039F480917D2490917E246BEED4
:104FA0000E94922710926C241092F1240895CF92BF
:104FB000DF92EF92FF920F931F93DF93CF93CDB7C2
:104FC000DEB72897CDBFDEBFD82EC92E80916C24C6
:104FD0008823D1F58091F0248330B1F1809175243C
:104FE000882391F50E944D23ED2CFC2CD701ED91E7
:104FF000FC9181819F012C5F3F4F823031F484818D
:10500000958189839A8342E00DC0AE014F5F5F4F67
:1050100088E0D9010D909D01DA010D92AD0181501A
:10502000C1F743E00281138181E060E09E012F5FC0
:105030003F4F0E94C01C882311F4C70107C0D092C3
:105040007D24C0927E2405C08D2D9C2D61EE0E9492
:1050500092272896CDBFDEBFCF91DF911F910F9190
:10506000FF90EF90DF90CF9008955F926F927F92C4
:105070008F929F92AF92BF92CF92DF92EF92FF9268
:105080000F931F93DF93CF93CDB7DEB76197CDBF5B
:10509000DEBFBC0140917524423011F0443069F408
:1050A00080916D24882349F0E0917D24F0917E2445
:1050B00020813181D901199604C0A0E0B0E020E040
:1050C00030E05091D92459830091DA241091DB24E7
:1050D0000A831B83523069F41E821F821886198648
:1050E0001A861B868091DC249091DD248C839D831D
:1050F00018C08091DC248C838091DD248D83809185
:10510000DE248E838091DF248F838091E024888742
:105110008091E12489878091E2248A878091E32429
:105120008B87909048249C86B0903A24BD868091CD
:10513000E7249091E8248E879F87188A8091E9243C
:1051400087FF02C081E0888B8091E524898B423003
:1051500019F0443009F06FC080916D24882309F460
:105160006AC0F901F084EC81FD815C806D807E80F5
:105170008F80A884C984DA84EB8440E049C011960A
:105180008D919C9112970817190709F03FC08C91D7
:105190005817E1F51B968C911B979816B9F51C963C
:1051A0008C911C97B81691F5523041F413968D915D
:1051B0009C911497E817F90749F53DC013968C9117
:1051C0001397851519F514968C9114978615F1F49B
:1051D00015968C9115978715C9F416968C9116978C
:1051E0008815A1F417968C9117978A1579F418965B
:1051F0008C9118978C1551F419968C9119978D15DF
:1052000029F41A968C911A978E15A9F04F5F519632
:105210004F1508F4B4CF59C0FD01DE01119681E1AC
:105220000D9001928150E1F7D90118968C91189751
:105230008F5F18968C939091EA248091ED248823B7
:1052400021F480916D248823E1F5DB01ED91FC913F
:1052500087E180838091CD2481839F012E5F3F4F22
:10526000AE014F5F5F4F81E1DA010D90AD01D901D1
:105270000D929D018150C1F78091EA24838B892F83
:10528000877059F4892F90E08077907024E095958D
:1052900087952A95E1F7882331F08091EB2490914E
:1052A000EC24848B958B8091ED24868B8091EE2469
:1052B0009091EF24878B908F84EF94E20E94A00955
:1052C00009C0CB010E946B0905C0E4E0EF1508F4AA
:1052D000B2CFA2CF6196CDBFDEBFCF91DF911F913C
:1052E0000F91FF90EF90DF90CF90BF90AF909F9085
:1052F0008F907F906F905F900895FB0140E0208138
:1053000031812817390709F441E0842F0895EF927D
:10531000FF920F931F93DF93CF9300D00F92CDB7DF
:10532000DEB7F82E8B011092F12480917524823023
:1053300029F4FB018081873059F406C0833041F4A1
:10534000FB018081863021F48F2D0E94792E2CC1A3
:10535000F8018081883009F419C1893098F48330CC
:1053600009F445C0843038F4813009F468C08230D3
:1053700009F018C1E4C0843009F490C0853009F008
:1053800011C1FBC08B3009F489C08C3038F48930EE
:1053900009F4ECC08A3009F005C1FFC08C3009F473
:1053A000FCC08D3009F0FEC0F80186818823B9F079
:1053B0001682FF2021F0F7E8FF1609F0F3C08DE711
:1053C00099E289839A83F801818192818B839C83FE
:1053D0008BE594E2BE016F5F7F4F0E94350AF801B2
:1053E000818192816F2D43810E944520DBC0F801AD
:1053F00086818823B1F01682FF2019F0F7E8FF16A6
:10540000B1F48DE799E289839A83F80181819281D1
:105410008B839C838BE594E2BE016F5F7F4F0E947C
:10542000350AF801818192816F2D0E94261E80919C
:10543000F024813009F0B6C00E948F24B3C0F9EE89
:10544000FF1619F091EEF91649F4F8018181928165
:105450006F2D4FEF5FEF0E94F312A4C080936C2476
:105460004091BD245091BE2460E070E094E0440F70
:10547000551F661F771F9A95D1F780E020E030E036
:1054800005E413E1EE24FF240E940706882309F4B3
:105490008BC080E090E00E94451386C0F8018181B6
:1054A00092810E946B0980916C24813009F47CC048
:1054B000F80180818430C1F4F7E8FF1699F0E0919B
:1054C0007D24F0917E240190F081E02D83E28083A1
:1054D000F18260917D2470917E2484EF94E20E9499
:1054E000A00960C082E009C089EEF81609F45AC02C
:1054F00091EEF91609F456C083E080936C24409134
:105500006E2450916F2460E070E084E0440F551FDA
:10551000661F771F8A95D1F780E020E030E007EC26
:1055200017E2EE24FF240E94070691E09093F124F5
:105530008823D1F180E090E00E94C72735C0F801B0
:105540001682FF2019F0F7E8FF1661F58DE799E262
:1055500089839A83F801818192818B839C838BE577
:1055600094E2BE016F5F7F4F0E94350AF8016181AE
:1055700072818F2D0E947D2315C0F8018181928157
:105580000E946B098EEE0E949C2F0CC0F801618175
:1055900072818F2D0E94D42E05C0F80181819281E5
:1055A0000E946B090E9472232496CDBFDEBFCF916B
:1055B000DF911F910F91FF90EF900895EF92FF926E
:1055C0000F931F931092B524809160248823C9F40F
:1055D0008091F2248823A9F488E00E94A7128830E1
:1055E00071F083E040E850E060E070E020E030E0FF
:1055F0000EED1AE2EE24FF240E94070602C00E946C
:1056000072231F910F91FF90EF900895DF92EF9218
:10561000FF920F931F93CF93DF93EC01E881F98101
:10562000E680F78000851185E114F104010511057C
:1056300039F480E090E00E94DE2AE881F98147C0D9
:1056400080916C248823F1F5809175248823D1F50D
:105650000E944D2386E00E94A712D82E81E08093FD
:10566000B52483E00E942A04882319F083E00E9475
:10567000F80484E0EE0CFF1C001F111F8A95D1F77F
:1056800083E0B801A70120E030E00EED1AE2EE243D
:10569000FF240E940706882381F0E881F98181E2D6
:1056A000808388EE818384EF94E2BE010E94A0098A
:1056B00080E090E00E94DE2A12C0E881F98186E055
:1056C000D81629F081E2808382EF818303C081E2D2
:1056D0008083118284EF94E2BE010E94A009DF91D1
:1056E000CF911F910F91FF90EF90DF900895BC0133
:1056F00084EF94E20E94A00980916A248093EA23B7
:1057000084E06AEE73E20E94232580917C248093DA
:10571000E92380E069EE73E20E942325109275244C
:105720000E9472230895CF93DF93E091BF24F091FC
:10573000C024C081D181DE01A956BF4FE983FA831D
:10574000882339F087E088838C934AE023E038E0AF
:1057500013C086E088838C9318979D0140E354E240
:1057600088E0FA010190AF01F90101929F01815097
:10577000C1F742E123E438ECFD018FEF9FEF9293F4
:1057800082933297808391831597809178248C93AC
:105790008F5F809378243E932E93FD014293EF8395
:1057A000F887CE0162E070E040E00E94E40D8823BB
:1057B00011F080E003C081E08093F124DF91CF916C
:1057C00008951F93DF93CF930F92CDB7DEB710915B
:1057D0007524123069F01330A1F0113021F58823BF
:1057E000E9F41093F1248091EB230E945D0E1BC01D
:1057F0008823A1F481E00E94932B8823A1F41983CC
:1058000008C0882359F40E94932B882361F482E016
:105810008983CE0101960E94252D05C08091E92340
:105820008F5F8093E9230F90CF91DF911F910895AF
:105830000F931F938C018091BF249091C0240E94EC
:105840006B091092BF241092C024A0917D24B091C6
:105850007E24ED91FC9111978BE18083118283E08E
:1058600082831482158216821782108684EF94E256
:10587000BD010E94A009109275240E947223C801E4
:105880000E946B0980E567EE74E20E9423258091F7
:10589000EC249091ED248F5F9F4F29F083E56CEE0F
:1058A00074E20E9423258091E9249091EA24809358
:1058B000B3249093B4248091C9249091CA2494FF76
:1058C00005C084E06EEE74E20E94232580E06BEE5A
:1058D00074E20E9423250E94E12B1F910F910895ED
:1058E000EF92FF921F93CF93DF93182F7B01FB0161
:1058F000C081D18184E06AEE73E20E942325409149
:10590000752450916D242091E92351C0423011F04B
:10591000443031F4552321F08885853008F04AC0A1
:10592000133021F48885882309F072C0322F3F5F3D
:105930008C819D81AE81BF81022E04C0B695A79552
:10594000979587950A94D2F781709070892B71F1A1
:105950002093E923113021F482E08093752404C060
:10596000133011F41093752480E069EE73E20E9405
:105970002325182F8823B1F08091BF249091C02453
:105980000E946B091092BF241092C0240E947223BF
:105990008AEE8983188684EF94E2B7010E94A009F9
:1059A00010927524812F0E94E12B49C0232F2B31A7
:1059B00008F4ACCF2093E923113039F0113018F0FE
:1059C0001330E9F527C0198237C08091BF24909128
:1059D000C0240E946B091092BF241092C0248091B1
:1059E0006D24882339F08885853010F08AEF05C052
:1059F000882311F0198202C08AEE898380E566EB64
:105A000074E20E94232580917D2490917E2415C00C
:105A10002093E9238091BF249091C0240E946B09B8
:105A20001092BF241092C0248885882311F0198217
:105A300002C08AEE89831886C7010E94772BDF9106
:105A4000CF911F91FF90EF900895CF93DF93C09176
:105A50007D24D0917E249881298180917524825063
:105A6000833020F5E92FF22F21E030E040E050E0D4
:105A70000090E92304C0220F331F441F551F0A94CE
:105A8000D2F7209530954095509584819581A681D7
:105A9000B78182239323A423B52384839583A6838C
:105AA000B7838091E423BE010E94702CDF91CF91D7
:105AB00008951092F12460917D2470917E24DB0181
:105AC000ED91FC919085DF01A90FB11D19968C9382
:105AD000199780858F5F80871A961C9221E030E0AD
