:100000000C94A7000C94AD050C94C6000C94C6008B
:100010000C94C6000C94C6000C94C6000C94C60048
:100020000C94C6000C94C6000C94C6000C94C60038
:100030000C94C6000C94C6000C94C6000C94C60028
:100040000C94D8050C94000A0C94C6000C94C600BD
:100050000C94CF090C94C6000C94C6000C94C600F6
:100060000C94C6000C94C6000C94C6000C94C600F8
:100070000C94C6000C94C6000C94C6000C94C600E8
:100080000C94C6000C94C6000C94C6000C94C600D8
:100090000C94C6000C94C6000C94C6000C94C600C8
:1000A0000C94C6000C94C6000C94C6000C94C600B8
:1000B0000C94C6000C94C6000C94C6000C94C600A8
:1000C0000C94C6000C94C6000C94C60003020201F6
:1000D000010000FFFEFDFCFBF9F7F4EF8B160000BA
:1000E0000000311900000000211C0000411CC51A4D
:1000F000421D000000000000000000001716271637
:1001000000000000000000000000000000000000EF
:1001100000000000000000000516D715F615E715D1
:1001200000000000010401010102010101010101BF
:1001300001010101040108020101010102010102A2
:100140000102010102010202010101010800112462
:100150001FBECFEFD1E2DEBFCDBF12E0A0E0B2E024
:10016000ECE6F8E400E00BBF02C007900D92A83265
:10017000B107D9F715E0A8E2B2E001C01D92A63898
:10018000B107E1F70E946F030C9434240C94000033
:100190000895EF92FF920F931F93809132029091F6
:1001A0003302029759F481E090E0909333028093F8
:1001B000320280E593EC0E94A10619C080912802CA
:1001C00090912902892B99F481E040E856E968E989
:1001D00070E020E030E00CEF10E0EE24FF240E94FD
:1001E000A50880E090E061E070E00E94540B1F9150
:1001F0000F91FF90EF900895CF92DF92EF920F93BF
:100200001F93DF93CF93CDB7DEB767970FB6F89400
:10021000DEBF0FBECDBF80E090E060E070E00E94E6
:10022000540B90912A0240912B0250912C02609124
:100230002D0270912E0200912F02E0903002109159
:10024000310220E030E08CE0C82ED12CCC0EDD1E37
:10025000F601E20FF31FD901AC5CBD4F8C91808396
:100260002F5F3F4F2830310599F79C834D835E8384
:100270006F8378870987EA861B878FEE9EEB9B83C7
:100280008A8383E089830E94E3148C8B9D8B1E8A72
:100290001F8A83E0BE016F5F7F4F4CE0960100E054
:1002A000EE24E3940E94471E67960FB6F894DEBFD3
:1002B0000FBECDBFCF91DF911F910F91EF90DF90D7
:1002C000CF9008958F929F92AF92BF92CF92DF927C
:1002D000EF920F931F93DF93CF93CDB7DEB7619764
:1002E0000FB6F894DEBF0FBECDBF8C01FB01E42E2C
:1002F00069018091320290913302892B09F044C048
:10030000D8018C91833009F0DAC011968D919C91BF
:1003100012978F5E9E4B09F0D2C08081823009F027
:10032000CEC0818192818F5E9E4B09F0C8C081E072
:100330000E949607AAE2B2E0F801339688E00190A5
:100340000D928150E1F781E090E090933302809329
:1003500032028091280290912902892B71F419822E
:1003600080E090E060E070E00E94540B82E5BE0106
:100370006F5F7F4F0E941B1EA2C082E090E09093AF
:100380002902809328029BC0809128029091290223
:10039000892B09F494C081E090E062E070E00E9453
:1003A000540B8091280290912902029751F583E025
:1003B0008F838FEE9EEB9987888780912A028A87A8
:1003C00080912B028B8780912C028C8780912D024B
:1003D0008D8780912E028E8780912F028F8780914A
:1003E0003002888B80913102898B83E0BE01695F86
:1003F0007F4F4E2D960100E0EE24E3940E94471EAD
:100400005EC0F9E0FE1508F05AC000D080E092E02E
:10041000ADB7BEB712969C938E9311970E94B11FF1
:100420008601EE240F900F9022E0A22EB12CAC0E8C
:10043000BD1E98E0892E92E0992E00D000D000D009
:10044000EDB7FEB73196ADB7BEB71296BC92AE927D
:10045000119793828282D80117968C91848315829A
:100460000E94C31F0F900F900F900F90EDB7FEB733
:10047000B282A1820E94B11FE394015010400F90FC
:100480000F90F8E0EF16C9F600D000D08EE092E0B1
:10049000ADB7BEB712969C938E931197F6019185D6
:1004A00080E0208530E0822B932B14969C938E93D2
:1004B00013970E94B11F0F900F900F900F906196AD
:1004C0000FB6F894DEBF0FBECDBFCF91DF911F9165
:1004D0000F91EF90DF90CF90BF90AF909F908F9053
:1004E0000895DF93CF930F92CDB7DEB7882399F4A9
:1004F000603FA1F4A4E3B2E0FA0188E001900D921C
:100500008150E1F784E1898380E0BE016F5F7F4F16
:100510000E941B1E03C081E00E94031E0F90CF911A
:10052000DF910895EF92FF920F931F93DF93CF9384
:1005300000D0CDB7DEB7882321F081E00E94031EF2
:100540005FC080913202909133020197C9F1662316
:1005500059F48FEE9EEB9A83898380E5BE016F5F2D
:100560007F4F0E941B1E4CC0603509F049C080912E
:10057000280290912902892B11F4198202C081E08E
:100580008983109233021092320282E5BE016F5FBE
:100590007F4F0E941B1E80E040E050E060E070E072
:1005A0000FEF1FEF2FEF30E00E94B31D81E040E816
:1005B00056E968E970E020E030E009E013E01CC093
:1005C0008091280290912902892BD1F46235C1F4DF
:1005D00080E040E050E060E070E000E010E020E00B
:1005E00030E00E94B31D81E040E856E968E970E020
:1005F00020E030E00CEF10E0EE24FF240E94A5087C
:100600000F900F90CF91DF911F910F91FF90EF907E
:100610000895209128023091290221303105E9F412
:1006200083E090E090932902809328023093330274
:100630002093320280E090E060E070E00E94540B72
:1006400080E090E060E070E00E94540B81E090E078
:1006500061E070E00E94540B089580E090E060E05B
:1006600070E00E94540B80E593EC0E94A10680E5A7
:1006700093EC0E94A10680E090E061E070E00E94AF
:10068000540B80E593EC0E94A10680E593EC0E9458
:10069000A10680E090E00E94A80B892BF1F680E093
:1006A00090E061E070E00E94540B80E090E061E037
:1006B00070E00E94540B81E090E061E070E00E94E5
:1006C000540B81E00E94031E0895882321F480EFDB
:1006D0000E94EB1D089581E00E94031E08954F9231
:1006E0005F926F927F928F929F92AF92BF92CF92C2
:1006F000DF92EF920F931F93DF93CF93CDB7DEB7C7
:100700002C970FB6F894DEBF0FBECDBF0E94C21E5D
:10071000882311F00E94E2050E94460B80E090E0E1
:1007200061E070E00E94540B80E090E061E070E0D6
:100730000E94540B81E090E061E070E00E94540B55
:10074000789482E00E949905882311F00E94E205C6
:1007500086E394E06AE174E00E94651F0E949F0BAB
:1007600080E090E00E94A80B892B09F043C081E053
:1007700090E0909329028093280281E00E94031E5A
:1007800052E0452E512C12E04FEE642E4EEB742EAB
:1007900088248A94982C32E0A32EB12CAC0EBD1E76
:1007A0006E010894C11CD11C0E94AC1E80913202C3
:1007B000909133020197C1F780912802909129020C
:1007C000892B91F380E090E00E94A80B892B61F7C0
:1007D00050923302409232021A837C826B829E8254
:1007E0008D8283E0B50141E0960100E0EE240E9495
:1007F000471EDACF1092290210922802BECFDF9353
:10080000CF930F92CDB7DEB70E94610682E0BE01A2
:100810006F5F7F4F41E00E948705813019F02FEF15
:100820003FEF03C08981282F30E0C9010F90CF919D
:10083000DF9108950F931F93DF93CF930F92CDB75E
:10084000DEB78E010F5F1F4F02C00E94610682E07B
:10085000B80141E00E9487058823B9F3898190E0BF
:100860000F90CF91DF911F910F9108950F931F93D8
:10087000DF93CF930F92CDB7DEB789838A30A9F487
:100880008DE089838E010F5F1F4F02C00E946106B9
:1008900082E0B80141E00E9490058823B9F38AE024
:1008A000898303C00E94610603C08E010F5F1F4F42
:1008B00082E0B80141E00E949005882399F380E02E
:1008C00090E00F90CF91DF911F910F910895E4E791
:1008D000F0E080818068808380E8809375008DB12E
:1008E0008F738DB90895DC0180913C02882311F04B
:1008F00080E0089590913E0280913D02981710F09B
:10090000875F01C08150891B282F681708F4262FA4
:1009100080914102820F80934102322F0DC0E92F56
:10092000F0E0EF52FB4F8C918083993011F490E00E
:1009300001C09F5F31501196332389F790933E0297
:10094000822F0895DC0190914202992311F480E0F6
:1009500008959A3058F08091400280933F028AE0D7
:10096000809342026A3020F09AE003C0961708F0A4
:10097000962F20913F0240914202392F0CC0E22F66
:10098000F0E0E552FB4F80818C932F5F2A3009F411
:1009900020E011963150332391F720933F02491BF9
:1009A00040934202892F08951F93DF93CF9300D085
:1009B00000D0CDB7DEB76CB167FD18C080914202A0
:1009C0008A30A0F48F5F8093420290914002809120
:1009D0000022E92FF0E0E552FB4F8083993019F4B3
:1009E0001092400203C09F5F90934002B091410279
:1009F000BB2309F052C083C061157105B1F4AA236D
:100A000029F020E030E040E050E0A0E0E92FF0E005
:100A1000EF52FB4F808180930022993011F490E0D7
:100A200001C09F5F1150B15048C0209343023093E2
:100A300044024093450250934602A0933C02909397
:100A40003D02B0934102AA2309F059C02115310596
:100A50004105510529F483E492E00E9480064FC0CD
:100A6000CE0101960E94800689819A81AB81BC816A
:100A70002091430230914402409145025091460238
:100A8000821B930BA40BB50B89589341A040B04037
:100A9000B0F181E080933C0232C02091430230915A
:100AA00044024091450250914602A0913C0290912F
:100AB0003D021FEF70E060747070BB2379F42093E7
:100AC0004302309344024093450250934602A09360
:100AD0003C0290933D021092410211C0112309F093
:100AE0008BCF2093430230934402409345025093AE
:100AF0004602A0933C0290933D02B09341020F90B6
:100B00000F900F900F90CF91DF911F910895823039
:100B100011F080E00895CB01642F0E94A204089593
:100B2000823011F080E00895CB01642F0E9473049D
:100B30000895823011F085E808950E94670480E0EE
:100B400008959093480280934702E9E6F0E080819F
:100B50008360808381E08CBB08951F920F920FB653
:100B60000F920BB60F9211242F933F934F935F93E5
:100B70006F937F938F939F93AF93BF93EF93FF9365
:100B8000E0914702F09148020995FF91EF91BF91E2
:100B9000AF919F918F917F916F915F914F913F9115
:100BA0002F910F900BBE0F900FBE0F901F901895B6
:100BB0001F920F920FB60F9211240F900FBE0F903D
:100BC0001F9018950E94460B8FEF9FEF0E94A10681
:100BD00080E090E062E070E00E94540B81E090E0E1
:100BE00062E070E00E94540BEFCFCF92DF92EF9261
:100BF000FF920F931F93CF93DF938C017B016A01C8
:100C0000CB01800F911F8150904110F085E816C0F4
:100C1000C0E0D0E00FC0C8010E94FA21F601EC0F3D
:100C2000FD1F6081861719F0C8010E9402220F5F24
:100C30001F4F2196CE15DF0570F380E0DF91CF9135
:100C40001F910F91FF90EF90DF90CF900895CF927A
:100C5000DF92EF92FF920F931F93CF93DF938B015D
:100C60007A0169018130910531F4862F642FA90141
:100C70000E94D00A1DC0892B11F088EE19C0CA014C
:100C8000860F971F8150904110F085E811C0C0E099
:100C9000D0E00AC0CE01800F911F0E94FA21F60118
:100CA000EC0FFD1F80832196CE15DF0598F380E0C1
:100CB000DF91CF911F910F91FF90EF90DF90CF9038
:100CC00008950E946C080E94D404089580E090E08A
:100CD00020E80FB6F89420936100809361000FBE66
:100CE0000E94BA0A0E94B10B0E94130A80E0089584
:100CF000892B11F482E401C087E480938100089578
:100D0000FC012091E5043091E604C901A0E0B0E0C7
:100D1000BC01552744278091840090918500A0E074
:100D2000B0E0482B592B6A2B7B2B8091E5049091E6
:100D3000E6042817390729F74083518362837383B8
:100D400008954FB7F8948630910518F120918400EA
:100D500030918500280F391F809184009091850083
:100D60008217930740F48091840090918500821748
:100D70009307C8F30EC080918400909185002817D6
:100D80003907C8F3809184009091850082179307FA
:100D9000C8F34FBF089520E090E0FC0153E0EE0F50
:100DA000FF1F5A95E1F7E80FF91FE951FB4F8481C6
:100DB0009581892B09F021E0822F0895DF92EF922F
:100DC000FF920F931F93DFB6F89480914B028F3FF1
:100DD00009F453C090E0FC01A3E0EE0FFF1FAA95B9
:100DE000E1F7E80FF91FE951FB4FE080F180028144
:100DF00013812091E5043091E604C801AA27BB279E
:100E00002817390751F4F0928900E092880082E0B7
:100E100086BB80916F00826003C080916F008D7FE0
:100E200080936F006091E5047091E6049B0140E0BF
:100E300050E08091840090918500A90133272227FA
:100E4000A0E0B0E0282B392B4A2B5B2B8091E504E6
:100E50009091E6046817790729F72E193F09400B8E
:100E6000510B2F5F3F4F4F4F5F4F2F5F3F4F4F4F04
:100E70005F4718F481E080934A02DFBE1F910F9113
:100E8000FF90EF90DF90089580914A02882309F443
:100E90004CC010924A0230914902332309F445C0F4
:100EA00080914C028F3F59F480914D028F3F39F46D
:100EB00080914B0280934D0280934C0212C020918E
:100EC0004B0280914D0290E0FC0143E0EE0FFF1FCA
:100ED0004A95E1F7E80FF91FE951FB4F208720936E
:100EE0004D0280914B0290E0FC0123E0EE0FFF1FCA
:100EF0002A95E1F7E80FF91FE951FB4F80858093B0
:100F00004B0280914D0290E0FC01B3E0EE0FFF1F19
:100F1000BA95E1F7E80FF91FE951FB4F8FEF808792
:100F20003150309349020E94DE060895FF920F93DC
:100F30001F93182F823010F08AE8C5C0FFB6F894CE
:100F40000E94440700914902002309F4C0C0409167
:100F50004B02242F842F302F1217F1F5212F30E070
:100F6000141781F4F90163E0EE0FFF1F6A95E1F7B2
:100F7000E20FF31FE951FB4F808580934B020E94E3
:100F8000DE0618C090E0DC0153E0AA0FBB1F5A95A3
:100F9000E1F7A80FB91FA951BB4FF90143E0EE0FCC
:100FA000FF1F4A95E1F7E20FF31FE951FB4F8085E0
:100FB00018968C93812F90E0FC0123E0EE0FFF1F29
:100FC0002A95E1F7E80FF91FE951FB4F8FEF808772
:100FD00001500093490262C0822F90E0FC01B3E00F
:100FE000EE0FFF1FBA95E1F7E80FF91FE951FB4F2C
:100FF00050853150822F09F46AC0252FADCF1217CA
:10100000D1F520914D021317B1F4121721F48FEF8F
:1010100080934D020DC0812F90E0FC01A3E0EE0F04
:10102000FF1FAA95E1F7E80FF91FE951FB4F8085F3
:1010300080934C0233C0842F90E0DC01E3E0AA0FE0
:10104000BB1FEA95E1F7A80FB91FA951BB4F812F2C
:1010500090E0FC0173E0EE0FFF1F7A95E1F7E80FD7
:10106000F91FE951FB4F808518968C931217B1F444
:1010700040934D0213C0822F90E0FC0163E0EE0F1D
:10108000FF1F6A95E1F7E80FF91FE951FB4F422F67
:1010900020852F3F09F0B3CF80E00FC0812F90E073
:1010A000FC0153E0EE0FFF1F5A95E1F7E80FF91F1F
:1010B000E951FB4F1582148281E0FFBE882311F4B1
:1010C00089E801C080E01F910F91FF900895309151
:1010D0004C02232F432FDDCF1F931FB7F8940E949C
:1010E00044071FBF1FEF25C06FB7F894822F90E011
:1010F000FC0173E0EE0FFF1F7A95E1F7E80FF91F8F
:10110000E951FB4F20854481558186819781108765
:1011100015821482178216822F3F09F43FEF6FBFAA
:101120004115510551F030934D0220934C02FA01C4
:10113000099530914D0220914C022F3FA9F6309332
:101140004D0220934C021F9108952F923F924F928F
:101150005F927F928F929F92AF92BF92CF92DF92D7
:10116000EF92FF920F931F93CF93DF93782E5A0144
:101170006B01490122242394281610F48AE8E2C066
:101180000115110509F4DBC0C82FD0E0FE0183E092
:10119000EE0FFF1F8A95E1F7EC0FFD1FE951FB4FA2
:1011A00084819581892B11F088E8CCC06091E50499
:1011B0007091E6049B0140E050E0809184009091A2
:1011C0008500A90133272227A0E0B0E0282B392B86
:1011D0004A2B5B2B8091E5049091E6046817790710
:1011E00029F78114910431F061E08616910409F029
:1011F000A6C011C0D601C50180589040A040B040A3
:1012000080589F4FAF4FBF4708F09BC0A20EB31E40
:10121000C41ED51E10C0D601C50180589040A04004
:10122000B040821B930BA40BB50B80589F4FAF4F60
:10123000BF4708F086C09FB6F8940E9444075091BB
:101240004B025F3F31F060914902452F252F30E07E
:1012500054C070924B02FE01A3E0EE0FFF1FAA954F
:10126000E1F7EC0FFD1FE951FB4F508731C02F3FD5
:1012700009F43EC0822F90E0FC0173E0EE0FFF1FE7
:101280007A95E1F7E80FF91FE951FB4F80819181D1
:10129000A281B38115012601281A390A4A0A5B0A7C
:1012A000D201C1018F5F9F4FAF4FBF4710F48085C0
:1012B00021C0FE0133E0EE0FFF1F3A95E1F7EC0F7E
:1012C000FD1FE951FB4F2087521721F470924B020A
:1012D00091E017C0842F90E0FC0123E0EE0FFF1F88
:1012E0002A95E1F7E80FF91FE951FB4F708655C0C9
:1012F0008FEF242F3F5F422F282F361708F4B7CFE8
:1013000033C0FE0183E0EE0FFF1F8A95E1F7EC0F7B
:10131000FD1FE951FB4FA082B182C282D3821583A7
:101320000483F782E682809149028F5F80934902AD
:10133000992311F00E94DE069FBE80E003C088EE74
:1013400001C08BE8DF91CF911F910F91FF90EF903B
:10135000DF90CF90BF90AF909F908F907F905F90E5
:101360004F903F902F900895842F90E0FC01B3E0C0
:10137000EE0FFF1FBA95E1F7E80FF91FE951FB4F98
:101380007086FE01A3E0EE0FFF1FAA95E1F7EC0FB8
:10139000FD1FE951FB4F8FEF808790E0B2CF1F9286
:1013A0000F920FB60F920BB60F9211242F933F930B
:1013B0004F935F936F937F938F939F93AF93BF935D
:1013C000EF93FF938091E5049091E604019690934A
:1013D000E6048093E5040E94DE06FF91EF91BF9141
:1013E000AF919F918F917F916F915F914F913F91BD
:1013F0002F910F900BBE0F900FBE0F901F9018955E
:101400001F920F920FB60F9211248F938091490271
:10141000882319F081E080934A028F910F900FBECC
:101420000F901F9018951092490210924A02109244
:10143000E6041092E5048FEF80934B0280934C02F8
:1014400080934D028093EF041092EC041092EB0411
:101450008093F8041092F5041092F4040E94C10ADB
:101460000895FC018091E5049091E60420918600A6
:1014700030918700A0E0B0E0DC019927882740E0A8
:1014800050E0822B932BA42BB52B80839183A283D6
:10149000B3830895CF92DF92EF92FF920F931F9341
:1014A000DFB6F894E090B100F090810000918000E8
:1014B0001092B1001092810010928000E0E06FEF76
:1014C0007FEF40E050E01FEFF1E0A0E2CA2EA4E27F
:1014D000B4EF16BB17BB1092B200109285001092A9
:1014E0008400F0938100F093B100C092B600B89BE5
:1014F000FECF109281001092B100209184003091B3
:1015000085002115310511F480E024C084EF2532D7
:10151000380720F4CD01821B930B03C0C90184520C
:10152000944F8617970718F4E0916600BC01255286
:10153000344F20F4809166008F5F03C08091660075
:101540008150809366004F5F5F4F4436510509F02C
:10155000C0CF81E0E092B100F09281000093800062
:10156000DFBEE09366001F910F91FF90EF90DF9038
:10157000CF900895209A219A259A229A249A239806
:10158000089582E48093810082E086BB84E086BB7C
:1015900088E086BBEFE6F0E080818160808308957B
:1015A0001F93DF93CF93CDB7DEB7C054D0400FB6B3
:1015B000F894DEBF0FBECDBF182FFE0131967E2FEF
:1015C000A3E09E01205C3F4F8E2F871B9DB3E898C0
:1015D0002D98289800000000000000000000000086
:1015E00000000000AEBD0DB407FEFDCF8F778EBDAD
:1015F0000DB407FEFDCF1EBC0DB407FEFDCF8EB5AA
:10160000289A2D9A9DBB8083E217F30711F031963B
:10161000DBCFFE01319620E030E0DE01AF5BBF4F53
:1016200081912827022E2295207F2025032E322FFC
:1016300022952F700226269532272327220F220F6C
:10164000220F2025EA17FB0759F7232B11F085E815
:1016500012C0DE011196A10FB11D9A01AD0106C0A5
:10166000FA018191AF01F90181939F01842F8A1BB7
:101670008617B0F380E0C05CDF4F0FB6F894DEBF92
:101680000FBECDBFCF91DF911F910895E4E7F0E049
:1016900080818068808380E88093750010924E027C
:1016A0008FEF809300400895019711F441E001C04D
:1016B00040E06115710531F020914E0261307105F5
:1016C000B9F40BC021E030E002C0220F331F4A956D
:1016D000E2F780914E02822B08C002C0660F771F8E
:1016E0004A95E2F7862F8095822380934E0222C08E
:1016F000822F90E0042E02C0959587950A94E2F718
:1017000080FF0CC081E090E002C0880F991F4A95CD
:10171000E2F78095822380934E020AC081E090E038
:1017200002C0880F991F4A95E2F7282B20934E029A
:1017300080914E0280958C6F809300400895E4E77D
:10174000F0E080818068808380E880937500089550
:101750002091004030E02095309521703070C90113
:10176000089580E58CBD81E08DBD8CB58C7F8CBDEE
:10177000289A08959DB3E898806C28988EBD0DB482
:1017800007FEFDCF6EBD0DB407FEFDCF289A9DBBB1
:1017900008959DB3E898806828988EBD0DB407FE23
:1017A000FDCF1EBC0DB407FEFDCF8EB5289A9DBBA4
:1017B0000895FC01289880E28EBD0DB407FEFDCF90
:1017C0001EBC613089F0DF01262F0DB407FEFDCF6E
:1017D0008EB51EBC8D9321502230B8F76250862FF3
:1017E00090E00196E80FF91F0DB407FEFDCF8EB50E
:1017F0008083289A0895FC01289880E68EBD0DB458
:1018000007FEFDCF819161500DB407FEFDCF8EBD67
:101810006623C1F70DB407FEFDCF289A0895FF9205
:101820000F931F93062FF42E0E94C90B082310E07C
:1018300002C015950795FA94E2F7802F1F910F913A
:10184000FF900895DF92EF92FF920F931F93D82E8F
:10185000F62EE42E022F0E94C90B10E002C0000FEA
:10186000111FEA94E2F76F2D6023F094F8226F299C
:101870008D2D0E94BA0B1F910F91FF90EF90DF907A
:101880000895BC01009721F087EC94E00E94760C4B
:10189000089587EC94E060E070E00E940B0D0895DD
:1018A0000F931F93CF93DF9387EC94E00E946F0C0C
:1018B000C7EBD4E00FE412E01983088387EC94E0CF
:1018C000BE010E94760C249606561F4F84E0C73C4A
:1018D000D80791F7DF91CF911F910F910895FC01E7
:1018E000118210821382128214820895CF93DF93A3
:1018F000DC01EB019FB7F89414968C911497882320
:1019000021F411967C936E9306C01296ED91FC9192
:101910001397738362831396DC93CE9312971B8283
:101920001A8214968C9114978F5F14968C939FBF94
:10193000DF91CF9108959F92AF92BF92CF92DF92A5
:10194000EF92FF920F931F93CF93DF938C015B0174
:101950006A019FB6F894DC0114968C91882319F4DF
:10196000C0E0D0E04AC0F801C081D18141155105E5
:10197000B1F07E0111C0D60112966D917C91139742
:10198000ED91FC91888199810995882359F47E0114
:101990008A819B819C01E901209769F72EC02097DD
:1019A00061F17E01AB2849F5F801808191812A819E
:1019B0003B81C817D90719F43183208305C0D701AB
:1019C00013963C932E931297F80182819381C81746
:1019D000D90711F4F382E282D80114968C911497FE
:1019E000815014968C9314978D919C911197892B0B
:1019F00021F413961C921E9212979FBECE01DF9186
:101A0000CF911F910F91FF90EF90DF90CF90BF90FB
:101A1000AF909F900895AB0160E070E00E949B0C36
:101A20000895AB0161E070E00E949B0C0895CF9394
:101A3000DF93EC010BC0CE0160E070E00E940B0D63
:101A4000009711F41C8205C00E94410C8C818823F0
:101A500091F7DF91CF9108950F931F93DF93CF9369
:101A6000CDB7DEB728970FB6F894DEBF0FBECDBF57
:101A700081E06FE140E00E940F0C883039F58FE083
:101A80000E94C90B82E069E00E94BA0BCE01019668
:101A90000E9480068E010B5F1F4F8FE00E94C90BD2
:101AA00080FD14C0C8010E9480068D819E81AF8197
:101AB000B88529813A814B815C81821B930BA40BF1
:101AC000B50B8D3D9105A105B10538F328960FB6EC
:101AD000F894DEBF0FBECDBFCF91DF911F910F9164
:101AE00008950F931F93082F809119058F3081F46B
:101AF0002C9881E06FE140E00E940F0C8830C9F71C
:101B0000083011F0033021F488E08093190558C1A2
:101B100081E06FE140E00E940F0C809319050830CE
:101B200009F43DC0093050F4043009F472C00630A5
:101B300009F47CC0033009F03AC141C00F3069F0AC
:101B4000003120F4093009F032C149C0063109F4EE
:101B500096C0093109F02BC1DEC082E063E00E942B
:101B6000BA0B0E944C1F682F192F8DE20E94BA0BEE
:101B70008EE267E040E0212F0E94220C000000006E
:101B80000000000000000000000000002C9A83E22A
:101B900090E00E94A106009319058FE011C18830E2
:101BA00009F405C182E068E00E94BA0B0000000061
:101BB000000000000000000000000000F8C08830B5
:101BC00009F4F5C082E063E00E94BA0B0000000057
:101BD000000000000000000000000000E8C08830A5
:101BE000E9F0893020F4863009F0E1C005C0863183
:101BF00019F0893109F0DBC082E069E00E94BA0B7C
:101C000000000000000000000000000000000000D4
:101C1000CEC0883019F0893021F4C9C00E942C0D43
:101C2000C6C082E064E00E94BA0BC1C0893059F09E
:101C30008A3020F4883009F0BAC012C0863119F019
:101C4000893109F0B4C082E066E00E94BA0B00005E
:101C50000000000000000000000000000000A7C01D
:101C60000E942C0D82E066E00E94BA0B000000008A
:101C700000000000000000000000000098C0883054
:101C8000C1F0893020F4863009F091C021C089303C
:101C900019F0893109F08BC082E066E10E94BA0B2D
:101CA0000000000000000000000000000000000034
:101CB0007EC00E942C0D82E066E10E94BA0B0000FB
:101CC00000000000000000000000000000006FC0E5
:101CD00082E069E00E94BA0B0000000000000000F2
:101CE000000000000000000081E06FE140E00E9481
:101CF0000F0C80931905893009F062C082E066E11B
:101D00000E94BA0B0000000000000000000000006C
:101D1000000000004CC0883009F43BC0893020F43A
:101D2000863009F044C013C0893021F0863109F0B3
:101D30003EC00DC082E069E10E94BA0B00000000C5
:101D400000000000000000000000000030C082E041
:101D500069E00E94BA0B00000000000000000000D3
:101D600000000000000081E06FE140E00E940F0CE5
:101D700080931905893021F582E069E10E94BA0B50
:101D80000000000000000000000000000000000053
:101D90000EC00E942C0D82E069E10E94BA0B000087
:101DA000000000000000000000000000000081E0D2
:101DB0006FE140E00E940F0C809319058F31B9F359
:101DC0001F910F91089580910A058823E1F0809179
:101DD00022058823C1F48091CC049091CD04892BF5
:101DE00039F48AE90E94490C9093CD048093CC0485
:101DF0008091CC049091CD04892B29F010920A0592
:101E000086E10E94710D80910F05882351F08BE0CF
:101E100095E060E070E00E940B0D009711F00E94C9
:101E2000180F80912205823011F40E944D10089500
:101E3000EF92FF920F931F93CF93DF937C01DC010E
:101E40000D911C91D8011696ED91FC911797808108
:101E500080931B05C82FD0E02196CE0FDF1F9881FD
:101E600029812F3110F02EE103C0222309F421E053
:101E700092959695969593708FEF989FC001112437
:101E800030E0FC01E29FC001E39F900DF29F900DB6
:101E900011246AE570E00E94CA1E6F3F710511F0BF
:101EA00008F06FEF6883D8011296FC92EE921197BA
:101EB000C8010E947F16DF91CF911F910F91FF9073
:101EC000EF900895DF92EF92FF920F931F93DF93AD
:101ED000CF930F92CDB7DEB7E091CC04F091CD0453
:101EE0003097C1F1E080F18087E00E94C90BD82EC5
:101EF000CE01019661E00E94D90B698167FD2AC07D
:101F00006D5F0AE910E0061B11090E0D1F1D6150DF
:101F1000C8010E94D90BF701178306838981080F36
:101F2000111DF801D2826091CC047091CD048BE038
:101F300095E00E94760C8AE90E94490C9093CD04AA
:101F40008093CC04892B31F489E00E94710D81E0EB
:101F500080930A050F90CF91DF911F910F91FF9011
:101F6000EF90DF900895882311F087E005C082E0AC
:101F700060EE45E00E940F0C8093CE0482E08093D7
:101F800022058091CC049091CD04892B39F489E00D
:101F90000E94710D81E080930A05089586E10E94F8
:101FA000710D0895EF92FF921F93CF93DF937C0101
:101FB000EB01142F442331F08CE260EF44E02091D8
:101FC000180504C08CE260EF44E020E00E94220C7F
:101FD000C230D10598F4112361F08CE26EE041E04B
:101FE000209110050E94220C8FE260E00E94BA0B43
:101FF00016C08CE26EE041E027E00FC0609114054E
:102000006295607F80911705682B8FE20E94BA0B62
:102010008CE26EE041E0209110050E94220C89E1E3
:102020000E94710D8931D9F7E898219759F4809170
:102030001B05833118F080E492E002C080E890E054
:102040000E94A1062C9A2C98F70160816150C7016B
:102050000E94FB0B81E080932205E89ADF91CF91EB
:102060001F91FF90EF900895FC0180912205882335
:1020700011F086E80895F0931605E0931505868122
:10208000978190931D0580931C05009711F488EEAD
:1020900008950E94D20F80E0089510922205809149
:1020A000CE048330B1F0843028F4882331F08130BD
:1020B000E1F409C08530C9F412C060911505709132
:1020C000160580E017C0609115057091160587E828
:1020D00011C0609115057091160581EE0BC06091DD
:1020E00015057091160589EE05C060911505709172
:1020F000160585E80E940A1D0895282F85FD03C056
:10210000982F9F7304C0982F91959F719195ECEC37
:10211000F0E08491891734F03F968491981714F079
:10212000822F0CC0803E3CF080323CF487FF06C01A
:102130008F71806203C080E201C08FE180680895E2
:1021400084E08093100523E0209317058FEF9FEF25
:1021500090930605809305059093090580930805E3
:102160008BE08093120580E098EFAFEFB7E08093AB
:102170001E0590931F05A0932005B0932105109292
:1021800004058AE091E090930305809302058AE0BC
:1021900080931A0582E08093110585E080931405F1
:1021A0002093180583E80E947D108093F90481E054
:1021B0008093070510921305089585FD03C0982F9D
:1021C0009F7304C0982F91959F719195ECECF0E06E
:1021D00080E02491921724F029173CF4815008954F
:1021E0008F5F31968031A9F780E008951F93CF93D8
:1021F000DF9382E2609105050E94BA0B60910605AB
:1022000083E20E94BA0BCAEFD4E014E2812F6991F5
:102210000E94BA0B1F5F1C32C9F780E2609108056B
:102220000E94BA0B6091090581E20E94BA0B88E016
:1022300060E645E0209107050E94220C8FE26FE0E6
:1022400040E0209117050E94220C8EE268E043E0F6
:10225000209113050E94220C8FE260EF44E0209150
:1022600014050E94220C88E06FE140E020911205E5
:102270000E94220C8091F9040E94DD10282F85E035
:102280006FE040E00E94220CDF91CF911F910895F2
:102290001F93CF93DF93EB018E3431F0893541F4F6
:1022A000888180931805D4C0888180931005D0C0A0
:1022B000209119052F3011F481E8CBC08B3009F43F
:1022C000BAC08C3070F4823009F47DC0833018F4C9
:1022D0008823C9F115C0833009F483C0843081F4A8
:1022E00061C0833509F1843528F48F3459F0803585
:1022F00039F40DC0873509F45FC0803F09F478C018
:1023000084EFA7C02881209317058FE267C06881FA
:102310008981609305058093060582E20E94BA0BCD
:102320006091060583E20CC068818981609308058D
:102330008093090580E20E94BA0B6091090581E251
:102340000E94BA0B85C080912205882309F07CC0C9
:1023500080E098EFAFEFB7E0088004C0B695A7958E
:10236000979587950A94D2F781709070892B09F41C
:102370006DC0283011F418E006C088E00E94710D8D
:102380008830D9F716E128812093120588E06FE1A3
:1023900040E00E94220C183009F45AC086E10E94E5
:1023A000710D56C080912205882309F04DC08881A7
:1023B000882309F44DC04AC02881209314058FE278
:1023C00060EF44E03EC088818093F9040E947D1054
:1023D0008093F9040E94DD10282F85E06FE040E033
:1023E00030C028812093070588E060E645E029C0D9
:1023F00088818093FA0489818093FB048A81809389
:10240000FC048B818093FD048C818093FE048D817C
:102410008093FF048E81809300058F818093010556
:10242000CAEFD4E014E2812F69910E94BA0B1F5FBA
:102430001C32C9F70DC02881209313058EE268E095
:1024400043E00E94220C04C086E803C088EE01C06D
:1024500080E0DF91CF911F910895DF92EF92FF927C
:102460000F931F93DF93CF930F92CDB7DEB7D82E84
:1024700081E090E065E170E041E050E09E012F5F77
:102480003F4F0E9427062C988CE791E00E94A106FE
:102490002D9881E090E00E94A1062D9A10E081E045
:1024A0006FE140E00E940F0C1F5F1B3F11F485E8B5
:1024B00049C08830A1F7809319052981222309F4A6
:1024C0004AC082E16FE040E00E94220C44C086E0F6
:1024D00060E645E00E940F0C9801220F331F220F87
:1024E000331F082F10E0022B132BF39488E0F8160B
:1024F00071F783E00E94710D8FE00E94C90B81E0AB
:102500008CBBEDBAC8010E94511F0E944C1F682F5E
:10251000192F8DE20E94BA0B8EE267E040E0212F76
:102520000E94220C80E00E9405140E94F213DD201C
:1025300011F00E94A0100E94F61010922205109235
:102540000A0580E00F90CF91DF911F910F91FF90CE
:10255000EF90DF90089583E060E344E020E00E9484
:10256000220C83E068E043E020E00E94220C83E03C
:1025700067E040E021E00E94220C8EE260E245E04C
:1025800021E00E94220C8CE060E847E021E00E94FC
:10259000220C84E062E041E021E00E94220C8EE007
:1025A00068E00E94BA0B86E00E94710DEDB2E898D7
:1025B00000E010E0FF248BCF1F93182F0E942D12F4
:1025C000882361F085E819C08BE095E060E070E059
:1025D0000E940B0D009711F00E94410C80910F0595
:1025E000882391F7812F0E94551480EE93E10E9479
:1025F000A10581E08CBBE89A80E01F9108950F93BC
:102600001F93CF93DF930E946606882309F0D2C000
:102610002D9A2C988AE491E00E94A1062D9881E0E1
:1026200090E00E94A1062D9A10E004C01F5F1F3F9A
:1026300009F4C0C08DE10E94C90B8230B9F78CE16A
:102640000E94C90B833091F782E068E00E94BA0BC8
:1026500010E081E06FE140E00E940F0C115009F49E
:10266000A9C08830B1F78093190581E090E060E05F
:1026700070E048E050E02AEF34E00E94270609C0ED
:10268000CAEFD4E00E944C1F899385E0C230D8077E
:10269000C9F78091FA043091FB044091FC046091E9
:1026A000FD047091FE04F091FF04B091000550917B
:1026B0000105082F015091E0081708F090E0832FE2
:1026C000815021E0831708F020E0192F180F91E0C6
:1026D000181708F090E0292B842F815031E08417DF
:1026E00008F030E0A22FA80F91E0A81708F090E0C2
:1026F000392B862F815021E0861708F020E0E32F48
:10270000E80F91E0E81708F090E0292B872F81501F
:1027100031E0871708F030E0622F680F91E068170A
:1027200008F090E0392B8F2F815021E08F1708F0AF
:1027300020E0432F480F91E0481708F090E0292B44
:102740008B2F815091E08B1708F090E0322F380FDB
:1027500021E0381708F020E0922B5195591779F4B1
:102760003F3F69F44F3F59F46F3F49F4EF3F39F46D
:10277000AF3F29F41F3F19F40E3F08F081CF81E0ED
:102780000E942D128823B1F480EE93E10E94A105EE
:10279000E89A0E94500C8AE90E94490C9093CD045B
:1027A0008093CC048BE095E00E946F0C0E94611432
:1027B00080E001C085E8DF91CF911F910F910895CE
:1027C0008FE00E94C90B282F83FF0BC08091220548
:1027D000813029F426FF80E00E94B30F08950E9403
:1027E000620F0895809119058F3011F082E80895E5
:1027F00088E00E94710D883011F085E8089581E02D
:1028000090E00E94780680E00895882311F088EE19
:102810000895809119058F3011F481E80895809111
:102820002205882391F410920A0588E00E94710D18
:102830008830D9F780E090E00E9478068FE00E940F
:10284000710D8F3011F480E0089586E80895982F77
:1028500080912205882311F086E80895983039F494
:1028600088E00E94710D10920A0588E00895809119
:10287000CC049091CD04892B29F086E10E94710D42
:1028800086E0089581E080930A0586E00895FB01C3
:10289000882311F084EF08958091CF04808380E035
:1028A000089580E00E94DC120895882311F01092B0
:1028B000CF0485E16FE040E02091CF040E94220C1C
:1028C00008951092CF0485E16FE040E020E00E947F
:1028D000220C80E00895FB01882311F084EF089515
:1028E00080818093CF04992787FD9095865A9F4FCA
:1028F00063E070E00E94DE1E262F2F5F85E16FE00F
:1029000040E00E94220C80E00895EF92FF921F9316
:10291000DF93CF93CDB7DEB7CF57D0400FB6F89443
:10292000DEBF0FBECDBF182F84E060E245E020E09F
:102930000E94220C82E068E00E94BA0B86E36FE0FE
:102940000E94BA0B8CE063E040E023E00E94220C7E
:102950008AE067EA0E94BA0B112339F481E0898387
:102960001A82CE01019662E012C08FE7898311E0DE
:102970007E010894E11CF11C0E944C1FF701E10F3D
:10298000F11D80831F5F1038B9F7C70160E80E940E
:10299000FB0B8CE164E50E94BA0B8CE166E40E94BB
:1029A000BA0B89E00E94710D2C9A2C98C158DF4F08
:1029B0000FB6F894DEBF0FBECDBFCF91DF911F9150
:1029C000FF90EF900895FF920F931F93CF93DF93A3
:1029D000E898F09019058FE0F81619F488E00E9445
:1029E000710D81E160E144E020E00E94220C81E170
:1029F0006FE040E02FE00E94220C81E160E245E0C0
:102A00000E940F0C882389F481E16FE040E020E010
:102A10000E94220C81E160E245E00E940F0C8823B5
:102A200009F052C0C0E0D0E03FC081E160E144E085
:102A300021E00E94220C81E16FE040E02FE00E9443
:102A4000220C81E160E245E00E940F0C813011F020
:102A500001E03BC0CFEFDFEF27C081E16FE040E056
:102A6000212F0E94220C81E160E245E00E940F0CC0
:102A7000882339F4112311F420E007C0212F2150BD
:102A800004C01F5F103149F72FE0002339F08BE4B9
:102A9000289FE0011124CA50D64F06C082E3289F28
:102AA000E0011124CC55D94F8FE00E94C90B8FE073
:102AB000F81611F40E94710DE89ACE01DF91CF91C2
:102AC0001F910F91FF90089500E010E0C6CF1F9373
:102AD00086E00E94710D8630D9F785E160E847E015
:102AE00021E00E94220C87E06FEF0E94BA0B80E881
:102AF00090E00E94A1068FE00E94C90B84FFFBCFEB
:102B000087E00E94C90B182F8FE00E94C90B85E156
:102B100060E847E020E00E94220C88E00E94710DEE
:102B2000193310F06FEF08C08FEF189FC001112408
:102B300068E370E00E94CA1E862F1F9108951F93BC
:102B400088E00E94710D8830D9F785E160E847E0A0
:102B500021E00E94220C86E00E94710D8630D9F798
:102B600088E060E847E021E00E94220C80E990E0E4
:102B70000E94A10681E060E847E00E940F0C8130CE
:102B8000C9F788E00E94710D81E060E446E00E9490
:102B90000F0C813011F010E001C014E085E160E815
:102BA00047E020E00E94220C812F1F9108950F938F
:102BB0001F938C01DC01ED91FC91818162810E9467
:102BC0009202C8010E94410C1F910F9108950F932A
:102BD0001F938C01DC01ED91FC9181810E94C80062
:102BE000C8010E94410C1F910F9108950F931F93EC
:102BF0008C01DC01ED91FC9181810E946503C8018B
:102C00000E94410C1F910F9108950F931F938C0107
:102C1000DC01ED91FC91818162813396AF010E94CC
:102C20007102C8010E94410C1F910F9108950F93EA
:102C30001F938C01DC01ED91FC91818162810E94E6
:102C4000C900C8010E94410C1F910F910895CF92B5
:102C5000DF92EF920F93DF93CF93CDB7DEB76697F6
:102C60000FB6F894DEBF0FBECDBF6C01DC01ED9155
:102C7000FC9181818983828193819B838A839E01D8
:102C80002C5F3F4FAF014C5F5F4F88E0DA010D9042
:102C9000AD01D9010D929D018150C1F784858C87CA
:102CA000858596859E878D879E01215F3F4FAF0169
:102CB000415F5F4F88E0DA010D90AD01D9010D92BF
:102CC0009D018150C1F7228D338DCE010196BE0149
:102CD000645F7F4F418D0789E08C0E946201C601CD
:102CE0000E94410C66960FB6F894DEBF0FBECDBFB2
:102CF000CF91DF910F91EF90DF90CF900895FC017D
:102D00001082618172816115710521F08EE395E079
:102D10000E94760C08950F931F93CF93DF93EC01DD
:102D2000E881F981A681B7817C9170935005FD01FE
:102D3000E70FF11D81818093690511964D915C919A
:102D4000129750934E0540934D0513968C9113970F
:102D5000809351058D010C5F1F4F652F629566951D
:102D600066956370352F36953695337019F4F801F2
:102D700020E049C014968D919C911597909354052D
:102D800080935305FD0136963230E1F410925505DB
:102D90001092560510925705109258051092590539
:102DA00010925A0510925B0510925C0516968D9153
:102DB0009C9117979093560580935505FD01389681
:102DC00024E021C0333011F022E01DC016968C9112
:102DD0001697809355058181809356058281809353
:102DE0005705838180935805848180935905858197
:102DF00080935A05868180935B05878180935C056B
:102E0000FD013E962AE0662309F447C046FD08C04E
:102E10008191919190935F0580935E052E5F08C02C
:102E2000809153059091540590935F0580935E05C2
:102E30006230C1F410926005109261051092620533
:102E40001092630510926405109265051092660554
:102E50001092670580819181909361058093600550
:102E60002E5F1BC06330C9F480818093600581812F
:102E700080936105828180936205838180936305DD
:102E80008481809364058581809365058681809324
:102E90006605878180936705285F972F9550921B61
:102EA00090936A0560935D053093520543FDC3C05E
:102EB000D801A20FB11D842F877080934F058330F6
:102EC00021F48C918093680563C0813009F451C06E
:102ED000813020F0833009F0AEC05AC08D919C91B2
:102EE000119790936C0580936B0512968C911297B5
:102EF00080936D05877011F493E002C0982F9C5F5A
:102F0000FD01E90FF11D808180936E05292F2F5F50
:102F1000382F377090E08077907044E095958795D2
:102F20004A95E1F7482F332311F4882389F0CD0126
:102F3000820F911D9093700580936F05332311F0DC
:102F4000330F230F442321F0440F440F440F240F69
:102F500080916A05281750F4821B80937105A20F97
:102F6000B11DB0937305A093720569C010927105ED
:102F700066C0992351F0963718F086E780936A056A
:102F8000B0936C05A0936B055AC010926A0557C0A8
:102F900080916805873009F452C0883021F0843070
:102FA00009F049C04CC011968D919C911297909355
:102FB0006C0580936B0513968D919C91149790935B
:102FC0006E0580936D0515968C91159780936F050E
:102FD00016968D919C91179790937105809370052B
:102FE00054FF2DC018968C918093720528C0809153
:102FF0004F05833061F480916805843011F087308B
:1030000031F48EE395E0BE010E94760C1DC08091E4
:103010002F05882381F480913605882361F48091FF
:103020007405882341F480914F05813021F4CE014D
:103030000E94681809C0CE010E94410C05C0809111
:1030400075058823A1F6E3CFDF91CF911F910F91F2
:103050000895DC01ED91FC911197E081E43278F460
:10306000F0E0EE0FFF1FE452FF4F25913491211540
:10307000310519F0F901099508950E94410C089550
:103080001F9380917505882381F4809135058823ED
:1030900061F081E395E060E070E00E940B0D009725
:1030A00021F00E94291811E001C010E08091420532
:1030B000882359F08EE395E060E070E00E940B0DEC
:1030C000009719F00E94291811E0812F1F9108958F
:1030D000CF93DF93AC01FC019081218180916A053F
:1030E000882309F452C0E92FF22F80915105808F77
:1030F00080915D0581838250823080F480915E05ED
:1031000090915F0593838283EF012496A0E6B5E05A
:1031100088E00D9009928150E1F70AC01382128273
:1031200014821582168217821086118612861386E3
:10313000208D80912305281761F5948180912605C3
:10314000981739F5958180912705981711F5968183
:10315000809128059817E9F497818091290598179F
:10316000C1F4908580912A05981799F491858091F2
:103170002B05981771F4928580912C05981749F4C6
:10318000938580912D05981721F4CA010E94410C66
:1031900055C02093230584818093260585818093E3
:1031A000270586818093280587818093290580855E
:1031B00080932A05818580932B05828580932C0539
:1031C000838580932D052091520524871786108AC8
:1031D000118A128A138A148A158A168A80915305D5
:1031E0009091540596878587233051F4EF012F96EF
:1031F000A5E5B5E088E00D9009928150E1F70BC09C
:10320000223039F48091550590915605908B87872F
:1032100002C01686158680916905878B80916A05A4
:10322000818F80916B0590916C05938F828F81E1E6
:10323000808387E795E0BA010E94760C0E94661AA7
:10324000DF91CF910895DC01ED91FC91119780E120
:1032500080834183628387E795E0BD010E94760CFD
:103260000895CF92DF92EF92FF920F931F93DF9317
:10327000CF93CDB7DEB762970FB6F894DEBF0FBE1F
:10328000CDBF8C01DE011196FC01808191819C01F2
:10329000F90182E101900D928150E1F78F8582FD65
:1032A00011C080912F05882321F480913605882351
:1032B00049F09E85D801ED91FC9180E18083918356
:1032C00081EEB5C0F801C080D1808DE0D6018C932D
:1032D0008E8513968C93888945E0F42EF80EE8E9E4
:1032E000F0E0E81BF109EC0DFD1D9A81923051F4DC
:1032F00037E0F32EF80E809108059091090592931E
:10330000829312C0933081F438972DE0F22EF80E9C
:103310009F014AEF54E088E0DA010D90AD01D90138
:103320000D929D018150C1F7209105053091060550
:103330008C819D812817390749F48A81882331F0CF
:103340008B81882319F040E450E009C08A818823EA
:1033500021F0B2E0FB0E3293229340E050E08B81EB
:10336000882311F1823039F46F2D6E5F8E819F8139
:103370009293829312C038976F2D685F9F0196E0F9
:10338000E92EF12CEC0EFD1E88E0D7010D907D0199
:10339000D9010D929D018150C1F782E0F82EF60E01
:1033A0008C819D81929382938091380582938F5F67
:1033B00080933805BA0161608F8580FF02C0BA0131
:1033C00061628889873608F070618B81382F330FEE
:1033D000330F20E04A81942F9295990F990F907C9A
:1033E00080E0282B392B262B372B329322933296D1
:1033F000F7FC15C03397F082D6011796FC93EE9335
:1034000016970E94411AF60112830183C60162E0F9
:1034100070E041E00E943410882381F013C09E8543
:10342000D801ED91FC9180E18083918385EE8283C8
:1034300087E795E0B8010E94760C14C081E0809384
:10344000750510C09E85D801ED91FC9180E18083C7
:10345000918381EE828387E795E0B8010E94760C24
:103460000E94661A62960FB6F894DEBF0FBECDBFFB
:10347000CF91DF911F910F91FF90EF90DF90CF9050
:10348000089580917605813051F40E94F2138538B9
:1034900031F081E090E00E94780610927605089560
:1034A00080917605882389F480E090E00E94780678
:1034B00080E00E940514882321F481E08093760542
:1034C000089581E090E00E94780608958091240597
:1034D000882331F480913D05882311F40E94501A0D
:1034E00008951F93182F109275051092740510926D
:1034F0007605109236051092370510922F0510921E
:1035000023058FEF80932605809327058093280558
:103510008093290580932A0580932B0580932C05A1
:1035200080932D0510923D0588E00E9427141123F9
:1035300051F180E098E79093440580934305109201
:103540002E0581E08093300586E08093250510925A
:1035500045051092460510924705109248051092B5
:10356000490510924A0510924B0510924C058FEFB9
:103570009FEF90933C0580933B050E944C1F8093E6
:103580003805109224051F9108950F931F93CF9330
:10359000DF93EC01088119810E94411AF801018131
:1035A00080E090E00E94780680E0011181E00E94B6
:1035B000DC12182F81E090E00E947806802F0E9494
:1035C000711A0E94661A81E395E00E94170D8EE33E
:1035D00095E00E94170D87E795E00E94170DE8819E
:1035E000F981118380E2808387E795E0BE010E9424
:1035F000760CDF91CF911F910F910895DF93CF93B8
:1036000000D000D0CDB7DEB70E94411A8FEF9FEFF8
:103610009A8389839C838B8383E5BE016F5F7F4F91
:103620000E94571B80E5BE016D5F7F4F0E94571BB4
:1036300081E00E94711A0E94661A0F900F900F90FD
:103640000F90CF91DF9108950E94FF12882399F483
:103650000E944A0A882379F081E00E94711A0E9430
:10366000661A81E395E00E946F0C8EE395E00E945C
:103670006F0C80E0089585E80895E82F883030F4D5
:10368000E82FF0E0EC5DFE4F849108958054803285
:1036900028F4F0E0E451FF4F84910895E03F10F4E6
:1036A00080E00895F0E0E45AFF4F849108951F935D
:1036B000CF93DF93182FEB0180917605813051F481
:1036C0000E94411A812FBE010E944811182F0E94AA
:1036D000661A04C0812F0E944811182F812FDF9194
:1036E000CF911F910895FF920F931F93CF93DF9374
:1036F000182FEB01F42E8C3409F46AC08D34F0F4E9
:10370000833409F479C0843460F4853038F482302D
:1037100008F072C0882309F46FC02AC0823441F5D2
:1037200029C0873409F468C0883418F4843401F55A
:103730002AC08A3469F18B34D9F443C0853558F4F2
:10374000833508F059C08E3498F0813508F454C0A0
:10375000823571F441C0893509F44EC08A3518F4B8
:10376000873531F449C08A3539F0803F09F444C0C7
:1037700004EF55C008EE53C08881998190934405A9
:103780008093430503C088818093250500E047C0EE
:103790008881809345058981809346058A8180933D
:1037A00047058B81809348058C81809349058D81E5
:1037B00080934A058E8180934B058F8180934C05C1
:1037C000E5CF8881998190933C0580933B05DECFBE
:1037D000888180933805DACF6881611161E0609358
:1037E0002405662331F00E94411A86E00E942714C6
:1037F000CDCF0E94661ACACF812FBE010E94481108
:10380000082F813861F40E94F213812FBE010E94BB
:103810004811082F882319F481E08093D004FF20F9
:1038200049F08091D004882329F080E00E9405149B
:103830001092D004802FDF91CF911F910F91FF90B4
:103840000895EF92FF920F931F937C01FC0100817A
:103850001181B8016E5F7F4FF801818141E00E94C4
:10386000731BF801918192839FE19083818387E7A5
:1038700095E0B7010E94760C1F910F91FF90EF9099
:103880000895CF93DF93AC01DC01ED91FC919F0192
:103890002D5F3F4F81818B3409F472C08C3410F559
:1038A000843009F453C0853060F4813009F491C04C
:1038B000813008F48BC0823009F498C08330B1F5B0
:1038C00098C0873009F44DC0883030F4853009F451
:1038D00040C0863059F542C0823409F445C08A346C
:1038E00029F545C0833509F461C0843588F48F34E7
:1038F00009F451C0803530F48C3409F446C08E345C
:10390000A9F446C0803509F449C0823579F44BC02A
:103910008A35A1F08B3528F4873551F0893531F49B
:103920000AC08D3581F0803F09F447C094EF65C02F
:103930008091140560C0809118055DC08091430599
:103940009091440537C080912E0555C080910405A3
:1039500052C080910205909103052CC080911A05F8
:103960004AC08091110547C08091300544C0E901EB
:10397000A5E4B5E088E00D9009928150E1F73CC0E4
:1039800080913B0590913C0515C08091380533C06E
:103990008091100530C0809117052DC080910505DC
:1039A0009091060507C08091240525C080910805E7
:1039B00090910905948383831FC0E901AAEFB4E0C5
:1039C00088E00D9009928150E1F716C080911205B0
:1039D00012C080911E0590911F05A0912005B09105
:1039E000210583839483A583B68306C08091F9045F
:1039F00002C080910705838390E0818182838EE1FC
:103A00008083918387E795E0BA010E94760CDF916D
:103A1000CF910895282FFB011092750580818D307C
:103A200031F481819281622F43810E9423190E9487
:103A3000661A0895EF92FF920F931F9310923D051F
:103A4000809124058823C9F4809176058823A9F400
:103A500088E00E942714883071F080E040E850E050
:103A600060E070E020E030E00AE11DE1EE24FF2498
:103A70000E94A50802C00E94661A1F910F91FF9034
:103A8000EF900895DF92EF92FF920F931F93CF93E1
:103A9000DF93EC01E881F981E680F78000851185EC
:103AA000E114F1040105110539F480E090E00E9471
:103AB0001A1DE881F98147C080912F058823F1F50F
:103AC000809136058823D1F50E94411A86E00E9434
:103AD0002714D82E81E080933D0580E00E94CB061C
:103AE000882319F080E00E94960784E0EE0CFF1C0A
:103AF000001F111F8A95D1F780E0B801A70120E0CF
:103B000030E00AE11DE1EE24FF240E94A50888238D
:103B100081F0E881F98181E2808388EE818387E703
:103B200095E0BE010E94760C80E090E00E941A1D94
:103B300012C0E881F98186E0D81629F081E28083FD
:103B400082EF818303C081E28083118287E795E061
:103B5000BE010E94760CDF91CF911F910F91FF90D3
:103B6000EF90DF9008957F928F929F92AF92BF92D5
:103B7000CF92DF92EF92FF920F931F93782E6A01FC
:103B80007B01480159018AE90E94490CDC01009738
:103B900011F480E014C0ED91FC9111978AE08083CC
:103BA0007182C282D382E482F58286829782A08665
:103BB000B18681E395E0BD010E94760C81E01F9102
:103BC0000F91FF90EF90DF90CF90BF90AF909F90BC
:103BD0008F907F9008951F93182F8AE90E94490CB7
:103BE000DC01009711F480E00CC0ED91FC9111977D
:103BF00088E08083118381E395E0BD010E94760C0B
:103C000081E01F9108951F93182F8AE90E94490CA3
:103C1000DC01009711F480E00CC0ED91FC9111974C
:103C200089E08083118381E395E0BD010E94760CD9
:103C300081E01F910895FF920F931F93CF93DF931D
:103C4000182F062FF72E8AE90E94490CEC010097E5
:103C500011F480E016C0812F0E943D1B482FE8819F
:103C6000F98186E0808311833296CF01602F7F2D0A
:103C700050E00E945C1F81E395E0BE010E94760C3B
:103C800081E0DF91CF911F910F91FF900895AF9246
:103C9000BF92CF92DF92EF92FF920F931F93CF9339
:103CA000DF93D82EEB01F42EB22EA32EC02E86E782
:103CB000841708F445C08AE90E94490C8C010097DA
:103CC00009F43EC0DC01ED91FC9183E08083D18258
:103CD0002881228389819A8194838383CF010596E9
:103CE000AE014D5F5F4F223069F415821682178254
:103CF000108611861286138614868B819C8196838A
:103D0000858307C0EC01DA0188E00D9009928150AB
:103D1000E1F7C586E686F78628E930E02F193109F4
:103D20002E0F3F1FC9016B2D7A2D4F2D50E00E94A1
:103D30005C1F81E395E0B8010E94760C81E001C030
:103D400080E0DF91CF911F910F91FF90EF90DF9076
:103D5000CF90BF90AF9008951F930E944018182FE6
:103D600087E795E060E070E00E940B0D009719F086
:103D70000E94291811E00E94E30E0E946106812F23
:103D80001F91089587E795E00E946F0C0E94241B05
:103D900008950895AA1BBB1B51E107C0AA1FBB1FB2
:103DA000A617B70710F0A61BB70B881F991F5A95C7
:103DB000A9F780959095BC01CD01089597FB092E38
:103DC00007260AD077FD04D0E5DF06D000201AF4DC
:103DD000709561957F4F0895F6F7909581959F4F67
:103DE0000895AF92BF92CF92DF92EF92FF920F931E
:103DF0001F93CF93DF93EC01A880B980CA80DB804A
:103E0000A114B104C104D10441F484E2A82E89EDC7
:103E1000B82E8BE5C82E87E0D82EC601B5012DE15E
:103E200033EF41E050E00E94F72327EA31E440E01D
:103E300050E00E94D8237B018C01C601B5012DE121
:103E400033EF41E050E00E94F723CA01B9012CEEA4
:103E500034EF4FEF5FEF0E94D8236E0D7F1D801F60
:103E6000911F97FF04C06150704080409048688364
:103E700079838A839B839B013F77C901DF91CF912F
:103E80001F910F91FF90EF90DF90CF90BF90AF9078
:103E900008950E94F11E08958EE192E00E94F11EA5
:103EA0000895A0E0B0E080931E0290931F02A093BB
:103EB0002002B09321020895FB01DC0102C00190B1
:103EC0000D9241505040D8F708950F931F93CF9310
:103ED000DF938C01EB01009731F46115710519F442
:103EE00020E030E038C081E090E06EE070E00E94B9
:103EF0001022FC019C01009771F180E883832097D8
:103F000071F0D387C28781E8838380917C0590918B
:103F10007D05892B21F4F0937D05E0937C05011547
:103F20001105C9F0118700878381826083838091A6
:103F30007E0590917F05892B71F4F0937F05E093C6
:103F40007E058091800590918105892B21F4F09365
:103F50008105E0938005C901DF91CF911F910F91F9
:103F60000895DF93CF93CDB7DEB7FE01359661910B
:103F7000719180917E0590917F05AF010E94F41FA1
:103F8000CF91DF9108950F931F93DF93CF93CDB718
:103F9000DEB72E970FB6F894DEBF0FBECDBF0D89EA
:103FA0001E8986E08C831A8309838FEF9FE79E83A7
:103FB0008D839E01275E3F4FCE0101966F89788DDC
:103FC000A9010E94F41F2F813885020F131FF801E9
:103FD00010822E960FB6F894DEBF0FBECDBFCF91E4
:103FE000DF911F910F9108952F923F924F925F9210
:103FF0006F927F928F929F92AF92BF92CF92DF92F9
:10400000EF92FF920F931F93DF93CF93CDB7DEB75D
:104010002B970FB6F894DEBF0FBECDBF3C012B012E
:104020005A01FC0117821682838181FD03C06FEF64
:104030007FEFC6C19AE0892E1E010894211C311C15
:10404000F3012381F20123FD859123FF81912F014B
:10405000882309F4B2C1853239F423FD859123FF09
:1040600081912F01853229F490E0B3010E944E2303
:10407000E7CF982FFF24EE249924FFE1FF15D0F01D
:104080009B3269F09C3228F4903259F0933291F4CB
:104090000EC09D3249F0903369F441E024C052E0F3
:1040A000F52A84E0F82A28C098E0F92A25C0E0E142
:1040B000FE2A22C0F7FC29C0892F80538A3070F471
:1040C000F6FE05C0989C902C1124980E15C0E89C13
:1040D000E02C1124E80EF0E2FF2A0EC09E3229F4F3
:1040E000F6FC6BC140E4F42A07C09C3619F450E892
:1040F000F52A02C0983649F4F20123FD959123FF79
:1041000091912F01992309F0B8CF892F85548330DD
:1041100018F08052833038F444E050E0A40EB51E0D
:104120005FE359830FC0933631F0933779F09335BD
:1041300009F056C020C0F5018081898342E050E03B
:10414000A40EB51E610101E010E012C0F501C080AF
:10415000D180F6FC03C06FEF7FEF02C0692D70E0E5
:1041600042E050E0A40EB51EC6010E9443238C011C
:104170005FE7F52214C0F501C080D180F6FC03C0D2
:104180006FEF7FEF02C0692D70E042E050E0A40EB7
:10419000B51EC6010E9431238C0150E8F52AF3FEBA
:1041A00007C01AC080E290E0B3010E944E23EA9457
:1041B0008E2D90E008171907A8F30EC0F601F7FC42
:1041C0008591F7FE81916F0190E0B3010E944E232B
:1041D000E110EA94015010400115110579F7EAC089
:1041E000943611F0993669F5F7FE08C0F501208183
:1041F00031814281538184E090E00AC0F5018081E1
:1042000091819C01442737FD4095542F82E090E036
:10421000A80EB91E9FE6F92257FF09C05095409598
:10422000309521953F4F4F4F5F4FE0E8FE2ACA017E
:10423000B901A1012AE030E00E947A23D82ED218D9
:1042400040C0953729F41F2D1F7E2AE030E01DC0A5
:104250001F2D197F9F3661F0903720F4983509F0B3
:10426000ACC00FC0903739F0983709F0A6C004C031
:1042700028E030E00AC0106114FD146020E130E055
:1042800004C014FD166020E132E017FF08C0F501FC
:10429000608171818281938144E050E008C0F50122
:1042A00080819181BC0180E090E042E050E0A40E6A
:1042B000B51EA1010E947A23D82ED2188FE7F82EBE
:1042C000F122F6FE0BC05EEFF522D91438F4F4FEAD
:1042D00007C0F2FC05C08FEEF82202C01D2D01C000
:1042E000192DF4FE0DC0FE01ED0DF11D808180330E
:1042F00019F499EEF92208C01F5FF2FE05C003C051
:104300008F2D867809F01F5F0F2DF3FC14C0F0FE8F
:104310000FC01E1510F09D2C0BC09D2C9E0C911AE9
:104320001E2D06C080E290E0B3010E944E231F5F65
:104330001E15C0F304C01E1510F4E11A01C0EE24CE
:1043400004FF0FC080E390E0B3010E944E2302FF00
:104350001DC001FD03C088E790E00EC088E590E035
:104360000BC0802F867891F001FF02C08BE201C064
:1043700080E2F7FC8DE290E0B3010E944E2306C07C
:1043800080E390E0B3010E944E239A94D914C0F3C5
:10439000DA94F101ED0DF11D808190E0B3010E94EE
:1043A0004E23DD20A9F706C080E290E0B3010E9411
:1043B0004E23EA94EE20C1F743CEF3016681778164
:1043C000CB012B960FB6F894DEBF0FBECDBFCF91B9
:1043D000DF911F910F91FF90EF90DF90CF90BF90F2
:1043E000AF909F908F907F906F905F904F903F9095
:1043F0002F900895F999FECF92BD81BDF89A992723
:1044000080B50895262FF999FECF1FBA92BD81BDC0
:1044100020BD0FB6F894FA9AF99A0FBE0196089546
:104420000F931F93CF93DF93689F8001699F100DB7
:10443000789F100D1124C8010E942C22EC010097D6
:1044400029F060E070E0A8010E943C23CE01DF91DA
:10445000CF911F910F910895CF93DF93BC018230CC
:10446000910510F462E070E0A0918405B09185059B
:10447000ED01E0E0F0E040E050E021C0888199816A
:104480008617970769F48A819B81309719F0938387
:10449000828304C09093850580938405FE0134C017
:1044A0006817790738F44115510519F084179507F5
:1044B00008F4AC01FE018A819B819C01E9012097EF
:1044C000E9F641155105A9F1CA01861B970B04971E
:1044D00008F4BA01E0E0F0E02AC08D919C911197B8
:1044E00084179507F9F46417750781F412968D9176
:1044F0009C911397309719F09383828304C0909313
:10450000850580938405FD0132964FC0CA01861B44
:10451000970BFD01E80FF91F6193719302978D933B
:104520009C9343C0FD01828193819C01D901109726
:10453000A1F68091820590918305892B41F48091A9
:1045400024029091250290938305809382054091E7
:104550002602509127024115510541F44DB75EB72F
:104560008091220290912302481B590B20918205D1
:104570003091830524173507B0F4CA01821B930BD1
:104580008617970780F0AB014E5F5F4F8417950742
:1045900050F0420F531F5093830540938205F90159
:1045A0006193719302C0E0E0F0E0CF01DF91CF9121
:1045B0000895CF93DF93009709F450C0EC01229740
:1045C0001B821A82A0918405B0918505109709F18C
:1045D00040E050E0AC17BD0708F1BB83AA83FE01A1
:1045E00021913191E20FF31FAE17BF0779F48D913E
:1045F0009C911197280F391F2E5F3F4F39832883D5
:1046000012968D919C9113979B838A834115510536
:1046100071F4D0938505C093840520C012968D91C6
:104620009C911397AD01009711F0DC01D3CFFA01F3
:10463000D383C28321913191E20FF31FCE17DF079D
:1046400069F488819981280F391F2E5F3F4FFA0145
:10465000318320838A819B8193838283DF91CF91F1
:104660000895FC010590615070400110D8F78095C5
:1046700090958E0F9F1F0895DC0101C06D934150EE
:104680005040E0F70895FC01615070400190011026
:10469000D8F7809590958E0F9F1F08950F931F93C5
:1046A000CF93DF938C01EB018B8181FF1BC082FFD5
:1046B0000DC02E813F818C819D812817390764F4BC
:1046C000E881F9810193F983E88306C0E885F985DB
:1046D000802F0995892B31F48E819F8101969F83CC
:1046E0008E8302C00FEF1FEFC801DF91CF911F91A2
:1046F0000F910895FA01AA27283051F1203181F154
:10470000E8946F936E7F6E5F7F4F8F4F9F4FAF4FD9
:10471000B1E03ED0B4E03CD0670F781F891F9A1FEC
:10472000A11D680F791F8A1F911DA11D6A0F711DA0
:10473000811D911DA11D20D009F468943F912AE0AC
:10474000269F11243019305D3193DEF6CF01089594
:10475000462F4770405D4193B3E00FD0C9F7F6CFC5
:10476000462F4F70405D4A3318F0495D31FD40528D
:10477000419302D0A9F7EACFB4E0A6959795879523
:1047800077956795BA95C9F7009761057105089502
:104790009B01AC010A2E06945795479537952795AE
:1047A000BA95C9F7620F731F841F951FA01D089546
:1047B000629FD001739FF001829FE00DF11D649F05
:1047C000E00DF11D929FF00D839FF00D749FF00D91
:1047D000659FF00D9927729FB00DE11DF91F639F32
:1047E000B00DE11DF91FBD01CF011124089597FB04
:1047F000092E05260ED057FD04D014D00AD0001C77
:1048000038F450954095309521953F4F4F4F5F4F6D
:104810000895F6F790958095709561957F4F8F4F2D
:104820009F4F0895A1E21A2EAA1BBB1BFD010DC0CC
:10483000AA1FBB1FEE1FFF1FA217B307E407F50750
:1048400020F0A21BB30BE40BF50B661F771F881F2C
:10485000991F1A9469F760957095809590959B01C2
:0C486000AC01BD01CF010895F894FFCF1A
:10486C0066726F6D20307800252E325820003A2069
:10487C00566363203D202575206D560D0A000100FE
:08488C00000020008605000079
:00000001FF
