:100000000C943B010C9461010C9497040C94CD0466
:100010000C9461010C9461010C9461010C946101D8
:100020000C9461010C9461010C9461010C946101C8
:100030000C9461010C9461010C9420090C946101F1
:100040000C945C090C9461010C9461010C946101A5
:100050000C9461010C9461010C9461010C94610198
:100060000C9461010C9461010C9461010C94610188
:100070000C9461010C9461010C9461010C94610178
:100080000C9461010C9461010C9461010C94610168
:100090000C9461010C9461010C9461010C94610158
:1000A0000C9461010C9461010C9461010C94610148
:1000B0000C9461010C9461010C9461010C94610138
:1000C0000C9461010C9461010C9461010C94610128
:1000D0000C9461010C9461010C9461010C94610118
:1000E0000C9461010C9461010C9461010C94610108
:1000F0000C9461010C9461010C9461010C946101F8
:100100000C9461010C9461010C9461010C946101E7
:100110000C9461010C9461010C9461010C946101D7
:100120000C9461010C9461010C9461010C946101C7
:100130000C9461010C9461010C9461010C946101B7
:100140000C9461010C9461010C9461010C946101A7
:100150000C9461010C9461010C9461010C94610197
:100160000C9461010C9461010C9461010C940804DD
:100170000C9461010C943A040C9461010C9461019B
:100180000C9461010C9461010C9461010C94610167
:100190000C9461010C9461010C9461010C94610157
:1001A0000C9461010C9461010C9461010C94610147
:1001B0000C9461010C9461010C9461010C94610137
:1001C0000C9461010C9461010C9461010C94610127
:1001D0000C9461010C9461010C9461010C94610117
:1001E0000C9461010C9461010C9461010C94610107
:1001F0000C94610103020201010000FFFEFDFCFB03
:10020000F9F7F4EFCF18E3150000361E00004C1C80
:100210008E210000AE21DA1F5B25F72700000000C9
:10022000CA220000AE17BE17000000009D1733174A
:100230004C177F17000000000000D2160000B61611
:100240002117C2160317F41600001217010401014A
:100250000102010101010101010101010401080282
:100260000101010102010102010201010201020278
:1002700001010101080011241FBECFEFDFE3DEBF43
:10028000CDBF00E00CBF18BE19BE1ABE1BBE10E2E7
:10029000A0E0B0E2E2EFF1E600E00BBF02C00790A1
:1002A0000D92A43AB107D9F71BBE14E2A4EAB0E25A
:1002B00001C01D92A532B107E1F70E94C5020C945E
:1002C000F7300C940000EF92FF920F931F9383E09E
:1002D00040E45BE46CE470E020E030E009E711E02A
:1002E000EE24FF240E94F6071F910F91FF90EF90DC
:1002F0000895DF93CF93CDB7DEB72B97CDBFDEBF89
:1003000082E089838EEB9AEB8A839B838091A42081
:100310009091A5208C839D8380E090E20E94952C93
:10032000CE0101960E94B1292B96CDBFDEBFCF91A1
:10033000DF910895EF92FF920F931F93DF93CF9376
:10034000CDB7DEB7CF5FD040CDBFDEBF8091A62056
:100350009091A720A091A820B091A9200196A11D5D
:10036000B11D8093A6209093A720A093A820B093BE
:10037000A9202DB73EB7285030402DBF3EBF4DB706
:100380005EB74F5F5F4F8E010F5F1F4FEDB7FEB738
:100390000183128321E130E2FA01228333838483D3
:1003A0009583A683B7830E94CA2C2DB73EB72A5FD8
:1003B0003F4F2DBF3EBFEDB7FEB7018312830E94B2
:1003C000832C0F900F9082E090E060E070E00E943C
:1003D000940A84E040E251EA67E070E020E030E017
:1003E00001E012E0EE24FF240E94F607C150DF4F27
:1003F000CDBFDEBFCF91DF911F910F91FF90EF90A6
:10040000089582E090E061E070E00E94940A08950F
:10041000EF92FF920F931F9381E090E062E070E013
:100420000E94940A84E040E251EA67E070E020E034
:1004300030E008E012E0EE24FF240E94F6071F914E
:100440000F91FF90EF900895EF92FF920F931F93FB
:100450006623D9F486E290E20E94952C84E00E9403
:10046000E70681E090E060E070E00E94940A83E09B
:1004700040E45BE46CE470E020E030E009E711E088
:10048000EE24FF240E94F60703C081E00E94542A54
:100490001F910F91FF90EF900895CF92DF92EF920E
:1004A0000F93CF93DF93882389F5E60120E025C0E1
:1004B0008B85843101F58C858823E9F489819A81C3
:1004C0008E5B9A4BC1F48D859E8597FF14C0888101
:1004D000823041F58B819C818093A4209093A5204C
:1004E0008EE490E20E94952C8B856C85AE0120E80D
:1004F0000E949F2A1AC061962F5F2E15C8F281E0D4
:1005000040E058EF6FEF77E025E008C08A3E51F4F5
:1005100081E040E058EF6FEF77E026E000E00E94D6
:10052000D72903C081E00E94542ADF91CF910F9117
:10053000EF90DF90CF900895EF92FF920F931F936B
:100540008823D9F48CE590E20E94952C81E040E06C
:1005500058EF6FEF77E025E000E00E94D72984E0B4
:1005600040E251EA67E070E020E030E008E012E0AD
:10057000EE24FF240E94F60703C081E00E94542A63
:100580001F910F91FF90EF9008950E947D2B88237B
:1005900011F00E9455050E948E0A80E090E060E014
:1005A00070E00E94940A81E090E061E070E00E94B7
:1005B000940A82E090E061E070E00E94940A7894EE
:1005C00081E00E947F04882311F00E9455058DE28E
:1005D00093E064E173E00E94372C8EE690E20E9483
:1005E000952C80E990E20E94952C81E00E94542A8B
:1005F0000E94672BFDCFDF93CF930F92CDB7DEB76D
:1006000081E0BE016F5F7F4F41E00E946D04813049
:1006100019F02FEF3FEF03C08981282F30E0C90187
:100620000F90CF91DF9108950F931F93DF93CF9396
:100630000F92CDB7DEB78E010F5F1F4F81E0B8017B
:1006400041E00E946D048823C9F3898190E00F90F6
:10065000CF91DF911F910F9108950F931F93DF9317
:10066000CF930F92CDB7DEB789838A3071F48DE0D6
:1006700089838E010F5F1F4F81E0B80141E00E9426
:1006800076048823C9F38AE089838E010F5F1F4FA8
:1006900081E0B80141E00E9476048823C9F380E03C
:1006A00090E00F90CF91DF911F910F9108959B01E2
:1006B000AC016050774F824C9F4FF2E0660F771F7E
:1006C000881F991FFA95D1F7E3E0220F331F441FCB
:1006D000551FEA95D1F70E94A12B21503040E0E64A
:1006E000F6E080E8818380E48283E0EBF9E0378301
:1006F00026838CE1848383E085838CE38383089560
:10070000DC018091B309837FE0EBF9E083832091E2
:10071000582380915923821730F0275F922F981B1E
:10072000892F295005C02150922F981B892F2F5FA8
:10073000482F681708F4462F342F12C09091592380
:10074000E92FF0E0EC5BFC4D8C918083993019F43B
:100750001092592303C09F5F9093592331501196F3
:10076000332361F780915C23882351F4E22FF0E07A
:10077000EC5BFC4D80818093B00981E080935C2329
:100780008091B3098C60E0EBF9E08383842F0895B6
:10079000DC0120915D23222311F480E008958091F3
:1007A000B3098F7CE0EBF9E083832A3058F0809125
:1007B0005B2380935A238AE080935D236A3020F084
:1007C0002AE003C0261708F0262F322F17C0E09129
:1007D0005A23F0E0EC5BFC4D82858C9390915A2378
:1007E0009F5F90935A2380915D23815080935D2376
:1007F0009A3011F410925A2311963150332339F75D
:100800008091B3098063E0EBF9E08383822F089540
:100810001F920F920FB60F9208B60F920BB60F925F
:10082000112418BE1BBE8F939F93EF93FF9390915B
:100830005B2380915D238F5F80935D238091B0095E
:10084000E92FF0E0EC5BFC4D8287993019F41092AF
:100850005B2303C09F5F90935B23FF91EF919F9178
:100860008F910F900BBE0F9008BE0F900FBE0F9090
:100870001F9018951F920F920FB60F9208B60F9205
:100880000BB60F92112418BE1BBE8F93EF93FF93EC
:1008900080915823893019F41092582303C08F5F38
:1008A00080935823E091582380915923E81739F019
:1008B000F0E0EC5BFC4D80818093B00902C01092A7
:1008C0005C23FF91EF918F910F900BBE0F9008BEAC
:1008D0000F900FBE0F901F901895813011F080E09F
:1008E0000895CB01642F0E94C8030895813011F050
:1008F00080E00895CB01642F0E9480030895813029
:1009000011F085E8089560E875E280E090E00E94CB
:10091000570380E008958093AA209093AB20E0E4F1
:10092000F6E091E0928B84E08287948708951F928D
:100930000F920FB60F9208B60F9209B60F920BB630
:100940000F92112418BE19BE1BBE2F933F934F93D5
:100950005F936F937F938F939F93AF93BF93EF9327
:10096000FF93E091AA20F091AB201995FF91EF91B0
:10097000BF91AF919F918F917F916F915F914F91B7
:100980003F912F910F900BBE0F9009BE0F9008BEA4
:100990000F900FBE0F901F9018951F920F920FB6D9
:1009A0000F9208B60F92112418BE0F9008BE0F9038
:1009B0000FBE0F901F9018954F925F926F927F928B
:1009C0008F929F92AF92BF92CF92DF92EF92FF925F
:1009D0000F931F93CF93DF939C016B015A01CB01BF
:1009E000820F931F8150984010F085E84DC0A0E021
:1009F000B0E0C0ECD1E040EC51E016E0612EF8ED43
:100A0000EF2EF12C01E010E06BEC71E0E3E37E2EC1
:100A100095E3892E86E3982E33C08091CF0187FD20
:100A2000FCCFFA0112823183522E2093C0016286DC
:100A3000C701FB0184BF00838091C401F501EA0F67
:100A4000FB1F40808415C9F08091CF0187FDFCCF4A
:100A50008091CF0181FF06C0FA019286C701FB0198
:100A600084BF00837A865092C00119821A824C8218
:100A70008A86C701FB0184BF00832F5F3F4F119619
:100A8000AC15BD0550F280E0DF91CF911F910F9121
:100A9000FF90EF90DF90CF90BF90AF909F908F909E
:100AA0007F906F905F904F9008951F93CF93DF9347
:100AB000E0E8F6E014828FEF8183C0E8D6E01FEF14
:100AC0008FEF9FEF0E94EF051F83FACFBF92CF9267
:100AD000DF92EF92FF920F931F93CF93DF938130BA
:100AE000910531F4862F642FA9010E94DA0935C0DF
:100AF000892B11F088EE31C0CA01860F971F8150F3
:100B0000984010F085E829C0A0E0B0E0C0ECD1E04A
:100B100096E0B92E88EDC82ED12C01E0E02EF12C04
:100B20000BEC11E016C08091CF0187FDFCCF1A823B
:100B300079836093C001BA86C601F80184BFE08260
:100B40008091C401F901EA0FFB1F808311966F5F4A
:100B50007F4FA417B50738F380E0DF91CF911F9145
:100B60000F91FF90EF90DF90CF90BF9008950E947B
:100B7000BD0708950E949D090E94B8090E94170BA5
:100B80000E9474090E9493090E94970980E00895C9
:100B9000892B19F488E0809300080895FC012091C6
:100BA0005E2330915F23C901A0E0B0E0BC0155276E
:100BB00044278091200890912108A0E0B0E0482BC4
:100BC000592B6A2B7B2B80915E2390915F232817F2
:100BD000390729F7408351836283738308954FB7A0
:100BE000F8948630910518F1209120083091210861
:100BF000280F391F809120089091210882179307B0
:100C000040F4809120089091210882179307C8F33F
:100C10000EC0809120089091210828173907C8F349
:100C2000809120089091210882179307C8F34FBF45
:100C3000089520E090E0FC0153E0EE0FFF1F5A956D
:100C4000E1F7E80FF91FE05AFC4D84819581892B6B
:100C500009F021E0822F0895DF92EF92FF920F9327
:100C60001F93DFB6F8948091AE208F3F09F456C0F1
:100C700090E0FC01A3E0EE0FFF1FAA95E1F7E80F5B
:100C8000F91FE05AFC4DE080F18002811381209130
:100C90005E2330915F23C801AA27BB272817390795
:100CA00069F4E0922808F092290880910C0880618C
:100CB00080930C0880910708836003C08091070827
:100CC0008C7F8093070860915E2370915F239B0166
:100CD00040E050E08091200890912108A90133273D
:100CE0002227A0E0B0E0282B392B4A2B5B2B8091E8
:100CF0005E2390915F236817790729F72E193F0922
:100D0000400B510B2F5F3F4F4F4F5F4F2F5F3F4FB8
:100D10004F4F5F4718F481E08093AD20DFBE1F91F5
:100D20000F91FF90EF90DF9008958091AD20882380
:100D300009F44CC01092AD203091AC20332309F45B
:100D400045C08091AF208F3F59F48091B0208F3FF4
:100D500039F48091AE208093B0208093AF2012C0F0
:100D60002091AE208091B02090E0FC0143E0EE0F96
:100D7000FF1F4A95E1F7E80FF91FE05AFC4D208765
:100D80002093B0208091AE2090E0FC0123E0EE0F94
:100D9000FF1F2A95E1F7E80FF91FE05AFC4D808507
:100DA0008093AE208091B02090E0FC01B3E0EE0F84
:100DB000FF1FBA95E1F7E80FF91FE05AFC4D8FEFDE
:100DC000808731503093AC200E942C060895FF920A
:100DD0000F931F93182F853010F08AE8C5C0FFB617
:100DE000F8940E9495060091AC20002309F4C0C03D
:100DF0004091AE20242F302F842F1217F1F5212F90
:100E000030E0141781F4F90163E0EE0FFF1F6A95DB
:100E1000E1F7E20FF31FE05AFC4D80858093AE208E
:100E20000E942C0618C090E0DC0153E0AA0FBB1F03
:100E30005A95E1F7A80FB91FA05ABC4DF90143E03C
:100E4000EE0FFF1F4A95E1F7E20FF31FE05AFC4D4A
:100E5000808518968C93812F90E0FC0123E0EE0FA3
:100E6000FF1F2A95E1F7E80FF91FE05AFC4D8FEFBD
:100E7000808701500093AC2062C0822F90E0FC017B
:100E8000B3E0EE0FFF1FBA95E1F7E80FF91FE05A44
:100E9000FC4D50853150822F09F46AC0252FADCF0B
:100EA0001217D1F52091B0201317B1F4121721F4C5
:100EB0008FEF8093B0200DC0812F90E0FC01A3E064
:100EC000EE0FFF1FAA95E1F7E80FF91FE05AFC4D5E
:100ED00080858093AF2033C0842F90E0DC01E3E075
:100EE000AA0FBB1FEA95E1F7A80FB91FA05ABC4D86
:100EF000812F90E0FC0173E0EE0FFF1F7A95E1F780
:100F0000E80FF91FE05AFC4D808518968C93121754
:100F1000B1F44093B02013C0822F90E0FC0163E055
:100F2000EE0FFF1F6A95E1F7E80FF91FE05AFC4D3D
:100F3000422F20852F3F09F0B3CF80E00FC0812FD3
:100F400090E0FC0153E0EE0FFF1F5A95E1F7E80F28
:100F5000F91FE05AFC4D1482158281E0FFBE882300
:100F600011F489E801C080E01F910F91FF9008956E
:100F70003091AF20232F432FDDCF1F931FB7F8945D
:100F80000E9495061FBF1FEF25C06FB7F894822FF0
:100F900090E0FC0173E0EE0FFF1F7A95E1F7E80F98
:100FA000F91FE05AFC4D2085448155818681978147
:100FB000108714821582168217822F3F09F43FEFA3
:100FC0006FBF4115510551F03093B0202093AF20F1
:100FD000FA0119953091B0202091AF202F3FA9F64A
:100FE0003093B0202093AF201F9108952F923F920D
:100FF0004F925F927F928F929F92AF92BF92CF92C9
:10100000DF92EF92FF920F931F93CF93DF93782E8F
:101010005A016B01490194E0292E281610F48AE840
:10102000E2C00115110509F4DBC0C82FD0E0FE01B4
:1010300083E0EE0FFF1F8A95E1F7EC0FFD1FE05AEA
:10104000FC4D84819581892B11F088E8CCC060919A
:101050005E2370915F239B0140E050E08091200867
:1010600090912108A90133272227A0E0B0E0282B86
:10107000392B4A2B5B2B80915E2390915F2368175D
:10108000790729F78114910431F061E08616910403
:1010900009F0A6C011C0D601C50180589040A040FB
:1010A000B04080589F4FAF4FBF4708F09BC0A20E83
:1010B000B31EC41ED51E10C0D601C5018058904075
:1010C000A040B040821B930BA40BB50B80589F4FE0
:1010D000AF4FBF4708F086C09FB6F8940E949506B0
:1010E0005091AE205F3F31F06091AC20452F252F0D
:1010F00030E054C07092AE20FE01A3E0EE0FFF1F5F
:10110000AA95E1F7EC0FFD1FE05AFC4D508731C066
:101110002F3F09F43EC0822F90E0FC0173E0EE0FF8
:10112000FF1F7A95E1F7E80FF91FE05AFC4D808127
:101130009181A281B38115012601281A390A4A0A30
:101140005B0AD201C1018F5F9F4FAF4FBF4710F4C1
:10115000808521C0FE0133E0EE0FFF1F3A95E1F7D5
:10116000EC0FFD1FE05AFC4D2087521721F47092BE
:10117000AE2091E017C0842F90E0FC0123E0EE0F39
:10118000FF1F2A95E1F7E80FF91FE05AFC4D708622
:1011900055C08FEF242F3F5F422F282F361708F4BA
:1011A000B7CF33C0FE0183E0EE0FFF1F8A95E1F752
:1011B000EC0FFD1FE05AFC4DA082B182C282D382A7
:1011C00004831583E682F7828091AC208F5F809341
:1011D000AC20992311F00E942C069FBE80E003C032
:1011E00088EE01C08BE8DF91CF911F910F91FF90A6
:1011F000EF90DF90CF90BF90AF909F908F907F90B7
:101200005F904F903F902F900895842F90E0FC01C5
:10121000B3E0EE0FFF1FBA95E1F7E80FF91FE05AB0
:10122000FC4D7086FE01A3E0EE0FFF1FAA95E1F7CB
:10123000EC0FFD1FE05AFC4D8FEF808790E0B2CF9E
:101240001F920F920FB60F9208B60F9209B60F9227
:101250000BB60F92112418BE19BE1BBE2F933F93DD
:101260004F935F936F937F938F939F93AF93BF93AE
:10127000EF93FF9380915E2390915F23019680937B
:101280005E2390935F230E942C06FF91EF91BF9104
:10129000AF919F918F917F916F915F914F913F910E
:1012A0002F910F900BBE0F9009BE0F9008BE0F90AC
:1012B0000FBE0F901F9018951F920F920FB60F92AE
:1012C00008B60F92112418BE8F938091AC2088230A
:1012D00019F081E08093AD208F910F9008BE0F90A0
:1012E0000FBE0F901F9018951092AC201092AD2059
:1012F00010925E2310925F238FEF8093AE20809335
:10130000AF208093B020E4E6F3E284831082118260
:10131000399693E2E139F907C1F70E94CD090895A2
:10132000089581E0089584E8809380010895E0EABB
:10133000F0E0828184608283089582E0809350008F
:101340008091510081FFFCCF98ED94BF84E0E0E4F0
:10135000F0E0818394BF81E08093400082E0E0E58B
:10136000F0E0868380916000816080936000089542
:10137000E0E4F6E080818061808380818068808302
:1013800080818160808380818062808380818860A9
:10139000808380818F7B8083089588E0809300081C
:1013A00080EF80930C0880E380934C0883E0809367
:1013B000060808956F927F929F92AF92BF92CF924C
:1013C000DF92EF92FF920F931F93DF93CF93CDB7EE
:1013D000DEB7C054D040CDBFDEBFC82EA62EF42E3F
:1013E000B52E3E010894611C711C662DA0E4B6E088
:1013F000DD24D39490E1E92E00EC18E083E0982EF0
:1014000020EC38E0AE01405C5F4F962D961B70914A
:101410004906809149068C7F19968C9319971696E8
:10142000DC9216971696EC921697000000000000CA
:1014300000000000000000000000000000000000AC
:1014400000000000000000000000F801938280917D
:10145000C20887FFFCCF9F77F90193838091C20870
:1014600087FFFCCFF90113828091C20887FFFCCF70
:101470008091C3081596EC9215971596DC921597F6
:1014800019967C931997F30180836416750621F0F1
:101490000894611C711CB9CFFE01319620E030E048
:1014A000DE01AF5BBF4F81912827022E2295207F5E
:1014B0002025032E322F22952F70022626953227C3
:1014C0002327220F220F220F2025EA17FB0759F7A7
:1014D000232B11F085E810C0DE011196AC0DB11D73
:1014E0008F2D9B2D9C01F90102C08D9181938E2F30
:1014F0008F198A15D0F380E0C05CDF4FCDBFDEBF0F
:10150000CF91DF911F910F91FF90EF90DF90CF90DF
:10151000BF90AF909F907F906F900895E0E8F6E0C5
:101520008FEF84838083089584309105E9F08530BE
:10153000910548F48230910599F08330910590F43B
:10154000019761F409C08630910591F086309105CC
:1015500068F0079719F40EC021E00DC020E00BC021
:1015600022E009C023E007C024E005C025E003C055
:1015700026E001C027E06115710521F06130710599
:10158000A9F40BC081E090E002C0880F991F2A9552
:10159000E2F7E0E8F6E08683089502C0660F771F61
:1015A0002A95E2F7E0E8F6E06583089581E090E0AF
:1015B00002C0880F991F2A95E2F7E0E8F6E08783DA
:1015C00008951092A006089584309105E9F08530C1
:1015D000910548F48230910599F08330910590F49B
:1015E000019761F409C08630910591F0863091052C
:1015F00068F0079719F40EC081E00DC080E00BC0C1
:1016000082E009C083E007C084E005C085E003C034
:1016100086E001C087E02091A80630E002C0359541
:1016200027958A95E2F721703070C901089580E509
:101630008093C00880E1E0E4F6E085830895E0E46B
:10164000F6E020914906909149069C7F9187806C35
:1016500090E19683E0ECF8E083838091C20887FFF5
:10166000FCCFE0ECF8E063838091C20887FFFCCFF9
:10167000E0E4F6E080E1858321870895E0E4F6E088
:1016800020914906909149069C7F9187806890E15E
:101690009683E0ECF8E083838091C20887FFFCCF5B
:1016A000E0ECF8E013828091C20887FFFCCF8091C4
:1016B000C308E0E4F6E090E1958321870895CF9395
:1016C000DF93DC0180E1E0E4F6E0868380E2E0EC99
:1016D000F8E083838091C20887FFFCCFE0ECF8E05C
:1016E00013826130A9F0FD01262FC0ECD8E0809173
:1016F000C20887FFFCCF8091C3081B8281932150D1
:101700002230A8F76250862F90E00196A80FB91FEB
:101710008091C20887FFFCCF8091C3088C9380E141
:10172000E0E4F6E08583DF91CF910895DC0180E16C
:10173000E0E4F6E0868380E6E0ECF8E083838091E5
:10174000C20887FFFCCFE0ECF8E09D9161508091EA
:10175000C20887FFFCCF93836623B9F78091C20844
:1017600087FFFCCF80E1E0E4F6E085830895FF92F7
:101770000F931F93062FF42E0E943E0B082310E0B8
:1017800002C015950795FA94E2F7802F1F910F91EB
:10179000FF900895DF92EF92FF920F931F93D82E40
:1017A000F62EE42E022F0E943E0B10E002C0000F26
:1017B000111FEA94E2F76F2D6023F094F8226F294D
:1017C0008D2D0E941F0B1F910F91FF90EF90DF90C6
:1017D0000895BC01009721F089E293E20E941E0C5B
:1017E000089589E293E260E070E00E94B30C0895EE
:1017F0000F931F93CF93DF9389E293E20E94170C1C
:10180000C9E1D3E201EB10E20883198389E293E294
:10181000BE010E941E0C249606561F4F83E2C93259
:10182000D80791F7DF91CF911F910F910895FC0197
:10183000108211821282138214820895CF93DF9353
:10184000DC01EB019FB7F89414968C9114978823D0
:1018500021F46D937C93119706C01296ED91FC9143
:101860001397628373831296CD93DC9313971A8236
:101870001B8214968C9114978F5F14968C939FBF44
:10188000DF91CF9108959F92AF92BF92CF92DF9256
:10189000EF92FF920F931F93CF93DF938C015B0125
:1018A0006A019FB6F894DC0114968C91882319F490
:1018B000C0E0D0E04AC0F801C081D1814115510596
:1018C000B1F07E0111C0D60112966D917C911397F3
:1018D000ED91FC91888199811995882359F47E01B5
:1018E0008A819B819C01E901209769F72EC020978E
:1018F00061F17E01AB2849F5F801808191812A814F
:101900003B81C817D90719F42083318305C0D7015B
:1019100012962D933C931397F80182819381C817F7
:10192000D90711F4E282F382D80114968C911497AE
:10193000815014968C9314978D919C911197892BBB
:1019400021F412961D921C9213979FBECE01DF9137
:10195000CF911F910F91FF90EF90DF90CF90BF90AC
:10196000AF909F900895AB0160E070E00E94430C3F
:101970000895AB0161E070E00E94430C0895CF939D
:10198000DF93EC010BC0CE0160E070E00E94B30C6D
:10199000009711F41C8205C00E94E90B8C818823FA
:1019A00091F7DF91CF9108950F931F93DF93CF931A
:1019B000CDB7DEB72897CDBFDEBF81E06FE140E055
:1019C0000E94B70B883039F58FE00E943E0B82E011
:1019D00069E00E941F0BCE0101960E94CE058E0188
:1019E0000B5F1F4F8FE00E943E0B80FD14C0C801AB
:1019F0000E94CE058D819E81AF81B88529813A8173
:101A00004B815C81821B930BA40BB50B8D3D910523
:101A1000A105B10538F32896CDBFDEBFCF91DF9188
:101A20001F910F9108950F931F93082F8091AD235D
:101A30008F30C9F488E0E0E4F6E0868381E06FE16E
:101A400040E00E94B70B8830C9F78DE064E042E0C7
:101A500021E00E94CA0B083011F0033021F488E025
:101A60008093AD23D2C181E06FE140E00E94B70BCB
:101A70008093AD23083009F44EC0093050F404308F
:101A800009F49BC0063009F4A5C0033009F0B4C1C5
:101A90005AC00F3069F0003120F4093009F0ACC1B0
:101AA0006AC0063109F4CFC0093109F0A5C137C1B8
:101AB00082E063E00E941F0B8DE064E042E020E0E2
:101AC0000E94CA0B0E941E2C682F192F8DE20E94C3
:101AD0001F0B8EE267E040E0212F0E94CA0B00003E
:101AE00000000000000000000000000000000000F6
:101AF000000000000000000000000000000088E07E
:101B0000E0E4F6E0858383E290E00E94EF05009335
:101B1000AD238FE07AC1883009F46EC182E068E0BD
:101B20000E941F0B000000000000000000000000E9
:101B300000000000000000000000000000000000A5
:101B40000000000059C1883009F456C182E063E00A
:101B50000E941F0B000000000000000000000000B9
:101B60000000000000000000000000000000000075
:101B70000000000041C1883029F1893020F486300E
:101B800009F03AC105C0863119F0893109F034C134
:101B900082E069E00E941F0B0000000000000000CE
:101BA0000000000000000000000000000000000035
:101BB00000000000000000001FC1883019F08930CB
:101BC00021F41AC10E94D40C17C182E064E00E9483
:101BD0001F0B12C1893059F08A3020F4883009F087
:101BE0000BC11AC0863119F0893109F005C182E0B4
:101BF00066E00E941F0B00000000000000000000D3
:101C000000000000000000000000000000000000D4
:101C1000000000000000F0C00E94D40C82E066E0EA
:101C20000E941F0B000000000000000000000000E8
:101C300000000000000000000000000000000000A4
:101C400000000000D9C0883001F1893020F48630CE
:101C500009F0D2C031C0893019F0893109F0CCC007
:101C600082E066E10E941F0B0000000000000000FF
:101C70000000000000000000000000000000000064
:101C80000000000000000000B7C00E94D40C82E0F9
:101C900066E10E941F0B0000000000000000000031
:101CA0000000000000000000000000000000000034
:101CB000000000000000A0C082E069E00E941F0B4D
:101CC0000000000000000000000000000000000014
:101CD0000000000000000000000000000000000004
:101CE00081E06FE140E00E94B70B8093AD23893023
:101CF00009F08BC082E066E10E941F0B000000002B
:101D000000000000000000000000000000000000D3
:101D10000000000000000000000000006DC08830DE
:101D200009F454C0893020F4863009F065C01BC026
:101D3000893021F0863109F05FC015C082E069E189
:101D40000E941F0B000000000000000000000000C7
:101D50000000000000000000000000000000000083
:101D60000000000049C082E069E00E941F0B0000F3
:101D70000000000000000000000000000000000063
:101D8000000000000000000000000000000081E0F2
:101D90006FE140E00E94B70B8093AD23893009F0DA
:101DA00034C082E069E10E941F0B000000000000C7
:101DB0000000000000000000000000000000000023
:101DC0000000000000000000000016C00E94D40CBB
:101DD00082E069E10E941F0B00000000000000008B
:101DE00000000000000000000000000000000000F3
:101DF000000000000000000081E06FE140E00E9470
:101E0000B70B8093AD238F31B9F31F910F910895D4
:101E100080919E238823E1F08091B6238823C1F42A
:101E200080912E2390912F23892B39F48AE90E94E7
:101E3000F10B80932E2390932F2380912E2390914A
:101E40002F23892B29F010929E2386E10E94130DE7
:101E50008091A323882351F08FE993E260E070E042
:101E60000E94B30C009711F00E943D0F8091B623A1
:101E7000823011F40E9481100895EF92FF920F9327
:101E80001F93CF93DF937C01DC010D911C91D8014E
:101E90001696ED91FC91179780818093AF23C82F00
:101EA000D0E02196CE0FDF1F988129812F3110F0CD
:101EB0002EE103C0222309F421E092959695969590
:101EC00093708FEF989FC001112430E0FC01E29FD6
:101ED000C001E39F900DF29F900D11246AE570E020
:101EE0000E948D2B6F3F710511F008F06FEF688332
:101EF000D8011196ED92FC921297C8010E94101819
:101F0000DF91CF911F910F91FF90EF900895DF9295
:101F1000EF92FF920F931F93DF93CF930F92CDB762
:101F2000DEB7E0912E23F0912F233097C1F1E080AE
:101F3000F18087E00E943E0BD82ECE01019661E031
:101F40000E945F0B698167FD2AC06D5F0AE910E09E
:101F5000061B11090E0D1F1D6150C8010E945F0B69
:101F6000F701068317838981080F111DF801D282BA
:101F700060912E2370912F238FE993E20E941E0C13
:101F80008AE90E94F10B80932E2390932F23892BB3
:101F900031F489E00E94130D81E080939E230F901D
:101FA000CF91DF911F910F91FF90EF90DF900895F7
:101FB000882311F087E005C082E060EE45E00E94D2
:101FC000B70B8093302382E08093B62380912E2339
:101FD00090912F23892B39F489E00E94130D81E021
:101FE00080939E23089586E10E94130D0895EF9239
:101FF000FF920F931F93CF93DF937C01EB01042F8C
:10200000442331F08CE260EF44E02091AC2304C023
:102010008CE260EF44E020E00E94CA0BC230D105A0
:1020200098F4002361F08CE26EE041E02091A4235B
:102030000E94CA0B8FE260E00E941F0B16C08CE268
:102040006EE041E027E00FC06091A8236295607FB9
:102050008091AB23682B8FE20E941F0B8CE26EE015
:1020600041E02091A4230E94CA0B89E10E94130D34
:102070008931D9F7809149068C7FE0E4F6E08187C9
:10208000219759F48091AF23833118F080E492E0D6
:1020900002C080E890E00E94EF0500E416E088E0CE
:1020A000F80185838683F70160816150C7010E9432
:1020B000960B81E08093B623809149068360F801F6
:1020C0008187DF91CF911F910F91FF90EF9008953D
:1020D000FC018091B623882311F086E80895E093EF
:1020E000A923F093AA23868197818093B0239093AC
:1020F000B123009711F488EE08950E94F70F80E055
:1021000008951092B623809130238330B1F084304B
:1021100028F4882331F08130E1F409C08530C9F416
:1021200012C06091A9237091AA2380E017C060912A
:10213000A9237091AA2387E811C06091A923709107
:10214000AA2381EE0BC06091A9237091AA2389EE86
:1021500005C06091A9237091AA2385E80E946C2490
:102160000895282F85FD03C0982F9F7304C0982FD2
:1021700091959F719195E4EFF1E08491891734F086
:102180003F968491981714F0822F0CC0803E3CF04B
:1021900080323CF487FF06C08F71806203C080E20A
:1021A00001C08FE18068089584E08093A42323E038
:1021B0002093AB238FEF9FEF8093992390939A23E3
:1021C00080939C2390939D238BE08093A62380E0B3
:1021D00098EFAFEFB7E08093B2239093B323A0932F
:1021E000B423B093B523109298238AE091E08093B2
:1021F0009623909397238AE08093AE2382E0809386
:10220000A52385E08093A8232093AC2383E80E9434
:10221000B11080938D2381E080939B231092A7239C
:10222000089585FD03C0982F9F7304C0982F919542
:102230009F719195E4EFF1E080E02491921724F0F2
:1022400029173CF4815008958F5F31968031A9F7AA
:1022500080E008951F93CF93DF9382E260919923EA
:102260000E941F0B60919A2383E20E941F0BCEE80D
:10227000D3E214E2812F69910E941F0B1F5F1C3271
:10228000C9F780E260919C230E941F0B60919D23FF
:1022900081E20E941F0B88E060E645E020919B23CD
:1022A0000E94CA0B8FE26FE040E02091AB230E94B6
:1022B000CA0B8EE268E043E02091A7230E94CA0B7C
:1022C0008FE260EF44E02091A8230E94CA0B88E0CF
:1022D0006FE140E02091A6230E94CA0B80918D23DC
:1022E0000E941111282F85E06FE040E00E94CA0B88
:1022F000DF91CF911F9108951F93CF93DF93EB014F
:102300008E3431F0893541F488818093AC23D4C078
:1023100088818093A423D0C02091AD232F3011F465
:1023200081E8CBC08B3009F4BAC08C3070F48230B5
:1023300009F47DC0833018F48823C9F115C08330B7
:1023400009F483C0843081F461C0833509F1843598
:1023500028F48F3459F0803539F40DC0873509F4ED
:102360005FC0803F09F478C084EFA7C02881209324
:10237000AB238FE267C06881898160939923809342
:102380009A2382E20E941F0B60919A2383E20CC081
:102390006881898160939C2380939D2380E20E94C1
:1023A0001F0B60919D2381E20E941F0B85C08091CD
:1023B000B623882309F07CC080E098EFAFEFB7E048
:1023C000088004C0B695A795979587950A94D2F78B
:1023D00081709070892B09F46DC0283011F418E0D9
:1023E00006C088E00E94130D8830D9F716E12881D5
:1023F0002093A62388E06FE140E00E94CA0B1830CA
:1024000009F45AC086E10E94130D56C08091B6238C
:10241000882309F04DC08881882309F44DC04AC043
:1024200028812093A8238FE260EF44E03EC088819A
:1024300080938D230E94B11080938D230E941111EF
:10244000282F85E06FE040E030C0288120939B2357
:1024500088E060E645E029C0888180938E238981E9
:1024600080938F238A81809390238B818093912303
:102470008C81809392238D81809393238E8180938E
:1024800094238F8180939523CEE8D3E214E2812FA9
:1024900069910E941F0B1F5F1C32C9F70DC0288174
:1024A0002093A7238EE268E043E00E94CA0B04C099
:1024B00086E803C088EE01C080E0DF91CF911F91D4
:1024C0000895DF92EF92FF920F931F93DF93CF93C4
:1024D0000F92CDB7DEB7D82E81E090E065E170E0D5
:1024E00041E050E09E012F5F3F4F0E94660500E4EF
:1024F00016E088E0F80186838CE791E00E94EF0502
:10250000FF24F394F801F68281E090E00E94EF0549
:10251000F801F58210E081E06FE140E00E94B70B26
:102520001F5F1B3F11F485E84BC08830A1F78093F3
:10253000AD232981222309F44CC082E16FE040E001
:102540000E94CA0B46C086E060E645E00E94B70BD9
:102550009801220F331F220F331F082F10E0022B88
:10256000132BF394F8E0FF1671F783E00E94130D2C
:102570008FE00E943E0BE0E4F6E081E08487E18694
:10258000C8010E94232C0E941E2C682F192F8DE257
:102590000E941F0B8EE267E040E0212F0E94CA0BD1
:1025A00080E00E9484140E947114DD2011F00E94CA
:1025B000D4100E942A111092B62310929E2380E01C
:1025C0000F90CF91DF911F910F91FF90EF90DF90CF
:1025D000089583E060E344E020E00E94CA0B83E0BA
:1025E00068E043E020E00E94CA0B83E067E040E03F
:1025F00021E00E94CA0B8EE260E245E021E00E94E9
:10260000CA0B8CE060E847E021E00E94CA0B84E03E
:1026100062E041E021E00E94CA0B8EE06CE00E9483
:102620001F0B8DE063E040E021E00E94CA0B8AE0CE
:102630006FE040E023E00E94CA0B8DE068E043E0D9
:1026400021E00E94CA0B8DE064E042E021E00E949C
:10265000CA0B86E00E94130DE0904906809149065E
:102660008C7FE0E4F6E0818700E010E0FF246BCF90
:102670000E946112882361F085E808958FE993E252
:1026800060E070E00E94B30C009711F00E94E90B2B
:102690008091A323882391F788E494E10E948B041E
:1026A000E0E4F6E081E084878091490683608187D9
:1026B00080E00895FF920F931F93CF93DF930E94C2
:1026C000BA05882309F0DDC000E416E0FF24F39486
:1026D000F801F58288E086838AE491E00E94EF05A4
:1026E000F801F68281E090E00E94EF05F801F582A2
:1026F00000E004C00F5F0F3F09F4C3C08DE10E94EA
:102700003E0B8230B9F78CE10E943E0B833091F78B
:1027100082E068E00E941F0B00E081E06FE140E092
:102720000E94B70B015009F4ACC08830B1F7809318
:10273000AD2381E090E060E070E048E050E02EE8FA
:1027400033E20E94660509C0CEE8D3E20E941E2C47
:102750008993F3E2C639DF07C9F780918E23309160
:102760008F23409190236091912370919223F09157
:102770009323B091942350919523182F115091E0F9
:10278000181708F090E0832F815021E0831708F09C
:1027900020E0092F080F91E0081708F090E0292B9E
:1027A000842F815031E0841708F030E0A22FA80F69
:1027B00091E0A81708F090E0392B862F815021E096
:1027C000861708F020E0E32FE80F91E0E81708F003
:1027D00090E0292B872F815031E0871708F030E0F7
:1027E000622F680F91E0681708F090E0392B8F2F67
:1027F000815021E08F1708F020E0432F480F91E02F
:10280000481708F090E0292B8B2F815091E08B170F
:1028100008F090E0322F380F21E0381708F020E060
:10282000922B5195591779F43F3F69F44F3F59F472
:102830006F3F49F4EF3F39F4AF3F29F40F3F19F4EC
:102840001E3F08F081CF81E00E9461128823C9F405
:1028500088E494E10E948B04809149068360E0E45F
:10286000F6E081870E94F80B8AE90E94F10B8093C1
:102870002E2390932F238FE993E20E94170C80E080
:1028800001C085E8DF91CF911F910F91FF900895CE
:102890008FE00E943E0B282F83FF0CC08091B6234F
:1028A000813029F426FF80E00E94D80F08950E940D
:1028B000870F089582FF14C08DE060E847E00E9412
:1028C000B70B882339F48DE063E040E021E00E94FB
:1028D000CA0B08958DE063E040E022E00E94CA0B3D
:1028E00008958091AD238F3011F082E8089588E03B
:1028F0000E94130D883011F085E8089581E090E082
:102900000E94C80580E00895882311F088EE08959C
:102910008091AD238F3011F481E808958091B62322
:10292000882391F410929E2388E00E94130D883032
:10293000D9F780E090E00E94C8058FE00E94130D57
:102940008F3011F480E0089586E80895982F8091E3
:10295000B623882311F086E80895983039F488E08A
:102960000E94130D10929E2388E0089580912E23DB
:1029700090912F23892B29F086E10E94130D86E088
:10298000089581E080939E2386E00895DC01ED9117
:10299000FC91119784E1808363834183528386E1B4
:1029A00094E2BD010E941E0C08950F931F93DF93C4
:1029B000CF930F920F92CDB7DEB7A091D323B091F2
:1029C000D423ED91FC91119784E180838BEE838376
:1029D0000FEF1FEF0183128386E194E2BD010E9495
:1029E0001E0C1092C42309831A8380E5BE016F5F19
:1029F0007F4F0E946B200093D5231093D623109213
:102A0000E3231092E4231092E5231092E623109220
:102A1000E7231092E8231092E9231092EA230E9400
:102A2000651F0F900F90CF91DF911F910F91089527
:102A3000EF92FF920F931F93E090DF23F090E0233B
:102A400080E061E040E020E030E000E010E00E9443
:102A5000071B8823A9F4A091D323B091D423ED912F
:102A6000FC91119784E1808381EE83838FEF9FEF48
:102A70008183928386E194E2BD010E941E0C19C0FD
:102A8000A70160E070E084E0440F551F661F771FC8
:102A90008A95D1F780E020E030E005ED14E1EE24E6
:102AA000FF240E94F607882321F080E090E00E9436
:102AB000D5141F910F91FF90EF900895FF920F93FF
:102AC0001F93DF93CF930F920F92CDB7DEB7F090A5
:102AD0000B240E94E90BFF20B1F583E569E074E265
:102AE0000E946B202091092430910A248091FE23BA
:102AF0008093E3238091FF238093E423809100243B
:102B00008093E523809101248093E6238091022421
:102B10008093E723809103248093E8238091042409
:102B20008093E923809105248093EA2381E08093B8
:102B300012241092C4238091CE23833031F582E099
:102B40008093CE2322C01092C4230FEF1FEF09837E
:102B50001A8380E5BE016F5F7F4F0E946B20009358
:102B6000D5231093D6231092E3231092E4231092DE
:102B7000E5231092E6231092E7231092E8231092A7
:102B8000E9231092EA232FEF3FEFE091D323F09156
:102B9000D423A081B18184E18C931396FC92139786
:102BA00011962D933C93129786E194E2BF010E9407
:102BB0001E0C0E94651F0F900F90CF91DF911F9107
:102BC0000F91FF900895CF92DF92EF92FF921F93A3
:102BD000DF93CF93CDB7DEB72F97CDBFDEBFAC016C
:102BE0007C01DE011196FC01808191819C01F9013B
:102BF0008FE001900D928150E1F74093D3235093E1
:102C0000D4238C81823019F48F8198851AC08F81EA
:102C10008093E32388858093E42389858093E5234B
:102C20008A858093E6238B858093E7238C85809328
:102C3000E8238D858093E9238E858093EA238EEFA8
:102C40009FEF8093D5239093D62380E5BE016B5FE1
:102C50007F4F0E946B200E94401FD701CD90DC90D7
:102C600081E0F6018083E182F282EA56FF4F8083A1
:102C70008F8581839F0128503040D901EEE8F3E22F
:102C800088E001900D928150E1F7F9018FEF9FEFFD
:102C9000929382938C81823051F48091D5239091CC
:102CA000D6239293829345E123E238EC11C0F901D7
:102CB0003A979F0143EE53E288E0DA010D90AD01AF
:102CC000D9010D929D018150C1F74BE123E23CEC0B
:102CD0008091992390919A23929382938091CF230C
:102CE00082938F5F8093CF23329322934293D601B6
:102CF0001696ED93FC93179784E0BE016D5F7F4FAE
:102D00000E946B20182F80E0BE016E5F7F4F0E94F3
:102D10006B20112371F4882361F4C60162E070E036
:102D200041E00E946810882321F481E080931324FD
:102D300012C0D701ED91FC9184E1808381EE838301
:102D40008FEF9FEF8183928386E194E2B7010E9427
:102D50001E0C0E94651F2F96CDBFDEBFCF91DF9165
:102D60001F91FF90EF90DF90CF900895FC010190AC
:102D7000F081E02D628173818181448125810E94EF
:102D80008C2B08950F931F938C01DC01ED91FC9126
:102D9000818162810E94892BC8010E94E90B1F91E9
:102DA0000F910895AF92BF92CF92DF92EF920F935F
:102DB0001F935C01DC01ED91FC910481158126815A
:102DC0003781818162814381E08439966F010E945D
:102DD0004D02C5010E94E90B1F910F91EF90DF900A
:102DE000CF90BF90AF9008950F931F938C01DC019B
:102DF000ED91FC9181810E948B2BC8010E94E90B0F
:102E00001F910F9108950F931F938C01DC01ED9199
:102E1000FC9181810E949C02C8010E94E90B1F91D4
:102E20000F9108950F931F938C01DC01ED91FC919C
:102E300081810E946301C8010E94E90B1F910F91DB
:102E400008950F931F938C01DC01ED91FC9181811A
:102E500062813396AF010E94882BC8010E94E90B62
:102E60001F910F910895EF92FF920F937C01DC0167
:102E7000ED91FC912181328143815481658176817C
:102E80008781908501850E94872BC7010E94E90BED
:102E90000F91FF90EF9008950F931F93DF93CF93BF
:102EA000CDB7DEB72B97CDBFDEBF8C01DC01ED9136
:102EB000FC9182818983838194818A839B839E0193
:102EC0002C5F3F4FAF014B5F5F4F88E0DA010D9001
:102ED000AD01D9010D929D018150C1F78181BE01E3
:102EE0006F5F7F4F0E94862BC8010E94E90B2B96D3
:102EF000CDBFDEBFCF91DF911F910F910895CF928B
:102F0000DF92EF92FF920F936C01DC01ED91FC9147
:102F1000BF016E5F7F4F24893589E788F08C8181FE
:102F2000438906890E94852BC6010E94E90B0F91F7
:102F3000FF90EF90DF90CF9008950F931F938C0137
:102F4000DC01ED91FC918181928163810E942402D8
:102F5000C8010E94E90B1F910F9108950F931F93D1
:102F60008C01DC01ED91FC91818162810E94842BB6
:102F7000C8010E94E90B1F910F910895CF92DF9233
:102F8000EF920F93DF93CF93CDB7DEB76697CDBFA8
:102F9000DEBF6C01DC01ED91FC918181898382812E
:102FA00093818A839B839E012C5F3F4FAF014C5FCF
:102FB0005F4F88E0DA010D90AD01D9010D929D01BE
:102FC0008150C1F784858C87858596858D879E87FE
:102FD0009E01215F3F4FAF01415F5F4F88E0DA0103
:102FE0000D90AD01D9010D929D018150C1F7228D47
:102FF000338DCE010196BE01645F7F4F418D0789FD
:10300000E08C0E949A01C6010E94E90B6696CDBF32
:10301000DEBFCF91DF910F91EF90DF90CF900895B9
:10302000FC011082618172816115710521F08AEDC8
:1030300093E20E941E0C08950F931F93CF93DF938A
:10304000282F8091092490910A2496FFA3C022235F
:1030500059F42091FC233091FD2380919923909184
:103060009A232817390761F02091FC233091FD2322
:103070008091D8239091D9232817390709F08AC065
:103080002091FE233091FF238091D5239091D62368
:103090002817390709F47EC09091FE238091E3231D
:1030A000981759F59091FF238091E423981729F5FB
:1030B000909100248091E5239817F9F490910124D0
:1030C0008091E6239817C9F4909102248091E72318
:1030D000981799F4909103248091E823981769F444
:1030E000909104248091E923981739F49091052454
:1030F0008091EA23981709F44DC08AE90E94F10BE8
:103100008C01009709F446C0DC012D913C9185E0CB
:10311000F901808301831283E956FF4F8083AF0159
:1031200048505040FA01AEE8B3E288E00D900192B9
:103130008150E1F7FA013897EF01A3EEB3E288E09E
:103140000D9009928150E1F78091992390919A23F3
:10315000929382938091CF2382938F5F8093CF232A
:1031600083E69CEC9293829388E18293D901169630
:10317000ED93FC931797C90162E070E041E00E9473
:103180006810882321F481E08093132403C0C801D0
:103190000E94E90BDF91CF911F910F9108950F933A
:1031A0001F93CF93DF93EC01E881F981A681B7816A
:1031B0007C917093EE23FD01E70FF11D81818093D7
:1031C000072411964D915C9112974093EB235093F5
:1031D000EC2313968C9113978093EF238D010C5F52
:1031E0001F4F652F6295669566956370352F3695EE
:1031F0003695337019F4F80120E049C014968D918A
:103200009C9115978093F1239093F223FD013696BC
:103210003230E1F41092F3231092F4231092F5234C
:103220001092F6231092F7231092F8231092F923AC
:103230001092FA2316968D919C9117978093F32301
:103240009093F423FD01389624E021C0333011F02F
:1032500022E01DC016968C9116978093F3238181EE
:103260008093F42382818093F52383818093F623D6
:1032700084818093F72385818093F82386818093CE
:10328000F92387818093FA23FD013E962AE0662385
:1032900009F447C046FD08C0819191918093FC23B9
:1032A0009093FD232E5F08C08091F1239091F2232B
:1032B0008093FC239093FD236230C1F41092FE238F
:1032C0001092FF23109200241092012410920224E5
:1032D000109203241092042410920524808191817D
:1032E0008093FE239093FF232E5F1BC06330C9F4AD
:1032F00080818093FE2381818093FF23828180934C
:103300000024838180930124848180930224858119
:1033100080930324868180930424878180930524ED
:10332000285F972F9550921B909308246093FB235E
:103330003093F02343FD5CC1D801A20FB11D842F4F
:1033400087708093ED23833021F48C918093062441
:1033500063C0813009F451C0813020F0833009F01E
:1033600047C15AC08D919C911197809309249093E5
:103370000A2412968C91129780930B24877011F473
:1033800093E002C0982F9C5FFD01E90FF11D808141
:1033900080930C24292F2F5F382F377090E080778F
:1033A000907044E0959587954A95E1F7482F33232F
:1033B00011F4882389F0CD01820F911D80930D2493
:1033C00090930E24332311F0330F230F442321F065
:1033D000440F440F440F240F80910824281750F401
:1033E000821B80930F24A20FB11DA0931024B093D1
:1033F000112402C110920F24FFC0992351F0963777
:1034000018F086E780930824A0930924B0930A2437
:10341000F3C010920824F0C080910624843009F48F
:10342000EBC0853030F4823059F0833009F0E0C0D1
:1034300014C0873009F4E0C0883009F0D9C012C048
:1034400011968D919C9112978093092490930A2450
:1034500013968C9180930B24CFC011968C918093FE
:103460000924CAC011968D919C91129780930924CA
:1034700090930A2413968D919C91149780930B241A
:1034800090930C2415968C91159780930D24169685
:103490008D919C91179780930E2490930F2454FF45
:1034A000ABC018968C9180931024A6C08091ED2318
:1034B000833061F480910624843011F0873031F438
:1034C0008AED93E2BE010E941E0C9CC08091C42331
:1034D000813009F478C0813020F0843008F088C051
:1034E00059C08091CD23882351F5909112249230B8
:1034F00008F07EC08091ED23813009F475C08130E1
:1035000020F0833009F074C00CC08091152488230A
:1035100009F46EC0992309F46BC080E00E941C1866
:1035200067C080910624833009F040C0CE010E941C
:103530001B1C80911224813009F064C03DC083308F
:10354000D1F0843019F0823009F052C08091ED231F
:10355000882309F04DC080911524882341F0809183
:1035600012248150823018F481E00E941C18CE0190
:103570000E94242347C08091ED238330C9F58091B8
:1035800006248830A9F581E00E94E706CE010E945A
:10359000A12638C00E9499228091ED23813021F12B
:1035A000833031F580910624833019F0883001F59D
:1035B00006C0CE010E941B1C0E94132023C0CE0116
:1035C0000E947C291FC08091ED23833059F48091A3
:1035D0000624823069F480E00E94E706CE010E9452
:1035E0005E1510C0813021F4CE010E941C1D0AC05E
:1035F000CE010E94E90B06C080911324882309F0B4
:1036000055CF64CFDF91CF911F910F9108956F92A5
:103610007F929F92AF92BF92CF92DF92EF92FF92F2
:103620000F931F93CF93DF93D82E962EC42E59015C
:1036300038018AE90E94F10B7C01009709F49BC0D4
:10364000DC010D911C91DD2021F084E0F8018083E4
:1036500003C08BE0D8018C93F801E182F282E95635
:10366000FF4F84E0808320919C2330919D23C901EA
:103670000296029710F0992069F03897EF01AEE8B2
:10368000B3E288E00D9009928150E1F762E183E2B4
:1036900090EC05C0329322936CE083E290E8CC205A
:1036A00061F02091992330919A236216730629F0D4
:1036B0006E5F3293229370E002C0806471E022E07A
:1036C000C21641F4AC015860D5018D919C91929342
:1036D000829328C0B3E0CB1661F4AC015C603897EC
:1036E0006A5FEF01D50188E00D9009928150E1F702
:1036F00019C02091D5233091D6234FEF2E3F3407A8
:1037000029F0AC015860329322930CC0AC015C608C
:1037100038976A5FEF01A3EEB3E288E00D9009925B
:103720008150E1F73297772339F080919923909176
:103730009A238083918302C0608271828091CF231B
:1037400082938F5F8093CF23529342936293D801E9
:103750001696ED93FC931797C80162E070E041E084
:103760000E946810882321F481E08093132404C010
:10377000C7010E94E90B80E0DF91CF911F910F916B
:10378000FF90EF90DF90CF90BF90AF909F907F9091
:103790006F900895EF92FF920F931F93CF93DF9353
:1037A0007C01E801DC01ED91FC9186E1808361837D
:1037B000428323833483CF010596423069F4158216
:1037C00016821782108611861286138614868881C7
:1037D00099818583968307C0DC01F80188E0019018
:1037E0000D928150E1F786E194E2B7010E941E0C30
:1037F000DF91CF911F910F91FF90EF9008950F935C
:103800001F93AC0180919C2390919D23029620915F
:10381000992330919A23029728F4CA0143E00EE8D5
:1038200013E204C0CA0142E00CE913E20E94CA1B81
:103830001F910F910895CF93DF939C01FC01C081EC
:10384000D181FE0185E18193AEEFB3E288E00D9076
:1038500001928150E1F780910924898786E194E201
:10386000B9010E941E0C1092E3231092E4231092DF
:10387000E5231092E6231092E7231092E82310929A
:10388000E9231092EA238FEF9FEF8093D523909343
:10389000D623DF91CF9108950F931F93DF93CF939A
:1038A000CDB7DEB72E97CDBFDEBF8C01DC014D91C9
:1038B0005C91DE011196FA018EE001900D9281502B
:1038C000E1F7FA010183128383E08083EA56FF4F18
:1038D00080838D85818338979F016EE873E288E04D
:1038E000DB010D90BD01D9010D929D018150C1F701
:1038F0008A81823031F48D819E819293829333E16B
:103900000FC038979F01BE016B5F7F4F88E0DB01DE
:103910000D90BD01D9010D929D018150C1F739E192
:103920008091992390919A23929382938091CF23AF
:1039300082938F5F8093CF232A81922F990F990FC3
:1039400080E08366906C929382933293DA011696AC
:10395000ED93FC9317970E94401FF801808191819D
:1039600062E070E041E00E946810882321F481E069
:10397000809313240CC02B813C81C80161EE4A81E5
:103980008E010B5F1F4F0E94CA1B0E94651F2E965F
:10399000CDBFDEBFCF91DF911F910F910895DC0164
:1039A000ED91FC911197E081E43278F4F0E0EE0FB4
:1039B000FF1FEC5FFD4F259134912115310519F062
:1039C000F901199508950E94E90B08951F938091BC
:1039D0001324882381F48091CC23882361F088EC20
:1039E00093E260E070E00E94B30C009721F00E9427
:1039F000CF1C11E001C010E08091DE23882359F034
:103A00008AED93E260E070E00E94B30C009719F039
:103A10000E94CF1C11E0812F1F910895DC01ED91D0
:103A2000FC91119780E180834183628386E194E277
:103A3000BD010E941E0C08950F931F93DF93CF9337
:103A4000CDB7DEB72897CDBFDEBFAC01DC019C91BE
:103A500011962C9180910824882321F4CA010E9498
:103A6000E90BFAC0E92FF22F8091EF23808F80912C
:103A7000FB23818382508230A8F48091FC239091B3
:103A8000FD23828393839F012C5F3F4F6EEF73E290
:103A900088E0DB010D90BD01D9010D929D0181509F
:103AA000C1F70AC01282138214821582168217820D
:103AB0001086118612861386208D8091B7232817D1
:103AC00061F594818091BA23981739F59581809199
:103AD000BB23981711F596818091BC239817E9F4C0
:103AE00097818091BD239817C1F490858091BE2362
:103AF000981799F491858091BF23981771F4928556
:103B00008091C023981749F493858091C123981719
:103B100021F4CA010E94E90B5AC02093B723848183
:103B20008093BA2385818093BB2386818093BC23B5
:103B300087818093BD2380858093BE238185809378
:103B4000BF2382858093C02383858093C1232091E6
:103B5000F02324871786108A118A128A138A148AFE
:103B6000158A168A8091F1239091F2238587968792
:103B7000233079F49F01215F3F4F63EF73E288E0C8
:103B8000DB010D90BD01D9010D929D018150C1F75E
:103B90000BC0223039F48091F3239091F42387876E
:103BA000908B02C01586168680910724878B8091A2
:103BB0000824818F8091092490910A24828F938F09
:103BC00081E1808386E194E2BA010E941E0C80911B
:103BD000EB2384FF41C08091FB23823071F48091FC
:103BE000FE239091FF2389839A830091FC231091F7
:103BF000FD2380E060E042E021C0833019F5809130
:103C0000FE2389838091FF238A83809100248B8304
:103C1000809101248C83809102248D8380910324E0
:103C20008E83809104248F8380910524888700915E
:103C3000FC231091FD2380E060E043E09E012F5FB4
:103C40003F4F07C080E060E040E020E030E000E06F
:103C500010E00E94071B02C00E94651F2896CDBF7E
:103C6000DEBFCF91DF911F910F910895CF92DF9228
:103C7000EF92FF920F931F93DF93CF93CDB7DEB7F1
:103C80006297CDBFDEBF8C01DE011196FC01808101
:103C900091819C01F90182E101900D928150E1F73F
:103CA0008F8582FD11C08091C423882321F48091E7
:103CB000CD23882349F09E85D801ED91FC9180E1C8
:103CC0008083918381EEB5C0F801C080D1808DE002
:103CD000D6018C938E8513968C93888945E0F42EBB
:103CE000F80EE8E9F0E0E81BF109EC0DFD1D9A8102
:103CF000923051F437E0F32EF80E80919C2390918E
:103D00009D239293829312C0933081F438972DE0D3
:103D1000F22EF80E9F014EE853E288E0DA010D9092
:103D2000AD01D9010D929D018150C1F720919923D8
:103D300030919A238C819D812817390749F48A8113
:103D4000882331F08B81882319F040E450E009C0CA
:103D50008A81882321F0B2E0FB0E3293229340E067
:103D600050E08B81882311F1823039F46F2D6E5F22
:103D70008E819F819293829312C038976F2D685FD6
:103D80009F0196E0E92EF12CEC0EFD1E88E0D70194
:103D90000D907D01D9010D929D018150C1F782E006
:103DA000F82EF60E8C819D81929382938091CF2381
:103DB00082938F5F8093CF23BA0161608F8580FFEC
:103DC00002C0BA0161628889873608F070618B8110
:103DD000382F330F330F20E04A81942F9295990F9B
:103DE000990F907C80E0282B392B262B372B329390
:103DF00022933296F7FC15C03397F082D6011696BF
:103E0000ED93FC9317970E94401FF60101831283E4
:103E1000C60162E070E041E00E946810882381F0F2
:103E200013C09E85D801ED91FC9180E18083918340
:103E300085EE828386E194E2B8010E941E0C14C0D4
:103E400081E08093132410C09E85D801ED91FC91F0
:103E500080E18083918381EE828386E194E2B801E0
:103E60000E941E0C0E94651F6296CDBFDEBFCF91DF
:103E7000DF911F910F91FF90EF90DF90CF90089509
:103E800080911424813051F40E947114853831F0EE
:103E900081E090E00E94C80510921424089580915A
:103EA0001424882389F480E090E00E94C80580E013
:103EB0000E948414882321F481E0809314240895BF
:103EC00081E090E00E94C80508958091B82388237E
:103ED00031F48091D723882311F40E944F1F089555
:103EE0000F931F93182F10921324109212241092E4
:103EF00014241092CD231092CE231092C42310923A
:103F0000B7238FEF8093BA238093BB238093BC2386
:103F10008093BD238093BE238093BF238093C023CF
:103F20008093C1231092D72388E00E94A6140FB774
:103F3000F89480E00E94E70681E00E94E70682E0B4
:103F40000E94E7060FBF112391F11092152482EC15
:103F500097E08093C6239093C72380E098E78093EF
:103F6000DF239093E0231092C32381E08093C52345
:103F700086E08093B9231092E3231092E4231092F9
:103F8000E5231092E6231092E7231092E823109283
:103F9000E9231092EA238FEF9FEF8093D52390932C
:103FA000D6230E941E2C8093CF231092B8231F91FA
:103FB0000F9108950F931F93CF93DF93EC01088126
:103FC00019810E94401FF801018180E090E00E9469
:103FD000C80580E0011181E00E943813182F81E0AC
:103FE00090E00E94C805802F0E94701F0E94651FEC
:103FF00088EC93E20E94BF0C8AED93E20E94BF0C12
:1040000086E194E20E94BF0CE881F981118380E28D
:10401000808386E194E2BE010E941E0CDF91CF9165
:104020001F910F910895DF93CF9300D00F92CDB7DA
:10403000DEB70E94401F8FEF9FEF89839A838B83A7
:104040009C8383E5BE016F5F7F4F0E946B2080E5FC
:10405000BE016D5F7F4F0E946B2081E00E94701F48
:104060000E94651F2496CDBFDEBFCF91DF910895DA
:104070000E945A13882399F40E949109882379F0A9
:1040800081E00E94701F0E94651F88EC93E20E94ED
:10409000170C8AED93E20E94170C80E0089585E8E2
:1040A0000895E82F883030F4E82FF0E0E45BFD4F0E
:1040B000849108958054803228F4F0E0EC5EFD4F46
:1040C00084910895E03F10F480E00895F0E0EC570B
:1040D000FE4F849108951F93CF93DF93182FEB0128
:1040E00080911424813051F40E94401F812FBE0121
:1040F0000E947C11182F0E94651F04C0812F0E940E
:104100007C11182F812FDF91CF911F910895FF927D
:104110000F931F93CF93DF93182FEB01F42E81356C
:1041200020F58E3408F087C0833409F484C08434C9
:1041300060F4853038F4823008F07DC0882309F4BB
:104140007AC02DC0823459F53AC08A3409F43FC090
:104150008B3428F48434B9F1873409F56CC08B347E
:1041600009F44EC08C34D9F452C0873509F463C0C9
:10417000883558F4853530F4833508F05CC08235D5
:1041800071F449C0863559F40CC0893509F453C01F
:10419000893558F08A3561F0803F09F44CC004EF4E
:1041A000ABC0888180931524A6C0888199819FC067
:1041B000888199818093DF239093E0239CC088813C
:1041C0008093C52398C088818093B92394C0888147
:1041D0008093E32389818093E4238A818093E5237C
:1041E0008B818093E6238C818093E7238D8180935C
:1041F000E8238E818093E9238F818093EA237BC01B
:10420000888199818093D5239093D62374C0888127
:104210008093CF2370C06881611161E06093B823FF
:10422000662331F00E94401F86E00E94A61463C0FE
:104230000E94651F60C0812FBE010E947C11082F63
:10424000813871F40E947114812FBE010E947C118B
:10425000082F882309F050C081E08093312303C0E8
:10426000882309F049C08091A423282F30E0809151
:10427000A823482F50E06091AB23CA01861B910907
:10428000281739070CF4C901A82F281B310981E030
:1042900090E002C0880F991F4A95E2F70197289F86
:1042A000A001299F500D389F500D112420E030E0CF
:1042B00070E0E1E0F0E00DC0C901860F971FEF014B
:1042C00002C0CC0FDD1F8A95E2F74C0F5D1F2F5FF8
:1042D0003F4F2A1788F384E190E09C01429FC00180
:1042E000439F900D529F900D1124865F9E4F8093A7
:1042F000C6239093C72300E0FF2049F0809131232B
:10430000882329F080E00E94841410923123802FAA
:10431000DF91CF911F910F91FF900895EF92FF923F
:104320000F931F937C01FC0100811181B8016E5F26
:104330007F4FF801818141E00E948720F80191813F
:1043400092839FE19083818386E194E2B7010E948A
:104350001E0C1F910F91FF90EF900895CF93DF9364
:10436000AC01DC01ED91FC919F012D5F3F4F8181FC
:104370008C3409F485C08D3438F5853009F464C077
:10438000863088F4823009F4ACC0833030F488235E
:1043900009F497C08130E9F597C0833009F4A4C0CF
:1043A0008430B9F54EC0823409F459C0833430F4F6
:1043B000863009F44EC0873061F54EC08A3409F466
:1043C00051C08B3431F557C0863529F1873588F4D3
:1043D000803509F45EC0813530F48E3409F453C061
:1043E0008F34B9F453C0823509F458C0833589F449
:1043F00058C08935D9F08A3528F4873579F0883561
:1044000041F40FC08D35D1F0803F09F451C08A3599
:1044100081F094EF6DC08091152468C08091A8232D
:1044200065C08091C6239091C7233FC08091AC2383
:104430005DC08091DF239091E02337C08091C3233A
:1044400055C08091982352C08091962390919723D4
:104450002CC08091AE234AC08091A52347C0809193
:10446000C52344C0E901A3EEB3E288E00D900992B0
:104470008150E1F73CC08091D5239091D62315C09F
:104480008091CF2333C08091A42330C08091AB238F
:104490002DC08091992390919A2307C08091B823D1
:1044A00025C080919C2390919D23838394831FC07A
:1044B000E901AEE8B3E288E00D9009928150E1F79E
:1044C00016C08091A62312C08091B2239091B3238D
:1044D000A091B423B091B52383839483A583B6833D
:1044E00006C080918D2302C080919B23838390E03E
:1044F000818182838EE18083918386E194E2BA0197
:104500000E941E0CDF91CF910895CF93DF93EC01B1
:10451000E881F98183E280836183662311F00E9440
:10452000651F86E194E2BE010E941E0CDF91CF91CF
:1045300008958091ED238823E1F080E00E94E70652
:104540008091ED23813031F480910824882311F08B
:1045500060E001C06BEE8091C423823031F4809121
:10456000D3239091D4230E94852210921324109279
:10457000C42308958091C423823039F48091D323D9
:104580009091D4236BEE0E9485221092C423109246
:1045900013240895CF92DF92EF92FF920F931F930F
:1045A000DF93CF93CDB7DEB72897CDBFDEBFD82E30
:1045B000C92E8091C4238823B1F58091CD2388230F
:1045C00091F50E94401FED2CFC2CD701ED91FC9140
:1045D00081819F012C5F3F4F823031F4848195812E
:1045E00089839A8342E00DC0AE014F5F5F4F88E040
:1045F000D9010D909D01DA010D92AD018150C1F7F5
:1046000043E00281138181E060E09E012F5F3F4F14
:104610000E94071B882311F4C70107C0D092D3233F
:10462000C092D42305C08D2D9C2D61EE0E94852261
:104630002896CDBFDEBFCF91DF911F910F91FF90E4
:10464000EF90DF90CF9008955F926F927F928F925C
:104650009F92AF92BF92CF92DF92EF92FF920F9311
:104660001F93DF93CF93CDB7DEB76197CDBFDEBF8A
:10467000BC014091CD23423011F0443069F4809167
:10468000C523882349F0E091D323F091D4232081DE
:104690003181D901199604C0A0E0B0E020E030E0FB
:1046A0005091FB2359830091FC231091FD230A8331
:1046B0001B83523069F41E821F82188619861A865F
:1046C0001B868091FE239091FF238C839D8318C0CD
:1046D0008091FE238C838091FF238D838091002421
:1046E0008E83809101248F8380910224888780911A
:1046F00003248987809104248A87809105248B87ED
:104700009090A6239C86B0909823BD868091092422
:1047100090910A248E879F87188A80910B2487FFA7
:1047200002C081E0888B80910724898B423019F088
:10473000443009F06FC08091C523882309F46AC012
:10474000F901F084EC81FD815C806D807E808F803A
:10475000A884C984DA84EB8440E049C011968D9125
:104760009C9112970817190709F03FC08C915817B0
:10477000E1F51B968C911B979816B9F51C968C91B8
:104780001C97B81691F5523041F413968D919C9177
:104790001497E817F90749F53DC013968C911397C4
:1047A000851519F514968C9114978615F1F41596C4
:1047B0008C9115978715C9F416968C9116978815C4
:1047C000A1F417968C9117978A1579F418968C9105
:1047D00018978C1551F419968C9119978D1529F409
:1047E0001A968C911A978E15A9F04F5F51964F1516
:1047F00008F4B4CF59C0FD01DE01119681E10D909E
:1048000001928150E1F7D90118968C9118978F5F2A
:1048100018968C9390910C2480910F24882321F476
:104820008091C5238823E1F5DB01ED91FC9187E1BF
:1048300080838091EF2381839F012E5F3F4FAE01E4
:104840004F5F5F4F81E1DA010D90AD01D9010D920B
:104850009D018150C1F780910C24838B892F877033
:1048600059F4892F90E08077907024E09595879592
:104870002A95E1F7882331F080910D2490910E2440
:10488000848B958B80910F24868B8091102490913E
:104890001124878B908F86E194E20E941E0C09C040
:1048A000CB010E94E90B05C0E4E0EF1508F4B2CF9C
:1048B000A2CF6196CDBFDEBFCF91DF911F910F9147
:1048C000FF90EF90DF90CF90BF90AF909F908F9030
:1048D0007F906F905F900895EF92FF920F931F93D8
:1048E000CF93DF93182FEB01109213248091CD23E7
:1048F000823021F48881873051F405C0833039F447
:104900008881863021F4812F0E94DC28A5C088810F
:10491000843009F451C0853030F4813009F183309E
:1049200009F098C010C08B3009F446C08D3021F0DA
:10493000853009F08FC087C089819A81612F4B81B2
:104940000E940E1D87C089819A81612F0E94FF1BE2
:1049500080911224813009F07DC00E9413207AC01A
:10496000193E11F0113E41F489819A81612F4FEF78
:104970005FEF0E94C6146EC08093C4234091DF2372
:104980005091E02360E070E094E0440F551F661FF3
:10499000771F9A95D1F780E020E030E008E115E13B
:1049A000EE24FF240E94F607882309F455C080E016
:1049B00090E00E94181550C089819A810E94E90BED
:1049C0008091C423813009F447C088818430A1F4E8
:1049D000173881F0E091D323F091D423A081B181E5
:1049E00083E28C9311961C9386E194E2BF010E94AE
:1049F0001E0C30C082E005C0193E61F1113E51F13C
:104A000083E08093C4234091C6235091C72360E084
:104A100070E084E0440F551F661F771F8A95D1F719
:104A200080E020E030E00AEB12E2EE24FF240E9456
:104A3000F60791E090931324882371F080E090E0D2
:104A40000E94BA2209C089819A810E94E90B8EEEE8
:104A50000E9437290E94651FDF91CF911F910F910E
:104A6000FF90EF900895EF92FF920F931F93109293
:104A7000D7238091B8238823C9F4809114248823F4
:104A8000A9F488E00E94A614883071F082E040E822
:104A900050E060E070E020E030E003E315E2EE2457
:104AA000FF240E94F60702C00E94651F1F910F910C
:104AB000FF90EF900895DF92EF92FF920F931F9374
:104AC000CF93DF93EC01E881F981E680F7800085E0
:104AD0001185E114F1040105110539F480E090E03D
:104AE0000E943325E881F98147C08091C42388233F
:104AF000F1F58091CD238823D1F50E94401F86E0F7
:104B00000E94A614D82E81E08093D72382E00E94D1
:104B10001906882319F082E00E94E70684E0EE0C73
:104B2000FF1C001F111F8A95D1F782E0B801A70171
:104B300020E030E003E315E2EE24FF240E94F607B4
:104B4000882381F0E881F98181E2808388EE818386
:104B500086E194E2BE010E941E0C80E090E00E947B
:104B6000332512C0E881F98186E0D81629F081E268
:104B7000808382EF818303C081E28083118286E19A
:104B800094E2BE010E941E0CDF91CF911F910F9104
:104B9000FF90EF90DF900895BC0186E194E20E94BF
:104BA0001E0C8091C2238093382384E068E373E273
:104BB0000E946B208091D2238093372380E067E3AB
:104BC00073E20E946B201092CD230E94651F08950E
:104BD000CF93DF93E091E123F091E223C081D18173
:104BE000DE01A956BF4FE983FA83882339F087E0B5
:104BF00088838C934AE023E038E013C086E0888302
:104C00008C9318979D014EE853E288E0FA010190D9
:104C1000AF01F90101929F018150C1F742E123E404
:104C200038ECFD018FEF9FEF929382933297808350
:104C3000918315978091CF238C938F5F8093CF239F
:104C40003E932E93FD014293EE83FF83CE0162E0FB
:104C500070E040E00E946810882311F080E003C0FB
:104C600081E080931324DF91CF910895EF92FF921A
:104C70000F931F93DF93CF930F92CDB7DEB7909131
:104C8000CD23933009F443C0943041F0923009F0C1
:104C900050C0882309F048C081E03BC0882309F058
:104CA00043C086E00E94A614863021F540EC53E014
:104CB00060E070E00090392304C0440F551F661F68
:104CC000771F0A94D2F740545C4F6F4F7F4F84E0B8
:104CD000440F551F661F771F8A95D1F781E020E0AA
:104CE00030E003EC17E2EE24FF240E94F60788234D
:104CF00001F113C0809137238F5F80933723609138
:104D0000D3237091D42382E00E94F92612C0882315
:104D100059F40E94E825882361F481E08983CE015B
:104D200001960E94C32705C0809137238F5F80932F
:104D300037230F90CF91DF911F910F91FF90EF904C
:104D400008950F931F938C018091E1239091E223AA
:104D50000E94E90B1092E1231092E223A091D32349
:104D6000B091D423ED91FC9111978BE18083118256
:104D700083E082831482158216821782108686E170
:104D800094E2BD010E941E0C1092CD230E94651F6B
:104D9000C8010E94E90B80E569E074E20E946B2083
:104DA00080910E2490910F248F5F9F4F29F083E50F
:104DB0006EE074E20E946B2080910B2490910C2491
:104DC0008093D5239093D6238091EB239091EC236D
:104DD00094FF05C084E060E174E20E946B2080E0F3
:104DE0006DE074E20E946B200E9436261F910F91A5
:104DF0000895EF92FF921F93CF93DF93182F7B01BB
:104E0000FB01C081D18184E068E373E20E946B20E2
:104E10004091CD235091C5232091372355C0423076
:104E200011F0443031F4552321F08885853008F0A5
:104E30004EC0133021F48885882309F087C0322FB3
:104E40003F5F8C819D81AE81BF81022E04C0B695EB
:104E5000A795979587950A94D2F781709070892BC2
:104E600091F120933723113011F482E003C0123006
:104E700021F484E08093CD2304C0133011F4109307
:104E8000CD2380E067E373E20E946B20182F882314
:104E9000B1F08091E1239091E2230E94E90B1092FE
:104EA000E1231092E2230E94651F8AEE898318860F
:104EB00086E194E2B7010E941E0C1092CD23812F4F
:104EC0000E9436265AC0232F2B3108F4A8CF2093F6
:104ED0003723123041F11330D9F1113009F04DC0B0
:104EE0008091E1239091E2230E94E90B1092E1234B
:104EF0001092E2238091C523882339F0888585307C
:104F000010F08AEF05C0882311F0198202C08AEEE2
:104F1000898380E568ED73E20E946B208091D32342
:104F20009091D42328C0552339F08885853010F01E
:104F30008AEF05C0882311F0198202C08AEE8983A6
:104F400080E568ED73E20E946B2014C02093372344
:104F50008091E1239091E2230E94E90B1092E123DA
:104F60001092E2238885882311F0198202C08AEE0C
:104F700089831886C7010E94CC25DF91CF911F91AC
:104F8000FF90EF900895CF93DF93C091D323D091FA
:104F9000D423988129818091CD238250833020F5BC
:104FA000E92FF22F21E030E040E050E0009037237D
:104FB00004C0220F331F441F551F0A94D2F72095B7
:104FC00030954095509584819581A681B781822343
:104FD0009323A423B52384839583A683B7838091E9
:104FE0003223BE010E94F926DF91CF910895CF921E
:104FF000DF92EF92FF920F931F93DF93CF930F9265
:105000000F92CDB7DEB7D82EC92E082F192FD80191
:10501000ED91FC918091A6238093D22380919823D7
:105020008093C223868180933923818180933223A8
:1050300082819381A481B58180933323909334231B
:10504000A0933523B0933623278120933823D09221
:10505000D323C092D4238BE1808380913223828337
:105060008091332390913423A0913523B09136233E
:1050700084839583A683B7832383108611868091CA
:10508000C423882341F48091CD23882321F4809187
:105090003223882341F488EE818386E194E2B801CB
:1050A0000E941E0C7EC00E94401FF801E080F1802B
:1050B0008BE08093372380913223813008F466C0DF
:1050C000833020F0833009F061C04BC08FEF9FEF39
:1050D00089839A838091992390919A238093D823EE
:1050E0009093D92380E5BE016F5F7F4F0E946B20B4
:1050F00080913223813021F4D092E123C092E223C7
:105100008AE90E94F10B8093D3239093D4230097D4
:10511000E9F180913223823019F4C8010E94E90B31
:105120002091D3233091D423D901ED91FC918BE1CF
:10513000808380913223828380913823838380917E
:10514000332390913423A0913523B0913623848367
:105150009583A683B7831086118680913223B90187
:1051600012C08AE90E94F10B8093E1239093E2231D
:10517000009721F488EEF70181830CC06091D3235E
:105180007091D42383E00E94F9260BC088EED701EA
:1051900011968C9386E194E2B8010E941E0C0E9445
:1051A000651F0F900F90CF91DF911F910F91FF908E
:1051B000EF90DF90CF900895EF92FF920F931F939F
:1051C000DF93CF930F92CDB7DEB79091CF239F5F40
:1051D0009093CF238823B1F58091CD23823091F431
:1051E00040EC53E060E070E00090392304C0440FCD
:1051F000551F661F771F0A94D2F740545C4F6F4FBC
:105200007F4F07C08091DF239091E023AC0160E0E5
:1052100070E094E0440F551F661F771F9A95D1F7F1
:1052200081E020E030E003EC17E2EE24FF240E944E
:10523000F6078823A1F081E08983CE0101960E94C0
:10524000C3270DC0809137238F5F809337236091F0
:10525000D3237091D423809132230E94F9260F909A
:10526000CF91DF911F910F91FF90EF9008952EE362
:1052700033E220933A2330933B239DE190933E23E6
:1052800080933F238091CD23882379F08091D82388
:105290009091D92380934023909341238091D223EE
:1052A000809342238091C2230EC0809199239091D4
:1052B0009A2380934023909341238091A623809347
:1052C0004223809198238093432386E194E26AE30A
:1052D00073E20E941E0C80911224823050F480915F
:1052E000CD23882331F48091C423882311F40E94B4
:1052F000651F1092CE2308950F931F938C018FEE9C
:105300000E943729C8010E94E90B80E569E074E238
:105310000E946B2080910E2490910F248F5F9F4FED
:1053200029F083E56EE074E20E946B2080910B24EB
:1053300090910C248093D5239093D6238091EB23D6
:105340009091EC2394FF05C084E060E174E20E9438
:105350006B2080E06DE074E20E946B201F910F9142
:105360000895CF93DF93EC018AE90E94F10BDC01F1
:10537000009711F480E018C0ED91FC9111978EE038
:1053800080838881818389819A8182839383349603
:10539000239688E0099001928150E1F788EC93E22E
:1053A000BD010E941E0C81E0DF91CF910895BF9254
:1053B000CF92DF92EF92FF920F931F93182F6A0103
:1053C0007B01B22E8AE90E94F10BDC01009711F4F7
:1053D00080E012C0ED91FC9111978BE080831183E6
:1053E000C282D382E482F582B682078388EC93E29C
:1053F000BD010E941E0C81E01F910F91FF90EF9064
:10540000DF90CF90BF9008957F928F929F92AF923E
:10541000BF92CF92DF92EF92FF920F931F93782E5D
:105420006A017B01480159018AE90E94F10BDC0104
:10543000009711F480E014C0ED91FC9111978AE07F
:1054400080837182C282D382E482F58286829782CF
:10545000A086B18688EC93E2BD010E941E0C81E01B
:105460001F910F91FF90EF90DF90CF90BF90AF9082
:105470009F908F907F9008951F93182F8AE90E9424
:10548000F10BDC01009711F480E00CC0ED91FC9170
:10549000119788E08083118388EC93E2BD010E941C
:1054A0001E0C81E01F9108951F93182F8AE90E9416
:1054B000F10BDC01009711F480E00CC0ED91FC9140
:1054C000119789E08083118388EC93E2BD010E94EB
:1054D0001E0C81E01F9108950F931F93CF93DF93CC
:1054E000EC01162F042F8AE90E94F10B9C01009712
:1054F00011F480E01FC0DC01ED91FC9185E0808318
:1055000014878881818389819A8182839383AF0103
:105510004C5F5F4FDE01139688E00D90EA0109921F
:10552000AE018150D1F7058788EC93E2B9010E9462
:105530001E0C81E0DF91CF911F910F910895FF9292
:105540000F931F93CF93DF93182FF62EEA01022FAC
:105550008AE90E94F10B9C01009711F480E020C0C1
:10556000DC01ED91FC9181E080831183888183834C
:1055700089819A8184839583AF014A5F5F4FDE0101
:10558000139688E00D90EA010992AE018150D1F79F
:105590000687F28288EC93E2B9010E941E0C81E03A
:1055A000DF91CF911F910F91FF900895AF92BF921D
:1055B000CF92DF92EF92FF920F931F93CF93DF93DF
:1055C000D82EEB01F42EB22EA32EC02E86E7841720
:1055D00008F445C08AE90E94F10B8C01009709F498
:1055E0003EC0DC01ED91FC9183E08083D182288173
:1055F000228389819A8183839483CF010596AE01AA
:105600004D5F5F4F223069F4158216821782108633
:1056100011861286138614868B819C8185839683DE
:1056200007C0EC01DA0188E00D9009928150E1F7A2
:10563000C586E686F78628E930E02F1931092E0F56
:105640003F1FC9016B2D7A2D4F2D50E00E942E2C4B
:1056500088EC93E2B8010E941E0C81E001C080E05A
:10566000DF91CF911F910F91FF90EF90DF90CF903E
:10567000BF90AF900895FF920F931F93CF93DF9346
:10568000182F062FF72E8AE90E94F10BEC010097E4
:1056900011F480E016C0812F0E945120482FE8812C
:1056A000F98186E0808311833296CF01602F7F2DB0
:1056B00050E00E942E2C88EC93E2BE010E941E0C4A
:1056C00081E0DF91CF911F910F91FF9008951F937B
:1056D0000E94E61C182F86E194E260E070E00E94D0
:1056E000B30C009719F00E94CF1C11E00E94080F24
:1056F0000E94B705812F1F91089586E194E20E94D0
:10570000170C0E943820089508950895089508956B
:1057100008950895089508950895AA1BBB1B51E1AB
:1057200007C0AA1FBB1FA617B70710F0A61BB70B11
:10573000881F991F5A95A9F780959095BC01CD01B6
:105740000895A1E21A2EAA1BBB1BFD010DC0AA1FC2
:10575000BB1FEE1FFF1FA217B307E407F50720F0DA
:10576000A21BB30BE40BF50B661F771F881F991F55
:105770001A9469F760957095809590959B01AC019E
:10578000BD01CF010895AF92BF92CF92DF92EF9209
:10579000FF920F931F93CF93DF93EC01A880B98002
:1057A000CA80DB80A114B104C104D10441F484E2B5
:1057B000A82E89EDB82E8BE5C82E87E0D82EC6011D
:1057C000B5012DE133EF41E050E00E94DC3027EAE3
:1057D00031E440E050E00E94BD307B018C01C60105
:1057E000B5012DE133EF41E050E00E94DC30CA0109
:1057F000B9012CEE34EF4FEF5FEF0E94BD306E0D1C
:105800007F1D801F911F97FF04C061507040804032
:105810009048688379838A839B839B013F77C90182
:10582000DF91CF911F910F91FF90EF90DF90CF907C
:10583000BF90AF9008950E94C32B089589E990E22C
:105840000E94C32B0895A0E0B0E08093992090932C
:105850009A20A0939B20B0939C200895FB01DC012B
:1058600002C001900D9241505040D8F708950F9317
:105870001F93CF93DF938C01EB01009731F46115F7
:10588000710519F420E030E038C081E090E06EE06E
:1058900070E00E94F52EFC019C01009771F180E8F8
:1058A0008383209771F0C287D38781E883838091B7
:1058B0001B2490911C24892B21F4E0931B24F0934A
:1058C0001C2401151105C9F00087118783818260AE
:1058D000838380911D2490911E24892B71F4E09381
:1058E0001D24F0931E2480911F2490912024892B45
:1058F00021F4E0931F24F0932024C901DF91CF917C
:105900001F910F910895DF93CF93CDB7DEB7FE01BE
:1059100036966191719180911D2490911E24AF0162
:105920000E94F52CCF91DF9108950F931F93CF9391
:10593000DF938C01E0911D24F0911E24838181FF6F
:1059400021C0C0E0D0E00DC0E0911D24F0911E24E4
:1059500020853185BF01F9011995892B11F0CFEF11
:10596000DFEFF80181918F01882371F7E0911D2409
:10597000F0911E24208531858AE0BF01F901199537
:10598000892B11F0CFEFDFEFCE01DF91CF911F9187
:105990000F9108950F931F93DF93CF93CDB7DEB789
:1059A0002E97CDBFDEBF0E891F8986E08C830983C9
:1059B0001A838FEF9FE78D839E839E01265E3F4F64
:1059C000CE010196688D798DA9010E94F52C2F8159
:1059D0003885020F131FF80110822E96CDBFDEBF4F
:1059E000CF91DF911F910F9108952F923F924F9287
:1059F0005F926F927F928F929F92AF92BF92CF925F
:105A0000DF92EF92FF920F931F93DF93CF93CDB767
:105A1000DEB72B97CDBFDEBF3C012B015A01FC0145
:105A200016821782838181FD03C06FEF7FEFC6C1AD
:105A30009AE0892E1E010894211C311CF301238158
:105A4000F20123FD859123FF81912F01882309F421
:105A5000B2C1853239F423FD859123FF81912F0155
:105A6000853229F490E0B3010E943330E7CF982FBC
:105A7000FF24EE249924FFE1FF15D0F09B3269F05A
:105A80009C3228F4903259F0933291F40EC09D323A
:105A900049F0903369F441E024C052E0F52A84E0F3
:105AA000F82A28C098E0F92A25C0E0E1FE2A22C0A1
:105AB000F7FC29C0892F80538A3070F4F6FE05C0A8
:105AC000989C902C1124980E15C0E89CE02C112471
:105AD000E80EF0E2FF2A0EC09E3229F4F6FC6BC1FC
