:100000000C9402010C9428010C94F3050C9429061D
:100010000C9428010C9428010C9428010C942801BC
:100020000C9428010C9428010C9428010C942801AC
:100030000C9428010C9428010C94FA090C942801C2
:100040000C94360A0C9428010C9428010C94280175
:100050000C9428010C9428010C9428010C9428017C
:100060000C9428010C9428010C9428010C9428016C
:100070000C9428010C9428010C9428010C9428015C
:100080000C9428010C9428010C9428010C9428014C
:100090000C9428010C9428010C9428010C9428013C
:1000A0000C9428010C9428010C9428010C9428012C
:1000B0000C9428010C9428010C9428010C9428011C
:1000C0000C9428010C9428010C9428010C9428010C
:1000D0000C9428010C9428010C9428010C942801FC
:1000E0000C9428010C9428010C9428010C942801EC
:1000F0000C9428010C9428010C9428010C942801DC
:100100000C9428010C9428010C9428010C942801CB
:100110000C9428010C9428010C9428010C942801BB
:100120000C9428010C9428010C9428010C942801AB
:100130000C9428010C9428010C9428010C9428019B
:100140000C9428010C9428010C9428010C9428018B
:100150000C9428010C9428010C9428010C9428017B
:100160000C9428010C9428010C9428010C9464052B
:100170000C9428010C9496050C9428010C942801E9
:100180000C9428010C9428010C9428010C9428014B
:100190000C9428010C9428010C9428010C9428013B
:1001A0000C9428010C9428010C9428010C9428012B
:1001B0000C9428010C9428010C9428010C9428011B
:1001C0000C9428010C9428010C9428010C9428010B
:1001D0000C9428010C9428010C9428010C942801FB
:1001E0000C9428010C9428010C9428010C942801EB
:1001F0000C94280103020201010000FFFEFDFCFB3C
:10020000F9F7F4EF11241FBECFEFDFE3DEBFCDBF60
:1002100000E00CBF18BE19BE1ABE1BBE11E2A0E062
:10022000B0E2E6E9FCE300E00BBF02C007900D92EC
:10023000AE33B107D9F71BBE14E2AEE3B1E201C0A1
:100240001D92A339B107E1F70E94AA020C94491E3E
:100250000C94000010923F210895CF93DF93CAE0E1
:10026000D0E00AC08FEF9FEF0E94440781E090E04A
:1002700062E070E00E94DB0A21978FEFCF3FD80742
:1002800089F780911021882329F081E090E060E0D7
:1002900070E004C081E090E061E070E00E94DB0A61
:1002A000DF91CF910895882391F4809110218823C4
:1002B00019F080E090E202C08BE190E20E94EE191A
:1002C00082E090E062E070E00E94DB0A02C00E94DF
:1002D0002D0110923E2108954F925F926F927F926E
:1002E0008F929F92AF92BF92CF92EF920F931F93F4
:1002F000DF93CF93CDB7DEB7CF5FD040CDBFDEBFAA
:100300002C01DC0116966D907C901797F301C0804C
:10031000F5EFCF0E8301065F1F4F809110218823D8
:1003200009F4BFC00F920F9289E390E2ADB7BEB758
:1003300011968D939C9312970E94D5190F900F9050
:10034000B3E2CB1621F4F30182858E3229F00E94AC
:100350002D0187E490E2BBC0ACE0B2E2F3013F962E
:1003600088E001900D928150E1F78EE2809318228F
:1003700088249924540144E064E070E04150242F23
:1003800030E0FB01E21BF30BE00FF11F808190E0F6
:10039000F3E0220F331FFA95E1F702C0880F991F8F
:1003A0002A95E2F7AA2797FDA095BA2F882A992ABD
:1003B000AA2ABB2A442311F7F80181819281A381E3
:1003C000B4818093142290931522A0931622B093A7
:1003D00017224091112150911221C8016BE072E265
:1003E0002EE00DE0E6E0EE2E38E0C32E0E94D30DA5
:1003F000882351F50F920F9289E690E2ADB7BEB710
:1004000011968D939C9312970E94D51983010F909A
:100410000F908DE0A82EB12CA60CB71CF801808D92
:1004200060E070E00E9489040F5F1F4F0A151B05F2
:10043000A9F78AE090E00E94E71982E090E062E08C
:1004400070E00E94DB0A28C00E942D018DB79EB784
:1004500008978DBF9EBFEDB7FEB731968E010F5F37
:100460001F4FADB7BEB711960D931C93129782E83C
:1004700090E28283938384829582A682B7820E94CF
:10048000231AEDB7FEB73696EDBFFEBF0183128388
:100490000E94D5190F900F901092112110921221E5
:1004A0003FC00F920F9288E990E2ADB7BEB71196A8
:1004B0008D939C9312970E94D5190F900F90F30182
:1004C00082858E3239F40E942D0187EA90E20E94E3
:1004D000EE1926C00F920F9286EC90E2ADB7BEB730
:1004E00011968D939C9312970E94D5198301EE2447
:1004F0000F900F9007C0F801818560E070E00E94C6
:100500008904E3940F5F1F4FEC14A8F38AE090E096
:100510000E94E71982E090E062E070E00E94DB0A4E
:10052000D20111968D919C9112970E94300CC1506E
:10053000DF4FCDBFDEBFCF91DF911F910F91EF90C5
:10054000CF90BF90AF909F908F907F906F905F9073
:100550004F9008952F923F924F925F926F927F92A9
:100560008F929F92AF92BF92CF92DF92EF92FF92C3
:100570000F931F93DF93CF9300D0CDB7DEB70E94C8
:10058000FC16882311F00E94F9060E94D50A80E02B
:1005900090E060E070E00E94DB0A81E090E061E0C2
:1005A00070E00E94DB0A82E090E061E070E00E946F
:1005B000DB0A789481E00E94DB05882311F00E9419
:1005C000F90689E894E060E774E00E9489190E94C6
:1005D000280B80E090E00E942B0B892B11F41092E5
:1005E000102180911021882349F081E090E060E0A3
:1005F00070E00E94DB0A85ED90E202C082EF90E29B
:100600000E94EE190E94DC0E8AEB9BEA8A839B8390
:100610008E010E5F1F4F80E5B8010E94431581E0F7
:1006200090E08A839B8383E5B8010E94431584E1AF
:10063000898380E0BE016F5F7F4F0E9443150E9457
:100640005C1980931B2284E491E28093DE219093D5
:10065000DF2186E00E94311810EE812E11E2912EEA
:10066000B1E0AB2EB12CA8E02A2E312CFCE04F2EAD
:10067000512CE4E06E2E712C0E940A070E94411258
:1006800080913E218823C1F780913F218823A1F7E3
:100690008091132190911421019709F0FBC080E013
:1006A00090E00E942B0B892B39F780911021882331
:1006B00009F492C0AEEEB1E2E5E1F1E28DE0019025
:1006C0000D928150E1F7EBE0F2E270E1C72E11925A
:1006D000CA94E9F768E0C62ECA940C2D10E07101A7
:1006E000E01AF10A8BE092E2E80EF91E53E0000FE7
:1006F000111F5A95E1F720916024309161244091B7
:1007000062245091632460916424709165248091E7
:100710006624909167240E945218F7012083CC2010
:10072000D9F6FEE2F0931822F093E021A5EEB1E2B3
:10073000ECE0F2E288E001900D928150E1F7109236
:10074000ED2114E01150212F30E0C90143E0880F62
:10075000991F4A95E1F7F201E21BF30BE55FFD4DAE
:10076000409140215091412160914221709143215B
:100770006A017B0104C0F694E794D794C7948A95E4
:10078000D2F7C082F301E21BF30BE052FE4DC082B0
:100790001123C1F64F5F5F4F6F4F7F4F4093402152
:1007A0005093412160934221709343214091112144
:1007B0005091122180EE91E26BE072E22EE00DE0AA
:1007C00036E0E32ECC240E94D30D1092112110921A
:1007D000122103E2F02E0BC0A0EEB1E2E5E1F1E25E
:1007E0008DE001900D928150E1F71DE0F12E4F2D2B
:1007F00050E088E990E0841B950B0091DE21109178
:10080000DF21080F191FC801B40150E00E947919B7
:10081000F801B292A292B292A29232978AEB9BEA2C
:10082000808391830750104080911B22F8018083C0
:100830008F5F80931B22B1E6CB2EB8E8DB2ED292DD
:10084000C292ABE0DA2EFD0CF2928F01E091DE2134
:10085000F091DF2106831783CC24C394C0923E21FC
:10086000CF0162E070E041E00E94A113C0923F21FD
:1008700080E040E45DE063E070E020E030E00AE228
:1008800011E0EE24FF240E94060910921321109219
:100890001421F2CE80E090E00E942B0B8130910574
:1008A00009F0EACE8093132190931421E5CEDF93D3
:1008B000CF930F92CDB7DEB781E0BE016F5F7F4F60
:1008C00041E00E94C905813019F02FEF3FEF03C0CE
:1008D0008981282F30E0C9010F90CF91DF910895D1
:1008E0000F931F93DF93CF930F92CDB7DEB78E0197
:1008F0000F5F1F4F81E0B80141E00E94C9058823C6
:10090000C9F3898190E00F90CF91DF911F910F91F2
:1009100008950F931F93DF93CF930F92CDB7DEB758
:1009200089838A3071F48DE089838E010F5F1F4FB8
:1009300081E0B80141E00E94D2058823C9F38AE032
:1009400089838E010F5F1F4F81E0B80141E00E9453
:10095000D2058823C9F380E090E00F90CF91DF911A
:100960001F910F9108959B01AC016050774F824C0D
:100970009F4FF2E0660F771F881F991FFA95D1F7F6
:10098000E3E0220F331F441F551FEA95D1F70E9461
:10099000DF1821503040E0E6F6E080E8818380E413
:1009A0008283E0EBF9E0378326838CE1848383E064
:1009B00085838CE383830895DC018091B309837F71
:1009C000E0EBF9E0838320914E2480914F2482173D
:1009D00030F0275F922F981B892F295005C0215096
:1009E000922F981B892F2F5F482F681708F4462FE6
:1009F000342F12C090914F24E92FF0E0E65CFB4DBC
:100A00008C918083993019F410924F2403C09F5F1A
:100A100090934F2431501196332361F780915224E3
:100A2000882351F4E22FF0E0E65CFB4D8081809357
:100A3000B00981E0809352248091B3098C60E0EB8F
:100A4000F9E08383842F0895DC012091532422232D
:100A500011F480E008958091B3098F7CE0EBF9E018
:100A600083832A3058F080915124809350248AE067
:100A7000809353246A3020F02AE003C0261708F040
:100A8000262F322F17C0E0915024F0E0E65CFB4D9A
:100A900082858C93909150249F5F909350248091F5
:100AA00053248150809353249A3011F4109250248F
:100AB00011963150332339F78091B3098063E0EB0D
:100AC000F9E08383822F08951F920F920FB60F9241
:100AD00008B60F920BB60F92112418BE1BBE8F934F
:100AE0009F93EF93FF9390915124809153248F5FB4
:100AF000809353248091B009E92FF0E0E65CFB4D30
:100B00008287993019F41092512403C09F5F90930B
:100B10005124FF91EF919F918F910F900BBE0F90F9
:100B200008BE0F900FBE0F901F9018951F920F9246
:100B30000FB60F9208B60F920BB60F92112418BE83
:100B40001BBE8F93EF93FF9380914E24893019F44D
:100B500010924E2403C08F5F80934E24E0914E2468
:100B600080914F24E81739F0F0E0E65CFB4D80817E
:100B70008093B00902C010925224FF91EF918F919F
:100B80000F900BBE0F9008BE0F900FBE0F901F90DE
:100B90001895813011F080E00895CB01642F0E94F8
:100BA00024050895813011F080E00895CB01642F71
:100BB0000E94DC040895813011F085E8089560E812
:100BC00075E280E090E00E94B30480E00895809395
:100BD0001C2290931D22E0E4F6E091E0928B84E0E9
:100BE0008287948708951F920F920FB60F9208B6CE
:100BF0000F9209B60F920BB60F92112418BE19BEB0
:100C00001BBE2F933F934F935F936F937F938F936D
:100C10009F93AF93BF93EF93FF93E0911C22F091CA
:100C20001D221995FF91EF91BF91AF919F918F91E7
:100C30007F916F915F914F913F912F910F900BBEDC
:100C40000F9009BE0F9008BE0F900FBE0F901F901F
:100C500018951F920F920FB60F9208B60F9211249B
:100C600018BE0F9008BE0F900FBE0F901F901895E2
:100C7000BF92CF92DF92EF92FF920F931F93CF9389
:100C8000DF93892B11F088EE31C0CA01860F971FC0
:100C90008150984010F085E829C0A0E0B0E0C0EC99
:100CA000D1E0E6E0BE2E98EDC92ED12C81E0E82EF1
:100CB000F12C0BEC11E016C08091CF0187FDFCCF29
:100CC0001A8279836093C001BA86C601F80184BF95
:100CD000E0828091C401F901EA0FFB1F8083119625
:100CE0006F5F7F4FA417B50738F380E0DF91CF9196
:100CF0001F910F91FF90EF90DF90CF90BF900895DC
:100D00004F925F926F927F928F929F92AF92BF921B
:100D1000CF92DF92EF92FF920F931F93CF93DF93C7
:100D20009C016B015A01CB01820F931F81509840A7
:100D300010F085E84DC0A0E0B0E0C0ECD1E040ECA0
:100D400051E076E0672E68EDE62EF12C01E010E030
:100D50006BEC71E093E3792E85E3882EF6E39F2E0A
:100D600033C08091CF0187FDFCCFFA01128231831D
:100D7000522E2093C0016286C701FB0184BF00830D
:100D80008091C401F501EA0FFB1F40808415C9F072
:100D90008091CF0187FDFCCF8091CF0181FF06C0FC
:100DA000FA019286C701FB0184BF00837A865092C4
:100DB000C00119821A824C828A86C701FB0184BF56
:100DC00000832F5F3F4F1196AC15BD0550F280E0B8
:100DD000DF91CF911F910F91FF90EF90DF90CF9017
:100DE000BF90AF909F908F907F906F905F904F904B
:100DF00008951F93CF93DF93E0E8F6E014828FEF1E
:100E00008183C0E8D6E01FEF8FEF9FEF0E94440779
:100E10001F83FACF0E94CD0808950E948E0A0E9477
:100E2000A90A0E945E0B0E944E0A0E94810A0E943B
:100E3000880A80E00895892B29F488E080930008CF
:100E4000809340080895FC0120915424309155244A
:100E5000C901A0E0B0E0BC015527442780912008DB
:100E600090912108A0E0B0E0482B592B6A2B7B2BF6
:100E700080915424909155242817390729F74083ED
:100E800051836283738308954FB7F8948630910538
:100E900018F12091200830912108280F391F8091E6
:100EA0002008909121088217930740F48091200830
:100EB0009091210882179307C8F30EC080912008F3
:100EC0009091210828173907C8F380912008909144
:100ED000210882179307C8F34FBF089520E090E0E0
:100EE000FC0153E0EE0FFF1F5A95E1F7E80FF91FE1
:100EF000EA5AFB4D84819581892B09F021E0822FEC
:100F00000895DF92EF92FF920F931F93DFB6F8944C
:100F1000809120228F3F09F456C090E0FC01A3E0AD
:100F2000EE0FFF1FAA95E1F7E80FF91FEA5AFB4DF4
:100F3000E080F18002811381209154243091552466
:100F4000C801AA27BB272817390769F4E0922808A7
:100F5000F092290880910C08806180930C088091A0
:100F60000708836003C0809107088C7F809307087F
:100F700060915424709155249B0140E050E0809191
:100F8000200890912108A90133272227A0E0B0E092
:100F9000282B392B4A2B5B2B80915424909155247C
:100FA0006817790729F72E193F09400B510B2F5F5E
:100FB0003F4F4F4F5F4F2F5F3F4F4F4F5F4718F4EB
:100FC00081E080931F22DFBE1F910F91FF90EF9071
:100FD000DF90089580911F22882309F44CC010925D
:100FE0001F2230911E22332309F445C08091212213
:100FF0008F3F59F4809122228F3F39F48091202233
:10100000809322228093212212C02091202280915D
:10101000222290E0FC0143E0EE0FFF1F4A95E1F72A
:10102000E80FF91FEA5AFB4D208720932222809176
:10103000202290E0FC0123E0EE0FFF1F2A95E1F74C
:10104000E80FF91FEA5AFB4D80858093202280919A
:10105000222290E0FC01B3E0EE0FFF1FBA95E1F70A
:10106000E80FF91FEA5AFB4D8FEF8087315030931C
:101070001E220E94810708950F931F93882311F069
:101080008AE883C00FB7F8940E94EA0710911E22E5
:10109000112309F47DC040912022242F842F312F69
:1010A0002223F1F4442339F480915E24809320229A
:1010B0000E9481070EC090E0FC01A3E0EE0FFF1F2D
:1010C000AA95E1F7E80FF91FEA5AFB4D80915E24DB
:1010D00080878FEF80935E24115010931E224AC0A8
:1010E000822F90E0FC0173E0EE0FFF1F7A95E1F78D
:1010F000E80FF91FEA5AFB4D50853150822F09F451
:1011000047C0252FCDCF222319F52091222233234A
:1011100059F4222321F48FEF8093222202C0809180
:101120005E248093212226C0842F90E0FC0163E09E
:10113000EE0FFF1F6A95E1F7E80FF91FEA5AFB4D22
:1011400080915E2480872223A9F44093222212C03A
:10115000822F90E0FC0153E0EE0FFF1F5A95E1F75C
:10116000E80FF91FEA5AFB4D422F20852F3F59F611
:1011700080E005C010925A2410925B2481E00FBFDA
:10118000882311F489E801C080E01F910F91089530
:1011900030912122232F432FE9CF1F931FB7F894BB
:1011A0000E94EA071FBF1FEF25C06FB7F894822F78
:1011B00090E0FC01B3E0EE0FFF1FBA95E1F7E80FF6
:1011C000F91FEA5AFB4D208544815581868197811C
:1011D000108714821582168217822F3F09F43FEF81
:1011E0006FBF4115510551F03093222220932122E7
:1011F000FA01199530912222209121222F3FA9F640
:1012000030932222209321221F9108954F925F92C2
:101210006F927F929F92AF92BF92CF92DF92EF92A6
:10122000FF920F931F935A016B01F901882311F06C
:101230008AE8C0C00115110509F4B9C080915A248B
:1012400090915B24892B11F088E8B4C060915424FC
:10125000709155249B0140E050E0809120089091CE
:101260002108A90133272227A0E0B0E0282B392B41
:101270004A2B5B2B80915424909155246817790751
:1012800029F7309721F0319709F091C011C0D601AC
:10129000C50180589040A040B04080589F4FAF4F4C
:1012A000BF4708F086C0A20EB31EC41ED51E10C0D4
:1012B000D601C50180589040A040B040821B930BDE
:1012C000A40BB50B80589F4FAF4FBF4708F071C0BC
:1012D0009FB6F8940E94EA07309120223F3F31F0F8
:1012E00060911E22432F232F50E041C010922022F4
:1012F00030935E2427C02F3FA9F1822F90E0FC019C
:1013000073E0EE0FFF1F7A95E1F7E80FF91FEA5A35
:10131000FB4D80819181A281B38125013601481A5C
:10132000590A6A0A7B0AD301C2018F5F9F4FAF4FF0
:10133000BF4710F4808518C020935E24321721F433
:101340001092202291E017C0842F90E0FC0133E03E
:10135000EE0FFF1F3A95E1F7E80FF91FEA5AFB4D30
:10136000108646C08FEF242F5F5F422F282F56171D
:1013700008F4C1CF2DC0A0925624B0925724C09239
:101380005824D092592400935A2410935B24E0925D
:101390005C24F0925D2480911E228F5F80931E2238
:1013A000992311F00E9481079FBE80E003C088EE60
:1013B00001C08BE81F910F91FF90EF90DF90CF90CD
:1013C000BF90AF909F907F906F905F904F900895E7
:1013D000842F90E0FC0123E0EE0FFF1F2A95E1F738
:1013E000E80FF91FEA5AFB4D10868FEF80935E24B9
:1013F00090E0C1CF1F920F920FB60F9208B60F92D6
:1014000009B60F920BB60F92112418BE19BE1BBE5F
:101410002F933F934F935F936F937F938F939F93FC
:10142000AF93BF93EF93FF938091542490915524F1
:10143000019680935424909355240E948107FF9134
:10144000EF91BF91AF919F918F917F916F915F913C
:101450004F913F912F910F900BBE0F9009BE0F90AF
:1014600008BE0F900FBE0F901F9018951F920F92FD
:101470000FB60F9208B60F92112418BE8F93809169
:101480001E22882319F081E080931F228F910F90F4
:1014900008BE0F900FBE0F901F90189510921E223D
:1014A00010921F2210925424109255248FEF809393
:1014B0002022809321228093222280935E24109206
:1014C0005A2410925B240E94BE0A0895FC01809168
:1014D0005424909155242091680830916908A0E027
:1014E000B0E0DC019927882740E050E0822B932B65
:1014F000A42BB52B80839183A283B383089581E0CD
:10150000089584E88093800181E6809381010895A5
:10151000E0EAF0E0828184608283089582E0809333
:1015200050008091510081FFFCCF98ED94BF84E082
:10153000E0E4F0E0818394BF81E08093400082E0AA
:10154000E0E5F0E086838091600081608093600038
:101550000895E0E4F6E08081806180838081806886
:1015600080838081816080838081806280838081AC
:101570008860808380818F7B8083089588E080935A
:1015800000088093400880EF80930C0880E38093EC
:101590004C0883E080930608E1E4F8E080818061F4
:1015A000808389E2809343080895E0E8F6E08FEFB6
:1015B00084838083089584309105E9F08530910516
:1015C00048F48230910599F08330910590F40197A9
:1015D00061F409C08630910591F08630910568F07C
:1015E000079719F40EC021E00DC020E00BC022E0E7
:1015F00009C023E007C024E005C025E003C026E0C1
:1016000001C027E06115710521F061307105A9F471
:101610000BC081E090E002C0880F991F2A95E2F785
:10162000E0E8F6E08683089502C0660F771F2A95EA
:10163000E2F7E0E8F6E06583089581E090E002C01B
:10164000880F991F2A95E2F7E0E8F6E0878308956E
:101650001092A006089584309105E9F08530910537
:1016600048F48230910599F08330910590F4019708
:1016700061F409C08630910591F08630910568F0DB
:10168000079719F40EC081E00DC080E00BC082E026
:1016900009C083E007C084E005C085E003C086E0A0
:1016A00001C087E02091A80630E002C0359527955B
:1016B0008A95E2F721703070C901089580E5809322
:1016C000C00880E1E0E4F6E085830895E0E4F6E018
:1016D00020914906909149069C7F9187806C90E10A
:1016E0009683E0ECF8E083838091C20887FFFCCF0B
:1016F000E0ECF8E063838091C20887FFFCCFE0E470
:10170000F6E080E1858321870895E0E4F6E020910A
:101710004906909149069C7F9187806890E1968365
:10172000E0ECF8E083838091C20887FFFCCFE0EC17
:10173000F8E013828091C20887FFFCCF8091C30834
:10174000E0E4F6E090E1958321870895CF93DF935D
:10175000DC0180E1E0E4F6E0868380E2E0ECF8E0A2
:1017600083838091C20887FFFCCFE0ECF8E013820E
:101770006130A9F0FD01262FC0ECD8E08091C208AD
:1017800087FFFCCF8091C3081B82819321502230B8
:10179000A8F76250862F90E00196A80FB91F80919C
:1017A000C20887FFFCCF8091C3088C9380E1E0E4FE
:1017B000F6E08583DF91CF910895DC0180E1E0E4DC
:1017C000F6E0868380E6E0ECF8E083838091C2084F
:1017D00087FFFCCFE0ECF8E09D9161508091C2085A
:1017E00087FFFCCF93836623B9F78091C20887FFF8
:1017F000FCCF80E1E0E4F6E085830895FF920F934B
:101800001F93062FF42E0E94850B082310E002C0C0
:1018100015950795FA94E2F7802F1F910F91FF908D
:101820000895DF92EF92FF920F931F93D82EF62E1A
:10183000E42E022F0E94850B10E002C0000F111F42
:10184000EA94E2F76F2D6023F094F8226F298D2D32
:101850000E94660B1F910F91FF90EF90DF9008950B
:10186000BC01009721F08DEF93E20E94650C089572
:101870008DEF93E260E070E00E94FA0C08950F9300
:101880001F93CF93DF938DEF93E20E945E0CC1EF25
:10189000D3E203E212E2088319838DEF93E2BE01E3
:1018A0000E94650C249606561F4F83E2CD3FD80751
:1018B00091F7DF91CF911F910F910895FC01108254
:1018C00011821282138214820895CF93DF93DC0178
:1018D000EB019FB7F89414968C911497882321F408
:1018E0006D937C93119706C01296ED91FC9113971E
:1018F000628373831296CD93DC9313971A821B82B3
:1019000014968C9114978F5F14968C939FBFDF91E0
:10191000CF9108959F92AF92BF92CF92DF92EF92B4
:10192000FF920F931F93CF93DF938C015B016A01AA
:101930009FB6F894DC0114968C91882319F4C0E0CA
:10194000D0E04AC0F801C081D18141155105B1F004
:101950007E0111C0D60112966D917C911397ED9185
:10196000FC91888199811995882359F47E018A8197
:101970009B819C01E901209769F72EC0209761F1B6
:101980007E01AB2849F5F801808191812A813B8154
:10199000C817D90719F42083318305C0D7011296DF
:1019A0002D933C931397F80182819381C817D9072F
:1019B00011F4E282F382D80114968C91149781502D
:1019C00014968C9314978D919C911197892B21F4E7
:1019D00012961D921C9213979FBECE01DF91CF915C
:1019E0001F910F91FF90EF90DF90CF90BF90AF903D
:1019F0009F900895AB0160E070E00E948A0C08950A
:101A0000AB0161E070E00E948A0C0895CF93DF93F0
:101A1000EC010BC0CE0160E070E00E94FA0C009770
:101A200011F41C8205C00E94300C8C81882391F730
:101A3000DF91CF91089580E28093C00008950895CA
:101A4000DC01E0912424F091252490E081918093A1
:101A5000C3009F5F9031D1F790E08D918093C200D9
:101A60009F5F9031D1F78091C1008178E1F381E0EF
:101A70008093C1000895FC0190E08091C2008193A1
:101A80009F5F9031D1F708950F931F93DF93CF930A
:101A9000CDB7DEB76097CDBFDEBF9C01062F142FF8
:101AA00081E4809303242115310599F010920224DA
:101AB00089E080933221A4E0B4E2F90180E1019051
:101AC0000D928150E1F784E094E280932424909376
:101AD0002524112321F0183009F058C007C0809147
:101AE0003221883059F584E094E224C0809132217B
:101AF000883021F1809102248823D1F4809103243D
:101B00008093C00084E094E2809324249093252461
:101B1000CE0101960E94200DE4E1F4E28091C30021
:101B2000819384E2E432F807C9F781E080930224CC
:101B300084E194E28093242490932524109332210D
:101B4000002311F0003211F580E090E0003211F432
:101B500081E090E0880F991F880F991F282F24702B
:101B600080910324282B80E090E0183011F481E06C
:101B700090E034E0880F991F3A95E1F78071822B4D
:101B8000809303248093C00081E001C080E06096D0
:101B9000CDBFDEBFCF91DF911F910F91089581E0FE
:101BA0008093262408953F924F925F926F927F9286
:101BB0008F929F92AF92BF92CF92DF92EF92FF925D
:101BC0000F931F93DF93CF93CDB7DEB76297CDBF4F
:101BD000DEBF4C015B013A01322ED02EFE2C8091EB
:101BE0002624882321F00E941F0D109226244F2DB9
:101BF00050E09A01237030702115310511F4EE2464
:101C00000AC02F5F3F4F81E090E002C0880F991F0C
:101C10002A95E2F7E82E487F452B09F0B5C08114DC
:101C2000910409F4B1C0A114B10409F4ADC0432C6E
:101C3000552482010D0D111D8E2D90E0898B9A8BFC
:101C4000800F911F8038910508F09EC0809133214C
:101C5000882329F061147104F9F482E098C06114BA
:101C60007104D1F040E130E04150E42FF0E0D301C5
:101C7000AE0FBF1FE95DFB4D8C912081822790E064
:101C8000232F30E0822B932B30E0892B09F031E0B9
:101C9000442351F73093332180913321882379F005
:101CA000C30160E040E00E94440DA7E2B4E2F3010A
:101CB00080E101900D928150E1F71092332181E093
:101CC000F5018083EE2061F08E2D90E002979595CE
:101CD000879523E0880F991F2A95E1F7816080831B
:101CE000332021F0F50180818064808384E0782EA8
:101CF0007F20F50160801686CC20D1F4EE2051F0D3
:101D0000D786080D191DC401B801A501232D0D2D7D
:101D10000E94B90F7720D1F181E0F5018083C401E1
:101D2000840D951DB5014E2D2D2D0E94DF0E2EC068
:101D3000772059F081E0F5018083C401840D951D61
:101D4000B5014E2D2D2D0E94DF0EEE20F9F0F5018C
:101D50006082D786C4017E010894E11CF11CB701A2
:101D6000A501232D0D2D0E94B90F832D90E08D0D1F
:101D7000911D880D991DB70149895A890E946C19D6
:101D8000009721F083E003C081E001C080E062960B
:101D9000CDBFDEBFCF91DF911F910F91FF90EF90EC
:101DA000DF90CF90BF90AF909F908F907F906F907B
:101DB0005F904F903F9008950E941B0D08954F92A1
:101DC0005F926F927F928F929F92AF92BF92CF92CB
:101DD000DF92EF92FF920F931F93DF93CF93CDB7D4
:101DE000DEB76097CDBFDEBF5C016B01642E122FA2
:101DF00080E090E060E040E00E94440D7724EE2413
:101E0000FF24412E55244E010894811C911C25C0AD
:101E10007394D6011F967C92C6010E94200DC401C6
:101E20000E943B0DC8010131110514F080E190E0E2
:101E3000D501F401282F30E0A401420F531F04C044
:101E40008C91919189278D93E417F507C9F7A20E1C
:101E5000B31EE0EFFFEFEE0EFF1E8701040D151D10
:101E600010161106ACF26620E9F0D6011F961C92FE
:101E7000C6010E94200D8E010F5F1F4FC8010E94F6
:101E80003B0D20E030E00CC0F801E20FF31FD5015C
:101E90008C9190818927F50181935F012F5F3F4FDE
:101EA000621691F76096CDBFDEBFCF91DF911F9193
:101EB0000F91FF90EF90DF90CF90BF90AF909F90E9
:101EC0008F907F906F905F904F900895CF92DF92A8
:101ED000EF92FF920F931F93DF93CF93CDB7DEB7AF
:101EE0006097CDBFDEBF6C01F62E8C01E62E07C0D9
:101EF000C8010E94200D005F1F4F80EFE80E8FE0A9
:101F00008E15B0F30F2D0F70F2949FE0F9222F2D54
:101F100030E084E0220F331F8A95E1F72C0D3D1D40
:101F20000023D9F010E07E010894E11CF11CC701E8
:101F3000B901402F50E00E947919E0E1F0E0E01B88
:101F4000F10B9701200F311FC90160E070E0AF0174
:101F50000E948219C7010E94200D6096CDBFDEBF8E
:101F6000CF91DF911F910F91FF90EF90DF90CF9075
:101F700008959F92AF92BF92CF92DF92EF92FF921D
:101F80000F931F93DF93CF93CDB7DEB76097CDBF8D
:101F9000DEBF6C015B017A01122F902EFA010787D8
:101FA00080E090E060E040E00E94440DC7010E94A4
:101FB000200D80E090E060E240E00E94440D11239B
:101FC00001F1012F1F3008F00EE019821A83E02E74
:101FD000FF249E012D5F3F4FC901B601402F50E005
:101FE0000E947919602F6E5FCE0101960E94660FE4
:101FF000011738F4612F601BC6018E0D9F1D0E94D2
:10200000660FC601810F911D692D0E94660FC501E3
:102010000E943B0D6096CDBFDEBFCF91DF911F9137
:102020000F91FF90EF90DF90CF90BF90AF909F9077
:1020300008950F931F93DF93CF93CDB7DEB7289703
:10204000CDBFDEBF81E06FE140E00E94FE0B883033
:1020500039F58FE00E94850B82E069E00E94660BF3
:10206000CE0101960E9423078E010B5F1F4F8FE068
:102070000E94850B80FD14C0C8010E9423078D813A
:102080009E81AF81B88529813A814B815C81821B19
:10209000930BA40BB50B8D3D9105A105B10538F34C
:1020A0002896CDBFDEBFCF91DF911F910F9108958C
:1020B0000F931F93082F80917F248F3099F488E02D
:1020C000E0E4F6E0868381E06FE140E00E94FE0BF1
:1020D0008830C9F7083011F0033021F488E080938C
:1020E0007F24CCC181E06FE140E00E94FE0B809331
:1020F0007F24083009F448C0093050F4043009F452
:1021000095C0063009F49FC0033009F0AEC154C039
:102110000F3069F0003120F4093009F0A6C164C025
:10212000063109F4C9C0093109F09FC131C182E00B
:1021300063E00E94660B0E945C19682F192F8DE2E4
:102140000E94660B8EE267E040E0212F0E94110C96
:10215000000000000000000000000000000000007F
:10216000000000000000000000000000000000006F
:1021700088E0E0E4F6E0858383E290E00E94440793
:1021800000937F248FE07AC1883009F46EC182E029
:1021900068E00E94660B00000000000000000000E4
:1021A000000000000000000000000000000000002F
:1021B00000000000000059C1883009F456C182E0D7
:1021C00063E00E94660B00000000000000000000B9
:1021D00000000000000000000000000000000000FF
:1021E00000000000000041C1883029F1893020F44E
:1021F000863009F03AC105C0863119F0893109F0FD
:1022000034C182E069E00E94660B0000000000001B
:1022100000000000000000000000000000000000BE
:10222000000000000000000000001FC1883019F00D
:10223000893021F41AC10E94191017C182E064E0AC
:102240000E94660B12C1893059F08A3020F4883020
:1022500009F00BC11AC0863119F0893109F005C1A6
:1022600082E066E00E94660B0000000000000000B3
:10227000000000000000000000000000000000005E
:102280000000000000000000F0C00E94191082E071
:1022900066E00E94660B00000000000000000000E5
:1022A000000000000000000000000000000000002E
:1022B000000000000000D9C0883001F1893020F40E
:1022C000863009F0D2C031C0893019F0893109F067
:1022D000CCC082E066E10E94660B000000000000B6
:1022E00000000000000000000000000000000000EE
:1022F00000000000000000000000B7C00E9419109C
:1023000082E066E10E94660B000000000000000011
:1023100000000000000000000000000000000000BD
:102320000000000000000000A0C082E069E00E9400
:10233000660B00000000000000000000000000002C
:10234000000000000000000000000000000000008D
:10235000000081E06FE140E00E94FE0B80937F244B
:10236000893009F08BC082E066E10E94660B0000B4
:10237000000000000000000000000000000000005D
:1023800000000000000000000000000000006DC020
:10239000883009F454C0893020F4863009F065C0D3
:1023A0001BC0893021F0863109F05FC015C082E082
:1023B00069E10E94660B00000000000000000000C0
:1023C000000000000000000000000000000000000D
:1023D00000000000000049C082E069E00E94660B36
:1023E00000000000000000000000000000000000ED
:1023F00000000000000000000000000000000000DD
:1024000081E06FE140E00E94FE0B80937F248930E1
:1024100009F034C082E069E10E94660B0000000010
:1024200000000000000000000000000000000000AC
:1024300000000000000000000000000016C00E9424
:10244000191082E069E10E94660B000000000000A4
:10245000000000000000000000000000000000007C
:102460000000000000000000000081E06FE140E09B
:102470000E94FE0B80937F248F31B9F31F910F913F
:102480000895809170248823E1F080918824882326
:10249000C1F48091372490913824892B39F48AE94A
:1024A0000E94380C809337249093382480913724ED
:1024B00090913824892B29F01092702486E10E9493
:1024C000581080917524882351F081E794E260E0F0
:1024D00070E00E94FA0C009711F00E947612809131
:1024E0008824823011F40E94BA130895EF92FF926B
:1024F0000F931F93CF93DF937C01DC010D911C910F
:10250000D8011696ED91FC911797808180938124D4
:10251000C82FD0E02196CE0FDF1F988129812F315F
:1025200010F02EE103C0222309F421E09295969544
:10253000969593708FEF989FC001112430E0FC01B5
:10254000E29FC001E39F900DF29F900D11246AE578
:1025500070E00E94CB186F3F710511F008F06FEF2B
:102560006883D8011196ED92FC921297C8010E94DF
:102570006C01DF91CF911F910F91FF90EF90089523
:10258000DF92EF92FF920F931F93DF93CF930F92FF
:10259000CDB7DEB7E0913724F09138243097C1F100
:1025A000E080F18087E00E94850BD82ECE01019655
:1025B00061E00E94A60B698167FD2AC06D5F0AE990
:1025C00010E0061B11090E0D1F1D6150C8010E946D
:1025D000A60BF701068317838981080F111DF801E7
:1025E000D282609137247091382481E794E20E946E
:1025F000650C8AE90E94380C809337249093382424
:10260000892B31F489E00E94581081E08093702476
:102610000F90CF91DF911F910F91FF90EF90DF907E
:102620000895882311F087E005C082E060EE45E060
:102630000E94FE0B8093392482E08093882480914D
:10264000372490913824892B39F489E00E9458105E
:1026500081E080937024089586E10E9458100895C7
:10266000EF92FF920F931F93CF93DF937C01EB01C7
:10267000042F442331F08CE260EF44E020917E246B
:1026800004C08CE260EF44E020E00E94110CC230F4
:10269000D10598F4002361F08CE26EE041E02091D6
:1026A00076240E94110C8FE260E00E94660B16C037
:1026B0008CE26EE041E027E00FC060917A246295E1
:1026C000607F80917D24682B8FE20E94660B8CE2F4
:1026D0006EE041E0209176240E94110C89E10E9475
:1026E00058108931D9F7809149068C7FE0E4F6E0F3
:1026F0008187219759F480918124833118F080E4F7
:1027000092E002C080E890E00E94440700E416E0F6
:1027100088E0F80185838683F70160816150C701F5
:102720000E94DD0B81E080938824809149068360BC
:10273000F8018187DF91CF911F910F91FF90EF906A
:102740000895FC0180918824882311F086E808957B
:10275000E0937B24F0937C2486819781809382246C
:1027600090938324009711F488EE08950E9430130B
:1027700080E0089510928824809139248330B1F04C
:10278000843028F4882331F08130E1F409C08530A9
:10279000C9F412C060917B2470917C2480E017C042
:1027A00060917B2470917C2487E811C060917B2428
:1027B00070917C2481EE0BC060917B2470917C240D
:1027C00089EE05C060917B2470917C2485E80E948D
:1027D00053010895FB01873009F45EC0883090F4FE
:1027E000833009F44CC0843030F48130C1F1823040
:1027F00008F042C031C0853009F447C0863008F087
:102800004EC040C08035F1F0813538F48E34A1F0EF
:102810008F34A8F48B3071F466C0873509F442C058
:10282000883518F4833531F412C08935F1F1803FD1
:1028300009F43FC084EF08958091762438C08091D8
:102840007D2435C080916B2490916C2422C08091AE
:102850006E2490916F241DC08091782428C08091AF
:10286000842490918524A0918624B091872480832C
:102870009183A283B38335C080915F2418C0809177
:102880006D2415C080916A2412C0809168249091B3
:1028900069248083918325C08091772408C080912A
:1028A000802405C080917A2402C080917E24808398
:1028B00018C08091602480838091612481838091FD
:1028C000622482838091632483838091642484833F
:1028D0008091652485838091662486838091672416
:1028E000878380E0089580917924808380E0089533
:1028F000282F85FD03C0982F9F7304C0982F9195B2
:102900009F719195E4EFF1E08491891734F03F963F
:102910008491981714F0822F0CC0803E3CF08032D6
:102920003CF487FF06C08F71806203C080E201C063
:102930008FE18068089584E08093762423E02093DB
:102940007D248FEF9FEF80936B2490936C24809372
:102950006E2490936F248BE08093782480E098EF2E
:10296000AFEFB7E08093842490938524A0938624CE
:10297000B093872410926A248AE091E080936824BF
:10298000909369248AE08093802482E08093772466
:1029900085E080937A2420937E2483E80E94781433
:1029A00080935F2481E080936D24109279240895B0
:1029B00085FD03C0982F9F7304C0982F91959F7138
:1029C0009195E4EFF1E080E02491921724F029172B
:1029D0003CF4815008958F5F31968031A9F780E0F3
:1029E00008951F93CF93DF9382E260916B240E943E
:1029F000660B60916C2483E20E94660BC0E6D4E211
:102A000014E2812F69910E94660B1F5F1C32C9F787
:102A100080E260916E240E94660B60916F2481E2D7
:102A20000E94660B88E060E645E020916D240E94DC
:102A3000110C8FE26FE040E020917D240E94110C88
:102A40008EE268E043E0209179240E94110C8FE22D
:102A500060EF44E020917A240E94110C88E06FE13D
:102A600040E0209178240E94110C80915F240E9404
:102A7000D814282F85E06FE040E00E94110CDF9110
:102A8000CF911F9108951F93CF93DF93EB018E3465
:102A900031F0893541F4888180937E24E5C08881B6
:102AA00080937624E1C020917F242F3011F481E8B7
:102AB000DCC08B3009F4CBC08C3078F4823009F460
:102AC0008EC0833020F4882309F443C015C08330BE
:102AD00009F493C0843081F46BC0833559F1843597
:102AE00028F48F3459F0803539F417C0873509F44C
:102AF00069C0803F09F488C084EFB7C088818093A3
:102B00007D2490917A24981710F490937D248FE27D
:102B10006FE040E020917D24A0C0688189816093AE
:102B20006B2480936C2482E20E94660B60916C247B
:102B300083E20CC06881898160936E2480936F2446
:102B400080E20E94660B60916F2481E20E94660B16
:102B50008BC080918824882309F082C080E098EFA0
:102B6000AFEFB7E0088004C0B695A7959795879515
:102B70000A94D2F781709070892B09F473C02830C1
:102B800011F418E006C088E00E9458108830D9F788
:102B900016E128812093782488E06FE140E00E94CC
:102BA000110C183009F460C086E10E9458105CC016
:102BB00080918824882309F053C08881882309F4F0
:102BC00053C050C0288120937A2480917D242817F7
:102BD00010F420937D248FE260EF44E03EC08881B2
:102BE00080935F240E94781480935F240E94D814FD
:102BF000282F85E06FE040E030C0288120936D24CD
:102C000088E060E645E029C088818093602489815E
:102C1000809361248A81809362248B8180936324D2
:102C20008C81809364248D81809365248E81809330
:102C300066248F8180936724C0E6D4E214E2812F5A
:102C400069910E94660B1F5F1C32C9F70DC0288175
:102C5000209379248EE268E043E00E94110C04C0C6
:102C600086E803C088EE01C080E0DF91CF911F911C
:102C70000895DF92EF92FF920F931F93D82E00E4F6
:102C800016E088E0F80186838CE791E00E94440713
:102C9000FF24F394F801F68281E090E00E9444075B
:102CA000F801F58210E081E06FE140E00E94FE0B48
:102CB0001F5F1B3F11F485E877C08830A1F7809330
:102CC0007F2483E060E344E020E00E94110C83E075
:102CD00068E043E020E00E94110C83E067E040E000
:102CE00021E00E94110C8EE260E245E021E00E94AA
:102CF000110C8CE060E847E021E00E94110C84E0B8
:102D000062E041E021E00E94110C8EE068E00E9448
:102D1000660B86E00E945810E090490680914906B3
:102D20008C7FE0E4F6E0818700E010E0FF2486E09D
:102D300060E645E00E94FE0B9801220F331F220F30
:102D4000331F082F10E0022B132BF394F8E0FF162B
:102D500071F783E00E9458108FE00E94850BE0E439
:102D6000F6E081E08487E186C8010E9461190E9433
:102D70005C19682F192F8DE20E94660B8EE267E0C6
:102D800040E0212F0E94110C80E00E940F180E9449
:102D9000FC17DD2011F00E949B140E94F114109288
:102DA00088241092702480E01F910F91FF90EF9083
:102DB000DF9008950E943916882361F085E8089510
:102DC00081E794E260E070E00E94FA0C009711F055
:102DD0000E94300C80917524882391F78AEE97E148
:102DE0000E94E705E0E4F6E081E0848780914906EF
:102DF0008360818780E00895FF920F931F93CF93A4
:102E0000DF930E940D07882309F0DDC000E416E07F
:102E1000FF24F394F801F58288E086838AE491E048
:102E20000E944407F801F68281E090E00E94440786
:102E3000F801F58200E004C00F5F0F3F09F4C3C042
:102E40008DE10E94850B8230B9F78CE10E94850BE1
:102E5000833091F782E068E00E94660B00E081E039
:102E60006FE140E00E94FE0B015009F4ACC08830D5
:102E7000B1F780937F2480E090E060E070E048E06C
:102E800050E020E634E20E94380609C0C0E6D4E2F1
:102E90000E945C198993F4E2C836DF07C9F7809174
:102EA0006024309161244091622460916324709188
:102EB0006424F0916524B091662450916724182F02
:102EC000115091E0181708F090E0832F815021E015
:102ED000831708F020E0092F080F91E0081708F089
:102EE00090E0292B842F815031E0841708F030E0E6
:102EF000A22FA80F91E0A81708F090E0392B862F99
:102F0000815021E0861708F020E0E32FE80F91E0E0
:102F1000E81708F090E0292B872F815031E08717C0
:102F200008F030E0622F680F91E0681708F090E039
:102F3000392B8F2F815021E08F1708F020E0432F8D
:102F4000480F91E0481708F090E0292B8B2F815013
:102F500091E08B1708F090E0322F380F21E03817FE
:102F600008F020E0922B5195591779F43F3F69F40E
:102F70004F3F59F46F3F49F4EF3F39F4AF3F29F425
:102F80000F3F19F41E3F08F081CF81E00E943916EF
:102F90008823C9F48AEE97E10E94E70580914906EB
:102FA0008360E0E4F6E081870E943F0C8AE90E949A
:102FB000380C809337249093382481E794E20E9460
:102FC0005E0C80E001C085E8DF91CF911F910F91E9
:102FD000FF9008958FE00E94850B282F83FF0BC080
:102FE00080918824813029F426FF80E00E9411130B
:102FF00008950E94C012089580917F248F3011F0AF
:1030000082E8089588E00E945810883011F085E821
:10301000089581E090E00E941B0780E008958823D6
:1030200011F088EE089580917F248F3011F481E8AB
:10303000089580918824882391F41092702488E068
:103040000E9458108830D9F780E090E00E941B075A
:103050008FE00E9458108F3011F480E0089586E8C8
:103060000895982F80918824882311F086E8089588
:10307000983039F488E00E9458101092702488E04B
:1030800008958091372490913824892B29F086E186
:103090000E94581086E0089581E08093702486E0B5
:1030A00008950895EF92FF920F93DF93CF93CDB7DA
:1030B000DEB76097CDBFDEBFA82F002309F461C043
:1030C0007E010894E11CF11C88E0F70111928A95B9
:1030D000E9F729833A834B835C836D837E83AF83D7
:1030E000988780E2801BE82FFF27E7FDF0954D8150
:1030F0005E816F817885181684F01D861E861F8676
:10310000188A882799278E1B9F0B04C07695679590
:10311000579547958A95D2F728C0202F332727FD4A
:103120003095DB01CA01022E04C0B695A79597958C
:1031300087950A94D2F78D879E87AF87B88B04C096
:10314000440F551F661F771FEA95D2F789819A8130
:10315000AB81BC8104C0B695A795979587952A95B4
:10316000D2F7482B592B6A2B7B2B49875A876B87C1
:103170007C8729853A854B855C856D857E85AF8505
:1031800098898A2F6096CDBFDEBFCF91DF910F91D6
:10319000FF90EF900895AA1BBB1B51E107C0AA1F27
:1031A000BB1FA617B70710F0A61BB70B881F991FE8
:1031B0005A95A9F780959095BC01CD010895A1E29B
:1031C0001A2EAA1BBB1BFD010DC0AA1FBB1FEE1FA1
:1031D000FF1FA217B307E407F50720F0A21BB30BEC
:1031E000E40BF50B661F771F881F991F1A9469F768
:1031F00060957095809590959B01AC01BD01CF01C4
:103200000895AF92BF92CF92DF92EF92FF920F9309
:103210001F93CF93DF93EC01A880B980CA80DB8035
:10322000A114B104C104D10441F484E2A82E89EDB3
:10323000B82E8BE5C82E87E0D82EC601B5012DE14A
:1032400033EF41E050E00E942E1E27EA31E440E0D7
:1032500050E00E940F1E7B018C01C601B5012DE1DB
:1032600033EF41E050E00E942E1ECA01B9012CEE5E
:1032700034EF4FEF5FEF0E940F1E6E0D7F1D801F1A
:10328000911F97FF04C06150704080409048688350
:1032900079838A839B839B013F77C901DF91CF911B
:1032A0001F910F91FF90EF90DF90CF90BF90AF9064
:1032B00008950E940119089584E391E20E94011982
:1032C0000895A0E0B0E08093342190933521A0933D
:1032D0003621B09337210895FB01DC0104C08D91A4
:1032E0000190801921F441505040C8F7881B990B78
:1032F0000895FB01DC0102C001900D924150504045
:10330000D8F70895DC0101C06D9341505040E0F7BB
:1033100008950F931F93CF93DF938C01EB010097D8
:1033200031F46115710519F420E030E038C081E016
:1033300090E06EE070E00E944E1CFC019C01009742
:1033400071F180E88383209771F0C287D38781E889
:1033500083838091892490918A24892B21F4E0939E
:103360008924F0938A2401151105C9F0008711877B
:1033700083818260838380918B2490918C24892B1C
:1033800071F4E0938B24F0938C2480918D249091A0
:103390008E24892B21F4E0938D24F0938E24C9018F
:1033A000DF91CF911F910F910895DF93CF93CDB708
:1033B000DEB7FE0136966191719180918B249091D8
:1033C0008C24AF010E944E1ACF91DF910895609135
:1033D0008B2470918C240E94851D08950F931F9358
:1033E000CF93DF938C01E0918B24F0918C24838127
:1033F00081FF21C0C0E0D0E00DC0E0918B24F091AE
:103400008C2420853185BF01F9011995892B11F094
:10341000CFEFDFEFF80181918F01882371F7E09101
:103420008B24F0918C24208531858AE0BF01F9013D
:103430001995892B11F0CFEFDFEFCE01DF91CF91FE
:103440001F910F9108950F931F93DF93CF93CDB7E3
:10345000DEB72E97CDBFDEBF0E891F8986E08C8335
:1034600009831A838FEF9FE78D839E839E01265EDB
:103470003F4FCE010196688D798DA9010E944E1AA9
:103480002F813885020F131FF80110822E96CDBFB1
:10349000DEBFCF91DF911F910F9108952F923F9240
:1034A0004F925F926F927F928F929F92AF92BF9254
:1034B000CF92DF92EF92FF920F931F93DF93CF9300
:1034C000CDB7DEB72B97CDBFDEBF3C012B015A0134
:1034D000FC0116821782838181FD03C06FEF7FEFAD
:1034E000C6C19AE0892E1E010894211C311CF301EB
:1034F0002381F20123FD859123FF81912F018823F0
:1035000009F4B2C1853239F423FD859123FF8191FD
:103510002F01853229F490E0B3010E94851DE7CF89
:10352000982FFF24EE249924FFE1FF15D0F09B3261
:1035300069F09C3228F4903259F0933291F40EC025
:103540009D3249F0903369F441E024C052E0F52AFD
:1035500084E0F82A28C098E0F92A25C0E0E1FE2A94
:1035600022C0F7FC29C0892F80538A3070F4F6FE00
:1035700005C0989C902C1124980E15C0E89CE02C56
:103580001124E80EF0E2FF2A0EC09E3229F4F6FC68
:103590006BC140E4F42A07C09C3619F450E8F52AC0
:1035A00002C0983649F4F20123FD959123FF9191D1
:1035B0002F01992309F0B8CF892F8554833018F053
:1035C0008052833038F444E050E0A40EB51E5FE32F
:1035D00059830FC0933631F0933779F0933509F062
:1035E00056C020C0F5018081898342E050E0A40EDE
:1035F000B51E610101E010E012C0F501C080D1806C
:10360000F6FC03C06FEF7FEF02C0692D70E042E06F
:1036100050E0A40EB51EC6010E947A1D8C015FE722
:10362000F52214C0F501C080D180F6FC03C06FEF15
:103630007FEF02C0692D70E042E050E0A40EB51E9D
:10364000C6010E946F1D8C0150E8F52AF3FE07C0E9
:103650001AC080E290E0B3010E94851DEA948E2D8D
:1036600090E008171907A8F30EC0F601F7FC859142
:10367000F7FE81916F0190E0B3010E94851DE1107A
:10368000EA94015010400115110579F7EAC094360B
:1036900011F0993669F5F7FE08C0F50120813181F6
:1036A0004281538184E090E00AC0F50180819181DC
:1036B0009C01442737FD4095542F82E090E0A80EEE
:1036C000B91E9FE6F92257FF09C0509540953095E5
:1036D00021953F4F4F4F5F4FE0E8FE2ACA01B901E5
:1036E000A1012AE030E00E94B11DD82ED21840C0BE
:1036F000953729F41F2D1F7E2AE030E01DC01F2DB5
:10370000197F9F3661F0903720F4983509F0ACC0EE
:103710000FC0903739F0983709F0A6C004C028E0F0
:1037200030E00AC0106114FD146020E130E004C0F4
:1037300014FD166020E132E017FF08C0F50160813A
:1037400071818281938144E050E008C0F50180815D
:103750009181BC0180E090E042E050E0A40EB51EF3
:10376000A1010E94B11DD82ED2188FE7F82EF122A8
:10377000F6FE0BC05EEFF522D91438F4F4FE07C054
:10378000F2FC05C08FEEF82202C01D2D01C0192DDC
:10379000F4FE0DC0FE01ED0DF11D8081803319F4A2
:1037A00099EEF92208C01F5FF2FE05C003C08F2DFD
:1037B000867809F01F5F0F2DF3FC14C0F0FE0FC0D8
:1037C0001E1510F09D2C0BC09D2C9E0C911A1E2DC9
:1037D00006C080E290E0B3010E94851D1F5F1E15A8
:1037E000C0F304C01E1510F4E11A01C0EE2404FF5A
:1037F0000FC080E390E0B3010E94851D02FF1DC051
:1038000001FD03C088E790E00EC088E590E00BC0A2
:10381000802F867891F001FF02C08BE201C080E228
:10382000F7FC8DE290E0B3010E94851D06C080E3A5
:1038300090E0B3010E94851D9A94D914C0F3DA94E4
:10384000F101ED0DF11D808190E0B3010E94851D15
:10385000DD20A9F706C080E290E0B3010E94851D3B
:10386000EA94EE20C1F743CEF30166817781CB0164
:103870002B96CDBFDEBFCF91DF911F910F91FF90AF
:10388000EF90DF90CF90BF90AF909F908F907F9000
:103890006F905F904F903F902F9008950F931F93DC
:1038A000CF93DF93689F8001699F100D789F100D63
:1038B0001124C8010E946A1CEC01009729F060E005
:1038C00070E0A8010E948219CE01DF91CF911F9173
:1038D0000F910895CF93DF93BC018230910510F4CE
:1038E00062E070E0A0919124B0919224ED01E0E0BB
:1038F000F0E040E050E021C0888199818617970769
:1039000069F48A819B81309719F08283938304C084
:103910008093912490939224FE0134C06817790714
:1039200038F44115510519F08417950708F4AC01D6
:10393000FE018A819B819C01E9012097E9F64115EE
:103940005105A9F1CA01861B970B049708F4BA0127
:10395000E0E0F0E02AC08D919C91119784179507C3
:10396000F9F46417750781F412968D919C91139761
:10397000309719F08283938304C0809391249093AD
:103980009224FD0132964FC0CA01861B970BFD01A0
:10399000E80FF91F6193719302978D939C9343C035
:1039A000FD01828193819C01D9011097A1F680913C
:1039B0008F2490919024892B41F480913A21909109
:1039C0003B2180938F249093902440913C215091EF
:1039D0003D214115510541F44DB75EB78091382125
:1039E00090913921481B590B20918F2430919024BC
:1039F00024173507B0F4CA01821B930B861797076B
:103A000080F0AB014E5F5F4F8417950750F0420F77
:103A1000531F40938F2450939024F9016193719325
:103A200002C0E0E0F0E0CF01DF91CF910895CF93A5
:103A3000DF93009709F450C0EC0122971A821B8291
:103A4000A0919124B0919224109709F140E050E0A8
:103A5000AC17BD0708F1AA83BB83FE012191319108
:103A6000E20FF31FAE17BF0779F48D919C91119768
:103A7000280F391F2E5F3F4F2883398312968D916F
:103A80009C9113978A839B834115510571F4C093D0
:103A90009124D093922420C012968D919C911397DB
:103AA000AD01009711F0DC01D3CFFA01C283D383BB
:103AB00021913191E20FF31FCE17DF0769F488815E
:103AC0009981280F391F2E5F3F4FFA0120833183E0
:103AD0008A819B8182839383DF91CF910895FC013A
:103AE0000590615070400110D8F7809590958E0F29
:103AF0009F1F0895FC016150704001900110D8F79C
:103B0000809590958E0F9F1F08950F931F93CF93CD
:103B1000DF938C01EB018B8181FF1BC082FF0DC005
:103B20002E813F818C819D812817390764F4E881BB
:103B3000F9810193E883F98306C0E885F985802F30
:103B40001995892B31F48E819F8101968E839F83F5
:103B500002C00FEF1FEFC801DF91CF911F910F91AE
:103B60000895FA01AA27283051F1203181F1E89413
:103B70006F936E7F6E5F7F4F8F4F9F4FAF4FB1E060
:103B80003ED0B4E03CD0670F781F891F9A1FA11D5B
:103B9000680F791F8A1F911DA11D6A0F711D811D5C
:103BA000911DA11D20D009F468943F912AE0269F21
:103BB00011243019305D3193DEF6CF010895462F80
:103BC0004770405D4193B3E00FD0C9F7F6CF462F61
:103BD0004F70405D4A3318F0495D31FD40524193CA
:103BE00002D0A9F7EACFB4E0A69597958795779587
:103BF0006795BA95C9F700976105710508959B010E
:103C0000AC010A2E06945795479537952795BA9596
:103C1000C9F7620F731F841F951FA01D0895629F2F
:103C2000D001739FF001829FE00DF11D649FE00DB4
:103C3000F11D929FF00D839FF00D749FF00D659F15
:103C4000F00D9927729FB00DE11DF91F639FB00D14
:103C5000E11DF91FBD01CF011124089597FB092E25
:103C600005260ED057FD04D0AADA0AD0001C38F47D
:103C700050954095309521953F4F4F4F5F4F089598
:103C8000F6F790958095709561957F4F8F4F9F4F78
:063C90000895F894FFCF37
:103C96005365637572697479206F6E3A2054782083
:103CA60073656375726564206F6B00536563757227
:103CB600697479206F66663A20547820706C616961
:103CC6006E74657874206F6B0053656375726974E2
:103CD60079206F6E3A2000527820756E6B6E6F7782
:103CE6006E206672616D6520776974686F757420E1
:103CF60073656375726974790052782073656375AC
:103D06007265642C20646563727970797465643AAF
:103D160020004672616D6520256C753A204D494339
:103D26002077726F6E670A005365637572697479DE
:103D3600206F66663A2000527820756E6B6E6F773C
:103D46006E206672616D652077697468207365639D
:103D5600757269747900527820706C61696E746549
:103D660078743A20004170702073746172746564CF
:103D76002077697468207365637572697479206F3A
:103D86006E00417070207374617274656420776987
:103D96007468207365637572697479206F6666004E
:103DA6000122210100546F67676C65206C696768A2
:103DB6007421A1A3A5A73C5E70B2015293C48448A6
:0E3DC6002010090101000000200093240000DD
:00000001FF
