:100000000C94C0000C94DF000C94DF000C94DF0013
:100010000C94DF000C94DF000C9414040C94DF00AB
:100020000C94DF000C94DF000C94DF000C94DF00D4
:100030000C94DF000C94DF000C94DF000C94DF00C4
:100040000C94DF000C944D080C94DF000C94DF003E
:100050000C941C080C94DF000C94DF000C94DF005F
:100060000C94DF000C94DF000C94DF000C94DF0094
:100070000C94DF000C94DF000C94DF000C94DF0084
:100080000C94DF000C94DF000C94DF000C94DF0074
:100090000C9491030C94DF000C94BD030C94DF00CE
:1000A0000C94DF000C94DF000C94DF000C94DF0054
:1000B0000C94DF000C94DF000C94DF000C94DF0044
:1000C0000C94DF000C94DF000C94DF00E7E7E7E717
:1000D000E7E7E8E9EACAAAAB4525030405060708ED
:1000E000090AE7E7E7E7E7E7E8E9EACBABACAD48C1
:1000F00027060708090A0B0CC0A1818283606141B1
:1001000042222302030405060708090A0B0C86177E
:1001100088140000F91C0000031B6C2000008C20D8
:10012000A31E8F24742700000000A82100005F1682
:100130006F16000000004E16DE15F7153016000091
:10014000000000007D1500006115CC156D15AE1581
:100150009F150000BD15010401010102010101010B
:100160000101010101010401080201010101020173
:100170000102010201010201020201010101080064
:1001800011241FBECFEFD1E2DEBFCDBF12E0A0E051
:10019000B2E0E4E7F1E600E00BBF02C007900D9289
:1001A000A43AB107D9F716E0A4EAB2E001C01D9263
:1001B000A532B107E1F70E9455020C94B8300C94B7
:1001C0000000EF92FF920F931F9383E040E45BE403
:1001D0006CE470E020E030E007EF10E0EE24FF2454
:1001E0000E94F2061F910F91FF90EF900895DF9308
:1001F000CF93CDB7DEB72B970FB6F894DEBF0FBE07
:10020000CDBF82E089838EEB9AEB9B838A838091BA
:10021000A4029091A5029D838C8380E092E00E94CD
:10022000532CCE0101960E9450292B960FB6F894BC
:10023000DEBF0FBECDBFCF91DF910895EF92FF9249
:100240000F931F93DF93CF93CDB7DEB7CF5FD0402F
:100250000FB6F894DEBF0FBECDBF8091A60290917D
:10026000A702A091A802B091A9020196A11DB11DFB
:100270008093A6029093A702A093A802B093A9022C
:100280002DB73EB7285030400FB6F8943EBF0FBE92
:100290002DBF4DB75EB74F5F5F4F8E010F5F1F4F92
:1002A000EDB7FEB71283018321E132E0FA01338317
:1002B000228384839583A683B7830E94882C2DB7DD
:1002C0003EB72A5F3F4F0FB6F8943EBF0FBE2DBF1B
:1002D000EDB7FEB7128301830E94412C0F900F905F
:1002E00082E090E060E070E00E94270984E040E254
:1002F00051EA67E070E020E030E001E911E0EE242F
:10030000FF240E94F206C150DF4F0FB6F894DEBF03
:100310000FBECDBFCF91DF911F910F91FF90EF9056
:10032000089582E090E061E070E00E94270908955E
:10033000EF92FF920F931F9381E090E062E070E0F4
:100340000E94270984E040E251EA67E070E020E083
:1003500030E008E911E0EE24FF240E94F2061F912C
:100360000F91FF90EF900895EF92FF920F931F93DC
:100370006623D9F486E292E00E94532C84E00E9426
:10038000E30581E090E060E070E00E94270983E0EF
:1003900040E45BE46CE470E020E030E007EF10E064
:1003A000EE24FF240E94F20603C081E00E94F3299C
:1003B0001F910F91FF90EF900895CF92DF92EF92EF
:1003C0000F93CF93DF93882389F5E60120E025C0C2
:1003D0008B85813001F58C858823E9F489819A81A8
:1003E0008E5B9A4BC1F48D859E8597FF14C08881E2
:1003F000823041F58B819C819093A5028093A40269
:100400008EE492E00E94532C8B856C85AE0120E82F
:100410000E943E2A1AC061962F5F2E15C8F281E015
:100420004EEF57E060E070E025E008C08A3E51F4EE
:1004300081E04EEF57E060E070E026E000E00E94CF
:10044000762903C081E00E94F329DF91CF910F91BB
:10045000EF90DF90CF900895EF92FF920F931F934C
:100460008823D9F48CE592E00E94532C81E04EEF72
:1004700057E060E070E025E000E00E94762984E02B
:1004800040E251EA67E070E020E030E008E911E086
:10049000EE24FF240E94F20603C081E00E94F329AB
:1004A0001F910F91FF90EF9008950E941C2B8823BD
:1004B00011F00E943F040E94200980E090E060E07B
:1004C00070E00E94270981E090E061E070E00E9406
:1004D000270982E090E061E070E00E9427097894AB
:1004E00081E00E94FC03882311F00E943F048DEB01
:1004F00092E064EA72E00E94F52B8EE692E00E94A0
:10050000532C80E992E00E94532C81E00E94F32951
:100510000E94062BFDCFDF93CF930F92CDB7DEB7AE
:1005200081E0BE016F5F7F4F41E00E94EA038130AE
:1005300019F02FEF3FEF03C08981282F30E0C90168
:100540000F90CF91DF9108950F931F93DF93CF9377
:100550000F92CDB7DEB78E010F5F1F4F81E0B8015C
:1005600041E00E94EA038823C9F3898190E00F905B
:10057000CF91DF911F910F9108950F931F93DF93F8
:10058000CF930F92CDB7DEB789838A3071F48DE0B7
:1005900089838E010F5F1F4F81E0B80141E00E9407
:1005A000F3038823C9F38AE089838E010F5F1F4F0D
:1005B00081E0B80141E00E94F3038823C9F380E0A1
:1005C00090E00F90CF91DF911F910F9108959B01C3
:1005D000AC0160587B47814E9F4FF2E0660F771F5A
:1005E000881F991FFA95D1F7E3E0220F331F441FAC
:1005F000551FEA95D1F70E945F2B21503040309370
:10060000CD002093CC0082E08093C80088ED8093D9
:10061000C90086E08093CA000895DC018091C9007A
:100620008F7B8093C90020915805809159058217CE
:1006300030F0275F922F981B892F295005C0215039
:10064000922F981B892F2F5F482F681708F4462F89
:10065000342F12C090915905E92FF0E0EC5BFA4F6E
:100660008C918083993019F41092590503C09F5FD3
:100670009093590531501196332361F780915C05B1
:10068000882351F4E22FF0E0EC5BFA4F80818093F5
:10069000CE0081E080935C058091C90080648093E6
:1006A000C900842F0895DC0120915D05222311F4F7
:1006B00080E008958091C9008F778093C9002A3027
:1006C00058F080915B0580935A058AE080935D0520
:1006D0006A3020F02AE003C0261708F0262F322FB8
:1006E00017C0E0915A05F0E0EC5BFA4F82858C93DD
:1006F00090915A059F5F90935A0580915D058150B6
:1007000080935D059A3011F410925A05119631507C
:10071000332339F78091C90080688093C900822F04
:1007200008951F920F920FB60F920BB60F921124DD
:100730008F939F93EF93FF9390915B0580915D055D
:100740008F5F80935D058091CE00E92FF0E0EC5B38
:10075000FA4F8287993019F410925B0503C09F5FAE
:1007600090935B05FF91EF919F918F910F900BBE3E
:100770000F900FBE0F901F9018951F920F920FB6FB
:100780000F920BB60F9211248F93EF93FF938091EA
:100790005805893019F41092580503C08F5F809373
:1007A0005805E091580580915905E81739F0F0E0B7
:1007B000EC5BFA4F80818093CE0002C010925C0502
:1007C000FF91EF918F910F900BBE0F900FBE0F9086
:1007D0001F901895813011F080E00895CB01642FAF
:1007E0000E9453030895813011F080E00895CB01F9
:1007F000642F0E940D030895813011F085E808955B
:1008000060E875E280E090E00E94E70280E00895F1
:100810009093AB028093AA02EAE6F0E080818C60BC
:10082000808380E28CBB08951F920F920FB60F92C7
:100830000BB60F9211242F933F934F935F936F93B7
:100840007F938F939F93AF93BF93EF93FF93E09129
:10085000AA02F091AB020995FF91EF91BF91AF9180
:100860009F918F917F916F915F914F913F912F91C8
:100870000F900BBE0F900FBE0F901F90189515B8DC
:100880008FEF84B98FEF9FEF0E94EE0485B18095C2
:1008900085B9F8CFCF92DF92EF92FF920F931F931B
:1008A000CF93DF937B018A016901892B11F088EED8
:1008B00019C0CA01860F971F8150904110F085E83A
:1008C00011C0C0E0D0E00AC0CE018E0D9F1D0E9475
:1008D000BF2EF601EC0FFD1F80832196C017D107B4
:1008E00098F380E0DF91CF911F910F91FF90EF90EF
:1008F000DF90CF900895CF92DF92EF92FF920F9307
:100900001F93CF93DF938C017B016A01CB01800F92
:10091000911F8150904110F085E816C0C0E0D0E0F2
:100920000FC0C8010E94BF2EF601EC0FFD1F6081B1
:10093000861719F0C8010E94C72E0F5F1F4F21961E
:10094000CE15DF0570F380E0DF91CF911F910F91FD
:10095000FF90EF90DF90CF9008950E94B906089520
:1009600080E090E020E80FB6F89420936100809337
:1009700061000FBE0E9405090E9478090E9460086C
:1009800080E008958091810087708093810080913C
:1009900081008260809381000895FC0120915E05B2
:1009A00030915F05C901A0E0B0E0BC0155274427A4
:1009B0008091840090918500A0E0B0E0482B592BF5
:1009C0006A2B7B2B80915E0590915F052817390774
:1009D00029F7408351836283738308954FB7F89456
:1009E0008630910518F12091840030918500280F00
:1009F000391F80918400909185008217930740F4FD
:100A0000809184009091850082179307C8F30EC0EF
:100A1000809184009091850028173907C8F3809150
:100A200084009091850082179307C8F34FBF089503
:100A300020E090E0FC0153E0EE0FFF1F5A95E1F734
:100A4000E80FF91FE05AFA4F84819581892B09F04C
:100A500021E0822F0895DF92EF92FF920F931F9370
:100A6000DFB6F8948091AE028F3F09F453C090E056
:100A7000FC01A3E0EE0FFF1FAA95E1F7E80FF91FB5
:100A8000E05AFA4FE080F1800281138120915E05E7
:100A900030915F05C801AA27BB272817390751F4F1
:100AA000F0928900E092880082E086BB80916F001E
:100AB000826003C080916F008D7F80936F00609192
:100AC0005E0570915F059B0140E050E080918400DD
:100AD00090918500A90133272227A0E0B0E0282BC0
:100AE000392B4A2B5B2B80915E0590915F0568172F
:100AF000790729F72E193F09400B510B2F5F3F4F04
:100B00004F4F5F4F2F5F3F4F4F4F5F4718F481E0CC
:100B10008093AD02DFBE1F910F91FF90EF90DF90A9
:100B200008958091AD02882309F44CC01092AD0263
:100B30003091AC02332309F445C08091AF028F3F5E
:100B400059F48091B0028F3F39F48091AE028093C6
:100B5000B0028093AF0212C02091AE028091B00229
:100B600090E0FC0143E0EE0FFF1F4A95E1F7E80F2C
:100B7000F91FE05AFA4F20872093B0028091AE020D
:100B800090E0FC0123E0EE0FFF1F2A95E1F7E80F4C
:100B9000F91FE05AFA4F80858093AE028091B0022F
:100BA00090E0FC01B3E0EE0FFF1FBA95E1F7E80F0C
:100BB000F91FE05AFA4F8FEF808731503093AC0223
:100BC0000E942B050895FF920F931F93182F8530D5
:100BD00010F08AE8C5C0FFB6F8940E949105009114
:100BE000AC02002309F4C0C04091AE02242F302F84
:100BF000842F1217F1F5212F30E0141781F4F90139
:100C000063E0EE0FFF1F6A95E1F7E20FF31FE05A72
:100C1000FA4F80858093AE020E942B0518C090E0A9
:100C2000DC0153E0AA0FBB1F5A95E1F7A80FB91FCB
:100C3000A05ABA4FF90143E0EE0FFF1F4A95E1F7C2
:100C4000E20FF31FE05AFA4F808518968C93812F9C
:100C500090E0FC0123E0EE0FFF1F2A95E1F7E80F7B
:100C6000F91FE05AFA4F8FEF808701500093AC02D2
:100C700062C0822F90E0FC01B3E0EE0FFF1FBA9537
:100C8000E1F7E80FF91FE05AFA4F50853150822FF3
:100C900009F46AC0252FADCF1217D1F52091B0020B
:100CA0001317B1F4121721F48FEF8093B0020DC027
:100CB000812F90E0FC01A3E0EE0FFF1FAA95E1F762
:100CC000E80FF91FE05AFA4F80858093AF0233C0D6
:100CD000842F90E0DC01E3E0AA0FBB1FEA95E1F767
:100CE000A80FB91FA05ABA4F812F90E0FC0173E002
:100CF000EE0FFF1F7A95E1F7E80FF91FE05AFA4F60
:100D0000808518968C931217B1F44093B00213C0EB
:100D1000822F90E0FC0163E0EE0FFF1F6A95E1F780
:100D2000E80FF91FE05AFA4F422F20852F3F09F0B4
:100D3000B3CF80E00FC0812F90E0FC0153E0EE0FB5
:100D4000FF1F5A95E1F7E80FF91FE05AFA4F158295
:100D5000148281E0FFBE882311F489E801C080E09D
:100D60001F910F91FF9008953091AF02232F432FD1
:100D7000DDCF1F931FB7F8940E9491051FBF1FEF8F
:100D800025C06FB7F894822F90E0FC0173E0EE0F5E
:100D9000FF1F7A95E1F7E80FF91FE05AFA4F208517
:100DA000448155818681978110871582148217822C
:100DB00016822F3F09F43FEF6FBF4115510551F0E7
:100DC0003093B0022093AF02FA0109953091B0023E
:100DD0002091AF022F3FA9F63093B0022093AF02CB
:100DE0001F9108952F923F924F925F927F928F9220
:100DF0009F92AF92BF92CF92DF92EF92FF920F93AA
:100E00001F93CF93DF93782E5A016B01490194E031
:100E1000292E281610F48AE8E2C00115110509F4FC
:100E2000DBC0C82FD0E0FE0183E0EE0FFF1F8A95E4
:100E3000E1F7EC0FFD1FE05AFA4F84819581892B71
:100E400011F088E8CCC060915E0570915F059B0150
:100E500040E050E08091840090918500A901332703
:100E60002227A0E0B0E0282B392B4A2B5B2B809166
:100E70005E0590915F056817790729F78114910441
:100E800031F061E08616910409F0A6C011C0D601C8
:100E9000C50180589040A040B04080589F4FAF4F50
:100EA000BF4708F09BC0A20EB31EC41ED51E10C0C3
:100EB000D601C50180589040A040B040821B930BE2
:100EC000A40BB50B80589F4FAF4FBF4708F086C0AB
:100ED0009FB6F8940E9491055091AE025F3F31F0A9
:100EE0006091AC02452F252F30E054C07092AE02C5
:100EF000FE01A3E0EE0FFF1FAA95E1F7EC0FFD1F27
:100F0000E05AFA4F508731C02F3F09F43EC0822F7C
:100F100090E0FC0173E0EE0FFF1F7A95E1F7E80F18
:100F2000F91FE05AFA4F80819181A281B3811501A6
:100F30002601281A390A4A0A5B0AD201C1018F5FC9
:100F40009F4FAF4FBF4710F4808521C0FE0133E0B3
:100F5000EE0FFF1F3A95E1F7EC0FFD1FE05AFA4F35
:100F60002087521721F47092AE0291E017C0842FAF
:100F700090E0FC0123E0EE0FFF1F2A95E1F7E80F58
:100F8000F91FE05AFA4F708655C08FEF242F3F5F4C
:100F9000422F282F361708F4B7CF33C0FE0183E065
:100FA000EE0FFF1F8A95E1F7EC0FFD1FE05AFA4F95
:100FB000A082B182C282D38215830483F782E68243
:100FC0008091AC028F5F8093AC02992311F00E9454
:100FD0002B059FBE80E003C088EE01C08BE8DF9147
:100FE000CF911F910F91FF90EF90DF90CF90BF9026
:100FF000AF909F908F907F905F904F903F902F90F9
:101000000895842F90E0FC01B3E0EE0FFF1FBA9526
:10101000E1F7E80FF91FE05AFA4F7086FE01A3E0EE
:10102000EE0FFF1FAA95E1F7EC0FFD1FE05AFA4FF4
:101030008FEF808790E0B2CF1F920F920FB60F9282
:101040000BB60F9211242F933F934F935F936F939F
:101050007F938F939F93AF93BF93EF93FF93809171
:101060005E0590915F05019690935F0580935E0504
:101070000E942B05FF91EF91BF91AF919F918F91AE
:101080007F916F915F914F913F912F910F900BBE88
:101090000F900FBE0F901F9018951F920F920FB6D2
:1010A0000F9211248F938091AC02882319F081E074
:1010B0008093AD028F910F900FBE0F901F901895E7
:1010C0001092AC021092AD0210925F0510925E0574
:1010D0008FEF8093AE028093AF028093B002E4E67C
:1010E000F5E0848311821082399695E0E139F907A1
:1010F000C1F70E940C090895FC0180915E05909152
:101100005F052091860030918700A0E0B0E0DC010F
:101110009927882740E050E0822B932BA42BB52BF6
:1011200080839183A283B3830895CF92DF92EF925D
:10113000FF920F931F93DFB6F894E090B100F09008
:101140008100009180001092B100109281001092F5
:101150008000E0E06FEF7FEF40E050E01FEFF1E054
:10116000A0E2CA2EA4E2B4EF16BB17BB1092B200E5
:101170001092850010928400F0938100F093B100EA
:10118000C092B600B89BFECF109281001092B100C1
:1011900020918400309185002115310511F480E003
:1011A00024C084EF2532380720F4CD01821B930B35
:1011B00003C0C9018452944F8617970718F4E09131
:1011C0006600BC012552344F20F4809166008F5F89
:1011D00003C0809166008150809366004F5F5F4F2F
:1011E0004436510509F0C0CF81E0E092B100F092A1
:1011F000810000938000DFBEE09366001F910F9195
:10120000FF90EF90DF90CF900895209A219A0F9A47
:10121000229A249A23980895E1E8F0E0808187706B
:10122000808380818260808382E086BB84E086BB8D
:1012300088E086BBEFE6F0E08081816080830895DE
:101240002D982E982F98259A269A279A08958130BE
:10125000910519F0029719F404C036E003C035E097
:1012600001C037E061157105B9F06130710551F4C5
:1012700095B102C0660F771F3A95E2F7862F8095E9
:1012800089231FC085B190E0032E02C095958795F4
:101290000A94E2F780FD0BC025B181E090E002C026
:1012A000880F991F3A95E2F7282B25B9089525B1A3
:1012B00081E090E002C0880F991F3A95E2F780958F
:1012C000822385B90895769A779A6E986F980895D3
:1012D000019711F487E001C086E02CB130E002C034
:1012E000359527958A95E2F721703070C9010895E8
:1012F00080E58CBD81E08DBD8CB58C7F8CBD289A3E
:1013000008959DB3ED98806C28988EBD0DB407FEAE
:10131000FDCF6EBD0DB407FEFDCF289A9DBB08958D
:101320009DB3ED98806828988EBD0DB407FEFDCF63
:101330001EBC0DB407FEFDCF8EB5289A9DBB089547
:10134000FC01289880E28EBD0DB407FEFDCF1EBCC7
:10135000613089F0DF01262F0DB407FEFDCF8EB579
:101360001EBC8D9321502230B8F76250862F90E03A
:101370000196E80FF91F0DB407FEFDCF8EB58083EF
:10138000289A0895FC01289880E68EBD0DB407FECA
:10139000FDCF819161500DB407FEFDCF8EBD662358
:1013A000C1F70DB407FEFDCF289A0895FF920F9361
:1013B0001F93062FF42E0E949009082310E002C00C
:1013C00015950795FA94E2F7802F1F910F91FF90E2
:1013D0000895DF92EF92FF920F931F93D82EF62E6F
:1013E000E42E022F0E94900910E002C0000F111F8E
:1013F000EA94E2F76F2D6023F094F8226F298D2D87
:101400000E9481091F910F91FF90EF90DF90089546
:10141000BC01009721F089E295E00E943D0A089501
:1014200089E295E060E070E00E94D20A08950F938F
:101430001F93CF93DF9389E295E00E94360AC9E1BA
:10144000D5E001EB12E01983088389E295E0BE0143
:101450000E943D0A249606561F4F85E0C932D807E0
:1014600091F7DF91CF911F910F910895FC011182A7
:1014700010821382128214820895CF93DF93DC01CD
:10148000EB019FB7F89414968C911497882321F45C
:1014900011967C936E9306C01296ED91FC91139772
:1014A000738362831396DC93CE9312971B821A8206
:1014B00014968C9114978F5F14968C939FBFDF9135
:1014C000CF9108959F92AF92BF92CF92DF92EF9209
:1014D000FF920F931F93CF93DF938C015B016A01FF
:1014E0009FB6F894DC0114968C91882319F4C0E01F
:1014F000D0E04AC0F801C081D18141155105B1F059
:101500007E0111C0D60112966D917C911397ED91D9
:10151000FC91888199810995882359F47E018A81FB
:101520009B819C01E901209769F72EC0209761F10A
:101530007E01AB2849F5F801808191812A813B81A8
:10154000C817D90719F43183208305C0D701139632
:101550003C932E931297F80182819381C817D90783
:1015600011F4F382E282D80114968C911497815081
:1015700014968C9314978D919C911197892B21F43B
:1015800013961C921E9212979FBECE01DF91CF91AF
:101590001F910F91FF90EF90DF90CF90BF90AF9091
:1015A0009F900895AB0160E070E00E94620A089588
:1015B000AB0161E070E00E94620A0895CF93DF936F
:1015C000EC010BC0CE0160E070E00E94D20A0097EF
:1015D00011F41C8205C00E94080A8C81882391F7AF
:1015E000DF91CF9108950F931F93DF93CF93CDB7E2
:1015F000DEB728970FB6F894DEBF0FBECDBF81E0EF
:101600006FE140E00E94D609883039F58FE00E94F2
:10161000900982E069E00E948109CE0101960E9452
:10162000CD048E010B5F1F4F8FE00E94900980FD5B
:1016300014C0C8010E94CD048D819E81AF81B88500
:1016400029813A814B815C81821B930BA40BB50BE2
:101650008D3D9105A105B10538F328960FB6F89494
:10166000DEBF0FBECDBFCF91DF911F910F910895C7
:101670000F931F93082F8091AD058F3081F42C9824
:1016800081E06FE140E00E94D6098830C9F7083058
:1016900011F0033021F488E08093AD0558C181E05A
:1016A0006FE140E00E94D6098093AD05083009F44F
:1016B0003DC0093050F4043009F472C0063009F41A
:1016C0007CC0033009F03AC141C00F3069F00031ED
:1016D00020F4093009F032C149C0063109F496C03E
:1016E000093109F02BC1DEC082E063E00E9481096C
:1016F0000E94DC2B682F192F8DE20E9481098EE257
:1017000067E040E0212F0E94E9090000000000008E
:10171000000000000000000000002C9A83E290E02E
:101720000E94EE040093AD058FE011C1883009F4EA
:1017300005C182E068E00E9481090000000000000D
:1017400000000000000000000000F8C0883009F42C
:10175000F5C082E063E00E94810900000000000003
:1017600000000000000000000000E8C08830E9F040
:10177000893020F4863009F0E1C005C0863119F0C7
:10178000893109F0DBC082E069E00E948109000034
:101790000000000000000000000000000000CEC0BB
:1017A000883019F0893021F4C9C00E94F30AC6C0FC
:1017B00082E064E00E948109C1C0893059F08A301A
:1017C00020F4883009F0BAC012C0863119F089318E
:1017D00009F0B4C082E066E00E94810900000000C8
:1017E000000000000000000000000000A7C00E94F0
:1017F000F30A82E066E00E94810900000000000018
:101800000000000000000000000098C08830C1F017
:10181000893020F4863009F091C021C0893019F058
:10182000893109F08BC082E066E10E9481090000E5
:1018300000000000000000000000000000007EC06A
:101840000E94F30A82E066E10E9481090000000024
:101850000000000000000000000000006FC082E0F7
:1018600069E00E9481090000000000000000000003
:1018700000000000000081E06FE140E00E94D60916
:101880008093AD05893009F062C082E066E10E9474
:1018900081090000000000000000000000000000BE
:1018A00000004CC0883009F43BC0893020F48630F9
:1018B00009F044C013C0893021F0863109F03EC0E0
:1018C0000DC082E069E10E94810900000000000073
:1018D0000000000000000000000030C082E069E06D
:1018E0000E948109000000000000000000000000CC
:1018F0000000000081E06FE140E00E94D609809383
:10190000AD05893021F582E069E10E94810900007E
:1019100000000000000000000000000000000EC0F9
:101920000E94F30A82E069E10E9481090000000040
:1019300000000000000000000000000081E06FE1F6
:1019400040E00E94D6098093AD058F31B9F31F9115
:101950000F91089580919E058823E1F08091B6054E
:101960008823C1F480912E0590912F05892B39F49D
:101970008AE90E94100A90932F0580932E0580918A
:101980002E0590912F05892B29F010929E0586E156
:101990000E94380B8091A305882351F08FE995E0D0
:1019A00060E070E00E94D20A009711F00E94DF0C04
:1019B0008091B605823011F40E94370E0895EF929F
:1019C000FF920F931F93CF93DF937C01DC010D9166
:1019D0001C91D8011696ED91FC9117978081809308
:1019E000AF05C82FD0E02196CE0FDF1F9881298147
:1019F000263210F025E203C0222309F421E092955B
:101A00009695969593708FEF989FC001112430E0C2
:101A1000FC01E29FC001E39F900DF29F900D112405
:101A20006FE670E00E944B2B6F3F710511F008F0DC
:101A30006FEF6883D8011296FC92EE921197C8015D
:101A40000E94C716DF91CF911F910F91FF90EF90E9
:101A50000895DF92EF92FF920F931F93DF93CF933E
:101A60000F92CDB7DEB7E0912E05F0912F0530979C
:101A7000C1F1E080F18087E00E949009D82ECE016C
:101A8000019661E00E94A009698167FD2AC06D5F2F
:101A90000AE910E0061B11090E0D1F1D6150C80157
:101AA0000E94A009F701178306838981080F111D81
:101AB000F801D28260912E0570912F058FE995E093
:101AC0000E943D0A8AE90E94100A90932F05809394
:101AD0002E05892B31F489E00E94380B81E0809338
:101AE0009E050F90CF91DF911F910F91FF90EF9086
:101AF000DF900895882311F087E005C082E060EE52
:101B000045E00E94D6098093300582E08093B605B7
:101B100080912E0590912F05892B39F489E00E9440
:101B2000380B81E080939E05089586E10E94380B72
:101B30000895EF92FF921F93CF93DF937C01EB0107
:101B4000142F442331F08CE260EF44E02091AC0587
:101B500004C08CE260EF44E020E00E94E909C2305A
:101B6000D10598F4112361F08CE26EE041E0209100
:101B7000A4050E94E9098FE260E00E94810916C075
:101B80008CE26EE041E027E00FC06091A80562950D
:101B9000607F8091AB05682B8FE20E9481098CE207
:101BA0006EE041E02091A4050E94E90989E10E94CC
:101BB000380B8931D9F7ED98219779F58091AF05E8
:101BC000909198058331A0F08091A605992341F466
:101BD000882319F088EA93E01EC080E997E01BC0D3
:101BE000882319F080E492E016C080E096E013C0EC
:101BF0008091A605992341F4882319F08CEE90E09A
:101C00000AC088E192E007C0882319F080E890E0DC
:101C100002C080EA91E00E94EE042C9A2C98C70141
:101C2000F70160810E94C20981E08093B605ED9AB8
:101C3000DF91CF911F91FF90EF900895FC0180916B
:101C4000B605882311F086E80895F093AA05E0937D
:101C5000A905868197819093B1058093B00500977F
:101C600011F488EE08950E94990D80E00895109275
:101C7000B605809130058330B1F0843028F4882394
:101C800031F08130E1F409C08530C9F412C06091AF
:101C9000A9057091AA0580E017C06091A90570910F
:101CA000AA0587E811C06091A9057091AA0581EE87
:101CB0000BC06091A9057091AA0589EE05C06091DD
:101CC000A9057091AA0585E80E9456230895809180
:101CD0008D0585FD03C0982F9F7308C0982F91959F
:101CE0009F719195963F14F495EF22C080919805CD
:101CF000823059F08530A1F08823A1F48091A605A7
:101D0000882359F49630FCF411C08091A6058823ED
:101D100021F494303CF093E00FC09B3094F402C067
:101D200096308CF4903214F08FE908C097FF04C00D
:101D3000892F8F71806A02C0892F806880938D05FA
:101D400008959AE0F9CF95E0F7CF1F9384E0809350
:101D5000A40523E02093AB058FEF9FEF90939A05A6
:101D60008093990590939D0580939C0511E01093B5
:101D7000A6051092980588E294E0909397058093C9
:101D8000960588E28093AE0588E08093A50585E0FE
:101D90008093A8052093AC058AE880938D050E9466
:101DA000670E10939B051092A7051F91089585FD5E
:101DB00003C0982F9F7304C0982F91959F719195A0
:101DC00080919805853051F4892F992787FD90954A
:101DD000E6EDF0E0E81BF90B849108958091A605EB
:101DE000292F332727FD3095882331F4ECEEF0E0DE
:101DF000E21BF30B84910895E2E0F1E0E21BF30BA8
:101E000084910895E0919805EE2309F0C1C060E047
:101E100074E048E050E020E230E0240F351F260F48
:101E2000371F3093970520939605EE2319F428E089
:101E300090E202C022E098E0920F9093AE05EE236C
:101E400011F092E001C098E09093A505823091F0E6
:101E5000853009F456C0882311F080E008958CE0A5
:101E600068E043E020E00E94E90986E163E040E0A9
:101E700023E010C08CE068E043E021E00E94E90923
:101E800086E163E040E022E00E94E9098CE063E043
:101E900040E020E00E94E9098091A605882321F412
:101EA0008CE064E042E009C08CE064E042E021E0C4
:101EB0000E94E9098CE060E144E020E00E94E90929
:101EC00087E164E042E020E00E94E9098FEF97E0BB
:101ED000A0E0B0E08093B2059093B305A093B40561
:101EE000B093B50584E167E040E020E00E94E90995
:101EF00088E06FE140E02091A6050E94E90981E0B9
:101F000008958CE068E043E021E00E94E90986E161
:101F100063E040E022E00E94E9098CE063E040E0F9
:101F200020E00E94E9098CE060E144E021E00E94A9
:101F3000E9098CE064E042E021E00E94E90987E1E0
:101F400064E042E020E00E94E9098FE090E0A0E038
:101F5000B0E08093B2059093B305A093B405B0931D
:101F6000B5058091A605843010F01092A60584E195
:101F700067E040E024E00E94E9092091A605220FD5
:101F8000255F83E16FEF40E00E94E90981E0089559
:101F900060E071E042E050E028E030E03ECF1F9387
:101FA000CF93DF9382E2609199050E94810960914D
:101FB0009A0583E20E948109CEE8D5E014E2812FE0
:101FC00069910E9481091F5F1C32C9F780E260910C
:101FD0009C050E94810960919D0581E20E94810912
:101FE00088E060E645E020919B050E94E9098FE2C8
:101FF0006FE040E02091AB050E94E9098EE268E0C5
:1020000043E02091A7050E94E9098FE260EF44E0D8
:102010002091A8050E94E909809198050E94020F6D
:1020200080918D050E94D70E682F85E00E9481095E
:10203000DF91CF911F910895FF920F931F93CF933C
:10204000DF93EB018E3431F0893541F48881809340
:10205000AC0515C188818093A40511C19091AD058F
:102060009F3011F481E80CC18B3009F4FDC08C3035
:1020700070F4823009F4C0C0833018F48823D9F199
:1020800015C0833009F4C4C0843081F489C083351D
:1020900019F1843528F48F3459F0803539F40FC0A4
:1020A000873509F4A2C0803F09F4BBC084EFE8C0C3
:1020B00028812093AB058FE26FE040E0AFC06881DC
:1020C00089816093990580939A0582E20E94810933
:1020D00060919A0583E20CC06881898160939C05B8
:1020E00080939D0580E20E94810960919D0581E2B7
:1020F0000E948109C4C08091B605882309F0BBC045
:10210000809198052881853029F48FE090E0A0E047
:10211000B0E004C08FEF97E0A0E0B0E004C0B69557
:10212000A795979587952A95D2F780FFA6C010911D
:10213000A60588818093A6058091AD05883011F4AD
:1021400008E006C088E00E94380B8830D9F706E125
:10215000809198052091A605853029F4220F255FEE
:1021600083E16FEF06C0222341F0112331F088E0B4
:102170006FE140E00E94E9090CC00E94020F0E943A
:10218000670E80918D050E94D70E682F85E00E9412
:102190008109083009F473C086E10E94380B6FC0D2
:1021A0008091B605882309F066C0983011F418E0D4
:1021B00006C088E00E94380B8830D9F716E1F88015
:1021C0008F2D0E94020F082F183019F086E10E940F
:1021D000380B002309F451C0F09298050E94670E55
:1021E00080918D050E94D70E10C028812093A805EC
:1021F0008FE260EF44E012C0888180938D050E94D9
:10220000670E80918D050E94D70E682F85E070CFF4
:10221000288120939B0588E060E645E00E94E9095B
:102220002EC0888180938E05898180938F058A8155
:10223000809390058B81809391058C81809392058A
:102240008D81809393058E81809394058F818093F7
:102250009505CEE8D5E014E2812F69910E948109AD
:102260001F5F1C32C9F70BC028812093A7058EE29F
:1022700068E043E0D3CF86E803C088EE01C080E089
:10228000DF91CF911F910F91FF900895FF920F93CF
:102290001F93CF93DF93F82E2C988CE791E00E9448
:1022A000EE04179881E090E00E94EE04179A10E087
:1022B00081E06FE140E00E94D6091F5F1B3F11F4EF
:1022C00085E86EC08830A1F78093AD0583E060E3B8
:1022D00044E020E00E94E90983E068E043E020E078
:1022E0000E94E90983E067E040E021E00E94E909FB
:1022F0008EE260E245E021E00E94E9098CE060E8BE
:1023000047E021E00E94E90984E062E041E021E049
:102310000E94E9098EE068E00E94810986E00E943F
:10232000380B0DB3ED98C0E0D0E010E086E060E639
:1023300045E00E94D6099E01220F331F220F331F52
:10234000C82FD0E0C22BD32B1F5F183079F783E062
:102350000E94380B8FE00E94900980E28CBB0DBB7D
:10236000CE010E94E12B0E94DC2B682F192F8DE2F9
:102370000E9481098EE267E040E0212F0E94E90976
:1023800080E00E94FB120E94E812FF2011F00E94E0
:10239000A50E0E94CF0F1092B60510929E0580E008
:1023A000DF91CF911F910F91FF9008950E944611E8
:1023B000882361F085E808958FE995E060E070E09A
:1023C0000E94D20A009711F00E94080A8091A3058A
:1023D000882391F786ED92E10E94080480E28CBB8D
:1023E000ED9A80E008950F931F93CF93DF930E949F
:1023F000B004882309F0D4C0179A2C988AE491E09D
:102400000E94EE0410E0179881E090E00E94EE0434
:10241000179A115009F4C4C08DE10E9490098130CF
:1024200091F78CE10E949009873069F783E067E0BB
:1024300040E021E00E94E90982E063E00E94810916
:1024400010E081E06FE140E00E94D609115009F4EC
:10245000A7C08830B1F78093AD0580E090E060E0E0
:1024600070E048E050E02EE835E00E944A0409C0E0
:10247000CEE8D5E00E94DC2B899385E0C639D807E9
:10248000C9F780918E0530918F054091900560913C
:10249000910570919205F0919305B091940550913A
:1024A0009505082F015091E0081708F090E0832F60
:1024B000815021E0831708F020E0192F180F91E0D8
:1024C000181708F090E0292B842F815031E08417F1
:1024D00008F030E0A22FA80F91E0A81708F090E0D4
:1024E000392B862F815021E0861708F020E0E32F5A
:1024F000E80F91E0E81708F090E0292B872F815032
:1025000031E0871708F030E0622F680F91E068171C
:1025100008F090E0392B8F2F815021E08F1708F0C1
:1025200020E0432F480F91E0481708F090E0292B56
:102530008B2F815091E08B1708F090E0322F380FED
:1025400021E0381708F020E0922B5195591779F4C3
:102550003F3F69F44F3F59F46F3F49F4EF3F39F47F
:10256000AF3F29F41F3F19F40E3F08F081CF81E0FF
:102570000E9446118823A1F486ED92E10E9408048E
:10258000ED9A0E94170A8AE90E94100A90932F057B
:1025900080932E058FE995E00E94360A80E001C005
:1025A00085E8DF91CF911F910F9108958FE00E94F0
:1025B0009009282F83FF0BC08091B605813029F444
:1025C00026FF80E00E947A0D08950E94290D08954B
:1025D0008091AD058F3011F082E8089588E00E9467
:1025E000380B883011F085E8089581E090E00E9472
:1025F000C20480E00895882311F088EE0895809148
:10260000AD058F3011F481E808958091B6058823D7
:1026100091F410929E0588E00E94380B8830D9F71B
:1026200080E090E00E94C2048FE00E94380B8F305F
:1026300011F480E0089586E80895982F8091B605FA
:10264000882311F086E80895983039F488E00E94D4
:10265000380B10929E0588E0089580912E05909188
:102660002F05892B29F086E10E94380B86E008951A
:1026700081E080939E0586E00895DC01ED91FC9158
:10268000119784E1808363835283418386E196E0DE
:10269000BD010E943D0A08950F931F93DF93CF93CE
:1026A00000D0CDB7DEB7A091D305B091D405ED91A0
:1026B000FC91119784E180838BEE83830FEF1FEFF2
:1026C0001283018386E196E0BD010E943D0A1092CB
:1026D000C4051A83098380E5BE016F5F7F4F0E94A6
:1026E000351F1093D6050093D5051092E30510927F
:1026F000E4051092E5051092E6051092E7051092A8
:10270000E8051092E9051092EA050E942E1E0F902E
:102710000F90CF91DF911F910F910895CF92DF928B
:10272000EF92FF920F931F93809198059091A605C9
:102730008823D1F44091DF055091E005992341F4BD
:10274000BA0180E090E022E330E040E050E007C0D2
:10275000BA0180E090E029E130E040E050E00E94E2
:102760002C2B6B017C0118C04091DF055091E005D6
:10277000992341F4BA0180E090E028E230E040E0A3
:1027800050E0EDCF6A01EE24FF2484E0CC0CDD1C88
:10279000EE1CFF1C8A95D1F780E061E040E020E06C
:1027A00030E000E010E00E94BE198823A9F4A09157
:1027B000D305B091D405ED91FC91119784E180830C
:1027C00081EE83838FEF9FEF9283818386E196E092
:1027D000BD010E943D0A11C080E0B701A60120E0C2
:1027E00030E00CE413E1EE24FF240E94F20688237B
:1027F00021F080E090E00E944C131F910F91FF9018
:10280000EF90DF90CF900895FF920F931F93DF9387
:10281000CF9300D0CDB7DEB7F0900B060E94080A28
:10282000FF20B1F583E569E076E00E94351F209135
:10283000090630910A068091FE058093E305809198
:10284000FF058093E405809100068093E505809163
:1028500001068093E605809102068093E70580914A
:1028600003068093E805809104068093E905809132
:1028700005068093EA0581E0809312061092C40554
:102880008091CE05833031F582E08093CE0522C061
:102890001092C4050FEF1FEF1A83098380E5BE0174
:1028A0006F5F7F4F0E94351F1093D6050093D505AB
:1028B0001092E3051092E4051092E5051092E605EA
:1028C0001092E7051092E8051092E9051092EA05CA
:1028D0002FEF3FEFE091D305F091D405A081B181B6
:1028E00084E18C931396FC92139712963C932E934B
:1028F000119786E196E0BF010E943D0A0E942E1EBC
:102900000F900F90CF91DF911F910F91FF9008953D
:10291000CF92DF92EF92FF921F93DF93CF93CDB7C9
:10292000DEB72F970FB6F894DEBF0FBECDBFAC0158
:102930007C01DE011196FC01808191819C01F901ED
:102940008FE001900D928150E1F74093D3055093B1
:10295000D4058C81823019F48F8198851AC08F81BB
:102960008093E30588858093E40589858093E50558
:102970008A858093E6058B858093E7058C85809317
:10298000E8058D858093E9058E858093EA058EEFB5
:102990009FEF9093D6058093D50580E5BE016B5FD0
:1029A0007F4F0E94351F0E94091ED701CD90DC90F9
:1029B00081E0F6018083F282E182EA56FF4F808354
:1029C0008F8581839F0128503040D901EEE8F5E0E2
:1029D00088E001900D928150E1F7F9018FEF9FEFB0
:1029E000929382938C81823051F48091D50590919D
:1029F000D6059293829345E123E238EC11C0F901A8
:102A00003A979F0143EE55E088E0DA010D90AD0161
:102A1000D9010D929D018150C1F74BE123E23CECBD
:102A20008091990590919A05929382938091CF0518
:102A300082938F5F8093CF05329322934293D60186
:102A40001796FC93EE93169784E0BE016D5F7F4F5F
:102A50000E94351F182F80E0BE016E5F7F4F0E94DD
:102A6000351F112371F4882361F4C60162E070E020
:102A700041E00E941E0E882321F481E0809313061A
:102A800012C0D701ED91FC9184E1808381EE8383B4
:102A90008FEF9FEF9283818386E196E0B7010E94DA
:102AA0003D0A0E942E1E2F960FB6F894DEBF0FBE71
:102AB000CDBFCF91DF911F91FF90EF90DF90CF902E
:102AC0000895FC010190F081E02D62817381818184
:102AD000448125810E942B2B08950F931F938C0115
:102AE000DC01ED91FC91818162810E94282BC8015B
:102AF0000E94080A1F910F910895AF92BF92CF9242
:102B0000DF92EF920F931F935C01DC01ED91FC913A
:102B10000481158126813781818162814381E0842E
:102B200039966F010E94DD01C5010E94080A1F91BC
:102B30000F91EF90DF90CF90BF90AF9008950F93DB
:102B40001F938C01DC01ED91FC9181810E942A2B65
:102B5000C8010E94080A1F910F9108950F931F93B7
:102B60008C01DC01ED91FC9181810E942C02C80155
:102B70000E94080A1F910F9108950F931F938C01D3
:102B8000DC01ED91FC9181810E94E100C8010E946D
:102B9000080A1F910F9108950F931F938C01DC0178
:102BA000ED91FC91818162813396AF010E94272BC8
:102BB000C8010E94080A1F910F910895EF92FF9299
:102BC0000F937C01DC01ED91FC91218132814381E5
:102BD0005481658176818781908501850E94262BAD
:102BE000C7010E94080A0F91FF90EF9008950F937C
:102BF0001F93DF93CF93CDB7DEB72B970FB6F89423
:102C0000DEBF0FBECDBF8C01DC01ED91FC91828156
:102C10008983838194819B838A839E012C5F3F4FAC
:102C2000AF014B5F5F4F88E0DA010D90AD01D90134
:102C30000D929D018150C1F78181BE016F5F7F4F71
:102C40000E94252BC8010E94080A2B960FB6F89403
:102C5000DEBF0FBECDBFCF91DF911F910F910895C1
:102C6000CF92DF92EF92FF920F936C01DC01ED9116
:102C7000FC91BF016E5F7F4F24893589E788F08C16
:102C80008181438906890E94242BC6010E94080A7B
:102C90000F91FF90EF90DF90CF9008950F931F93C7
:102CA0008C01DC01ED91FC918181928163810E9414
:102CB000B401C8010E94080A1F910F9108950F9353
:102CC0001F938C01DC01ED91FC91818162810E9456
:102CD000232BC8010E94080A1F910F910895CF92DB
:102CE000DF92EF920F93DF93CF93CDB7DEB7669766
:102CF0000FB6F894DEBF0FBECDBF6C01DC01ED91C5
:102D0000FC9181818983828193819B838A839E0147
:102D10002C5F3F4FAF014C5F5F4F88E0DA010D90B1
:102D2000AD01D9010D929D018150C1F784858C8739
:102D3000858596859E878D879E01215F3F4FAF01D8
:102D4000415F5F4F88E0DA010D90AD01D9010D922E
:102D50009D018150C1F7228D338DCE010196BE01B8
:102D6000645F7F4F418D0789E08C0E941E01C60180
:102D70000E94080A66960FB6F894DEBF0FBECDBF5C
:102D8000CF91DF910F91EF90DF90CF900895FC01EC
:102D90001082618172816115710521F08AED95E0E3
:102DA0000E943D0A08950F931F93CF93DF93282F1E
:102DB0008091090690910A0696FFA3C0222359F438
:102DC0002091FC053091FD058091990590919A051F
:102DD0002817390761F02091FC053091FD0580919D
:102DE000D8059091D9052817390709F08AC0209194
:102DF000FE053091FF058091D5059091D6052817E5
:102E0000390709F47EC09091FE058091E30598177B
:102E100059F59091FF058091E405981729F5909157
:102E200000068091E5059817F9F4909101068091CC
:102E3000E6059817C9F4909102068091E705981766
:102E400099F4909103068091E805981769F49091A0
:102E500004068091E905981739F490910506809150
:102E6000EA05981709F44DC08AE90E94100A8C01FE
:102E7000009709F446C0DC012D913C9185E0F901F1
:102E8000808312830183E956FF4F8083AF0148504E
:102E90005040FA01AEE8B5E088E00D900192815013
:102EA000E1F7FA013897EF01A3EEB5E088E00D9065
:102EB00009928150E1F78091990590919A0592933A
:102EC00082938091CF0582938F5F8093CF0583E6B5
:102ED0009CEC9293829388E18293D9011796FC939C
:102EE000EE931697C90162E070E041E00E941E0E69
:102EF000882321F481E08093130603C0C8010E9457
:102F0000080ADF91CF911F910F9108950F931F939E
:102F1000CF93DF93EC01E881F981A681B7817C91A1
:102F20007093EE05FD01E70FF11D81818093070687
:102F300011964D915C9112975093EC054093EB05DF
:102F400013968C9113978093EF058D010C5F1F4FA3
:102F5000652F6295669566956370352F3695369523
:102F6000337019F4F80120E049C014968D919C91BA
:102F700015979093F2058093F105FD013696323056
:102F8000E1F41092F3051092F4051092F5051092F9
:102F9000F6051092F7051092F8051092F9051092B7
:102FA000FA0516968D919C9117979093F40580934E
:102FB000F305FD01389624E021C0333011F022E002
:102FC0001DC016968C9116978093F305818180938E
:102FD000F40582818093F50583818093F6058481D1
:102FE0008093F70585818093F80586818093F905A4
:102FF00087818093FA05FD013E962AE0662309F455
:1030000047C046FD08C0819191919093FD05809342
:10301000FC052E5F08C08091F1059091F205909318
:10302000FD058093FC056230C1F41092FE051092FC
:10303000FF051092000610920106109202061092EF
:1030400003061092040610920506808191819093E8
:10305000FF058093FE052E5F1BC06330C9F480819D
:103060008093FE0581818093FF0582818093000615
:1030700083818093010684818093020685818093F9
:103080000306868180930406878180930506285F66
:10309000972F9550921B909308066093FB053093F1
:1030A000F00543FD5CC1D801A20FB11D842F8770CC
:1030B0008093ED05833021F48C918093060663C0E4
:1030C000813009F451C0813020F0833009F047C1CC
:1030D0005AC08D919C91119790930A06809309068E
:1030E00012968C91129780930B06877011F493E0DF
:1030F00002C0982F9C5FFD01E90FF11D8081809334
:103100000C06292F2F5F382F377090E08077907052
:1031100044E0959587954A95E1F7482F332311F4BC
:10312000882389F0CD01820F911D90930E06809324
:103130000D06332311F0330F230F442321F0440FE6
:10314000440F440F240F80910806281750F4821B67
:1031500080930F06A20FB11DB0931106A093100625
:1031600002C110920F06FFC0992351F0963718F054
:1031700086E780930806B0930A06A0930906F3C079
:1031800010920806F0C080910606843009F4EBC066
:10319000853030F4823059F0833009F0E0C014C03B
:1031A000873009F4E0C0883009F0D9C012C0119608
:1031B0008D919C91129790930A068093090613961D
:1031C0008C9180930B06CFC011968C918093090649
:1031D000CAC011968D919C91129790930A06809384
:1031E000090613968D919C91149790930C068093E9
:1031F0000B0615968C91159780930D0616968D915A
:103200009C91179790930F0680930E0654FFABC0C6
:1032100018968C9180931006A6C08091ED0583309E
:1032200061F480910606843011F0873031F48AED24
:1032300095E0BE010E943D0A9CC08091C40581308A
:1032400009F478C0813020F0843008F088C059C07B
:103250008091CD05882351F590911206923008F0A7
:103260007EC08091ED05813009F475C0813020F079
:10327000833009F074C00CC080911506882309F4CE
:103280006EC0992309F46BC080E00E94D31667C01A
:1032900080910606833009F040C0CE010E94D21A08
:1032A00080911206813009F064C03DC08330D1F0B6
:1032B000843019F0823009F052C08091ED058823E6
:1032C00009F04DC080911506882341F080911206C7
:1032D0008150823018F481E00E94D316CE010E9402
:1032E000082247C08091ED058330C9F5809106061C
:1032F0008830A9F581E00E94E305CE010E941E26D8
:1033000038C00E9477218091ED05813021F1833012
:1033100031F580910606833019F0883001F506C03A
:10332000CE010E94D21A0E94DC1E23C0CE010E9450
:103330001B291FC08091ED05833059F4809106064A
:10334000823069F480E00E94E305CE010E940414FB
:1033500010C0813021F4CE010E94D91B0AC0CE01D9
:103360000E94080A06C080911306882309F055CFF1
:1033700064CFDF91CF911F910F9108956F927F924B
:103380009F92AF92BF92CF92DF92EF92FF920F93F4
:103390001F93CF93DF93D82E962EC42E5901380158
:1033A0008AE90E94100A7C01009709F49BC0DC01A5
:1033B0000D911C91DD2021F084E0F801808303C091
:1033C0008BE0D8018C93F801F282E182E956FF4F3D
:1033D00084E0808320919C0530919D05C90102966F
:1033E000029710F0992069F03897EF01AEE8B5E048
:1033F00088E00D9009928150E1F762E183E290EC60
:1034000005C0329322936CE083E290E8CC2061F017
:103410002091990530919A056216730629F06E5F26
:103420003293229370E002C0806471E022E0C21601
:1034300041F4AC015860D5018D919C919293829397
:1034400028C0B3E0CB1661F4AC015C6038976A5FCA
:10345000EF01D50188E00D9009928150E1F719C084
:103460002091D5053091D6054FEF2E3F340729F036
:10347000AC015860329322930CC0AC015C60389769
:103480006A5FEF01A3EEB5E088E00D9009928150EC
:10349000E1F73297772339F08091990590919A0559
:1034A0009183808302C0718260828091CF05829374
:1034B0008F5F8093CF05529342936293D801179602
:1034C000FC93EE931697C80162E070E041E00E9421
:1034D0001E0E882321F481E08093130604C0C701E7
:1034E0000E94080A80E0DF91CF911F910F91FF9019
:1034F000EF90DF90CF90BF90AF909F907F906F90B4
:103500000895EF92FF920F931F93CF93DF937C0167
:10351000E801DC01ED91FC9186E1808361834283C7
:1035200034832383CF010596423069F415821682D5
:1035300017821086118612861386148688819981D7
:103540009683858307C0DC01F80188E001900D9225
:103550008150E1F786E196E0B7010E943D0ADF91D4
:10356000CF911F910F91FF90EF9008950F931F93AC
:10357000AC0180919C0590919D0502962091990542
:1035800030919A05029728F4CA0143E00EE815E04D
:1035900004C0CA0142E00CE915E00E94811A1F91A3
:1035A0000F910895CF93DF939C01FC01C081D181DD
:1035B000FE0185E18193AEEFB5E088E00D900192C8
:1035C0008150E1F780910906898786E196E0B9018B
:1035D0000E943D0A1092E3051092E4051092E50561
:1035E0001092E6051092E7051092E8051092E905A1
:1035F0001092EA058FEF9FEF9093D6058093D50543
:10360000DF91CF9108950F931F93DF93CF93CDB7A1
:10361000DEB72E970FB6F894DEBF0FBECDBF8C017C
:10362000DC014D915C91DE011196FA018EE0019072
:103630000D928150E1F7FA011283018383E08083C8
:10364000EA56FF4F80838D85818338979F016EE80E
:1036500075E088E0DB010D90BD01D9010D929D015F
:103660008150C1F78A81823031F48D819E8192939D
:10367000829333E10FC038979F01BE016B5F7F4F8C
:1036800088E0DB010D90BD01D9010D929D018150B3
:10369000C1F739E18091990590919A0592938293AF
:1036A0008091CF0582938F5F8093CF052A81922FDF
:1036B000990F990F80E08366906C92938293329376
:1036C000DA011796FC93EE9316970E94091EF801F3
:1036D0008081918162E070E041E00E941E0E8823AB
:1036E00021F481E0809313060CC02B813C81C8013A
:1036F00061EE4A818E010B5F1F4F0E94811A0E946A
:103700002E1E2E960FB6F894DEBF0FBECDBFCF9102
:10371000DF911F910F910895DC01ED91FC911197BC
:10372000E081E43278F4F0E0EE0FFF1FE25FFE4F3D
:10373000259134912115310519F0F9010995089564
:103740000E94080A08951F9380911306882381F42C
:103750008091CC05882361F088EC95E060E070E012
:103760000E94D20A009721F00E948C1B11E001C038
:1037700010E08091DE05882359F08AED95E060E045
:1037800070E00E94D20A009719F00E948C1B11E091
:10379000812F1F910895DC01ED91FC91119780E13B
:1037A00080834183628386E196E0BD010E943D0AE9
:1037B00008950F931F93DF93CF93CDB7DEB728976C
:1037C0000FB6F894DEBF0FBECDBFAC01DC019C91FB
:1037D00011962C9180910806882321F4CA010E9439
:1037E000080AFAC0E92FF22F8091EF05808F8091AF
:1037F000FB05818382508230A8F48091FC05909172
:10380000FD05938382839F012C5F3F4F6EEF75E030
:1038100088E0DB010D90BD01D9010D929D01815021
:10382000C1F70AC01382128214821582168217828F
:103830001086118612861386208D8091B705281771
:1038400061F594818091BA05981739F59581809139
:10385000BB05981711F596818091BC059817E9F47E
:1038600097818091BD059817C1F490858091BE0520
:10387000981799F491858091BF05981771F49285F6
:103880008091C005981749F493858091C1059817D8
:1038900021F4CA010E94080A5AC02093B705848106
:1038A0008093BA0585818093BB0586818093BC0592
:1038B00087818093BD0580858093BE058185809337
:1038C000BF0582858093C00583858093C1052091C3
:1038D000F00524871786108A118A128A138A148A9F
:1038E000158A168A8091F1059091F2059687858751
:1038F000233079F49F01215F3F4F63EF75E088E04B
:10390000DB010D90BD01D9010D929D018150C1F7E0
:103910000BC0223039F48091F3059091F405908B1F
:10392000878702C01686158680910706878B80914F
:103930000806818F8091090690910A06938F828FE5
:1039400081E1808386E196E0BA010E943D0A809180
:10395000EB0584FF41C08091FB05823071F48091BA
:10396000FE059091FF059A8389830091FC051091D3
:10397000FD0580E060E042E021C0833019F58091D0
:10398000FE0589838091FF058A83809100068B83E1
:10399000809101068C83809102068D8380910306BD
:1039A0008E83809104068F8380910506888700911D
:1039B000FC051091FD0580E060E043E09E012F5F73
:1039C0003F4F07C080E060E040E020E030E000E0F2
:1039D00010E00E94BE1902C00E942E1E28960FB64B
:1039E000F894DEBF0FBECDBFCF91DF911F910F9135
:1039F0000895CF92DF92EF92FF920F931F93DF9380
:103A0000CF93CDB7DEB762970FB6F894DEBF0FBE87
:103A1000CDBF8C01DE011196FC01808191819C015A
:103A2000F90182E101900D928150E1F78F8582FDCD
:103A300011C08091C405882321F48091CD0588238D
:103A400049F09E85D801ED91FC9180E180839183BE
:103A500081EEB5C0F801C080D1808DE0D6018C9395
:103A60008E8513968C93888945E0F42EF80EE8E94C
:103A7000F0E0E81BF109EC0DFD1D9A81923051F444
:103A800037E0F32EF80E80919C0590919D0592935E
:103A9000829312C0933081F438972DE0F22EF80E05
:103AA0009F014EE855E088E0DA010D90AD01D901A3
:103AB0000D929D018150C1F72091990530919A0591
:103AC0008C819D812817390749F48A81882331F038
:103AD0008B81882319F040E450E009C08A81882353
:103AE00021F0B2E0FB0E3293229340E050E08B8154
:103AF000882311F1823039F46F2D6E5F8E819F81A2
:103B00009293829312C038976F2D685F9F0196E061
:103B1000E92EF12CEC0EFD1E88E0D7010D907D0101
:103B2000D9010D929D018150C1F782E0F82EF60E69
:103B30008C819D81929382938091CF0582938F5F38
:103B40008093CF05BA0161608F8580FF02C0BA0102
:103B500061628889873608F070618B81382F330F56
:103B6000330F20E04A81942F9295990F990F907C02
:103B700080E0282B392B262B372B32932293329639
:103B8000F7FC15C03397F082D6011796FC93EE939D
:103B900016970E94091EF60112830183C60162E096
:103BA00070E041E00E941E0E882381F013C09E85C4
:103BB000D801ED91FC9180E18083918385EE828331
:103BC00086E196E0B8010E943D0A14C081E080932E
:103BD000130610C09E85D801ED91FC9180E1808391
:103BE000918381EE828386E196E0B8010E943D0ACE
:103BF0000E942E1E62960FB6F894DEBF0FBECDBF98
:103C0000CF91DF911F910F91FF90EF90DF90CF90B8
:103C1000089580911406813051F40E94E81285388D
:103C200031F081E090E00E94C204109214060895E1
:103C300080911406882389F480E090E00E94C204F9
:103C400080E00E94FB12882321F481E08093140617
:103C5000089581E090E00E94C20408958091B80523
:103C6000882331F48091D705882311F40E94181E0F
:103C700008950F931F93182F109213061092120697
:103C8000109214061092CD051092CE051092C40524
:103C90001092B7058FEF8093BA058093BB05809390
:103CA000BC058093BD058093BE058093BF058093BE
:103CB000C0058093C1051092D70588E00E941D13AE
:103CC0000FB7F89480E00E94E30581E00E94E305CD
:103CD00082E00E94E3050FBF112391F110921506B7
:103CE00080EE9AE09093C7058093C60580E098E740
:103CF0009093E0058093DF051092C30581E08093E7
:103D0000C50586E08093B9051092E3051092E4059D
:103D10001092E5051092E6051092E7051092E8056D
:103D20001092E9051092EA058FEF9FEF9093D60568
:103D30008093D5050E94DC2B8093CF051092B805A7
:103D40001F910F9108950F931F93CF93DF93EC0171
:103D5000088119810E94091EF801018180E090E02C
:103D60000E94C20480E0011181E00E94D611182F48
:103D700081E090E00E94C204802F0E94391E0E94C0
:103D80002E1E88EC95E00E94DE0A8AED95E00E94E6
:103D9000DE0A86E196E00E94DE0AE881F98111835D
:103DA00080E2808386E196E0BE010E943D0ADF91B9
:103DB000CF911F910F910895DF93CF9300D000D042
:103DC000CDB7DEB70E94091E8FEF9FEF9A838983DC
:103DD0009C838B8383E5BE016F5F7F4F0E94351FFD
:103DE00080E5BE016D5F7F4F0E94351F81E00E941C
:103DF000391E0E942E1E0F900F900F900F90CF91A2
:103E0000DF9108950E94F311882399F40E94950888
:103E1000882379F081E00E94391E0E942E1E88ECD2
:103E200095E00E94360A8AED95E00E94360A80E00D
:103E3000089585E80895E82F883030F4E82FF0E001
:103E4000EA5AFE4F849108958054803228F4F0E0BD
:103E5000E25EFE4F84910895E03F10F480E0089503
:103E6000F0E0E257FF4F849108951F93CF93DF93C3
:103E7000182FEB0180911406813051F40E94091E25
:103E8000812FBE010E941C10182F0E942E1E04C0FC
:103E9000812F0E941C10182F812FDF91CF911F912D
:103EA0000895FF920F931F93CF93DF93182FEB0189
:103EB000F42E813520F58E3408F087C0833409F460
:103EC00084C0843460F4853038F4823008F07DC0DA
:103ED000882309F47AC02DC0823459F53AC08A3457
:103EE00009F43FC08B3428F48434B9F1873409F5E0
:103EF0006CC08B3409F44EC08C34D9F452C0873571
:103F000009F463C0883558F4853530F4833508F0FA
:103F10005CC0823571F449C0863559F40CC08935CE
:103F200009F453C0893558F08A3561F0803F09F4AF
:103F30004CC004EFB8C0888180931506B3C0888157
:103F40009981ACC0888199819093E0058093DF05C9
:103F5000A9C088818093C505A5C088818093B905D3
:103F6000A1C088818093E30589818093E4058A81DB
:103F70008093E5058B818093E6058C818093E7052E
:103F80008D818093E8058E818093E9058F818093F0
:103F9000EA0588C0888199819093D6058093D505DC
:103FA00081C088818093CF057DC06881611161E007
:103FB0006093B805662331F00E94091E86E00E94D6
:103FC0001D1370C00E942E1E6DC0812FBE010E9465
:103FD0001C10082F813871F40E94E812812FBE0155
:103FE0000E941C10082F882309F05DC081E0809397
:103FF000310503C0882309F056C08091A405282FFD
:1040000030E08091A805482F50E06091AB05CA01CF
:10401000861B9109281739070CF4C901A82F281B02
:10402000310981E090E002C0880F991F4A95E2F7BC
:104030000197289FA001299F500D389F500D1124F2
:1040400020E030E070E0E1E0F0E00DC0C901860F53
:10405000971FEF0102C0CC0FDD1F8A95E2F74C0FCE
:104060005D1F2F5F3F4F2A1788F384E190E0489F40
:10407000B001499F700D589F700D112480919805D3
:10408000882319F540E054E028E030E080E290E039
:10409000820F931F840F951F860F971F9093C7055C
:1040A0008093C60500E0FF2049F080913105882308
:1040B00029F080E00E94FB1210923105802FDF91E1
:1040C000CF911F910F91FF90089540E051E022E0C1
:1040D00030E088E090E0DCCFEF92FF920F931F93E7
:1040E0007C01FC0100811181B8016E5F7F4FF801F6
:1040F000818141E00E94511FF801918192839FE1EB
:104100009083818386E196E0B7010E943D0A1F916A
:104110000F91FF90EF900895CF93DF93AC01DC01F6
:10412000ED91FC919F012D5F3F4F81818C3409F40B
:1041300085C08D3438F5853009F464C0863088F444
:10414000823009F4ACC0833030F4882309F497C07E
:104150008130E9F597C0833009F4A4C08430B9F503
:104160004EC0823409F459C0833430F4863009F4E7
:104170004EC0873061F54EC08A3409F451C08B348B
:1041800031F557C0863529F1873588F4803509F433
:104190005EC0813530F48E3409F453C08F34B9F4E5
:1041A00053C0823509F458C0833589F458C0893525
:1041B000D9F08A3528F4873579F0883541F40FC075
:1041C0008D35D1F0803F09F451C08A3581F094EFEC
:1041D0006DC08091150668C08091A80565C080916A
:1041E000C6059091C7053FC08091AC055DC0809128
:1041F000DF059091E00537C08091C30555C08091DF
:10420000980552C080919605909197052CC0809199
:10421000AE054AC08091A50547C08091C50544C040
:10422000E901A3EEB5E088E00D9009928150E1F735
:104230003CC08091D5059091D60515C08091CF05E1
:1042400033C08091A40530C08091AB052DC0809112
:10425000990590919A0507C08091B80525C0809175
:104260009C0590919D05948383831FC0E901AEE86E
:10427000B5E088E00D9009928150E1F716C0809179
:10428000A60512C08091B2059091B305A091B40526
:10429000B091B50583839483A583B68306C08091CE
:1042A0008D0502C080919B05838390E0818182838C
:1042B0008EE18083918386E196E0BA010E943D0AF7
:1042C000DF91CF910895CF93DF93EC01E881F981DD
:1042D00083E280836183662311F00E942E1E86E1B3
:1042E00096E0BE010E943D0ADF91CF910895809132
:1042F000ED058823E1F080E00E94E3058091ED0563
:10430000813031F480910806882311F060E001C00B
:104310006BEE8091C405823031F48091D305909189
:10432000D4050E946321109213061092C4050895CB
:104330008091C405823039F48091D3059091D405E1
:104340006BEE0E9463211092C4051092130608952B
:10435000CF92DF92EF92FF920F931F93DF93CF9351
:10436000CDB7DEB728970FB6F894DEBF0FBECDBF2E
:10437000D82EC92E8091C4058823B1F58091CD0532
:10438000882391F50E94091EED2CFC2CD701ED919C
:10439000FC9181819F012C5F3F4F823031F48481F9
:1043A00095819A83898342E00DC0AE014F5F5F4FD4
:1043B00088E0D9010D909D01DA010D92AD01815087
:1043C000C1F743E00281138181E060E09E012F5F2D
:1043D0003F4F0E94BE19882311F4C70107C0D09235
:1043E000D305C092D40505C08D2D9C2D61EE0E9491
:1043F000632128960FB6F894DEBF0FBECDBFCF91D4
:10440000DF911F910F91FF90EF90DF90CF90089573
:104410005F926F927F928F929F92AF92BF92CF9254
:10442000DF92EF92FF920F931F93DF93CF93CDB75D
:10443000DEB761970FB6F894DEBF0FBECDBFBC01EB
:104440004091CD05423011F0443069F48091C505AA
:10445000882349F0E091D305F091D4052081318182
:10446000D901199604C0A0E0B0E020E030E05091FE
:10447000FB0559830091FC051091FD051B830A8300
:10448000523069F41E821F82188619861A861B868E
:104490008091FE059091FF059D838C8318C08091CB
:1044A000FE058C838091FF058D83809100068E83AD
:1044B000809101068F838091020688878091030690
:1044C0008987809104068A87809105068B87909062
:1044D000A6059C86B0909805BD86809109069091AE
:1044E0000A069F878E87188A80910B0687FF02C075
:1044F00081E0888B80910706898B423019F0443027
:1045000009F06FC08091C505882309F46AC0F901DC
:10451000F084EC81FD815C806D807E808F80A8843A
:10452000C984DA84EB8440E049C011968D919C9156
:1045300012970817190709F03FC08C915817E1F539
:104540001B968C911B979816B9F51C968C911C970D
:10455000B81691F5523041F413968D919C911497B1
:10456000E817F90749F53DC013968C911397851507
:1045700019F514968C9114978615F1F415968C9173
:1045800015978715C9F416968C9116978815A1F47E
:1045900017968C9117978A1579F418968C9118971D
:1045A0008C1551F419968C9119978D1529F41A963A
:1045B0008C911A978E15A9F04F5F51964F1508F4FC
:1045C000B4CF59C0FD01DE01119681E10D90019239
:1045D0008150E1F7D90118968C9118978F5F189642
:1045E0008C9390910C0680910F06882321F4809182
:1045F000C5058823E1F5DB01ED91FC9187E180831E
:104600008091EF0581839F012E5F3F4FAE014F5F89
:104610005F4F81E1DA010D90AD01D9010D929D014D
:104620008150C1F780910C06838B892F877059F4D4
:10463000892F90E08077907024E0959587952A9552
:10464000E1F7882331F080910D0690910E06958B4D
:10465000848B80910F06868B8091100690911106B5
:10466000908F878B86E196E00E943D0A09C0CB01BE
:104670000E94080A05C0E4E0EF1508F4B2CFA2CF0B
:1046800061960FB6F894DEBF0FBECDBFCF91DF911C
:104690001F910F91FF90EF90DF90CF90BF90AF9060
:1046A0009F908F907F906F905F900895EF92FF9210
:1046B0000F931F93CF93DF93182FEB0110921306E4
:1046C0008091CD05823021F48881873051F405C076
:1046D000833039F48881863021F4812F0E94572855
:1046E000EFC08881843009F475C0853030F48130A2
:1046F00009F1833009F0E2C010C08B3009F46AC0C0
:104700008D3021F0853009F0D9C0D1C089819A81DE
:10471000612F4B810E94CB1BD1C089819A81612F6F
:104720000E94B61A80911206813009F0C7C00E941B
:10473000DC1EC4C0193E11F0113E41F489819A81FA
:10474000612F4FEF5FEF0E943D13B8C08093C40507
:104750008091DF059091E005AC0160E070E0809110
:1047600098059091A6058823A1F4992339F4CB01EB
:10477000BA0122E330E040E050E006C0CB01BA01CC
:1047800029E130E040E050E00E942C2BAB01BC015D
:1047900010C0992339F4CB01BA0128E230E040E09F
:1047A00050E0F2CF94E0440F551F661F771F9A9593
:1047B000D1F780E020E030E00EE813E1EE24FF24A2
:1047C0000E94F206882309F47BC080E090E00E94FA
:1047D0008E1376C089819A810E94080A8091C4054F
:1047E000813009F46DC088818430A1F4173881F0DC
:1047F000E091D305F091D405A081B18183E28C933F
:1048000011961C9386E196E0BF010E943D0A56C0B6
:1048100082E007C0193E09F451C0113E09F44EC0B0
:1048200083E08093C4058091C6059091C705AC01D3
:1048300060E070E0809198059091A6058823A1F42E
:10484000992339F4CB01BA0122E330E040E050E093
:1048500006C0CB01BA0129E130E040E050E00E94FF
:104860002C2BAB01BC0110C0992339F4CB01BA0148
:1048700028E230E040E050E0F2CF84E0440F551FE2
:10488000661F771F8A95D1F780E020E030E008E9C5
:1048900011E2EE24FF240E94F20691E090931306A9
:1048A000882371F080E090E00E94982109C08981FE
:1048B0009A810E94080A8EEE0E94D6280E942E1E1F
:1048C000DF91CF911F910F91FF90EF900895EF929C
:1048D000FF920F931F931092D7058091B8058823FC
:1048E000C9F4809114068823A9F488E00E941D135E
:1048F000883071F082E040E850E060E070E020E055
:1049000030E007E614E2EE24FF240E94F20602C023
:104910000E942E1E1F910F91FF90EF900895DF923D
:10492000EF92FF920F931F93CF93DF93EC01E881F7
:10493000F981E680F78000851185E114F104010515
:10494000110539F480E090E00E946724E881F98144
:104950006CC08091C405882309F062C08091CD05A8
:10496000882309F05DC00E94091E86E00E941D1385
:10497000D82E81E08093D70582E00E941805882315
:1049800019F082E00E94E305809198059091A605B8
:104990008823A1F4992339F4C801B70122E330E058
:1049A00040E050E006C0C801B70129E130E040E036
:1049B00050E00E942C2BAB01BC0112C0992339F4AA
:1049C000C801B70128E230E040E050E0F2CFB80182
:1049D000A70184E0440F551F661F771F8A95D1F702
:1049E00082E020E030E007E614E2EE24FF240E949B
:1049F000F206882381F0E881F98181E2808388EEE4
:104A0000818386E196E0BE010E943D0A80E090E04D
:104A10000E94672412C0E881F98186E0D81629F047
:104A200081E2808382EF818303C081E280831182EF
:104A300086E196E0BE010E943D0ADF91CF911F9171
:104A40000F91FF90EF90DF900895BC0186E196E012
:104A50000E943D0A8091C2058093380584E068E396
:104A600075E00E94351F8091D2058093370580E064
:104A700067E375E00E94351F1092CD050E942E1E3F
:104A80000895CF93DF93E091E105F091E205C081B5
:104A9000D181DE01A956BF4FFA83E983882339F01B
:104AA00087E088838C934AE023E038E013C086E0F7
:104AB00088838C9318979D014EE855E088E0FA01B1
:104AC0000190AF01F90101929F018150C1F742E1CC
:104AD00023E438ECFD018FEF9FEF9293829332979E
:104AE0009183808315978091CF058C938F5F8093FE
:104AF000CF053E932E93FD014293FF83EE83CE01BB
:104B000062E070E040E00E941E0E882311F080E019
:104B100003C081E080931306DF91CF910895EF9257
:104B2000FF920F931F93DF93CF930F92CDB7DEB712
:104B30009091CD05933009F467C0943041F09230E4
:104B400009F074C0882309F06CC081E05FC088233D
:104B500009F067C086E00E941D13863009F047C047
:104B600040EC53E060E070E00090390504C0440F71
:104B7000551F661F771F0A94D2F740545C4F6F4F42
:104B80007F4F809198059091A6058823A1F49923E1
:104B900039F4CB01BA0122E330E040E050E006C036
:104BA000CB01BA0129E130E040E050E00E942C2B1B
:104BB000AB01BC0110C0992339F4CB01BA0128E242
:104BC00030E040E050E0F2CF84E0440F551F661F14
:104BD000771F8A95D1F781E020E030E000E417E20A
:104BE000EE24FF240E94F206882301F113C0809175
:104BF00037058F5F809337056091D3057091D40599
:104C000082E00E94762612C0882359F40E94412532
:104C1000882361F481E08983CE0101960E944027B8
:104C200005C0809137058F5F809337050F90CF9136
:104C3000DF911F910F91FF90EF9008950F931F93B5
:104C40008C018091E1059091E2050E94080A109282
:104C5000E2051092E105A091D305B091D405ED9144
:104C6000FC9111978BE18083118283E0828314820F
:104C7000158216821782108686E196E0BD010E9499
:104C80003D0A1092CD050E942E1EC8010E94080AFE
:104C900080E569E076E00E94351F80910E069091D4
:104CA0000F068F5F9F4F29F083E56EE076E00E944C
:104CB000351F80910B0690910C069093D60580933A
:104CC000D5058091EB059091EC0594FF05C084E03B
:104CD00060E176E00E94351F80E06DE076E00E94A2
:104CE000351F0E948F251F910F910895EF92FF921B
:104CF0001F93CF93DF93182F7B01FB01C081D181DC
:104D000084E068E375E00E94351F4091CD05509125
:104D1000C5052091370555C0423011F0443031F4BB
:104D2000552321F08885853008F04EC0133021F4DA
:104D30008885882309F087C0322F3F5F8C819D8151
:104D4000AE81BF81022E04C0B695A7959795879531
:104D50000A94D2F781709070892B91F120933705D6
:104D6000113011F482E003C0123021F484E080930A
:104D7000CD0504C0133011F41093CD0580E067E336
:104D800075E00E94351F182F8823B1F08091E1054E
:104D90009091E2050E94080A1092E2051092E10546
:104DA0000E942E1E8AEE8983188686E196E0B7015E
:104DB0000E943D0A1092CD05812F0E948F255AC076
:104DC000232F2B3008F4A8CF20933705123041F160
:104DD0001330D9F1113009F04DC08091E105909167
:104DE000E2050E94080A1092E2051092E105809106
:104DF000C505882339F08885853010F08AEF05C015
:104E0000882311F0198202C08AEE898380E568ED5B
:104E100075E00E94351F8091D3059091D40528C07C
:104E2000552339F08885853010F08AEF05C0882336
:104E300011F0198202C08AEE898380E568ED75E081
:104E40000E94351F14C0209337058091E105909191
:104E5000E2050E94080A1092E2051092E105888599
:104E6000882311F0198202C08AEE89831886C7014F
:104E70000E942525DF91CF911F91FF90EF9008951B
:104E8000CF93DF93C091D305D091D4059881298128
:104E90008091CD058250833020F5E92FF22F21E05B
:104EA00030E040E050E00090370504C0220F331F8F
:104EB000441F551F0A94D2F7209530954095509580
:104EC00084819581A681B78182239323A423B5236E
:104ED00084839583A683B78380913205BE010E94A7
:104EE0007626DF91CF910895CF92DF92EF92FF92D5
:104EF0000F931F93DF93CF9300D0CDB7DEB7D82E9B
:104F0000C92E082F192FD801ED91FC918091A6058B
:104F10008093D205809198058093C2058681809305
:104F2000390581818093320582819381A481B58185
:104F30008093330590933405A0933505B0933605DF
:104F4000278120933805D092D305C092D4058BE1F8
:104F5000808380913205828380913305909134055E
:104F6000A0913505B091360584839583A683B783D8
:104F70002383108611868091C405882341F4809193
:104F8000CD05882321F480913205882341F488EEF1
:104F9000818386E196E0B8010E943D0A7DC00E94AF
:104FA000091EF801E080F1801092370580913205EA
:104FB000813008F466C0833020F0833009F061C08E
:104FC0004BC08FEF9FEF9A838983809199059091D1
:104FD0009A059093D9058093D80580E5BE016F5F4F
:104FE0007F4F0E94351F80913205813021F4D0928D
:104FF000E105C092E2058AE90E94100A9093D40567
:105000008093D3050097E9F180913205823019F43D
:10501000C8010E94080A2091D3053091D405D90116
:10502000ED91FC918BE180838091320582838091A8
:10503000380583838091330590913405A09135051F
:10504000B091360584839583A683B7831086118635
:1050500080913205B90112C08AE90E94100A90932A
:10506000E2058093E105009721F488EEF701818342
:105070000CC06091D3057091D40583E00E94762620
:105080000BC088EED70111968C9386E196E0B801AB
:105090000E943D0A0E942E1E0F900F90CF91DF912B
:1050A0001F910F91FF90EF90DF90CF900895EF92B6
:1050B000FF920F931F93DF93CF930F92CDB7DEB77D
:1050C0009091CF059F5F9093CF05882309F059C039
:1050D0008091CD05823091F440EC53E060E070E0C7
:1050E0000090390504C0440F551F661F771F0A94AE
:1050F000D2F740545C4F6F4F7F4F07C08091DF0560
:105100009091E005AC0160E070E08091980590918D
:10511000A6058823A1F4992339F4CB01BA0122E32F
:1051200030E040E050E006C0CB01BA0129E130E0B8
:1051300040E050E00E942C2BAB01BC0110C0992331
:1051400039F4CB01BA0128E230E040E050E0F2CF80
:1051500094E0440F551F661F771F9A95D1F781E0A1
:1051600020E030E000E417E2EE24FF240E94F20683
:105170008823A1F081E08983CE0101960E94402717
:105180000DC0809137058F5F809337056091D305FF
:105190007091D405809132050E9476260F90CF91B0
:1051A000DF911F910F91FF90EF9008952EE335E06E
:1051B00030933B0520933A059DE190933E05809303
:1051C0003F058091CD05882379F08091D805909195
:1051D000D90590934105809340058091D205809335
:1051E00042058091C2050EC08091990590919A0563
:1051F00090934105809340058091A60580934205D8
:10520000809198058093430586E196E06AE375E016
:105210000E943D0A80911206823050F48091CD05A3
:10522000882331F48091C405882311F40E942E1E36
:105230001092CE0508950F931F938C018FEE0E945C
:10524000D628C8010E94080A80E569E076E00E943D
:10525000351F80910E0690910F068F5F9F4F29F0AA
:1052600083E56EE076E00E94351F80910B069091F9
:105270000C069093D6058093D5058091EB0590910F
:10528000EC0594FF05C084E060E176E00E94351FE4
:1052900080E06DE076E00E94351F1F910F91089528
:1052A000CF93DF93EC018AE90E94100ADC0100979A
:1052B00011F480E018C0ED91FC9111978EE080838D
:1052C0008881818389819A8193838283349623960E
:1052D00088E0099001928150E1F788EC95E0BD01EA
:1052E0000E943D0A81E0DF91CF910895BF92CF9255
:1052F000DF92EF92FF920F931F93182F6A017B01A9
:10530000B22E8AE90E94100ADC01009711F480E0B5
:1053100012C0ED91FC9111978BE080831183C282C2
:10532000D382E482F582B682078388EC95E0BD01E2
:105330000E943D0A81E01F910F91FF90EF90DF9056
:10534000CF90BF9008957F928F929F92AF92BF921D
:10535000CF92DF92EF92FF920F931F93782E6A0104
:105360007B01480159018AE90E94100ADC0100977B
:1053700011F480E014C0ED91FC9111978AE08083D4
:105380007182C282D382E482F58286829782A0866D
:10539000B18688EC95E0BD010E943D0A81E01F9135
:1053A0000F91FF90EF90DF90CF90BF90AF909F90C4
:1053B0008F907F9008951F93182F8AE90E94100AFA
:1053C000DC01009711F480E00CC0ED91FC91119785
:1053D00088E08083118388EC95E0BD010E943D0A3E
:1053E00081E01F9108951F93182F8AE90E94100AE7
:1053F000DC01009711F480E00CC0ED91FC91119755
:1054000089E08083118388EC95E0BD010E943D0A0C
:1054100081E01F9108950F931F93CF93DF93EC01C9
:10542000162F042F8AE90E94100A9C01009711F49C
:1054300080E01FC0DC01ED91FC9185E08083148742
:105440008881818389819A8193838283AF014C5FB4
:105450005F4FDE01139688E00D90EA010992AE01DC
:105460008150D1F7058788EC95E0B9010E943D0A8B
:1054700081E0DF91CF911F910F910895FF920F93DB
:105480001F93CF93DF93182FF62EEA01022F8AE99C
:105490000E94100A9C01009711F480E020C0DC01FA
:1054A000ED91FC9181E080831183888183838981E0
:1054B0009A8195838483AF014A5F5F4FDE01139623
:1054C00088E00D90EA010992AE018150D1F706877C
:1054D000F28288EC95E0B9010E943D0A81E0DF91FB
:1054E000CF911F910F91FF900895AF92BF92CF92ED
:1054F000DF92EF92FF920F931F93CF93DF93D82EFB
:10550000EB01F42EB22EA32EC02E86E7841708F4EA
:1055100045C08AE90E94100A8C01009709F43EC038
:10552000DC01ED91FC9183E08083D182288122838C
:1055300089819A8194838383CF010596AE014D5F63
:105540005F4F223069F41582168217821086118609
:105550001286138614868B819C819683858307C06F
:10556000EC01DA0188E00D9009928150E1F7C586DF
:10557000E686F78628E930E02F1931092E0F3F1F04
:10558000C9016B2D7A2D4F2D50E00E94EC2B88EC39
:1055900095E0B8010E943D0A81E001C080E0DF9102
:1055A000CF911F910F91FF90EF90DF90CF90BF9020
:1055B000AF900895FF920F931F93CF93DF93182F0F
:1055C000062FF72E8AE90E94100AEC01009711F4C9
:1055D00080E016C0812F0E941B1F482FE881F981AF
:1055E00086E0808311833296CF01602F7F2D50E0BB
:1055F0000E94EC2B88EC95E0BE010E943D0A81E000
:10560000DF91CF911F910F91FF9008951F930E94FA
:10561000A31B182F86E196E060E070E00E94D20A9A
:10562000009719F00E948C1B11E00E94AA0C0E94A6
:10563000AD04812F1F91089586E196E00E94360AFD
:105640000E94021F089508950895089508950895E9
:105650000895089508950895629FD001739FF00101
:10566000829FE00DF11D649FE00DF11D929FF00DF2
:10567000839FF00D749FF00D659FF00D9927729F29
:10568000B00DE11DF91F639FB00DE11DF91FBD01B4
:10569000CF0111240895AA1BBB1B51E107C0AA1F0B
:1056A000BB1FA617B70710F0A61BB70B881F991FC3
:1056B0005A95A9F780959095BC01CD010895A1E276
:1056C0001A2EAA1BBB1BFD010DC0AA1FBB1FEE1F7C
:1056D000FF1FA217B307E407F50720F0A21BB30BC7
:1056E000E40BF50B661F771F881F991F1A9469F743
:1056F00060957095809590959B01AC01BD01CF019F
:105700000895AF92BF92CF92DF92EF92FF920F93E4
:105710001F93CF93DF93EC01A880B980CA80DB8010
:10572000A114B104C104D10441F484E2A82E89ED8E
:10573000B82E8BE5C82E87E0D82EC601B5012DE125
:1057400033EF41E050E00E949D3027EA31E440E031
:1057500050E00E942C2B7B018C01C601B5012DE18C
:1057600033EF41E050E00E949D30CA01B9012CEEB8
:1057700034EF4FEF5FEF0E942C2B6E0D7F1D801FCB
:10578000911F97FF04C0615070408040904868832B
:1057900079838A839B839B013F77C901DF91CF91F6
:1057A0001F910F91FF90EF90DF90CF90BF90AF903F
:1057B00008950E94812B089589E992E00E94812B2F
:1057C0000895A0E0B0E08093990290939A02A0938C
:1057D0009B02B0939C020895FB01DC0102C0019082
:1057E0000D9241505040D8F708950F931F93CF93D7
:1057F000DF938C01EB01009731F46115710519F409
:1058000020E030E038C081E090E06EE070E00E947F
:10581000D52EFC019C01009771F180E883832097CD
:1058200071F0D387C28781E8838380911B069091B2
:105830001C06892B21F4F0931C06E0931B0601152E
:105840001105C9F01187008783818260838380916D
:105850001D0690911E06892B71F4F0931E06E093AD
:105860001D0680911F0690912006892B21F4F0934C
:105870002006E0931F06C901DF91CF911F910F9180
:105880000895DF93CF93CDB7DEB7FE0135966191D2
:10589000719180911D0690911E06AF010E94B92C56
:1058A000CF91DF9108950F931F93CF93DF938C01D6
:1058B000E0911D06F0911E06838181FF21C0C0E0AA
:1058C000D0E00DC0E0911D06F0911E0620853185C7
:1058D000BF01F9010995892B11F0CFEFDFEFF80136
:1058E00081918F01882371F7E0911D06F0911E06CA
:1058F000208531858AE0BF01F9010995892B11F0D6
:10590000CFEFDFEFCE01DF91CF911F910F9108957F
:105910000F931F93DF93CF93CDB7DEB72E970FB6BC
:10592000F894DEBF0FBECDBF0D891E8986E08C8343
:105930001A8309838FEF9FE79E838D839E01275EE5
:105940003F4FCE0101966F89788DA9010E94B92C35
:105950002F813885020F131FF80110822E960FB683
:10596000F894DEBF0FBECDBFCF91DF911F910F9195
:1059700008952F923F924F925F926F927F928F92F3
:105980009F92AF92BF92CF92DF92EF92FF920F93CE
:105990001F93DF93CF93CDB7DEB72B970FB6F89455
:1059A000DEBF0FBECDBF3C012B015A01FC011782A7
:1059B0001682838181FD03C06FEF7FEFC6C19AE03D
:1059C000892E1E010894211C311CF3012381F20150
:1059D00023FD859123FF81912F01882309F4B2C112
:1059E000853239F423FD859123FF81912F01853282
:1059F00029F490E0B3010E941330E7CF982FFF24E1
:105A0000EE249924FFE1FF15D0F09B3269F09C321F
:105A100028F4903259F0933291F40EC09D3249F03F
:105A2000903369F441E024C052E0F52A84E0F82A7A
:105A300028C098E0F92A25C0E0E1FE2A22C0F7FC40
:105A400029C0892F80538A3070F4F6FE05C0989CD7
:105A5000902C1124980E15C0E89CE02C1124E80E1F
:105A6000F0E2FF2A0EC09E3229F4F6FC6BC140E43E
:105A7000F42A07C09C3619F450E8F52A02C098367B
:105A800049F4F20123FD959123FF91912F01992370
:105A900009F0B8CF892F8554833018F080528330B5
:105AA00038F444E050E0A40EB51E5FE359830FC004
:105AB000933631F0933779F0933509F056C020C012
:105AC000F5018081898342E050E0A40EB51E61019A
:105AD00001E010E012C0F501C080D180F6FC03C0E7
